:020000040800F2
:100000005805002035900008A9700008AB70000862
:10001000AF700008B3700008B7700008000000005F
:10002000000000000000000000000000BD7000089B
:10003000BB70000800000000BF700008E1700008FD
:100040004F9000084F9000084F9000084F90000814
:100050004F9000084F9000084F9000084F90000804
:100060004F9000084F9000084F9000084F900008F4
:100070004F9000084F9000084F9000084F900008E4
:10008000957100084F9000084F9000084F900008AD
:100090004F9000084F9000084F9000084F900008C4
:1000A0004F9000084F9000084F9000084F900008B4
:1000B0004F900008117100083D7100084F90000832
:1000C0004F9000084F9000084F9000084F90000894
:1000D0004F9000084F9000084F900008C170000832
:1000E0004F9000084F9000084F9000084F90000874
:1000F0004F9000084F9000084F9000084F90000864
:100100004F9000084F900008697100084F90000858
:100110004F9000084F900008CF5D00084F900008F6
:100120004F9000084F9000084F9000084F90000833
:10013000DFF80CD009F0DCFA004800477B6F0008BC
:100140005805002008B50121202007F0D3FC4FF40A
:100150000070ADF8000048208DF8030003208DF8F2
:1001600002006946574807F009FA4FF48060ADF87D
:10017000000010208DF8030003208DF8020069466E
:10018000504807F0FBF98020ADF8000010208DF8F2
:10019000030003208DF8020069464A4807F0EEF993
:1001A0004FF48070ADF8000010208DF8030003209C
:1001B0008DF802006946434807F0E0F908BD70B5C4
:1001C00006460025012426E04FF480703D49143195
:1001D0000860142005F0ECFD06EA040028B14FF495
:1001E000806038491031086004E04FF48060354980
:1001F000143108604FF480703249103108601420C7
:1002000005F0D6FD4FF400712E4807F04AFA00B110
:1002100025436006040E002CD6DC284670BD10B5C0
:100220008020284914310860142005F0C1FD012008
:10023000FFF7C5FF4220FFF7C2FFFF20FFF7BFFF18
:10024000FF20FFF7BCFF20490870FF20FFF7B7FF32
:100250001D494870FF20FFF7B2FF1B498870FF203F
:10026000FFF7ADFF1849C870FF20FFF7A8FF164938
:100270000871FF20FFF7A3FF13494871142005F010
:1002800097FD80200F4910310860142005F090FD83
:1002900010BD10B5002480200A49143108601420D4
:1002A00005F086FD0120FFF78AFF4220FFF787FF58
:1002B00004468020034910310860142005F078FDC1
:1002C000204610BD0014014054000020014600BF2C
:1002D0004FF47A7201FB02F000E0401E0028FCD1CE
:1002E000704710B50446B348006840F00400B149B7
:1002F000086004F0800028B10846006840F0400023
:10030000086005E0AB48006820F04000A94908609B
:1003100004F0400030B1A748006840F02000A54933
:10032000086005E0A348006820F02000A1490860AB
:1003300004F0200030B19F48006840F010009D4953
:10034000086005E09B48006820F0100099490860AB
:1003500004F0100030B19748006840F0080095495B
:10036000086005E09348006820F0080091490860A3
:100370009048006820F004008E4908600120FFF7D3
:10038000A5FF8C48006840F004008A49086004F02A
:10039000080028B10846006840F04000086005E009
:1003A0008448006820F040008249086004F004009E
:1003B00030B18048006840F020007E49086005E0C8
:1003C0007C48006820F020007A49086004F00200B0
:1003D00030B17848006840F010007649086005E0C8
:1003E0007448006820F010007249086004F00100B1
:1003F00030B17048006840F008006E49086005E0C0
:100400006C48006820F008006A4908606948006884
:1004100020F00400674908600120FFF757FF10BD76
:1004200008B50121202007F065FB0120ADF8000090
:1004300010208DF8030003208DF8020069465D4806
:100440000C3807F09BF80420ADF8000069465948C5
:100450000C3807F093F80820ADF8000069465548BD
:100460000C3807F08BF81020ADF8000069465148B1
:100470000C3807F083F82020ADF8000069464D489D
:100480000C3807F07BF84020ADF800006946494879
:100490000C3807F073F808BD10B5044645480068ED
:1004A00020F00100434908602046FFF71AFF10BD05
:1004B00010B504463F48006840F001003D4908601F
:1004C0002046FFF70EFF1420FFF700FF10BD10B508
:1004D000FFF7A6FF3320FFF7DFFF6420FFF7F6FEEC
:1004E0003220FFF7D9FF4FF4FA70FFF7EFFE282014
:1004F000FFF7D2FF4FF4FA70FFF7E8FE0120FFF795
:10050000CBFF4FF4FA70FFF7E1FE0620FFF7C4FFC0
:100510004FF4FA70FFF7DAFE0C20FFF7BDFF4FF43F
:10052000FA70FFF7D3FE0220FFF7B6FF4FF4FA7020
:10053000FFF7CCFE10BD10B50220FFF7ADFF052080
:10054000FFF7C4FE10BD10B50120FFF7A5FFC820BE
:10055000FFF7BCFE10BD70B506460C4636B1012E45
:1005600006D0022E08D0032E0ED109E0E5B20DE030
:1005700004F14000C5B209E004F11400C5B205E081
:1005800004F15400C5B201E0E5B200BF00BF45F080
:100590008000FFF781FF0A20FFF798FE70BD10B5BD
:1005A000044602E02078FFF783FF14F8011B0029BE
:1005B000F8D110BD0C14014008B501217D2007F0D1
:1005C00099FA4FF6FF70ADF8000010208DF8030087
:1005D00003208DF802006946FE4806F0CFFF694609
:1005E000FD4806F0CBFF6946FC4806F0C7FF6946A8
:1005F000FB4806F0C3FF6946FA4806F0BFFF4FF616
:10060000FF71F54807F070F84FF6FF71F14807F0F9
:100610006BF84FF6FF71F14807F066F84FF6FF717F
:10062000EF4807F061F84FF6FF71EE4807F05CF80D
:10063000FC20ADF8000010208DF8030003208DF899
:1006400002006946E74806F099FF4FF40040ADF814
:10065000000048208DF8030003208DF80200694651
:10066000DC4806F08BFF4EF62040ADF80000482035
:100670008DF8030003208DF802006946D74806F084
:100680007DFF47F20730ADF8000048208DF80300E9
:1006900003208DF802006946CE4806F06FFF4FF444
:1006A000FE40ADF8000048208DF8030003208DF8CF
:1006B00002006946CB4806F061FF40F60200ADF843
:1006C000000048208DF8030003208DF802006946E1
:1006D000C34806F053FF08BD10B50121C80207F05A
:1006E00009FA0121052007F005FA4FF47060BE49B0
:1006F00008801820C87003208870B74806F03EFFB5
:10070000FF20BA49888040F26C7008800020C880C1
:100710004880B74807F026FB7020B64908800120C2
:1007200048800020C8800881B14807F058FB0821A4
:10073000AF4807F0A3FF0120AE4948800020C880E1
:10074000AB4807F08EFB0821A94807F0A0FF012065
:10075000A84948800020C880A54807F0CFFB0821A1
:10076000A34807F0A1FF0120A24948800020C880CB
:100770009F4807F00EFC08219D4807F09EFF0121CD
:100780009B4807F04BFF0121994807F053FE0121D8
:10079000974807F043FE10BD08B50121480307F054
:1007A000A9F90121112007F0A5F94FF47070ADF8F7
:1007B000000018208DF8030002208DF80200694621
:1007C000864806F0DBFEFF20884988809620088056
:1007D0000020C8804880884807F0C4FA6020854916
:1007E0000880012048800020C880022008818248BB
:1007F00007F0F5FA7F49804807F033FB7D497E48D2
:1008000007F07CFB7B497C4807F0C3FB01217A4859
:1008100007F004FF0121784807F00CFE012176481B
:1008200007F0FCFD08BD10B50121022007F06FF9AB
:100830000121052007F05EF91D2070490870032092
:100840004870002088700120C870084606F0CDFD71
:10085000C020654908804820C870022088705E4822
:1008600006F08CFE02231A460121654807F089FE36
:1008700001221146624807F0ECFD0121604807F0B3
:10088000CDFD00215E4808F05DF810BD08B50020E0
:1008900000905B4808F079F85A49096840EA01403D
:1008A0000090009808BD08B500200090FFF7EEFF0B
:1008B0000090009808BD002051492431088051491A
:1008C0000860704710B50121042007F020F90121CC
:1008D000092007F00FF98020434908801820C870CC
:1008E000032088703B4806F049FE41F2BF203F4993
:1008F0008880001108800020C8804880424807F0A6
:1009000031FA60203B490880012048800020C880DF
:1009100008813D4807F063FA08213B4807F0AEFE26
:100920000120344948800020C880374807F099FAF0
:100930000821354807F0ABFE01202E4948800020F1
:10094000C880314807F0DAFA08212F4807F0ACFEDA
:100950000120284948800020C8802B4807F019FB57
:100960000821294807F0A9FE0121274807F056FE73
:100970000121254807F05EFD0121234807F04EFDC7
:1009800010BD08B50121082007F0C1F8012105209C
:1009900007F0B0F832208DF8000003208DF8010038
:1009A00000208DF8020001208DF80300684606F053
:1009B0001CFD03200C4908804820C8700220887064
:1009C000054806F0DBFD02231A4601210F4807F017
:1009D000D8FD1DE0000C014000080140001001405E
:1009E00000140140001801400E000020C800002043
:1009F000002C0140D20000200034014012000020F1
:100A0000000400400000002000080040000C0040EE
:100A100001221146F94807F01CFD0121F74807F0B3
:100A2000FDFC0021F54807F08DFF08BD08B500204A
:100A30000090F24807F0A9FFF149096840EA014037
:100A40000090009808BD08B500200090FFF7EEFF69
:100A50000090009808BD0020E84924310880E8494A
:100A60000860704710B50121102007F050F84FF4CE
:100A7000407006F0B5FC3620E2490870032048704B
:100A8000002088700120C870084606F0AEFC48F6C9
:100A90009F40DD49888000200880C8804880DB486E
:100AA00007F060F901221146D84807F0D2FC012175
:100AB000D64807F0B3FC10BD10B586B0044601213E
:100AC000052007F017F80121480407F020F804205A
:100AD000ADF8140018208DF8170003208DF81600CB
:100AE00005A9CB4806F04AFD0820ADF81400042003
:100AF0008DF8170005A9C64806F040FD01940020B6
:100B0000ADF80800ADF80A00ADF80C00ADF8100023
:100B10000C20ADF80E0001A9BE4807F0A0FF01218E
:100B2000BC4808F028F806B010BD10B501210846F1
:100B300006F0D3FFB84808F053F9B648001DB7498E
:100B40000860B7484860002088600220C860002024
:100B500008618020486100208861C8612020086207
:100B60000002486200208862AB4808F0DBF90121EE
:100B7000A94808F002FA01224021A64808F02CF802
:100B800001220221A44808F004FA4FF4407006F054
:100B900027FC10209B4908700F2088700120C87026
:100BA000084606F022FC10BD10B5044621469948BF
:100BB00008F04EF800BF4021964808F0B7F800282A
:100BC000F9D010BD10B586B00446012144F20400EE
:100BD00006F090FF4FF40070ADF8140018208DF867
:100BE000170003208DF8160005A9894806F0C6FCF9
:100BF0004FF48060ADF8140004208DF8170005A9AB
:100C0000834806F0BBFC01940020ADF80800ADF865
:100C10000A00ADF80C00ADF810000C20ADF80E0085
:100C200001A9804807F01BFF01217E4807F0A3FFC0
:100C300006B010BD10B50121480206F05BFF302060
:100C4000794908800020C870714806F097FC0020A0
:100C5000764908600871012048714FF4602088606F
:100C60000020C86001200874714808F01CFA0121B6
:100C70006F4808F044FA6E4808F063FA00BF6C4809
:100C800008F064FA0028FAD1694808F069FA00BF50
:100C9000674808F06AFA0028FAD10121644808F090
:100CA0006EFA10BD10B50446042C02D0052C0ED1EE
:100CB00006E00723012204215D4808F08CFA06E0D3
:100CC0000723012205215A4808F085FA00BF00BF1A
:100CD000574808F0E7FA10BD00B587B04FF4404020
:100CE00006F06CFE01214FF4047006F003FF302083
:100CF000ADF8180000208DF81B0006A9444806F046
:100D00003DFC0020019001208DF8080000208DF8A6
:100D100009004FF4602003900020049001208DF81A
:100D2000140001A9424808F0BEF90121404808F02A
:100D3000E6F93F4808F005FA00BF3D4808F006FA1A
:100D40000028FAD13A4808F00BFA00BF384808F0FA
:100D5000FDF90028FAD107B000BD70B504460D4674
:100D60000026072301222946204608F034FA0121F3
:100D7000204608F004FA00BF0221204608F070FB6C
:100D80000028F9D0204608F08DFA0646304670BD9E
:100D9000002803DB2021274A116003E02021254A97
:100DA000121F1160011E01DB0A4600E04A42224B7D
:100DB0001A807047002803DB1021204A116102E0ED
:100DC00010211E4A5161011E01DB0A4600E04A4221
:100DD000194B1B1F1A807047002805DC0821174A91
:100DE00011614902116104E00821144A516149026C
:100DF0005161011E24DB0A4623E00000000C004084
:100E00000800002012000020C80000200010004050
:100E100000080140004400406C000240E400002053
:100E20000C000020003801400E00002010010020BE
:100E300000240140140C01403C34014000100140EA
:100E40004A42FE4B1A80011E01DB0A4600E04A427C
:100E5000FA4B0C331A807047002803DC0421F84A4F
:100E6000516102E00421F64A1161011E01DB0A46CC
:100E700000E04A42F34B1A80704701B581B0002070
:100E800000904FF4FA5101984843009002E0009816
:100E9000401E009000980028F9D10CBD10B5022129
:100EA000E94806F0FEFBC8B16FF04500FFF7D4FF3C
:100EB00000BF4FF48041E54806F0F3FB0028F8D16D
:100EC0009620FFF7DAFF00BF4FF48041DF4806F0BD
:100ED000E8FB0028F8D10320FFF7BEFF0221DA4823
:100EE00006F0DFFBC0B94620FFF7B6FF00BF4FF4A6
:100EF0008041D64806F0D5FB0028F8D19620FFF7B0
:100F0000BCFF00BF4FF48041D04806F0CAFB002868
:100F1000F8D1401FFFF7A0FF10BD10B50446002C0C
:100F200012DD4FF40041CA4806F0BBFB60B14FF43C
:100F30008051C84A1160201E01DB014600E0414299
:100F4000C04A0C3A11803AE0002C0DDD4FF400410C
:100F5000BF4806F0A6FB38B90520BA490C3908800D
:100F60008814BC4908602AE0002C12DA2021B44819
:100F700006F097FB68B14FF48051B64A121F11601A
:100F8000201E01DB014600E04142AE4A0C3A1180CE
:100F900015E0002C0CDA2021A94806F082FB38B9B4
:100FA0000220A8490C390880C002AA49086006E05E
:100FB0000220A4490C390880C002A649086010BD6F
:100FC00010B5002803DB01229D4B5A6102E001228B
:100FD0009B4B1A61021E01DB134600E05342994C01
:100FE000083C2380002903DB0222954B1A6102E0B2
:100FF0000222934B5A610A1E01DB134600E0534262
:10100000904C241F238010BD011E01DB0A4600E026
:101010004A42914B1A80704710B504462046FFF7AC
:10102000B7FE2046FFF7D8FE2046FFF7C3FE10BDEF
:1010300010B54FF40051864806F033FB68B34FF407
:101040008041834806F02DFB38B34FF4007180488F
:1010500006F027FB08B34FF480517D4806F021FBD2
:10106000D8B104217A4806F01CFBB0B14FF480716E
:10107000774806F016FB80B10121754806F011FB98
:1010800058B10221724806F00CFB30B17348007869
:10109000012802D17249087014E24FF400516C48E3
:1010A00006F0FFFA80BB4FF48041694806F0F9FA78
:1010B00050B34FF40071664806F0F3FA20B34FF4D2
:1010C0008051634806F0EDFAF0B10421604806F063
:1010D000E8FAC8B14FF480715D4806F0E2FA98B1C1
:1010E00001215B4806F0DDFA70B10221584806F094
:1010F000D8FA48B102205A490870012057490870AF
:10110000002058490870C7E7FFE74FF400515048E6
:1011100006F0C7FA80BB4FF480414D4806F0C1FA93
:1011200050BB4FF400714A4806F0BBFA20B34FF4AD
:101130008051474806F0B5FAF0B10421444806F062
:10114000B0FAC8B14FF48071414806F0AAFA98B1DC
:1011500001213F4806F0A5FA70B102213C4806F093
:10116000A0FA48B103203E49087001203B490870AD
:1011700000203C4908708FE7FFE74FF400513448E6
:1011800006F08FFA78B34FF48041314806F089FABF
:1011900048BB4FF400712E4806F083FA18B34FF4A1
:1011A00080512B4806F07DFAE8B10421284806F06A
:1011B00078FAC0B14FF48071254806F072FA90B108
:1011C0000121234806F06DFA68B10221204806F09B
:1011D00068FA40B104202249087000201F490870B5
:1011E0002049087058E7FFE74FF40051184806F00F
:1011F00058FAC8B34FF48041154806F052FA98BB2C
:101200004FF40071124806F04CFA68BB4FF480515D
:101210000F4806F046FA38B304210D4806F041FAAB
:1012200010B34FF480710A4806F03BFAE0B1012197
:10123000074806F036FAB8B1022116E0343401400E
:1012400000100140402C01400014014000180140F2
:10125000000C01401408014038080040160000202E
:101260003C0000201700002007E0FE4806F019FAB5
:1012700018B10520FC4908700EE74FF40051F948F9
:1012800006F00FFA50B34FF48041F64806F009FA21
:1012900020B34FF40071F34806F003FAF0B94FF4AD
:1012A0008051F04806F0FDF9C0B10421ED4806F088
:1012B000F8F998B14FF48071EA4806F0F2F968B194
:1012C0000121E84806F0EDF940B10221E54806F0B9
:1012D000E8F918B10620E4490870DDE64FF4005142
:1012E000E04806F0DEF950B34FF48041DD4806F0E7
:1012F000D8F920B34FF40071DA4806F0D2F9F0B90A
:101300004FF48051D74806F0CCF9C0B90421D54834
:1013100006F0C7F998B14FF48071D24806F0C1F9D0
:1013200068B10121CF4806F0BCF940B10221CD4897
:1013300006F0B7F918B10720CB490870ACE64FF4B6
:101340000051C84806F0ADF950B34FF48041C5488C
:1013500006F0A7F920B34FF40071C24806F0A1F9D6
:10136000F0B14FF48051BF4806F09BF9C0B9042199
:10137000BC4806F096F998B14FF48071B94806F070
:1013800090F968B10121B74806F08BF940B102210C
:10139000B44806F086F918B10820B3490870F7E39D
:1013A0004FF40051AF4806F07CF950B34FF4804140
:1013B000AC4806F076F920B34FF40071A94806F066
:1013C00070F9F0B14FF48051A64806F06AF9C0B93F
:1013D0000421A44806F065F998B94FF48071A1483A
:1013E00006F05FF968B101219E4806F05AF940B154
:1013F00002219C4806F055F918B109209A49087055
:10140000C6E34FF40051974806F04BF950B34FF440
:101410008041944806F045F920B34FF4007191489B
:1014200006F03FF9F0B14FF480518E4806F039F9DB
:10143000C0B104218B4806F034F998B94FF480719B
:10144000884806F02EF968B10121864806F029F98E
:1014500040B10221834806F024F918B10A208249DC
:10146000087095E34FF400517E4806F01AF950B326
:101470004FF480417B4806F014F920B34FF400711B
:10148000784806F00EF9F0B14FF48051754806F037
:1014900008F9C0B10421734806F003F998B94FF474
:1014A0008071704806F0FDF868B901216D4806F0BA
:1014B000F8F840B102216B4806F0F3F818B10B20A0
:1014C0006949087064E34FF40051664806F0E9F892
:1014D00050B34FF48041634806F0E3F820B34FF473
:1014E0000071604806F0DDF8F0B14FF480515D48BE
:1014F00006F0D7F8C0B104215A4806F0D2F898B1E6
:101500004FF48071574806F0CCF868B9012155486E
:1015100006F0C7F840B10221524806F0C2F818B1EF
:101520000C205149087033E34FF400514D4806F048
:10153000B8F850B34FF480414A4806F0B2F820B3EF
:101540004FF40071474806F0ACF8F0B14FF4805109
:10155000444806F0A6F8C0B10421424806F0A1F8BC
:1015600098B14FF480713F4806F09BF868B90121AB
:101570003C4806F096F840B902213A4806F091F846
:1015800018B10D203849087002E34FF40051354876
:1015900006F087F878B34FF48041324806F081F8BE
:1015A00048B34FF400712F4806F07BF818B34FF49E
:1015B00080512C4806F075F8E8B10421294806F05E
:1015C00070F8C0B14FF48071264806F06AF890B107
:1015D0000121244806F065F868B90221214806F087
:1015E00060F840B10E202049087000201F490870A3
:1015F0001F490870CCE2FFE74FF40051194806F08C
:1016000050F8B8B34FF48041164806F04AF888B352
:101610004FF40071134806F044F858B34FF480516A
:10162000104806F03EF828B304210E4806F039F8B9
:1016300000B34FF480710B4806F033F8D0B10121AC
:10164000084806F02EF8A8B90221064806F029F845
:1016500080B90F2004490870012004490870002057
:10166000034908E0000C01403C0000201700002066
:101670001600002001E008708AE24FF40051F8489B
:1016800006F00FF880B34FF48041F54806F009F8F2
:1016900050B34FF40071F24806F003F820B34FF452
:1016A0008051EF4805F0FDFFF0B10421EC4805F052
:1016B000F8FFC8B14FF48071E94805F0F2FF98B126
:1016C0000121E74805F0EDFF70B10221E44805F083
:1016D000E8FF48B91020E34908700120E24908708A
:1016E0000020E249087053E2FFE74FF40051DC4864
:1016F00005F0D7FF70B34FF48041D94805F0D1FF12
:1017000040B34FF40071D64805F0CBFF10B34FF44F
:101710008051D34805F0C5FFE0B10421D04805F061
:10172000C0FFB8B14FF48071CD4805F0BAFF88B161
:101730000121CB4805F0B5FF60B10221C84805F092
:10174000B0FF38B1C8480078012803D11120C5493D
:1017500008701DE24FF48051C14805F0A2FF90BB14
:101760000421BF4805F09DFF68BB4FF48071BC4861
:1017700005F097FF08B9012400E000244FF48041F0
:10178000B74805F08EFF08B9012000E000200443AF
:101790004FF40071B24805F084FF08B9012000E061
:1017A000002004430121AE4805F07BFF08B9012069
:1017B00000E0002004434FF40051A94805F071FFF8
:1017C00010B9012001E00FE0002004430221A448E9
:1017D00005F067FF08B9012000E0002004431CB1B8
:1017E0001320A0490870D3E14FF480719C4805F0A4
:1017F00058FF90BB01219A4805F053FF68BB4FF496
:101800000051974805F04DFF08B9012400E000247D
:101810004FF48041924805F044FF08B9012000E0F0
:10182000002004434FF400718D4805F03AFF08B9D9
:10183000012000E0002004434FF48051884805F067
:1018400030FF08B9012000E000200443042184484F
:1018500005F027FF10B9012001E00FE0002004434C
:1018600002217F4805F01DFF08B9012000E000209B
:1018700004431CB113207B49087089E14FF4804177
:10188000774805F00EFF78BB4FF40071744805F0FF
:1018900008FF48BB4FF48051714805F002FF18BBA8
:1018A00004216F4805F0FDFEF0B94FF480716C48DB
:1018B00005F0F7FEC0B90121694805F0F2FE08B94C
:1018C000012400E000240221654805F0EAFE08B981
:1018D000012000E0002004434FF40051604805F06F
:1018E000E0FE10B9012001E006E0002004431CB135
:1018F00014205C4908704BE14FF48041584805F0D2
:10190000D0FE78BB4FF40071554805F0CAFE48BBC5
:101910004FF48051524805F0C4FE18BB04215048D2
:1019200005F0BFFEF0B94FF400514D4805F0B9FE87
:10193000C0B901214A4805F0B4FE08B9012400E00D
:1019400000240221464805F0ACFE08B9012000E061
:10195000002004434FF48071414805F0A2FE10B905
:10196000012001E006E0002004431CB115203D49A0
:1019700008700DE14FF48041394805F092FE98BBA4
:101980004FF40071364805F08CFE68BB4FF480516F
:10199000334805F086FE38BB4FF40051304805F05F
:1019A00080FE08BB01212E4805F07BFE08B901240A
:1019B00000E0002402212A4805F073FE08B9012046
:1019C00000E0002004434FF40051254805F069FE73
:1019D00008B9012000E0002004430421204805F05C
:1019E00060FE10B9012001E006E0002004431CB1B4
:1019F00016201C490870CBE04FF48041184805F0D0
:101A000050FEA8BB4FF40071154805F04AFE78BBA4
:101A10004FF40051124805F044FE48BB0121104824
:101A200005F03FFE08B9012400E0002402210C4823
:101A300005F037FE08B9012000E0002004434FF410
:101A40000051074805F02DFE08B9012000E00020F4
:101A500004430421024805F024FE50B9012009E0A6
:101A6000000C01403C000020170000201600002060
:101A700010E0002004434FF48051FE4805F011FEB1
:101A800008B9012000E0002004431CB11720FA49E6
:101A900008707DE04FF48041F64805F002FE88BBF7
:101AA0004FF40051F34805F0FCFD58BB0121F1480B
:101AB00005F0F7FD08B9012400E000240221ED48FB
:101AC00005F0EFFD08B9012000E0002004434FF4C9
:101AD0000051E84805F0E5FD08B9012000E00020CC
:101AE00004430421E34805F0DCFD08B9012000E0CF
:101AF000002004434FF48051DE4805F0D2FD10B9B8
:101B0000012001E010E0002004434FF40071D948A7
:101B100005F0C7FD08B9012000E0002004431CB116
:101B20001820D549087033E04FF48041D14805F0C2
:101B3000B8FD50BB4FF40071CE4805F0B2FD20BB9C
:101B40004FF48051CB4805F0ACFDF0B90421C948F1
:101B500005F0A7FDC8B94FF48071C64805F0A1FD96
:101B600098B94FF40051C34805F09BFD68B90121B5
:101B7000C04805F096FD40B90221BE4805F091FD30
:101B800018B91920BC49087002E01220BA4908703F
:101B900010BD00B5B9480078B9490978884240D0ED
:101BA000B6480078B6490870B44800780A2190FB1E
:101BB000F1F0B44908700846007800EBC000B24963
:101BC0000870B0480078C006000EB0490870AD48F3
:101BD0000078C0EBC000AE490870AA48007800EB5E
:101BE00040004006000EAB490870A648007800EBA4
:101BF0008000A9490870A34800788006000EA74914
:101C00000870A048007800EB4000A54908709D4886
:101C100000784006000EA34908709A480078A2494F
:101C200008709548007801280DD19D480078FFF78D
:101C3000AFF8954800784042FFF7CEF88F4800781B
:101C4000FFF7B8F882E18C48007802280DD193485C
:101C50000078FFF79DF88D4800784042FFF7BCF808
:101C600086480078FFF7A6F870E1834800780328DB
:101C70000DD189480078FFF78BF8854800784042FD
:101C8000FFF7AAF87D480078FFF794F85EE17A48FC
:101C9000007804280DD17F480078FFF779F87D4857
:101CA00000784042FFF798F874480078FFF782F810
:101CB0004CE17148007805280DD175480078FFF790
:101CC00067F8754800784042FFF786F86B4800785F
:101CD000FFF770F83AE16848007806280DD16B48A4
:101CE0000078FFF755F86D4800784042FFF774F828
:101CF00062480078FFF75EF828E15F48007807281F
:101D00000DD161480078FFF743F8654800784042FC
:101D1000FFF762F859480078FFF74CF816E156488B
:101D2000007808280DD155480078FFF731F85D4854
:101D300000784042FFF750F850480078FFF73AF833
:101D400004E14D48007809280BD14C480078FFF792
:101D50001FF80220FFF740F848480078FFF72AF8FC
:101D6000F4E0454800780A280CD144480078FFF791
:101D70000FF84C480078FFF72FF840480078FFF73D
:101D800019F8E3E03C4800780B280CD13B48007878
:101D9000FEF7FEFF42480078FFF71EF83A48007849
:101DA000FFF708F8D2E0344800780C280CD133480B
:101DB0000078FEF7EDFF39480078FFF70DF833485B
:101DC0000078FEF7F7FFC1E02B4800780D280CD112
:101DD0002A480078FEF7DCFF2F480078FEF7FCFF6A
:101DE0002B480078FEF7E6FFB0E0234800780E2885
:101DF0000CD122480078FEF7CBFF26480078FEF78A
:101E0000EBFF24480078FEF7D5FF9FE01A480078E2
:101E10000F280CD119480078FEF7BAFF1C4800784B
:101E2000FEF7DAFF1C480078FEF7C4FF8EE0124888
:101E3000007810280CD111480078FEF7A9FF13484C
:101E40000078FEF7C9FF15480078FEF7B3FF7DE084
:101E500009480078112829D108480078FEF798FF32
:101E600009480078FEF7B8FF0D480078FEF7A2FF9A
:101E70006CE00000000C01403C0000203800002015
:101E8000390000203A0000204400002045000020D6
:101E900046000020470000203F00002040000020B6
:101EA000410000204200002043000020FA48007852
:101EB00013280BD1F9480078FEF76AFF0220FEF7DD
:101EC0008BFFF6480078FEF775FF3FE0F248007898
:101ED00014280BD1F1480078FEF75AFF0220FEF7D4
:101EE0007BFFEE480078FEF765FF2FE0EA480078B8
:101EF00015280BD1E9480078FEF74AFF0220FEF7CB
:101F00006BFFE6480078FEF755FF1FE0E2480078D7
:101F100016280BD1E1480078FEF73AFF0220FEF7C1
:101F20005BFFDE480078FEF745FF0FE0DA480078F7
:101F300012280BD1D9480078FEF72AFFD84800783C
:101F4000FEF74AFFD7480078FEF734FF00BD00B522
:101F5000D2480078D4490978884240D0CF480078E8
:101F6000D1490870CD4800780A2190FBF1F0CF49A3
:101F700008700846007800EBC000CA490870CB48DA
:101F80000078C006000ECA490870C8480078C0EB47
:101F9000C000C8490870C548007800EB4000400602
:101FA000000EC5490870C148007800EB8000C349A5
:101FB0000870BE4800788006000EC1490870BB4812
:101FC000007800EB4000BF490870B8480078400630
:101FD000000EBD490870B5480078B1490870AE4898
:101FE000007801280ED1B6480078FEF7D1FEB0483F
:101FF00000784042FEF7F0FEA8490978481FFEF736
:10200000D9FECEE1A448007802280ED1AB48007872
:10201000FEF7BEFEA74800784042FEF7DDFE9F496E
:102020000978481FFEF7C6FEBBE19B4800780328ED
:102030000ED1A1480078FEF7ABFEA14800784042DF
:10204000FEF7CAFE95490978481FFEF7B3FEA8E1DE
:102050009148007804280ED196480078FEF798FE43
:10206000974800784042FEF7B7FE8C490978481F30
:10207000FEF7A0FE95E18848007805280ED18C482F
:102080000078FEF785FE8F4800784042FEF7A4FEF8
:1020900082490978481FFEF78DFE82E17E4800786C
:1020A00006280ED17F480078FEF772FE854800783A
:1020B0004042FEF791FE79490978481FFEF77AFE03
:1020C0006FE17548007807280ED174480078FEF754
:1020D0005FFE7D4800784042FEF77EFE6F4909783A
:1020E000481FFEF767FE5CE16B48007808280ED1B8
:1020F0006A480078FEF74CFE694800784042FEF7D7
:102100006BFE66490978481FFEF754FE49E16248B4
:10211000007809280CD161480078FEF739FE0220CA
:10212000FEF75AFE5D490978481FFEF743FE38E185
:10213000594800780A280DD158480078FEF728FE43
:1021400057480078FEF748FE54490978481FFEF7C3
:1021500031FE26E1504800780B280DD14F48007819
:10216000FEF716FE58480078FEF736FE4B49097810
:10217000481FFEF71FFE14E1474800780C280DD1D8
:1021800046480078FEF704FE4E480078FEF724FE2D
:1021900044490978481FFEF70DFE02E13E480078E9
:1021A0000D280DD13D480078FEF7F2FD4548007836
:1021B000FEF712FE3E490978481FFEF7FBFDF0E0EE
:1021C000354800780E280DD134480078FEF7E0FD40
:1021D0003B480078FEF700FE36490978481FFEF7B5
:1021E000E9FDDEE02C4800780F280DD12B4800785F
:1021F000FEF7CEFD32480078FEF7EEFD2E49097855
:10220000481FFEF7D7FDCCE02348007810280DD1F9
:1022100022480078FEF7BCFD28480078FEF7DCFD78
:1022200026490978481FFEF7C5FDBAE01A4800782C
:1022300011280DD119480078FEF7AAFD1E48007834
:10224000FEF7CAFD1E490978481FFEF7B3FDA8E056
:102250001148007813280DD116480078FEF798FD34
:1022600018480078FEF7B8FD15490978C81EFEF732
:10227000A1FD96E008480078142827D10D48007881
:10228000FEF786FD0F480078FEF7A6FD0C49097899
:10229000C81EFEF78FFD84E03C00002038000020BF
:1022A0004300002044000020390000203A000020B4
:1022B0004500002046000020470000203F0000208D
:1022C000400000204100002042000020FE4800782D
:1022D00015280DD1FD480078FEF75AFDFC4800781E
:1022E000FEF77AFDFB490978C81EFEF763FD58E04A
:1022F000F548007816280DD1F4480078FEF748FD1F
:10230000F3480078FEF768FDF2490978C81EFEF729
:1023100051FD46E0EC48007817280DD1EB480078D5
:10232000FEF736FDEC480078FEF756FDE9490978DE
:10233000C81EFEF73FFD34E0E348007818280DD1B1
:10234000E2480078FEF724FDE3480078FEF744FDFC
:10235000E0490978C81EFEF72DFD22E0DA48007832
:1023600019280DD1D9480078FEF712FDDA48007817
:10237000FEF732FDD7490978C81EFEF71BFD10E0B5
:10238000D148007812280CD1D0480078FEF700FD23
:10239000D1480078FEF720FDCE490978C81EFEF727
:1023A00009FD00BD00B5CD480078CD4909788842C7
:1023B00040D0CA480078CA490870C84800780A2145
:1023C00090FBF1F0C74908700846007800EBC000A8
:1023D000C5490870C3480078C006000EC34908709C
:1023E000C0480078C0EBC000B8490870BD4800780C
:1023F00000EB40004006000EBD490870B948007867
:1024000000EB8000BB490870B64800788006000EDB
:10241000B0490870B348007800EB4000AC49087040
:10242000B04800784006000EAB490870AD4800780F
:10243000B1490870A448007801280DD1A34800785C
:10244000FEF7A6FCA14800784042FEF7C5FCA34871
:102450000078FEF7AFFC89E19B48007802280DD197
:102460009A480078FEF794FCA14800784042FEF7B5
:10247000B3FC9A480078FEF79DFC77E1924800781B
:1024800003280DD199480078FEF782FC994800781E
:102490004042FEF7A1FC91480078FEF78BFC65E115
:1024A0008948007804280DD190480078FEF770FC28
:1024B000904800784042FEF78FFC88480078FEF78D
:1024C00079FC53E18048007805280DD186480078D2
:1024D000FEF75EFC7F4800784042FEF77DFC7F48B7
:1024E0000078FEF767FC41E17748007806280DD1B7
:1024F0007D480078FEF74CFC764800784042FEF7B5
:102500006BFC76480078FEF755FC2FE16E480078AA
:1025100007280DD171480078FEF73AFC6C48007826
:102520004042FEF759FC6D480078FEF743FC1DE180
:102530006548007808280DD168480078FEF728FC27
:10254000654800784042FEF747FC64480078FEF793
:1025500031FC0BE15C48007809280BD15F4800781A
:10256000FEF716FC0220FEF737FC5C480078FEF709
:1025700021FCFBE0544800780A280CD15748007829
:10258000FEF706FC54480078FEF726FC5348007816
:10259000FEF710FCEAE04C4800780B280CD14F48BD
:1025A0000078FEF7F5FB4A480078FEF715FC4B482B
:1025B0000078FEF7FFFBD9E0434800780C280CD1E7
:1025C00046480078FEF7E4FB42480078FEF704FC3A
:1025D00045480078FEF7EEFBC8E03B4800780D2840
:1025E0000CD13E480078FEF7D3FB3A480078FEF75E
:1025F000F3FB3D480078FEF7DDFBB7E0324800789A
:102600000E280CD135480078FEF7C2FB314800781F
:10261000FEF7E2FB35480078FEF7CCFBA6E02A483F
:1026200000780F280CD12D480078FEF7B1FB314817
:102630000078FEF7D1FB2D480078FEF7BBFB95E054
:102640002148007810280CD124480078FEF7A0FB20
:1026500027480078FEF7C0FB1C480078FEF7AAFB6D
:1026600084E01948007811280CD11C480078FEF746
:102670008FFB16480078FEF7AFFB14480078FEF792
:1026800099FB73E01048007813280DD116480078A4
:10269000FEF77EFB104800784042FEF79DFB0F4896
:1026A0000078FEF787FB61E007480078142828D1FE
:1026B0000D480078FEF76CFB074800784042FEF7B3
:1026C0008BFB0648007819E03C0000204600002003
:1026D000410000204000002042000020380000207F
:1026E000390000203A00002044000020450000206E
:1026F000470000203F00002043000020FEF75AFB67
:1027000034E0F748007815280DD1F6480078FEF738
:102710003FFBF54800784042FEF75EFBF348007847
:10272000FEF748FB22E0EE48007816280DD1ED4870
:102730000078FEF72DFBEC4800784042FEF74CFB9A
:10274000EA480078FEF736FB10E0E54800781228EA
:102750000CD1E4480078FEF71BFBE34800784042C8
:10276000FEF73AFBE1480078FEF724FB00BD00B518
:10277000DE480078DE490978884240D0DB4800789E
:10278000DB490870D94800780A2190FBF1F0D9495B
:1027900008700846007800EBC000D2490870D548A0
:1027A0000078C006000ED4490870D2480078C0EB0B
:1027B000C000D2490870CF48007800EB40004006C6
:1027C000000ECF490870CB48007800EB8000CD495F
:1027D0000870C84800788006000ECB490870C548CC
:1027E000007800EB4000C9490870C24800784006F4
:1027F000000EBD490870BF480078C5490870B84848
:10280000007801280DD1BE480078FEF7C1FABB4818
:1028100000784042FEF7E0FAB4480078FEF7CAFAC2
:1028200089E1AF48007802280DD1B4480078FEF75E
:10283000AFFAB34800784042FEF7CEFAAB480078D2
:10284000FEF7B8FA77E1A648007803280DD1AA4828
:102850000078FEF79DFAAB4800784042FEF7BCFADC
:10286000A2480078FEF7A6FA65E19D4800780428A2
:102870000DD1A1480078FEF78BFAA34800784042BA
:10288000FEF7AAFA99480078FEF794FA53E19448C3
:10289000007805280DD193480078FEF779FA9A4818
:1028A00000784042FEF798FA90480078FEF782FAE6
:1028B00041E18B48007806280DD18A480078FEF760
:1028C00067FA924800784042FEF786FA8748007817
:1028D000FEF770FA2FE18248007807280DD183486F
:1028E0000078FEF755FA894800784042FEF774FAFE
:1028F0007E480078FEF75EFA1DE1794800780828E6
:102900000DD17A480078FEF743FA774800784042C4
:10291000FEF762FA75480078FEF74CFA0BE1704852
:10292000007809280BD171480078FEF731FA0220AF
:10293000FEF752FA6D480078FEF73CFAFBE0684873
:1029400000780A280CD169480078FEF721FA664819
:102950000078FEF741FA65480078FEF72BFAEAE0C6
:102960005F4800780B280CD160480078FEF710FA19
:1029700066480078FEF730FA5C480078FEF71AFAED
:10298000D9E0574800780C280CD158480078FEF759
:10299000FFF95E480078FEF71FFA52480078FEF70C
:1029A00009FAC8E04E4800780D280CD14F4800784D
:1029B000FEF7EEF954480078FEF70EFA4948007821
:1029C000FEF7F8F9B7E0464800780E280CD14748E2
:1029D0000078FEF7DDF94C480078FEF7FDF946482F
:1029E0000078FEF7E7F9A6E03D4800780F280CD103
:1029F0003E480078FEF7CCF942480078FEF7ECF943
:102A00003D480078FEF7D6F995E035480078102863
:102A10000CD136480078FEF7BBF939480078FEF74C
:102A2000DBF936480078FEF7C5F984E02C480078D9
:102A300011280CD12D480078FEF7AAF9304800780B
:102A4000FEF7CAF92E480078FEF7B4F973E024487F
:102A5000007813280DD123480078FEF799F92B4808
:102A600000784042FEF7B8F920480078FEF7A2F956
:102A700061E01B48007814280DD11A480078FEF751
:102A800087F9224800784042FEF7A6F917480078F7
:102A9000FEF790F94FE01248007815280DD1114843
:102AA0000078FEF775F9194800784042FEF794F96E
:102AB0000E480078FEF77EF93DE0094800781628B8
:102AC00028D108480078FEF763F9104800784042A2
:102AD000FEF782F905480078FEF76CF92BE000005C
:102AE0003C0000204400002042000020380000206C
:102AF000390000203A000020450000204600002058
:102B0000470000203F00002040000020410000203E
:102B100043000020FE48007812280CD1FD480078C0
:102B2000FEF736F9FC4800784042FEF755F9FB48BD
:102B30000078FEF73FF900BD00B5F8480078F84985
:102B40000978884240D0F5480078F5490870F34884
:102B500000780A2190FBF1F0F249087008460078ED
:102B600000EBC000EB490870EE480078C006000E8C
:102B7000ED490870EB480078C0EBC000EB490870E5
:102B8000E848007800EB40004006000EE849087075
:102B9000E448007800EB8000E6490870E1480078DE
:102BA0008006000EE4490870DE48007800EB400023
:102BB000D9490870DB4800784006000EDF490870EC
:102BC000D8480078DE490870D148007801280DD136
:102BD000D1480078FEF7DCF8CE4800784042FEF796
:102BE000FBF8CE480078FEF7E5F824E1C848007805
:102BF00002280DD1C8480078FEF7CAF8CA48007804
:102C00004042FEF7E9F8C5480078FEF7D3F812E134
:102C1000BF48007803280DD1C7480078FEF7B8F800
:102C2000C24800784042FEF7D7F8BC480078FEF76B
:102C3000C1F800E1B648007804280DD1BD480078FD
:102C4000FEF7A6F8BA4800784042FEF7C5F8B34848
:102C50000078FEF7AFF8EEE0AD48007805280DD11A
:102C6000B3480078FEF794F8B14800784042FEF788
:102C7000B3F8AA480078FEF79DF8DCE0A448007895
:102C800006280DD1A9480078FEF782F8A9480078F7
:102C90004042FEF7A1F8A1480078FEF78BF8CAE0A1
:102CA0009B48007807280DD19F480078FEF770F800
:102CB000A14800784042FEF78FF898480078FEF768
:102CC00079F8B8E09248007808280DD1914800784A
:102CD000FEF75EF8904800784042FEF77DF88F4896
:102CE0000078FEF767F8A6E08948007809280BD13C
:102CF0008A480078FEF74CF80220FEF76DF8874806
:102D00000078FEF757F896E0814800780A280CD141
:102D100082480078FEF73CF87F480078FEF75CF8C0
:102D20007C480078FEF746F885E0794800780B2863
:102D30000CD17A480078FEF72BF87F480078FEF730
:102D40004BF879480078FEF735F874E07048007861
:102D50000C280CD171480078FEF71AF875480078F5
:102D6000FEF73AF871480078FEF724F863E0684807
:102D700000780D280CD169480078FEF709F86C48F6
:102D80000078FEF729F86A480078FEF713F852E059
:102D90005F4800780E280CD160480078FDF7F8FFF6
:102DA00063480078FEF718F862480078FEF702F8EA
:102DB00041E0574800780F280CD158480078FDF7BB
:102DC000E7FF5A480078FEF707F85B480078FDF700
:102DD000F1FF30E04E48007810280CD14F480078C1
:102DE000FDF7D6FF50480078FDF7F6FF4A48007817
:102DF000FDF7E0FF1FE04648007811280CD1474856
:102E00000078FDF7C5FF43480078FDF7E5FF42482D
:102E10000078FDF7CFFF0EE03D48007812280AD178
:102E20003E480078FDF7B4FF0220FDF7D5FF3B4890
:102E30000078FDF7BFFF00BD00B53848007838497D
:102E40000978884240D035480078354908703348C1
:102E500000780A2190FBF1F03249087008460078AA
:102E600000EBC0002B4908702E480078C006000E09
:102E70002D4908702B480078C0EBC0002B49087022
:102E80002848007800EB40004006000E28490870F2
:102E90002448007800EB800026490870214800781B
:102EA0008006000E244908701E48007800EB4000A0
:102EB000194908701B4800784006000E1F49087029
:102EC000184800781E4908701148007801280DD173
:102ED00011480078FDF75CFF0E4800784042FDF78E
:102EE0007BFF0E480078FDF765FF3FE1084800785A
:102EF000022827D108480078FDF74AFF05480078E6
:102F00004042FDF769FF05480078FDF753FF2DE1CA
:102F10003C00002044000020410000203800002038
:102F2000390000203A000020450000204600002023
:102F3000470000203F000020400000204200002009
:102F400043000020FA48007803280DD1F9480078A2
:102F5000FDF71EFFF84800784042FDF73DFFF748B7
:102F60000078FDF727FF01E1F148007804280DD132
:102F7000F3480078FDF70CFFF24800784042FDF777
:102F80002BFFEE480078FDF715FFEFE0E8480078EA
:102F900005280DD1EC480078FDF7FAFEEA480078E4
:102FA0004042FDF719FFE5480078FDF703FFDDE03B
:102FB000DF48007806280DD1E2480078FDF7E8FEEA
:102FC000DF4800784042FDF707FFDC480078FDF756
:102FD000F1FECBE0D648007807280DD1D64800781E
:102FE000FDF7D6FED34800784042FDF7F5FED34802
:102FF0000078FDF7DFFEB9E0CD48007808280DD154
:10300000D2480078FDF7C4FED14800784042FDF771
:10301000E3FECA480078FDF7CDFEA7E0C44800787B
:1030200009280BD1C5480078FDF7B2FE0220FDF754
:10303000D3FEC2480078FDF7BDFE97E0BC4800789B
:103040000A280CD1BD480078FDF7A2FEC0480078E0
:10305000FDF7C2FEBD480078FDF7ACFE86E0B4483F
:1030600000780B280CD1B5480078FDF791FEB148E7
:103070000078FDF7B1FEB0480078FDF79BFE75E0E3
:10308000AB4800780C280CD1AC480078FDF780FEE6
:10309000AB480078FDF7A0FEAA480078FDF78AFE4D
:1030A00064E0A34800780D280CD1A4480078FDF70F
:1030B0006FFEA5480078FDF78FFEA3480078FDF766
:1030C00079FE53E09A4800780E280CD19B4800788E
:1030D000FDF75EFE9B480078FDF77EFE984800787D
:1030E000FDF768FE42E0924800780F280CD1934823
:1030F0000078FDF74DFE90480078FDF76DFE8D4895
:103100000078FDF757FE31E08948007810280CD18F
:103110008A480078FDF73CFE8C480078FDF75CFE9D
:103120008B480078FDF746FE20E0814800781128A2
:103130000CD182480078FDF72BFE84480078FDF71B
:103140004BFE83480078FDF735FE0FE078480078A5
:1031500012280BD179480078FDF71AFE7D480078D7
:10316000FDF73AFE79480078FDF724FE00BD00B572
:103170007248007878490978884240D06F480078D2
:10318000754908706D4800780A2190FBF1F0734989
:1031900008700846007800EBC0006C4908706F4862
:1031A0000078C006000E644908706C480078C0EBD7
:1031B000C000644908706948007800EB4000400690
:1031C000000E614908706548007800EB80005C499A
:1031D0000870624800788006000E564908705F4803
:1031E000007800EB40005A4908705C4800784006BF
:1031F000000E5849087059480078594908704C48E1
:10320000007801280ED14D480078FDF7C1FD4D48EA
:1032100000784042FDF7E0FD48490978C81EFDF7F7
:10322000C9FD4FE14248007802280ED1434800789A
:10323000FDF7AEFD424800784042FDF7CDFD3F4925
:103240000978C81EFDF7B6FD3CE13948007803282F
:103250000ED13A480078FDF79BFD36480078404291
:10326000FDF7BAFD35490978C81EFDF7A3FD29E130
:103270002F48007804280ED130480078FDF788FDEB
:103280002C4800784042FDF7A7FD2C490978C81E5C
:10329000FDF790FD16E12648007805280ED1274855
:1032A0000078FDF775FD234800784042FDF794FD56
:1032B00022490978C81EFDF77DFD03E11C4800780E
:1032C00006280ED11D480078FDF762FD20480078E1
:1032D0004042FDF781FD19490978C81EFDF76AFDD6
:1032E000F0E01348007807280ED114480078FDF765
:1032F0004FFD174800784042FDF76EFD0F490978F1
:10330000C81EFDF757FDDDE009480078082829D1DF
:103310000A480078FDF73CFD0D4800784042FDF773
:103320005BFD06490978C81EFDF744FDCAE00000B0
:103330003C00002040000020450000203800002014
:103340003F000020460000204700002044000020ED
:103350004100002042000020390000203A000020F7
:1033600043000020FE48007809280CD1FD48007871
:10337000FDF70EFD0220FDF72FFDFA490978C81E62
:10338000FDF718FD9EE0F64800780A280DD1F548B3
:103390000078FDF7FDFCF4480078FDF71DFDF149CC
:1033A0000978C81EFDF706FD8CE0ED4800780B2873
:1033B0000DD1EC480078FDF7EBFCEB480078FDF709
:1033C0000BFDE8490978C81EFDF7F4FC7AE0E448F3
:1033D00000780C280DD1E3480078FDF7D9FCE248CD
:1033E0000078FDF7F9FCDF490978C81EFDF7E2FC1B
:1033F00068E0DB4800780D280DD1DA480078FDF749
:10340000C7FCDA480078FDF7E7FCD6490978C81E02
:10341000FDF7D0FC56E0D24800780E280DD1D148F7
:103420000078FDF7B5FCD1480078FDF7D5FCCD4913
:103430000978C81EFDF7BEFC44E0C94800780F2893
:103440000DD1C8480078FDF7A3FCC8480078FDF707
:10345000C3FCC4490978C81EFDF7ACFC32E0C04883
:10346000007810280DD1BF480078FDF791FCC048C6
:103470000078FDF7B1FCBB490978C81EFDF79AFC3E
:1034800020E0B748007811280DD1B6480078FDF744
:103490007FFCB8480078FDF79FFCB2490978C81E48
:1034A000FDF788FC0EE0AE48007812280AD1B24839
:1034B0000078FDF76DFC0220FDF78EFCAE48007829
:1034C000FDF778FC00BD00B5A6480078AB49097847
:1034D00088423FD0A3480078A8490870A1480078E6
:1034E0000A2190FBF1F0A64908700846007800EB2D
:1034F000C000A4490870A2480078C006000E0870F9
:103500009F480078C0EBC0009A4908709C4800783A
:1035100000EB40004006000E9B4908709848007878
:1035200000EB800092490870954800788006000EF4
:103530008E4908709248007800EB40008A49087074
:103540008F4800784006000E904908708C4800783B
:103550008F4908708248007801280DD18A48007888
:10356000FDF716FC834800784042FDF735FC7D48A6
:103570000078FDF71FFC83E17948007802280DD11F
:103580007C480078FDF704FC7F4800784042FDF756
:1035900023FC74480078FDF70DFC71E17048007859
:1035A00003280DD174480078FDF7F2FB70480078CD
:1035B0004042FDF711FC6B480078FDF7FBFB5FE133
:1035C0006748007804280DD16B480078FDF7E0FBD0
:1035D000664800784042FDF7FFFB62480078FDF73F
:1035E000E9FB4DE15E48007805280DD1654800787B
:1035F000FDF7CEFB5D4800784042FDF7EDFB5948F2
:103600000078FDF7D7FB3BE15548007806280DD13F
:103610005C480078FDF7BCFB534800784042FDF75A
:10362000DBFB50480078FDF7C5FB29E14C480078EA
:1036300007280DD14B480078FDF7AAFB4A480078CF
:103640004042FDF7C9FB47480078FDF7B3FB17E19F
:103650004348007808280DD142480078FDF798FBD0
:103660004A4800784042FDF7B7FB3E480078FDF736
:10367000A1FB05E13A48007809280BD139480078C8
:10368000FDF786FB0220FDF7A7FB36480078FDF723
:1036900091FBF5E0324800780A280CD131480078D7
:1036A000FDF776FB39480078FDF796FB2D4800784A
:1036B000FDF780FBE4E02A4800780B280CD129486C
:1036C0000078FDF765FB28480078FDF785FB254865
:1036D0000078FDF76FFBD3E0214800780C280CD16F
:1036E00020480078FDF754FB1F480078FDF774FB75
:1036F00024480078FDF75EFBC2E0194800780D28E9
:103700000CD118480078FDF743FB18480078FDF706
:1037100063FB1C480078FDF74DFBB1E010480078D2
:103720000E280CD10F480078FDF732FB0F480078C7
:10373000FDF752FB10480078FDF73CFBA0E008487D
:1037400000780F2826D107480078FDF721FB0848AC
:103750000078FDF741FB08480078FDF72BFB8FE070
:103760003C000020380000204100002040000020E4
:103770003F000020460000204500002039000020C6
:103780003A000020440000204700002042000020B2
:1037900043000020FE48007810280CD1FD48007836
:1037A000FDF7F6FAFC480078FDF716FBFB480078B9
:1037B000FDF700FB64E0F648007811280CD1F548CD
:1037C0000078FDF7E5FAF4480078FDF705FBF248CC
:1037D0000078FDF7EFFA53E0ED48007813280CD19C
:1037E000EC480078FDF7D4FAED480078FDF7F4FADC
:1037F000EC480078FDF7DEFA42E0E548007814284E
:103800000CD1E4480078FDF7C3FAE5480078FDF7ED
:10381000E3FAE4480078FDF7CDFA31E0DC480078BF
:1038200015280CD1DB480078FDF7B2FADC480078A7
:10383000FDF7D2FADB480078FDF7BCFA20E0D44867
:10384000007816280CD1D3480078FDF7A1FAD448A7
:103850000078FDF7C1FAD3480078FDF7ABFA0FE026
:10386000CB48007812280BD1CA480078FDF790FAAF
:10387000CB480078FDF7B0FACA480078FDF79AFA0D
:1038800000BD2DE9F04781460C46C748B0F900104D
:1038900009F10100814215DD2046FDF779FA604209
:1038A00005F073FE05464FF06632C04B05F0FBFD98
:1038B000074605F07BFE8246FDF78EFA6042FDF773
:1038C00079FA24E0A9F10100B749B1F90010884262
:1038D00014DD2046FDF75CFA604205F056FE07460F
:1038E000B34AB44B05F0DFFD054605F05FFE8246A6
:1038F000FDF772FA6042FDF75DFA08E02046FDF739
:1039000047FA6042FDF768FA6042FDF753FABDE8F6
:10391000F0872DE9F04781460C46A348B0F9001026
:1039200009F10100814214DD204605F02EFE054616
:103930009F4AA04B05F0B7FD074605F037FE8246CB
:10394000FDF74AFA2046FDF735FA6042FDF720FA06
:103950001FE0A9F101009449B1F90010884215DD7A
:10396000204605F012FE07464FF066328F4B05F0F9
:103970009AFD054605F01AFE8246FDF72DFA20460F
:10398000FDF718FA6042FDF703FA02E02046FDF762
:1039900023FA2046FDF70EFA6042FDF7F9F9BDE87B
:1039A000F0878148B0F90000834908800846B0F9E3
:1039B00000002D2803DD012075490870A3E07E4832
:1039C000B0F90000282803DD0220714908709AE050
:1039D0007948B0F90000232803DD03206C49087002
:1039E00091E07548B0F900001E2803DD0420684905
:1039F000087088E07048B0F90000192803DD052040
:103A0000634908707FE06C48B0F900000F2803DDBF
:103A100006205F49087076E06748B0F900000A2880
:103A200003DD07205A4908706DE06348B0F90000D3
:103A3000052803DD08205649087064E05E48B0F9A7
:103A40000000002803DD0920514908705BE05A4856
:103A5000B0F9000010F12D0F03DA11204C49087065
:103A600051E05548B0F9000010F1230F03DA10209F
:103A70004749087047E05048B0F9000010F11E0FA8
:103A800003DA0F20424908703DE04B48B0F90000CE
:103A900010F1190F03DA0E203D49087033E0464853
:103AA000B0F9000010F1140F03DA0D203849087046
:103AB00029E04148B0F9000010F10F0F03DA0C20A3
:103AC000334908701FE03C48B0F9000010F10A0FBC
:103AD00003DA0B202E49087015E03748B0F90000D2
:103AE00010F1050F03DA0A20294908700BE032486B
:103AF000B0F90000002803DA09202549087002E027
:103B0000122023490870704700B5224800782B49DD
:103B10000978884263D01F480078284908701D48FA
:103B200000780A2190FBF1F02549087008460078DA
:103B300000EBC0001B49087021480078C006000E49
:103B4000204908701E480078C0EBC0001349087077
:103B50001B48007800EB40004006000E0E4908703C
:103B60001748007800EB8000174908701448007867
:103B70008006000E154908701148007800EB4000DF
:103B8000074908700E4800784006000E104921E0F1
:103B90003C000020380000204700002046000020A4
:103BA0004100002044000020600000206666EE3FD7
:103BB000CDCCCCCCCCCCF03F620000203900002032
:103BC0003A000020450000203F0000204000002077
:103BD000420000200870F8480078F8490870F8485A
:103BE000007811280DD1F7480078FDF7D1F8F64894
:103BF00000784042FDF7F0F8F4480078FDF7DAF875
:103C000024E1EF48007810280DD1F1480078FDF745
:103C1000BFF8F04800784042FDF7DEF8EB48007846
:103C2000FDF7C8F812E1E64800780F280DD1EA4800
:103C30000078FDF7ADF8E84800784042FDF7CCF891
:103C4000E2480078FDF7B6F800E1DD4800780E287C
:103C50000DD1E0480078FDF79BF8DD480078404240
:103C6000FDF7BAF8D9480078FDF7A4F8EEE0D4489B
:103C700000780D280DD1D4480078FDF789F8D14897
:103C800000784042FDF7A8F8D0480078FDF792F898
:103C9000DCE0CB4800780C280DD1D0480078FDF747
:103CA00077F8CF4800784042FDF796F8C74800788B
:103CB000FDF780F8CAE0C24800780B280DD1C9484A
:103CC0000078FDF765F8C64800784042FDF784F8B3
:103CD000BE480078FDF76EF8B8E0B94800780A28C9
:103CE0000DD1BA480078FDF753F8B4480078404247
:103CF000FDF772F8B5480078FDF75CF8A6E0B0482B
:103D0000007809280BD1B1480078FDF741F802206E
:103D1000FDF762F8AD480078FDF74CF896E0A8484A
:103D2000007808280CD1A9480078FDF731F8A3489D
:103D30000078FDF751F8A5480078FDF73BF885E0DD
:103D40009F48007807280CD1A0480078FDF720F89C
:103D5000A3480078FDF740F8A2480078FDF72AF85C
:103D600074E09748007806280CD198480078FDF751
:103D70000FF89B480078FDF72FF898480078FDF77A
:103D800019F863E08E48007805280CD18F48007838
:103D9000FCF7FEFF8B480078FDF71EF88A48007894
:103DA000FDF708F852E08648007804280CD18748CF
:103DB0000078FCF7EDFF86480078FDF70DF88548A0
:103DC0000078FCF7F7FF41E07D48007803280CD12C
:103DD0007E480078FCF7DCFF7F480078FCF7FCFFAA
:103DE0007D480078FCF7E6FF30E07548007802284F
:103DF0000CD176480078FCF7CBFF76480078FCF7CA
:103E0000EBFF73480078FCF7D5FF1FE06C480078A3
:103E100001280CD16D480078FCF7BAFF6A48007899
:103E2000FCF7DAFF67480078FCF7C4FF0EE064484F
:103E3000007812280AD165480078FCF7A9FF022013
:103E4000FCF7CAFF61480078FCF7B4FF00BD00B57D
:103E50005E48007864490978884251D05B48007810
:103E600061490870594800780A2190FBF1F05249E5
:103E700008700846007800EBC0005A4908704E48A8
:103E80000078C006000E554908704B480078C0EB1A
:103E9000C0004D4908704848007800EB40004006DB
:103EA000000E4C4908704448007800EB80004A49F5
:103EB0000870414800788006000E454908703E4869
:103EC000007800EB40003F4908703B48007840060E
:103ED000000E43490870384800783849087038485F
:103EE000007811280DD1394800784042FCF750FF86
:103EF00034480078FCF770FF34480078FCF75AFF2C
:103F00004BE12F48007810280DD13048007840420E
:103F1000FCF73EFF2B480078FCF75EFF2B4800784B
:103F2000FCF748FF39E1264800780F280DD12748D3
:103F300000784042FCF72CFF25480078FCF74CFF46
:103F400022480078FCF736FF27E11D4800780E284C
:103F50000DD11E4800784042FCF71AFF1E48007839
:103F6000FCF73AFF19480078FCF724FF15E11448E4
:103F700000780D280DD1154800784042FCF708FF65
:103F800014480078FCF728FF10480078FCF712FF6F
:103F900003E10B4800780C2828D10C4800784042F7
:103FA000FCF7F6FE08480078FCF716FF0748007893
:103FB000FCF700FFF1E000003A0000204300002081
:103FC0003C00002041000020460000203800002076
:103FD00040000020470000203F0000204500002056
:103FE000420000204400002039000020F8480078FA
:103FF0000B280DD1F74800784042FCF7C9FEF6487F
:104000000078FCF7E9FEF3480078FCF7D3FEC4E043
:10401000EF4800780A280DD1EE4800784042FCF7BE
:10402000B7FEEE480078FCF7D7FEEA480078FCF7C8
:10403000C1FEB2E0E648007809280DD1E5480078D5
:104040004042FCF7A5FEE3480078FCF7C5FEE148D6
:104050000078FCF7AFFEA0E0DD48007808280DD11D
:10406000DE4800784042FCF793FEDA480078FCF71F
:10407000B3FEDA480078FCF79DFE8EE0D448007865
:1040800007280DD1D64800784042FCF781FED14880
:104090000078FCF7A1FED0480078FCF78BFE7CE0AE
:1040A000CB48007806280DD1CE4800784042FCF776
:1040B0006FFEC8480078FCF78FFEC9480078FCF70F
:1040C00079FE6AE0C248007805280DD1C64800781C
:1040D0004042FCF75DFEBF480078FCF77DFEC1481A
:1040E0000078FCF767FE58E0B948007804280DD145
:1040F000BE4800784042FCF74BFEB6480078FCF71B
:104100006BFEBA480078FCF755FE46E0B0480078F0
:1041100003280DD1B64800784042FCF739FEAD487F
:104120000078FCF759FEB2480078FCF743FE34E013
:10413000A748007802280DD1AE4800784042FCF72D
:1041400027FEA4480078FCF747FEAA480078FCF751
:1041500031FE22E09E48007801280DD1A648007863
:104160004042FCF715FE9B480078FCF735FEA2485C
:104170000078FCF71FFE10E09548007812280CD15B
:10418000964800784042FCF703FE94480078FCF71C
:1041900023FE92480078FCF70DFE00BD00B58D4867
:1041A000007896490978884252D08A480078934925
:1041B0000870884800780A2190FBF1F09049087057
:1041C0000846007800EBC000844908708C480078ED
:1041D000C006000E8049087089480078C0EBC00016
:1041E0007F4908708648007800EB40004006000ECA
:1041F0007C4908708248007800EB80007A4908709A
:104200007F4800788006000E784908707C48007866
:1042100000EB400076490870794800784006000EAF
:1042200074490870764800787349087068480078C7
:1042300011280ED16E480078FCF7AAFD6548007879
:104240004042FCF7C9FD6A4800784042FCF7B2FDE5
:104250005CE15F48007810280ED164480078FCF7D4
:1042600097FD5C4800784042FCF7B6FD5F48007857
:104270004042FCF79FFD49E1554800780F280ED1D8
:104280005A480078FCF784FD524800784042FCF719
:10429000A3FD564800784042FCF78CFD36E14C48BF
:1042A00000780E280ED151480078FCF771FD49487E
:1042B00000784042FCF790FD4C4800784042FCF703
:1042C00079FD23E1424800780D280ED14648007858
:1042D000FCF75EFD3F4800784042FCF77DFD424818
:1042E00000784042FCF766FD10E1394800780C2860
:1042F0000ED13B480078FCF74BFD36480078404231
:10430000FCF76AFD364800784042FCF753FDFDE0BB
:104310002F4800780B280ED12F480078FCF738FD85
:104320002C4800784042FCF757FD2B48007840426B
:10433000FCF740FDEAE0264800780A280ED127481D
:104340000078FCF725FD234800784042FCF744FD47
:10435000224800784042FCF72DFDD7E01C48007849
:1043600009280ED11B480078FCF712FD1948007887
:104370004042FCF731FD174800784042FCF71AFD37
:10438000C4E01348007808280ED112480078FCF7E2
:10439000FFFC124800784042FCF71EFD0D480078F3
:1043A0004042FCF707FDB1E009480078072829D111
:1043B00008480078FCF7ECFC074800784042FCF71E
:1043C0000BFD044800784042FCF7F4FC9EE000003E
:1043D0003C00002038000020450000204400002060
:1043E00046000020470000203F0000204000002041
:1043F000410000204200002043000020390000203E
:104400003A000020FC48007806280ED1FB480078CE
:10441000FCF7BEFCFA4800784042FCF7DDFCF748A8
:1044200000784042FCF7C6FC70E0F34800780528AD
:104430000ED1F2480078FCF7ABFCF248007840421D
:10444000FCF7CAFCED4800784042FCF7B3FC5DE0A5
:10445000E948007804280ED1E8480078FCF798FC79
:10446000E94800784042FCF7B7FCE4480078404255
:10447000FCF7A0FC4AE0E048007803280ED1DF48B2
:104480000078FCF785FCE14800784042FCF7A4FC8A
:10449000DA4800784042FCF78DFC37E0D6480078D7
:1044A00002280ED1D5480078FCF772FCD848007875
:1044B0004042FCF791FCD14800784042FCF77AFC7E
:1044C00024E0CD48007801280ED1CC480078FCF7D4
:1044D0005FFCCF4800784042FCF77EFCC74800787C
:1044E0004042FCF767FC11E0C348007812280DD168
:1044F000C8480078FCF74CFCC64800784042FCF7FE
:104500006BFCC44800784042FCF754FC00BD884274
:1045100005DA0122C04B1A70C04B1A7005E0002268
:10452000BD4B1A700122BD4B1A70B44A1070BC4AC0
:1045300011707047884205DA0122B74B1A70B74BE9
:104540001A7005E00022B44B1A700122B34B1A70A6
:10455000AA4A1070B24A1170704710B54FF400713A
:10456000B04803F09EF838B9FCF762FDFDF71AFF7A
:1045700082210846FFF7DEFF10BD10B54FF4007131
:10458000A84803F08EF838B964210846FFF7D2FF37
:10459000FCF74EFDFDF706FF10BD10B51924A2482B
:1045A000407800F0040000B93C249F48007800F0F7
:1045B0001000C0B99C48007800F0400098B19A48BB
:1045C000007800F0800070B19748007800F020007B
:1045D00048B12046FCF7DCFB2046FCF7EBFB022051
:1045E000FCF7FAFBEEE09048007800F01000C8B14C
:1045F0008D48007800F04000A0B18B48007800F0B2
:10460000800078B18848007800F0200050B914206C
:10461000FCF7BEFB6FF01300FCF7CCFB1420FCF79B
:10462000DBFBCFE08048007800F01000D0B17E487E
:10463000007800F04000A8B97B48007800F08000C6
:1046400080B17948007800F0200058B16FF0180070
:10465000FCF79EFB6FF01800FCF7ACFB0020FCF7AA
:10466000BBFBAFE07048007800F01000D0B16E489E
:10467000007800F04000A8B16B48007800F080009E
:1046800080B96948007800F0200058B16FF013003D
:10469000FCF77EFB1420FCF78DFB6FF01300FCF79A
:1046A0009BFB8FE06048407940281DDA5E48007827
:1046B00000F01000C0B15C48007800F0400098B1F4
:1046C0005948007800F0800070B15748007800F039
:1046D000200048B12046FCF75BFB2046FCF76AFB54
:1046E0000020FCF779FB6DE04F484079C0281FDDC2
:1046F0004D48007800F01000D0B14B48007800F031
:104700004000A8B14848007800F0800080B14648D9
:10471000007800F0200058B16FF04F00FCF738FB34
:104720006FF04F00FCF746FB0020FCF755FB49E01B
:104730003D48007940281FDA3B48007800F010001F
:10474000D0B13948007800F04000A8B13648007870
:1047500000F0800080B13448007800F0200058B1AB
:104760006FF03100FCF738FB6FF03100FCF722FBF3
:104770003220FCF70DFB25E02B480079C0281EDD18
:104780002948007800F01000C8B12748007800F0F0
:104790004000A0B12448007800F0800078B12248A1
:1047A000007800F0200050B13220FCF715FB3220D9
:1047B000FCF700FB6FF03100FCF7EAFA02E00020A2
:1047C000FCF72AFC10BD10B508201649143108600A
:1047D000FCF771F80AE04620FCF7DAFA6FF04500C2
:1047E000FCF7FAFA6FF04500FCF7E4FAFCF75BF827
:1047F000041E1BDB20461AE03C000020380000208D
:1048000046000020470000203F000020400000201C
:10481000410000204400002034000020350000202A
:104820003B00002000180140540000206042642832
:10483000D1DB6FF06300FCF70FFBFCF73CF8FCF7F3
:104840003AF80AE07820FCF7A3FA6FF07C00FCF756
:10485000C3FA6FF07700FCF7ADFAFCF724F8041EFA
:1048600001DB204600E06042C828EBDBFCF723F8C0
:104870000AE0B420FCF78CFA6FF0B800FCF7ACFA51
:104880006FF0B300FCF796FAFCF70DF8041E01DB9D
:10489000204600E060429628EBDBFCF70CF80AE0CB
:1048A000FA20FCF775FA6FF0FC00FCF795FA6FF050
:1048B000F900FCF77FFAFBF7F6FF041E01DB204648
:1048C00000E06042B0F5617FEADBFBF7F4FF0AE04D
:1048D000DC20FCF75DFA6FF0E000FCF77DFA6FF08A
:1048E000DB00FCF767FAFBF7DEFF041E01DB204666
:1048F00000E06042FA28EBDBFBF7DDFF0AE0B420C2
:10490000FCF746FA6FF0B800FCF766FA6FF0B300F8
:10491000FCF750FAFBF7C7FF041E01DB204600E05E
:104920006042C828EBDBFBF7C6FF0AE09620FCF7E5
:104930002FFA6FF09800FCF74FFA6FF09500FCF734
:1049400039FAFBF7B0FF041E01DB204600E06042AD
:104950009628EBDBFBF7AFFF0AE06420FCF718FAC0
:104960006FF06300FCF738FA6FF06300FCF722FA8F
:10497000FBF799FF041E01DB204600E06042C828D7
:10498000EBDB3C20FCF704FA6FF03B00FCF724FA69
:104990006FF03B00FCF70EFA4FF4AA70FCF734FB03
:1049A00000BF4FF40051FB4802F07BFE0028F8D115
:1049B000FCF732FB0020F84908704FF4AF70FCF7A9
:1049C00023FB1E20FCF7E4F96FF01D00FCF704FA4E
:1049D0006FF01D00FCF7EEF900BF4FF48071ED4859
:1049E00002F05FFE0028F8D10220FCF715FB6420DE
:1049F000FCF743FA4FF4B470FCF706FB4020E7499C
:104A000008603220FCF739FA10BD10B5FCF723F826
:104A10000A20E14908703C211920FFF778FD09E0E0
:104A2000FCF706FBFDF7B5F840F26310FCF7ECFA73
:104A3000FFF7A3FDFCF707F8041E01DB204600E0AA
:104A4000604247F230518842EADBFCF704F86E21FD
:104A50005020FFF75CFD0CE0FCF7EAFAFDF799F84F
:104A60004FF4B470FCF7D0FA0020FCF756FAFFF7C9
:104A700084FDFBF7E8FF041E01DB204600E06042F6
:104A800047F288718842E7DB8C217820FFF73FFDF1
:104A9000FBF7E1FF10E0FCF7CBFAFDF77AF86E20A8
:104AA000FCF73BFA4FF4AF70FCF7AEFAFFF765FD89
:104AB0006FF00900FCF7D0F9FBF7C5FF041E01DB1E
:104AC000204600E06042B6498842E4DB96218C2013
:104AD000FFF71DFDFBF7BFFF0CE0FCF7A9FAFDF7A0
:104AE00058F80320FCF719FA40F26310FCF78CFA2F
:104AF000FFF743FDFBF7A7FF041E01DB204600E0A4
:104B000060424DF6F2218842E7DBFBF7A4FF9621D5
:104B10000846FFF7FCFC0CE0FCF78AFAFDF739F8D1
:104B20006E20FCF7FAF940F26310FCF76DFAFFF71C
:104B300024FDFBF788FF041E01DB204600E06042F5
:104B40004FF638118842E7DBFBF785FFA02196205E
:104B5000FFF7F0FC0CE0FCF76BFAFDF71AF86420A5
:104B6000FCF7DBF94FF4AF70FCF74EFAFFF705FDE9
:104B7000FBF769FF041E01DB204600E06042894923
:104B80008842E8DBFBF767FF0820844908600CE0F7
:104B9000FCF74EFAFCF7FDFF8220FCF7BEF94FF45C
:104BA000A570FCF731FAFFF7E8FCFBF74CFF041E99
:104BB00001DB204600E0604249F69A418842E7DB8B
:104BC000FBF749FF29E0FCF733FAFCF7E2FF40F27C
:104BD0004F10FCF719FAFFF7D0FC0020FCF79DF905
:104BE0004FF400716B4802F05CFDB0B94FF4805196
:104BF000684802F056FD80B90421664802F051FD74
:104C000058B94FF48071634802F04BFD28B9012177
:104C1000604802F046FD00B909E0FBF714FF041EEE
:104C200001DB204600E060425F498842CBDB00BFE9
:104C300046215A20FFF76BFCFBF73DFE0CE0FCF72A
:104C4000F7F9FCF7A6FF40F25B10FCF7DDF9FFF780
:104C500094FC0020FCF761F9FBF725FE041E01DB44
:104C6000204600E06042FA28E9DB0220FCF7D4F994
:104C70006FF07700FCF7F0F840F26110FCF7C4F930
:104C80004FF42F70FCF7F9F819210520FFF73FFCCE
:104C9000FBF7E1FE07E0FCF7CBF9FDF783FB40F201
:104CA0006D10FCF7B1F9FBF7CEFE041E01DB2046C8
:104CB00000E0604244F667618842ECDB4FF4E1704B
:104CC000FCF7A2F93220FCF7D8F810BD10B5082087
:104CD00031490870FBF7BFFE46211E20FFF72AFC72
:104CE00007E0FCF7A5F9FDF742FD6FF08100FCF746
:104CF000B3F8FBF7A8FE041E01DB204600E060428B
:104D000045F298318842ECDB4FF48C70FCF77CF96B
:104D1000052021490870FA2024490870FBF79BFE02
:104D20000AE0FCF785F9FDF722FD6FF06300FCF760
:104D3000F4F80020FCF790F8FBF785FE041E01DB79
:104D4000204600E060421A498842EADBFBF783FE16
:104D50001E2011490870DC201449087006E0FCF799
:104D600067F9FDF704FD0020FCF776F8FBF76BFE12
:104D7000041E01DB204600E060420E498842EEDB63
:104D80000020054908705F2008490870FBF763FEA2
:104D900021E00000000C01404C00002010180140F0
:104DA000DE250100EEC90100B71101003B00002023
:104DB000400D030030E60200FCF73AF9FDF7BCFEB7
:104DC0006FF06D00FCF748F84FF48071F94802F07D
:104DD00068FC00B109E0FBF736FE041E01DB20464B
:104DE00000E06042F4498842E6DB00BF0020F3495E
:104DF00008700220F24908700320FCF72DF81020FB
:104E0000EC491431086080200860202008600220EE
:104E1000FCF702F90020EB4908600CE000BF4FF4FA
:104E20008061E44802F03DFC0028F8D1E5480068C4
:104E3000401CE4490860E348006841F28831884238
:104E4000ECD33220FCF719F82320FBF7A1FF232035
:104E5000FBF7B0FF0220FBF7BFFF3220FCF70DF895
:104E60003220FBF795FF3220FBF7A4FF0220FBF76F
:104E7000B3FF0020D34908600CE000BF4FF400519D
:104E8000D14802F00EFC0028F8D1CE480068401C42
:104E9000CC490860CB48006841F288318842ECD3A5
:104EA0000020FCF7B9F810BD10B5FBF704FD082091
:104EB000C0491431086009E04820FBF78DFF462007
:104EC000FBF778FF6FF04500FBF762FFFBF7EBFCA9
:104ED000041E01DB204600E060426428ECDBFBF7A7
:104EE000EAFC09E07A20FBF777FF7820FBF762FF06
:104EF0006FF07700FBF74CFFFBF7D5FC041E01DBDE
:104F0000204600E06042C828ECDBFBF7D4FC09E057
:104F1000B620FBF761FFB420FBF74CFF6FF0B30046
:104F2000FBF736FFFBF7BFFC041E01DB204600E069
:104F300060429628ECDBFBF7BEFC09E0FD20FBF7A6
:104F40004BFFFA20FBF736FF6FF0F900FBF720FF6D
:104F5000FBF7A9FC041E01DB204600E06042B0F52F
:104F6000617FEBDB6420FBF777FFFBF7A4FC09E034
:104F7000B920FBF731FFB420FBF71CFF6FF0B30043
:104F8000FBF706FFFBF78FFC041E01DB204600E069
:104F90006042C828ECDBFBF78EFC09E0B420FBF78D
:104FA0001BFFB420FBF706FF6FF0B300FBF7F0FE2A
:104FB000FBF779FC041E01DB204600E060429628E6
:104FC000ECDBFBF778FC09E09620FBF705FF962069
:104FD000FBF7F0FE6FF09500FBF7DAFEFBF763FCE2
:104FE000041E01DB204600E060429628ECDBFBF764
:104FF00062FC4FF4A070FCF707F809E06420FBF7AF
:10500000EBFE6420FBF7D6FE6FF06300FBF7C0FEFB
:10501000FBF749FC041E01DB204600E060429628B5
:10502000ECDBFBF748FC0320FBF716FF4FF4AA70FC
:10503000FBF7EAFF3C20FBF7CFFE3C20FBF7BAFE74
:105040006FF03B00FBF7A4FE00205E4908600BE018
:1050500000BF02215D4802F024FB0028F9D1594825
:105060000068401C574908605648006841F2883182
:105070008842EDD34FF4AF70FBF7C6FF1920FBF762
:10508000ABFE1920FBF796FE6FF01800FBF780FED1
:1050900000BF4FF480514D4802F003FB0028F8D1C7
:1050A0000220FBF7B9FF4FF4B470FBF7ADFF4020CF
:1050B0004049103108606420FBF7DFFE10BD10B5D9
:1050C000FBF7C9FC0A203D4908703C211420FFF77A
:1050D0001EFA0CE0FBF7ACFFFDF764F94FF4AF707C
:1050E000FBF792FF0A20FBF7B7FEFFF746FAFBF744
:1050F000AAFC041E01DB204600E0604247F230516A
:105100008842E7DBFBF7A7FC78215020FFF7FFF987
:105110000CE0FBF78DFFFDF745F94FF4AF70FBF79F
:1051200073FF0020FBF7F9FEFFF727FAFBF78BFC74
:10513000041E01DB204600E0604247F2887188428D
:10514000E7DB8C218220FFF7E2F9FBF784FC0CE01F
:10515000FBF76EFFFDF726F97320FBF7DEFE4FF439
:10516000AF70FBF751FFFFF708FAFBF76CFC041E6A
:1051700001DB204600E0604215498842E8DB9621C9
:105180008C20FFF7C4F9FBF766FC0CE0FBF750FF3F
:10519000FDF708F90320FBF7C0FE40F25910FBF7BA
:1051A00033FFFFF7EAF9FBF74EFC041E12DB204643
:1051B00011E000000018014040420F004C000020A8
:1051C0003B0000207000002000100140000C014056
:1051D000DE25010060424DF6F2218842D6DBFBF766
:1051E0003AFC0CE0FBF724FFFDF7DCF86E20FBF740
:1051F00094FE40F25910FBF707FFFFF7BEF9FBF7EB
:1052000022FC041E01DB204600E060424FF638110C
:105210008842E7DBFBF71FFC0CE0FBF709FFFDF71B
:10522000C1F86420FBF779FE40F25910FBF7ECFE61
:10523000FFF7A3F9FBF707FC041E01DB204600E0A3
:105240006042FA498842E8DB0820F9490860FBF728
:1052500002FC0CE0FBF7ECFEFDF7A4F87820FBF76E
:105260005CFE40F25910FBF7CFFEFFF786F9FBF723
:10527000EAFB041E01DB204600E0604249F69A4149
:105280008842E7DBFBF7E7FB7820FBF7E5FD24E04E
:10529000FBF7CEFEFDF786F84FF4A570FBF7B4FEE2
:1052A0004FF40071E34802F0FCF9B0B94FF48051BB
:1052B000E04802F0F6F980B90421DE4802F0F1F985
:1052C00058B94FF48071DB4802F0EBF928B901219D
:1052D000D84802F0E6F900B909E0FBF7B4FB041E78
:1052E00001DB204600E06042D3498842D0DB00BFAA
:1052F00050215A20FFF70BF9FBF7ADFB07E0FBF756
:1053000097FEFDF74FF840F24F10FBF77DFEFBF7DD
:105310009AFB041E01DB204600E0604245F61F2197
:105320008842ECDB0220FBF777FE4FF4AA70FBF714
:105330006BFE40F28A20FBF7A0FD0F20BF490870EA
:105340001E210020FFF7E3F8FBF785FB07E0FBF7E2
:105350006FFEFDF727F84FF4AF70FBF755FEFBF734
:1053600072FB041E01DB204600E0604244F66761E8
:105370008842ECDB4FF4E170FBF746FE3220FBF78E
:105380007CFD10BD10B5FBF766FB0A20AB49087029
:105390003C211E20FFF7CEF806E0FBF749FEFEF7A2
:1053A00092F88220FBF758FDFBF74DFB041E01DB52
:1053B000204600E0604245F298318842EDDB4FF430
:1053C0008C70FBF721FE02209C490870FA209C4952
:1053D0000870FBF740FB0AE0FBF72AFEFEF773F8C4
:1053E0006FF06300FBF799FD0020FBF735FDFBF73D
:1053F0002AFB041E01DB204600E0604291498842FE
:10540000EADBFBF728FB28208C490870DC208C495C
:10541000087006E0FBF70CFEFEF755F80020FBF7DE
:105420001BFDFBF710FB041E01DB204600E0604281
:1054300085498842EEDBFBF70EFB28207F49087088
:10544000BE207F49087006E0FBF7F2FDFEF73BF84F
:105450000020FBF701FDFBF7F6FA041E01DB2046F6
:1054600000E060424CF250318842EDDBFBF7F3FA8A
:105470000020724908705A20714908700EE0FBF74D
:10548000D7FDFDF7D9FC5A20FBF7E6FC4FF48071FD
:105490006748103802F005F900B109E0FBF7D3FACC
:1054A000041E01DB204600E0604268498842E6DBDA
:1054B00000BF0320FBF7D0FC10205D49091D0860E8
:1054C00080200860202008600220FBF7A5FD002056
:1054D0005F4908600DE000BF4FF400615448103888
:1054E00002F0DFF80028F7D159480068401C5849FD
:1054F00008605748006841F288318842EBD31E208B
:10550000FBF746FC1E20FBF755FC0220FBF764FC72
:105510003220FBF7B2FC3220FBF73AFC3220FBF7DB
:1055200049FC0220FBF758FC0020494908600CE0C8
:1055300000BF4FF40051474802F0B3F80028F8D1FB
:1055400043480068401C424908604148006841F2F5
:1055500088318842ECD30020FBF75EFD10BD10B50A
:10556000FBF779FA08203549087046211920FEF723
:10557000CEFF0AE0FBF75CFDFCF714FF40F26D1074
:10558000FBF742FD0A20FBF767FCFBF75CFA041E01
:1055900001DB204600E0604247F230518842E9DBFF
:1055A000082026490870FBF756FA7820244908702D
:1055B0000AE0FBF73DFDFCF7F5FE40F26D10FBF74E
:1055C00023FD0020FBF7A9FCFBF73DFA041E01DBDD
:1055D000204600E0604247F288718842E9DB022001
:1055E00016490870962016490870FBF734FA0AE04D
:1055F000FBF71EFDFCF7D6FE7820FBF78EFC4FF480
:10560000B970FBF701FDFBF71EFA041E01DB204613
:1056100000E0604210498842EADB00200749087038
:10562000AA2007490870FBF716FA22E0EEC901002C
:1056300010180140000C0140B71101004C0000207F
:105640003B000020400D0300F049020040420F00E3
:105650007000002000100140DE250100FBF7E8FC8F
:10566000FCF7A0FE0320FBF758FC4FF4B970FBF7E2
:10567000CBFCFBF7E8F9041E01DB204600E06042AA
:105680004DF6F2218842E9DBFBF7E5F9AF20FE4950
:1056900008700AE0FBF7CCFCFCF784FE7320FBF7F4
:1056A0003CFC4FF4AF70FBF7AFFCFBF7CCF9041EEA
:1056B00001DB204600E060424FF638118842E9DB0A
:1056C000FBF7C9F90AE0FBF7B3FCFCF76BFE82209D
:1056D000FBF723FC4FF4AA70FBF796FCFBF7B3F93A
:1056E000041E01DB204600E06042E8498842EADB14
:1056F0000820E7490860FBF7AEF90AE0FBF798FCE1
:10570000FCF750FE7820FBF708FC4FF4AA70FBF77B
:105710007BFCFBF798F9041E01DB204600E06042A9
:1057200049F69A418842E9DBFBF795F97820FBF7C7
:1057300093FB0020D7490870A020D349087026E0C9
:10574000FBF776FCFCF72EFE4FF4AA70FBF75CFC2F
:10575000FEF713FF4FF40071CF4801F0A2FFB0B97C
:105760004FF48051CC4801F09CFF80B90421CA4815
:1057700001F097FF58B94FF48071C74801F091FFCD
:1057800028B90121C44801F08CFF00B909E0FBF7FA
:105790005AF9041E01DB204600E06042BF498842FE
:1057A000CEDB00BF46215020FEF7B1FEFBF783F8A9
:1057B00007E0FBF73DFCFCF7F5FD4FF4A570FBF7A8
:1057C00023FCFBF770F8041E01DB204600E060427A
:1057D000B0F5AF7FEDDB0220FBF71EFC40F24F106F
:1057E000FBF712FC4FF42F70FBF747FB1E21002044
:1057F000FEF78DFEFBF72FF907E0FBF719FCFCF72E
:10580000D1FD40F25910FBF7FFFBFBF71CF9041E1A
:1058100001DB204600E0604244F667618842ECDB31
:105820004FF4E170FBF7F0FB3220FBF726FB10BDD5
:1058300010B5FBF710F90820964908703C21142098
:10584000FEF765FE16E0FBF7F3FBFCF7A2F94FF459
:10585000B970FBF7D9FB4FF400718D48103801F097
:1058600020FF38B932210846FEF751FE40F26D1094
:10587000FBF7CAFBFBF7E7F8041E01DB204600E05C
:10588000604247F230518842DDDBFBF7E4F8032049
:105890008049087078207C49087019E0FBF7C8FB44
:1058A000FCF777F94FF4B970FBF7AEFB0020FBF77C
:1058B00034FB4FF400717648103801F0F2FE38B92D
:1058C00064210846FEF723FE40F26D10FBF79CFBB7
:1058D000FBF7B9F8041E01DB204600E0604247F206
:1058E00088718842DADB01206A490870AF20664976
:1058F0000870FBF7B0F81DE0FBF79AFBFCF749F9DD
:105900006E20FBF70AFB4FF4B970FBF77DFB4FF4F9
:1059100000715F48103801F0C4FE38B9782108469C
:10592000FEF7F5FD4FF4BE70FBF76EFB6FF009005C
:10593000FBF792FAFBF787F8041E01DB204600E034
:10594000604257498842D7DB022052490870BE2086
:105950004D490870FBF77FF819E0FBF769FBFCF78E
:1059600018F90320FBF7D9FA4FF4B970FBF74CFB99
:105970004FF400714648103801F093FE38B98C217D
:105980000846FEF7C4FD4FF4B970FBF73DFBFBF78B
:105990005AF8041E01DB204600E060424DF6F22179
:1059A0008842DADBFBF757F819E0FBF741FBFCF71D
:1059B000F0F87320FBF7B1FA4FF4B470FBF724FB57
:1059C0004FF400713248103801F06BFE38B9822173
:1059D0000846FEF79CFD4FF4B970FBF715FBFBF78B
:1059E00032F8041E01DB204600E060424FF6381119
:1059F0008842DADBFBF72FF8AA210846FEF79AFD6A
:105A000019E0FBF715FBFCF7C4F86420FBF785FAF7
:105A10004FF4AA70FBF7F8FA4FF400711C481038E5
:105A200001F03FFE38B982210846FEF770FD40F2D2
:105A30006D10FBF7E9FAFBF706F8041E01DB2046C0
:105A400000E0604211498842DBDBFBF704F80820E4
:105A50000F490860AF210846FEF76CFD28E0FBF710
:105A6000E7FAFCF796F88220FBF757FA4FF4A0709C
:105A7000FBF7CAFA4FF400710548103801F011FE27
:105A8000B0B9822108460DE03B000020EEC90100BC
:105A9000101801404C000020000C0140B71101001B
:105AA000DE250100FEF733FD40F26D10FBF7ACFA86
:105AB000FAF7C9FF041E01DB204600E0604249F608
:105AC0009A418842CBDBFAF7C6FF0020F6490870FE
:105AD0009620F649087035E0FBF7AAFAFCF759F86A
