:020000040800F2
:1000000060300020313C000845020008470200082B
:10001000490200084B0200084D02000800000000E1
:100020000000000000000000000000009D0100082A
:100030004F02000800000000E101000867620008AC
:100040004B3C00084B3C00084B3C00084B3C000874
:100050004B3C00084B3C00084B3C00084B3C000864
:1000600017040008630400084B3C00080103000863
:10007000C30200084D0300084B3C0008750200084D
:100080004B3C00087D0200084B3C00084B3C00083C
:100090004B3C00084B3C00084B3C00084B3C000824
:1000A0004B3C000871030008910300084B3C00081A
:1000B00093030008B3030008D30300084B3C000877
:1000C0004B3C00084B3C00084B3C00081304000864
:1000D0004B3C0008550200084B3C00084B3C000814
:1000E0004B3C00084B3C00084B3C00084B3C0008D4
:1000F0004B3C00084B3C00084B3C00082303000825
:100100004B3C00084B3C0008F303000815040008B2
:100110004B3C00084B3C0008570300085F030008F5
:100120004B3C00084B3C00089F0200084B3C000879
:100130004B3C00084B3C00084B3C00084B3C000883
:100140004B3C00084B3C00084B3C00084B3C000873
:10015000B90200084B3C00084B3C00084B3C00082F
:100160004B3C00084B3C00084B3C00084B3C000853
:100170004B3C00084B3C00084B3C00084B3C000843
:100180004B3C00084B3C0008DFF80CD007F008F9A6
:10019000004800472D3A000860300020234B1968C2
:1001A0000868B0E8F04F80F309884FF0000080F352
:1001B000118870470000000003480068006880F361
:1001C000088862B600DF00BF08ED00E0DFF80C0031
:1001D000016841F470010160704700BF88ED00E0E4
:1001E000EFF30980114B1A681EF0100F08BF20EDC5
:1001F000108A20E9F04F106008B54FF0140080F32A
:10020000118806F006FB4FF0000080F31188BDE86E
:10021000084019680868B0E8F04F1EF0100F08BFDA
:10022000B0EC108A80F30988704700BFA801002055
:10023000EFF311804FF0140181F31188704780F3C0
:10024000118870477047FEE7FEE7FEE7FEE770475C
:100250007047704710B5834C40F22551204605F099
:100260004CFA002805D02046BDE81040202105F0BA
:1002700041BA10BD7C497D4804F051BB70B57B4D3F
:100280007B4C30352146284604F026FB002805D05B
:1002900021462846BDE8704004F041BB70BD10B552
:1002A0007449754804F03BFB74484178007841EA92
:1002B00000207349088010BD6F487249483004F02F
:1002C0002EBB70B5694D704C483D2146284604F060
:1002D00003FB002813D02146284604F020FB6B487E
:1002E00001F040FE00280AD1694C0021204605F0AB
:1002F00043F92046BDE87040012105F03DB970BDCD
:1003000070B55A4D634C603D2146284604F0E4FA2E
:10031000002805D021462846BDE8704004F0FFBA09
:1003200070BD70B5514C5C4D48342946204604F0F0
:10033000D3FA002809D00021204604F042FA2946C9
:100340002046BDE8704004F0EABA70BD474846490F
:10035000303804F0E4BA0121504804F0ACBF10B5C5
:1003600001214F4804F0A7FF3E497A20888010BD44
:1003700010B54C4C0121204604F09DFF2088C10699
:100380004948016801D5491E00E0491C016010BDC3
:10039000704710B501218C07204604F08CFF20889F
:1003A000C1064248016801D5491E00E0491C0160B0
:1003B00010BD10B53E4C0121204604F07CFF208882
:1003C000C1063C48016801D5491E00E0491C016096
:1003D00010BD10B5384C0121204604F06CFF208878
:1003E000C1063648016801D5491E00E0491C01607C
:1003F00010BD10B5324C0121204604F05CFF20886E
:10040000C1063048016801D5491E00E0491C016061
:1004100010BD7047704770B5042004F0FFFA002843
:100420001ED02021284803F052FD284D04212846E3
:1004300003F02EFD1A4C012805D00421284603F0B4
:1004400027FD28B109E00021204604F0CDFB04E09F
:10045000204604F0CDFB1E4908601E4904200860B8
:1004600070BD704700100140208000207060024085
:10047000008020200080201040640240E002002024
:10048000080000200088002000880010FE020020E4
:10049000004800402080001000800028001000402C
:1004A00000140040000001400C000020100000205B
:1004B0000004004014000020000800404C0100200F
:1004C000000C00405001002000000240000C0240DF
:1004D00054010020143C014070B50546002406F08C
:1004E000C5FCFE4902E02A5D0A55641C8442FADB21
:1004F000BDE870400121FA4804F063B970B5F94DC8
:1005000006460024315D00290BD0284605F05AF834
:100510008021284605F0E7F80028F9D0641CE4B2F1
:10052000F0E770BD70B5EF4E05460024002D0DD0EC
:100530002946304605F046F88021304605F0D3F8CC
:100540000028F9D0641CE4B2032CEFD370BD73B55E
:100550000C460020FFF7E6FFE3A0FFF7CFFFDF48E0
:100560002246E2A1823806F069FFDC488238FFF7B4
:10057000C5FFDFA0FFF7C2FFDFA0FFF7BFFFD7482F
:10058000DAA18238009A06F059FFD44E0024D54DE6
:10059000823E2846315D05F015F84021284605F0D9
:1005A000A2F80028F9D0641C142CF2DBD2A0FFF7CB
:1005B000A5FFFF20FFF7B6FFFF20FFF7B3FFBDE861
:1005C0007C40FF20AEE770B505460C46C6A0FFF79D
:1005D00095FFC2482246C5A1823806F02FFFBF48CA
:1005E0008238FFF78BFFC5A0FFF788FF2846FFF78B
:1005F00085FFC1A0FFF782FFBDE87040FF2091E7B3
:1006000077B5BEA185B00646D1E90001CDE900016C
:10061000B9A0002200680390B3A0B04D0068283D47
:10062000A5F128030290AD4C1146A3F13200A95464
:1006300099548154A154521CD2B21E2AF7D30A21D4
:100640000170FF2444708470C470A448A7A150387E
:10065000079A06F0F3FEA14902A8503906F0EEFB16
:100660009E4802A9823806F0E9FB9C486946823818
:1006700006F0E4FB99483146823806F0DFFB9748E4
:100680009AA15038069A06F0D9FE94495039A1F142
:10069000320006F0D3FB914803A9823806F0CEFB66
:1006A0008E492C706C702839AC70A1F15A0006F09C
:1006B000C5FB8A488238FFF70FFF08B070BD2DE9EF
:1006C000F74188468DA185B00646D1E90001CDE904
:1006D000000189A000220068039083A07F4D00687C
:1006E000283DA5F1280102901446A1F13200AC5436
:1006F0008C548454521CD2B20A2AF8D30A210170B5
:10070000FF2747708770C770744878A15038079AE0
:1007100006F094FE714902A8503906F08FFB6F482D
:1007200002A9823806F08AFB6C486946823806F0D6
:1007300085FB6A483146823806F080FB67484146AF
:10074000823806F07BFB654803A9823806F076FB09
:100750002F706F706149AF70EC7028392C71A1F166
:100760005A0006F06BFB5D488238FFF7B5FE08B013
:10077000BDE8F08170B50020FFF7D4FE5AA0FFF766
:10078000BDFE56480D2259A1823806F057FE534847
:100790008238FFF7B3FE59A0FFF7B0FE594C202175
:1007A000204603F075FB02464C4850A1823806F003
:1007B00045FE4A488238FFF7A1FE1021204603F08B
:1007C00067FB0246454849A1823806F037FE434898
:1007D0008238FFF793FE4C4D8021284603F058FBEA
:1007E00002463E4841A1823806F028FE3B48823846
:1007F000FFF784FE4021284603F04AFB02463748B3
:100800003AA1823806F01AFE34488238FFF776FEA5
:100810004FF40041204603F03BFB02462F4833A132
:10082000823806F00BFE2D488238FFF767FE4FF442
:100830008041204603F02CFB024628482BA1823839
:1008400006F0FCFD25488238FFF758FE4FF40051B2
:10085000204603F01DFB0246204824A1823806F002
:10086000EDFD1E488238FFF749FE4021274803F07E
:100870000FFB024619481DA1823806F0DFFD17481C
:100880008238FFF73BFE1CA0FFF738FEFF20FFF782
:1008900049FEFF20FFF746FEBDE87040FF2041E61D
:1008A000FEB51BA10646D1E90001CDE900011AA061
:1008B00000210A4D0068283DA5F1280202900C464F
:1008C000A2F132006C5454544454491CC9B2322928
:1008D000F8D30A210170FF2747701FE09E02002015
:1008E000B860024000500040740000002564000021
:1008F0002E7478743D000000220000002E7478747D
:100900003D220000000802400000024000100240AA
:100910002E76616C3D0000006A0000008770C77091
:100920000022AFF23801FE4806F088FDFC4902A81B
:1009300006F084FAFA4802A9323806F07FFAF8483D
:100940006946323806F07AFA3246AFF26001F4486E
:1009500006F074FDF249A1F1320006F06FFA2F7033
:100960006F70EF49AF70EC7028312C71A1F15A0013
:1009700006F064FAEA483238FFF7AEFDFEBD70B506
:100980000D46044606F024FA291B491C90FBF1F29F
:1009900001FB1200204470BD2DE9FC414FF080475F
:1009A000384604F025F9DF4D2969642640EA014004
:1009B00090FBF6F000240190384604F019F92969FB
:1009C00040EA014090FBF6F001990090401A00D5F2
:1009D0004042322800DA641C00980190022CEBDBC4
:1009E0000098002800DA4042BDE8FC812DE9FC4176
:1009F000CD4F384604F0FCF8CA4D6969642640EAD8
:100A0000014090FBF6F000240190384604F0F0F825
:100A1000696940EA014090FBF6F001990090401AA4
:100A200000D54042322800DA641C00980190022C64
:100A3000EBDB00980028D7DA4042D5E710B5FFF786
:100A4000ABFF0446FFF7D2FF002C00DA6442002817
:100A500000DA4042204410BD01B581B0019800EB9E
:100A6000C00040000090002801D0401EFAE70CBDF5
:100A700001B581B044F250610198484300900028CC
:100A800001D0401EFAE70CBD2DE9FC4101211F20D9
:100A900003F066FB01248DF8044000268DF8066003
:100AA0004FF6FF758DF80740032700958DF8057008
:100AB00069469E4803F086F98DF804408DF806607B
:100AC0008DF8074000958DF805706946984803F049
:100AD00079F98DF804408DF806608DF8074000958F
:100AE0008DF805706946934803F06CF97CE77CB596
:100AF00001217E2003F034FB0024FC208DF804400B
:100B0000012500908DF8075002268DF80560694692
:100B1000894803F057F948F206008DF80440009028
:100B20008DF807508DF805606946804803F04AF952
:100B300046F6C4408DF8044000908DF807508DF8BB
:100B4000056069467A4803F03DF903208DF80440BA
:100B500000908DF807508DF805606946754803F0E0
:100B600031F94FF2FF508DF8044000908DF8075096
:100B70008DF805606946714803F024F97CBD1FB506
:100B80004FF4E06003F066F836208DF80C00002486
:100B90008DF80D408DF80E4001208DF80F0003A850
:100BA00003F05DF80121102003F0F8FA3220ADF8CF
:100BB0000000ADF80840ADF8024040F2E730604C6C
:100BC00001906946204603F0CDFF0121204604F044
:100BD00072FB01221146204604F04DFB0021204605
:100BE00004F002F80121204604F034F81FBD1FB5BF
:100BF0004FF4E06003F02EF837208DF80C0000244D
:100C00008DF80D408DF80E4001208DF80F0003A8DF
:100C100003F025F80121202003F0C0FA4FF4FA7008
:100C2000ADF80000ADF80840ADF8024040F2E73002
:100C3000444C01906946204603F094FF0121204670
:100C400004F039FB01221146204604F014FB002178
:100C5000204603F0C9FF0121204603F0FBFF1FBD22
:100C600070B58AB00121022003F0A2FA01210C2004
:100C700003F076FA2E4E03220621304603F02BF9BC
:100C800003220721304603F026F9032208213046CB
:100C900003F021F903220921304603F01CF94FF437
:100CA0007070059002208DF8180003208DF819004F
:100CB00000248DF81A4001258DF81B5005A93046F7
:100CC00003F080F8A420ADF81C0028021E4E089006
:100CD000ADF82400ADF81E4007A9304603F042FFEE
:100CE0006020ADF80000ADF802500294ADF80C4061
:100CF0000121304603F0AEFF0021304603F074FFBF
:100D00006946304603F0B0FF6946304603F0D8FF2D
:100D10006946304604F010F86946304616E0000097
:100D20004E020020000000200004004000040240A9
:100D300000080240000C0240000002400010024087
:100D400000100040001400400004014004F02EF8A0
:100D50000121304604F070FA0AB070BD70B58AB057
:100D60000121042003F01AFA01210D2003F0F8F903
:100D7000FF4E02220C21304603F0ADF802220D2175
:100D8000304603F0A8F802220E21304603F0A3F803
:100D900002220F21304603F09EF84FF47040059078
:100DA00002208DF8180003208DF8190000248DF81A
:100DB0001A4001258DF81B5005A9304603F002F8B2
:100DC000A420ADF81C002802EA4E0890ADF82400DB
:100DD000ADF81E4007A9304603F0C4FE7020ADF800
:100DE0000000ADF802500294ADF80C4001213046ED
:100DF00003F030FF0021304603F0F6FE694630462E
:100E000003F032FF6946304603F05AFF6946304628
:100E100003F092FF6946304603F0C8FF9CE730B507
:100E2000012187B0080403F0C3F90121084603F04B
:100E300097F900244FF6FF70CF4DADF800400190B8
:100E4000ADF80840ADF802406946284603F08AFE36
:100E50000420ADF80C00C820ADF814000120ADF856
:100E60001000ADF80E4003A9284604F035F9C34C34
:100E700000231A460321204604F097FA0121204658
:100E800004F019FA01221146204604F0F4F9012178
:100E9000284603F0DFFE0021204603F0A5FE07B040
:100EA00030BD2DE9F04701218AB0084603F076F9FC
:100EB0000121022003F072F90121032003F050F90F
:100EC000DFF8BC9201220F21484603F004F8DFF856
:100ED000B48201220321404602F0FDFF02220421D8
:100EE000404602F0F8FF02220521404602F0F3FFDF
:100EF00002268DF80460032738208DF80570002441
:100F000000908DF8064001258DF80750694640464F
:100F100002F058FF8DF80460E8038DF8057000902A
:100F20008DF806408DF807506946484602F04AFFA2
:100F30004FF6FF70ADF80C4004904FF08049ADF8CB
:100F40001440ADF80E4003A9484603F00BFEDFF84D
:100F500038A203A9504603F005FE4FF00408142000
:100F6000ADF81880ADF82000ADF81A60ADF81C504F
:100F700006A9484604F0B0F806A9504604F0ACF8BB
:100F800002231A460321484604F00FFA02231A46A8
:100F90000321504604F009FA0121484604F08BF978
:100FA0000121504604F087F901221146484604F019
:100FB00062F901221146504604F05DF901214846CC
:100FC00003F048FE0121504603F044FE002148464C
:100FD00003F00AFE0021504603F006FE780202F0FC
:100FE00039FE1D208DF808008DF809708DF80A4033
:100FF0008DF80B5002A802F032FE1C208DF808007C
:101000008DF809808DF80A408DF80B5002A802F087
:1010100026FE0AB0BDE8F08770B501218AB0084607
:1010200003F0C6F80121102003F09AF84FF4206075
:10103000009002208DF8040003208DF805000024A4
:10104000524E8DF8064001258DF80750694630460E
:1010500002F0B8FE01220921304602F03CFF0122D5
:101060000B21304602F037FF4FF6FF70424EADF8CD
:1010700008400390ADF81040ADF80A4002A9304690
:1010800003F070FD0420ADF814000A20ADF81C0038
:10109000ADF81640ADF8185005A9304604F01CF81C
:1010A00000231A460321304604F07FF9012130461F
:1010B00004F001F901221146304604F0DCF8012168
:1010C000304604F0F8F801221146304604F0D3F817
:1010D0000121304603F0BEFD0021304603F084FDBF
:1010E0004FF4C06002F0B6FD19208DF820008DF895
:1010F00021508DF822408DF8235008A802F0AFFD52
:101100002AE6F0B59BB00121214803F029F801211E
:101110000D02284603F04CF81E480024CDE900409B
:101120001D4802A9082681E85100A800CDE9054024
:10113000400007908000CDE908050AA900010125BB
:1011400081E83100154F0D94694638460E9403F03E
:10115000FFFA0121384603F034FB3C2019900320AC
:101160008DF868008DF86B4019A90D481AE0000051
:10117000000C024000080040000001400040014017
:101180000000024000040240000400400010024041
:10119000050040004C200140D002002010640240B5
:1011A0000008024002F00EFE4FF44030CDE9154039
:1011B0004FF47060CDE9174015A803F0CEF828066B
:1011C0000F908DF840508DF8415011941294139463
:1011D0008DF850600FA9FE4C204603F093F80423CD
:1011E00001220221204603F002F9042302220321F6
:1011F000204603F0FCF8042303221946204603F09E
:10120000F6F804231A460521204603F0F0F80423DB
:1012100005220C21204603F0EAF8042306220D21C2
:10122000204603F0E4F8042307220E21204603F0B1
:10123000DEF8042308220F21204603F0D8F801210C
:10124000204603F051F90121204603F043F9012122
:10125000204603F099F8204603F003F91BB0F0BDD7
:1012600008B54FF4E06002F0F5FC25208DF8000091
:1012700000208DF801008DF8020001208DF8030098
:10128000684602F0ECFC08BD70B5054696B0012139
:10129000102002F08DFF0121084602F061FF0121BC
:1012A000880502F05DFF4FF4C060139002208DF8B6
:1012B000500000248DF852408DF85340C54E8DF8F3
:1012C000510013A9304602F07DFD07220921304666
:1012D00002F001FE07220A21304602F0FCFD0F95C4
:1012E000ADF844400C20BC4DADF84040ADF8460090
:1012F000ADF84240ADF848400FA9284604F0CBF8BD
:101300000121284604F038F94FF4A06002F0A2FC55
:101310003A208DF854008DF855408DF85640012044
:101320008DF8570015A802F09AFCAC4E304603F039
:1013300087F94FF000600090A948CDE902040A2027
:101340000490281D01900015CDE905408010CDE9DD
:10135000084040020A9004200B9007940320CDE936
:101360000C04694630460E9403F0F2F90122402144
:10137000284604F098F901221021304603F096FA2D
:101380000121304603F01DFA16B070BDF0B50646D7
:10139000012197B0480502F0E3FE01214D042846E3
:1013A00002F0FCFE0121082002F0DAFE602013901A
:1013B00002208DF8500000248DF852408DF85340E3
:1013C000884F8DF8510013A9384602F0FBFC072224
:1013D0000521384602F07FFD07220621384602F03B
:1013E0007AFD0F96ADF844400C207F4EADF840409A
:1013F000ADF84600ADF84240ADF848400FA9304680
:1014000004F049F80121304604F0B6F84FF4A0602A
:1014100002F020FC11208DF854008DF855408DF815
:10142000564001208DF8570015A802F018FC6F4FA8
:10143000384603F005F9A8020090402003906C485C
:1014400002903C200490301D01900015CDE905402C
:101450008010CDE908400420CDE90A50079403200C
:10146000CDE90C04694638460E9403F071F9012267
:101470008021304604F017F901228021304604F023
:1014800012F901221021384603F010FA01213846E2
:1014900003F097F917B0F0BD70B50546012196B07D
:1014A000880402F07BFE0121082002F059FE012190
:1014B000480502F055FE4FF44070139002208DF85D
:1014C000500000248DF852408DF85340454E8DF861
:1014D000510013A9304602F075FC0722082130465E
:1014E00002F0F9FC07220921304602F0F4FC0F95C6
:1014F000404EADF84040ADF844400C25ADF84240B8
:10150000ADF84840ADF846500FA9304603F0C3FF90
:101510000121304604F030F84FF4A06002F09AFB4D
:101520008DF854508DF855408DF8564001208DF8B7
:10153000570015A802F093FB2C4D783D284603F088
:101540007FF84FF000600090254869461E30CDE9D5
:10155000020408200490301D01900015CDE90540DB
:101560008010CDE9084040020A9004200B900794B7
:101570000320CDE90C0428460E9403F0E9F801227B
:101580004021304604F08FF801224021304604F01B
:101590008AF801221021284603F088F90121284603
:1015A00003F00FF9F0E6F0B50646012197B0C80444
:1015B00002F0F4FD0121084602F0D2FD01214805A8
:1015C00002F0CEFD0325022013958DF8500013E0A4
:1015D0000020014000000240001001404064024031
:1015E000E0020020000C024000440040A0600240E5
:1015F000000100200048004000248DF852408DF882
:101600005340F94F8DF8510013A9384602F0DAFB28
:1016100008220021384602F05EFC082201213846EB
:1016200002F059FC0F96ADF844400C20EF4EADF897
:101630004040ADF84600ADF84240ADF848400FA933
:10164000304603F028FF0121304603F095FF4FF4A8
:10165000A06002F0FFFA0D208DF854008DF855407F
:101660008DF8564001208DF8570015A802F0F7FAC2
:10167000DF4F384602F0E4FF78050090DD48CDE901
:10168000020408200490301D01900015CDE90540AA
:101690008010CDE90840400207940A900420CDE96B
:1016A0000C540B90694638460E9403F051F8012211
:1016B0004021304603F0F7FF01224021304603F07D
:1016C000F2FF01221021384603F0F0F801213846DC
:1016D00003F077F8DEE62DE9F0418046012196B06F
:1016E000480502F03DFD0121080502F057FD0121EA
:1016F0000C2002F035FD02258DF8405000248DF8B5
:101700004240BD4F04268DF843400F968DF841505E
:101710000FA9384602F056FB8DF840508DF8424034
:101720008DF84340E8028DF84150B44D0F900FA959
:10173000284602F047FB08220221384602F0CBFB84
:1017400008220C21284602F0C6FB4FF4A06002F0EC
:1017500081FA2F208DF8540005208DF855008DF862
:10176000560001208DF8570015A802F078FAADF860
:101770004C400C20A24DADF84840ADF84E00CDF8DD
:101780004480ADF84A40ADF8504011A9284603F016
:1017900082FE0121284603F0EFFE954F7837384648
:1017A00002F04EFF70060090402003909148694679
:1017B0005138029031200490281D01900015CDE988
:1017C00005408010CDE908404002CDE90A060794A3
:1017D0000320CDE90C0438460E9402F0B9FF012233
:1017E0008021284603F05FFF01221021384603F0D4
:1017F0005DF80121384602F0E4FF16B0BDE8F08143
:1018000030B585B00121082002F0AAFC012188032F
:1018100002F0CEFC00240C208DF81040012503902E
:101820008DF8135003A9744802F0CCFA022103206A
:1018300003F0A3FF042000908DF8044010208DF8E1
:1018400005008DF80650684603F098F808208DF8DA
:1018500008008DF809408DF80A408DF80B5002A859
:1018600002F0FDF905B030BD10B5012810D00328F5
:1018700019D0042822D0052809D1614C204603F054
:10188000A1FE4021204603F02EFF0028F9D010BD14
:101890005C4C204603F096FE4021204603F023FFD7
:1018A0000028F9D010BD584C204603F08BFE402193
:1018B000204603F018FF0028F9D010BD4B4C2046FD
:1018C00003F080FE4021204603F00DFF0028F9D0F0
:1018D00010BD4E49002048624D49C8604FF080421B
:1018E000506208614B4A10604861704770B5484DBE
:1018F00000206871044661210120FFF7B5FF322006
:10190000FFF7B6F8641C022CF5D3012068717A2029
:10191000287170BD10B561210120FFF7A5FFBDE85A
:1019200010400A20FFF7A4B870B5394D0020E871C7
:10193000044661210320FFF797FF3220FFF798F854
:10194000641C022CF5D30120E8717A20A87170BDC7
:101950002DE9F14795B0002014908DF800002C4936
:101960002E4B8DF828004FF400458031DDF854C02F
:10197000294F224C2648AE105B6901F1BC024FF49E
:1019800080594FF4804ABCF1120F6BD2DFE80CF0A3
:1019900009286B71777D82868A8E92969A9CA0A286
:1019A000AAFE0221384602F073FA60B101222946EC
:1019B000204602F085FA2946204602F073FA0146D5
:1019C000002217A089E000222946204602F078FA7A
:1019D0002946204602F066FA0146002217A07CE064
:1019E0000122096B1DA078E000000240004C00407D
:1019F00040600240EF020020000C0240000802405C
:101A0000005000400010014000480040000001402C
:101A1000000000202404004000040240EC010020EB
:101A2000524F424F542044414E4720434841592091
:101A300053414E20444F3A2020200000524F424F45
:101A4000542044414E4720434841592053414E20A1
:101A500058414E483A20202000000000494D553A98
:101A6000000000003BE0FEF7E9FF01460222EFA084
:101A700033E0FEF7BBFF01460322F0A02DE0FEF7A6
:101A80008BFF01460422EEA027E0EE48C17C052230
:101A9000EDA022E011780622EEA01EE011790722C7
:101AA000EFA01AE0416B0822F0A016E0816A09223B
:101AB000F2A012E0016A0A22F5A00EE081780B2262
:101AC000F7A00AE00C2206E00D22C96FF9A004E09D
:101AD0000E2200E00F221946FBA0FEF791FD16B082
:101AE000BDE8F087FE4D3146284602F0D1F90246A6
:101AF000FCA1684605F0A2FC69460AA805F09EF91B
:101B00004946284602F0C4F90246F6A1684605F0A7
:101B100095FC69460AA805F091F91021284602F0C3
:101B2000B7F90246EFA1684605F088FC69460AA8A5
:101B300005F084F90121284602F0AAF90246E9A13C
:101B4000684605F07BFC69460AA805F077F9022192
:101B5000284602F09DF90246E2A1684605F06EFCB7
:101B600069460AA805F06AF93146204602F090F964
:101B70000246DCA1684605F061FC69460AA805F04A
:101B80005DF95146204602F083F900E00CE0024680
:101B9000D4A1684605F052FC69460AA805F04EF942
:101BA00010220AA9D0A0DAE02946384602F07AF9D4
:101BB0000246CCA1684605F041FC69460AA805F03A
:101BC0003DF95146384602F06DF90246C5A1684616
:101BD00005F034FC69460AA805F030F9314638466C
:101BE00002F060F90246BFA1684605F027FC69468D
:101BF0000AA805F023F94D464946384602F052F945
:101C00000246B8A1684605F019FC69460AA805F025
:101C100015F94FF400684146384602F043F9024690
:101C2000B0A1684605F00AFC69460AA805F006F965
:101C30004FF48061384602F035F90246A9A16846A2
:101C400005F0FCFB69460AA805F0F8F84FF40071AE
:101C5000204602F027F90246A2A1684605F0EEFBF5
:101C600069460AA805F0EAF84FF480763146204626
:101C700002F018F902469BA1684605F0DFFB6946B1
:101C80000AA805F0DBF8994C3146204602F00AF923
:101C9000024694A1684605F0D1FB69460AA805F002
:101CA000CDF80121204602F0FDF802468DA16846DC
:101CB00005F0C4FB69460AA805F0C0F802212046D9
:101CC00002F0F0F8024687A1684605F0B7FB6946C6
:101CD0000AA805F0B3F80121384602F0E3F80246FD
:101CE00080A1684605F0AAFB69460AA805F0A6F897
:101CF0004146204602F0D6F802467AA1684605F031
:101D00009DFB69460AA805F099F82946204602F08D
:101D1000C9F8024673A1684605F090FB69460AA817
:101D200005F08CF88021384602F0BCF802466DA11F
:101D3000684605F083FB69460AA805F07FF8402154
:101D4000384602F0AFF8024666A1684605F076FB19
:101D500069460AA805F072F811220AA964A0FEF7E4
:101D6000AEFCBCE60121634802F02BBD11B435483E
:101D70008038416F009A914201DD002101E0416FFE
:101D8000491C4167406F18BCE2E52DE9F04700258A
:101D9000594E074601244FF400594FF480484FF440
:101DA000805A00224146304602F08AF81020FEF7A1
:101DB00053FE274201D0012200E00022494630466E
:101DC00002F07EF801224146304602F079F81020F8
:101DD000FEF742FE5146304602F05AF800B1254364
:101DE000600010F0FF04DCD1284679E670B5424E61
:101DF0004FF4004500222946304602F061F81020D9
:101E0000FEF72AFE0120FFF7C0FF4220FFF7BDFFCB
:101E1000FF20FFF7BAFFFF20FFF7B7FF094C3C3464
:101E20002070FF20FFF7B1FF607067E0454E434F21
:101E30004445525F544F4E473A00000046523A0024
:101E4000464C3A00000100204D6F725F53696C6F81
:101E50000000000047414D45205041443A00000039
:101E60004C4A4F595F4C523A000000006269656E5F
:101E700020646F20626F6E673A2000006269656EB1
:101E80002064756E672062616E67207461693A0034
:101E900073696C6F5F7675615F636861793A200082
:101EA0006269656E5F6E68616E5F626F6E673A2031
:101EB000000000006C617A65206E67616E672078B3
:101EC000616E683A20000000626F6E675F74726F27
:101ED0006E675F73696C6F5B355D3A2000000000D0
:101EE0000010024025640000493A00000000024052
:101EF0004F3A0000A0600240000C0240FF20FFF7B4
:101F000044FFA070FF20FFF740FFE070FF20FFF7C5
:101F10003CFF2071FF20FFF738FF607129463046F3
:101F2000BDE87040012201F0CBBF70B54FF4004511
:101F300000222946FE4E304601F0C2FF1020FEF777
:101F40008BFD0120FFF721FF4220FFF71EFF044613
:101F500001222946304601F0B3FF1020FEF77CFD38
:101F6000204670BDF34A0021D163C279F2490D2A9F
:101F700009D0FF20087048708870C87008714871D7
:101F800088710020704702780A7042784A7082781F
:101F90008A70C278CA7002790A7142794A7180796E
:101FA000887101207047E448E2490278FF2A05D190
:101FB0004278FF2A02D18278FF2A09D0CA6B531CCB
:101FC000CB63C82A03DDFF21017041708170704727
:101FD0000020C8637047D84880797047D648007899
:101FE000400601D40120704700207047D248007895
:101FF000C00601D4012070470020704701B59DF84C
:102000000000052801D2002008BD9DF8000008BD91
:10201000F0B5C84E00271D4606F580744FF0010C40
:10202000002806D009DDC0B2FFF7E8FFE070A77016
:102030000AE096F86800E07006E04042C0B2FFF7A0
:10204000DDFFE07084F802C0002907D00ADDC8B2C5
:10205000FFF7D4FFE07184F806C009E096F8680045
:10206000E07105E04842C0B2FFF7C8FFE071A77118
:10207000002A06D009DDD0B2FFF7C0FFE072A772D8
:102080000AE096F86800E07206E05042C0B2FFF73E
:10209000B5FFE07284F80AC0002D07D00ADDE8B26F
:1020A000FFF7ACFFE07384F80EC0F0BD96F868004F
:1020B000E073F0BD6842C0B2FFF7A0FFE073A77302
:1020C000F0BD9D493C39C870C871C872C87370476B
:1020D000984901208031C864704796488030006973
:1020E000A0F5EA41303901D0012070470020704747
:1020F000FFF7FCBB8F48B0F90800404270478D489D
:10210000B5EEC00AD0ED110AF1EE10FA02D230EEAF
:10211000600A01E030EE200ABDEEC00A10EE100A9F
:10212000704710B5041E2DED068B82489FED83ABE2
:102130009FED849BC06F10D014DA05F026F841ECB7
:10214000180B204605F021F853EC1A2B04F03CFF45
:1021500053EC192B04F032FF13E09FED7C0ABDEC29
:10216000068B10BD05F011F841EC180B204605F068
:102170000CF853EC1A2B04F027FF53EC192B04F046
:102180007CFE53EC182B04F091FF05F022F800EED2
:10219000100AE4E7B5EEC00AF1EE10FA01DAB1EE8A
:1021A000400A7047002800DA40427047614991EDCB
:1021B000180AD1ED191AF1EE400A80EEA11A00EECC
:1021C000900AF8EEE00A01EE200ABDEEC00A10EE19
:1021D000100A7047B0EE402A9FED5D0AB5EEC02AA6
:1021E000F1EE10FA01D2B1EE422AF5EEC00AF1EE9C
:1021F00010FA01D2F1EE600AB5EEC01AF1EE10FA53
:1022000001D2B1EE411AF5EEC01AF1EE10FA01D288
:10221000F1EE611AB4EEC02AF1EE10FA01DDB0EE73
:10222000420AF4EEC00AF1EE10FA01DDB0EE600AE7
:10223000B4EEC01AF1EE10FA01DDB0EE410AF4EE90
:10224000C01AF1EE10FA01DDB0EE610A70473948AC
:10225000C06F704737488030806A704770B5354C22
:10226000344D80342DED048BB0EE408A2069A0F50A
:10227000EA4130393FD0E269216B95ED141A891A91
:10228000401A00EE100AB8EEC00AC0EE010A95ED41
:10229000150A30EE800AD5ED1C0A60EE208AB0EEF9
:1022A000680A05F09BF9B0EE009A20EE090A84ED69
:1022B000120AB0EE680A05F0E9F860EE090AC4ED0A
:1022C000110A94ED121A94ED090A31EE001A30EE5B
:1022D000C00A84ED0F1A84ED100A00BFB5EEC08A63
:1022E000F1EE10FA6CD0A86F05287ED2DFE800F07E
:1022F0000E32455469009FED150A84ED120A84EDF3
:10230000110A84ED100A84ED0F0AE7E794ED0F0A35
:1023100030EE080A84ED0F0A94ED100A30EE480AF8
:1023200084ED100A94ED110A30EE080A31E0000045
:10233000000C0240000000203C0100203333333306
:102340003333D33F9A9999999999B93F0000000086
:102350006F12833A94ED100A30EE480A84ED100AA9
:1023600094ED110A30EE080A84ED110A94ED120A78
:10237000D5ED120A08EE600A20E094ED0F0A30EE67
:10238000080A84ED0F0A94ED110AD5ED120A08EE41
:10239000200A84ED110A0DE094ED0F0A30EE080AD0
:1023A00084ED0F0A94ED100AD5ED120A08EE600ACA
:1023B00084ED100A94ED120A30EE480A84ED120AF8
:1023C00013E094ED0F0AD5ED120A08EE200A84ED11
:1023D0000F0A94ED100A30EE480A84ED100A94EDCD
:1023E000110A30EE080A84ED110A04F13C0090EC69
:1023F000040AFFF7EFFED5ED100AF8EEE00A80EED2
:10240000801ABDEEC10A10EE100A6060E96F8142C9
:1024100000DDE86701206867BDEC048B70BDFD49F5
:10242000002200280A60886011D1A1F180001FED10
:10243000390AC26781ED090A47F230530B614B61DB
:1024400081ED080A82678A618A62CA6406E770477A
:10245000F048A0F1800190ED080AB5EEC00AF1EE57
:1024600010FA04D18A6F12B98269002A09D01FEDCF
:10247000490A002280ED080A8A678261016BC16106
:10248000ECE67047E3488038C0ED180A80ED190A81
:102490007047E04A1369834209D113688B4206D121
:1024A000D2ED090AF4EE400AF1EE10FA10D01160F4
:1024B000D8498039CB6F0BB90523CB67116BD1613C
:1024C00082ED090A10610020D06092ED080AC5E68D
:1024D0007047F0B4CF4BA3F180049D69854209D1C8
:1024E000D3ED080AF4EE400AF1EE10FA02D1A56F1E
:1024F0008D4225D01E6947F23055AE4218D11A6080
:102500000522E267A84213DAB5EEC00A0122F1EE15
:1025100010FA9A6202DD1A6B824207DCB5EEC00A3D
:10252000F1EE10FA04D21A6B824201DAB1EE400ADF
:102530009861A16783ED080A0020D860F0BC8DE6A1
:10254000F0BC70470A46014647F23050C1E71FED24
:10255000810A9EE770B5AF4C05462DED028BF0EE7B
:10256000608AD4ED050AB0EE418AF8EEE00AF4EE96
:10257000400AF1EE10FA0BD12068A84208D1D4ED40
:10258000060AF8EEE00AF4EE680AF1EE10FA4BD013
:10259000FDEEC00AC4ED050AD4ED0C0AF8EEE00A1F
:1025A00030EE600ABDEEC00A10EE100A1FED990A67
:1025B0002946FFF76EFF94ED0C0AF8EEC00A78EE9C
:1025C000E00AFDEEE00A10EE903A002B00DA5B42E2
:1025D000B8EEC00A642B1ADDF4EEC08AF1EE10FAF0
:1025E00001DCB1EE488A18EE100A04F0DFFD00BFEE
:1025F00004F0EFFDFDEEE80ABDEC028B2A46BDE8D3
:10260000704000EE100A002110EE900A61E738EEEB
:10261000C00A10EE100A04F0C9FD9FED7F1B53ECB9
:10262000112B04F0D1FCE3E7BDEC028B70BD7949BE
:1026300010B5886A012828DD0A6B8869801AFFF7BF
:10264000B1FD062809DA886A421C8A62B0F5FA7F71
:102650001BDDBDE810400020E1E66E4A05208B6AD4
:10266000803A0860FA2BD06701DDFB2088628A6916
:10267000086B904202DDBFEE000A01E0B7EE000AEF
:1026800081ED080ABDE81040E8E510BD70B561496C
:1026900091ED090AB5EEC00AF1EE10FA73D1A1F17D
:1026A0008002D36F002B6ED0886947F23054A0426D
:1026B00069DA91ED080AB5EEC00AF1EE10FA7DD0A4
:1026C0000D69A54260D1B5EEC00A1346F1EE10FACD
:1026D000DB6D03DD0D6BC41AAC4208DBB5EEC00A3E
:1026E000F1EE10FA17D20C6B0344A34213DD8B6A90
:1026F000032B48DA0B6BC01AFFF754FD0A288869D0
:102700000ADAC8620020D0671FEDF00A086081ED88
:10271000080A0220886279E092ED1F0AD1ED080ACA
:102720000B6BB8EEC00A984260EE200A92ED170AD1
:10273000B8EEC01A80EE810A0FDDFFF72BFD886925
:10274000096B401AFFF72EFD00EE900AB8EEE01A72
:10275000D2ED130A40EE010A0EE0FFF71BFD886977
:10276000096B401AFFF71EFD00EE900AB8EEE01A62
:10277000D2ED130A50EE410A92ED1F0AB8EEC01ACC
:1027800080EE810A42E04DE0224AB5EEC00A803A6E
:10279000D2ED160AF1EE10FA18DD01EE100AF8EE8D
:1027A000C11A01EE103AB8EEC11A41EE401AB8EE65
:1027B000E01A71EEC11A91ED0C1A00E030E0B8EEAB
:1027C000C11AF4EEC11AF1EE10FA1BD3B5EEC00A2D
:1027D000F1EE10FA1AD201EE100AF8EEE00AF8EE65
:1027E000C11A01EE103AB8EEC11A41EE401A31EEAC
:1027F000A01AD1ED0C0AF8EEE00AB4EEE01AF1EE00
:1028000010FA03DD096B401AFFF78BFCBDE870403E
:1028100024E50000800000207B14AE47E17A743F7D
:10282000C869EFE770BDFE49A1F180008A6A022AFB
:102830000CDA9FEDFC0A002381ED090A81ED080AFC
:1028400047F2305283670A61C1E90523CB685B1CFC
:10285000CB60C26EF24880389342806E01DBCA6062
:10286000C96C2EE4EE4AD3685B1CD360834206DD5C
:10287000A2F18000C36F1944C1670020D060704787
:1028800070B5FFF737FCE64C2063FFF7D0FEA4F1EC
:1028900080052268E86F4FF0FF31002A0BDD90427F
:1028A0000ED006DA616888420ADAFFF77FFC02215F
:1028B00004E0A06B02E000283CDDA068FFF7D2FF37
:1028C000D4E90C01814203D0FFF7E0FE206B606386
:1028D000686F002831D095ED1F0AD4ED120AB8EECA
:1028E000C00A20EE200AFFF70AFC95ED1F0AD4ED7E
:1028F000110A0346B8EEC00A20EE200AFFF7FFFBDC
:1029000095ED1F0AD4ED100A0246B8EEC00A20EE7B
:10291000200AFFF7F4FB95ED1F0AD4ED0F0A0146DC
:10292000B8EEC00A20EE200AFFF7E9FBBDE87040D0
:10293000FFF76EBBBDE8704075E770BD2DE9F05F35
:10294000B749BC318878401FF52801D8012500E03F
:1029500000250879401FF52801D8012700E000274D
:10296000AF4A087802F1BC02C30652780DD543067F
:102970000BD5830609D5030607D535B12FB19306CC
:1029800003D5BDE8F05F022049E5530702D43226A3
:10299000142403E0D20717D01E260A248B46DFF842
:1029A0008082C10647F23059A8F1800A4FEA40619F
:1029B0000DD400294DDA81064FEA006024D50028A5
:1029C000314627DA00202EE00A260724E6E7002910
:1029D0004FEA806109DB00294FEA00601CDA002819
:1029E00031461FDA4FF4E1601DE000294FEA006034
:1029F00005DB00282DDA31464FF4617013E0002822
:102A00001DDB314688480EE0002822DA31464FF4BB
:102A1000E17008E0854806E000281ADA314640F205
:102A2000465000E08248FFF792FD9BF80000C10687
:102A30000FD541060DD581060BD5000609D54DB938
:102A40005FB1D8F81010494507D00520FFF7E7FC23
:102A500003E015B1FFF7FCFC31E09BF80210012206
:102A60005846052912D24378DB070FD0D8F810104A
:102A7000494504D031460020BFEE080A14E08AF828
:102A80000020234662421046194616E0FA291CD956
:102A90009BF80100C00718D0D8F81010494506D09F
:102AA00031460020B7EE080AFFF74CFD07E08AF830
:102AB00000206342224619461046FFF7A9FA00217A
:102AC0008AF80010BDE8F05FC2E402231A461946F6
:102AD0001846F2E730B55248564D1424436E591C3F
:102AE000416601468A6E0021142B03D22B881A44BA
:102AF000826604E0B2FBF4F2416682678166C36ECF
:102B00005A1CC266464A142B126F02D2E98911443C
:102B100003E0B2FBF4F2C267C166016730BD70B575
:102B20003F4C454EBC344FF480756078C00604D4E9
:102B300001222946304601F0C3F96078400616D4D8
:102B400000222946304601F0BBF901223B4D940397
:102B50002146284601F0B4F94FF4FA70FDF788FFDA
:102B600021462846BDE87040002201F0A9B970BD99
:102B70007047704770B52A4C2F4EBC344FF48075A7
:102B80006078C00604D401222946304601F098F945
:102B90006078400606D429463046BDE870400022E1
:102BA00001F08EB970BD704710B5FEF7B3FEBDE8F9
:102BB0001040FEF78EBE1A490128A1F180020AD00A
:102BC00002280BD003280DD004280ED0052808D1E8
:102BD00091F8500004E091F8600001E091F85C0089
:102BE000D070704791F85800FAE791F85400F7E771
:102BF00070B50122104D54022146284601F060F9BB
:102C00000F4E4021304601F043F90128F9D000224F
:102C10002146284601F054F906480149CC3811E014
:102C200080000020000000007CFCFFFF3EFEFFFF54
:102C3000BAFAFFFFD0020020000802400004024060
:102C4000001002408039C96950F82120521C40F818
:102C50002120BDE87040A7E710B52DED028BFEF7EF
:102C600038FE0221FE4801F013F9012826D0642025
:102C70001FED148AB0EE480AB0EE401AF0EE400A9A
:102C8000FFF768FC4FF4487403E000BFFFF7AEF9AC
:102C900018B9FDF7D3FEA042F8DBFEF71AFE1420A8
:102CA000FDF7E6FEB0EE480ABDEC028BB0EE401A2E
:102CB000BDE81040F0EE400A1E204BE4BDEC028B54
:102CC00010BD2DE9F041E74C2DED048BE069FFF7D5
:102CD00072FF002004F18005A070286B4FF02302E2
:102CE00000284FF000010EDAB6EE000A4FF496709D
:102CF000FFF7EFFB03E000BFFFF778F980B9286B1F
:102D00000028F9DD0CE0BEEE000A47F23050FFF774
:102D1000E0FB02E0FFF76AF910B9286B0028F9DA46
:102D20005FED408A0A20B0EE680AB0EE401AF0EE7D
:102D3000400AFFF70FFC4FF47A7500BFFDF77EFEE7
:102D4000A842FBDB0221C64801F0A2F84FF4FA7753
:102D50009FEDC59A9FEDC58AC54DC64E0128B6EEBA
:102D6000001AF9EE080A4FF014004FD0DFEDC29AB6
:102D7000B0EE690AFFF7EEFB0220FFF750FB384682
:102D8000FDF776FEB6EE001AF9EE080A0520B0EE61
:102D9000690AFFF7DFFB0220FFF741FBFFF704FFA3
:102DA000B6EE001AF9EE080A0F209FEDB40AFFF7FD
:102DB000D1FB3220FDF75CFEB6EE001AF9EE080AF0
:102DC0000520B0EE490AFFF7C5FB0220FFF727FBFD
:102DD000FFF7EAFEB0EE681AF9EE080A1920B0EE25
:102DE000480AFFF7B7FB00BFFDF728FEE1788842ED
:102DF000FADB0220FFF713FBB0EE681AF9EE080ABF
:102E00000520B0EE480AFFF7A5FB5EE0DFED9C8AE7
:102E1000B0EE680AFFF79EFB0220FFF700FB384682
:102E2000FDF726FEB6EE001AF9EE080A0520B0EE10
:102E3000680AFFF78FFB0220FFF7F1FAFFF7B4FEF5
:102E4000B6EE001AF9EE080A0F209FED8E0AFFF782
:102E500081FB3220FDF70CFEB6EE001AF9EE080AEF
:102E60000520B0EE490AFFF775FB0220FFF7D7FAFD
:102E7000FFF79AFEDFED848AF9EE080A1920B0EE1A
:102E8000681A9FED820AFFF765FB00BFFDF7D6FDCC
:102E9000E1788842FADB0220FFF7C1FAB0EE681A47
:102EA000F9EE080A0520B0EE480AFFF753FB02E0EE
:102EB000287800070FD52021304600F0E9FF0128CF
:102EC000F6D008E02878000705D52021304600F02C
:102ED000DFFF0128F6D0BDEC048B0220BDE8F041F5
:102EE000FFF79DBA2DE9F04102212DED028B5C48E0
:102EF00000F0CEFF0026664D01271FEDB68A594C23
:102F00000128E0690AD0FFF756FE2868DFF86481DF
:102F1000012876D0E069012872D093E0FFF74BFEDC
:102F2000286801281FD101210020FDF728FDC0B22B
:102F30006070E169012907D0052907D005EB8101FF
:102F40004A68032A04D004E0677016E066701DE04A
:102F500020B151F8041C032902D004E0677002E09C
:102F6000012800D16670E069002801DD617869B14F
:102F7000062829DA6078012826D1E06955F8200072
:102F8000012825D0032823D0E06934E0E06955F812
:102F90002000012803D0032801D0E06911E0F0EE01
:102FA000480A1420B0EE601A9FED330AFFF7D2FAF8
:102FB000FDF744FDE17814318842F9DBE069401EF9
:102FC000E061012800D16770BDEC028BBDE8F081A3
:102FD000F0EE480A1420B0EE601A9FED290AFFF7C0
:102FE000B9FA00BFFDF72AFDE17814398842F9DB10
:102FF000E069401EE0610528E6D16670E4E700E084
:1030000011E001210020FDF7BAFCC1B26170E06956
:10301000012807D0052808D005EB80004268032A64
:1030200005D006E06670667017E067703AE0012927
:1030300004D050F8040C032802D003E0667001E0CD
:1030400001B96770E069002804DD6178012929D0A1
:103050000628B9DA60780028B6D1E0691AE00000E5
:1030600000040240000000200000E14400007A4417
:103070003C01002000100240000061C400C0DAC41E
:103080000000614400C0DA449A99993E00007AC475
:10309000EC01002055F8200001283DD003283BD04A
:1030A000E06961E055F82010032903D1401EE0617A
:1030B000FFF781FDE06955F82000012803D00328BF
:1030C00001D0E06924E0BEEE001AFAEE040A1420F2
:1030D0009FEDF70AFFF73EFAFDF7B0FCE1781431F7
:1030E0008842F9DBBEEE001AFAEE040A05209FEDD5
:1030F000F10AFFF72FFA45462021284600F0C8FEC6
:103100000128F9D00220FFF78AF9E069401EE0614A
:1031100001283FF472AF57E75FED248AB0EE481AFA
:10312000F1EE080A1420B0EE680AFFF713FA00BFA8
:10313000FDF784FCE17814398842F9DBB0EE481AD7
:10314000F1EE080A0520B0EE680AFFF703FA4546DB
:103150002021284600F09CFE0128F9D00220FFF72C
:103160005EF9E069401CE06105283FF42CAF2BE7D5
:103170002DE9F047D04D0126D04C686901281DD1BA
:10318000686801281AD1A868012817D1E8680128C1
:1031900014D12869012811D12E6005F11801A6610A
:1031A000A06951F820202AB155F82020032A01D027
:1031B000E06103E0401CA0610528F1DDC04F04215F
:1031C000384600F065FE012809D00421384600F099
:1031D0005FFE4FF000094FF0030810B10CE0A6703D
:1031E00023E00821384600F053FE28B94FF400418F
:1031F000384600F04DFE28B10421384600F048FE64
:1032000018B107E084F8029015E00821384600F074
:103210003FFE78B10421384600F03AFE002807D17D
:10322000286801280BD084F80290E06945F82060F6
:10323000BDE8F087A670E16945F82180F8E7E0690C
:10324000022145F820102063A670F1E710B5FFF7C2
:103250008FFF9A488078012802D1BDE81040C7E46A
:1032600010BD70B5FFF784FF4FF47A74934D06E0FC
:10327000FFF738FE2046FDF7FBFBFFF779FFA87844
:103280000028F5D070BD10B5FEF723FB8B4C012054
:10329000E061FFF716FDFFF7E4FFE069206210BD73
:1032A00010B5FEF716FB854C0220E061FFF709FD23
:1032B000FFF7D7FFE069206210BD10B5FEF709FBEC
:1032C0007E4C0320E061FFF7FCFCFFF7CAFFE069DA
:1032D000206210BD10B5FEF7FCFA784C0420E061C6
:1032E000FFF7EFFCFFF7BDFFE069206210BD10B5EE
:1032F000FEF7EFFA714C0520E061FFF7E2FCFFF703
:10330000B0FFE069206210BD2DE9F05F6B4F002532
:1033100007F580747D62BD627D639620BD63E074B5
:10332000A574DFF8A0B101225102584600F0C8FD93
:10333000DFF89481012240214646404600F0C0FD5E
:103340000221304600F0A4FD012869D05C4EB94648
:10335000C2465F4641F288381021304600F098FDA1
:1033600001281AD04FF40051304600F091FD012899
:1033700013D0D9F83400012852D0E57400224FF45C
:103380000071384600F09CFD00224021504600F0BC
:1033900097FD4046FDF76CFBDEE70221304600F06A
:1033A00077FD0128F9D00121304600F071FD012898
:1033B000F3D04FF4807BB84601225946404600F0D6
:1033C0007FFD00224021504600F07AFDE574002286
:1033D0004021504600F074FD01225946384600F065
:1033E0006FFD4FF4FA60FDF743FBFE27E774A57409
:1033F0004FF4805A5146304600F04AFD0128F9D07A
:1034000000224FF40071404600F05AFDE774012697
:10341000A6744FF47A70FDF72BFBE574C9F834609D
:10342000BDE8F05F6420FDF723BB2DE9F05F0221CA
:103430002DED068B244800F02BFD1FEDF0AADFEDEB
:1034400023AADFED238A4FF4FA6A5FEDF99A1B4C49
:10345000DFF86C909FED1F8A80344FF47A6B4FF445
:10346000804640F62E1540F6B83847F2305701280E
:103470000DD0FFF799FBB0EE699AB0EE681AFEEE38
:10348000000A9620B0EE490AFFF764F8F7E0FFF76C
:103490008BFBB0EE689AF0EE698AB0EE491AFEEE48
:1034A000000A9620B0EE680AFFF754F817E0000013
:1034B0000000704400808944EC01002000000020DE
:1034C000001002400008024000040240CDCC4CBE77
:1034D000CDCC4C3E00000000FEF780FD18B9FDF792
:1034E000ADFA5045F8DBB0EE491AF6EE000A782046
:1034F000B0EE680AFFF72EF803E000BFFEF76EFD9E
:1035000018B9FDF79BFA5845F8DB46214FF4E16006
:10351000FFF71DF84FF4965A03E000BFFEF75EFD7B
:1035200018B9FDF78BFA5045F8DBB0EE491AF6EE04
:10353000000A1420B0EE4A0AFFF70CF8B2464E46D5
:1035400003E000BFFEF74AFD28B95146304600F0BF
:103550009FFC0128F6D00220FEF761FFFFF724FB55
:10356000B0EE6A1AF6EE000A32209FEDF70AFEF777
:10357000F1FF40F6746602E0FEF730FD18B9FDF782
:103580005DFAB042F8DB0220FEF749FFFEF7A1F931
:10359000F0EE480A3220B0EE601AB0EE680AFEF78C
:1035A000D9FF02E0FEF71AFD18B9FDF747FAA84265
:1035B000F8DB0220FEF733FFC820FDF759FA962208
:1035C0000021B6EE000A3E463846FEF782FF4FF471
:1035D000617502E0FEF702FD10B9206BA842F9DB2D
:1035E00014220021BEEE000AB1463046FEF771FFFC
:1035F00040F27A3603E000BFFEF7F0FC10B9206B12
:10360000B042F9DCFFF7D0FAB0EE480A3220B0EE53
:10361000401AF0EE400AFEF79DFF474603E000BF68
:10362000FEF7DCFC18B9FDF709FAB842F8DB022016
:10363000FEF7F5FEC820FDF71BFA96220021B6EE34
:10364000000A4F464846FEF744FF02E0FEF7C6FC7C
:1036500010B9206BA842F9DB14220021BEEE000A4B
:103660003846FEF736FF03E0FEF7B8FC002802D12B
:10367000206BB042F8DCCDE0FEF7B0FC18B9FDF7E6
:10368000DDF95045F8DBB0EE681AF6EE000A782056
:10369000B0EE490AFEF75EFF03E000BFFEF79EFCB6
:1036A00018B9FDF7CBF95845F8DB46214FF4E16036
:1036B000FEF74DFF4FF4965A03E000BFFEF78EFC75
:1036C00018B9FDF7BBF95045F8DBB0EE681AF6EE15
:1036D000000A1420B0EE4A0AFEF73CFFB2464E46FE
:1036E00003E000BFFEF77AFC28B95146304600F0EF
:1036F000CFFB0128F6D00220FEF791FEFFF754FA27
:10370000B0EE6A1AF6EE000A32209FED900AFEF73C
:1037100021FF40F6746602E0FEF760FC18B9FDF781
:103720008DF9B042F8DB0220FEF779FEFEF7D1F802
:10373000F0EE480A3220B0EE601AB0EE490AFEF709
:1037400009FF02E0FEF74AFC18B9FDF777F9A84235
:10375000F8DB0220FEF763FEC820FDF789F9962208
:103760000021BEEE000A3D463846FEF7B2FE784E16
:1037700003E000BFFEF732FC10B9206BB042F9DC69
:1037800014220021B6EE000AA9462846FEF7A1FE43
:103790006F4D0A3503E000BFFEF720FC10B9206B27
:1037A000A842F9DBFFF700FAB0EE480A3220B0EE8B
:1037B000401AF0EE400AFEF7CDFE474603E000BF98
:1037C000FEF70CFC18B9FDF739F9B842F8DB022016
:1037D000FEF725FEC820FDF74BF996220021BEEE2C
:1037E000000A4F464846FEF774FE02E0FEF7F6FB7D
:1037F00010B9206BB042F9DC14220021B6EE000AA9
:103800003846FEF766FE02E0FEF7E8FB10B9206BD3
:10381000A842F9DB0220FEF702FEBDEC068B642015
:10382000BDE8F05FFDF724B910B54A4C206B0128C4
:1038300001D1FFF728FD206B022801D1FFF730FDF1
:10384000206B032801D1FFF738FD206B042801D13C
:10385000FFF740FD206B052802D1BDE8104046E58A
:1038600010BD3C48006A052808D0042807D003286A
:1038700006D0022805D0012804D138E52AE51CE548
:103880000EE500E57047FFF73FFD324CE069012887
:1038900008D0022809D003280AD004280BD0052814
:1038A0000CD00DE0FFF7EFFC0AE0FFF7F9FC07E0B2
:1038B000FFF703FD04E0FFF70DFD01E0FFF717FD43
:1038C000FFF756FC07E000BFFFF752FCA078012885
:1038D00010D0FFF707FBA0780028F5D00025A570D1
:1038E000FFF7BAF9FFF710FD206B30B1FFF79CFF2F
:1038F00025630CE0FFF77CF9F0E7FFF7B2FF06E085
:10390000FFF736FCA078012806D0FFF7EBFAA07885
:103910000028F5D0A570E5E7FFF76AF9FFF79CF9F5
:10392000F5E70C490120C86102210B4800F0B0BA4C
:1039300008490220C861704706490320C8617047E2
:1039400004490420C861704700007AC400007A442A
:103950007CFCFFFF000000200004024042490520DB
:10396000C861F0E7EFE760E51120FEF7FFF90F20EF
:1039700002F0E1FEF8E700BFFFF7FCF80A2002F0D2
:10398000DAFEF9E7384C00BFFFF7A4F8207808B951
:10399000FEF776FF052002F0CEFEF5E71FB5FDF736
:1039A00073F8FDF7A4F8FDF7D9F9FDF77AFAFDF7FA
:1039B00033FBFDF7A6FBFDF71AF94FF4E13420467F
:1039C000FDF762FC2046FDF7E1FC2046FDF764FDB3
:1039D000E000FDF780FEFDF789FFFDF77AFF002488
:1039E0004FF4807500940194029423462A461FA147
:1039F0002348039402F0C8FC00940194029400232D
:103A00002A4620A12448039402F0BEFC234C0B2537
:103A1000154E07E0FEF792FF2078000702D4F5620A
:103A2000FFF772FCA0797328FCD1F3E77FB500247F
:103A30004FF4807500940194029423462A4618A1FD
:103A40001A48039402F0A0FC00940194029400230D
:103A50002A4617A11948039402F096FC02F0BAFF17
:103A600004B0002070BD0000000000207461736B82
:103A7000526F626F74416E616C7974696373000098
:103A8000853900087461736B446965754B686965B5
:103A90006E436F4361750000773900083C010020D8
:103AA0007461736B4D61696E000000009D39000800
:103AB0007461736B4779726F000000006939000808
:103AC0000CB500205149019000900A6842F4803200
:103AD0000A604FF4A0630A6802F400320092019A6F
:103AE000521C0192009A12B9019A9A42F3D10A68C3
:103AF000920334D50120009044484030026842F0DF
:103B0000805202604248026842F4804202603F48AC
:103B1000083002680260026842F4004202600268F3
:103B200042F4A0520260031F3A4A1A600A6842F047
:103B300080720A600A689201FCD5374A40F205613A
:103B40001160016821F003010160016841F0020188
:103B500001600168C1F381010229FAD10CBD009016
:103B60000CBD2A4810B5016841F001010160274AE7
:103B70000021083211600268284B1A400260031DC0
:103B8000274A1A60026822F4802202601F480C3023
:103B90000160FFF795FF23494FF00060086010BDFA
:103BA00070B51A4C083420681F4A10F00C011F48E9
:103BB00004D05510042903D0082903D002601BE06B
:103BC000056019E01149091D0B68C3F380560B68A5
:103BD00003F03F0316B1B5FBF3F201E0B2FBF3F2E1
:103BE0000B680968C3F388135A43C1F30141491CA8
:103BF0004900B2FBF1F1016021680C4AC1F30311E5
:103C0000121D515C0268CA40026070BD003802405B
:103C10000070004008544007003C0240FFFFF6FEE1
:103C20001030002408ED00E00024F40058010020CA
:103C30000648804706480047FEE7FEE7FEE7FEE746
:103C4000FEE7FEE7FEE7FEE7FEE7FEE7633B000870
:103C5000890100082849084328490860704730B5A1
:103C60000F22C47801780123FCB1244C246801F1AF
:103C7000E02104F4E064C4F5E064C4F30724C4F173
:103C80000405E2404478AC408578154025432A017C
:103C900081F80024007800F01F018B40400980006B
:103CA00000F1E020C0F8003130BD01F01F0083407A
:103CB0004809800000F1E020C0F8803130BD104A92
:103CC000114001430D48001F016070470B4A121D4F
:103CD0000029116801D0014300E081431160704761
:103CE0004FF0E0210428086903D020F004000861A7
:103CF000704740F00400FAE70000FA050CED00E020
:103D000080FFFF1F7C4910B5884206D1012108467B
:103D100000F058FA002101204FE07849884206D18E
:103D20000121022000F04EFA0021022045E07449F2
:103D3000884206D10121042000F044FA0021042029
:103D40003BE07049884206D10121082000F03AFA90
:103D50000021082031E06C49884206D10121102061
:103D600000F030FA0021102027E06849884206D18F
:103D70000121202000F026FA002120201DE06449C6
:103D8000884206D10121402000F01CFA0021402089
:103D900013E06049884206D10121802000F012FA28
:103DA0000021802009E05C4988420AD18415012164
:103DB000204600F007FA00212046BDE8104000F040
:103DC00001BA10BDF0B50023012403270D6804FAE1
:103DD00003F21540954242D1D0F800C05E0007FAC8
:103DE00006F52CEA050CC0F800C091F804C0D0F824
:103DF00000E00CFA06FC4CEA0E0CC0F800C091F88A
:103E000004C0BCF1010F02D0BCF1020F1FD1D0F8E9
:103E100008C02CEA050CC0F808C091F805C0D0F81D
:103E200008E00CFA06FC4CEA0E0CC0F808C0D0F80A
:103E300004C02CEA020CC0F804C0426891F806C025
:103E40000CFA03FC1FFA8CFC42EA0C024260C268C6
:103E5000AA43C260CA79C568B2402A43C2605B1CEB
:103E6000102BB3D3F0BD4FF6FF710160002101713B
:103E700041718171C171704708B541F4803200927F
:103E8000C261C1610099C161C169C069009008BD8A
:103E90000246002012690A4200D0012070470069E2
:103EA00080B270470246002052690A4200D00120C9
:103EB0007047406980B27047018370474183704703
:103EC0000AB101837047418370474161704742697D
:103ED0004A40426170474B07DB0E9A40C90810B553
:103EE00000EB8100016A0F249C40A1430162016A3A
:103EF0001143016210BD00000000024000040240B6
:103F000000080240000C0240001002400014024071
:103F100000180240001C024000200240EA480168EC
:103F200041F001010160E84A002108321160026895
:103F3000E64B1A400260031DE54A1A60026822F44B
:103F400080220260E0480C3001607047DE490022A8
:103F5000891C0A7008707047024600205109012927
:103F60000CD002290CD0D8497431096802F01F0224
:103F7000012393400B4200D001207047D249F4E75F
:103F8000D1497031F1E718B500204FF4A0640090DA
:103F90003120FFF7E1FF0099491C0091A14201D0B7
:103FA0000028F5D03120FFF7D7FF002800D00120EE
:103FB00018BDC5490A6822F0F80242EAC00008604C
:103FC0007047C44908607047BF49002270310A70C9
:103FD0000A70012802D0042801D10520087070471A
:103FE000BD490860704741EA82115A0810B5BB4BC1
:103FF000029C03EB02421143014341EA0460B249CF
:10400000091D086010BDB34908667047800140EA89
:104010000170AD49843108607047AE4988667047C9
:10402000AC49C8647047A84A08321368084323F0B3
:10403000EC63184310607047A34A083213680843C2
:1040400023F078431843106070479F4A0832116884
:1040500021F003010143116070479B48083000685C
:1040600000F00C007047984A0832116821F0F00106
:10407000014311607047944A0832116821F4E051FD
:10408000014311607047904908310A6822F4604288
:1040900042EAC0000860704770B58B4A0832116868
:1040A0008F4C11F00C0104D06610042903D00829AC
:1040B00003D004601BE0066019E08349091D0B680A
:1040C000C3F380550B6803F03F0315B1B6FBF3F360
:1040D00001E0B4FBF3F30C680968C4F3881463438C
:1040E000C1F30141491C4900B3FBF1F101601168C2
:1040F0000F2303EA11117B4B5C5C0168E1404160D6
:104100001468072505EA94241C5D21FA04F48460F0
:10411000126805EA52329A5CD140C16070BDC0F3AA
:104120000121032908D1684A0832116821F4F813E3
:104130006D49014019431160634970310A68C0F349
:104140000B0002430A6070476349443908607047B6
:1041500061494039086070475E49C1F85C017047A9
:10416000594A30320029116801D0014300E08143EF
:1041700011607047544A34320029116801D001435C
:1041800000E08143116070474F4A383200291168BE
:1041900001D0014300E08143116070474A4A403238
:1041A0000029116801D0014300E08143116070478C
:1041B000454A44320029116801D0014300E081439F
:1041C00011607047404A10320029116801D0014344
:1041D00000E08143116070473B4A143200291168A6
:1041E00001D0014300E0814311607047364A183224
:1041F0000029116801D0014300E08143116070473C
:10420000314A20320029116801D0014300E0814386
:10421000116070472C4A24320029116801D00143F3
:1042200000E0814311607047274A5032002911682D
:1042300001D0014300E0814311607047224A5432AB
:104240000029116801D0014300E0814311607047EB
:104250001D4A58320029116801D0014300E0814312
:1042600011607047184A60320029116801D001437B
:1042700000E0814311607047134A643200291168DD
:1042800001D0014300E08143116070470E4A0D32B6
:104290000029117801D0014300E08143117070477B
:1042A00009487430016841F080710160704701462F
:1042B000054A00200C3212680A4200D001207047E3
:1042C00001490E310870704700380240FFFFF6FECA
:1042D0001030002400004742800E47420000FFFFDC
:1042E0000024F4006C010020FFFCFF0F10B5012139
:1042F0000C022046FFF78EFF2046BDE8104000214B
:10430000FFF788BF30B54268C84B0C791A400B687C
:1043100042EA0422134343608268C54B4D791A4038
:10432000D1E9034323438C6844EA45042343134300
:104330008360C26A097D22F47002491EC9B242EA52
:104340000151C16230BD0021016001714171816084
:10435000C1600161012101757047B64B10B5D3F8FA
:104360000423B5490A40D0E900142143D0E90240B2
:10437000044321431143C3F8041310BD002101601D
:1043800041608160C16070470029816802D041F0BE
:10439000010101E021F00101816070474268A74BF3
:1043A0001A400A4342607047416282627047426825
:1043B00022F01F020A43426070479E490028D1F84C
:1043C000040302D040F4000001E020F40000C1F832
:1043D0000403704797490028D1F8040302D040F441
:1043E000800001E020F48000C1F80403704770B53C
:1043F000072409290AD9C568A1F10A0606EB460671
:10440000B440A543B3401D43C56007E0056901EB17
:104410004106B440A543B3401D4305611F23072A4D
:1044200009D2446B521E02EB820293409C4391409E
:104430000C43446370BD0D2A09D2046BD21F02EBFA
:10444000820293409C4391400C43046370BDC46A54
:104450000D3A02EB820293409C4391400C43C462AC
:1044600070BD816841F08041816070470146002045
:104470008968490200D5012070470029816802D06F
:1044800041F4806101E021F480618160704700297E
:10449000816802D041F0020101E021F00201816057
:1044A00070474268491E22F4604242EA413141604D
:1044B00070470029416802D041F4006101E021F415
:1044C000006141607047C06C80B270475948D0F8B5
:1044D000080370470029816802D041F4807101E02F
:1044E00021F48071816070470029816802D041F415
:1044F000007101E021F40071816070474D4900288E
:10450000D1F8040302D040F4005001E020F4005040
:10451000C1F80403704770B5072409290AD9C56892
:10452000A1F10A0606EB4606B440A543B3401D437D
:10453000C56007E0056901EB4106B440A543B340FF
:104540001D430561836BC3F30154121B921C02EBE4
:1045500082041F22A2409343A1400B43836370BD9A
:10456000826B491E22F4401242EA01518163704776
:1045700008B508440090026008BD826822F47022E9
:104580000A4382607047826822F440120A438260C4
:104590007047816841F480018160704701460020C6
:1045A0008968490200D5012070470029416802D07E
:1045B00041F4806101E021F480614160704700298D
:1045C000416802D041F4805101E021F48051416002
:1045D000704708B5084428300090006880B208BDD4
:1045E00001238B4041680AB1194300E099434160BF
:1045F00070470246002012680A4200D0012070472E
:10460000C9430160704730B50246002053680C0A68
:1046100001258D4011682B40214202D0002B00D093
:10462000012030BD6FEA112101607047FFFEFFFCE1
:10463000FDF7FFC000200140E030FCFFFFFD3FFF21
:104640002DE9F043016821F00101016000210160C2
:1046500041608160C160016121214161B849B84A6E
:104660003D251039904202D18D60BDE8F083B44AF7
:104670004FF474661832904201D18E60F5E7B04A6B
:104680004FF474173032904201D18F60EDE7AC4A9D
:104690004FF0746C4832904202D1C1F808C0E4E790
:1046A000A74BA84A6033984201D1CA60DDE7A44C09
:1046B000A54B7834A04201D1CB60D6E7DFF88082E9
:1046C000A24C08F19008404501D1CC60CDE7DFF85D
:1046D00070824FF03D5908F1A808404502D1C1F859
:1046E0000C90C2E79A49DFF868820839404501D149
:1046F0000D60BAE7964D1835A84201D10E60B4E7B7
:10470000934D3035A84201D10F60AEE7904D48354A
:10471000A84202D1C1F800C0A7E78D4D8C49603591
:10472000091FA84201D10A609FE7894A7832904266
:1047300001D10B6099E7864A9032904201D10C601A
:1047400093E7834AA83290428FD1C1F800908CE75A
:1047500030B503687F4ACC6813400A682243D1E928
:1047600005452C432243CC6922430C6A22434C6A00
:1047700022438C6A22434C6B22438C6B22431A43A4
:104780000260426922F00703D1E90B2422431A4355
:1047900042610A6942604A6882608968C16030BDCE
:1047A0000021016041608160C160016141618161FE
:1047B000C161016241628162C162016341638163DF
:1047C00070470029016802D041F0010101E021F0A9
:1047D0000101016070470029016802D041F40041E5
:1047E00001E021F40041016070470029016802D016
:1047F00041F0200101E021F020010160704741609B
:104800007047406880B27047002A026802D042F4C4
:10481000002201E022F400220260016170470029B9
:10482000016802D041F4802101E021F4802101607F
:1048300070470AB101617047C160704701460020AE
:104840000968090300D50120704701460020096866
:10485000C90700D001207047406900F03800704758
:1048600002463B4B00209A4202D2354A103A01E000
:10487000374A103A8B0001D5526800E01268364B77
:104880001A400A4200D001207047314A904202D2B9
:104890002B48103801E02E4810382F4A8B0001EACF
:1048A000020101D5C1607047816070470B0607D5D2
:1048B000436912B143F0800301E023F080034361B8
:1048C000802908D0002A026801F01E0101D00A43A5
:1048D00000E08A430260704730B51D4A00249042D0
:1048E00002D2174B103B01E0194B103B1B4A1142FF
:1048F00005D01E2202EAD12502682A4002E0406962
:1049000000F08002880001D5586800E01868124B5A
:104910001840084201D002B10124204630BD0C4AA3
:10492000904202D20648103801E0094810380A4A7D
:104930008B0001EA020101D5C160704781607047B8
:10494000106002403D000020400F002000003D208C
:10495000106402403F801CF07D0F7D0F3C0F3C0F28
:10496000374900200860091D0860091D0860091DFD
:1049700008603349334814310860704730B5304916
:104980008379026853B30B6893430B600A1D136865
:104990000468A343136002790A441368046823433C
:1049A0001360274A083213680468A3431360131D79
:1049B0001C680568AC431C604479102C05D0214468
:1049C0000A68006802430A6030BD11680468214328
:1049D0001160196800680143196030BD007908440E
:1049E00001689143016030BD0021016001710C221A
:1049F000427181717047124910310A6802430A609E
:104A0000704701460E4A0020143212680A4200D054
:104A1000012070470A49143108607047084A01466E
:104A200000201268064B0A4014331B680B4202D068
:104A3000002A00D0012070470149143108607047F6
:104A4000003C0140FFFF7F00FE4910B5884206D1BF
:104A500001210846FFF7DEFB002101205BE0B0F1F9
:104A6000804F09D0F84988420DD101210220FFF77B
:104A7000C7FB0021022070E001210846FFF7C0FBC0
:104A80000021012069E0F149884206D1012104207A
:104A9000FFF7B6FB002104205FE0ED49884206D114
:104AA00001210820FFF7ACFB0021082055E0E9496F
:104AB000884206D101211020FFF7A2FB002110201F
:104AC0004BE0E549884206D101212020FFF798FB01
:104AD0000021202041E0E149884206D10121022045
:104AE000FFF798FB0021022015E0DD49884202D142
:104AF00001210C040AE0DB49884202D101214C0467
:104B000004E0D94988420AD101218C042046FFF7EC
:104B100081FB00212046BDE81040FFF77BBBD34955
:104B2000884206D101214020FFF76AFB0021402086
:104B300013E0CF49884206D101218020FFF760FBB6
:104B40000021802009E0CB4988420AD18415012147
:104B50002046FFF755FB00212046BDE81040FFF737
:104B60004FBB10BD30B50288B64BBC4C98420DD03F
:104B7000A0420BD0B0F1804F08D0B34DA84205D071
:104B8000B24DA84202D0B24DA84203D122F0700526
:104B90004A882A43AF4DA84206D0AF4DA84203D061
:104BA00022F440750A892A4302804A68C2620A8850
:104BB0000285984201D0A04201D1897A0186012163
:104BC000818230BD4FF0FF314160002101800181C1
:104BD000418081727047018582827047028822F08D
:104BE00070020A430280704741627047C162704799
:104BF000406A7047008D70470029018802D041F05B
:104C0000020101E021F002010180704700290188C2
:104C100002D041F0040101E021F00401018070475D
:104C20000029018802D041F0800101E021F08001DB
:104C300001807047028822F00802028002880A433D
:104C400002807047028822F44072028002880A4380
:104C5000028070470029018802D041F0010101E083
:104C600021F001010180704730B5028C22F0010271
:104C70000284028C8388048B22F0020224F07305E4
:104C80000C882C438D8915434A882A436D4DA842D0
:104C900002D0724DA8420DD122F00805CA8923F432
:104CA00040732A4322F004058A882A430D8A1D4353
:104CB0004B8A2B438380048389684163028430BD1F
:104CC00070B5028C22F010020284028C8488038B5F
:104CD0000D8823F4E6464FF6FF7303EA05253543B6
:104CE0008E8922F0200203EA061616434A8803EA58
:104CF00002123243534EB04202D0584EB04215D148
:104D000022F08006CA8924F4406403EA0212324386
:104D100022F040068A8803EA021232430E8A03EA2E
:104D2000860626434C8A03EA840434438480058340
:104D300089688163028470BD70B5028C22F4807230
:104D40000284028C8488838B0D8823F073031D43B7
:104D500022F400738E894FF6FF7202EA06261E4384
:104D60004B8802EA03233343364EB04202D03B4E17
:104D7000B04215D123F40066CB8924F4405402EAF2
:104D80000323334323F480668B8802EA03233343EF
:104D90000E8A02EA061626434C8A02EA04143443B9
:104DA000848085838968C163038470BD70B5028C7B
:104DB00022F480520284048C8288838B0D8823F431
:104DC000E6464FF6FF7303EA0525354324F4005603
:104DD0008C8903EA043434434E8803EA06362643BA
:104DE000184CA04202D01D4CA04205D122F48044B0
:104DF0000A8A03EA821222438280858389680164D9
:104E0000068470BD002101804180818081608181A4
:104E1000C18101824182704730B50124058C00F1C7
:104E200018038C40A543058431B308292CD0091FF1
:104E3000C1F34E001844016848F6FF731940016041
:104E400001681AE000000140000400400008004032
:104E5000000C00400010004000140040000401401D
:104E6000004001400044014000480140001800405B
:104E7000001C00400020004006E04FF6FF7303EAEC
:104E800002221143016030BD03EB510001684FF66F
:104E90008F73194001600168F3E7416370478163D4
:104EA0007047C163704701647047028B22F0700243
:104EB0000A4302837047028B4FF6FF7322F4E042ED
:104EC00003EA0121114301837047828B22F07002B3
:104ED0000A4382837047828B4FF6FF7322F4E042CD
:104EE00003EA0121114381837047028B22F00802FB
:104EF0000A4302837047028B4FF6FF7322F400626D
:104F000003EA0121114301837047828B22F00802DA
:104F10000A4382837047828B4FF6FF7322F400624C
:104F200003EA0121114381837047028B22F00402BE
:104F30000A4302837047028B4FF6FF7322F48062AC
:104F400003EA0121114301837047828B22F004029E
:104F50000A4382837047828B4FF6FF7322F480628C
:104F600003EA0121114381837047028B22F0800202
:104F70000A4302837047028B4FF6FF73C2F30E029F
:104F800003EA0121114301837047828B22F08002E2
:104F90000A4382837047828B4FF6FF73C2F30E027F
:104FA00003EA0121114381837047028C22F002023F
:104FB0000A4302847047028C22F008020A430284EA
:104FC0007047028C4FF6FF7322F0200203EA0111B2
:104FD000114301847047028C4FF6FF7322F0800268
:104FE00003EA0111114301847047028C4FF6FF73ED
:104FF00022F4007203EA0121114301847047028CFC
:105000004FF6FF7322F4006203EA01211143018489
:105010007047028C4FF6FF7322F4005203EA01310D
:1050200011430184704710B50123048C8B409C43CD
:105030000484038C8A401343038410BD10B50423F9
:10504000048C8B409C430484038C8A401343038468
:1050500010BD828B22F440628283828B4FF6FF73F5
:1050600003EA01210A4382837047828B22F00C02FB
:105070008283828B0A4382837047028B22F44062D0
:105080000283028B4FF6FF7303EA01210A43028376
:105090007047F0B5048C24F010040484078B068C50
:1050A0004FF6FF7404EA011527F4734704EA03314D
:1050B000394304EA02220A4326F0A001294341F0C1
:1050C000100102830184F0BD028B22F00C020283E6
:1050D000028B0A43028370472DE9F0410D460E888A
:1050E0004988AA882B8904460EB3042E26D0082EA0
:1050F000268C4FF6FF7028D026F480562684A78B86
:10510000268C00EA022200EA013127F473473A4371
:1051100000EA0330104326F420420A4342F480514F
:10512000A0832184E9882046BDE8F04191E700F0A2
:1051300062F9E9882046BDE8F041C5E7FFF7A9FF1D
:10514000E9882046BDE8F04197E726F4807626847A
:10515000A78B268C00EA012100EA0310104327F0F8
:10516000F307384326F420620A4342F48071A08397
:105170002184E9882046BDE8F04176E700210180DE
:10518000418001228280C180018170472DE9F04178
:105190000C46002649880746012501B90226A28847
:1051A000012A00D10225208823890028384610D002
:1051B000FFF76FFFE1883846FFF75FFF23892A4634
:1051C0003146384600F017F9E1883846BDE8F0412D
:1051D0007AE700F010F9E1883846FFF775FF238978
:1051E0002A4631463846FFF754FFE1883846BDE885
:1051F000F04142E7406B7047806B7047C06B70476F
:10520000006C704710B50A884B88CC881A438B888D
:1052100023431A430B891A434B8989891A430A434A
:10522000A0F8442010BD0021018041808180C18010
:105230000181418181817047002930F8441F02D0EB
:1052400041F4004101E0C1F30E01018070470029E3
:10525000818802D041F0040101E021F00401818045
:1052600070470029818802D041F0010101E021F05E
:10527000010181807047002A828901D00A4300E041
:105280008A43828170478182704702460020128AD9
:105290000A4200D001207047C9430182704702468C
:1052A0000020138A92890B4202EA010202D0002AEE
:1052B00000D001207047C943018270471143A0F814
:1052C00048107047002A828901D00A4300E08A43CF
:1052D000828170470029818802D041F0080101E0F5
:1052E00021F0080181807047018921F007010181C7
:1052F0007047028922F070020A430281704700B5AC
:105300000346FFF7F6FF188940F00700188100BD3B
:1053100070B516460D46602904464FF0010231462D
:105320000AD000F068F829462046FFF7E2FF2089FE
:1053300040F00700208170BDFFF7ABFEF3E730B50A
:1053400004894FF6FF7505EA03231343E4B20B43C8
:105350002343038130BD10B50446FFF7F0FF2089D9
:1053600040F07700208110BD10B50446FFF7E7FF3D
:10537000208940F48040208110BD828822F0700294
:10538000828082880A4382807047028922F0070265
:10539000028102890A4302817047028922F0800259
:1053A000028102890A430281704770B50589048B26
:1053B000068C25F007050D434FF6FC410C4040F2EA
:1053C00001110C434FF6FF7101EA031126F022068A
:1053D0001143314305810483018470BD0029818814
:1053E00002D041F0800101E021F08001818070470E
:1053F000A0F85010704770B5048C24F001040484A8
:10540000058B048C4FF6FF7606EA0313134325F051
:10541000F3052B4324F00A020A4342F001010383FF
:10542000018470BDC74910B5884206D10121102002
:10543000FEF7F0FE0021102028E0C349884202D187
:1054400001214C0410E0C149884202D101218C04A1
:105450000AE0BF49884202D10121CC0404E0BD49E1
:1054600088420AD101210C052046FEF7C9FE2046DC
:10547000BDE810400021FEF7C3BEB749884209D1FC
:1054800001212020FEF7C6FE00212020BDE81040AB
:10549000FEF7C0BE10BD7FB50446008A0D4620F45D
:1054A0004051E88808432082A08941F20C6188437A
:1054B000A9882A8911436A8902431143A181A08ADC
:1054C00020F44071A8890843A0826846FEF7E4FDF5
:1054D0009C48844202D0A048844201D1039800E055
:1054E0000298A189090400EBC00101EB00102968B2
:1054F00001D5490000E08900B0FBF1F26420B2FB65
:10550000F0F109010B096FF018056B4302EB830200
:10551000A3891D044FF0320306D503EBC202B2FB90
:10552000F0F000F0070005E003EB0212B2FBF0F030
:1055300000F00F00084320817FBD4FF41651016039
:1055400000218180C18001810C22428181817047CC
:1055500010B5028A4C8822F470630A8822438C8832
:10556000C9880C4322431A43028210BD00210180E6
:1055700041808180C18070470029818902D041F437
:10558000005101E021F4005181817047028B02F447
:105590007F420283028B0A4302837047002981897C
:1055A00002D041F4004101E0C1F30E018181704756
:1055B0000029818A02D041F4006101E021F40061F8
:1055C00081827047C1F30801818070478088C0F3F1
:1055D00008007047028A22F00F020282028A0A4300
:1055E000028270470029818902D041F0020101E066
:1055F00021F0020181817047828922F40062828158
:1056000082890A4382817047028A22F02002028244
:10561000028A0A43028270470029018A02D041F4BB
:10562000804101E021F4804101827047818941F08D
:105630000101818170470029818A02D041F008016F
:1056400001E021F0080181827047028BD2B202830F
:10565000028B42EA0121018370470029818A02D02E
:1056600041F0200101E021F02001818270470029F2
:10567000818A02D041F0100101E021F01001818205
:105680007047828A22F004028282828A0A438282DE
:1056900070470029818A02D041F0020101E021F027
:1056A000020181827047002A828A01D00A4300E009
:1056B0008A438282704710B5C1F3421301F01F0480
:1056C0000121A140012B07D0022B07D01430002A62
:1056D000026805D00A4304E00C30F8E71030F6E722
:1056E0008A43026010BD0246002012880A4200D0A0
:1056F00001207047C9430180704730B501F01F0297
:1057000001240025C1F3421304FA02F2012B0FD049
:10571000022B0FD0838A4FEA11210088134204FA2A
:1057200001F400EA040001D000B10125284630BD93
:105730008389F0E7038AEEE70A0A01219140C94311
:1057400001807047001001400044004000480040C4
:10575000004C0040005000400014014010B50121F1
:105760008C032046FEF756FD2046BDE81040002180
:10577000FEF750BD13490860704710B58A0721F045
:1057800003041149130F21440F22D1F808489A400D
:105790009443C1F80848D1F8082898400243C1F85A
:1057A000082810BD0949C1F8DC00704708490860A5
:1057B00070470449002020310968C90500D501203F
:1057C00070470000003801400030014000002742CF
:1057D0000004274200F108014FF0FF32C0E9011236
:1057E000C1600161002101607047002101617047C3
:1057F000426853684B6043688B605368996051609E
:10580000416008610168491C0160704710B50B6870
:105810005A1C02D000F1080202E0026904E052685A
:10582000546824689C42FAD953684B6099608A6036
:10583000516008610168491C016010BDD0E9011286
:105840008A60D0E90112516001694A68824201D13F
:1058500082684A60002202610868401E0860086889
:105860007047000070B50D4604001FD000F0EBFC3F
:10587000D4E90F21206802FB010363600023A363C6
:10588000521EA06002FB0100E060581E6064A0642C
:1058900004F110006DB1FFF79DFF04F12400FFF744
:1058A00099FF00BF00F0D7FC012070BDFAF7C0FCE3
:1058B000FEE721690029F5D001F07BF90128F1D13B
:1058C00000F0BBFCEEE72DE9F04117460E4605005F
:1058D00019D0502000F0DEFC040014D005FB06F0C7
:1058E000401C00F0D7FC206050B1C4E90F560121E4
:1058F0002046FFF7B7FF84F84D702046BDE8F081E1
:10590000204600F01CFDFAF793FCFEE770B5044654
:1059100000F099FC04F124050AE0606A58B12846B9
:1059200001F047F908B101F0BFF9A06C401EA06476
:10593000A06C0028F1DC4FF0FF36A66400F08BFC71
:1059400000F081FC04F110050AE0206958B12846F6
:1059500001F02FF908B101F0A7F9606C401E6064F6
:10596000606C0028F1DC6664BDE8704000F073BC38
:1059700010B51346026C04468AB1CBB1E06801F061
:1059800039FAE168206C091AE1602268914202D27A
:105990006168081AE060A06B401CA06310BD20681D
:1059A0000028F8D1606801F0C7F900206060F2E7D4
:1059B000A06801F01FFA216CA0680844A06061682B
:1059C0008842E8D32068A060E5E72DE9FF4182B076
:1059D00098460F4604004FF0000502D000261FB184
:1059E00007E0FAF725FCFEE7206C10B1FAF720FC7F
:1059F000FEE700F028FCA16BE06B814213D2424627
:105A000039462046FFF7B4FF606A38B104F124003C
:105A100001F0CFF8012801D100F00FFC00F01BFCD1
:105A2000012006B06AE7049808B11DB106E000F055
:105A300012FC1DE0684601F0E9F8012500F00BFCBE
:105A400000F046FE00F0FFFB606C401C00D1666475
:105A5000A06C401C00D1A66400F0FDFB04A96846C0
:105A600001F0DFF830B12046FFF750FF00F0C2FD33
:105A70000020D6E700F0E7FBA06BE16B884210D175
:105A800000F0E9FB04F11000049901F061F82046F0
:105A9000FFF73CFF00F0AEFD0028AAD100F0CDFBDF
:105AA000A7E700F0D8FB2046FFF730FF00F0A2FD8B
:105AB0009FE770B50546502000F0ECFB04001DD0B8
:105AC000002161602160A160E160A1630120C4E95F
:105AD0000F01801E6064A06484F84D5004F1100032
