:020000040800F2
:1000000090300020594400084502000847020008CB
:10001000490200084B0200084D02000800000000E1
:100020000000000000000000000000009D0100082A
:100030004F02000800000000E10100088F6A00087C
:1000400073440008734400087344000873440008B4
:1000500073440008734400087344000873440008A4
:100060001704000863040008734400080103000833
:10007000C30200084D03000873440008750200081D
:10008000734400087D0200087344000873440008AC
:100090007344000873440008734400087344000864
:1000A00073440008710300089103000873440008BA
:1000B00093030008B3030008D30300087344000847
:1000C00073440008734400087344000813040008D4
:1000D0007344000855020008734400087344000884
:1000E0007344000873440008734400087344000814
:1000F0007344000873440008734400082303000895
:100100007344000873440008F30300081504000852
:100110007344000873440008570300085F03000895
:1001200073440008734400089F02000873440008E9
:1001300073440008734400087344000873440008C3
:1001400073440008734400087344000873440008B3
:10015000B90200087344000873440008734400089F
:100160007344000873440008734400087344000893
:100170007344000873440008734400087344000883
:100180007344000873440008DFF80CD007F01CFD2E
:10019000004800474D42000890300020234B19686A
:1001A0000868B0E8F04F80F309884FF0000080F352
:1001B000118870470000000003480068006880F361
:1001C000088862B600DF00BF08ED00E0DFF80C0031
:1001D000016841F470010160704700BF88ED00E0E4
:1001E000EFF30980114B1A681EF0100F08BF20EDC5
:1001F000108A20E9F04F106008B54FF0140080F32A
:10020000118806F01AFF4FF0000080F31188BDE856
:10021000084019680868B0E8F04F1EF0100F08BFDA
:10022000B0EC108A80F30988704700BFD801002025
:10023000EFF311804FF0140181F31188704780F3C0
:10024000118870477047FEE7FEE7FEE7FEE770475C
:100250007047704710B5834C40F22551204605F099
:1002600060FE002805D02046BDE81040202105F0A2
:1002700055BE10BD7C497D4804F065BF70B57B4D0F
:100280007B4C30352146284604F03AFF002805D043
:1002900021462846BDE8704004F055BF70BD10B53A
:1002A0007449754804F04FFF74484178007841EA7A
:1002B00000207349088010BD6F487249483004F02F
:1002C00042BF70B5694D704C483D2146284604F048
:1002D00017FF002813D02146284604F034FF6B484E
:1002E00001F029FE00280AD1694C0021204605F0C2
:1002F00057FD2046BDE87040012105F051BD70BD9D
:1003000070B55A4D634C603D2146284604F0F8FE16
:10031000002805D021462846BDE8704004F013BFF0
:1003200070BD70B5514C5C4D48342946204604F0F0
:10033000E7FE002809D00021204604F056FE294699
:100340002046BDE8704004F0FEBE70BD47484649F7
:10035000303804F0F8BE0121504805F0C0BB10B59C
:1003600001214F4805F0BBFB3E497A20888010BD33
:1003700010B54C4C0121204605F0B1FB2088C10688
:100380004948016801D5491E00E0491C016010BDC3
:10039000704710B501218C07204605F0A0FB20888E
:1003A000C1064248016801D5491E00E0491C0160B0
:1003B00010BD10B53E4C0121204605F090FB208871
:1003C000C1063C48016801D5491E00E0491C016096
:1003D00010BD10B5384C0121204605F080FB208867
:1003E000C1063648016801D5491E00E0491C01607C
:1003F00010BD10B5324C0121204605F070FB20885D
:10040000C1063048016801D5491E00E0491C016061
:1004100010BD7047704770B5042004F013FF00282A
:100420001ED02021284804F066F9284D04212846D2
:1004300004F042F91A4C012805D00421284604F0A2
:100440003BF928B109E00021204604F0E1FF04E077
:10045000204604F0E1FF1E4908601E4904200860A0
:1004600070BD704700100140208000207060024085
:1004700000802020008020104064024010030020F3
:100480000800002000880020008800102E030020B3
:10049000004800402080001000800028001000402C
:1004A00000140040000001400C000020100000205B
:1004B0000004004014000020000800407C010020DF
:1004C000000C00408001002000000240000C0240AF
:1004D00084010020143C014070B50546002407F05B
:1004E000D9F8FE4902E02A5D0A55641C8442FADB11
:1004F000BDE870400121FA4804F077BD70B5F94DB0
:1005000006460024315D00290BD0284605F06EFC1C
:100510008021284605F0FBFC0028F9D0641CE4B2D9
:10052000F0E770BD70B5EF4E05460024002D0DD0EC
:100530002946304605F05AFC8021304605F0E7FC9C
:100540000028F9D0641CE4B2032CEFD370BD73B55E
:100550000C460020FFF7E6FFE3A0FFF7CFFFDF48E0
:100560002246E2A1823807F0A9FBDC488238FFF777
:10057000C5FFDFA0FFF7C2FFDFA0FFF7BFFFD7482F
:10058000DAA18238009A07F099FBD44E0024D54DA9
:10059000823E2846315D05F029FC4021284605F0C1
:1005A000B6FC0028F9D0641C142CF2DBD2A0FFF7B3
:1005B000A5FFFF20FFF7B6FFFF20FFF7B3FFBDE861
:1005C0007C40FF20AEE770B505460C46C6A0FFF79D
:1005D00095FFC2482246C5A1823807F06FFBBF488D
:1005E0008238FFF78BFFC5A0FFF788FF2846FFF78B
:1005F00085FFC1A0FFF782FFBDE87040FF2091E7B3
:1006000077B5BEA185B00646D1E90001CDE900016C
:10061000B9A0002200680390B3A0B04D0068283D47
:10062000A5F128030290AD4C1146A3F13200A95464
:1006300099548154A154521CD2B21E2AF7D30A21D4
:100640000170FF2444708470C470A448A7A150387E
:10065000079A07F033FBA14902A8503907F002F8C6
:100660009E4802A9823806F0FDFF9C486946823800
:1006700006F0F8FF99483146823806F0F3FF9748B4
:100680009AA15038069A07F019FB94495039A1F104
:10069000320006F0E7FF914803A9823806F0E2FF36
:1006A0008E492C706C702839AC70A1F15A0006F09C
:1006B000D9FF8A488238FFF70FFF08B070BD2DE9D7
:1006C000F74188468DA185B00646D1E90001CDE904
:1006D000000189A000220068039083A07F4D00687C
:1006E000283DA5F1280102901446A1F13200AC5436
:1006F0008C548454521CD2B20A2AF8D30A210170B5
:10070000FF2747708770C770744878A15038079AE0
:1007100007F0D4FA714902A8503906F0A3FF6F48D8
:1007200002A9823806F09EFF6C486946823806F0BE
:1007300099FF6A483146823806F094FF674841467F
:10074000823806F08FFF654803A9823806F08AFFD9
:100750002F706F706149AF70EC7028392C71A1F166
:100760005A0006F07FFF5D488238FFF7B5FE08B0FB
:10077000BDE8F08170B50020FFF7D4FE5AA0FFF766
:10078000BDFE56480D2259A1823807F097FA53480A
:100790008238FFF7B3FE59A0FFF7B0FE594C202175
:1007A000204603F089FF02464C4850A1823807F0EA
:1007B00085FA4A488238FFF7A1FE1021204603F04F
:1007C0007BFF0246454849A1823807F077FA434843
:1007D0008238FFF793FE4C4D8021284603F06CFFD2
:1007E00002463E4841A1823807F068FA3B48823809
:1007F000FFF784FE4021284603F05EFF024637489B
:100800003AA1823807F05AFA34488238FFF776FE68
:100810004FF40041204603F04FFF02462F4833A11A
:10082000823807F04BFA2D488238FFF767FE4FF405
:100830008041204603F040FF024628482BA1823821
:1008400007F03CFA25488238FFF758FE4FF4005174
:10085000204603F031FF0246204824A1823807F0E9
:100860002DFA1E488238FFF749FE4021274803F041
:1008700023FF024619481DA1823807F01FFA1748C6
:100880008238FFF73BFE1CA0FFF738FEFF20FFF782
:1008900049FEFF20FFF746FEBDE87040FF2041E61D
:1008A000FEB51BA10646D1E90001CDE900011AA061
:1008B00000210A4D0068283DA5F1280202900C464F
:1008C000A2F132006C5454544454491CC9B2322928
:1008D000F8D30A210170FF2747701FE0CE020020E5
:1008E000B860024000500040740000002564000021
:1008F0002E7478743D000000220000002E7478747D
:100900003D220000000802400000024000100240AA
:100910002E76616C3D0000006A0000008770C77091
:100920000022AFF23801FE4807F0C8F9FC4902A8DE
:1009300006F098FEFA4802A9323806F093FEF8480D
:100940006946323806F08EFE3246AFF26001F44856
:1009500007F0B4F9F249A1F1320006F083FE2F70DE
:100960006F70EF49AF70EC7028312C71A1F15A0013
:1009700006F078FEEA483238FFF7AEFDFEBD70B5EE
:100980000D46044606F038FE291B491C90FBF1F287
:1009900001FB1200204470BD2DE9FC41E14F3846B7
:1009A00004F03AFDE04D6969642640EA014090FB9D
:1009B000F6F000240190384604F02EFD696940EA03
:1009C000014090FBF6F001990090401A00D540429A
:1009D000322800DA641C00980190022CEBDB0098AE
:1009E000002800DA4042BDE8FC812DE9FC41CF4FF0
:1009F000384604F011FDCC4DE968642640EA014018
:100A000090FBF6F000240190384604F005FDE968FB
:100A100040EA014090FBF6F001990090401A00D5A1
:100A20004042322800DA641C00980190022CEBDB73
:100A300000980028D7DA4042D5E72DE9FC414FF075
:100A40008047384604F0E8FCB74D2969642640EA3F
:100A5000014090FBF6F000240190384604F0DCFCE5
:100A6000296940EA014090FBF6F001990090401A94
:100A700000D54042322800DA641C00980190022C14
:100A8000EBDB00980028AEDA4042ACE770B5FFF728
:100A900083FF0546FFF7D1FF0446FFF7A6FF002DB1
:100AA00000DA6D42002800DA40422844002C00DAC7
:100AB0006442204470BD01B581B0019800EBC000D4
:100AC00040000090002801D0401EFAE70CBD01B59F
:100AD00081B044F25061019848430090002801D051
:100AE000401EFAE70CBD2DE9FC4101211F2003F057
:100AF0004BFF01248DF8044000268DF806604FF668
:100B0000FF758DF80740032700958DF8057069463D
:100B1000874803F06BFD8DF804408DF806608DF872
:100B2000074000958DF805706946824803F05EFD28
:100B30008DF804408DF806608DF8074000958DF81B
:100B4000057069467C4803F051FD4CE77CB50121F6
:100B50007E2003F019FF0024FC208DF804400125BD
:100B600000908DF8075002268DF80560694673489D
:100B700003F03CFD48F206008DF8044000908DF82B
:100B800007508DF805606946694803F02FFD46F669
:100B9000C4408DF8044000908DF807508DF8056032
:100BA0006946644803F022FD03208DF8044000905C
:100BB0008DF807508DF8056069465F4803F016FD13
:100BC0004FF2FF508DF8044000908DF807508DF8DB
:100BD000056069465A4803F009FD7CBD1FB54FF416
:100BE000E06003F04BFC36208DF80C0000248DF8FB
:100BF0000D408DF80E4001208DF80F0003A803F082
:100C000042FC0121102003F0DDFE3220ADF800008F
:100C1000ADF80840ADF8024040F2E730494C019091
:100C20006946204604F0B2FB0121204604F057FF3C
:100C300001221146204604F032FF0021204604F034
:100C4000E7FB0121204604F019FC1FBD1FB54FF43E
:100C5000E06003F013FC37208DF80C0000248DF8C1
:100C60000D408DF80E4001208DF80F0003A803F011
:100C70000AFC0121202003F0A5FE4FF4FA70ADF824
:100C80000000ADF80840ADF8024040F2E7302E4CCD
:100C900001906946204604F079FB0121204604F0CA
:100CA0001EFF01221146204604F0F9FE00212046D5
:100CB00004F0AEFB0121204604F0E0FB1FBD70B53F
:100CC0008AB00121022003F087FE01210C2003F0ED
:100CD0005BFE184E03220621304603F010FD03226E
:100CE0000721304603F00BFD03220821304603F0B4
:100CF00006FD03220921304603F001FD4FF4707018
:100D0000059002208DF8180003208DF819000024AA
:100D10008DF81A4001258DF81B5005A9304615E0C5
:100D20007E0200200004004000000020000001407E
:100D30000004024000080240000C02400000024093
:100D400000100240001000400014004003F04EFC70
:100D5000A420ADF81C0028020890ADF82400ADF8DE
:100D60001E4007A9FE4E304604F010FB6020ADF88F
:100D70000000ADF802500294ADF80C40012130465D
:100D800004F07CFB0021304604F042FB694630460B
:100D900004F07EFB6946304604F0A6FB6946304607
:100DA00004F0DEFB6946304604F014FC01213046B5
:100DB00004F056FE0AB070BD70B58AB0012104205F
:100DC00003F000FE01210D2003F0DEFDE54E0222BE
:100DD0000C21304603F093FC02220D21304603F033
:100DE0008EFC02220E21304603F089FC02220F21E4
:100DF000304603F084FC4FF47040059002208DF8DB
:100E0000180003208DF8190000248DF81A400125E0
:100E10008DF81B5005A9304603F0E8FBA420ADF87F
:100E20001C002802D04E0890ADF82400ADF81E40FA
:100E300007A9304604F0AAFA7020ADF80000ADF81A
:100E400002500294ADF80C400121304604F016FB2C
:100E50000021304604F0DCFA6946304604F018FB05
:100E60006946304604F040FB6946304604F078FBA2
:100E70006946304604F0AEFB9CE730B5012187B0EF
:100E8000080403F0A9FD0121084603F07DFD0024BC
:100E90004FF6FF70B54DADF800400190ADF8084039
:100EA000ADF802406946284604F070FA0420ADF817
:100EB0000C00C820ADF814000120ADF81000ADF80A
:100EC0000E4003A9284604F01BFDA94C00231A4636
:100ED0000321204604F07DFE0121204604F0FFFDA1
:100EE00001221146204604F0DAFD0121284604F0D3
:100EF000C5FA0021204604F08BFA07B030BD2DE979
:100F0000F04701218AB0084603F05CFD0121022070
:100F100003F058FD0121032003F036FDDFF8549261
:100F200001220F21484603F0EAFBDFF84C82012240
:100F30000321404603F0E3FB02220421404603F074
:100F4000DEFB02220521404603F0D9FB02268DF884
:100F50000460032738208DF80570002400908DF878
:100F6000064001258DF807506946404603F03EFBD8
:100F70008DF80460E8038DF8057000908DF8064048
:100F80008DF807506946484603F030FB4FF6FF7076
:100F9000ADF80C4004904FF08049ADF81440ADF826
:100FA0000E4003A9484604F0F1F9DFF8D0A103A9E7
:100FB000504604F0EBF94FF004081420ADF8188007
:100FC000ADF82000ADF81A60ADF81C5006A94846EF
:100FD00004F096FC06A9504604F092FC02231A463F
:100FE0000321484604F0F5FD02231A46032150462A
:100FF00004F0EFFD0121484604F071FD0121504647
:1010000004F06DFD01221146484604F048FD01221E
:101010001146504604F043FD0121484604F02EFAE3
:101020000121504604F02AFA0021484604F0F0F964
:101030000021504604F0ECF9780203F01FFA1D205D
:101040008DF808008DF809708DF80A408DF80B5066
:1010500002A803F018FA1C208DF808008DF809800A
:101060008DF80A408DF80B5002A803F00CFA0AB074
:10107000BDE8F08770B501218AB0084603F0ACFCEA
:101080000121102003F080FC4FF42060009002202A
:101090008DF8040003208DF805000024384E8DF8EB
:1010A000064001258DF807506946304603F09EFA48
:1010B00001220921304603F022FB01220B21304698
:1010C00003F01DFB4FF6FF70284EADF8084003906B
:1010D000ADF81040ADF80A4002A9304604F056F9C8
:1010E0000420ADF814000A20ADF81C00ADF816403D
:1010F000ADF8185005A9304604F002FC00231A464A
:101100000321304604F065FD0121304604F0E7FC80
:1011100001221146304604F0C2FC0121304604F0A1
:10112000DEFC01221146304604F0B9FC01213046B4
:1011300004F0A4F90021304604F06AF94FF4C060CD
:1011400003F09CF919208DF820008DF821508DF8BE
:1011500022408DF8235008A803F095F92AE60000F4
:1011600000040140000C0240000800400000014063
:101170000040014000000240000402400004004022
:1011800000100240F0B59BB00121FE4803F0FCFBCB
:1011900001210D02284603F01FFCFB480024CDE985
:1011A0000040FA4802A9082681E85100A800CDE9CC
:1011B0000540400007908000CDE908050AA900011C
:1011C000012581E83100F24F0D94694638460E94AE
:1011D00003F0D2FE0121384603F007FF3C201990AE
:1011E00003208DF868008DF86B4019A9E94803F0D9
:1011F000FDF94FF44030CDE915404FF47060CDE972
:10120000174015A803F0BDFC1194129413942806FE
:10121000DD4C0F908DF840504C3C8DF841508DF8CE
:1012200050600FA9204603F081FC04230122022113
:10123000204603F0F0FC042302220321204603F0A1
:10124000EAFC042303221946204603F0E4FC0423AD
:101250001A460521204603F0DEFC042305220C215A
:10126000204603F0D8FC042306220D21204603F07B
:10127000D2FC042307220E21204603F0CCFC0423D9
:1012800008220F21204603F0C6FC0121204603F06E
:101290003FFD0121204603F031FD0121204603F0EE
:1012A00087FC204603F0F1FC1BB0F0BD08B54FF4FD
:1012B000E06003F0E3F825208DF8000000208DF8B1
:1012C00001008DF8020001208DF80300684603F04C
:1012D000DAF808BD70B5054696B00121102003F07C
:1012E0007BFB0121084603F04FFB0121880503F039
:1012F0004BFB4FF4C060139002208DF85000002487
:101300008DF852408DF85340A34E8DF8510013A92B
:10131000304603F06BF907220921304603F0EFF95C
:1013200007220A21304603F0EAF90F95ADF8444050
:101330000C209A4DADF84040ADF84600ADF8424063
:10134000ADF848400FA9284604F0B9FC0121284611
:1013500004F026FD4FF4A06003F090F83A208DF8D9
:1013600054008DF855408DF8564001208DF85700F7
:1013700015A803F088F8864E3036304603F074FD29
:101380004FF000600090814869461030CDE90204BA
:101390000A200490281D01900015CDE90540801019
:1013A000CDE9084040020A9004200B9007940320E6
:1013B000CDE90C0430460E9403F0DEFD01224021FD
:1013C000284604F084FD01221021304603F082FEFD
:1013D0000121304603F009FE16B070BDF0B5064697
:1013E000012197B0480503F0CFFA01214D042846AA
:1013F00003F0E8FA0121082003F0C6FA60201390F8
:1014000002208DF8500000248DF852408DF8534092
:10141000634F8DF8510013A9384603F0E7F807220F
:101420000521384603F06BF907220621384603F000
:1014300066F90F96ADF844400C205A4EADF8404086
:10144000ADF84600ADF84240ADF848400FA930462F
:1014500004F035FC0121304604F0A2FC4FF4A060FA
:1014600003F00CF811208DF854008DF855408DF8DC
:10147000564001208DF8570015A803F004F84A4F94
:10148000384603F0F1FCA802009040200390474842
:1014900002903C200490301D01900015CDE90540DC
:1014A0008010CDE908400420CDE90A5007940320BC
:1014B000CDE90C04694638460E9403F05DFD012227
:1014C0008021304604F003FD01228021304604F0E3
:1014D000FEFC01221021384603F0FCFD01213846B4
:1014E00003F083FD17B0F0BD70B50546012196B03D
:1014F000880403F067FA0121082003F045FA01216E
:10150000480503F041FA4FF44070139002208DF823
:10151000500000248DF852408DF85340204E8DF835
:10152000510013A9304603F061F807220821304624
:1015300003F0E5F807220921304603F0E0F80F95A3
:101540001B4EADF84040ADF844400C25ADF842408C
:10155000ADF84840ADF846500FA9304604F0AFFB57
:101560000121304604F01CFC4FF4A06002F086FF1D
:101570008DF854508DF855408DF8564001208DF867
:10158000570017E0050040004C20014000030020F8
:1015900010640240000802400000024000100140B8
:1015A000000C024000440040A06002400001002006
:1015B0000048004015A802F066FFFB4D284603F0E6
:1015C00053FC4FF000600090F848CDE90204082079
:1015D0000490301D01900015CDE905408010CDE943
:1015E000084040020A9004200B9007940320CDE9A4
:1015F0000C04694628460E9403F0BEFC01224021EB
:10160000304604F064FC01224021304604F05FFCC7
:1016100001221021284603F05DFD0121284603F038
:10162000E4FCD9E6F0B50646012197B0C80403F002
:10163000C9F90121084603F0A7F90121480503F083
:10164000A3F902208DF8500000248DF852408DF847
:101650005340D74F03258DF85100139513A93846F1
:1016600002F0C4FF08220021384603F048F808229F
:101670000121384603F043F80F96ADF844400C20A2
:10168000CC4EADF84040ADF84600ADF84240ADF864
:1016900048400FA9304604F012FB0121304604F007
:1016A0007FFB4FF4A06002F0E9FE0D208DF854009E
:1016B0008DF855408DF8564001208DF8570015A83B
:1016C00002F0E1FEB84F1837384603F0CDFB78053D
:1016D0000090B64869460F38CDE90204082004900E
:1016E000301D01900015CDE905408010CDE908407E
:1016F000400207940A900420CDE90C540B90384620
:101700000E9403F039FC01224021304604F0DFFB47
:1017100001224021304604F0DAFB01221021384634
:1017200003F0D8FC0121384603F05FFCDAE62DE92E
:10173000F0418046012196B0480503F025F90121CA
:10174000080503F03FF901210C2003F01DF90225E3
:101750008DF8405000248DF84240974F04268DF8B4
:1017600043400F968DF841500FA9384602F03EFFD6
:101770008DF840508DF842408DF84340E8028DF8D6
:1017800041508E4D0F900FA9284602F02FFF0822DE
:101790000221384602F0B3FF08220C21284602F04D
:1017A000AEFF4FF4A06002F069FE2F208DF85400C8
:1017B00005208DF855008DF8560001208DF8570052
:1017C00015A802F060FEADF84C400C207C4DADF841
:1017D0004840ADF84E00CDF84480ADF84A40ADF831
:1017E000504011A9284604F06AFA0121284604F065
:1017F000D7FA6D4F9037384603F036FB70060090ED
:101800004020039069486946603802903120049076
:10181000281D01900015CDE905408010CDE9084054
:101820004002CDE90A0607940320CDE90C043846AE
:101830000E9403F0A1FB01228021284604F047FB0F
:1018400001221021384603F045FC0121384603F0FF
:10185000CCFB16B0BDE8F08130B585B00121082081
:1018600003F092F80121880303F0B6F800240C205D
:101870008DF81040012503908DF8135003A94E48B0
:1018800002F0B4FE0221032004F08BFB0420009040
:101890008DF8044010208DF805008DF8065068463C
:1018A00003F080FC08208DF808008DF809408DF8C1
:1018B0000A408DF80B5002A802F0E5FD05B030BDDE
:1018C00010B5012810D0032819D0042822D00528EB
:1018D00009D13B4C204604F089FA4021204604F00F
:1018E00016FB0028F9D010BD364C204604F07EFAD5
:1018F0004021204604F00BFB0028F9D010BD324CEB
:10190000204604F073FA4021204604F000FB002832
:10191000F9D010BD274C204604F068FA402120463B
:1019200004F0F5FA0028F9D010BD284900204862DB
:101930002749C8604FF0804250620861254A106014
:101940004861704770B5224D00202871044661211E
:101950000120FFF7B5FF3220FFF7B9F8641C022C15
:10196000F5D3012028717A20E87070BD10B561218F
:101970000120FFF7A5FFBDE810400A20FFF7A7B838
:1019800070B5134D0020A871044661210320FFF7B4
:1019900097FF3220FFF79BF8641C022CF5D301203F
:1019A000A8717A20687170BD286002402E03002063
:1019B00000000240004C0040000C024000080240C1
:1019C000005000400010014000480040000001406D
:1019D00000000020240400402DE9F14195B00020D2
:1019E00014908DF800008DF82800F748159FA0F19D
:1019F0008003F34EF34CF54AD96A4FF40045122F99
:101A000072D2DFE807F009282C32363A3E42484EBF
:101A100054585D61666972830221304602F04CFEC3
:101A200060B101222946204602F05EFE294620468A
:101A300002F04CFE01460022E5A053E000222946B8
:101A4000204602F051FE2946204602F03FFE0146A4
:101A50000022E6A046E0016C0122ECA042E0FFF784
:101A600015F801460222EBA03CE0416F0322EDA0F5
:101A700038E0C16F0422EEA034E0816F0522EFA0B0
:101A800030E00622EFA0196C2CE0CF48EC300722A2
:101A90000179EFA026E0FEF77FFF01460822EFA0C4
:101AA00020E0FEF7A2FF01460922EEA01AE00A227A
:101AB000EEA0996A16E052F821100B22EFA011E077
:101AC00011680C22F3A00DE052F821100D22F7A0AE
:101AD00008E00E22FBA005E0BC480F22183050F8A9
:101AE0002110FBA0FEF78CFDB3E62946FC4802F06E
:101AF000E3FD0246FBA1684606F0E0F869460AA845
:101B000005F0B0FD10220AA9F7A0DBE02946304617
:101B100002F0DCFD0246F3A1684606F0CFF8694604
:101B20000AA805F09FFD4FF48041304602F0CEFD3B
:101B30000246ECA1684606F0C1F869460AA805F01D
:101B400091FD4FF40051304602F0C0FD0246E5A180
:101B5000684606F0B3F869460AA805F083FD4FF41D
:101B600080584146304602F0B1FD0246DDA168468C
:101B700006F0A4F869460AA805F074FD4FF4006564
:101B80002946304602F0A2FD0246D6A1684606F07C
:101B900095F869460AA805F065FD6910304602F01F
:101BA00095FD0246CFA1684606F088F869460AA866
:101BB00005F058FDA9102746204602F087FD024691
:101BC000C8A1684606F07AF869460AA805F04AFDF9
:101BD000EC102146384602F079FD0246C1A1684664
:101BE00006F06CF869460AA805F03CFD2146BF4C9A
:101BF000204602F06BFD0246BAA1684606F05EF888
:101C000069460AA805F02EFD0121204602F05EFD7E
:101C10000246B4A1684606F051F869460AA805F0E4
:101C200021FD0221204602F051FD0246ADA1684689
:101C300006F044F869460AA805F014FD0121304673
:101C400002F044FD0246A7A1684606F037F869464F
:101C50000AA805F007FD2946204602F037FD024696
:101C6000A0A1684606F02AF869460AA805F0FAFC21
:101C70004146204602F02AFD02469AA1684606F037
:101C80001DF869460AA805F0EDFC8021304602F0F7
:101C90001DFD024693A1684606F010F869460AA8A1
:101CA00005F0E0FC4021304602F010FD02468DA117
:101CB000684606F003F869460AA805F0D3FC11222D
:101CC0000AA98BA0FEF7FBFCC3E50121894803F0BC
:101CD0008CB911B43C48016F009A914201DD00219A
:101CE00001E0016F491C0167006F18BC74E62DE923
:101CF000F0470025804E074601244FF400594FF469
:101D000080484FF4805A00224146304602F0ECFCF5
:101D10001020FEF7D0FE274201D0012200E0002271
:101D20004946304602F0E0FC01224146304602F0CE
:101D3000DBFC1020FEF7BFFE5146304602F0BCFC33
:101D400000B12543600010F0FF04DCD12846BDE857
:101D5000F08770B5684E4FF40045002229463046A2
:101D600002F0C2FC1020FEF7A6FE0120FFF7BFFF25
:101D70004220FFF7BCFFFF20FFF7B9FFFF20FFF76E
:101D8000B6FF114CEC342070FF20FFF7B0FF6070FD
:101D9000FF20FFF7ACFFA070FF20FFF7A8FFE07067
:101DA000FF20FFF7A4FF2071FF20FFF7A0FF607165
:101DB00029463046BDE87040012202F095BC000083
:101DC0000004024000080240800000201C020020A5
:101DD000524F424F542044414E47204348415920DE
:101DE00053414E20444F3A2020200000524F424F92
:101DF000542044414E4720434841592053414E20EE
:101E000058414E483A20202000000000494D553AE4
:101E100000000000454E434F4445525F544F4E472B
:101E20003A0000006C617A652030683A20000000BA
:101E30006C617A652038683A000000006C617A6550
:101E400020346800646F206C617A653A00000000FD
:101E50004C4A4F595F4C523A0000000030683A201B
:101E60000000000034683A20000000006269656EDE
:101E70002076652078703A2000000000626F6E675F
:101E80002074726F6E672073696C6F20736F3A20D5
:101E900000000000626F6E672074726F6E672073BF
:101EA000696C6F5B305D3A2000000000626F6E6706
:101EB0002074726F6E672073696C6F5F736F3A2066
:101EC0000000000073696C6F5F736F3A20000000C0
:101ED0006269656E206461207468613A20000000C8
:101EE0000010024025640000493A00000000024052
:101EF0004F3A0000A0600240000C024070B5FB4E5B
:101F00004FF4004500222946304602F0EDFB102038
:101F1000FEF7D1FD0120FFF7EAFE4220FFF7E7FEC2
:101F2000044601222946304602F0DEFB1020FEF76F
:101F3000C2FD204637E5EE4A00215164C279ED49E1
:101F40000D2A09D0FF20087048708870C870087189
:101F5000487188710020704702780A7042784A7090
:101F600082788A70C278CA7002790A7142794A719D
:101F70008079887101207047DE48DD490278FF2AA8
:101F800005D14278FF2A02D18278FF2A09D04A6C13
:101F9000531C4B64C82A03DDFF210170417081701E
:101FA0007047002048647047D24880797047D14814
:101FB0000078400601D40120704700207047CD48CA
:101FC0000078C00601D4012070470020704770B52A
:101FD000C74B0125002693F8784003F5807300284D
:101FE00003D004DDD8709D7005E0DC7003E0C0F123
:101FF0000000D8709E70002903D004DDD9719D7156
:1020000005E0DC7103E0C1F10000D8719E71002A87
:1020100003D004DDDA729D72C5E4DC72C3E4C2F160
:102020000000D8729E72BEE4B2496C39C870C871A3
:10203000C8727047AE49012048677047AD486C3898
:10204000C178032907D2C179032904D2C07A0328B1
:1020500001D20120704700207047A5488030006AF7
:10206000A0F5EA41303901D00120704700207047C7
:1020700068E49F48B0F90800404270479C48B5EEBC
:10208000C00AD0ED130AF1EE10FA02D230EE600A67
:1020900001E030EE200ABDEEC00A10EE100A7047D3
:1020A00010B5041E2DED068B914800F180009FEDC8
:1020B00092AB9FED939B11D0C06814DA05F079FCC8
:1020C00041EC180B204605F074FC53EC1A2B05F07C
:1020D0008FFB53EC192B05F085FB13E09FED8A0A6B
:1020E000BDEC068B10BD05F064FC41EC180B2046DE
:1020F00005F05FFC53EC1A2B05F07AFB53EC192B1F
:1021000005F0CFFA53EC182B05F0E4FB05F075FC55
:1021100000EE100AE4E7B5EEC00AF1EE10FA01DABB
:10212000B1EE400A7047002800DA4042704770491B
:1021300091ED1B0AD1ED1C1AF1EE400A80EEA11AB6
:1021400000EE900AF8EEE00A01EE200ABDEEC00AA9
:1021500010EE100A7047F0EE401A9FED6C0AF5EE93
:10216000C01AF1EE10FA01D2F1EE611AF5EEC00AD2
:10217000F1EE10FA01D2F1EE600AB5EEC01AF1EEFE
:1021800010FA01D2B1EE411AF4EEC01AF1EE10FAD3
:1021900001DDB0EE610AF4EEC00AF1EE10FA01DDE5
:1021A000B0EE600AB4EEC01AF1EE10FA01DDB0EE46
:1021B000410A70474E488030C06870474C488030B4
:1021C000806B704770B54A4C494D80342DED068BBD
:1021D000B0EE408A206AA0F5EA4130397DD0E26A4B
:1021E000216CD4ED0C0A891A401A00EE100A95ED04
:1021F000161A606BB8EEC00A00EEC10AD5ED150ADA
:10220000C0EE208A05F0E6FB94ED000A41EC190BC4
:1022100020EE280A10EE100A05F0DCFB41EC100B52
:1022200005F07AFD9FED3AAB51EC100B53EC1A2BF5
:1022300005F0DEFA53EC192B05F0D4FA05F0DDFBBE
:10224000E064606B05F0C6FB95ED170AD4ED000A5B
:1022500041EC190B38EE800A20EE200A10EE100A2D
:1022600005F0B8FB41EC100B05F056FD9FED2A1B65
:1022700051EC100B53EC112B05F0BAFA53EC192B5F
:1022800005F0B0FA05F0B9FB206595ED180AD4ED1C
:10229000000A38EE800A20EE200A10EE100A05F03F
:1022A00099FB41EC100B05F037FD53EC1A2B51EC68
:1022B000100B05F09DFA05F0A0FB6065B5EEC08A35
:1022C000F1EE10FA53D0A06850B301282FD00228A5
:1022D00034D003284BD13EE0FFE79FED0B0A84ED9D
:1022E000150A84ED140A84ED130AE7E7000C024096
:1022F000000000206C010020333333333333D33FED
:102300009A9999999999B93F000000006F12833A00
:1023100000000000000000C00000000000000040BD
:10232000FFE794ED130A30EE480A84ED130A94EDAA
:10233000140A30EE480A84ED140A05E094ED130AFD
:1023400030EE480A84ED130A94ED150A30EE480A7F
:1023500084ED150A0BE094ED130A30EE480A84ED83
:10236000130A94ED140A30EE480A84ED140A04F1BD
:102370004C0090EC030AFFF7EEFED5ED120AF8EEE2
:10238000E00A80EE801ABDEEC10A10EE100A60610C
:10239000E168814200DDE06001206060BDEC068BF9
:1023A000C8E5FD49002200280A61886111D1CA6090
:1023B0001FED2B0A47F2305081ED0D0A086248628A
:1023C00081ED0C0A8A608A62A1F180008A6342670B
:1023D000F8E67047F04890ED0C0AB5EEC00AF1EE51
:1023E00010FA04D1816811B9816A002909D000214D
:1023F0001FED3B0A80ED0C0A81608162016CC162B5
:10240000E0E67047E4488038C0ED1B0A80ED1C0A06
:102410007047E14A136A834209D113698B4206D19E
:10242000D2ED0D0AF4EE400AF1EE10FA0ED0116171
:10243000D16809B90521D160116CD16282ED0D0A14
:1024400010620020D06192ED0C0ABBE67047D24AC0
:1024500030B4936A834209D1D2ED0C0AF4EE400AFB
:10246000F1EE10FA02D193688B4226D0146A47F23B
:1024700030539C4219D1322414610524D46098420F
:1024800013DAB5EEC00A0123F1EE10FA936302DD10
:10249000136C834207DCB5EEC00AF1EE10FA04D2E9
:1024A000136C834201DAB1EE400A9160906282EDD2
:1024B0000C0A0020D06130BC84E630BC7047014675
:1024C00047F23050C3E71FED700AA2E710B5B24CD7
:1024D0002DED028BF0EE608AD4ED090AB0EE418A50
:1024E000F8EEE00AF4EE400AF1EE10FA0BD12169A1
:1024F000814208D1D4ED0A0AF8EEE00AF4EE680A47
:10250000F1EE10FA4BD0FDEEC00AC4ED090AD4ED8D
:10251000100AF8EEE00A30EE600ABDEEC00A10EED6
:10252000102A1FED870A01461046FFF772FF94ED4F
:10253000100AF8EEC00A78EEE00AFDEEE00A10EEAE
:10254000900A002800DA4042B8EEC00A642819DD7B
:10255000F4EEC08AF1EE10FA01DCB1EE488A18EE12
:10256000100A05F037FA00BF05F047FAFDEEE80A59
:10257000BDEC028B00EE100ABDE81040002110EE09
:10258000900A64E738EEC00A10EE100A05F022FA4D
:102590009FED821B53EC112B05F02AF9E4E7BDEC0B
:1025A000028B10BD10B57C4CA06B01282FDD216C77
:1025B000A06A401AFFF7B7FD062812DA0020E06093
:1025C0001FEDAF0A206184ED0C0AFFF7FBFDA06B45
:1025D000411CA163B0F5FA7F19DDBDE81040002071
:1025E000DFE60520A16B2061FA29E06001DDFB2018
:1025F000A063A16A206C884202DDBFEE000A01E000
:10260000B7EE000A84ED0C0ABDE81040DAE510BD13
:1026100070B5614991ED0D0AB5EEC00AF1EE10FA00
:1026200073D1CB68002B70D0886A47F23054A04237
:102630006BDA91ED0C0AB5EEC00AF1EE10FA7DD01E
:102640000D6AA1F18002A54260D1B5EEC00A134621
:10265000F1EE10FA9B6E03DD0D6CC41AAC4208DB80
:10266000B5EEC00AF1EE10FA17D20C6C0344A34287
:1026700013DD8B6B032B48DA0B6CC01AFFF753FD8D
:102680000A28886A0ADAC8630020C8601FEDE20AD7
:10269000086181ED0C0A0220886379E091ED030A5C
:1026A000D1ED0C0A0B6CB8EEC00A984260EE200A1D
:1026B00092ED1A0AB8EEC01A80EE810A0FDDFFF71C
:1026C0002AFD0B6C886AC01AFFF72DFD00EE900AF8
:1026D000B8EEE01AD2ED140A40EE010A0EE0FFF760
:1026E0001AFD0B6C886AC01AFFF71DFD00EE900AF8
:1026F000B8EEE01AD2ED140A50EE410A91ED030A49
:10270000B8EEC01A80EE810A42E04DE0224AB5EEF2
:10271000C00A803AD2ED190AF1EE10FA18DD01EE86
:10272000100AF8EEC11A01EE103AB8EEC11A41EEE5
:10273000401AB8EEE01A71EEC11A00E032E091EDF5
:10274000101AB8EEC11AF4EEC11AF1EE10FA1BD34A
:10275000B5EEC00AF1EE10FA1AD201EE100AF8EE48
:10276000E00AF8EEC11A01EE103AB8EEC11A41EED5
:10277000401A31EEA01AD1ED100AF8EEE00AB4EEDC
:10278000E01AF1EE10FA03DD096C401AFFF788FC3D
:10279000BDE8704016E50000800000207B14AE47C5
:1027A000E17A743FC86AEFE736E4F94910B4886B00
:1027B00002280CDA9FEDF70A002281ED0D0A81ED67
:1027C0000C0A47F230508A600862C1E90902CC69FC
:1027D000EF4B641C803BCC611846DA6F806F9442EB
:1027E00002DBCA61596F09B110BC1DE40020FBE790
:1027F000E74AD3695B1CD361834204DDD068084497
:10280000D0600020D061704710B5FFF732FCE04C7B
:102810002064FFF7C7FE2269E0684FF0FF31002A0D
:102820000BDD90420ED006DA616988420ADAFFF7C2
:102830007EFC012104E0A06C02E0002831DDA069EB
:10284000FFF7D6FFD4E91001814203D0FFF7E0FE85
:10285000206C60646068002826D094ED030AD4EDF3
:10286000150AB8EEC00A20EE200AFFF707FC94ED27
:10287000030AD4ED140A0246B8EEC00A20EE200A7C
:10288000FFF7FCFB94ED030AD4ED130A0146B8EE02
:10289000C00A20EE200AFFF7F1FBBDE81040FFF769
:1028A00096BBBDE8104080E710BD2DE9F047B84A5F
:1028B000EC329078401FF52801D8012500E0002572
:1028C0001079401FF52801D8012600E00026B04904
:1028D000107801F1EC01C30649780DD543060BD5FC
:1028E000830609D5030607D535B12EB18B0603D56E
:1028F000BDE8F047022054E54B0702D432211424EE
:1029000003E0C90715D01E210A249246A04FC20633
:1029100047F23058A7F180094FEA40620CD4002AF0
:1029200046DA82064FEA006020D5002823DA00202C
:1029300029E00A210724E8E7002A4FEA806208DB41
:10294000002A4FEA006018DA00281BDA4FF4E16031
:1029500019E0002A4FEA006004DB002828DA4FF46F
:10296000617010E000281ADB8B480CE000281FDAA9
:102970004FF4E17007E0894805E0002818DA40F2DA
:10298000465000E08648FFF79EFD9AF80000C10619
:102990000ED541060CD581060AD5000608D545B9E5
:1029A00056B1396A414507D00520FFF7FAFC03E02C
:1029B00015B1FFF70FFD2BE09AF8021001225046E7
:1029C00005290FD24378DB070CD0396A414503D083
:1029D0000020BFEE080A11E089F8002022461146C7
:1029E000084613E0FA2919D99AF80100C00715D052
:1029F000396A414505D00020B7EE080AFFF75FFDB0
:102A000006E089F80020624210461146FFF7DFFA1F
:102A1000002189F80010BDE8F047DBE402221146EE
:102A20001046F3E730B55A4814245E4A856D691C98
:102A300081650146CB6D0021142D03D295892B446D
:102A4000C36504E0B3FBF4F381654367C165056EBC
:102A50006B1C03664E4B642D5B6E03D2D5892B44F1
:102A6000436605E06425B3FBF5F3016683674166C1
:102A7000856E6B1C8366464B142DDB6E02D251892A
:102A8000194403E0B3FBF4F2C2678166C16630BD4E
:102A900070B53F49FE20803901F5B67488616078D1
:102AA000414DC0064FF4806604D4012231462846C9
:102AB00001F01AFE6078400604D400223146284610
:102AC00001F012FE60784FF40066800604D4002204
:102AD0003146284601F008FE6078000604D4012241
:102AE0003146284601F000FE6078304E40074FF432
:102AF000807504D401222946304601F0F5FD607846
:102B0000C00706D129463046BDE87040002201F0DA
:102B1000EBBD49E670477047704770B50D462DED27
:102B2000048B06461446F0EE618AB0EE419AF0EE50
:102B3000609AB0EE408A02211B4801F0BDFD38EEDC
:102B4000280A78EE681A124B012804D0D86F401B6F
:102B5000A04205DC18E0986FA0EB0500A04205DD5F
:102B6000B0EE491AF0EE690A304608E00DDB00BF0E
:102B7000B0EE491AF0EE690A3046B0EE480ABDECF4
:102B8000048BBDE87040A1E4F2DAB0EE610AE7E739
:102B900080000020000000007CFCFFFF3EFEFFFFE5
:102BA000BAFAFFFF000300200004024000080240C0
:102BB00070B50D462DED048B06461446F0EE618A85
:102BC000B0EE419AF0EE609AB0EE408A0221F948E8
:102BD00001F072FDF84B012838EE680A78EE281AE9
:102BE000586FA0EB050002D0A04202DC14E0A04226
:102BF00005DDB0EE491AF0EE690A304607E00CDB5D
:102C0000B0EE491AF0EE690A3046B0EE480ABDEC63
:102C1000048BBDE8704059E4F2DAB0EE610AE8E7EF
:102C2000704710B5FEF78EFEFEF77FFEBDE8104040
:102C30000A2004F094B970B5DF4DDE4ABC35A5F525
:102C40009E74012807D0022805D0032803D0042849
:102C500001D005280BD10221104601F02DFD00EB1B
:102C60004000E16A05EBC00050F8210020649BE5BC
:102C700010B5D14CFE208034E073E0744FF47A70CC
:102C8000FDF725FF0020E074E073A4F58071CB48C8
:102C9000C96A50F82120521C40F8212010BD70B59F
:102CA0002DED048BFFF7BDFF6F2004F058F9C14CE8
:102CB0000122D102204601F017FD002221152046F5
:102CC00001F012FD0221204601F0F6FC0026DFEDA6
:102CD000BC9A9FEDBC9A1FED518ADFEDBB8AB64DC1
:102CE0000128A5F1800413D0A86FF0286CDA00BF8A
:102CF000B6EE001AF0EE480A1E20B0EE690AFFF7A1
:102D0000E5FB0A2004F02BF9A86FF028F0DB5EE069
:102D1000A06A03287EDAE86FF0281BDAB6EE001A04
:102D2000F0EE480A1E20B0EE490AFFF7CFFB0A205A
:102D300004F015F9E86FF028F0DB0EE0B6EE001AAB
:102D4000F0EE480A1E20B0EE690AFFF7BFFB0A202A
:102D500004F005F9E86FF028F0DCA6610CE002222F
:102D6000F021F3EE0E1AB7EE001AF0EE480A1E201C
:102D7000B0EE680AFFF7D1FE686FBE28EFDBA069EE
:102D8000401CA0613228F7DBFEF7CFFDB6EE001A3B
:102D9000F0EE480A1E20B0EE680AFFF797FB4FF4EA
:102DA000FA6400BFFDF772FEA042FBDB48E000BF03
:102DB000B6EE001AF0EE480A1E20B0EE490AFFF700
:102DC00085FB0A2004F0CBF8A86FFA28F0DCA66196
:102DD0004FF487760CE002223146F3EE0E1AB7EE7E
:102DE000001AF0EE480A1E20B0EE680AFFF795FEC2
:102DF000686FBE28EFDBA069401CA0613228F7DBBA
:102E0000FEF793FDB0EE001AF0EE480A3220B0EE65
:102E1000680A00E01BE0FFF759FB40F6B83400BF3A
:102E2000FDF734FEA042FBDB0020FFF7BAFA0021D9
:102E3000BFEE080A6548FFF70AFBA86B0028FDD122
:102E4000BDEC048B0020BDE87040FFF7AABABDECD2
:102E5000048BA9E42DE9F041574C803C2DED028B09
:102E6000E06AFFF7E8FE4FF0000884F80280404671
:102E7000FFF797FA6F2004F072F802214D4801F035
:102E80001BFC1FEDBC0A514F4B4D3237504E0128F1
:102E90000ED0B0EE408AC4F8188000BFB0EE480AE9
:102EA000B0EE001AF0EE400A2820FFF70FFB54E0C6
:102EB000B0EE001AF0EE400A2820FFF707FB02E010
:102EC000FFF775F810B9686F2828F9DCE86F216CF6
:102ED00088421EDD14213846FFF7F5FA03E000BFF3
:102EE000FFF765F820B9206CE96F28308142F7DCE4
:102EF0000A213846FFF7E7FA04E000BFFFF757F86A
:102F0000002805D14021304601F0D6FB0128F5D03C
:102F1000B7E040F2523728213846FFF7D4FA02E0F2
:102F2000FFF745F820B9206CE96F28388142F7DBBC
:102F30000A213846FFF7C7FA04E000BFFFF737F869
:102F4000002805D14021304601F0B6FB0128F5D01C
:102F500097E000BFFFF72BF818B9686F4738812852
:102F6000F8D3A069401CA061322897DBFEF7DDFC96
:102F7000B0EE480AB0EE001AF0EE400A1E20FFF74D
:102F8000A5FA4FF4FA6802E0FFF711F818B9FDF757
:102F90007DFD4045F8DBFEF7C8FCB0EE480AB0EE18
:102FA000001AF0EE400A1420FFF790FA4FF47A78F6
:102FB00013E00000000402408000002034020020E2
:102FC00000409CC400409C440000E1447CFCFFFFA6
:102FD00000100240FEF7EBFF18B9FDF757FD404522
:102FE000F8DBB0EE480AB0EE001AF0EE400A192005
:102FF000FFF76CFA03E000BFFEF7D9FF10B9686F66
:103000002828F9DCA86F216C88424FF019011DDDDA
:103010004FF457773846FFF756FA02E0FEF7C7FF3E
:1030200020B9206CA96F28308142F7DC0A2138468C
:10303000FFF749FA03E000BFFEF7B9FF08BB4021E4
:10304000304601F039FB0128F6D01AE03846FFF788
:103050003AFA02E0FEF7ABFF20B9206CA96F2838DE
:103060008142F7DB0A213846FFF72DFA03E000BF63
:10307000FEF79DFF28B94021304601F01DFB0128D5
:10308000F6D0BDEC028B0020BDE8F041FFF789B916
:103090002DE9F0410221F84801F00EFBF74C012820
:1030A00040F25238F64EE06AC8F1000704F180059C
:1030B0000BD0FFF7C0FD6078012849D0002872D1FD
:1030C00019214801FFF7FFF963E0FFF7B4FD6078CD
:1030D000012806D0002875D128213846FFF7F3F9DA
:1030E00021E0282147464046FFF7EDF903E000BF05
:1030F000FEF75DFF20B9206CA96F2C388142F7DB09
:103100000A213846FFF7DFF903E000BFFEF74FFF63
:1031100088BB4021304601F0CFFA0128F6D04CE0C0
:10312000FEF745FF20B9206CA96F2C308142F7DCF7
:103130000A213846FFF7C7F903E000BFFEF737FF63
:10314000C8B94021304601F0B7FA0128F6D034E082
:1031500019213846FFF7B7F903E000BFFEF727FF54
:1031600020B9206CA96F2C388142F7DB0A21384640
:10317000FFF7A9F903E020E0FEF719FFE8B94021C5
:10318000304601F099FA0128F6D016E0FEF70FFF5D
:1031900020B9206CA96F2C308142F7DC0A2140460F
:1031A000FFF791F903E00DE0FEF701FF28B9402198
:1031B000304601F081FA0128F6D0BDE8F041002048
:1031C000FFF7EFB8BDE8F0812DE9F05FDFF8B082DE
:1031D0004FF480773946404601F06EFAA74D01263C
:1031E000A84C01280DD0BA4639464746404601F062
:1031F00063FA4FF000084FF003094FF4806B10B1F1
:103200000BE0AE7027E05946384601F055FA20B978
:103210008021384601F050FA28B15146384601F075
:103220004BFA18B107E085F802800BE059463846A2
:1032300001F042FA28B15146384601F03DFA28B172
:103240000CE0AE70E96A44F8219007E0206801289C
:1032500016D085F80280E86A44F820606069012889
:103260000CDB6068012809DBA068012806DBE06848
:10327000012803DB2069012800DB2660BDE8F09F00
:10328000E86A022144F820106863AE70E6E72DE991
:10329000F041FFF799FF7B4E00271836794D774CA8
:1032A00083E02868F0BBE76100E0B0B9E06A10E0B5
:1032B00055F8201061B9217F6170E062FFF7E8FEE8
:1032C000FFF782FFA078012807D02868012804D0E2
:1032D000A069401CA0610628EADBE069012816D13C
:1032E000E06A10E055F8201061B9217F6170E0625A
:1032F000FFF7CEFEFFF768FFA078012815D02868F9
:10330000012815D0A069401EA0610028EADCA07841
:1033100001280AD0286801280AD0E069401CE06131
:10332000022800E001E040DABFE7286801283CD12C
:10333000E76100E0B8B9E06A11E000BF56F820107C
:1033400055F82010032909D0217F6170E062FFF752
:103350009FFEFFF739FFA078012804D0A069401C28
:10336000A0610628EADBE069012816D1E06A10E0D6
:1033700056F8201055F82010032909D0217F6170DC
:10338000E062FFF785FEFFF71FFFA078012810D04D
:10339000A069401EA0610028EADCA078012808D0BE
:1033A000E069401CE0610228C4DBA07800283FF4FB
:1033B00078AFE06A206305E710B5FEF7B6FA2F4C48
:1033C0000120E062FFF746FDE06A206310BD10B502
:1033D000FEF7ABFA294C0220E062FFF73BFDE06A02
:1033E000206310BD10B5FEF7A0FA244C0320E06264
:1033F000FFF730FDE06A206310BD10B5FEF795FAC7
:103400001E4C0420E062FFF725FDE06A206310BD3A
:1034100010B5FEF78AFA194C0520E062FFF71AFD95
:10342000E06A206310BD2DE9F041154D02212846C8
:1034300001F042F9144E30B14FF40051304601F022
:103440003BF9002838D10D49012000228863C102D0
:10345000094801F049F90D4C0020E073E074E07573
:103460004FF4FA70FDF733FBFE20E074E07334464E
:103470004FF48046770018E000040240000000206E
:10348000001002401C020020000802400001002041
:103490000421284601F010F938B13146204601F0E8
:1034A0000BF910B1012003F05AFD3946284601F00E
:1034B00003F90128F9D1EBE784E62DE9F041FB4C53
:1034C0000025FB4FA06A01261E3008D0082138468F
:1034D00001F0F2F801280FD03046606272E6A06B6E
:1034E0000028FBD1FDF7D2FAB0F5FA6F06DC08210F
:1034F000384601F0E1F808B12846EEE700224FF423
:103500008071EC48A56201F0EFF866625AE62DE999
:10351000F05F2DED028BFEF708FAE44C002101224A
:10352000C4E90E1204F58070A170FE23C373C37446
:10353000C375827582748173A06A032872DADFF81A
:1035400070934FF480589FEDDC8ADA4EDFF86CB34D
:103550004FF4807A4FF4FA6714214FF4E160FEF7DC
:10356000B2FF55460EE0A06B012829D0606A012801
:1035700026D0FDF78BFAB84204DD002229463046FA
:1035800001F0B2F84146484601F096F80028EAD02A
:103590000020FEF706FF4FF4C870FDF798FAA06B05
:1035A000012811D0606A0128D6D1FDF76FFA206298
:1035B000FEF7BBF914210020FEF785FF142516E065
:1035C0000220FEF7EEFEE3E70020FEF7EAFEFDF73D
:1035D0005DFA2062FEF7A9F9A946B0465D464FF4B0
:1035E000006A05265FE000BFFEF7E1FC40B9FDF789
:1035F0004DFA216A01EB011191FBF5F18842F3DBF1
:103600000221584601F058F801280CD0B0EE001AFB
:10361000F0EE480A1E209FEDAA0AFEF757FF4FF46E
:1036200061751FE072E0FEF780F9DFEDA60A1E204B
:10363000B0EE480AB0EE601AFEF748FF4FF4FA7594
:1036400004E000BFFEF7B3FC002885D1FDF71EFAA9
:10365000A84281DAF6E700BFFEF7A9FC40B90120D5
:1036600003F07DFCFEF705FDFEF75DFDA842F3DBF0
:10367000FEF75BF91E219448FEF725FF4FF41675FF
:10368000FDF704FAA842FBDB66E71E210020FEF7E7
:103690001AFF00225146284601F026F8002249462A
:1036A000404601F021F8FDF7F1F9216A490091FB4C
:1036B000F6F18842E9DB0020FEF773FEFEF735F9EC
:1036C0000221284600F0F8FF784C4FF000018034CA
:1036D0000128B7EE080A03D00020FEF7B8FE1CE070
:1036E0007948FEF7B4FEA06B0028FDD1FEF71DF966
:1036F000B0EE480AB7EE001AF0EE400A2320FEF7BB
:10370000E5FE00BFFDF7C2F9B842FBDBBDEC028B62
:10371000B4E500BFFEF74BFC10B9A06B0028F9D14F
:10372000BDEC028B0020BDE8F05FFEF73ABE2DE94C
:10373000F05F2DED048BFFF774FA6F2003F00FFCA0
:10374000DFF878A10221504600F0B6FF4FF4006B7D
:103750004FF000084FF47A699FED579A4FF496772F
:103760009FED588A514D41F6641605F180040128F9
:1037700009D0B0EE480AB7EE001AF0EE400A322047
:10378000FEF7A4FE0FE1B0EE480AB6EE001AF0EE26
:10379000400A3220FEF79AFE03E000BFFEF707FC66
:1037A00018B9FDF773F9B842F8DBB0EE480AB6EE87
:1037B000001AF0EE400A6420FEF788FE4F4602E051
:1037C000FEF7F5FB18B9FDF761F9B842F8DBB0EE8A
:1037D000480AB6EE001AF0EE400A5020FEF776FED8
:1037E00003E000BFFEF7E3FB18B9FDF74FF9B04265
:1037F000F8DBB6EE001AF0EE480A3C209FED330AE3
:10380000FEF764FE03E000BFFEF7D1FB10B9606F66
:103810004628F9DC0020FEF7C4FD4646DFED2C9A71
:10382000DFED2C8A4FF4A277C5F818800CE0002257
:103830001E21F0EE691AB7EE001AF0EE480A2820B1
:10384000B0EE680AFFF7B4F9E06FB842EFDDA8699F
:10385000401CA8613228F7DBAE614FF4C0760CE063
:103860001E210022F0EE691AB7EE001AF0EE480AA7
:103870000846B0EE680AFFF79BF9E06FB042EFDD53
:10388000A869401CA8613228F7DB0020FEF789FDFB
:10389000FEF74BF8B0EE480A9FED0F1AF0EE400A23
:1038A0003C20FEF713FE4FF4E1651AE00000002013
:1038B0000010024000080240000061C40004024001
:1038C0000000E144000000007CFCFFFF00004843D2
:1038D0000000484200006144CDCC4C3EFEF767FB3F
:1038E00018B9FDF7D3F8A842F8DBB0EE480A1E205D
:1038F000B0EE401AF0EE400AFEF7E8FD4FF4947186
:1039000003E000BFFEF753FB10B9606F8842F9DA9D
:10391000012259465646504600F0E6FE0122910229
:10392000304600F0E1FE01221102F74800F0DCFE13
:10393000FDF7FBFF9FEDF51AF0EE480A3220B0EEDE
:10394000490AFEF7C3FD4FF4FA5602E0FEF72FFBDB
:1039500018B9FDF79BF8B042F8DB0020FEF721FD17
:103960000021B0EE040A2846FEF771FDA06B002886
:10397000FDD1FEF716FDF0EE480A1E20B0EE601AEB
:10398000B0EE490AFEF7A2FD04E000BFFEF70FFB10
:10399000002802D1E06F5028F8DCBDEC048B6DE408
:1039A000FEF705FB18B9FDF771F8B842F8DBB0EE89
:1039B000480AB7EE001AF0EE400A7820FEF786FDBE
:1039C00003E000BFFEF7F3FA18B9FDF75FF84845CA
:1039D000F8DBB0EE480AB7EE001AF0EE400A6420B9
:1039E000FEF774FD41F64C5903E000BFFEF7DFFA25
:1039F00018B9FDF74BF84845F8DBB7EE001AF0EEC2
:103A0000480A50209FEDC20AFEF760FD03E000BFA8
:103A1000FEF7CDFA10B9606F6428F9DC0020FEF7DC
:103A2000C0FC00222321DFEDBB1AF0EE498AB0EE84
:103A3000001AF0EE480A3220B0EE680AFFF7B8F834
:103A40004FF4AF7103E000BFFEF7B1FA10B9A06FF9
:103A50008842F9DB0020FEF7A4FCFDF766FFB0EE1C
:103A6000480AB0EE001AF0EE400A9620FEF72EFD4E
:103A700040F6C41903E000BFFEF799FA18B9FDF744
:103A800005F84845F8DBB0EE480A1E20B0EE401AB3
:103A9000F0EE400AFEF71AFD03E000BFFEF787FADA
:103AA00010B9606FB842F9DC0020FEF77AFCB0EE86
:103AB000680AB0EE001AF0EE400A1E20FEF706FD7E
:103AC0004FF4617706E000BFFEF771FA40B90120BC
:103AD00003F045FAFEF7CDFAFEF725FBB842F3DB1B
:103AE0001E210020FEF7EFFC03E000BFFEF75FFAA7
:103AF00010B9606F1E28F9DCFDF717FF0A210020BE
:103B0000FEF7E1FC4FF4C87703E000BFFEF74FFA81
:103B100018B9FCF7BBFFB842F8DB0020FEF741FC08
:103B200001221102784800F0DFFD0122594650467B
:103B300000F0DAFDFFF775F86F2003F010FA5FED83
:103B4000A08AC5F8188000BFB0EE001AF0EE480A4F
:103B50003220B0EE680AFEF7B9FC02E0FEF727FA61
:103B600018B9FCF793FFB042F8DBA869401CA861C4
:103B70003228E9DB0020FEF714FC0021B7EE000A32
:103B80006548FEF764FC02E0FEF711FA10B9A06B7D
:103B90000028F9D1BDEC048B0020BDE8F05FFEF7F2
:103BA00000BC10B55D4C606B012801D1FFF704FC2F
:103BB000606B022801D1FFF70AFC606B032801D17A
:103BC000FFF710FC606B042801D1FFF716FC606B57
:103BD000052802D1BDE810401AE410BD504930B4A8
:103BE0000A684E4801F11803012A1BD001228261A4
:103BF00051F8224084B3521C042AF9DB82615A69CD
:103C0000012A30DB1A69012A2DDBDA68012A2ADB56
:103C10000322826153F8224051F82240032C1ED027
:103C2000C26220E05FF0050253F8224051F82240C2
:103C3000032C01D0C26202E0521E012AF4DAC06AEB
:103C400005281BD004281CD003281DD002281ED014
:103C500001281FD030BC7047FFE7C262CEE7521C7C
:103C60008261052AD6DDC06A04280AD003280BD059
:103C700002280CD001280DD00528EBD130BCFFF76D
:103C8000C7BB30BCFFF7B9BB30BCFFF7ABBB30BC28
:103C9000FFF79DBB30BCFFF78FBBFFF738FC1F4C15
:103CA000E06A012808D0022809D003280AD0042895
:103CB0000BD005280CD00DE0FFF77EFB0AE0FFF7E4
:103CC00086FB07E0FFF78EFB04E0FFF796FB01E0C1
:103CD000FFF79EFBFFF778FA07E000BFFFF774FAE3
:103CE000A07801281ED0FFF7D3F9A0780028F5D0DE
:103CF0000025A570FEF7D3FFFFF709FC606BA0B1AC
:103D0000FFF74FFF65631AE000080240CDCC4C3F3F
:103D1000000048C3000048C23EFEFFFF0000002034
:103D20001C020020FEF7A4FFE2E7FFF757FF06E0C2
:103D3000FFF74AFAA078012806D0FFF7A9F9A07882
:103D40000028F5D0A570D7E7FEF792FFFEF7A7FF92
:103D5000F5E7FC490120C8620221FB4800F0ACBC39
:103D6000F8490220C8627047F6490320C8627047CC
:103D7000F4490420C8627047F2490520C8627047C0
:103D80002DE9F05F2DED068BFEF74BFFEE4F022184
:103D9000384600F091FCDFEDEDAA1FED24AA0026C5
:103DA000DFEDEB9A9FEDEB9AE64C4FF4C0794FF4C0
:103DB000E1689FEDE98A4FF4947ADFEDE88A012803
:103DC000B6EE001AF0EE480A4FF0140006D01FEDD0
:103DD000300AFEF77BFB04F18005B4E09FEDE00ABA
:103DE000FEF774FBD74D803503E000BFFEF7DFF828
:103DF00010B9686F4628F9DC0020FEF7D2FA4FF4BC
:103E0000A27BA6610CE000221E21F0EE691AB7EE3B
:103E1000001AF0EE480A2820B0EE680AFEF7C8FE45
:103E2000E86F5845EFDDA069401CA0613228F7DB40
:103E3000A6614E460CE01E210022F0EE691AB7EE94
:103E4000001AF0EE480A0846B0EE680AFEF7B0FE27
:103E5000E86FB042EFDDA069401CA0613228F7DBBB
:103E60000020FEF79EFAFDF760FDB0EE480AB0EEC6
:103E70006A1AF0EE400A3C20FEF728FB444602E0B6
:103E8000FEF795F818B9FCF701FEA042F8DBB0EE9A
:103E9000480A1E20B0EE401AF0EE400AFEF716FB6C
:103EA000514602E0FEF783F810B9686F8842F9DAEC
:103EB0000122D102384600F017FC01229102384657
:103EC00000F012FC01221102A64800F00DFCFDF7E3
:103ED0002CFDB0EE4A1AF0EE480A3220B0EE490A44
:103EE000FEF7F4FA4FF4FA6603E000BFFEF75FF85E
:103EF00018B9FCF7CBFDB042F8DB0020FEF751FA11
:103F00000021B7EE080A2046FEF7A1FAA86B0028A8
:103F1000FDD1F0EE480A1E20B0EE601AB0EE490A5C
:103F2000FEF7D4FA04E000BFFEF741F8002802D102
:103F3000E86F5028F8DCBDEC068BBDE8F09F00BFB1
:103F4000FEF735F810B9686F2828F9DC0020FEF775
:103F500028FAA6610CE000221E21F0EE691AB7EEE5
:103F6000001AF0EE480A2820B0EE490AFEF720FEBB
:103F7000A86FFA28EFDBA069401CA0613228F7DBAC
:103F8000A6614E460CE01E210022F0EE691AB7EE43
:103F9000001AF0EE480A0846B0EE490AFEF708FE9D
:103FA000A86FB042EFDDA069401CA0613228F7DBAA
:103FB0000020FEF7F6F9FDF7B8FCB0EE480AB0EEC7
:103FC0006A1AF0EE400A3C20FEF780FA444602E00E
:103FD000FDF7EDFF18B9FCF759FDA042F8DBB0EE94
:103FE000480A1E20B0EE401AF0EE400AFEF76EFAC4
:103FF000514602E0FDF7DBFF10B9686F8842F9DA3D
:104000000122D102384600F06FFB012291023846AE
:1040100000F06AFB01221102524800F065FBFDF737
:1040200084FCB0EE4A1ADFED500A3220B0EE680A86
:10403000FEF74CFA40F2FE6103E000BFFDF7B7FF68
:1040400018B9FEF716F88842F8DBF0EE480A1E2091
:10405000B0EE601AB0EE680AFEF738FA05E000BF6D
:10406000FDF7A5FF00287FF466AFE86F5028F7DC66
:1040700061E7FFF785FEFFF74AFAFFF7C9F9FFF797
:1040800006F9FEF7F5FDFEF70AFE2E4C002500BFEF
:10409000FFF73DFA606B48B1FFF783FDFFF7F7F8D4
:1040A000FEF7E6FDFEF7FBFD656307E0FFF796FD13
:1040B000FFF7EDF8FEF7DCFDFEF7F1FDA570E7E791
:1040C000FFF725FAFFF7A4F9FFF7E1F8FEF7D0FDB7
:1040D000FEF7E5FD00251B4CFFF719FA606B48B1B0
:1040E000FFF75FFDFFF7D3F8FEF7C2FDFEF7D7FD40
:1040F000656307E0FFF772FDFFF7C9F8FEF7B8FD4B
:10410000FEF7CDFDA570E7E710B54FF46174FDF73C
:104110000CFCB0EE001ADFED110A1E209FED0D0A17
:10412000FEF7D4F907E000BFFDF741FF002808D1F2
:10413000012002F014FFFDF79CFFFDF7F4FFA04201
:10414000F2DB10BD0000002000040240CDCC4C3E4C
:1041500000004842000061C400000000000061440B
:1041600000004843000802400000E1441120FDF730
:10417000B0FD0F2002F0F3FEF8E70A2002F0EFFE98
:10418000FBE7414CFEF74EFCFFF74DF9FFF795F9C1
:10419000207808B9FEF738FB012002F0E0FEF1E7D5
:1041A0001FB5FCF7A0FCFCF7D1FCFCF705FEFCF703
:1041B000A6FEFCF75FFFFCF7E5FFFCF747FD4FF4B9
:1041C000E1342046FDF786F82046FDF707F9204642
:1041D000FDF78AF9E000FDF7AAFAFDF7B3FBFDF75A
:1041E000A4FB00244FF480750094019402942346AC
:1041F0002A4626A12A48039402F0DAFC009401948E
:10420000029400232A4627A12B48039402F0D0FCF5
:10421000EF00DFF8A8802A4E2A4C6D0101223946B2
:10422000404600F061FA0BE0FEF73FFB2078000704
:1042300001D4FFF745FF2946304600F03DFA18B19A
:10424000A0797328EAD1EFE7FFF713FF7FB50024C9
:104250004FF4807500940194029423462A461AA1D3
:104260001C48039402F0A4FC0094019402940023DF
:104270002A4619A11B48039402F09AFC02F0BEFFE3
:1042800004B0002070BD0000000000207461736B5A
:10429000526F626F74416E616C7974696373000070
:1042A000834100087461736B446965754B68696587
:1042B0006E436F43617500007B41000800040240BB
:1042C000001002406C0100207461736B4D61696ED7
:1042D00000000000A14100087461736B4779726FA0
:1042E000000000006D4100080CB50020514901900C
:1042F00000900A6842F480320A604FF4A0630A68B2
:1043000002F400320092019A521C0192009A12B9F2
:10431000019A9A42F3D10A68920334D501200090A1
:1043200044484030026842F08052026042480268CD
:1043300042F4804202603F4808300268026002682E
:1043400042F400420260026842F4A0520260031F7D
:104350003A4A1A600A6842F080720A600A6892015A
:10436000FCD5374A40F205611160016821F0030174
:104370000160016841F0020101600168C1F381013F
:104380000229FAD10CBD00900CBD2A4810B5016875
:1043900041F001010160274A0021083211600268E2
:1043A000284B1A400260031D274A1A60026822F453
:1043B000802202601F480C300160FFF795FF2349FF
:1043C0004FF00060086010BD70B51A4C08342068CA
:1043D0001F4A10F00C011F4804D05510042903D0C7
:1043E000082903D002601BE0056019E01149091D8E
:1043F0000B68C3F380560B6803F03F0316B1B5FB9F
:10440000F3F201E0B2FBF3F20B680968C3F388131F
:104410005A43C1F30141491C4900B2FBF1F101606B
:1044200021680C4AC1F30311121D515C0268CA4095
:10443000026070BD00380240007000400854400720
:10444000003C0240FFFFF6FE1030002408ED00E0C3
:104450000024F400880100200648804706480047F1
:10446000FEE7FEE7FEE7FEE7FEE7FEE7FEE7FEE724
:10447000FEE7FEE78B43000889010008284908434E
:1044800028490860704730B50F22C47801780123AD
:10449000FCB1244C246801F1E02104F4E064C4F58B
:1044A000E064C4F30724C4F10405E2404478AC405E
:1044B0008578154025432A0181F80024007800F012
:1044C0001F018B404009800000F1E020C0F800315E
:1044D00030BD01F01F0083404809800000F1E0205A
:1044E000C0F8803130BD104A114001430D48001F13
:1044F000016070470B4A121D0029116801D0014369
:1045000000E08143116070474FF0E0210428086902
:1045100003D020F004000861704740F00400FAE77F
:104520000000FA050CED00E080FFFF1F7C4910B58C
:10453000884206D10121084600F058FA00210120E6
:104540004FE07849884206D10121022000F04EFA5E
:104550000021022045E07449884206D1012104204F
:1045600000F044FA002104203BE07049884206D163
:104570000121082000F03AFA0021082031E06C49BE
:10458000884206D10121102000F030FA00211020CD
:1045900027E06849884206D10121202000F026FA50
:1045A000002120201DE06449884206D101214020DD
:1045B00000F01CFA0021402013E06049884206D137
:1045C0000121802000F012FA0021802009E05C49DE
:1045D00088420AD184150121204600F007FA002103
:1045E0002046BDE8104000F001BA10BDF0B5002330
:1045F000012403270D6804FA03F21540954242D1C5
:10460000D0F800C05E0007FA06F52CEA050CC0F8E9
:1046100000C091F804C0D0F800E00CFA06FC4CEAA7
:104620000E0CC0F800C091F804C0BCF1010F02D01C
:10463000BCF1020F1FD1D0F808C02CEA050CC0F85D
:1046400008C091F805C0D0F808E00CFA06FC4CEA66
:104650000E0CC0F808C0D0F804C02CEA020CC0F858
:1046600004C0426891F806C00CFA03FC1FFA8CFCE7
:1046700042EA0C024260C268AA43C260CA79C568B5
:10468000B2402A43C2605B1C102BB3D3F0BD4FF67F
:10469000FF7101600021017141718171C171704729
:1046A00008B541F480320092C261C1610099C161D4
:1046B000C169C069009008BD0246002012690A4223
:1046C00000D001207047006980B270470246002088
:1046D00052690A4200D001207047406980B2704799
:1046E00001837047418370470AB10183704741835A
:1046F00070474161704742694A40426170474B07C9
:10470000DB0E9A40C90810B500EB8100016A0F2446
:104710009C40A1430162016A1143016210BD000087
:10472000000002400004024000080240000C024069
:10473000001002400014024000180240001C024019
:1047400000200240EA48016841F001010160E84AA6
:104750000021083211600268E64B1A400260031D16
:10476000E54A1A60026822F480220260E0480C30B8
:1047700001607047DE490022891C0A70087070478A
:1047800002460020510901290CD002290CD0D84939
:104790007431096802F01F02012393400B4200D0DC
:1047A00001207047D249F4E7D1497031F1E718B5DB
:1047B00000204FF4A06400903120FFF7E1FF009942
:1047C000491C0091A14201D00028F5D03120FFF70B
:1047D000D7FF002800D0012018BDC5490A6822F083
:1047E000F80242EAC00008607047C4490860704798
:1047F000BF49002270310A700A70012802D00428D3
:1048000001D1052008707047BD490860704741EA32
:1048100082115A0810B5BB4B029C03EB02421143B4
:10482000014341EA0460B249091D086010BDB34963
:1048300008667047800140EA0170AD498431086024
:104840007047AE4988667047AC49C8647047A84A4B
:1048500008321368084323F0EC6318431060704774
:10486000A34A08321368084323F0784318431060C2
:1048700070479F4A0832116821F00301014311601B
:1048800070479B480830006800F00C007047984A59
:104890000832116821F0F001014311607047944A19
:1048A0000832116821F4E0510143116070479049CA
:1048B00008310A6822F4604242EAC000086070478A
:1048C00070B58B4A083211688F4C11F00C0104D07E
:1048D0006610042903D0082903D004601BE0066099
:1048E00019E08349091D0B68C3F380550B6803F079
:1048F0003F0315B1B6FBF3F301E0B4FBF3F30C682F
:104900000968C4F388146343C1F30141491C490099
:10491000B3FBF1F1016011680F2303EA11117B4B26
:104920005C5C0168E14041601468072505EA942455
:104930001C5D21FA04F48460126805EA52329A5C24
:10494000D140C16070BDC0F30121032908D1684A7C
:104950000832116821F4F8136D49014019431160C0
:10496000634970310A68C0F30B0002430A60704764
:1049700063494439086070476149403908607047AD
:104980005E49C1F85C017047594A3032002911680C
:1049900001D0014300E0814311607047544A343232
:1049A0000029116801D0014300E081431160704784
:1049B0004F4A38320029116801D0014300E0814399
:1049C000116070474A4A40320029116801D0014302
:1049D00000E0814311607047454A44320029116864
:1049E00001D0014300E0814311607047404A10321A
:1049F0000029116801D0014300E081431160704734
:104A00003B4A14320029116801D0014300E0814380
:104A100011607047364A18320029116801D00143ED
:104A200000E0814311607047314A2032002911684B
:104A300001D0014300E08143116070472C4A2432C9
:104A40000029116801D0014300E0814311607047E3
:104A5000274A50320029116801D0014300E0814308
:104A600011607047224A54320029116801D0014375
:104A700000E08143116070471D4A583200291168D7
:104A800001D0014300E0814311607047184A603251
:104A90000029116801D0014300E081431160704793
:104AA000134A64320029116801D0014300E08143B8
:104AB000116070470E4A0D320029117801D0014370
:104AC00000E081431170704709487430016841F07B
:104AD0008071016070470146054A00200C3212685F
:104AE0000A4200D00120704701490E31087070471A
:104AF00000380240FFFFF6FE10300024000047425D
:104B0000800E47420000FFFF0024F4009C010020BB
:104B1000FFFCFF0F10B501210C022046FFF78EFFAE
:104B20002046BDE810400021FFF788BF30B542683D
:104B3000C84B0C791A400B6842EA042213434360C5
:104B40008268C54B4D791A40D1E9034323438C68F1
:104B500044EA4504234313438360C26A097D22F477
:104B60007002491EC9B242EA0151C16230BD002142
:104B70000160017141718160C160016101210175B4
:104B80007047B64B10B5D3F80423B5490A40D0E9B5
:104B900000142143D0E90240044321431143C3F8E8
:104BA000041310BD0021016041608160C160704745
:104BB0000029816802D041F0010101E021F00101EA
:104BC000816070474268A74B1A400A4342607047B1
:104BD000416282627047426822F01F020A434260CB
:104BE00070479E490028D1F8040302D040F4000029
:104BF00001E020F40000C1F8040370479749002841
:104C0000D1F8040302D040F4800001E020F48000D9
:104C1000C1F80403704770B5072409290AD9C5688B
:104C2000A1F10A0606EB4606B440A543B3401D4376
:104C3000C56007E0056901EB4106B440A543B340F8
:104C40001D4305611F23072A09D2446B521E02EB44
:104C5000820293409C4391400C43446370BD0D2AF3
:104C600009D2046BD21F02EB820293409C43914015
:104C70000C43046370BDC46A0D3A02EB8202934098
:104C80009C4391400C43C46270BD816841F08041F7
:104C900081607047014600208968490200D50120E3
:104CA00070470029816802D041F4806101E021F45D
:104CB0008061816070470029816802D041F0020163
:104CC00001E021F00201816070474268491E22F430
:104CD000604242EA4131416070470029416802D098
:104CE00041F4006101E021F4006141607047C06C53
:104CF00080B270475948D0F808037047002981688E
:104D000002D041F4807101E021F48071816070472C
:104D10000029816802D041F4007101E021F40071A2
:104D2000816070474D490028D1F8040302D040F457
:104D3000005001E020F40050C1F80403704770B542
:104D4000072409290AD9C568A1F10A0606EB460617
:104D5000B440A543B3401D43C56007E0056901EBBE
:104D60004106B440A543B3401D430561836BC3F3C3
:104D70000154121B921C02EB82041F22A240934397
:104D8000A1400B43836370BD826B491E22F4401225
:104D900042EA01518163704708B5084400900260FF
:104DA00008BD826822F470220A43826070478268DC
:104DB00022F440120A4382607047816841F4800106
:104DC00081607047014600208968490200D50120B2
:104DD00070470029416802D041F4806101E021F46C
:104DE0008061416070470029416802D041F48051E0
:104DF00001E021F480514160704708B50844283033
:104E00000090006880B208BD01238B4041680AB160
:104E1000194300E099434160704702460020126840
:104E20000A4200D001207047C9430160704730B585
:104E30000246002053680C0A01258D4011682B4062
:104E4000214202D0002B00D0012030BD6FEA112199
:104E500001607047FFFEFFFCFDF7FFC0002001402E
:104E6000E030FCFFFFFD3FFF2DE9F043016821F03A
:104E7000010101600021016041608160C160016148
:104E800021214161B849B84A3D251039904202D1EB
:104E90008D60BDE8F083B44A4FF4746618329042D6
:104EA00001D18E60F5E7B04A4FF47417303290426A
:104EB00001D18F60EDE7AC4A4FF0746C48329042FC
:104EC00002D1C1F808C0E4E7A74BA84A6033984272
:104ED00001D1CA60DDE7A44CA54B7834A04201D1D2
:104EE000CB60D6E7DFF88082A24C08F190084045FD
:104EF00001D1CC60CDE7DFF870824FF03D5908F169
:104F0000A808404502D1C1F80C90C2E79A49DFF8E1
:104F100068820839404501D10D60BAE7964D1835D1
:104F2000A84201D10E60B4E7934D3035A84201D1BB
:104F30000F60AEE7904D4835A84202D1C1F800C0DD
:104F4000A7E78D4D8C496035091FA84201D10A6041
:104F50009FE7894A7832904201D10B6099E7864AEF
:104F60009032904201D10C6093E7834AA83290427C
:104F70008FD1C1F800908CE730B503687F4ACC68C8
:104F800013400A682243D1E905452C432243CC69EA
:104F900022430C6A22434C6A22438C6A22434C6BA4
:104FA00022438C6B22431A430260426922F00703BA
:104FB000D1E90B2422431A4342610A6942604A68DC
:104FC00082608968C16030BD0021016041608160FC
:104FD000C160016141618161C161016241628162BF
:104FE000C16201634163816370470029016802D097
:104FF00041F0010101E021F0010101607047002949
:10500000016802D041F4004101E021F40041016057
:1050100070470029016802D041F0200101E021F031
:1050200020010160704741607047406880B270475E
:10503000002A026802D042F4002201E022F4002299
:105040000260016170470029016802D041F48021AB
:1050500001E021F48021016070470AB101617047CD
:10506000C1607047014600200968090300D501208E
:105070007047014600200968C90700D00120704729
:10508000406900F03800704702463B4B00209A42CE
:1050900002D2354A103A01E0374A103A8B0001D566
:1050A000526800E01268364B1A400A4200D00120D4
:1050B0007047314A904202D22B48103801E02E4806
:1050C00010382F4A8B0001EA020101D5C1607047F8
:1050D000816070470B0607D5436912B143F0800326
:1050E00001E023F080034361802908D0002A026890
:1050F00001F01E0101D00A4300E08A4302607047BC
:1051000030B51D4A0024904202D2174B103B01E0FB
:10511000194B103B1B4A114205D01E2202EAD12531
:1051200002682A4002E0406900F08002880001D550
:10513000586800E01868124B1840084201D002B1CC
:105140000124204630BD0C4A904202D20648103855
:1051500001E0094810380A4A8B0001EA020101D532
:10516000C160704781607047106002403D000020C0
:10517000400F002000003D20106402403F801CF0E2
:105180007D0F7D0F3C0F3C0F374900200860091D43
:105190000860091D0860091D08603349334814314F
:1051A0000860704730B530498379026853B30B68A3
:1051B00093430B600A1D13680468A34313600279CC
:1051C0000A441368046823431360274A08321368AB
:1051D0000468A3431360131D1C680568AC431C607E
:1051E0004479102C05D021440A68006802430A6003
:1051F00030BD1168046821431160196800680143DB
:10520000196030BD0079084401689143016030BDE8
:105210000021016001710C224271817170471249B5
:1052200010310A6802430A60704701460E4A0020A6
:10523000143212680A4200D0012070470A49143122
:1052400008607047084A014600201268064B0A4071
:1052500014331B680B4202D0002A00D00120704793
:105260000149143108607047003C0140FFFF7F0096
:10527000FE4910B5884206D101210846FFF7DEFB42
:10528000002101205BE0B0F1804F09D0F84988424D
:105290000DD101210220FFF7C7FB0021022070E0A1
:1052A00001210846FFF7C0FB0021012069E0F14918
:1052B000884206D101210420FFF7B6FB002104201B
:1052C0005FE0ED49884206D101210820FFF7ACFBE1
:1052D0000021082055E0E949884206D1012110202B
:1052E000FFF7A2FB002110204BE0E549884206D1E0
:1052F00001212020FFF798FB0021202041E0E14917
:10530000884206D101210220FFF798FB00210220EC
:1053100015E0DD49884202D101210C040AE0DB4995
:10532000884202D101214C0404E0D94988420AD1C3
:1053300001218C042046FFF781FB00212046BDE8B7
:105340001040FFF77BBBD349884206D101214020A2
:10535000FFF76AFB0021402013E0CF49884206D1C5
:1053600001218020FFF760FB0021802009E0CB496C
:1053700088420AD1841501212046FFF755FB002100
:105380002046BDE81040FFF74FBB10BD30B5028886
:10539000B64BBC4C98420DD0A0420BD0B0F1804F20
:1053A00008D0B34DA84205D0B24DA84202D0B24DAC
:1053B000A84203D122F070054A882A43AF4DA84283
:1053C00006D0AF4DA84203D022F440750A892A4383
:1053D00002804A68C2620A880285984201D0A042CF
:1053E00001D1897A01860121818230BD4FF0FF31E0
:1053F00041600021018001814180817270470185F7
:1054000082827047028822F070020A43028070474D
:1054100041627047C1627047406A7047008D7047B3
:105420000029018802D041F0020101E021F00201CF
:10543000018070470029018802D041F0040101E099
:1054400021F00401018070470029018802D041F059
:10545000800101E021F0800101807047028822F084
:105460000802028002880A4302807047028822F400
:105470004072028002880A43028070470029018836
:1054800002D041F0010101E021F0010101807047EB
:1054900030B5028C22F001020284028C8388048BD6
:1054A00022F0020224F073050C882C438D891543E9
:1054B0004A882A436D4DA84202D0724DA8420DD1B0
:1054C00022F00805CA8923F440732A4322F0040518
:1054D0008A882A430D8A1D434B8A2B438380048389
:1054E00089684163028430BD70B5028C22F01002DD
:1054F0000284028C8488038B0D8823F4E6464FF6E1
:10550000FF7303EA052535438E8922F0200203EA62
:10551000061616434A8803EA02123243534EB0423B
:1055200002D0584EB04215D122F08006CA8924F428
:10553000406403EA0212324322F040068A8803EAFA
:10554000021232430E8A03EA860626434C8A03EA95
:10555000840434438480058389688163028470BD38
:1055600070B5028C22F480720284028C8488838B52
:105570000D8823F073031D4322F400738E894FF6C8
:10558000FF7202EA06261E434B8802EA03233343D6
:10559000364EB04202D03B4EB04215D123F40066E5
:1055A000CB8924F4405402EA0323334323F4806676
:1055B0008B8802EA032333430E8A02EA0616264347
:1055C0004C8A02EA04143443848085838968C16369
:1055D000038470BD70B5028C22F480520284048C66
:1055E0008288838B0D8823F4E6464FF6FF7303EA27
:1055F0000525354324F400568C8903EA04343443EA
:105600004E8803EA06362643184CA04202D01D4CB1
:10561000A04205D122F480440A8A03EA821222437E
:105620008280858389680164068470BD00210180C1
:105630004180818081608181C18101824182704786
:1056400030B50124058C00F118038C40A543058476
:1056500031B308292CD0091FC1F34E00184401684A
:1056600048F6FF731940016001681AE0000001402C
:105670000004004000080040000C00400010004002
:10568000001400400004014000400140004401407B
:105690000048014000180040001C0040002000406D
:1056A00006E04FF6FF7303EA02221143016030BDAA
:1056B00003EB510001684FF68F73194001600168D8
:1056C000F3E74163704781637047C16370470164CA
:1056D0007047028B22F070020A4302837047028BEC
:1056E0004FF6FF7322F4E04203EA012111430183E4
:1056F0007047828B22F070020A4382837047828B4C
:105700004FF6FF7322F4E04203EA01211143818343
:105710007047028B22F008020A4302837047028B13
:105720004FF6FF7322F4006203EA01211143018363
:105730007047828B22F008020A4382837047828B73
:105740004FF6FF7322F4006203EA012111438183C3
:105750007047028B22F004020A4302837047028BD7
:105760004FF6FF7322F4806203EA012111430183A3
:105770007047828B22F004020A4382837047828B37
:105780004FF6FF7322F4806203EA01211143818303
:105790007047028B22F080020A4302837047028B1B
:1057A0004FF6FF73C2F30E0203EA01211143018396
:1057B0007047828B22F080020A4382837047828B7B
:1057C0004FF6FF73C2F30E0203EA012111438183F6
:1057D0007047028C22F002020A4302847047028C56
:1057E00022F008020A4302847047028C4FF6FF73CE
:1057F00022F0200203EA0111114301847047028C58
:105800004FF6FF7322F0800203EA01111143018475
:105810007047028C4FF6FF7322F4007203EA0121F5
:10582000114301847047028C4FF6FF7322F400622B
:1058300003EA0121114301847047028C4FF6FF7384
:1058400022F4005203EA013111430184704710B57C
:105850000123048C8B409C430484038C8A401343B3
:10586000038410BD10B50423048C8B409C43048436
:10587000038C8A401343038410BD828B22F4406260
:105880008283828B4FF6FF7303EA01210A438283EE
:105890007047828B22F00C028283828B0A438283C0
:1058A0007047028B22F440620283028B4FF6FF7333
:1058B00003EA01210A4302837047F0B5048C24F007
:1058C00010040484078B068C4FF6FF7404EA01155C
:1058D00027F4734704EA0331394304EA02220A43F6
:1058E00026F0A001294341F0100102830184F0BD9C
:1058F000028B22F00C020283028B0A430283704760
:105900002DE9F0410D460E884988AA882B89044666
:105910000EB3042E26D0082E268C4FF6FF7028D00A
:1059200026F480562684A78B268C00EA022200EA01
:10593000013127F473473A4300EA0330104326F459
:1059400020420A4342F48051A0832184E988204602
:10595000BDE8F04191E700F062F9E9882046BDE832
:10596000F041C5E7FFF7A9FFE9882046BDE8F0410F
:1059700097E726F480762684A78B268C00EA0121FF
:1059800000EA0310104327F0F307384326F420629F
:105990000A4342F48071A0832184E9882046BDE84F
:1059A000F04176E700210180418001228280C180A0
:1059B000018170472DE9F0410C46002649880746D1
:1059C000012501B90226A288012A00D102252088DA
:1059D00023890028384610D0FFF76FFFE18838464A
:1059E000FFF75FFF23892A463146384600F017F952
:1059F000E1883846BDE8F0417AE700F010F9E18827
:105A00003846FFF775FF23892A4631463846FFF7A7
:105A100054FFE1883846BDE8F04142E7406B7047EB
:105A2000806B7047C06B7047006C704710B50A8878
:105A30004B88CC881A438B8823431A430B891A431B
:105A40004B8989891A430A43A0F8442010BD0021DC
:105A5000018041808180C1800181418181817047C5
:105A6000002930F8441F02D041F4004101E0C1F3A5
:105A70000E01018070470029818802D041F00401A5
:105A800001E021F00401818070470029818802D063
:105A900041F0010101E021F0010181807047002AFD
:105AA000828901D00A4300E08A4382817047818263
:105AB000704702460020128A0A4200D00120704737
:105AC000C9430182704702460020138A92890B4223
:105AD00002EA010202D0002A00D001207047C94327
