:020000040800F2
:1000000098300020554600084502000847020008C5
:10001000490200084B0200084D02000800000000E1
:100020000000000000000000000000009D0100082A
:100030004F02000800000000E10100088B6C00087E
:100040006F4600086F4600086F4600086F460008BC
:100050006F4600086F4600086F4600086F460008AC
:1000600017040008630400086F4600080103000835
:10007000C30200084D0300086F460008750200081F
:100080006F4600087D0200086F4600086F460008B2
:100090006F4600086F4600086F4600086F4600086C
:1000A0006F46000871030008910300086F460008BE
:1000B00093030008B3030008D30300086F46000849
:1000C0006F4600086F4600086F46000813040008DA
:1000D0006F460008550200086F4600086F4600088A
:1000E0006F4600086F4600086F4600086F4600081C
:1000F0006F4600086F4600086F460008230300089B
:100100006F4600086F460008F30300081504000856
:100110006F4600086F460008570300085F03000899
:100120006F4600086F4600089F0200086F460008EF
:100130006F4600086F4600086F4600086F460008CB
:100140006F4600086F4600086F4600086F460008BB
:10015000B90200086F4600086F4600086F460008A5
:100160006F4600086F4600086F4600086F4600089B
:100170006F4600086F4600086F4600086F4600088B
:100180006F4600086F460008DFF80CD007F01AFE33
:10019000004800475144000898300020234B19685C
:1001A0000868B0E8F04F80F309884FF0000080F352
:1001B000118870470000000003480068006880F361
:1001C000088862B600DF00BF08ED00E0DFF80C0031
:1001D000016841F470010160704700BF88ED00E0E4
:1001E000EFF30980114B1A681EF0100F08BF20EDC5
:1001F000108A20E9F04F106008B54FF0140080F32A
:10020000118807F018F84FF0000080F31188BDE85E
:10021000084019680868B0E8F04F1EF0100F08BFDA
:10022000B0EC108A80F30988704700BFDC01002021
:10023000EFF311804FF0140181F31188704780F3C0
:10024000118870477047FEE7FEE7FEE7FEE770475C
:100250007047704710B5834C40F22551204605F099
:100260005EFF002805D02046BDE81040202105F0A3
:1002700053BF10BD7C497D4805F063B870B57B4D18
:100280007B4C30352146284605F038F8002805D04B
:1002900021462846BDE8704005F053B870BD10B542
:1002A0007449754805F04DF874484178007841EA82
:1002B00000207349088010BD6F487249483005F02E
:1002C00040B870B5694D704C483D2146284605F050
:1002D00015F8002813D02146284605F032F86B485F
:1002E00001F0F1FE00280AD1694C0021204605F0FA
:1002F00055FE2046BDE87040012105F04FBE70BD9F
:1003000070B55A4D634C603D2146284604F0F6FF17
:10031000002805D021462846BDE8704005F011B8F8
:1003200070BD70B5514C5C4D48342946204604F0F0
:10033000E5FF002809D00021204604F054FF29469B
:100340002046BDE8704004F0FCBF70BD47484649F8
:10035000303804F0F6BF0121504805F0BEBC10B59E
:1003600001214F4805F0B9FC3E497A20888010BD34
:1003700010B54C4C0121204605F0AFFC2088C10689
:100380004948016801D5491E00E0491C016010BDC3
:10039000704710B501218C07204605F09EFC20888F
:1003A000C1064248016801D5491E00E0491C0160B0
:1003B00010BD10B53E4C0121204605F08EFC208872
:1003C000C1063C48016801D5491E00E0491C016096
:1003D00010BD10B5384C0121204605F07EFC208868
:1003E000C1063648016801D5491E00E0491C01607C
:1003F00010BD10B5324C0121204605F06EFC20885E
:10040000C1063048016801D5491E00E0491C016061
:1004100010BD7047704770B5042005F011F8002832
:100420001ED02021284804F064FA284D04212846D3
:1004300004F040FA1A4C012805D00421284604F0A3
:1004400039FA28B109E00021204605F0DFF804E080
:10045000204605F0DFF81E4908601E4904200860A8
:1004600070BD704700100140208000207060024085
:1004700000802020008020104064024014030020EF
:1004800008000020008800200088001032030020AF
:10049000004800402080001000800028001000402C
:1004A00000140040000001400C000020100000205B
:1004B00000040040140000200008004080010020DB
:1004C000000C00408401002000000240000C0240AB
:1004D00088010020143C014070B50546002407F057
:1004E000D7F9FE4902E02A5D0A55641C8442FADB12
:1004F000BDE870400121FA4804F075BE70B5F94DB1
:1005000006460024315D00290BD0284605F06CFD1D
:100510008021284605F0F9FD0028F9D0641CE4B2DA
:10052000F0E770BD70B5EF4E05460024002D0DD0EC
:100530002946304605F058FD8021304605F0E5FD9E
:100540000028F9D0641CE4B2032CEFD370BD73B55E
:100550000C460020FFF7E6FFE3A0FFF7CFFFDF48E0
:100560002246E2A1823807F07BFCDC488238FFF7A4
:10057000C5FFDFA0FFF7C2FFDFA0FFF7BFFFD7482F
:10058000DAA18238009A07F06BFCD44E0024D54DD6
:10059000823E2846315D05F027FD4021284605F0C2
:1005A000B4FD0028F9D0641C142CF2DBD2A0FFF7B4
:1005B000A5FFFF20FFF7B6FFFF20FFF7B3FFBDE861
:1005C0007C40FF20AEE770B505460C46C6A0FFF79D
:1005D00095FFC2482246C5A1823807F041FCBF48BA
:1005E0008238FFF78BFFC5A0FFF788FF2846FFF78B
:1005F00085FFC1A0FFF782FFBDE87040FF2091E7B3
:1006000077B5BEA185B00646D1E90001CDE900016C
:10061000B9A0002200680390B3A0B04D0068283D47
:10062000A5F128030290AD4C1146A3F13200A95464
:1006300099548154A154521CD2B21E2AF7D30A21D4
:100640000170FF2444708470C470A448A7A150387E
:10065000079A07F005FCA14902A8503907F000F9F4
:100660009E4802A9823807F0FBF89C486946823808
:1006700007F0F6F899483146823807F0F1F89748C4
:100680009AA15038069A07F0EBFB94495039A1F132
:10069000320007F0E5F8914803A9823807F0E0F846
:1006A0008E492C706C702839AC70A1F15A0007F09B
:1006B000D7F88A488238FFF70FFF08B070BD2DE9E0
:1006C000F74188468DA185B00646D1E90001CDE904
:1006D000000189A000220068039083A07F4D00687C
:1006E000283DA5F1280102901446A1F13200AC5436
:1006F0008C548454521CD2B20A2AF8D30A210170B5
:10070000FF2747708770C770744878A15038079AE0
:1007100007F0A6FB714902A8503907F0A1F86F480D
:1007200002A9823807F09CF86C486946823807F0C5
:1007300097F86A483146823807F092F86748414690
:10074000823807F08DF8654803A9823807F088F8E9
:100750002F706F706149AF70EC7028392C71A1F166
:100760005A0007F07DF85D488238FFF7B5FE08B003
:10077000BDE8F08170B50020FFF7D4FE5AA0FFF766
:10078000BDFE56480D2259A1823807F069FB534837
:100790008238FFF7B3FE59A0FFF7B0FE594C202175
:1007A000204604F087F802464C4850A1823807F0F2
:1007B00057FB4A488238FFF7A1FE1021204604F07B
:1007C00079F80246454849A1823807F049FB434879
:1007D0008238FFF793FE4C4D8021284604F06AF8DA
:1007E00002463E4841A1823807F03AFB3B48823836
:1007F000FFF784FE4021284604F05CF802463748A3
:100800003AA1823807F02CFB34488238FFF776FE95
:100810004FF40041204604F04DF802462F4833A122
:10082000823807F01DFB2D488238FFF767FE4FF432
:100830008041204604F03EF8024628482BA1823829
:1008400007F00EFB25488238FFF758FE4FF40051A1
:10085000204604F02FF80246204824A1823807F0F1
:10086000FFFA1E488238FFF749FE4021274804F06E
:1008700021F8024619481DA1823807F0F1FA1748FD
:100880008238FFF73BFE1CA0FFF738FEFF20FFF782
:1008900049FEFF20FFF746FEBDE87040FF2041E61D
:1008A000FEB51BA10646D1E90001CDE900011AA061
:1008B00000210A4D0068283DA5F1280202900C464F
:1008C000A2F132006C5454544454491CC9B2322928
:1008D000F8D30A210170FF2747701FE0D2020020E1
:1008E000B860024000500040740000002564000021
:1008F0002E7478743D000000220000002E7478747D
:100900003D220000000802400000024000100240AA
:100910002E76616C3D0000006A0000008770C77091
:100920000022AFF23801FE4807F09AFAFC4902A80B
:1009300006F096FFFA4802A9323806F091FFF8480F
:100940006946323806F08CFF3246AFF26001F44857
:1009500007F086FAF249A1F1320006F081FF2F700C
:100960006F70EF49AF70EC7028312C71A1F15A0013
:1009700006F076FFEA483238FFF7AEFDFEBD70B5EF
:100980000D46044606F036FF291B491C90FBF1F288
:1009900001FB1200204470BD2DE9FC414FF080475F
:1009A000384604F037FEDF4D2969642640EA0140ED
:1009B00090FBF6F000240190384604F02BFE2969E4
:1009C00040EA014090FBF6F001990090401A00D5F2
:1009D0004042322800DA641C00980190022CEBDBC4
:1009E0000098002800DA4042BDE8FC812DE9FC4176
:1009F000CD4F384604F00EFECA4D6969642640EAC0
:100A0000014090FBF6F000240190384604F002FE0D
:100A1000696940EA014090FBF6F001990090401AA4
:100A200000D54042322800DA641C00980190022C64
:100A3000EBDB00980028D7DA4042D5E710B5FFF786
:100A4000ABFF0446FFF7D2FF002C00DA6442002817
:100A500000DA4042204410BD01B581B0019800EB9E
:100A6000C00040000090002801D0401EFAE70CBDF5
:100A700001B581B044F250610198484300900028CC
:100A800001D0401EFAE70CBD2DE9FC4101211F20D9
:100A900004F078F801248DF8044000268DF80660F3
:100AA0004FF6FF758DF80740032700958DF8057008
:100AB00069469E4803F098FE8DF804408DF8066064
:100AC0008DF8074000958DF805706946984803F049
:100AD0008BFE8DF804408DF806608DF80740009578
:100AE0008DF805706946934803F07EFE7CE77CB57F
:100AF00001217E2004F046F80024FC208DF80440FB
:100B0000012500908DF8075002268DF80560694692
:100B1000894803F069FE48F206008DF80440009011
:100B20008DF807508DF805606946804803F05CFE3B
:100B300046F6C4408DF8044000908DF807508DF8BB
:100B4000056069467A4803F04FFE03208DF80440A3
:100B500000908DF807508DF805606946754803F0E0
:100B600043FE4FF2FF508DF8044000908DF807507F
:100B70008DF805606946714803F036FE7CBD1FB5EF
:100B80004FF4E06003F078FD36208DF80C0000246F
:100B90008DF80D408DF80E4001208DF80F0003A850
:100BA00003F06FFD0121102004F00AF83220ADF8A7
:100BB0000000ADF80840ADF8024040F2E730604C6C
:100BC00001906946204604F0DFFC0121204605F033
:100BD00084F801221146204605F05FF800212046E6
:100BE00004F014FD0121204604F046FD1FBD1FB591
:100BF0004FF4E06003F040FD37208DF80C00002436
:100C00008DF80D408DF80E4001208DF80F0003A8DF
:100C100003F037FD0121202003F0D2FF4FF4FA70DA
:100C2000ADF80000ADF80840ADF8024040F2E73002
:100C3000444C01906946204604F0A6FC0121204660
:100C400005F04BF801221146204605F026F8002158
:100C5000204604F0DBFC0121204604F00DFD1FBD01
:100C600070B58AB00121022003F0B4FF01210C20ED
:100C700003F088FF2E4E03220621304603F03DFE8E
:100C800003220721304603F038FE032208213046B4
:100C900003F033FE03220921304603F02EFE4FF409
:100CA0007070059002208DF8180003208DF819004F
:100CB00000248DF81A4001258DF81B5005A93046F7
:100CC00003F092FDA420ADF81C0028021E4E0890EF
:100CD000ADF82400ADF81E4007A9304604F054FCDE
:100CE0006020ADF80000ADF802500294ADF80C4061
:100CF0000121304604F0C0FC0021304604F086FC9F
:100D00006946304604F0C2FC6946304604F0EAFC0D
:100D10006946304604F022FD6946304616E0000080
:100D20008202002000000020000400400004024075
:100D300000080240000C0240000002400010024087
:100D400000100040001400400004014004F040FD89
:100D50000121304604F082FF0AB070BD70B58AB040
:100D60000121042003F02CFF01210D2003F00AFFD4
:100D7000FF4E02220C21304603F0BFFD02220D215E
:100D8000304603F0BAFD02220E21304603F0B5FDD5
:100D900002220F21304603F0B0FD4FF47040059061
:100DA00002208DF8180003208DF8190000248DF81A
:100DB0001A4001258DF81B5005A9304603F014FD9B
:100DC000A420ADF81C002802EA4E0890ADF82400DB
:100DD000ADF81E4007A9304604F0D6FB7020ADF8F0
:100DE0000000ADF802500294ADF80C4001213046ED
:100DF00004F042FC0021304604F008FC694630460D
:100E000004F044FC6946304604F06CFC6946304608
:100E100004F0A4FC6946304604F0DAFC9CE730B5E7
:100E2000012187B0080403F0D5FE0121084603F034
:100E3000A9FE00244FF6FF70CF4DADF800400190A1
:100E4000ADF80840ADF802406946284604F09CFB26
:100E50000420ADF80C00C820ADF814000120ADF856
:100E60001000ADF80E4003A9284604F047FEC34C1D
:100E700000231A460321204604F0A9FF0121204641
:100E800004F02BFF01221146204604F006FF012149
:100E9000284604F0F1FB0021204604F0B7FB07B020
:100EA00030BD2DE9F04701218AB0084603F088FEE5
:100EB0000121022003F084FE0121032003F062FEE1
:100EC000DFF8BC9201220F21484603F016FDDFF83F
:100ED000B48201220321404603F00FFD02220421C7
:100EE000404603F00AFD02220521404603F005FDBD
:100EF00002268DF80460032738208DF80570002441
:100F000000908DF8064001258DF80750694640464F
:100F100003F06AFC8DF80460E8038DF8057000901A
:100F20008DF806408DF807506946484603F05CFC92
:100F30004FF6FF70ADF80C4004904FF08049ADF8CB
:100F40001440ADF80E4003A9484604F01DFBDFF83D
:100F500038A203A9504604F017FB4FF004081420F0
:100F6000ADF81880ADF82000ADF81A60ADF81C504F
:100F700006A9484604F0C2FD06A9504604F0BEFD8D
:100F800002231A460321484604F021FF02231A4691
:100F90000321504604F01BFF0121484604F09DFE4A
:100FA0000121504604F099FE01221146484604F002
:100FB00074FE01221146504604F06FFE012148469E
:100FC00004F05AFB0121504604F056FB002148462C
:100FD00004F01CFB0021504604F018FB780203F0DB
:100FE0004BFB1D208DF808008DF809708DF80A4024
:100FF0008DF80B5002A803F044FB1C208DF808006C
:101000008DF809808DF80A408DF80B5002A803F086
:1010100038FB0AB0BDE8F08770B501218AB00846F8
:1010200003F0D8FD0121102003F0ACFD4FF4206047
:10103000009002208DF8040003208DF805000024A4
:10104000524E8DF8064001258DF80750694630460E
:1010500003F0CAFB01220921304603F04EFC0122B5
:101060000B21304603F049FC4FF6FF70424EADF8BD
:1010700008400390ADF81040ADF80A4002A9304690
:1010800004F082FA0420ADF814000A20ADF81C0028
:10109000ADF81640ADF8185005A9304604F02EFD05
:1010A00000231A460321304604F091FE0121304608
:1010B00004F013FE01221146304604F0EEFD01213A
:1010C000304604F00AFE01221146304604F0E5FDE8
:1010D0000121304604F0D0FA0021304604F096FA9F
:1010E0004FF4C06003F0C8FA19208DF820008DF885
:1010F00021508DF822408DF8235008A803F0C1FA42
:101100002AE6F0B59BB00121214803F03BFD012107
:101110000D02284603F05EFD1E480024CDE9004084
:101120001D4802A9082681E85100A800CDE9054024
:10113000400007908000CDE908050AA900010125BB
:1011400081E83100154F0D94694638460E9404F03D
:1011500011F80121384604F046F83C20199003208C
:101160008DF868008DF86B4019A90D481AE0000051
:10117000000C024000080040000001400040014017
:101180000000024000040240000400400010024041
:10119000050040004C200140040300201064024080
:1011A0000008024003F020FB4FF44030CDE9154029
:1011B0004FF47060CDE9174015A803F0E0FD280654
:1011C0000F908DF840508DF8415011941294139463
:1011D0008DF850600FA9FE4C204603F0A5FD0423B6
:1011E00001220221204603F014FE042302220321DF
:1011F000204603F00EFE042303221946204603F086
:1012000008FE04231A460521204603F002FE0423AB
:1012100005220C21204603F0FCFD042306220D21AB
:10122000204603F0F6FD042307220E21204603F09A
:10123000F0FD042308220F21204603F0EAFD0121DE
:10124000204603F063FE0121204603F055FE0121F4
:10125000204603F0ABFD204603F015FE1BB0F0BDA9
:1012600008B54FF4E06003F007FA25208DF8000080
:1012700000208DF801008DF8020001208DF8030098
:10128000684603F0FEF908BD70B5054696B0012129
:10129000102003F09FFC0121084603F073FC01219C
:1012A000880503F06FFC4FF4C060139002208DF8A6
:1012B000500000248DF852408DF85340C54E8DF8F3
:1012C000510013A9304603F08FFA07220921304656
:1012D00003F013FB07220A21304603F00EFB0F95A3
:1012E000ADF844400C20BC4DADF84040ADF8460090
:1012F000ADF84240ADF848400FA9284604F0DDFDA6
:101300000121284604F04AFE4FF4A06003F0B4F92E
:101310003A208DF854008DF855408DF85640012044
:101320008DF8570015A803F0ACF9AC4E304603F029
:1013300099FE4FF000600090A948CDE902040A2010
:101340000490281D01900015CDE905408010CDE9DD
:10135000084040020A9004200B9007940320CDE936
:101360000C04694630460E9403F004FF012240212C
:10137000284604F0AAFE01221021304603F0A8FFFF
:101380000121304603F02FFF16B070BDF0B50646C0
:10139000012197B0480503F0F5FB01214D042846D3
:1013A00003F00EFC0121082003F0ECFB60201390F9
:1013B00002208DF8500000248DF852408DF85340E3
:1013C000884F8DF8510013A9384603F00DFA072213
:1013D0000521384603F091FA07220621384603F02A
:1013E0008CFA0F96ADF844400C207F4EADF840408B
:1013F000ADF84600ADF84240ADF848400FA9304680
:1014000004F05BFD0121304604F0C8FD4FF4A060FC
:1014100003F032F911208DF854008DF855408DF805
:10142000564001208DF8570015A803F02AF96F4F98
:10143000384603F017FEA8020090402003906C4845
:1014400002903C200490301D01900015CDE905402C
:101450008010CDE908400420CDE90A50079403200C
:10146000CDE90C04694638460E9403F083FE012250
:101470008021304604F029FE01228021304604F00C
:1014800024FE01221021384603F022FF01213846B4
:1014900003F0A9FE17B0F0BD70B50546012196B066
:1014A000880403F08DFB0121082003F06BFB012170
:1014B000480503F067FB4FF44070139002208DF84D
:1014C000500000248DF852408DF85340454E8DF861
:1014D000510013A9304603F087F90722082130464E
:1014E00003F00BFA07220921304603F006FA0F95A4
:1014F000404EADF84040ADF844400C25ADF84240B8
:10150000ADF84840ADF846500FA9304604F0D5FC80
:101510000121304604F042FD4FF4A06003F0ACF826
:101520008DF854508DF855408DF8564001208DF8B7
:10153000570015A803F0A5F82C4D783D284603F078
:1015400091FD4FF000600090254869461E30CDE9BE
:10155000020408200490301D01900015CDE90540DB
:101560008010CDE9084040020A9004200B900794B7
:101570000320CDE90C0428460E9403F0FBFD012264
:101580004021304604F0A1FD01224021304604F004
:101590009CFD01221021284603F09AFE01212846D5
:1015A00003F021FEF0E6F0B50646012197B0C8042D
:1015B00003F006FB0121084603F0E4FA0121480587
:1015C00003F0E0FA0325022013958DF8500013E094
:1015D0000020014000000240001001404064024031
:1015E00014030020000C024000440040A0600240B0
:1015F000040100200048004000248DF852408DF87E
:101600005340F94F8DF8510013A9384603F0ECF818
:1016100008220021384603F070F9082201213846DB
:1016200003F06BF90F96ADF844400C20EF4EADF887
:101630004040ADF84600ADF84240ADF848400FA933
:10164000304604F03AFC0121304604F0A7FC4FF488
:10165000A06003F011F80D208DF854008DF855406E
:101660008DF8564001208DF8570015A803F009F8B1
:10167000DF4F384603F0F6FC78050090DD48CDE9F1
:10168000020408200490301D01900015CDE90540AA
:101690008010CDE90840400207940A900420CDE96B
:1016A0000C540B90694638460E9403F063FD0122FA
:1016B0004021304604F009FD01224021304604F06B
:1016C00004FD01221021384603F002FE01213846B4
:1016D00003F089FDDEE62DE9F0418046012196B058
:1016E000480503F04FFA0121080503F069FA0121CA
:1016F0000C2003F047FA02258DF8405000248DF8A5
:101700004240BD4F04268DF843400F968DF841505E
:101710000FA9384603F068F88DF840508DF8424024
:101720008DF84340E8028DF84150B44D0F900FA959
:10173000284603F059F808220221384603F0DDF864
:1017400008220C21284603F0D8F84FF4A06002F0DC
:1017500093FF2F208DF8540005208DF855008DF84B
:10176000560001208DF8570015A802F08AFFADF849
:101770004C400C20A24DADF84840ADF84E00CDF8DD
:101780004480ADF84A40ADF8504011A9284604F015
:1017900094FB0121284604F001FC954F7837384628
:1017A00003F060FC70060090402003909148694669
:1017B0005138029031200490281D01900015CDE988
:1017C00005408010CDE908404002CDE90A060794A3
:1017D0000320CDE90C0438460E9403F0CBFC012223
:1017E0008021284604F071FC01221021384603F0C4
:1017F0006FFD0121384603F0F6FC16B0BDE8F0811C
:1018000030B585B00121082003F0BCF9012188031F
:1018100003F0E0F900240C208DF81040012503901E
:101820008DF8135003A9744802F0DEFF0221032053
:1018300004F0B5FC042000908DF8044010208DF8D1
:1018400005008DF80650684603F0AAFD08208DF8C3
:1018500008008DF809408DF80A408DF80B5002A859
:1018600002F00FFF05B030BD10B5012810D00328DD
:1018700019D0042822D0052809D1614C204604F053
:10188000B3FB4021204604F040FC0028F9D010BDF5
:101890005C4C204604F0A8FB4021204604F035FCB7
:1018A0000028F9D010BD584C204604F09DFB402183
:1018B000204604F02AFC0028F9D010BD4B4C2046ED
:1018C00004F092FB4021204604F01FFC0028F9D0D0
:1018D00010BD4E49002048624D49C8604FF080421B
:1018E000506208614B4A10604861704770B5484DBE
:1018F00000202871044661210120FFF7B5FF322046
:10190000FFF7B6F8641C022CF5D3012028717A2069
:10191000E87070BD10B561210120FFF7A5FFBDE89B
:1019200010400A20FFF7A4B870B5394D0020A87107
:10193000044661210320FFF797FF3220FFF798F854
:10194000641C022CF5D30120A8717A20687170BD47
:101950002DE9F14F96B0002014908DF800008DF81D
:1019600028002B492C48DFF8A8C0169F234C2B4A8F
:101970008614CB6A4FF400450CF1800C4FF480794B
:101980004FF4806A4FF4804B122F6BD2DFE807F0E0
:1019900009276B71767B80848A8E92969A9EA3A784
:1019A000B1FD022102F086FF60B1012229462046E6
:1019B00002F098FF2946204602F086FF01460022E9
:1019C00017A091E000222946204602F08BFF29460D
:1019D000204602F079FF0146002218A084E001228F
:1019E0001EA0DCF83C107FE000000240004C0040EC
:1019F0004060024023030020000C02400008024027
:101A0000005000400010014000480040000001402C
:101A100000000020240400400004024020020020B6
:101A2000524F424F542044414E4720434841592091
:101A300053414E20444F3A2020200000524F424F45
:101A4000542044414E4720434841592053414E20A1
:101A500058414E483A20202000000000494D553A98
:101A60000000000042E0FEF7E9FF01460222EDA07F
:101A70003AE00322EFA0DCF87C1035E0F0480422C5
:101A80000168F0A030E00522F1A0DCF878102BE02E
:101A90000622496CF1A027E0E9487030072201795D
:101AA000F1A021E008228969F2A01DE00922C9699C
:101AB000F1A019E00A22096BF0A015E00B22896B56
:101AC000F2A011E011680C22F4A00DE052F82310EE
:101AD0000D22F8A008E00E221946FCA004E0FE4802
:101AE0000F2250F82310FDA0FEF78AFD17B0BDE8C5
:101AF000F08FDFF8F8838021404602F0DBFE0246DB
:101B0000FBA1684606F0ACF969460AA805F0A8FEF4
:101B10004946404602F0CEFE0246F5A1684606F070
:101B20009FF969460AA805F09BFE57465146404674
:101B300002F0C0FE0246EEA1684606F091F9694641
:101B40000AA805F08DFE8021204602F0B3FE024671
:101B5000E7A1684606F084F969460AA805F080FE08
:101B60004021204602F0A6FE0246E1A1684606F0AA
:101B700077F969460AA805F073FE3946204602F057
:101B800099FE0246DAA1684600E0B5E006F068F981
:101B900069460AA805F064FED64F0121384602F0D6
:101BA00089FE0246D2A1684606F05AF969460AA89B
:101BB00005F056FE0221384602F07CFE0246CCA11A
:101BC000684606F04DF969460AA805F049FE20214D
:101BD000404602F06FFE0246C5A1684606F040F995
:101BE00069460AA805F03CFE4021404602F062FE2C
:101BF0000246BFA1684606F033F969460AA805F017
:101C00002FFE3146404602F055FE0246B8A1684616
:101C100006F026F969460AA805F022FE1021404682
:101C200002F048FE0246B2A1684606F019F969467C
:101C30000AA805F015FE2946404602F03BFE024682
:101C4000ABA1684606F00CF969460AA805F008FE43
:101C50000821404602F02EFE0246A5A1684606F085
:101C6000FFF869460AA805F0FBFD0421404602F092
:101C700021FE02469EA1684606F0F2F869460AA8CF
:101C800005F0EEFD0221404602F014FE024698A146
:101C9000684606F0E5F869460AA805F0E1FD5D46EC
:101CA0005946404602F006FE024691A1684606F0FB
:101CB000D7F869460AA805F0D3FD4FF40051204635
:101CC00002F0F8FD02468AA1684606F0C9F86946A6
:101CD0000AA805F0C5FD2946204602F0EBFD0246A4
:101CE00083A1684606F0BCF869460AA805F0B8FD6D
:101CF00010220AA980A04CE12946074602F0E4FD23
:101D000002467BA1684606F0ABF869460AA805F0D2
:101D1000A7FD5946384602F0D7FD024674A1684631
:101D200006F09EF869460AA805F09AFD4FF40051A6
:101D3000384602F0C9FD02466DA1684606F090F8EB
:101D400069460AA805F08CFD3146384602F0BCFD14
:101D5000024667A1684606F083F869460AA805F0BE
:101D60007FFD4FF400684146384602F0ADFD024663
:101D70005FA1684606F074F869460AA805F070FD90
:101D80005146384602F0A0FD024659A1684606F0C9
:101D900067F869460AA805F063FD4FF40071204614
:101DA00002F092FD024652A1684606F059F86946D3
:101DB0000AA805F055FD4D464946204602F084FD2F
:101DC00002464BA1684606F04BF869460AA805F0A2
:101DD00047FD4A4C2946204602F076FD024644A1C2
:101DE000684606F03DF869460AA805F039FD01216C
:101DF000204602F069FD02463DA1684606F030F833
:101E000069460AA805F02CFD0221204602F05CFD7F
:101E1000024637A1684606F023F869460AA805F08D
:101E20001FFD6DE0454E434F4445525F544F4E47B2
:101E30003A0000006C617A6520646F3A200000006F
:101E4000000100206C617A652078616E683A0000BC
:101E50006C617A652073617500000000646F206C0E
:101E6000617A653A000000004C4A4F595F4C523A83
:101E700000000000693A20006A3A200073696C6F24
:101E80005F7675615F636861793A20006269656EAB
:101E9000203220626F6E673A20000000626F6E672A
:101EA0002074726F6E672073696C6F5B305D3A20CF
:101EB00000000000626F6E672074726F6E6720739F
:101EC000696C6F5F736F3A200000000073696C6F7C
:101ED0005F736F3A20000000380200206269656E6F
:101EE000206461207468613A200000000010024004
:101EF00025640000000C0240493A00000000024046
:101F00000121384602F0E0FC0246AFF21C016846AF
:101F100005F0A6FF69460AA805F0A2FC4146204646
:101F200002F0D2FC0246AFF23801684605F098FF95
:101F300069460AA805F094FC3146204602F0C4FC2C
:101F40000246AFF25401684605F08AFF69460AA8C6
:101F500005F086FC8021384602F0B6FC0246AFF25E
:101F60007001684605F07CFF69460AA805F078FC18
:101F70004021384602F0A8FC0246AFF28C016846C8
:101F800005F06EFF69460AA805F06AFC11220AA94D
:101F9000FEA0FEF794FBA9E50121FD4803F023B95B
:101FA00011B4FC48416F009A914201DD002101E02B
:101FB000416F491C4167406F18BCC9E42DE9F047E7
:101FC0000025F54E074601244FF400594FF4804890
:101FD0004FF4805A00224146304602F083FC102024
:101FE000FEF73AFD274201D0012200E000224946D7
:101FF000304602F077FC01224146304602F072FC86
:102000001020FEF729FD5146304602F053FC00B186
:102010002543600010F0FF04DCD12846BDE8F087BE
:1020200070B5DD4E4FF4004500222946304602F0DF
:1020300059FC1020FEF710FD0120FFF7BFFF4220E2
:10204000FFF7BCFFFF20FFF7B9FFFF20FFF7B6FF48
:10205000D04CF0342070FF20FFF7B0FF6070FF20FD
:10206000FFF7ACFFA070FF20FFF7A8FFE070FF2094
:10207000FFF7A4FF2071FF20FFF7A0FF6071294642
:102080003046BDE87040012202F02CBC70B5C24E53
:102090004FF4004500222946304602F023FC102070
:1020A000FEF7DAFC0120FFF789FF4220FFF786FFE9
:1020B000044601222946304602F014FC1020FEF7A7
:1020C000CBFC204670BDB34A0021803A9164C279AE
:1020D000B049F0310D2A09D0FF200870487088708F
:1020E000C8700871487188710020704702780A70C2
:1020F00042784A7082788A70C278CA7002790A710E
:1021000042794A718079887101207047A148F03086
:10211000A0F5B8710278FF2A05D14278FF2A02D1D2
:102120008278FF2A09D08A6C531C8B64C82A03DD8D
:10213000FF210170417081707047002088647047F2
:102140009448F030807970479248F030007840062B
:1021500001D401207047002070478E48F03000788D
:10216000C00601D4012070470020704701B59DF8DA
:102170000000052801D2002008BD9DF8000008BD20
:10218000F0B5844E0027803E1D4606F582744FF060
:10219000010C002806D009DDC0B2FFF7E7FFE070B0
:1021A000A7700AE096F87400E07006E04042C0B202
:1021B000FFF7DCFFE07084F802C0002907D00ADDD9
:1021C000C8B2FFF7D3FFE07184F806C009E096F8C3
:1021D0007400E07105E04842C0B2FFF7C7FFE0714C
:1021E000A771002A06D009DDD0B2FFF7BFFFE07269
:1021F000A7720AE096F87400E07206E05042C0B29E
:10220000FFF7B4FFE07284F80AC0002D07D00ADDA2
:10221000E8B2FFF7ABFFE07384F80EC0F0BD96F8AC
:102220007400E073F0BD6842C0B2FFF79FFFE07337
:10223000A773F0BD57498431C870C871C872C8739C
:10224000704754490120886570475248C069A0F51D
:10225000EA41303901D00120704700207047FFF774
:1022600045BB4C488038B0F90800404270474948A7
:10227000B5EEC00A8038D0ED140AF1EE10FA02D2A1
:1022800030EE600A01E030EE200ABDEEC00A10EE2A
:10229000100A704710B5041E2DED068B3D489FEDCA
:1022A0003FAB9FED409B11D0806814DA05F07FFCB6
:1022B00041EC180B204605F07AFC53EC1A2B05F084
:1022C00095FB53EC192B05F08BFB13E09FED370AC0
:1022D000BDEC068B10BD05F06AFC41EC180B2046E6
:1022E00005F065FC53EC1A2B05F080FB53EC192B21
:1022F00005F0D5FA53EC182B05F0EAFB05F07BFC52
:1023000000EE100AE4E7B5EEC00AF1EE10FA01DAC9
:10231000B1EE400A7047002800DA404270471D497C
:10232000803991ED1B0AD1ED1C1AF1EE400A80EEC6
:10233000A11A00EE900AF8EEE00A01EE200ABDEEC6
:10234000C00A10EE100A7047B0EE402A9FED180A3E
:10235000B5EEC02AF1EE10FA01D2B1EE422AF5EE46
:10236000C00AF1EE10FA01D2F1EE600AB5EEC01A21
:10237000F1EE10FA01D2B1EE411AF5EEC01AF1EE0B
:1023800010FA01D2F1EE611A14E000004F3A000099
:10239000A060024080000020000C02403333333341
:1023A0003333D33F9A9999999999B93F0000000026
:1023B0006F12833AB4EEC02AF1EE10FA01DDB0EEEE
:1023C000420AF4EEC00AF1EE10FA01DDB0EE600A46
:1023D000B4EEC01AF1EE10FA01DDB0EE410AF4EEEF
:1023E000C01AF1EE10FA01DDB0EE610A7047FB4849
:1023F00080687047F948406B704770B5F74C2DED19
:10240000048BB0EE408AA4F18005E069A0F5EA41B2
:1024100030393ED0A26AE16B95ED171A891A401A3D
:1024200000EE100AB8EEC00AC0EE010A95ED180AD7
:1024300030EE800AD5ED1F0A60EE208AB0EE680A01
:1024400005F0DEFDB0EE009A20EE090A84ED150AD3
:10245000B0EE680A05F02CFD60EE090AC4ED140A1E
:1024600094ED151A94ED0C0A31EE001A30EEC00A04
:1024700084ED121A84ED130AB5EEC08AF1EE10FA5B
:102480006ED0606805286BD2DFE800F00E1F324185
:1024900056001FED3A0A84ED150A84ED140A84ED06
:1024A000130A84ED120AE7E794ED120A30EE080AE7
:1024B00084ED120A94ED130A30EE480A84ED130AF3
:1024C00094ED140A30EE080A1EE094ED130A30EE83
:1024D000480A84ED130A94ED140A30EE080A84EDDC
:1024E000140A94ED150AD5ED150A08EE600A20E0ED
:1024F00094ED120A30EE080A84ED120A94ED140AE3
:10250000D5ED150A08EE200A84ED140A0DE094EDCD
:10251000120A30EE080A84ED120A94ED130AD5ED82
:10252000150A08EE600A84ED130A94ED150A30EEE0
:10253000480A84ED150A13E094ED120AD5ED150A48
:1025400008EE200A84ED120A94ED130A30EE480AD0
:1025500084ED130A94ED140A30EE080A84ED140A8F
:1025600004F1480090EC040AFFF7EEFED5ED130AE3
:10257000F8EEE00A80EE801ABDEEC10A10EE100AF5
:102580002061A168814200DDA06001202060BDECD7
:10259000048B70BD914900220028CA6048610FD1A8
:1025A0001FED7E0A8A6081ED0C0A47F23050C86147
:1025B000086281ED0B0A4A604A624A638A651CE739
:1025C0007047864890ED0B0AB5EEC00AF1EE10FA9E
:1025D00004D1416811B9416A002909D01FED8D0A63
:1025E000002180ED0B0A41604162C16B816204E70A
:1025F00070477A488038C0ED1B0A80ED1C0A70478E
:10260000764AD369834209D1D3688B4206D1D2ED91
:102610000C0AF4EE400AF1EE10FA0ED0D160916887
:1026200009B905219160D16B916282ED0C0AD061EC
:102630000020906192ED0B0ADFE67047674B30B4E3
:102640005C6A844209D1D3ED0B0AF4EE400AF1EE44
:1026500010FA02D15C688C4225D0DD6947F2305413
:10266000A54218D1DA6005229A60A04213DAB5EECD
:10267000C00A0122F1EE10FA5A6302DDDA6B8242DF
:1026800007DCB5EEC00AF1EE10FA04D2DA6B824232
:1026900001DAB1EE400A5960586283ED0B0A00205E
:1026A000986130BCA9E630BC70470A46014647F243
:1026B0003050C3E71FEDC30AA2E770B5474C05468B
:1026C0002DED028BF0EE608AD4ED080AB0EE418A5F
:1026D000F8EEE00AF4EE400AF1EE10FA0BD1E068F1
:1026E000A84208D1D4ED090AF8EEE00AF4EE680A2F
:1026F000F1EE10FA4AD0FDEEC00AC4ED080AD4ED9E
:102700000F0AF8EEE00A30EE600ABDEEC00A10EEE5
:10271000100A1FEDDA0A2946FFF772FF94ED0F0A3F
:10272000F8EEC00A78EEE00AFDEEE00A10EE903A0C
:10273000002B00DA5B42B8EEC00A642B19DDF4EE20
:10274000C08AF1EE10FA01DCB1EE488A18EE100AE8
:1027500005F03EFA05F04FFAFDEEE80ABDEC028BFB
:102760002A46BDE8704000EE100A002110EE900AE3
:1027700064E738EEC00A10EE100A05F029FA9FED62
:10278000181B53EC112B05F031F9E3E7BDEC028B7C
:1027900070BD124910B5486B01282CDDCA6B486A20
:1027A000801AFFF7B8FD062809DA486B421C4A6315
:1027B000B0F5FA7F1FDDBDE810400020EAE60520F5
:1027C0004A6BC860FA2A886001DDFB2048634A6AC8
:1027D000C86B904208DDBFEE000A07E080000020D1
:1027E0007B14AE47E17A743FB7EE000A81ED0B0A25
:1027F000BDE8104001E610BD70B5FE4991ED0C0A30
:10280000B5EEC00AF1EE10FA73D18B68002B70D0D0
:10281000486A47F23054A0426BDA91ED0B0AB5EEEC
:10282000C00AF1EE10FA7DD0CD69A1F18002A54277
:1028300060D1B5EEC00A1346F1EE10FA9B6E03DDCF
:10284000CD6BC41AAC4208DBB5EEC00AF1EE10FA4B
:1028500017D2CC6B0344A34213DD4B6B032B48DA36
:10286000CB6BC01AFFF757FD0A28486A0ADA88635B
:10287000002088609FEDE00AC86081ED0B0A02200D
:10288000486379E091ED020AD1ED0B0ACB6BB8EE0B
:10289000C00A984260EE200A92ED1A0AB8EEC01AF9
:1028A00080EE810A0FDDFFF72EFDCB6B486AC01A60
:1028B000FFF731FD00EE900AB8EEE01AD2ED160AED
:1028C00040EE010A0EE0FFF71EFDCB6B486AC01A0E
:1028D000FFF721FD00EE900AB8EEE01AD2ED160ADD
:1028E00050EE410A91ED020AB8EEC01A80EE810A5C
:1028F00042E046E0BF4AB5EEC00A803AD2ED190A7E
:10290000F1EE10FA18DD01EE100AF8EEC11A01EE30
:10291000103AB8EEC11A41EE401AB8EEE01A71EE64
:10292000C11A00E02BE091ED0F1AB8EEC11AF4EED7
:10293000C11AF1EE10FA1BD3B5EEC00AF1EE10FA8F
:102940001AD201EE100AF8EEE00AF8EEC11A01EE12
:10295000103AB8EEC11A41EE401A31EEA01AD1ED8C
:102960000F0AF8EEE00AB4EEE01AF1EE10FA03DD19
:10297000C96B401AFFF78EFCBDE870403DE5886AE0
:10298000F6E770BD9B49486B02280CDA9FED9A0A66
:10299000002281ED0C0A81ED0B0A47F230504A60AB
:1029A000C861C1E908028B6992485B1C80388B6161
:1029B000826F406F934201DB8A61896D3AE48D4AF0
:1029C00093695B1C9361834204DD906808449060C6
:1029D00000209061704710B5FFF743FC854CE06321
:1029E000FFF7D7FEE268A0684FF0FF31002A0BDD49
:1029F00090420ED006DA216988420ADAFFF78FFC8E
:102A0000022104E0606C02E000283CDD6069FFF711
:102A1000D6FFD4E90F01814203D0FFF7EDFEE06B52
:102A200020642068002831D094ED020AD4ED150A04
:102A3000B8EEC00A20EE200AFFF719FC94ED020A56
:102A4000D4ED140A0346B8EEC00A20EE200AFFF7C0
:102A50000EFC94ED020AD4ED130A0246B8EEC00A49
:102A600020EE200AFFF703FC94ED020AD4ED120ACF
:102A70000146B8EEC00A20EE200AFFF7F8FBBDE8D9
:102A80001040FFF77DBBBDE810407BE710BD70B57F
:102A90000D462DED048B06461446F0EE418AB0EE4D
:102AA000609AB0EE408A0221544801F003FF78EEAC
:102AB000281A38EE680A9FED521A012809D04D48AD
:102AC00080300068401BA04218DD00BFB0EE610AF4
:102AD00006E04848C06FA0EB0500A042F6DC03DA30
:102AE000F0EE490A304604E0F0EE490A3046B0EE16
:102AF000480ABDEC048BBDE87040DEE5F4DAEFE790
:102B000070B50D462DED048B06461446F0EE418A55
:102B1000B0EE609AB0EE408A0221384801F0CAFE59
:102B2000344B012878EE281A38EE680A986F9FED2A
:102B3000341AA0EB050004D0A04213DDB0EE610A08
:102B400002E0A042FADC03DAF0EE490A304604E083
:102B5000F0EE490A3046B0EE480ABDEC048BBDE801
:102B60007040AAE5F4DAEFE72DE9F05F2149F03192
:102B70008878401FF52801D8012500E00025087954
:102B8000401FF52801D8012700E00027194A0878DE
:102B900002F1F002C30652780DD543060BD5830629
:102BA00009D5030607D535B12FB1930603D5BDE886
:102BB000F05F0220EEE4530702D43226142403E02F
:102BC000D2071FD01E260A248B46DFF82880C106B4
:102BD00047F23059A8F1800A4FEA406115D4002924
:102BE00055DA81064FEA00602CD5002831462FDAED
:102BF000002036E0800000200000000000040240B9
:102C0000CDCC4C3E0A260724DEE700294FEA80613E
:102C100009DB00294FEA00601CDA002831461FDA80
:102C20004FF4E1601DE000294FEA006005DB002859
:102C30002DDA31464FF4617013E000281DDB314678
:102C4000FE480EE0002822DA31464FF4E17008E039
:102C5000FB4806E000281ADA314640F2465000E010
:102C6000F848FFF727FD9BF80000C1060FD5410685
:102C70000DD581060BD5000609D54DB95FB1D8F841
:102C80001C10494507D00520FFF784FC03E015B16F
:102C9000FFF797FC31E09BF8021001225846052906
:102CA00012D24378DB070FD0D8F81C10494504D066
:102CB00031460020BFEE080A14E08AF800202346BF
:102CC00062421046194616E0FA291CD99BF8010009
:102CD000C00718D0D8F81C10494506D0314600204E
:102CE000B7EE080AFFF7E1FC07E08AF8002063422C
:102CF000224619461046FFF743FA00218AF80010D1
:102D0000BDE8F05F5DE402231A4619461846F2E773
:102D100030B5CD48CD4A1423C56D691CC165014647
:102D20000C6E0021142D03D2D5892C44046604E0D6
:102D3000B4FBF3F4C16584670166456E6C1C4466A0
:102D4000C14C142DA46E03D295892C44846604E0F2
:102D5000B4FBF3F44166C4678166C56E6C1CC4663F
:102D6000B94C142D246F02D25189214405E0B4FBE3
:102D7000F3F2B54B80331A60C166016730BD70B5A0
:102D8000B14CB34DF0346078C00604D40122402128
:102D9000284601F0A7FD6078400615D401221102F3
:102DA000AC4801F09FFD012294032146284601F022
:102DB00099FD4FF4FA70FDF75BFE21462846BDE809
:102DC0007040002201F08EBD70BD7047704770B535
:102DD0009D484FF48071F03042789E48530610D4DD
:102DE000012201F07FFD0122994D940321462846DE
:102DF00001F078FDC820FDF73BFE00222146284661
:102E000002E0D20604D40022BDE8704001F06ABDA1
:102E100070BD704710B5FEF769FDFEF75AFDBDE8BD
:102E200010400A2004F099B970B5874D884AC03522
:102E3000A5F5A074012807D0022805D0032803D0E7
:102E4000042801D005280BD10221104601F032FDE3
:102E500000EB4000E16A05EBC00050F8210060641F
:102E600070BD70B501227B4C55022946204601F009
:102E700039FD794E4021304601F01CFD0128F9D082
:102E800040F2DC50FDF7F4FD01221102204601F072
:102E900029FD00222946204601F024FD6A496B489D
:102EA0008039CC38C96A50F82120521C40F82120C2
:102EB000BDE87040AEE72DE9F0412DED048BFFF742
:102EC000A9FF0221624801F0F5FC00275FEDB48AFA
:102ED0009FED629A5C4E80361FEDB98A5A4D0128EB
:102EE000A5F180044FF42F78A06A16D0032830682B
:102EF00073DAC82872DA9FED5A9A3068F0286EDAD1
:102F0000B0EE681AF0EE480A4620B0EE490AFFF724
:102F1000D4FB0A2004F021F9EFE7032868DAE86F10
:102F2000C8280DDB1DE000BFB0EE681AF0EE480ABD
:102F30004620B0EE490AFFF7C0FB0A2004F00DF965
:102F4000E86FF028F0DB11E0B0EE681AF0EE480A06
:102F50004620B0EE490AFFF7B0FB0A2004F0FDF866
:102F600001E09FED409AE86FF028EDDCA7610AE0F0
:102F7000B0EE480A0222F021B3EE0E1AF0EE400A3B
:102F80004620FFF784FDA86FBE28F1DBA069401C36
:102F9000A0613228F7DBFEF79CFCDFED338AB7EE49
:102FA000081A3220F0EE680AB0EE480AFFF785FBF7
:102FB0004FF47A7403E000BFFFF7C6F818B9FDF7C5
:102FC0003DFDA042F8DBB7EE081AF0EE680A3220A9
:102FD000B0EE480AFFF771FB06E0B6E06BE06FE089
:102FE000FFF7B2F8002802D130686428F8DCA5E0C9
:102FF0003068142809DC0BE0F0EE480A4620B0EEF9
:10300000601AB0EE490AFFF758FB30681E28F3DC5F
:10301000A7610AE0B0EE480A02221E21B3EE0E1AA2
:10302000F0EE400A4620FFF732FDA86FAA28F1DB38
:10303000A069401CA0613228F7DB17E07CFCFFFF91
:103040003EFEFFFFBAFAFFFF8000002004030020CD
:1030500000040240000802400010024000002FC49B
:1030600000002F440000964300006144FEF731FC4D
:10307000B0EE480A6420B0EE401AF0EE400AFFF7C6
:103080001CFB444604E000BFFFF75EF8002803D1B4
:10309000FDF7D4FCA042F7DB8FE000BFB0EE681A6A
:1030A000F0EE480A4620B0EE490AFFF706FB0A2078
:1030B00004F053F801E09FEDF89A3068F028EDDC59
:1030C000A7610AE0B0EE480A0222F021B3EE0E1A20
:1030D000F0EE400A4620FFF7DAFCA86FBE28F1DBCD
:1030E000A069401CA0613228F7DBFEF7F2FBB7EEC7
:1030F000081ADFEDEA8A3220B0EE480AF0EE680ADC
:10310000FFF7DBFA40F2DC5403E000BFFFF71CF8E6
:1031100018B9FDF793FCA042F8DBB7EE081AF0EE01
:10312000680A3220B0EE480AFFF7C7FA03E000BF92
:10313000FFF70AF810B9E86F6428F9DCBDEC048BDE
:103140000020BDE8F041FFF725BA142809DC0BE0A8
:10315000F0EE480A4620B0EE601AB0EE490AFFF7DA
:10316000ACFA30681E28F3DCA7610AE0B0EE480A2A
:1031700002221E21B3EE0E1AF0EE400A4620FFF79F
:1031800086FCA86FAA28F1DBA069401CA061322848
:10319000F7DBFEF79EFBB0EE480A6420B0EE401A63
:1031A000F0EE400AFFF789FA444602E0FEF7CCFF52
:1031B00018B9FDF743FCA042F8DB0020FFF7EAF95D
:1031C000BDEC048BBDE8F041FEF783BB2DE9F04771
:1031D0002DED028BFEF79EFBB14CE06AFFF724FE5B
:1031E0000020A0700221AF4801F064FB4FF4FA7395
:1031F0009FEDAD8ADFEDAD8AAD4D4FF4E1674FF441
:103200008046012804D0FEF764FB9846A9466EE08C
:10321000FEF75FFBA06A022812DD9846FDF70EFC60
:1032200040450DDAB6EE001AF0EE480A3220B0EE54
:10323000680AFFF742FAF1E714213846FFF73AFA35
:103240003146284601F036FB0128F5D0FFF7E2FDB4
:10325000934E616C8036F06F88424FF028011EDD7E
:1032600040F21A473846FFF725FA02E0FEF76CFFF6
:1032700020B9606CF16F2C308142F7DC0A213846AE
:10328000FFF718FA04E000BFFEF75EFF002805D143
:103290002021284601F00EFB0128F5D09DE0854F46
:1032A0003846FFF707FA02E0FEF74EFF20B9606CE0
:1032B000F16F2C388142F7DB0A213846FFF7FAF923
:1032C00004E000BFFEF740FF002805D1202128467A
:1032D00001F0F0FA0128F5D07FE000BFB6EE001A49
:1032E000F0EE480A3220B0EE680AFFF7E6F9FDF783
:1032F000A5FB404505DA3146484601F0DBFA0128D6
:10330000ECD0B0464FF4FA654FEA0906FDF796FB9C
:10331000A84205DA4146304601F0CCFA012818D01F
:1033200045462946304601F0C5FA01281BD0002049
:10333000FFF730F9FFF76EFD5F4D616C286888423A
:103340004FF028012CDD5B4F32373846FFF7B2F9DA
:1033500011E0B6EE001AF0EE480A5020B0EE680A0E
:10336000FFF7ABF9D2E714213846FFF7A3F9D8E706
:10337000FEF7EAFE20B9606C29682C308142F7DC48
:103380000A213846FFF796F903E000BFFEF7DCFE9E
:1033900018BB2021304601F08DFA0128F6D01CE040
:1033A0004FF47A773846FFF785F902E0FEF7CCFE56
:1033B00020B9606C29682C388142F7DB0A21384635
:1033C000FFF778F903E000BFFEF7BEFE28B9202121
:1033D000304601F06FFA0128F6D0BDEC028B0020D8
:1033E000BDE8F047FFF7D6B82DE9F04102212D489E
:1033F00001F060FA2A4C01284FF47A762C4DE06AED
:10340000C6F100080DD0FFF70FFD60782A4F0128A4
:103410005ED000286FD1282146464046FFF74AF982
:1034200077E0FFF701FD1E4F60788037012806D056
:10343000002860D128213046FFF73CF921E02821FF
:1034400046464046FFF736F903E000BFFEF77CFE34
:1034500020B9606CF96F2C388142F7DB0A213046C5
:10346000FFF728F903E000BFFEF76EFE98B92021B0
:10347000284601F01FFA0128F6D05EE0FEF764FE50
:1034800020B9606CF96F2C308142F7DC0A2130469C
:10349000FFF710F915E038E0000096C3000061C4A2
:1034A00000000020000402400000E1C30000E144ED
:1034B00000100240E6FBFFFF00010020FEF744FE83
:1034C00018BB2021284601F0F5F90128F6D034E098
:1034D00028213046FFF7EEF803E000BFFEF734FE88
:1034E00020B9606C39682C388142F7DB0A213046FC
:1034F000FFF7E0F803E025E0FEF726FE28B92021DB
:10350000284601F0D7F90128F6D016E0FEF71CFE98
:1035100020B9606C39682C308142F7DC0A213046D2
:10352000FFF7C8F803E000BFFEF70EFE28B9202120
:10353000284601F0BFF90128F6D0BDE8F04100208F
:10354000FFF728B8BDE8F0812DE9F047FE4C0126D1
:10355000606901280CD16068012809D1A0680128A0
:1035600006D1E068012803D12069012800D1266036
:10357000F64F0421384601F09DF9F54D012809D098
:103580000421384601F096F94FF000084FF0030986
:1035900010B10CE0AE7023E00821384601F08AF942
:1035A00028B94FF40041384601F084F928B10421CC
:1035B000384601F07FF918B107E085F8028015E080
:1035C0000821384601F076F978B10421384601F037
:1035D00071F9002807D1206801280BD085F80280F6
:1035E000E86A44F82060BDE8F087AE70E96A44F804
:1035F0002190F8E7E86A022144F82010A863AE7031
:10360000F1E710B5FFF7A0FFD1488078012802D17B
:10361000BDE8104025E410BD2DE9F041FFF794FF0F
:10362000C94E00271836C84DC94C87E02868E8BB4A
:10363000E76100E0B8B9E06A11E000BF55F820107A
:1036400061B9217F6170E062FFF7CEFEFFF77CFF7A
:10365000A078012807D02868012804D0A069401C60
:10366000A0610628EADBE069012816D1E06A10E0D3
:1036700055F8201061B9217F6170E062FFF7B4FE58
:10368000FFF762FFA078012815D02868012815D01F
:10369000A069401EA0610028EADCA07801280AD0B9
:1036A000286801280AD0E069401C00E003E0E061DE
:1036B000022843DABEE7286801283FD1E76100E02D
:1036C000C0B9E06A12E000BF56F8201069B155F8A1
:1036D0002010032909D0217F6170E062FFF784FE8A
:1036E000FFF732FFA078012804D0A069401CA06138
:1036F0000628E9DBE069012818D1E06A12E000BF82
:1037000056F8201069B155F82010032909D0217FFF
:103710006170E062FFF768FEFFF716FFA0780128EE
:1037200010D0A069401EA0610028E9DCA078012823
:1037300008D0E069401CE0610228C1DBA0780028C5
:103740003FF474AFE06A2063FCE610B5FEF7C1F801
:103750007F4C0120E062FFF739FDE06A206310BD75
:1037600010B5FEF7B6F87A4C0220E062FFF72EFDA6
:10377000E06A206310BD10B5FEF7ABF8744C03206F
:10378000E062FFF723FDE06A206310BD10B5FEF78D
:10379000A0F86F4C0420E062FFF718FDE06A206398
:1037A00010BD10B5FEF795F8694C0520E062FFF7F3
:1037B0000DFDE06A206310BD2DE9F047634C4FF426
:1037C00080794946204601F075F8624E4FF4005862
:1037D0004FF4804A78B10221204601F06BF850B1D5
:1037E0004146304601F066F828B15146304601F0B6
:1037F00061F800283DD1564801270022C7634021C7
:10380000554801F06FF8554DFE20E874AF745746E7
:103810004946204601F04EF80028F9D00221204602
:1038200001F048F80028F3D04146304601F042F854
:103830000028EDD03946304601F03CF80028E7D0AA
:103840004FF480573946204601F034F80028F9D06B
:103850006420FDF70DF94021204601F02BF80128E6
:10386000F9D000224FF40071304601F03BF80020FF
:10387000E874B8E610B51021344801F01BF834495B
:10388000012802D00120486210BD0020FBE72DE98D
:10389000F05F2DED048BFFF7BDFA2D4C00202F4972
:1038A000E0632064A070FE22CA748874DFF8A480EC
:1038B00001225102404601F015F8DFF89CB00122C8
:1038C0004021584601F00EF8204DA06A9FED248A51
:1038D0002F15DFED249ADFED248A9FED249A4FF413
:1038E00080794FF4FA7A4FF47A7603286FDA00BFC2
:1038F000B0EE480A0A20B0EE401AF0EE400AFEF799
:10390000DCFE02E0E06B01280BD01021284600F01D
:10391000D1FF012805D13946284600F0CBFF002809
:10392000F0D00020FEF736FE5046FDF7A1F8E06B20
:10393000012856D0606A0128DAD1FDF77FF82062AD
:10394000FDF7C7FF14E00000200200200010024035
:103950000000002000080240000402400401002092
:10396000000000000000E144000061C40000614468
:10397000F0EE480A1E20B0EE601AB0EE690AFEF7BB
:103980009CFE00BFFDF75AF8216A8842FADB02214B
:10399000584600F08FFFF0EE480A0128B0EE601A9A
:1039A0004FF01E0004D0B0EE490AFEF786FE13E089
:1039B000B0EE680AFEF781FE04E000BFFEF7C4FB2C
:1039C000002895D1FDF73AF8B04291DAF6E7AEE07B
:1039D000FEF7BAFB00288BD1FDF730F8B04287DA4A
:1039E000F6E7A06A401CA062FDF728F82062FDF708
:1039F00070FF0DE0FEF735FC404200EE100AB6EE17
:103A0000001A1420F8EEC00AB0EE690AFEF755FE5F
:103A1000FDF714F8216A8842ECDB00224946404653
:103A200000F060FF0221584600F044FF012838D022
:103A3000B0EE001A9FEDFC8A3220B0EE680AF0EE7C
:103A4000480AFEF73AFE4FF4C87100BFFEF709FCC2
:103A50008842FBDBFDF73DFFB7EE001AF0EE480AA7
:103A60003220B0EE680AFEF728FE00BFFCF7BEFF6A
:103A7000B042FBDBB7EE001AF0EE490A3220B0EE9E
:103A8000680AFEF71AFE40F27A3100BFFEF7E9FB42
:103A90008842FBDBBDEC048B0020BDE8F05FFEF745
:103AA00079BDB7EE001A9FEDE18A1E20B0EE490AFB
:103AB000F0EE480AFEF701FEDD4900BFFEF7D1FB3C
:103AC0008842FBDCFDF705FFB7EE001AF0EE480A6E
:103AD0003220B0EE490AFEF7F0FD40F2DC5400BFA0
:103AE000FCF75AFFA042FBDBFDF7F3FEB0EE001A35
:103AF000F0EE680A3220B0EE490AFEF7DEFD00BFA4
:103B0000FCF79CFFC828FBDBC4E700BFFEF7A9FB5E
:103B1000404200EE100AB7EE081A0A20F8EEC00A7A
:103B2000B0EE480AFEF7C9FDE06B01280BD010216A
:103B3000284600F0BFFE012805D13946284600F08E
:103B4000B9FE0028E2D00020FEF724FD5046FCF725
:103B50008FFFE06B012808D0606A0128E7D1FCF7ED
:103B60006DFF2062FDF7B5FE1EE000224D4649467E
:103B70004446404600F0B6FEBDEC048B2946204684
:103B8000BDE8F05F002200F0ADBE00BFFEF769FBAC
:103B9000404200EE100AB6EE001A1420F8EEC00AF9
:103BA000B0EE690AFEF789FDFCF748FF216A8842FA
:103BB000ECDB0221584600F07DFE01280ED021E00A
:103BC000FEF74FFB404200EE100AB7EE081A1E2027
:103BD000F8EEC00AB0EE680AFEF76FFDFCF72EFFA4
:103BE000B042A4DAECE700BFFEF73BFB404200EE38
:103BF000100AB7EE081A1E20F8EEC00AB0EE490A05
:103C0000FEF75BFDFCF71AFFB04290DAECE72DE916
:103C1000F0472DED068BFFF7FDF80221854800F0F7
:103C200049FEDFF814A24FF4807900271FEDB48A13
:103C30001FEDB29A814EA6F580745FEDB58A5FEDF7
:103C4000B7AAF0EE480A012804F18005B0EE601A28
:103C50004FF0960008D0DFED7A9AB0EE690AFEF7D1
:103C60002CFD40F6980898E0DFED769AB0EE690AF0
:103C7000FEF723FD4FF4486803E000BFFEF764FA47
:103C800018B9FCF7DBFE4045F8DBF0EE480A4620A9
:103C9000B0EE601A9FED6C0AFEF70FFD03E000BF67
:103CA000FEF752FA10B9A86F4628F9DC9FED67AA13
:103CB000A7610AE000221E21B0EE4A1AF0EE480A7F
:103CC0006420B0EE680AFEF71BFFE86FFA28F1DB0C
:103CD000A069401CA0613228F7DBA7614FF4B477DC
:103CE0000AE000221E21B0EE4A1AF0EE480A322005
:103CF000B0EE680AFEF704FFE86FB842F1DBA06996
:103D0000401CA0613228F7DB0020FEF743FCFDF7E2
:103D1000E0FDF0EE480A9620B0EE601AB0EE6A0AB6
:103D2000FEF7CBFC4FF4AF6403E000BFFEF70CFAE4
:103D300018B9FCF783FEA042F8DB01224946504641
:103D400000F0D0FDFDF7C5FDB7EE001AF0EE690AF0
:103D50003220B0EE490AFEF7B0FC40F6D86402E02B
:103D6000FEF7F2F918B9FCF769FEA042F8DBB7EEEE
:103D7000001AF0EE690A3220B0EE490AFEF79DFC07
:103D800004E000BFFEF7E0F9002802D130685A28AD
:103D9000F8DCBBE0FEF7D8F918B9FCF74FFE404558
:103DA000F8DBF0EE480A7820B0EE601AB0EE690A4F
:103DB000FEF783FC41F2301803E000BFFEF7C4F9C0
:103DC00018B9FCF73BFE4045F8DBF0EE480A32201C
:103DD000B0EE601AB0EE690AFEF76FFC41F244687B
:103DE00003E000BFFEF7B0F918B9FCF727FE404525
:103DF000F8DB0020FEF7CEFBF0EE6A9A9FED141A76
:103E0000F6EE000A1420B0EE690AFEF756FC02E056
:103E1000FEF79AF910B9A86F2328F9DCA7619FED86
:103E20000DAA4FF4AA7722E00000E14300C0A8C425
:103E3000BAFAFFFF0004024000080240000100201F
:103E400000C0DA440000E1C4008089C4000048C218
:103E5000CDCC4C3E0000484200221E21B0EE4A1A52
:103E6000F0EE480A6420B0EE490AFEF749FE3068D9
:103E7000B842F1DBA069401CA0613228F7DB0020CA
:103E8000FEF788FBFDF725FDF0EE480AB0EE698AE3
:103E9000B0EE601A9620B0EE480AFEF70EFC40F233
:103EA000DC5402E0FEF750F918B9FCF7C7FDA04258
:103EB000F8DB01224946504600F014FD0020FEF7D1
:103EC00069FBFDF706FDB7EE081AF0EE480A32204E
:103ED000B0EE680AFEF7F1FB03E000BFFEF734F92D
:103EE00018B9FCF7ABFDA042F8DBB7EE081AF0EE0C
:103EF000480A3220B0EE680AFEF7DFFB03E000BF9D
:103F0000FEF722F910B9E86F3C28F9DCBDEC068B0E
:103F10000020BDE8F047FEF73DBB10B5FA4CA06BA2
:103F2000012801D1FFF711FCA06B022801D1FFF796
:103F300017FCA06B032801D1FFF71DFCA06B042820
:103F400001D1FFF723FCA06B052802D1BDE810408A
:103F500027E410BDED4A30B41068EB4901280CD0BD
:103F6000086B052826D0042827D0032828D002284B
:103F70001DD0012827D130BC13E4E44B05201833B1
:103F800053F820402CB152F82040032C01D0C862D5
:103F900003E0401E0128F3DAC86A0528EBD00428A4
:103FA00008D0032809D002280AD001280BD130BC40
:103FB000FFF7CBBB30BCFFF7E9BB30BCFFF7DBBB87
:103FC00030BCFFF7CDBB30BC7047FFF760FCCE4C78
:103FD000E06A012808D0022809D003280AD0042862
:103FE0000BD005280CD00DE0FFF7AFFB0AE0FFF780
:103FF000B7FB07E0FFF7BFFB04E0FFF7C7FB01E0FB
:10400000FFF7CFFBFFF7A0FA07E000BFFFF79CFA2E
:10401000A078012810D0FFF7E7F9A0780028F5D0A4
:104020000025A570FEF747FFFFF731FCA06B30B10C
:10403000FFF773FFA5630CE0FEF713FFF0E7FFF750
:1040400089FF06E0FFF780FAA078012806D0FFF785
:10405000CBF9A0780028F5D0A570E5E7FEF701FFC1
:10406000FEF729FFF5E7A8490120C8620221A84808
:1040700000F020BCA4490220C8627047A249032076
:10408000C8627047A0490420C86270479E49052055
:10409000C86270472DE9F0472DED068BFEF7BAFE9A
:1040A00002219B4800F006FCDFF868924FF480780C
:1040B00000279FED998ADFED998A934C984E9FEDEA
:1040C000999A9FED99AA04F1800501280DD0FEF779
:1040D000A1FE1FEDA11AF0EE4A9AF6EE000A142096
:1040E000B0EE690AFEF7E9FA89E0F0EE480A4620E8
:1040F000B0EE601A9FED8D0AFEF7DFFA03E000BF15
:10410000FEF722F810B9A86F4628F9DC5FEDB19AE6
:10411000A7610AE000221E21B0EE691AF0EE480AFB
:104120006420B0EE490AFEF7EBFCE86FFA28F1DBF9
:10413000A069401CA0613228F7DBA7614FF4B47777
:104140000AE000221E21B0EE691AF0EE480A322081
:10415000B0EE490AFEF7D4FCE86FB842F1DBA06983
:10416000401CA0613228F7DB0020FEF713FAFDF7B0
:10417000B0FBF0EE480A9620B0EE601AB0EE4A0AA4
:10418000FEF79BFA4FF4AF6403E000BFFDF7DCFFDE
:1041900018B9FCF753FCA042F8DB0122414648461F
:1041A00000F0A0FBFDF795FBB7EE001A1FEDDB8AD0
:1041B0003220B0EE680AF0EE480AFEF77EFA40F6CA
:1041C000D86402E0FDF7C0FF18B9FCF737FCA04245
:1041D000F8DBB7EE001AF0EE480A3220B0EE680ABB
:1041E000FEF76BFA03E000BFFDF7AEFFB0BB30682F
:1041F0005A28F9DC68E000BFFDF7A6FF10B9A86FE8
:104200002328F9DC1FEDEDAAA7614FF4AA770AE095
:1042100000221E21B0EE4A1AF0EE480A6420B0EEE9
:10422000680AFEF76DFC3068B842F1DBA069401CFB
:10423000A0613228F7DB0020FEF7ACF9FDF749FB5F
:10424000F0EE480AB0EE698AB0EE601A9620B0EE41
:10425000480AFEF732FA40F2DC5404E034E000BFD2
:10426000FDF772FF18B9FCF7E9FBA042F8DB012269
:104270004146484600F036FB0020FEF78BF9FDF77B
:1042800028FBB7EE081AF0EE480A3220B0EE490AD1
:10429000FEF713FA03E000BFFDF756FF18B9FCF76D
:1042A000CDFBA042F8DBB7EE081AF0EE480A322048
:1042B000B0EE490AFEF701FA03E000BFFDF744FF44
:1042C00010B9E86F3C28F9DCBDEC068B0020BDE896
:1042D000F047FEF75FB9FFF7DDFEFFF7D8FAFFF70B
:1042E00055FAFEF7BEFDFEF7E6FD074C002500BFC0
:1042F000FFF7CDFAA06BD8B1FFF70FFEFEF7B1FDC7
:10430000FEF7D9FDA56319E000000020200200207F
:104310000004024000080240000000000000614468
:1043200000010020000061C40000E144000096C4C8
:10433000FFF710FEFEF795FDFEF7BDFDA570D7E770
:10434000FFF765FCFFF7A3FAFFF720FAFFF764F920
:10435000FEF787FDFEF7AFFD00254C4CFFF797FAFF
:10436000A06B48B1FFF7D9FDFFF756F9FEF779FDCD
:10437000FEF7A1FDA56307E0FFF7ECFDFFF74CF9A1
:10438000FEF76FFDFEF797FDA570E7E71120FDF73B
:1043900007FE0F2002F0E1FEF8E700BFFEF717FD71
:1043A0000A2002F0DAFEF9E7384C00BFFEF7B0FC55
:1043B000FFF702FAFFF75EFA207808B9FEF70BFB69
:1043C000052002F0CAFEF1E71FB5FCF75DFBFCF724
:1043D0008EFBFCF7C3FCFCF764FDFCF71DFEFCF74D
:1043E00090FEFCF704FC4FF4E1342046FCF74CFF50
:1043F0002046FCF7CBFF2046FDF74EF8E000FDF726
:104400006AF9FDF773FAFDF764FA00244FF480753A
:1044100000940194029423462A461DA12148039446
:1044200002F0C4FC00940194029400232A461EA1C9
:104430002248039402F0BAFC214C8021204600F06F
:1044400039FA0028F9D111490B204863FFF743FFDF
:104450007FB500244FF480750094019402942346A4
:104460002A4618A11A48039402F0A0FC0094019473
:10447000029400232A4617A11948039402F096FCDF
:1044800002F0BAFF04B0002070BD00000000002060
:104490007461736B526F626F74416E616C79746991
:1044A00063730000A94300087461736B4469657508
:1044B0004B6869656E436F43617500009B4300085C
:1044C000001002407461736B4D61696E0000000062
:1044D000C94300087461736B4779726F0000000074
:1044E0008D4300080CB500205149019000900A68E6
:1044F00042F480320A604FF4A0630A6802F400328A
:104500000092019A521C0192009A12B9019A9A42A1
:10451000F3D10A68920334D501200090444840301A
:10452000026842F0805202604248026842F48042CF
:1045300002603F48083002680260026842F40042AC
:104540000260026842F4A0520260031F3A4A1A60F5
:104550000A6842F080720A600A689201FCD5374A04
:1045600040F205611160016821F0030101600168FA
:1045700041F0020101600168C1F381010229FAD111
:104580000CBD00900CBD2A4810B5016841F0010136
:104590000160274A0021083211600268284B1A4046
:1045A0000260031D274A1A60026822F4802202601A
:1045B0001F480C300160FFF795FF23494FF0006062
:1045C000086010BD70B51A4C083420681F4A10F0FE
:1045D0000C011F4804D05510042903D0082903D02A
:1045E00002601BE0056019E01149091D0B68C3F367
:1045F00080560B6803F03F0316B1B5FBF3F201E000
:10460000B2FBF3F20B680968C3F388135A43C1F392
:104610000141491C4900B2FBF1F1016021680C4ADB
:10462000C1F30311121D515C0268CA40026070BDE3
:10463000003802400070004008544007003C02402F
:10464000FFFFF6FE1030002408ED00E00024F40027
:104650008C0100200648804706480047FEE7FEE739
:10466000FEE7FEE7FEE7FEE7FEE7FEE7FEE7FEE722
:10467000874500088901000828490843284908603F
:10468000704730B50F22C47801780123FCB1244C67
:10469000246801F1E02104F4E064C4F5E064C4F3AB
:1046A0000724C4F10405E2404478AC408578154005
:1046B00025432A0181F80024007800F01F018B4077
:1046C0004009800000F1E020C0F8003130BD01F069
:1046D0001F0083404809800000F1E020C0F88031CD
:1046E00030BD104A114001430D48001F0160704762
:1046F0000B4A121D0029116801D0014300E08143DB
:10470000116070474FF0E0210428086903D020F0C1
:1047100004000861704740F00400FAE70000FA0561
:104720000CED00E080FFFF1F7C4910B5884206D1E8
:104730000121084600F058FA002101204FE0784995
:10474000884206D10121022000F04EFA0021022009
:1047500045E07449884206D10121042000F044FA62
:10476000002104203BE07049884206D10121082045
:1047700000F03AFA0021082031E06C49884206D165
:104780000121102000F030FA0021102027E06849B4
:10479000884206D10121202000F026FA00212020A5
:1047A0001DE06449884206D10121402000F01CFA36
:1047B0000021402013E06049884206D10121802079
:1047C00000F012FA0021802009E05C4988420AD1F9
:1047D00084150121204600F007FA00212046BDE89B
:1047E000104000F001BA10BDF0B5002301240327EA
:1047F0000D6804FA03F21540954242D1D0F800C08A
:104800005E0007FA06F52CEA050CC0F800C091F826
:1048100004C0D0F800E00CFA06FC4CEA0E0CC0F81C
:1048200000C091F804C0BCF1010F02D0BCF1020F2E
:104830001FD1D0F808C02CEA050CC0F808C091F8C8
:1048400005C0D0F808E00CFA06FC4CEA0E0CC0F8E3
:1048500008C0D0F804C02CEA020CC0F804C04268BA
:1048600091F806C00CFA03FC1FFA8CFC42EA0C0219
:104870004260C268AA43C260CA79C568B2402A438E
:10488000C2605B1C102BB3D3F0BD4FF6FF7101600B
:104890000021017141718171C171704708B541F406
:1048A00080320092C261C1610099C161C169C06971
:1048B000009008BD0246002012690A4200D0012083
:1048C0007047006980B270470246002052690A4270
:1048D00000D001207047406980B270470183704763
:1048E000418370470AB1018370474183704741613A
:1048F000704742694A40426170474B07DB0E9A405D
:10490000C90810B500EB8100016A0F249C40A14347
:104910000162016A1143016210BD00000000024003
:104920000004024000080240000C02400010024057
:104930000014024000180240001C02400020024007
:10494000EA48016841F001010160E84A00210832AB
:1049500011600268E64B1A400260031DE54A1A60C6
:10496000026822F480220260E0480C300160704747
:10497000DE490022891C0A70087070470246002038
:10498000510901290CD002290CD0D8497431096889
:1049900002F01F02012393400B4200D00120704718
:1049A000D249F4E7D1497031F1E718B500204FF44E
:1049B000A06400903120FFF7E1FF0099491C0091AD
:1049C000A14201D00028F5D03120FFF7D7FF002801
:1049D00000D0012018BDC5490A6822F0F80242EA59
:1049E000C00008607047C44908607047BF49002292
:1049F00070310A700A70012802D0042801D1052004
:104A000008707047BD490860704741EA82115A0832
:104A100010B5BB4B029C03EB02421143014341EA38
:104A20000460B249091D086010BDB34908667047AB
:104A3000800140EA0170AD49843108607047AE4999
:104A400088667047AC49C8647047A84A0832136842
:104A5000084323F0EC63184310607047A34A083200
:104A60001368084323F078431843106070479F4A47
:104A70000832116821F003010143116070479B481F
:104A80000830006800F00C007047984A083211683E
:104A900021F0F001014311607047944A0832116817
:104AA00021F4E051014311607047904908310A68D0
:104AB00022F4604242EAC0000860704770B58B4A39
:104AC000083211688F4C11F00C0104D066100429D3
:104AD00003D0082903D004601BE0066019E0834975
:104AE000091D0B68C3F380550B6803F03F0315B134
:104AF000B6FBF3F301E0B4FBF3F30C680968C4F30D
:104B000088146343C1F30141491C4900B3FBF1F12F
:104B1000016011680F2303EA11117B4B5C5C016893
:104B2000E14041601468072505EA94241C5D21FAE0
:104B300004F48460126805EA52329A5CD140C16084
:104B400070BDC0F30121032908D1684A08321168F9
:104B500021F4F8136D490140194311606349703124
:104B60000A68C0F30B0002430A6070476349443986
:104B70000860704761494039086070475E49C1F874
:104B80005C017047594A30320029116801D0014355
:104B900000E0814311607047544A343200291168A3
:104BA00001D0014300E08143116070474F4A383221
:104BB0000029116801D0014300E081431160704772
:104BC0004A4A40320029116801D0014300E0814384
:104BD00011607047454A44320029116801D00143F1
:104BE00000E0814311607047404A1032002911688B
:104BF00001D0014300E08143116070473B4A143209
:104C00000029116801D0014300E081431160704721
:104C1000364A18320029116801D0014300E081436F
:104C200011607047314A20320029116801D00143D8
:104C300000E08143116070472C4A2432002911683A
:104C400001D0014300E0814311607047274A503290
:104C50000029116801D0014300E0814311607047D1
:104C6000224A54320029116801D0014300E08143F7
:104C7000116070471D4A58320029116801D0014364
:104C800000E0814311607047184A603200291168C2
:104C900001D0014300E0814311607047134A643240
:104CA0000029116801D0014300E081431160704781
:104CB0000E4A0D320029117801D0014300E08143F2
:104CC0001170704709487430016841F080710160CB
:104CD00070470146054A00200C3212680A4200D093
:104CE0000120704701490E310870704700380240BA
:104CF000FFFFF6FE1030002400004742800E4742BE
:104D00000000FFFF0024F400A0010020FFFCFF0FC3
:104D100010B501210C022046FFF78EFF2046BDE8AA
:104D200010400021FFF788BF30B54268C84B0C79AE
:104D30001A400B6842EA0422134343608268C54B61
:104D40004D791A40D1E9034323438C6844EA450472
:104D5000234313438360C26A097D22F47002491E13
:104D6000C9B242EA0151C16230BD00210160017146
:104D700041718160C1600161012101757047B64BCD
:104D800010B5D3F80423B5490A40D0E900142143F3
:104D9000D0E90240044321431143C3F8041310BD7A
:104DA0000021016041608160C16070470029816815
:104DB00002D041F0010101E021F001018160704762
:104DC0004268A74B1A400A434260704741628262C0
:104DD0007047426822F01F020A43426070479E49B2
:104DE0000028D1F8040302D040F4000001E020F4D0
:104DF0000000C1F80403704797490028D1F8040364
:104E000002D040F4800001E020F48000C1F80403E7
:104E1000704770B5072409290AD9C568A1F10A06A7
:104E200006EB4606B440A543B3401D43C56007E00A
:104E3000056901EB4106B440A543B3401D4305613C
:104E40001F23072A09D2446B521E02EB82029340B1
:104E50009C4391400C43446370BD0D2A09D2046BFE
:104E6000D21F02EB820293409C4391400C430463A7
:104E700070BDC46A0D3A02EB820293409C4391409C
:104E80000C43C46270BD816841F08041816070470D
:104E9000014600208968490200D501207047002999
:104EA000816802D041F4806101E021F48061816079
:104EB00070470029816802D041F0020101E021F031
:104EC0000201816070474268491E22F4604242EA52
:104ED0004131416070470029416802D041F40061CE
:104EE00001E021F4006141607047C06C80B27047FE
:104EF0005948D0F8080370470029816802D041F46E
:104F0000807101E021F4807181607047002981681F
:104F100002D041F4007101E021F40071816070471A
:104F20004D490028D1F8040302D040F4005001E0BC
:104F300020F40050C1F80403704770B50724092914
:104F40000AD9C568A1F10A0606EB4606B440A54396
:104F5000B3401D43C56007E0056901EB4106B4405D
:104F6000A543B3401D430561836BC3F30154121B7A
:104F7000921C02EB82041F22A2409343A1400B43E8
:104F8000836370BD826B491E22F4401242EA0151D4
:104F90008163704708B508440090026008BD8268CC
:104FA00022F470220A4382607047826822F4401221
:104FB0000A4382607047816841F4800181607047D4
:104FC000014600208968490200D501207047002968
:104FD000416802D041F4806101E021F480614160C8
:104FE00070470029416802D041F4805101E021F46A
:104FF00080514160704708B508442830009000682F
:1050000080B208BD01238B4041680AB1194300E01A
:105010009943416070470246002012680A4200D05E
:1050200001207047C9430160704730B50246002037
:1050300053680C0A01258D4011682B40214202D093
:10504000002B00D0012030BD6FEA112101607047B4
:10505000FFFEFFFCFDF7FFC000200140E030FCFF39
:10506000FFFD3FFF2DE9F043016821F001010160E0
:105070000021016041608160C160016121214161C5
:10508000B849B84A3D251039904202D18D60BDE83B
:10509000F083B44A4FF474661832904201D18E60A6
:1050A000F5E7B04A4FF474173032904201D18F6067
:1050B000EDE7AC4A4FF0746C4832904202D1C1F82F
:1050C00008C0E4E7A74BA84A6033984201D1CA6000
:1050D000DDE7A44CA54B7834A04201D1CB60D6E7E4
:1050E000DFF88082A24C08F19008404501D1CC60E5
:1050F000CDE7DFF870824FF03D5908F1A808404530
:1051000002D1C1F80C90C2E79A49DFF868820839E9
:10511000404501D10D60BAE7964D1835A84201D13E
:105120000E60B4E7934D3035A84201D10F60AEE771
:10513000904D4835A84202D1C1F800C0A7E78D4D77
:105140008C496035091FA84201D10A609FE7894A4E
:105150007832904201D10B6099E7864A90329042B2
:1051600001D10C6093E7834AA83290428FD1C1F8F5
:1051700000908CE730B503687F4ACC6813400A681A
:105180002243D1E905452C432243CC6922430C6AD2
:1051900022434C6A22438C6A22434C6B22438C6B21
:1051A00022431A430260426922F00703D1E90B242B
:1051B00022431A4342610A6942604A6882608968F0
:1051C000C16030BD0021016041608160C16001614A
:1051D00041618161C161016241628162C1620163B9
:1051E0004163816370470029016802D041F00101E9
:1051F00001E021F00101016070470029016802D03F
:1052000041F4004101E021F40041016070470029B0
:10521000016802D041F0200101E021F0200101608D
:10522000704741607047406880B27047002A02684A
:1052300002D042F4002201E022F400220260016167
:1052400070470029016802D041F4802101E021F477
:105250008021016070470AB101617047C1607047E9
:10526000014600200968090300D501207047014666
:1052700000200968C90700D001207047406900F08C
:105280003800704702463B4B00209A4202D2354A12
:10529000103A01E0374A103A8B0001D5526800E01D
:1052A0001268364B1A400A4200D001207047314A3A
:1052B000904202D22B48103801E02E4810382F4A75
:1052C0008B0001EA020101D5C1607047816070471F
:1052D0000B0607D5436912B143F0800301E023F0C8
:1052E00080034361802908D0002A026801F01E0172
:1052F00001D00A4300E08A430260704730B51D4A7E
:105300000024904202D2174B103B01E0194B103B96
:105310001B4A114205D01E2202EAD12502682A400A
:1053200002E0406900F08002880001D5586800E082
:105330001868124B1840084201D002B101242046DF
:1053400030BD0C4A904202D20648103801E00948AC
:1053500010380A4A8B0001EA020101D5C16070478A
:1053600081607047106002403D000020400F002027
:1053700000003D20106402403F801CF07D0F7D0F37
:105380003C0F3C0F374900200860091D0860091DCB
:105390000860091D086033493348143108607047BC
:1053A00030B530498379026853B30B6893430B607F
:1053B0000A1D13680468A343136002790A44136842
:1053C000046823431360274A083213680468A34320
:1053D0001360131D1C680568AC431C604479102CD5
:1053E00005D021440A68006802430A6030BD116894
:1053F000046821431160196800680143196030BDD9
:105400000079084401689143016030BD00210160CA
:1054100001710C22427181717047124910310A6882
:1054200002430A60704701460E4A00201432126897
:105430000A4200D0012070470A49143108607047C1
:10544000084A014600201268064B0A4014331B68C4
:105450000B4202D0002A00D00120704701491431CC
:1054600008607047003C0140FFFF7F00FE4910B517
:10547000884206D101210846FFF7DEFB002101200A
:105480005BE0B0F1804F09D0F84988420DD101218D
:105490000220FFF7C7FB0021022070E0012108462F
:1054A000FFF7C0FB0021012069E0F149884206D1E5
:1054B00001210420FFF7B6FB002104205FE0ED4945
:1054C000884206D101210820FFF7ACFB002108200B
:1054D00055E0E949884206D101211020FFF7A2FBDF
:1054E000002110204BE0E549884206D1012120200F
:1054F000FFF798FB0021202041E0E149884206D1D6
:1055000001210220FFF798FB0021022015E0DD4970
:10551000884202D101210C040AE0DB49884202D111
:1055200001214C0404E0D94988420AD101218C04AC
:105530002046FFF781FB00212046BDE81040FFF721
:105540007BBBD349884206D101214020FFF76AFB8B
:105550000021402013E0CF49884206D1012180205C
:10556000FFF760FB0021802009E0CB4988420AD187
:10557000841501212046FFF755FB00212046BDE898
:105580001040FFF74FBB10BD30B50288B64BBC4C86
:1055900098420DD0A0420BD0B0F1804F08D0B34D4F
:1055A000A84205D0B24DA84202D0B24DA84203D1C4
:1055B00022F070054A882A43AF4DA84206D0AF4D6D
:1055C000A84203D022F440750A892A4302804A681F
:1055D000C2620A880285984201D0A04201D1897A2C
:1055E00001860121818230BD4FF0FF3141600021F1
:1055F00001800181418081727047018582827047FC
:10560000028822F070020A430280704741627047AC
:10561000C1627047406A7047008D70470029018859
:1056200002D041F0020101E021F002010180704747
:105630000029018802D041F0040101E021F00401B9
:10564000018070470029018802D041F0800101E00B
:1056500021F0800101807047028822F00802028058
:1056600002880A4302807047028822F44072028056
:1056700002880A43028070470029018802D041F065
:10568000010101E021F001010180704730B5028C79
:1056900022F001020284028C8388048B22F0020231
:1056A00024F073050C882C438D8915434A882A43BE
:1056B0006D4DA84202D0724DA8420DD122F00805CE
:1056C000CA8923F440732A4322F004058A882A43B6
:1056D0000D8A1D434B8A2B43838004838968416371
:1056E000028430BD70B5028C22F010020284028C5C
:1056F0008488038B0D8823F4E6464FF6FF7303EA94
:10570000052535438E8922F0200203EA061616434A
:105710004A8803EA02123243534EB04202D0584E36
:10572000B04215D122F08006CA8924F4406403EA0D
:105730000212324322F040068A8803EA0212324300
:105740000E8A03EA860626434C8A03EA840434431D
:105750008480058389688163028470BD70B5028C82
:1057600022F480720284028C8488838B0D8823F05B
:1057700073031D4322F400738E894FF6FF7202EA11
:1057800006261E434B8802EA03233343364EB042BB
:1057900002D03B4EB04215D123F40066CB8924F4ED
:1057A000405402EA0323334323F480668B8802EAE1
:1057B000032333430E8A02EA061626434C8A02EA82
:1057C00004143443848085838968C163038470BD75
:1057D00070B5028C22F480520284048C8288838B00
:1057E0000D8823F4E6464FF6FF7303EA052535439B
:1057F00024F400568C8903EA043434434E8803EAC7
:1058000006362643184CA04202D01D4CA04205D1BA
:1058100022F480440A8A03EA82122243828085832A
:1058200089680164068470BD002101804180818007
:1058300081608181C18101824182704730B501243C
:10584000058C00F118038C40A543058431B3082969
:105850002CD0091FC1F34E001844016848F6FF73AD
:105860001940016001681AE0000001400004004096
:1058700000080040000C00400010004000140040F0
:105880000004014000400140004401400048014044
:1058900000180040001C00400020004006E04FF6C9
:1058A000FF7303EA02221143016030BD03EB510094
:1058B00001684FF68F73194001600168F3E7416397
:1058C000704781637047C163704701647047028B02
:1058D00022F070020A4302837047028B4FF6FF7377
:1058E00022F4E04203EA0121114301837047828BD5
:1058F00022F070020A4382837047828B4FF6FF7357
:1059000022F4E04203EA0121114381837047028BB4
:1059100022F008020A4302837047028B4FF6FF739E
:1059200022F4006203EA0121114301837047828B54
:1059300022F008020A4382837047828B4FF6FF737E
:1059400022F4006203EA0121114381837047028B34
:1059500022F004020A4302837047028B4FF6FF7362
:1059600022F4806203EA0121114301837047828B94
:1059700022F004020A4382837047828B4FF6FF7342
:1059800022F4806203EA0121114381837047028B74
:1059900022F080020A4302837047028B4FF6FF73A6
:1059A000C2F30E0203EA0121114301837047828B87
:1059B00022F080020A4382837047828B4FF6FF7386
:1059C000C2F30E0203EA0121114381837047028C66
:1059D00022F002020A4302847047028C22F008027D
:1059E0000A4302847047028C4FF6FF7322F02002B4
:1059F00003EA0111114301847047028C4FF6FF73D3
:105A000022F0800203EA0111114301847047028CE5
:105A10004FF6FF7322F4007203EA0121114301845F
:105A20007047028C4FF6FF7322F4006203EA0121F3
:105A3000114301847047028C4FF6FF7322F4005229
:105A400003EA013111430184704710B50123048C2E
:105A50008B409C430484038C8A401343038410BD11
:105A600010B50423048C8B409C430484038C8A402F
:105A70001343038410BD828B22F440628283828BA5
:105A80004FF6FF7303EA01210A4382837047828B3A
:105A900022F00C028283828B0A4382837047028B3E
:105AA00022F440620283028B4FF6FF7303EA012166
:105AB0000A4302837047F0B5048C24F01004048478
:105AC000078B068C4FF6FF7404EA011527F4734721
:105AD00004EA0331394304EA02220A4326F0A00112
