:020000040800F2
:1000000098300020754600084502000847020008A5
:10001000490200084B0200084D02000800000000E1
:100020000000000000000000000000009D0100082A
:100030004F02000800000000E1010008AB6C00085E
:100040008F4600088F4600088F4600088F4600083C
:100050008F4600088F4600088F4600088F4600082C
:1000600017040008630400088F4600080103000815
:10007000C30200084D0300088F46000875020008FF
:100080008F4600087D0200088F4600088F46000852
:100090008F4600088F4600088F4600088F460008EC
:1000A0008F46000871030008910300088F4600087E
:1000B00093030008B3030008D30300088F46000829
:1000C0008F4600088F4600088F460008130400087A
:1000D0008F460008550200088F4600088F4600082A
:1000E0008F4600088F4600088F4600088F4600089C
:1000F0008F4600088F4600088F460008230300083B
:100100008F4600088F460008F30300081504000816
:100110008F4600088F460008570300085F03000859
:100120008F4600088F4600089F0200088F4600088F
:100130008F4600088F4600088F4600088F4600084B
:100140008F4600088F4600088F4600088F4600083B
:10015000B90200088F4600088F4600088F46000845
:100160008F4600088F4600088F4600088F4600081B
:100170008F4600088F4600088F4600088F4600080B
:100180008F4600088F460008DFF80CD007F02AFEE3
:10019000004800477144000898300020234B19683C
:1001A0000868B0E8F04F80F309884FF0000080F352
:1001B000118870470000000003480068006880F361
:1001C000088862B600DF00BF08ED00E0DFF80C0031
:1001D000016841F470010160704700BF88ED00E0E4
:1001E000EFF30980114B1A681EF0100F08BF20EDC5
:1001F000108A20E9F04F106008B54FF0140080F32A
:10020000118807F028F84FF0000080F31188BDE84E
:10021000084019680868B0E8F04F1EF0100F08BFDA
:10022000B0EC108A80F30988704700BFDC01002021
:10023000EFF311804FF0140181F31188704780F3C0
:10024000118870477047FEE7FEE7FEE7FEE770475C
:100250007047704710B5834C40F22551204605F099
:100260006EFF002805D02046BDE81040202105F093
:1002700063BF10BD7C497D4805F073B870B57B4DF8
:100280007B4C30352146284605F048F8002805D03B
:1002900021462846BDE8704005F063B870BD10B532
:1002A0007449754805F05DF874484178007841EA72
:1002B00000207349088010BD6F487249483005F02E
:1002C00050B870B5694D704C483D2146284605F040
:1002D00025F8002813D02146284605F042F86B483F
:1002E00001F0F1FE00280AD1694C0021204605F0FA
:1002F00065FE2046BDE87040012105F05FBE70BD7F
:1003000070B55A4D634C603D2146284605F006F80D
:10031000002805D021462846BDE8704005F021B8E8
:1003200070BD70B5514C5C4D48342946204604F0F0
:10033000F5FF002809D00021204604F064FF29467B
:100340002046BDE8704005F00CB870BD47484649EE
:10035000303805F006B80121504805F0CEBC10B584
:1003600001214F4805F0C9FC3E497A20888010BD24
:1003700010B54C4C0121204605F0BFFC2088C10679
:100380004948016801D5491E00E0491C016010BDC3
:10039000704710B501218C07204605F0AEFC20887F
:1003A000C1064248016801D5491E00E0491C0160B0
:1003B00010BD10B53E4C0121204605F09EFC208862
:1003C000C1063C48016801D5491E00E0491C016096
:1003D00010BD10B5384C0121204605F08EFC208858
:1003E000C1063648016801D5491E00E0491C01607C
:1003F00010BD10B5324C0121204605F07EFC20884E
:10040000C1063048016801D5491E00E0491C016061
:1004100010BD7047704770B5042005F021F8002822
:100420001ED02021284804F074FA284D04212846C3
:1004300004F050FA1A4C012805D00421284604F093
:1004400049FA28B109E00021204605F0EFF804E060
:10045000204605F0EFF81E4908601E490420086098
:1004600070BD704700100140208000207060024085
:1004700000802020008020104064024014030020EF
:1004800008000020008800200088001032030020AF
:10049000004800402080001000800028001000402C
:1004A00000140040000001400C000020100000205B
:1004B00000040040140000200008004080010020DB
:1004C000000C00408401002000000240000C0240AB
:1004D00088010020143C014070B50546002407F057
:1004E000E7F9FE4902E02A5D0A55641C8442FADB02
:1004F000BDE870400121FA4804F085BE70B5F94DA1
:1005000006460024315D00290BD0284605F07CFD0D
:100510008021284605F009FE0028F9D0641CE4B2C9
:10052000F0E770BD70B5EF4E05460024002D0DD0EC
:100530002946304605F068FD8021304605F0F5FD7E
:100540000028F9D0641CE4B2032CEFD370BD73B55E
:100550000C460020FFF7E6FFE3A0FFF7CFFFDF48E0
:100560002246E2A1823807F08BFCDC488238FFF794
:10057000C5FFDFA0FFF7C2FFDFA0FFF7BFFFD7482F
:10058000DAA18238009A07F07BFCD44E0024D54DC6
:10059000823E2846315D05F037FD4021284605F0B2
:1005A000C4FD0028F9D0641C142CF2DBD2A0FFF7A4
:1005B000A5FFFF20FFF7B6FFFF20FFF7B3FFBDE861
:1005C0007C40FF20AEE770B505460C46C6A0FFF79D
:1005D00095FFC2482246C5A1823807F051FCBF48AA
:1005E0008238FFF78BFFC5A0FFF788FF2846FFF78B
:1005F00085FFC1A0FFF782FFBDE87040FF2091E7B3
:1006000077B5BEA185B00646D1E90001CDE900016C
:10061000B9A0002200680390B3A0B04D0068283D47
:10062000A5F128030290AD4C1146A3F13200A95464
:1006300099548154A154521CD2B21E2AF7D30A21D4
:100640000170FF2444708470C470A448A7A150387E
:10065000079A07F015FCA14902A8503907F010F9D4
:100660009E4802A9823807F00BF99C4869468238F7
:1006700007F006F999483146823807F001F99748A2
:100680009AA15038069A07F0FBFB94495039A1F122
:10069000320007F0F5F8914803A9823807F0F0F826
:1006A0008E492C706C702839AC70A1F15A0007F09B
:1006B000E7F88A488238FFF70FFF08B070BD2DE9D0
:1006C000F74188468DA185B00646D1E90001CDE904
:1006D000000189A000220068039083A07F4D00687C
:1006E000283DA5F1280102901446A1F13200AC5436
:1006F0008C548454521CD2B20A2AF8D30A210170B5
:10070000FF2747708770C770744878A15038079AE0
:1007100007F0B6FB714902A8503907F0B1F86F48ED
:1007200002A9823807F0ACF86C486946823807F0B5
:10073000A7F86A483146823807F0A2F86748414670
:10074000823807F09DF8654803A9823807F098F8C9
:100750002F706F706149AF70EC7028392C71A1F166
:100760005A0007F08DF85D488238FFF7B5FE08B0F3
:10077000BDE8F08170B50020FFF7D4FE5AA0FFF766
:10078000BDFE56480D2259A1823807F079FB534827
:100790008238FFF7B3FE59A0FFF7B0FE594C202175
:1007A000204604F097F802464C4850A1823807F0E2
:1007B00067FB4A488238FFF7A1FE1021204604F06B
:1007C00089F80246454849A1823807F059FB434859
:1007D0008238FFF793FE4C4D8021284604F07AF8CA
:1007E00002463E4841A1823807F04AFB3B48823826
:1007F000FFF784FE4021284604F06CF80246374893
:100800003AA1823807F03CFB34488238FFF776FE85
:100810004FF40041204604F05DF802462F4833A112
:10082000823807F02DFB2D488238FFF767FE4FF422
:100830008041204604F04EF8024628482BA1823819
:1008400007F01EFB25488238FFF758FE4FF4005191
:10085000204604F03FF80246204824A1823807F0E1
:100860000FFB1E488238FFF749FE4021274804F05D
:1008700031F8024619481DA1823807F001FB1748DC
:100880008238FFF73BFE1CA0FFF738FEFF20FFF782
:1008900049FEFF20FFF746FEBDE87040FF2041E61D
:1008A000FEB51BA10646D1E90001CDE900011AA061
:1008B00000210A4D0068283DA5F1280202900C464F
:1008C000A2F132006C5454544454491CC9B2322928
:1008D000F8D30A210170FF2747701FE0D2020020E1
:1008E000B860024000500040740000002564000021
:1008F0002E7478743D000000220000002E7478747D
:100900003D220000000802400000024000100240AA
:100910002E76616C3D0000006A0000008770C77091
:100920000022AFF23801FE4807F0AAFAFC4902A8FB
:1009300006F0A6FFFA4802A9323806F0A1FFF848EF
:100940006946323806F09CFF3246AFF26001F44847
:1009500007F096FAF249A1F1320006F091FF2F70EC
:100960006F70EF49AF70EC7028312C71A1F15A0013
:1009700006F086FFEA483238FFF7AEFDFEBD70B5DF
:100980000D46044606F046FF291B491C90FBF1F278
:1009900001FB1200204470BD2DE9FC414FF080475F
:1009A000384604F047FEDF4D2969642640EA0140DD
:1009B00090FBF6F000240190384604F03BFE2969D4
:1009C00040EA014090FBF6F001990090401A00D5F2
:1009D0004042322800DA641C00980190022CEBDBC4
:1009E0000098002800DA4042BDE8FC812DE9FC4176
:1009F000CD4F384604F01EFECA4D6969642640EAB0
:100A0000014090FBF6F000240190384604F012FEFD
:100A1000696940EA014090FBF6F001990090401AA4
:100A200000D54042322800DA641C00980190022C64
:100A3000EBDB00980028D7DA4042D5E710B5FFF786
:100A4000ABFF0446FFF7D2FF002C00DA6442002817
:100A500000DA4042204410BD01B581B0019800EB9E
:100A6000C00040000090002801D0401EFAE70CBDF5
:100A700001B581B044F250610198484300900028CC
:100A800001D0401EFAE70CBD2DE9FC4101211F20D9
:100A900004F088F801248DF8044000268DF80660E3
:100AA0004FF6FF758DF80740032700958DF8057008
:100AB00069469E4803F0A8FE8DF804408DF8066054
:100AC0008DF8074000958DF805706946984803F049
:100AD0009BFE8DF804408DF806608DF80740009568
:100AE0008DF805706946934803F08EFE7CE77CB56F
:100AF00001217E2004F056F80024FC208DF80440EB
:100B0000012500908DF8075002268DF80560694692
:100B1000894803F079FE48F206008DF80440009001
:100B20008DF807508DF805606946804803F06CFE2B
:100B300046F6C4408DF8044000908DF807508DF8BB
:100B4000056069467A4803F05FFE03208DF8044093
:100B500000908DF807508DF805606946754803F0E0
:100B600053FE4FF2FF508DF8044000908DF807506F
:100B70008DF805606946714803F046FE7CBD1FB5DF
:100B80004FF4E06003F088FD36208DF80C0000245F
:100B90008DF80D408DF80E4001208DF80F0003A850
:100BA00003F07FFD0121102004F01AF83220ADF887
:100BB0000000ADF80840ADF8024040F2E730604C6C
:100BC00001906946204604F0EFFC0121204605F023
:100BD00094F801221146204605F06FF800212046C6
:100BE00004F024FD0121204604F056FD1FBD1FB571
:100BF0004FF4E06003F050FD37208DF80C00002426
:100C00008DF80D408DF80E4001208DF80F0003A8DF
:100C100003F047FD0121202003F0E2FF4FF4FA70BA
:100C2000ADF80000ADF80840ADF8024040F2E73002
:100C3000444C01906946204604F0B6FC0121204650
:100C400005F05BF801221146204605F036F8002138
:100C5000204604F0EBFC0121204604F01DFD1FBDE1
:100C600070B58AB00121022003F0C4FF01210C20DD
:100C700003F098FF2E4E03220621304603F04DFE6E
:100C800003220721304603F048FE032208213046A4
:100C900003F043FE03220921304603F03EFE4FF4E9
:100CA0007070059002208DF8180003208DF819004F
:100CB00000248DF81A4001258DF81B5005A93046F7
:100CC00003F0A2FDA420ADF81C0028021E4E0890DF
:100CD000ADF82400ADF81E4007A9304604F064FCCE
:100CE0006020ADF80000ADF802500294ADF80C4061
:100CF0000121304604F0D0FC0021304604F096FC7F
:100D00006946304604F0D2FC6946304604F0FAFCED
:100D10006946304604F032FD6946304616E0000070
:100D20008202002000000020000400400004024075
:100D300000080240000C0240000002400010024087
:100D400000100040001400400004014004F050FD79
:100D50000121304604F092FF0AB070BD70B58AB030
:100D60000121042003F03CFF01210D2003F01AFFB4
:100D7000FF4E02220C21304603F0CFFD02220D214E
:100D8000304603F0CAFD02220E21304603F0C5FDB5
:100D900002220F21304603F0C0FD4FF47040059051
:100DA00002208DF8180003208DF8190000248DF81A
:100DB0001A4001258DF81B5005A9304603F024FD8B
:100DC000A420ADF81C002802EA4E0890ADF82400DB
:100DD000ADF81E4007A9304604F0E6FB7020ADF8E0
:100DE0000000ADF802500294ADF80C4001213046ED
:100DF00004F052FC0021304604F018FC69463046ED
:100E000004F054FC6946304604F07CFC69463046E8
:100E100004F0B4FC6946304604F0EAFC9CE730B5C7
:100E2000012187B0080403F0E5FE0121084603F024
:100E3000B9FE00244FF6FF70CF4DADF80040019091
:100E4000ADF80840ADF802406946284604F0ACFB16
:100E50000420ADF80C00C820ADF814000120ADF856
:100E60001000ADF80E4003A9284604F057FEC34C0D
:100E700000231A460321204604F0B9FF0121204631
:100E800004F03BFF01221146204604F016FF012129
:100E9000284604F001FC0021204604F0C7FB07B0FF
:100EA00030BD2DE9F04701218AB0084603F098FED5
:100EB0000121022003F094FE0121032003F072FEC1
:100EC000DFF8BC9201220F21484603F026FDDFF82F
:100ED000B48201220321404603F01FFD02220421B7
:100EE000404603F01AFD02220521404603F015FD9D
:100EF00002268DF80460032738208DF80570002441
:100F000000908DF8064001258DF80750694640464F
:100F100003F07AFC8DF80460E8038DF8057000900A
:100F20008DF806408DF807506946484603F06CFC82
:100F30004FF6FF70ADF80C4004904FF08049ADF8CB
:100F40001440ADF80E4003A9484604F02DFBDFF82D
:100F500038A203A9504604F027FB4FF004081420E0
:100F6000ADF81880ADF82000ADF81A60ADF81C504F
:100F700006A9484604F0D2FD06A9504604F0CEFD6D
:100F800002231A460321484604F031FF02231A4681
:100F90000321504604F02BFF0121484604F0ADFE2A
:100FA0000121504604F0A9FE01221146484604F0F2
:100FB00084FE01221146504604F07FFE012148467E
:100FC00004F06AFB0121504604F066FB002148460C
:100FD00004F02CFB0021504604F028FB780203F0BB
:100FE0005BFB1D208DF808008DF809708DF80A4014
:100FF0008DF80B5002A803F054FB1C208DF808005C
:101000008DF809808DF80A408DF80B5002A803F086
:1010100048FB0AB0BDE8F08770B501218AB00846E8
:1010200003F0E8FD0121102003F0BCFD4FF4206027
:10103000009002208DF8040003208DF805000024A4
:10104000524E8DF8064001258DF80750694630460E
:1010500003F0DAFB01220921304603F05EFC012295
:101060000B21304603F059FC4FF6FF70424EADF8AD
:1010700008400390ADF81040ADF80A4002A9304690
:1010800004F092FA0420ADF814000A20ADF81C0018
:10109000ADF81640ADF8185005A9304604F03EFDF5
:1010A00000231A460321304604F0A1FE01213046F8
:1010B00004F023FE01221146304604F0FEFD01211A
:1010C000304604F01AFE01221146304604F0F5FDC8
:1010D0000121304604F0E0FA0021304604F0A6FA7F
:1010E0004FF4C06003F0D8FA19208DF820008DF875
:1010F00021508DF822408DF8235008A803F0D1FA32
:101100002AE6F0B59BB00121214803F04BFD0121F7
:101110000D02284603F06EFD1E480024CDE9004074
:101120001D4802A9082681E85100A800CDE9054024
:10113000400007908000CDE908050AA900010125BB
:1011400081E83100154F0D94694638460E9404F03D
:1011500021F80121384604F056F83C20199003206C
:101160008DF868008DF86B4019A90D481AE0000051
:10117000000C024000080040000001400040014017
:101180000000024000040240000400400010024041
:10119000050040004C200140040300201064024080
:1011A0000008024003F030FB4FF44030CDE9154019
:1011B0004FF47060CDE9174015A803F0F0FD280644
:1011C0000F908DF840508DF8415011941294139463
:1011D0008DF850600FA9FE4C204603F0B5FD0423A6
:1011E00001220221204603F024FE042302220321CF
:1011F000204603F01EFE042303221946204603F076
:1012000018FE04231A460521204603F012FE04238B
:1012100005220C21204603F00CFE042306220D219A
:10122000204603F006FE042307220E21204603F089
:1012300000FE042308220F21204603F0FAFD0121BD
:10124000204603F073FE0121204603F065FE0121D4
:10125000204603F0BBFD204603F025FE1BB0F0BD89
:1012600008B54FF4E06003F017FA25208DF8000070
:1012700000208DF801008DF8020001208DF8030098
:10128000684603F00EFA08BD70B5054696B0012118
:10129000102003F0AFFC0121084603F083FC01217C
:1012A000880503F07FFC4FF4C060139002208DF896
:1012B000500000248DF852408DF85340C54E8DF8F3
:1012C000510013A9304603F09FFA07220921304646
:1012D00003F023FB07220A21304603F01EFB0F9583
:1012E000ADF844400C20BC4DADF84040ADF8460090
:1012F000ADF84240ADF848400FA9284604F0EDFD96
:101300000121284604F05AFE4FF4A06003F0C4F90E
:101310003A208DF854008DF855408DF85640012044
:101320008DF8570015A803F0BCF9AC4E304603F019
:10133000A9FE4FF000600090A948CDE902040A2000
:101340000490281D01900015CDE905408010CDE9DD
:10135000084040020A9004200B9007940320CDE936
:101360000C04694630460E9403F014FF012240211C
:10137000284604F0BAFE01221021304603F0B8FFDF
:101380000121304603F03FFF16B070BDF0B50646B0
:10139000012197B0480503F005FC01214D042846C2
:1013A00003F01EFC0121082003F0FCFB60201390D9
:1013B00002208DF8500000248DF852408DF85340E3
:1013C000884F8DF8510013A9384603F01DFA072203
:1013D0000521384603F0A1FA07220621384603F01A
:1013E0009CFA0F96ADF844400C207F4EADF840407B
:1013F000ADF84600ADF84240ADF848400FA9304680
:1014000004F06BFD0121304604F0D8FD4FF4A060DC
:1014100003F042F911208DF854008DF855408DF8F5
:10142000564001208DF8570015A803F03AF96F4F88
:10143000384603F027FEA8020090402003906C4835
:1014400002903C200490301D01900015CDE905402C
:101450008010CDE908400420CDE90A50079403200C
:10146000CDE90C04694638460E9403F093FE012240
:101470008021304604F039FE01228021304604F0FC
:1014800034FE01221021384603F032FF0121384694
:1014900003F0B9FE17B0F0BD70B50546012196B056
:1014A000880403F09DFB0121082003F07BFB012150
:1014B000480503F077FB4FF44070139002208DF83D
:1014C000500000248DF852408DF85340454E8DF861
:1014D000510013A9304603F097F90722082130463E
:1014E00003F01BFA07220921304603F016FA0F9584
:1014F000404EADF84040ADF844400C25ADF84240B8
:10150000ADF84840ADF846500FA9304604F0E5FC70
:101510000121304604F052FD4FF4A06003F0BCF806
:101520008DF854508DF855408DF8564001208DF8B7
:10153000570015A803F0B5F82C4D783D284603F068
:10154000A1FD4FF000600090254869461E30CDE9AE
:10155000020408200490301D01900015CDE90540DB
:101560008010CDE9084040020A9004200B900794B7
:101570000320CDE90C0428460E9403F00BFE012253
:101580004021304604F0B1FD01224021304604F0F4
:10159000ACFD01221021284603F0AAFE01212846B5
:1015A00003F031FEF0E6F0B50646012197B0C8041D
:1015B00003F016FB0121084603F0F4FA0121480567
:1015C00003F0F0FA0325022013958DF8500013E084
:1015D0000020014000000240001001404064024031
:1015E00014030020000C024000440040A0600240B0
:1015F000040100200048004000248DF852408DF87E
:101600005340F94F8DF8510013A9384603F0FCF808
:1016100008220021384603F080F9082201213846CB
:1016200003F07BF90F96ADF844400C20EF4EADF877
:101630004040ADF84600ADF84240ADF848400FA933
:10164000304604F04AFC0121304604F0B7FC4FF468
:10165000A06003F021F80D208DF854008DF855405E
:101660008DF8564001208DF8570015A803F019F8A1
:10167000DF4F384603F006FD78050090DD48CDE9E0
:10168000020408200490301D01900015CDE90540AA
:101690008010CDE90840400207940A900420CDE96B
:1016A0000C540B90694638460E9403F073FD0122EA
:1016B0004021304604F019FD01224021304604F05B
:1016C00014FD01221021384603F012FE0121384694
:1016D00003F099FDDEE62DE9F0418046012196B048
:1016E000480503F05FFA0121080503F079FA0121AA
:1016F0000C2003F057FA02258DF8405000248DF895
:101700004240BD4F04268DF843400F968DF841505E
:101710000FA9384603F078F88DF840508DF8424014
:101720008DF84340E8028DF84150B44D0F900FA959
:10173000284603F069F808220221384603F0EDF844
:1017400008220C21284603F0E8F84FF4A06002F0CC
:10175000A3FF2F208DF8540005208DF855008DF83B
:10176000560001208DF8570015A802F09AFFADF839
:101770004C400C20A24DADF84840ADF84E00CDF8DD
:101780004480ADF84A40ADF8504011A9284604F015
:10179000A4FB0121284604F011FC954F7837384608
:1017A00003F070FC70060090402003909148694659
:1017B0005138029031200490281D01900015CDE988
:1017C00005408010CDE908404002CDE90A060794A3
:1017D0000320CDE90C0438460E9403F0DBFC012213
:1017E0008021284604F081FC01221021384603F0B4
:1017F0007FFD0121384603F006FD16B0BDE8F081FB
:1018000030B585B00121082003F0CCF9012188030F
:1018100003F0F0F900240C208DF81040012503900E
:101820008DF8135003A9744802F0EEFF0221032043
:1018300004F0C5FC042000908DF8044010208DF8C1
:1018400005008DF80650684603F0BAFD08208DF8B3
:1018500008008DF809408DF80A408DF80B5002A859
:1018600002F01FFF05B030BD10B5012810D00328CD
:1018700019D0042822D0052809D1614C204604F053
:10188000C3FB4021204604F050FC0028F9D010BDD5
:101890005C4C204604F0B8FB4021204604F045FC97
:1018A0000028F9D010BD584C204604F0ADFB402173
:1018B000204604F03AFC0028F9D010BD4B4C2046DD
:1018C00004F0A2FB4021204604F02FFC0028F9D0B0
:1018D00010BD4E49002048624D49C8604FF080421B
:1018E000506208614B4A10604861704770B5484DBE
:1018F00000202871044661210120FFF7B5FF322046
:10190000FFF7B6F8641C022CF5D3012028717A2069
:10191000E87070BD10B561210120FFF7A5FFBDE89B
:1019200010400A20FFF7A4B870B5394D0020A87107
:10193000044661210320FFF797FF3220FFF798F854
:10194000641C022CF5D30120A8717A20687170BD47
:101950002DE9F14F96B0002014908DF800008DF81D
:1019600028002B492C48DFF8A8C0169F234C2B4A8F
:101970008614CB6A4FF400450CF1800C4FF480794B
:101980004FF4806A4FF4804B122F6BD2DFE807F0E0
:1019900009276B71767B80848A8E92969A9EA3A784
:1019A000B1FD022102F096FF60B1012229462046D6
:1019B00002F0A8FF2946204602F096FF01460022C9
:1019C00017A091E000222946204602F09BFF2946FD
:1019D000204602F089FF0146002218A084E001227F
:1019E0001EA0DCF83C107FE000000240004C0040EC
:1019F0004060024023030020000C02400008024027
:101A0000005000400010014000480040000001402C
:101A100000000020240400400004024020020020B6
:101A2000524F424F542044414E4720434841592091
:101A300053414E20444F3A2020200000524F424F45
:101A4000542044414E4720434841592053414E20A1
:101A500058414E483A20202000000000494D553A98
:101A60000000000042E0FEF7E9FF01460222EDA07F
:101A70003AE00322EFA0DCF87C1035E0F0480422C5
:101A80000168F0A030E00522F1A0DCF878102BE02E
:101A90000622496CF1A027E0E9487030072201795D
:101AA000F1A021E008228969F2A01DE00922C9699C
:101AB000F1A019E00A22096BF0A015E00B22896B56
:101AC000F2A011E011680C22F4A00DE052F82310EE
:101AD0000D22F8A008E00E221946FCA004E0FE4802
:101AE0000F2250F82310FDA0FEF78AFD17B0BDE8C5
:101AF000F08FDFF8F8838021404602F0EBFE0246CB
:101B0000FBA1684606F0BCF969460AA805F0B8FED4
:101B10004946404602F0DEFE0246F5A1684606F060
:101B2000AFF969460AA805F0ABFE57465146404654
:101B300002F0D0FE0246EEA1684606F0A1F9694621
:101B40000AA805F09DFE8021204602F0C3FE024651
:101B5000E7A1684606F094F969460AA805F090FEE8
:101B60004021204602F0B6FE0246E1A1684606F09A
:101B700087F969460AA805F083FE3946204602F037
:101B8000A9FE0246DAA1684600E0B5E006F078F961
:101B900069460AA805F074FED64F0121384602F0C6
:101BA00099FE0246D2A1684606F06AF969460AA87B
:101BB00005F066FE0221384602F08CFE0246CCA1FA
:101BC000684606F05DF969460AA805F059FE20212D
:101BD000404602F07FFE0246C5A1684606F050F975
:101BE00069460AA805F04CFE4021404602F072FE0C
:101BF0000246BFA1684606F043F969460AA805F007
:101C00003FFE3146404602F065FE0246B8A16846F6
:101C100006F036F969460AA805F032FE1021404662
:101C200002F058FE0246B2A1684606F029F969465C
:101C30000AA805F025FE2946404602F04BFE024662
:101C4000ABA1684606F01CF969460AA805F018FE23
:101C50000821404602F03EFE0246A5A1684606F075
:101C60000FF969460AA805F00BFE0421404602F070
:101C700031FE02469EA1684606F002F969460AA8AE
:101C800005F0FEFD0221404602F024FE024698A126
:101C9000684606F0F5F869460AA805F0F1FD5D46CC
:101CA0005946404602F016FE024691A1684606F0EB
:101CB000E7F869460AA805F0E3FD4FF40051204615
:101CC00002F008FE02468AA1684606F0D9F8694685
:101CD0000AA805F0D5FD2946204602F0FBFD024684
:101CE00083A1684606F0CCF869460AA805F0C8FD4D
:101CF00010220AA980A04CE12946074602F0F4FD13
:101D000002467BA1684606F0BBF869460AA805F0C2
:101D1000B7FD5946384602F0E7FD024674A1684611
:101D200006F0AEF869460AA805F0AAFD4FF4005186
:101D3000384602F0D9FD02466DA1684606F0A0F8CB
:101D400069460AA805F09CFD3146384602F0CCFDF4
:101D5000024667A1684606F093F869460AA805F0AE
:101D60008FFD4FF400684146384602F0BDFD024643
:101D70005FA1684606F084F869460AA805F080FD70
:101D80005146384602F0B0FD024659A1684606F0B9
:101D900077F869460AA805F073FD4FF400712046F4
:101DA00002F0A2FD024652A1684606F069F86946B3
:101DB0000AA805F065FD4D464946204602F094FD0F
:101DC00002464BA1684606F05BF869460AA805F092
:101DD00057FD4A4C2946204602F086FD024644A1A2
:101DE000684606F04DF869460AA805F049FD01214C
:101DF000204602F079FD02463DA1684606F040F813
:101E000069460AA805F03CFD0221204602F06CFD5F
:101E1000024637A1684606F033F869460AA805F07D
:101E20002FFD6DE0454E434F4445525F544F4E47A2
:101E30003A0000006C617A6520646F3A200000006F
:101E4000000100206C617A652078616E683A0000BC
:101E50006C617A652073617500000000646F206C0E
:101E6000617A653A000000004C4A4F595F4C523A83
:101E700000000000693A20006A3A200073696C6F24
:101E80005F7675615F636861793A20006269656EAB
:101E9000203220626F6E673A20000000626F6E672A
:101EA0002074726F6E672073696C6F5B305D3A20CF
:101EB00000000000626F6E672074726F6E6720739F
:101EC000696C6F5F736F3A200000000073696C6F7C
:101ED0005F736F3A20000000380200206269656E6F
:101EE000206461207468613A200000000010024004
:101EF00025640000000C0240493A00000000024046
:101F00000121384602F0F0FC0246AFF21C0168469F
:101F100005F0B6FF69460AA805F0B2FC4146204626
:101F200002F0E2FC0246AFF23801684605F0A8FF75
:101F300069460AA805F0A4FC3146204602F0D4FC0C
:101F40000246AFF25401684605F09AFF69460AA8B6
:101F500005F096FC8021384602F0C6FC0246AFF23E
:101F60007001684605F08CFF69460AA805F088FCF8
:101F70004021384602F0B8FC0246AFF28C016846B8
:101F800005F07EFF69460AA805F07AFC11220AA92D
:101F9000FEA0FEF794FBA9E50121FD4803F033B94B
:101FA00011B4FC48416F009A914201DD002101E02B
:101FB000416F491C4167406F18BCC9E42DE9F047E7
:101FC0000025F54E074601244FF400594FF4804890
:101FD0004FF4805A00224146304602F093FC102014
:101FE000FEF73AFD274201D0012200E000224946D7
:101FF000304602F087FC01224146304602F082FC66
:102000001020FEF729FD5146304602F063FC00B176
:102010002543600010F0FF04DCD12846BDE8F087BE
:1020200070B5DD4E4FF4004500222946304602F0DF
:1020300069FC1020FEF710FD0120FFF7BFFF4220D2
:10204000FFF7BCFFFF20FFF7B9FFFF20FFF7B6FF48
:10205000D04CF0342070FF20FFF7B0FF6070FF20FD
:10206000FFF7ACFFA070FF20FFF7A8FFE070FF2094
:10207000FFF7A4FF2071FF20FFF7A0FF6071294642
:102080003046BDE87040012202F03CBC70B5C24E43
:102090004FF4004500222946304602F033FC102060
:1020A000FEF7DAFC0120FFF789FF4220FFF786FFE9
:1020B000044601222946304602F024FC1020FEF797
:1020C000CBFC204670BDB34A0021803A9164C279AE
:1020D000B049F0310D2A09D0FF200870487088708F
:1020E000C8700871487188710020704702780A70C2
:1020F00042784A7082788A70C278CA7002790A710E
:1021000042794A718079887101207047A148F03086
:10211000A0F5B8710278FF2A05D14278FF2A02D1D2
:102120008278FF2A09D08A6C531C8B64C82A03DD8D
:10213000FF210170417081707047002088647047F2
:102140009448F030807970479248F030007840062B
:1021500001D401207047002070478E48F03000788D
:10216000C00601D4012070470020704701B59DF8DA
:102170000000052801D2002008BD9DF8000008BD20
:10218000F0B5844E0027803E1D4606F582744FF060
:10219000010C002806D009DDC0B2FFF7E7FFE070B0
:1021A000A7700AE096F87400E07006E04042C0B202
:1021B000FFF7DCFFE07084F802C0002907D00ADDD9
:1021C000C8B2FFF7D3FFE07184F806C009E096F8C3
:1021D0007400E07105E04842C0B2FFF7C7FFE0714C
:1021E000A771002A06D009DDD0B2FFF7BFFFE07269
:1021F000A7720AE096F87400E07206E05042C0B29E
:10220000FFF7B4FFE07284F80AC0002D07D00ADDA2
:10221000E8B2FFF7ABFFE07384F80EC0F0BD96F8AC
:102220007400E073F0BD6842C0B2FFF79FFFE07337
:10223000A773F0BD57498431C870C871C872C8739C
:10224000704754490120886570475248C069A0F51D
:10225000EA41303901D00120704700207047FFF774
:1022600045BB4C488038B0F90800404270474948A7
:10227000B5EEC00A8038D0ED140AF1EE10FA02D2A1
:1022800030EE600A01E030EE200ABDEEC00A10EE2A
:10229000100A704710B5041E2DED068B3D489FEDCA
:1022A0003FAB9FED409B11D0806814DA05F08FFCA6
:1022B00041EC180B204605F08AFC53EC1A2B05F074
:1022C000A5FB53EC192B05F09BFB13E09FED370AA0
:1022D000BDEC068B10BD05F07AFC41EC180B2046D6
:1022E00005F075FC53EC1A2B05F090FB53EC192B01
:1022F00005F0E5FA53EC182B05F0FAFB05F08BFC22
:1023000000EE100AE4E7B5EEC00AF1EE10FA01DAC9
:10231000B1EE400A7047002800DA404270471D497C
:10232000803991ED1B0AD1ED1C1AF1EE400A80EEC6
:10233000A11A00EE900AF8EEE00A01EE200ABDEEC6
:10234000C00A10EE100A7047B0EE402A9FED180A3E
:10235000B5EEC02AF1EE10FA01D2B1EE422AF5EE46
:10236000C00AF1EE10FA01D2F1EE600AB5EEC01A21
:10237000F1EE10FA01D2B1EE411AF5EEC01AF1EE0B
:1023800010FA01D2F1EE611A14E000004F3A000099
:10239000A060024080000020000C02403333333341
:1023A0003333D33F9A9999999999B93F0000000026
:1023B0006F12833AB4EEC02AF1EE10FA01DDB0EEEE
:1023C000420AF4EEC00AF1EE10FA01DDB0EE600A46
:1023D000B4EEC01AF1EE10FA01DDB0EE410AF4EEEF
:1023E000C01AF1EE10FA01DDB0EE610A7047FB4849
:1023F00080687047F948406B704770B5F74C2DED19
:10240000048BB0EE408AA4F18005E069A0F5EA41B2
:1024100030393ED0A26AE16B95ED171A891A401A3D
:1024200000EE100AB8EEC00AC0EE010A95ED180AD7
:1024300030EE800AD5ED1F0A60EE208AB0EE680A01
:1024400005F0EEFDB0EE009A20EE090A84ED150AC3
:10245000B0EE680A05F03CFD60EE090AC4ED140A0E
:1024600094ED151A94ED0C0A31EE001A30EEC00A04
:1024700084ED121A84ED130AB5EEC08AF1EE10FA5B
:102480006ED0606805286BD2DFE800F00E1F324185
:1024900056001FED3A0A84ED150A84ED140A84ED06
:1024A000130A84ED120AE7E794ED120A30EE080AE7
:1024B00084ED120A94ED130A30EE480A84ED130AF3
:1024C00094ED140A30EE080A1EE094ED130A30EE83
:1024D000480A84ED130A94ED140A30EE080A84EDDC
:1024E000140A94ED150AD5ED150A08EE600A20E0ED
:1024F00094ED120A30EE080A84ED120A94ED140AE3
:10250000D5ED150A08EE200A84ED140A0DE094EDCD
:10251000120A30EE080A84ED120A94ED130AD5ED82
:10252000150A08EE600A84ED130A94ED150A30EEE0
:10253000480A84ED150A13E094ED120AD5ED150A48
:1025400008EE200A84ED120A94ED130A30EE480AD0
:1025500084ED130A94ED140A30EE080A84ED140A8F
:1025600004F1480090EC040AFFF7EEFED5ED130AE3
:10257000F8EEE00A80EE801ABDEEC10A10EE100AF5
:102580002061A168814200DDA06001202060BDECD7
:10259000048B70BD914900220028CA6048610FD1A8
:1025A0001FED7E0A8A6081ED0C0A47F23050C86147
:1025B000086281ED0B0A4A604A624A638A651CE739
:1025C0007047864890ED0B0AB5EEC00AF1EE10FA9E
:1025D00004D1416811B9416A002909D01FED8D0A63
:1025E000002180ED0B0A41604162C16B816204E70A
:1025F00070477A488038C0ED1B0A80ED1C0A70478E
:10260000764AD369834209D1D3688B4206D1D2ED91
:102610000C0AF4EE400AF1EE10FA0ED0D160916887
:1026200009B905219160D16B916282ED0C0AD061EC
:102630000020906192ED0B0ADFE67047674B30B4E3
:102640005C6A844209D1D3ED0B0AF4EE400AF1EE44
:1026500010FA02D15C688C4225D0DD6947F2305413
:10266000A54218D1DA6005229A60A04213DAB5EECD
:10267000C00A0122F1EE10FA5A6302DDDA6B8242DF
:1026800007DCB5EEC00AF1EE10FA04D2DA6B824232
:1026900001DAB1EE400A5960586283ED0B0A00205E
:1026A000986130BCA9E630BC70470A46014647F243
:1026B0003050C3E71FEDC30AA2E770B5474C05468B
:1026C0002DED028BF0EE608AD4ED080AB0EE418A5F
:1026D000F8EEE00AF4EE400AF1EE10FA0BD1E068F1
:1026E000A84208D1D4ED090AF8EEE00AF4EE680A2F
:1026F000F1EE10FA4AD0FDEEC00AC4ED080AD4ED9E
:102700000F0AF8EEE00A30EE600ABDEEC00A10EEE5
:10271000100A1FEDDA0A2946FFF772FF94ED0F0A3F
:10272000F8EEC00A78EEE00AFDEEE00A10EE903A0C
:10273000002B00DA5B42B8EEC00A642B19DDF4EE20
:10274000C08AF1EE10FA01DCB1EE488A18EE100AE8
:1027500005F04EFA05F05FFAFDEEE80ABDEC028BDB
:102760002A46BDE8704000EE100A002110EE900AE3
:1027700064E738EEC00A10EE100A05F039FA9FED52
:10278000181B53EC112B05F041F9E3E7BDEC028B6C
:1027900070BD124910B5486B01282CDDCA6B486A20
:1027A000801AFFF7B8FD062809DA486B421C4A6315
:1027B000B0F5FA7F1FDDBDE810400020EAE60520F5
:1027C0004A6BC860FA2A886001DDFB2048634A6AC8
:1027D000C86B904208DDBFEE000A07E080000020D1
:1027E0007B14AE47E17A743FB7EE000A81ED0B0A25
:1027F000BDE8104001E610BD70B5FE4991ED0C0A30
:10280000B5EEC00AF1EE10FA73D18B68002B70D0D0
:10281000486A47F23054A0426BDA91ED0B0AB5EEEC
:10282000C00AF1EE10FA7DD0CD69A1F18002A54277
:1028300060D1B5EEC00A1346F1EE10FA9B6E03DDCF
:10284000CD6BC41AAC4208DBB5EEC00AF1EE10FA4B
:1028500017D2CC6B0344A34213DD4B6B032B48DA36
:10286000CB6BC01AFFF757FD0A28486A0ADA88635B
:10287000002088609FEDE00AC86081ED0B0A02200D
:10288000486379E091ED020AD1ED0B0ACB6BB8EE0B
:10289000C00A984260EE200A92ED1A0AB8EEC01AF9
:1028A00080EE810A0FDDFFF72EFDCB6B486AC01A60
:1028B000FFF731FD00EE900AB8EEE01AD2ED160AED
:1028C00040EE010A0EE0FFF71EFDCB6B486AC01A0E
:1028D000FFF721FD00EE900AB8EEE01AD2ED160ADD
:1028E00050EE410A91ED020AB8EEC01A80EE810A5C
:1028F00042E046E0BF4AB5EEC00A803AD2ED190A7E
:10290000F1EE10FA18DD01EE100AF8EEC11A01EE30
:10291000103AB8EEC11A41EE401AB8EEE01A71EE64
:10292000C11A00E02BE091ED0F1AB8EEC11AF4EED7
:10293000C11AF1EE10FA1BD3B5EEC00AF1EE10FA8F
:102940001AD201EE100AF8EEE00AF8EEC11A01EE12
:10295000103AB8EEC11A41EE401A31EEA01AD1ED8C
:102960000F0AF8EEE00AB4EEE01AF1EE10FA03DD19
:10297000C96B401AFFF78EFCBDE870403DE5886AE0
:10298000F6E770BD9B49486B02280CDA9FED9A0A66
:10299000002281ED0C0A81ED0B0A47F230504A60AB
:1029A000C861C1E908028B6992485B1C80388B6161
:1029B000826F406F934201DB8A61896D3AE48D4AF0
:1029C00093695B1C9361834204DD906808449060C6
:1029D00000209061704710B5FFF743FC854CE06321
:1029E000FFF7D7FEE268A0684FF0FF31002A0BDD49
:1029F00090420ED006DA216988420ADAFFF78FFC8E
:102A0000022104E0606C02E000283CDD6069FFF711
:102A1000D6FFD4E90F01814203D0FFF7EDFEE06B52
:102A200020642068002831D094ED020AD4ED150A04
:102A3000B8EEC00A20EE200AFFF719FC94ED020A56
:102A4000D4ED140A0346B8EEC00A20EE200AFFF7C0
:102A50000EFC94ED020AD4ED130A0246B8EEC00A49
:102A600020EE200AFFF703FC94ED020AD4ED120ACF
:102A70000146B8EEC00A20EE200AFFF7F8FBBDE8D9
:102A80001040FFF77DBBBDE810407BE710BD70B57F
:102A90000D462DED048B06461446F0EE418AB0EE4D
:102AA000609AB0EE408A0221544801F013FF78EE9C
:102AB000281A38EE680A9FED521A012809D04D48AD
:102AC00080300068401BA04218DD00BFB0EE610AF4
:102AD00006E04848C06FA0EB0500A042F6DC03DA30
:102AE000F0EE490A304604E0F0EE490A3046B0EE16
:102AF000480ABDEC048BBDE87040DEE5F4DAEFE790
:102B000070B50D462DED048B06461446F0EE418A55
:102B1000B0EE609AB0EE408A0221384801F0DAFE49
:102B2000344B012878EE281A38EE680A986F9FED2A
:102B3000341AA0EB050004D0A04213DDB0EE610A08
:102B400002E0A042FADC03DAF0EE490A304604E083
:102B5000F0EE490A3046B0EE480ABDEC048BBDE801
:102B60007040AAE5F4DAEFE72DE9F05F2149F03192
:102B70008878401FF52801D8012500E00025087954
:102B8000401FF52801D8012700E00027194A0878DE
:102B900002F1F002C30652780DD543060BD5830629
:102BA00009D5030607D535B12FB1930603D5BDE886
:102BB000F05F0220EEE4530702D43226142403E02F
:102BC000D2071FD01E260A248B46DFF82880C106B4
:102BD00047F23059A8F1800A4FEA406115D4002924
:102BE00055DA81064FEA00602CD5002831462FDAED
:102BF000002036E0800000200000000000040240B9
:102C0000CDCC4C3E0A260724DEE700294FEA80613E
:102C100009DB00294FEA00601CDA002831461FDA80
:102C20004FF4E1601DE000294FEA006005DB002859
:102C30002DDA31464FF4617013E000281DDB314678
:102C4000FE480EE0002822DA31464FF4E17008E039
:102C5000FB4806E000281ADA314640F2465000E010
:102C6000F848FFF727FD9BF80000C1060FD5410685
:102C70000DD581060BD5000609D54DB95FB1D8F841
:102C80001C10494507D00520FFF784FC03E015B16F
:102C9000FFF797FC31E09BF8021001225846052906
:102CA00012D24378DB070FD0D8F81C10494504D066
:102CB00031460020BFEE080A14E08AF800202346BF
:102CC00062421046194616E0FA291CD99BF8010009
:102CD000C00718D0D8F81C10494506D0314600204E
:102CE000B7EE080AFFF7E1FC07E08AF8002063422C
:102CF000224619461046FFF743FA00218AF80010D1
:102D0000BDE8F05F5DE402231A4619461846F2E773
:102D100030B5CD48CD4A1423C56D691CC165014647
:102D20000C6E0021142D03D2D5892C44046604E0D6
:102D3000B4FBF3F4C16584670166456E6C1C4466A0
:102D4000C14C142DA46E03D295892C44846604E0F2
:102D5000B4FBF3F44166C4678166C56E6C1CC4663F
:102D6000B94C142D246F02D25189214405E0B4FBE3
:102D7000F3F2B54B80331A60C166016730BD70B5A0
:102D8000B14CB34DF0346078C00604D40122402128
:102D9000284601F0B7FD6078400615D401221102E3
:102DA000AC4801F0AFFD012294032146284601F012
:102DB000A9FD4FF4FA70FDF75BFE21462846BDE8F9
:102DC0007040002201F09EBD70BD7047704770B525
:102DD0009D484FF48071F03042789E48530610D4DD
:102DE000012201F08FFD0122994D940321462846CE
:102DF00001F088FDC820FDF73BFE00222146284651
:102E000002E0D20604D40022BDE8704001F07ABD91
:102E100070BD704710B5FEF769FDFEF75AFDBDE8BD
:102E200010400A2004F0A9B970B5874D884AC03512
:102E3000A5F5A074012807D0022805D0032803D0E7
:102E4000042801D005280BD10221104601F042FDD3
:102E500000EB4000E16A05EBC00050F8210060641F
:102E600070BD70B501227B4C55022946204601F009
:102E700049FD794E4021304601F02CFD0128F9D062
:102E800040F2DC50FDF7F4FD01221102204601F072
:102E900039FD00222946204601F034FD6A496B487D
:102EA0008039CC38C96A50F82120521C40F82120C2
:102EB000BDE87040AEE72DE9F0412DED048BFFF742
:102EC000A9FF0221624801F005FD00275FEDB48AE9
:102ED0009FED629A5C4E80361FEDB98A5A4D0128EB
:102EE000A5F180044FF42F78A06A16D0032830682B
:102EF00073DAC82872DA9FED5A9A3068F0286EDAD1
:102F0000B0EE681AF0EE480A4620B0EE490AFFF724
:102F1000D4FB0A2004F031F9EFE7032868DAE86F00
:102F2000C8280DDB1DE000BFB0EE681AF0EE480ABD
:102F30004620B0EE490AFFF7C0FB0A2004F01DF955
:102F4000E86FF028F0DB11E0B0EE681AF0EE480A06
:102F50004620B0EE490AFFF7B0FB0A2004F00DF955
:102F600001E09FED409AE86FF028EDDCA7610AE0F0
:102F7000B0EE480A0222F021B3EE0E1AF0EE400A3B
:102F80004620FFF784FDA86FBE28F1DBA069401C36
:102F9000A0613228F7DBFEF79CFCDFED338AB7EE49
:102FA000081A3220F0EE680AB0EE480AFFF785FBF7
:102FB0004FF47A7403E000BFFFF7C6F818B9FDF7C5
:102FC0003DFDA042F8DBB7EE081AF0EE680A3220A9
:102FD000B0EE480AFFF771FB06E0B6E06BE06FE089
:102FE000FFF7B2F8002802D130686428F8DCA5E0C9
:102FF0003068142809DC0BE0F0EE480A4620B0EEF9
:10300000601AB0EE490AFFF758FB30681E28F3DC5F
:10301000A7610AE0B0EE480A02221E21B3EE0E1AA2
:10302000F0EE400A4620FFF732FDA86FAA28F1DB38
:10303000A069401CA0613228F7DB17E07CFCFFFF91
:103040003EFEFFFFBAFAFFFF8000002004030020CD
:1030500000040240000802400010024000002FC49B
:1030600000002F440000964300006144FEF731FC4D
:10307000B0EE480A6420B0EE401AF0EE400AFFF7C6
:103080001CFB444604E000BFFFF75EF8002803D1B4
:10309000FDF7D4FCA042F7DB8FE000BFB0EE681A6A
:1030A000F0EE480A4620B0EE490AFFF706FB0A2078
:1030B00004F063F801E09FEDF89A3068F028EDDC49
:1030C000A7610AE0B0EE480A0222F021B3EE0E1A20
:1030D000F0EE400A4620FFF7DAFCA86FBE28F1DBCD
:1030E000A069401CA0613228F7DBFEF7F2FBB7EEC7
:1030F000081ADFEDEA8A3220B0EE480AF0EE680ADC
:10310000FFF7DBFA40F2DC5403E000BFFFF71CF8E6
:1031100018B9FDF793FCA042F8DBB7EE081AF0EE01
:10312000680A3220B0EE480AFFF7C7FA03E000BF92
:10313000FFF70AF810B9E86F6428F9DCBDEC048BDE
:103140000020BDE8F041FFF725BA142809DC0BE0A8
:10315000F0EE480A4620B0EE601AB0EE490AFFF7DA
:10316000ACFA30681E28F3DCA7610AE0B0EE480A2A
:1031700002221E21B3EE0E1AF0EE400A4620FFF79F
:1031800086FCA86FAA28F1DBA069401CA061322848
:10319000F7DBFEF79EFBB0EE480A6420B0EE401A63
:1031A000F0EE400AFFF789FA444602E0FEF7CCFF52
:1031B00018B9FDF743FCA042F8DB0020FFF7EAF95D
:1031C000BDEC048BBDE8F041FEF783BB2DE9F04771
:1031D0002DED028BFEF79EFBB14CE06AFFF724FE5B
:1031E0000020A0700221AF4801F074FB4FF4FA7385
:1031F0009FEDAD8ADFEDAD8AAD4D4FF4E1674FF441
:103200008046012804D0FEF764FB9846A9466EE08C
:10321000FEF75FFBA06A022812DD9846FDF70EFC60
:1032200040450DDAB6EE001AF0EE480A3220B0EE54
:10323000680AFFF742FAF1E714213846FFF73AFA35
:103240003146284601F046FB0128F5D0FFF7E2FDA4
:10325000934E616C8036F06F88424FF028011EDD7E
:1032600040F21A473846FFF725FA02E0FEF76CFFF6
:1032700020B9606CF16F2C308142F7DC0A213846AE
:10328000FFF718FA04E000BFFEF75EFF002805D143
:103290002021284601F01EFB0128F5D09DE0854F36
:1032A0003846FFF707FA02E0FEF74EFF20B9606CE0
:1032B000F16F2C388142F7DB0A213846FFF7FAF923
:1032C00004E000BFFEF740FF002805D1202128467A
:1032D00001F000FB0128F5D07FE000BFB6EE001A38
:1032E000F0EE480A3220B0EE680AFFF7E6F9FDF783
:1032F000A5FB404505DA3146484601F0EBFA0128C6
:10330000ECD0B0464FF4FA654FEA0906FDF796FB9C
:10331000A84205DA4146304601F0DCFA012818D00F
:1033200045462946304601F0D5FA01281BD0002039
:10333000FFF730F9FFF76EFD5F4D616C286888423A
:103340004FF028012CDD5B4F32373846FFF7B2F9DA
:1033500011E0B6EE001AF0EE480A5020B0EE680A0E
:10336000FFF7ABF9D2E714213846FFF7A3F9D8E706
:10337000FEF7EAFE20B9606C29682C308142F7DC48
:103380000A213846FFF796F903E000BFFEF7DCFE9E
:1033900018BB2021304601F09DFA0128F6D01CE030
:1033A0004FF47A773846FFF785F902E0FEF7CCFE56
:1033B00020B9606C29682C388142F7DB0A21384635
:1033C000FFF778F903E000BFFEF7BEFE28B9202121
:1033D000304601F07FFA0128F6D0BDEC028B0020C8
:1033E000BDE8F047FFF7D6B82DE9F04102212D489E
:1033F00001F070FA2A4C01284FF47A762C4DE06ADD
:10340000C6F100080DD0FFF70FFD60782A4F0128A4
:103410005ED000286FD1282146464046FFF74AF982
:1034200077E0FFF701FD1E4F60788037012806D056
:10343000002860D128213046FFF73CF921E02821FF
:1034400046464046FFF736F903E000BFFEF77CFE34
:1034500020B9606CF96F2C388142F7DB0A213046C5
:10346000FFF728F903E000BFFEF76EFE98B92021B0
:10347000284601F02FFA0128F6D05EE0FEF764FE40
:1034800020B9606CF96F2C308142F7DC0A2130469C
:10349000FFF710F915E038E0000096C3000061C4A2
:1034A00000000020000402400000E1C30000E144ED
:1034B00000100240E6FBFFFF00010020FEF744FE83
:1034C00018BB2021284601F005FA0128F6D034E087
:1034D00028213046FFF7EEF803E000BFFEF734FE88
:1034E00020B9606C39682C388142F7DB0A213046FC
:1034F000FFF7E0F803E025E0FEF726FE28B92021DB
:10350000284601F0E7F90128F6D016E0FEF71CFE88
:1035100020B9606C39682C308142F7DC0A213046D2
:10352000FFF7C8F803E000BFFEF70EFE28B9202120
:10353000284601F0CFF90128F6D0BDE8F04100207F
:10354000FFF728B8BDE8F0812DE9F047FE48C069D3
:10355000A0F5EA4130394DD0FC4C012660690128C4
:103560000CD16068012809D1A068012806D1E06863
:10357000012803D12069012800D12660F44F0421DD
:10358000384601F0A7F9F04D803D012809D004210B
:10359000384601F09FF94FF000084FF0030910B1D1
:1035A0000CE0AE7023E00821384601F093F928B909
:1035B0004FF40041384601F08DF928B10421384616
:1035C00001F088F918B107E085F8028015E00821BC
:1035D000384601F07FF978B10421384601F07AF9D4
:1035E000002807D1206801280BD085F80280E86AFE
:1035F00044F82060BDE8F087AE70E96A44F8219095
:10360000F8E7E86A022144F82010A863AE70F1E7F9
:1036100010B5FFF799FFCC4880388078012802D197
:10362000BDE810401DE410BD2DE9F041FFF78CFF0F
:10363000C64EC54C00271836C44D803C86E028682D
:10364000F0BBE76100E0B0B9E06A10E055F8201087
:1036500061B9217F6170E062FFF7C6FEFFF774FF7A
:10366000A078012807D02868012804D0A069401C50
:10367000A0610628EADBE069012816D1E06A10E0C3
:1036800055F8201061B9217F6170E062FFF7ACFE50
:10369000FFF75AFFA078012815D02868012815D017
:1036A000A069401EA0610028EADCA07801280AD0A9
:1036B000286801280AD0E069401CE061022800E087
:1036C00001E043DABFE7286801283FD1E76100E065
:1036D000C0B9E06A12E000BF56F8201069B155F891
:1036E0002010032909D0217F6170E062FFF77CFE82
:1036F000FFF72AFFA078012804D0A069401CA06130
:103700000628E9DBE069012818D1E06A12E000BF71
:1037100056F8201069B155F82010032909D0217FEF
:103720006170E062FFF760FEFFF70EFFA0780128EE
:1037300010D0A069401EA0610028E9DCA078012813
:1037400008D0E069401CE0610228C1DBA0780028B5
:103750003FF475AFE06A2063F4E610B5FEF7B9F800
:10376000794C0120803CE062FFF730FDE06A206385
:1037700010BD10B5FEF7ADF8734C0220803CE0623E
:10378000FFF724FDE06A206310BD10B5FEF7A1F835
:103790006D4C0320803CE062FFF718FDE06A206377
:1037A00010BD10B5FEF795F8674C0420803CE06230
:1037B000FFF70CFDE06A206310BD10B5FEF789F835
:1037C000614C0520803CE062FFF700FDE06A206369
:1037D00010BD2DE9F0475E4C4FF4807949462046F4
:1037E00001F078F85B4E4FF400584FF4804A78B1FE
:1037F0000221204601F06EF850B14146304601F0FA
:1038000069F828B15146304601F064F800283FD1EC
:103810004D48012780380022C76340214E4801F0FF
:1038200071F8494DFE208435E874AF745746494617
:10383000204601F04FF80028F9D00221204601F07F
:1038400049F80028F3D04146304601F043F80028FB
:10385000EDD03946304601F03DF80028E7D04FF46E
:1038600080573946204601F035F80028F9D0642009
:10387000FDF7FEF84021204601F02CF80128F9D090
:1038800000224FF40071304601F03CF80020E8744B
:10389000B0E610B510212E4801F01CF82A498039F5
:1038A000012802D00120486210BD0020FBE72DE96D
:1038B000F05F2DED048BFFF7ADFA234C0020803C28
:1038C00004F58271E0632064A070FE22CA748874DB
:1038D000DFF8808001225102404601F013F8DFF842
:1038E00078B001224021584601F00CF8184DA06A2A
:1038F0009FED1A8A2F15DFED1A9ADFED1A8A9FEDD8
:103900001A9A4FF480794FF4FA7A4FF47A760328B2
:1039100075DA00BFB0EE480A0A20B0EE401AF0EEA9
:10392000400AFEF7CAFE02E0E06B01280BD010212E
:10393000284600F0CFFF012805D13946284600F07F
:10394000C9FF0028F0D011E08000002020020020F4
:103950000010024000080240000402400000000085
:103960000000E144000061C4000061440020FEF753
:1039700011FE5046FDF77CF8E06B012840D0606AEC
:103980000128C7D1FDF75AF82062FDF7A2FFF0EE3B
:10399000480A1E20B0EE601AB0EE690AFEF78DFEEE
:1039A000FDF74CF8216A8842FADB0221584600F004
:1039B00091FFF0EE480A0128B0EE601A4FF01E00A9
:1039C00004D0B0EE490AFEF778FE13E0B0EE680AC4
:1039D000FEF773FE04E000BFFEF7B6FB002899D1A6
:1039E000FDF72CF8B04295DAF6E700BFFEF7ACFB26
:1039F00000288FD1FDF722F8B0428BDAF6E7A6E077
:103A0000A06A401CA062FDF719F82062FDF761FF73
:103A10000EE000BFFEF725FC404200EE100AB6EEB5
:103A2000001A1420F8EEC00AB0EE690AFEF745FE4F
:103A3000FDF704F8216A8842ECDB00224946404643
:103A400000F060FF0221584600F044FF012839D001
:103A5000B0EE001A9FEDFC8A3220B0EE680AF0EE5C
:103A6000480AFEF72AFE4FF4C87100BFFEF7F9FBC3
:103A70008842FBDBFDF72DFFB7EE001AF0EE480A97
:103A80003220B0EE680AFEF718FE00BFFCF7AEFF6A
:103A9000B042FBDBB7EE001AF0EE490A3220B0EE7E
:103AA000680AFEF70AFE40F27A3100BFFEF7D9FB42
:103AB0008842FBDB5FF00000BDEC048BBDE8F05FEB
:103AC000FEF768BDB7EE001A9FEDE08A1E20B0EE4B
:103AD000490AF0EE480AFEF7F0FDDD49FEF7C1FBAA
:103AE0008842FBDCFDF7F5FEB7EE001AF0EE480A5F
:103AF0003220B0EE490AFEF7E0FD40F2DC5400BF90
:103B0000FCF74AFFA042FBDBFDF7E3FEB0EE001A34
:103B1000F0EE680A3220B0EE490AFEF7CEFD00BF93
:103B2000FCF78CFFC828FBDB1420C5E7FEF799FBE8
:103B3000404200EE100AB7EE081A0A20F8EEC00A5A
:103B4000B0EE480AFEF7B9FDE06B01280BD010215A
:103B5000284600F0BFFE012805D13946284600F06E
:103B6000B9FE0028E2D00020FEF714FD5046FCF715
:103B70007FFFE06B012808D0606A0128E7D1FCF7DD
:103B80005DFF2062FDF7A5FE1EE000224D4649467E
:103B90004446404600F0B6FEBDEC048B2946204664
:103BA000BDE8F05F002200F0ADBE00BFFEF759FB9C
:103BB000404200EE100AB6EE001A1420F8EEC00AD9
:103BC000B0EE690AFEF779FDFCF738FF216A8842FA
:103BD000ECDB0221584600F07DFE01280ED021E0EA
:103BE000FEF73FFB404200EE100AB7EE081A1E2017
:103BF000F8EEC00AB0EE680AFEF75FFDFCF71EFFA4
:103C0000B042A4DAECE700BFFEF72BFB404200EE27
:103C1000100AB7EE081A1E20F8EEC00AB0EE490AE4
:103C2000FEF74BFDFCF70AFFB04290DAECE72DE916
:103C3000F0472DED068BFFF7EDF80221854800F0E7
:103C400049FEDFF814A24FF4807900271FEDBD8AEA
:103C50001FEDBB9A814EA6F580745FEDBE8A5FEDC5
:103C6000C0AAF0EE480A012804F18005B0EE601AFF
:103C70004FF0960008D0DFED7A9AB0EE690AFEF7B1
:103C80001CFD40F6980898E0DFED769AB0EE690AE0
:103C9000FEF713FD4FF4486803E000BFFEF754FA47
:103CA00018B9FCF7CBFE4045F8DBF0EE480A462099
:103CB000B0EE601A9FED6C0AFEF7FFFC03E000BF58
:103CC000FEF742FA10B9A86F4628F9DC9FED67AA03
:103CD000A7610AE000221E21B0EE4A1AF0EE480A5F
:103CE0006420B0EE680AFEF70BFFE86FFA28F1DBFC
:103CF000A069401CA0613228F7DBA7614FF4B477BC
:103D00000AE000221E21B0EE4A1AF0EE480A3220E4
:103D1000B0EE680AFEF7F4FEE86FB842F1DBA06986
:103D2000401CA0613228F7DB0020FEF733FCFDF7D2
:103D3000D0FDF0EE480A9620B0EE601AB0EE6A0AA6
:103D4000FEF7BBFC4FF4AF6403E000BFFEF7FCF9E5
:103D500018B9FCF773FEA042F8DB01224946504631
:103D600000F0D0FDFDF7B5FDB7EE001AF0EE690AE0
:103D70003220B0EE490AFEF7A0FC40F6D86402E01B
:103D8000FEF7E2F918B9FCF759FEA042F8DBB7EEEE
:103D9000001AF0EE690A3220B0EE490AFEF78DFCF7
:103DA00004E000BFFEF7D0F9002802D130685A289D
:103DB000F8DCBBE0FEF7C8F918B9FCF73FFE404558
:103DC000F8DBF0EE480A7820B0EE601AB0EE690A2F
:103DD000FEF773FC41F2301803E000BFFEF7B4F9C0
:103DE00018B9FCF72BFE4045F8DBF0EE480A32200C
:103DF000B0EE601AB0EE690AFEF75FFC41F244686B
:103E000003E000BFFEF7A0F918B9FCF717FE404524
:103E1000F8DB0020FEF7BEFBF0EE6A9A9FED141A65
:103E2000F6EE000A1420B0EE690AFEF746FC02E046
:103E3000FEF78AF910B9A86F2328F9DCA7619FED76
:103E40000DAA4FF4AA7722E00000E14300C0A8C405
:103E5000BAFAFFFF000402400008024000010020FF
:103E600000C0DA440000E1C4008089C4000048C2F8
:103E7000CDCC4C3E0000484200221E21B0EE4A1A32
:103E8000F0EE480A6420B0EE490AFEF739FE3068C9
:103E9000B842F1DBA069401CA0613228F7DB0020AA
:103EA000FEF778FBFDF715FDF0EE480AB0EE698AE3
:103EB000B0EE601A9620B0EE480AFEF7FEFB40F224
:103EC000DC5402E0FEF740F918B9FCF7B7FDA04258
:103ED000F8DB01224946504600F014FD0020FEF7B1
:103EE00059FBFDF7F6FCB7EE081AF0EE480A32204F
:103EF000B0EE680AFEF7E1FB03E000BFFEF724F92D
:103F000018B9FCF79BFDA042F8DBB7EE081AF0EEFB
:103F1000480A3220B0EE680AFEF7CFFB03E000BF8C
:103F2000FEF712F910B9E86F3C28F9DCBDEC068BFE
:103F30000020BDE8F047FEF72DBB10B5FA4CA06B92
:103F4000012801D1FFF709FCA06B022801D1FFF77E
:103F500010FCA06B032801D1FFF717FCA06B04280D
:103F600001D1FFF71EFCA06B052802D1BDE810406F
:103F700023E410BDED4A30B41068EB4901280CD0A1
:103F8000086B052826D0042827D0032828D002282B
:103F90001DD0012827D130BC0FE4E44B0520183395
:103FA00053F820402CB152F82040032C01D0C862B5
:103FB00003E0401E0128F3DAC86A0528EBD0042884
:103FC00008D0032809D002280AD001280BD130BC20
:103FD000FFF7C3BB30BCFFF7E4BB30BCFFF7D5BB7A
:103FE00030BCFFF7C6BB30BC7047FFF760FCCE4C5F
:103FF000E06A012808D0022809D003280AD0042842
:104000000BD005280CD00DE0FFF7A7FB0AE0FFF767
:10401000B0FB07E0FFF7B9FB04E0FFF7C2FB01E0EC
:10402000FFF7CBFBFFF790FA07E000BFFFF78CFA32
:10403000A078012810D0FFF7D7F9A0780028F5D094
:104040000025A570FEF737FFFFF731FCA06B30B1FC
:10405000FFF773FFA5630CE0FEF703FFF0E7FFF740
:1040600089FF06E0FFF770FAA078012806D0FFF775
:10407000BBF9A0780028F5D0A570E5E7FEF7F1FEC2
:10408000FEF719FFF5E7A8490120C8620221A848F8
:1040900000F020BCA4490220C8627047A249032056
:1040A000C8627047A0490420C86270479E49052035
:1040B000C86270472DE9F0472DED068BFEF7AAFE8A
:1040C00002219B4800F006FCDFF868924FF48078EC
:1040D00000279FED998ADFED998A934C984E9FEDCA
:1040E000999A9FED99AA04F1800501280DD0FEF759
:1040F00091FE1FEDA11AF0EE4A9AF6EE000A142086
:10410000B0EE690AFEF7D9FA89E0F0EE480A4620D7
:10411000B0EE601A9FED8D0AFEF7CFFA03E000BF04
:10412000FEF712F810B9A86F4628F9DC5FEDB19AD6
:10413000A7610AE000221E21B0EE691AF0EE480ADB
:104140006420B0EE490AFEF7DBFCE86FFA28F1DBE9
:10415000A069401CA0613228F7DBA7614FF4B47757
:104160000AE000221E21B0EE691AF0EE480A322061
:10417000B0EE490AFEF7C4FCE86FB842F1DBA06973
:10418000401CA0613228F7DB0020FEF703FAFDF7A0
:10419000A0FBF0EE480A9620B0EE601AB0EE4A0A94
:1041A000FEF78BFA4FF4AF6403E000BFFDF7CCFFDE
:1041B00018B9FCF743FCA042F8DB0122414648460F
:1041C00000F0A0FBFDF785FBB7EE001A1FEDDB8AC0
:1041D0003220B0EE680AF0EE480AFEF76EFA40F6BA
:1041E000D86402E0FDF7B0FF18B9FCF727FCA04245
:1041F000F8DBB7EE001AF0EE480A3220B0EE680A9B
:10420000FEF75BFA03E000BFFDF79EFFB0BB30682E
:104210005A28F9DC68E000BFFDF796FF10B9A86FD7
:104220002328F9DC1FEDEDAAA7614FF4AA770AE075
:1042300000221E21B0EE4A1AF0EE480A6420B0EEC9
:10424000680AFEF75DFC3068B842F1DBA069401CEB
:10425000A0613228F7DB0020FEF79CF9FDF739FB5F
:10426000F0EE480AB0EE698AB0EE601A9620B0EE21
:10427000480AFEF722FA40F2DC5404E034E000BFC2
:10428000FDF762FF18B9FCF7D9FBA042F8DB012269
:104290004146484600F036FB0020FEF77BF9FDF76B
:1042A00018FBB7EE081AF0EE480A3220B0EE490AC1
:1042B000FEF703FA03E000BFFDF746FF18B9FCF76D
:1042C000BDFBA042F8DBB7EE081AF0EE480A322038
:1042D000B0EE490AFEF7F1F903E000BFFDF734FF45
:1042E00010B9E86F3C28F9DCBDEC068B0020BDE876
:1042F000F047FEF74FB9FFF7DDFEFFF7D8FAFFF7FB
:1043000050FAFEF7AEFDFEF7D6FD074C002500BFC4
:10431000FFF7CDFAA06BD8B1FFF70FFEFEF7A1FDB6
:10432000FEF7C9FDA56319E000000020200200206F
:104330000004024000080240000000000000614448
:1043400000010020000061C40000E144000096C4A8
:10435000FFF710FEFEF785FDFEF7ADFDA570D7E770
:10436000FFF765FCFFF7A3FAFFF71BFAFFF75CF90D
:10437000FEF777FDFEF79FFD00254C4CFFF797FAFF
:10438000A06B48B1FFF7D9FDFFF74EF9FEF769FDC5
:10439000FEF791FDA56307E0FFF7ECFDFFF744F999
:1043A000FEF75FFDFEF787FDA570E7E71120FDF73B
:1043B000F7FD0F2002F0E1FEF8E700BFFEF707FD72
:1043C0000A2002F0DAFEF9E7384C00BFFEF7A0FC45
:1043D000FFF7FFF9FFF75DFA207808B9FEF7FBFA5F
:1043E000012002F0CAFEF1E71FB5FCF74DFBFCF718
:1043F0007EFBFCF7B3FCFCF754FDFCF70DFEFCF76D
:1044000080FEFCF7F4FB4FF4E1342046FCF73CFF60
:104410002046FCF7BBFF2046FDF73EF8E000FDF725
:104420005AF9FDF763FAFDF754FA00244FF480754A
:1044300000940194029423462A461DA12148039426
:1044400002F0C4FC00940194029400232A461EA1A9
:104450002248039402F0BAFC214C8021204600F04F
:1044600039FA0028F9D111490B204863FFF743FFBF
:104470007FB500244FF48075009401940294234684
:104480002A4618A11A48039402F0A0FC0094019453
:10449000029400232A4617A11948039402F096FCBF
:1044A00002F0BAFF04B0002070BD00000000002040
:1044B0007461736B526F626F74416E616C79746971
:1044C00063730000C94300087461736B44696575C8
:1044D0004B6869656E436F4361750000BB4300081C
:1044E000001002407461736B4D61696E0000000042
:1044F000E94300087461736B4779726F0000000034
:10450000AD4300080CB500205149019000900A68A5
:1045100042F480320A604FF4A0630A6802F4003269
:104520000092019A521C0192009A12B9019A9A4281
:10453000F3D10A68920334D50120009044484030FA
:10454000026842F0805202604248026842F48042AF
:1045500002603F48083002680260026842F400428C
:104560000260026842F4A0520260031F3A4A1A60D5
:104570000A6842F080720A600A689201FCD5374AE4
:1045800040F205611160016821F0030101600168DA
:1045900041F0020101600168C1F381010229FAD1F1
:1045A0000CBD00900CBD2A4810B5016841F0010116
:1045B0000160274A0021083211600268284B1A4026
:1045C0000260031D274A1A60026822F480220260FA
:1045D0001F480C300160FFF795FF23494FF0006042
:1045E000086010BD70B51A4C083420681F4A10F0DE
:1045F0000C011F4804D05510042903D0082903D00A
:1046000002601BE0056019E01149091D0B68C3F346
:1046100080560B6803F03F0316B1B5FBF3F201E0DF
:10462000B2FBF3F20B680968C3F388135A43C1F372
:104630000141491C4900B2FBF1F1016021680C4ABB
:10464000C1F30311121D515C0268CA40026070BDC3
:10465000003802400070004008544007003C02400F
:10466000FFFFF6FE1030002408ED00E00024F40007
:104670008C0100200648804706480047FEE7FEE719
:10468000FEE7FEE7FEE7FEE7FEE7FEE7FEE7FEE702
:10469000A7450008890100082849084328490860FF
:1046A000704730B50F22C47801780123FCB1244C47
:1046B000246801F1E02104F4E064C4F5E064C4F38B
:1046C0000724C4F10405E2404478AC4085781540E5
:1046D00025432A0181F80024007800F01F018B4057
:1046E0004009800000F1E020C0F8003130BD01F049
:1046F0001F0083404809800000F1E020C0F88031AD
:1047000030BD104A114001430D48001F0160704741
:104710000B4A121D0029116801D0014300E08143BA
:10472000116070474FF0E0210428086903D020F0A1
:1047300004000861704740F00400FAE70000FA0541
:104740000CED00E080FFFF1F7C4910B5884206D1C8
:104750000121084600F058FA002101204FE0784975
:10476000884206D10121022000F04EFA00210220E9
:1047700045E07449884206D10121042000F044FA42
:10478000002104203BE07049884206D10121082025
:1047900000F03AFA0021082031E06C49884206D145
:1047A0000121102000F030FA0021102027E0684994
:1047B000884206D10121202000F026FA0021202085
:1047C0001DE06449884206D10121402000F01CFA16
:1047D0000021402013E06049884206D10121802059
:1047E00000F012FA0021802009E05C4988420AD1D9
:1047F00084150121204600F007FA00212046BDE87B
:10480000104000F001BA10BDF0B5002301240327C9
:104810000D6804FA03F21540954242D1D0F800C069
:104820005E0007FA06F52CEA050CC0F800C091F806
:1048300004C0D0F800E00CFA06FC4CEA0E0CC0F8FC
:1048400000C091F804C0BCF1010F02D0BCF1020F0E
:104850001FD1D0F808C02CEA050CC0F808C091F8A8
:1048600005C0D0F808E00CFA06FC4CEA0E0CC0F8C3
:1048700008C0D0F804C02CEA020CC0F804C042689A
:1048800091F806C00CFA03FC1FFA8CFC42EA0C02F9
:104890004260C268AA43C260CA79C568B2402A436E
:1048A000C2605B1C102BB3D3F0BD4FF6FF710160EB
:1048B0000021017141718171C171704708B541F4E6
:1048C00080320092C261C1610099C161C169C06951
:1048D000009008BD0246002012690A4200D0012063
:1048E0007047006980B270470246002052690A4250
:1048F00000D001207047406980B270470183704743
:10490000418370470AB10183704741837047416119
:10491000704742694A40426170474B07DB0E9A403C
:10492000C90810B500EB8100016A0F249C40A14327
:104930000162016A1143016210BD000000000240E3
:104940000004024000080240000C02400010024037
:104950000014024000180240001C024000200240E7
:10496000EA48016841F001010160E84A002108328B
:1049700011600268E64B1A400260031DE54A1A60A6
:10498000026822F480220260E0480C300160704727
:10499000DE490022891C0A70087070470246002018
:1049A000510901290CD002290CD0D8497431096869
:1049B00002F01F02012393400B4200D001207047F8
:1049C000D249F4E7D1497031F1E718B500204FF42E
:1049D000A06400903120FFF7E1FF0099491C00918D
:1049E000A14201D00028F5D03120FFF7D7FF0028E1
:1049F00000D0012018BDC5490A6822F0F80242EA39
:104A0000C00008607047C44908607047BF49002271
:104A100070310A700A70012802D0042801D10520E3
:104A200008707047BD490860704741EA82115A0812
:104A300010B5BB4B029C03EB02421143014341EA18
:104A40000460B249091D086010BDB349086670478B
:104A5000800140EA0170AD49843108607047AE4979
:104A600088667047AC49C8647047A84A0832136822
:104A7000084323F0EC63184310607047A34A0832E0
:104A80001368084323F078431843106070479F4A27
:104A90000832116821F003010143116070479B48FF
:104AA0000830006800F00C007047984A083211681E
:104AB00021F0F001014311607047944A08321168F7
:104AC00021F4E051014311607047904908310A68B0
:104AD00022F4604242EAC0000860704770B58B4A19
:104AE000083211688F4C11F00C0104D066100429B3
:104AF00003D0082903D004601BE0066019E0834955
:104B0000091D0B68C3F380550B6803F03F0315B113
:104B1000B6FBF3F301E0B4FBF3F30C680968C4F3EC
:104B200088146343C1F30141491C4900B3FBF1F10F
:104B3000016011680F2303EA11117B4B5C5C016873
:104B4000E14041601468072505EA94241C5D21FAC0
:104B500004F48460126805EA52329A5CD140C16064
:104B600070BDC0F30121032908D1684A08321168D9
:104B700021F4F8136D490140194311606349703104
:104B80000A68C0F30B0002430A6070476349443966
:104B90000860704761494039086070475E49C1F854
:104BA0005C017047594A30320029116801D0014335
:104BB00000E0814311607047544A34320029116883
:104BC00001D0014300E08143116070474F4A383201
:104BD0000029116801D0014300E081431160704752
:104BE0004A4A40320029116801D0014300E0814364
:104BF00011607047454A44320029116801D00143D1
:104C000000E0814311607047404A1032002911686A
:104C100001D0014300E08143116070473B4A1432E8
:104C20000029116801D0014300E081431160704701
:104C3000364A18320029116801D0014300E081434F
:104C400011607047314A20320029116801D00143B8
:104C500000E08143116070472C4A2432002911681A
:104C600001D0014300E0814311607047274A503270
:104C70000029116801D0014300E0814311607047B1
:104C8000224A54320029116801D0014300E08143D7
:104C9000116070471D4A58320029116801D0014344
:104CA00000E0814311607047184A603200291168A2
:104CB00001D0014300E0814311607047134A643220
:104CC0000029116801D0014300E081431160704761
:104CD0000E4A0D320029117801D0014300E08143D2
:104CE0001170704709487430016841F080710160AB
:104CF00070470146054A00200C3212680A4200D073
:104D00000120704701490E31087070470038024099
:104D1000FFFFF6FE1030002400004742800E47429D
:104D20000000FFFF0024F400A0010020FFFCFF0FA3
:104D300010B501210C022046FFF78EFF2046BDE88A
:104D400010400021FFF788BF30B54268C84B0C798E
:104D50001A400B6842EA0422134343608268C54B41
:104D60004D791A40D1E9034323438C6844EA450452
:104D7000234313438360C26A097D22F47002491EF3
:104D8000C9B242EA0151C16230BD00210160017126
:104D900041718160C1600161012101757047B64BAD
:104DA00010B5D3F80423B5490A40D0E900142143D3
:104DB000D0E90240044321431143C3F8041310BD5A
:104DC0000021016041608160C160704700298168F5
:104DD00002D041F0010101E021F001018160704742
:104DE0004268A74B1A400A434260704741628262A0
:104DF0007047426822F01F020A43426070479E4992
:104E00000028D1F8040302D040F4000001E020F4AF
:104E10000000C1F80403704797490028D1F8040343
:104E200002D040F4800001E020F48000C1F80403C7
:104E3000704770B5072409290AD9C568A1F10A0687
:104E400006EB4606B440A543B3401D43C56007E0EA
:104E5000056901EB4106B440A543B3401D4305611C
:104E60001F23072A09D2446B521E02EB8202934091
:104E70009C4391400C43446370BD0D2A09D2046BDE
:104E8000D21F02EB820293409C4391400C43046387
:104E900070BDC46A0D3A02EB820293409C4391407C
:104EA0000C43C46270BD816841F0804181607047ED
:104EB000014600208968490200D501207047002979
:104EC000816802D041F4806101E021F48061816059
:104ED00070470029816802D041F0020101E021F011
:104EE0000201816070474268491E22F4604242EA32
:104EF0004131416070470029416802D041F40061AE
:104F000001E021F4006141607047C06C80B27047DD
:104F10005948D0F8080370470029816802D041F44D
:104F2000807101E021F480718160704700298168FF
:104F300002D041F4007101E021F4007181607047FA
:104F40004D490028D1F8040302D040F4005001E09C
:104F500020F40050C1F80403704770B507240929F4
:104F60000AD9C568A1F10A0606EB4606B440A54376
:104F7000B3401D43C56007E0056901EB4106B4403D
:104F8000A543B3401D430561836BC3F30154121B5A
:104F9000921C02EB82041F22A2409343A1400B43C8
:104FA000836370BD826B491E22F4401242EA0151B4
:104FB0008163704708B508440090026008BD8268AC
:104FC00022F470220A4382607047826822F4401201
:104FD0000A4382607047816841F4800181607047B4
:104FE000014600208968490200D501207047002948
:104FF000416802D041F4806101E021F480614160A8
:1050000070470029416802D041F4805101E021F449
:1050100080514160704708B508442830009000680E
:1050200080B208BD01238B4041680AB1194300E0FA
:105030009943416070470246002012680A4200D03E
:1050400001207047C9430160704730B50246002017
:1050500053680C0A01258D4011682B40214202D073
:10506000002B00D0012030BD6FEA11210160704794
:10507000FFFEFFFCFDF7FFC000200140E030FCFF19
:10508000FFFD3FFF2DE9F043016821F001010160C0
:105090000021016041608160C160016121214161A5
:1050A000B849B84A3D251039904202D18D60BDE81B
:1050B000F083B44A4FF474661832904201D18E6086
:1050C000F5E7B04A4FF474173032904201D18F6047
:1050D000EDE7AC4A4FF0746C4832904202D1C1F80F
:1050E00008C0E4E7A74BA84A6033984201D1CA60E0
:1050F000DDE7A44CA54B7834A04201D1CB60D6E7C4
:10510000DFF88082A24C08F19008404501D1CC60C4
:10511000CDE7DFF870824FF03D5908F1A80840450F
:1051200002D1C1F80C90C2E79A49DFF868820839C9
:10513000404501D10D60BAE7964D1835A84201D11E
:105140000E60B4E7934D3035A84201D10F60AEE751
:10515000904D4835A84202D1C1F800C0A7E78D4D57
:105160008C496035091FA84201D10A609FE7894A2E
:105170007832904201D10B6099E7864A9032904292
:1051800001D10C6093E7834AA83290428FD1C1F8D5
:1051900000908CE730B503687F4ACC6813400A68FA
:1051A0002243D1E905452C432243CC6922430C6AB2
:1051B00022434C6A22438C6A22434C6B22438C6B01
:1051C00022431A430260426922F00703D1E90B240B
:1051D00022431A4342610A6942604A6882608968D0
:1051E000C16030BD0021016041608160C16001612A
:1051F00041618161C161016241628162C162016399
:105200004163816370470029016802D041F00101C8
:1052100001E021F00101016070470029016802D01E
:1052200041F4004101E021F4004101607047002990
:10523000016802D041F0200101E021F0200101606D
:10524000704741607047406880B27047002A02682A
:1052500002D042F4002201E022F400220260016147
:1052600070470029016802D041F4802101E021F457
:105270008021016070470AB101617047C1607047C9
:10528000014600200968090300D501207047014646
:1052900000200968C90700D001207047406900F06C
:1052A0003800704702463B4B00209A4202D2354AF2
:1052B000103A01E0374A103A8B0001D5526800E0FD
:1052C0001268364B1A400A4200D001207047314A1A
:1052D000904202D22B48103801E02E4810382F4A55
:1052E0008B0001EA020101D5C160704781607047FF
:1052F0000B0607D5436912B143F0800301E023F0A8
:1053000080034361802908D0002A026801F01E0151
:1053100001D00A4300E08A430260704730B51D4A5D
:105320000024904202D2174B103B01E0194B103B76
:105330001B4A114205D01E2202EAD12502682A40EA
:1053400002E0406900F08002880001D5586800E062
:105350001868124B1840084201D002B101242046BF
:1053600030BD0C4A904202D20648103801E009488C
:1053700010380A4A8B0001EA020101D5C16070476A
:1053800081607047106002403D000020400F002007
:1053900000003D20106402403F801CF07D0F7D0F17
:1053A0003C0F3C0F374900200860091D0860091DAB
:1053B0000860091D0860334933481431086070479C
:1053C00030B530498379026853B30B6893430B605F
:1053D0000A1D13680468A343136002790A44136822
:1053E000046823431360274A083213680468A34300
:1053F0001360131D1C680568AC431C604479102CB5
:1054000005D021440A68006802430A6030BD116873
:10541000046821431160196800680143196030BDB8
:105420000079084401689143016030BD00210160AA
:1054300001710C22427181717047124910310A6862
:1054400002430A60704701460E4A00201432126877
:105450000A4200D0012070470A49143108607047A1
:10546000084A014600201268064B0A4014331B68A4
:105470000B4202D0002A00D00120704701491431AC
:1054800008607047003C0140FFFF7F00FE4910B5F7
:10549000884206D101210846FFF7DEFB00210120EA
:1054A0005BE0B0F1804F09D0F84988420DD101216D
:1054B0000220FFF7C7FB0021022070E0012108460F
:1054C000FFF7C0FB0021012069E0F149884206D1C5
:1054D00001210420FFF7B6FB002104205FE0ED4925
:1054E000884206D101210820FFF7ACFB00210820EB
:1054F00055E0E949884206D101211020FFF7A2FBBF
:10550000002110204BE0E549884206D101212020EE
:10551000FFF798FB0021202041E0E149884206D1B5
:1055200001210220FFF798FB0021022015E0DD4950
:10553000884202D101210C040AE0DB49884202D1F1
:1055400001214C0404E0D94988420AD101218C048C
:105550002046FFF781FB00212046BDE81040FFF701
:105560007BBBD349884206D101214020FFF76AFB6B
:105570000021402013E0CF49884206D1012180203C
:10558000FFF760FB0021802009E0CB4988420AD167
:10559000841501212046FFF755FB00212046BDE878
:1055A0001040FFF74FBB10BD30B50288B64BBC4C66
:1055B00098420DD0A0420BD0B0F1804F08D0B34D2F
:1055C000A84205D0B24DA84202D0B24DA84203D1A4
:1055D00022F070054A882A43AF4DA84206D0AF4D4D
:1055E000A84203D022F440750A892A4302804A68FF
:1055F000C2620A880285984201D0A04201D1897A0C
:1056000001860121818230BD4FF0FF3141600021D0
:1056100001800181418081727047018582827047DB
:10562000028822F070020A4302807047416270478C
:10563000C1627047406A7047008D70470029018839
:1056400002D041F0020101E021F002010180704727
:105650000029018802D041F0040101E021F0040199
:10566000018070470029018802D041F0800101E0EB
:1056700021F0800101807047028822F00802028038
:1056800002880A4302807047028822F44072028036
:1056900002880A43028070470029018802D041F045
:1056A000010101E021F001010180704730B5028C59
:1056B00022F001020284028C8388048B22F0020211
:1056C00024F073050C882C438D8915434A882A439E
:1056D0006D4DA84202D0724DA8420DD122F00805AE
:1056E000CA8923F440732A4322F004058A882A4396
:1056F0000D8A1D434B8A2B43838004838968416351
:10570000028430BD70B5028C22F010020284028C3B
:105710008488038B0D8823F4E6464FF6FF7303EA73
:10572000052535438E8922F0200203EA061616432A
:105730004A8803EA02123243534EB04202D0584E16
:10574000B04215D122F08006CA8924F4406403EAED
:105750000212324322F040068A8803EA02123243E0
:105760000E8A03EA860626434C8A03EA84043443FD
:105770008480058389688163028470BD70B5028C62
:1057800022F480720284028C8488838B0D8823F03B
:1057900073031D4322F400738E894FF6FF7202EAF1
:1057A00006261E434B8802EA03233343364EB0429B
:1057B00002D03B4EB04215D123F40066CB8924F4CD
:1057C000405402EA0323334323F480668B8802EAC1
:1057D000032333430E8A02EA061626434C8A02EA62
:1057E00004143443848085838968C163038470BD55
:1057F00070B5028C22F480520284048C8288838BE0
:105800000D8823F4E6464FF6FF7303EA052535437A
:1058100024F400568C8903EA043434434E8803EAA6
:1058200006362643184CA04202D01D4CA04205D19A
:1058300022F480440A8A03EA82122243828085830A
:1058400089680164068470BD0021018041808180E7
:1058500081608181C18101824182704730B501241C
:10586000058C00F118038C40A543058431B3082949
:105870002CD0091FC1F34E001844016848F6FF738D
:105880001940016001681AE0000001400004004076
:1058900000080040000C00400010004000140040D0
:1058A0000004014000400140004401400048014024
:1058B00000180040001C00400020004006E04FF6A9
:1058C000FF7303EA02221143016030BD03EB510074
:1058D00001684FF68F73194001600168F3E7416377
:1058E000704781637047C163704701647047028BE2
:1058F00022F070020A4302837047028B4FF6FF7357
:1059000022F4E04203EA0121114301837047828BB4
:1059100022F070020A4382837047828B4FF6FF7336
:1059200022F4E04203EA0121114381837047028B94
:1059300022F008020A4302837047028B4FF6FF737E
:1059400022F4006203EA0121114301837047828B34
:1059500022F008020A4382837047828B4FF6FF735E
:1059600022F4006203EA0121114381837047028B14
:1059700022F004020A4302837047028B4FF6FF7342
:1059800022F4806203EA0121114301837047828B74
:1059900022F004020A4382837047828B4FF6FF7322
:1059A00022F4806203EA0121114381837047028B54
:1059B00022F080020A4302837047028B4FF6FF7386
:1059C000C2F30E0203EA0121114301837047828B67
:1059D00022F080020A4382837047828B4FF6FF7366
:1059E000C2F30E0203EA0121114381837047028C46
:1059F00022F002020A4302847047028C22F008025D
:105A00000A4302847047028C4FF6FF7322F0200293
:105A100003EA0111114301847047028C4FF6FF73B2
:105A200022F0800203EA0111114301847047028CC5
:105A30004FF6FF7322F4007203EA0121114301843F
:105A40007047028C4FF6FF7322F4006203EA0121D3
:105A5000114301847047028C4FF6FF7322F4005209
:105A600003EA013111430184704710B50123048C0E
:105A70008B409C430484038C8A401343038410BDF1
:105A800010B50423048C8B409C430484038C8A400F
:105A90001343038410BD828B22F440628283828B85
:105AA0004FF6FF7303EA01210A4382837047828B1A
:105AB00022F00C028283828B0A4382837047028B1E
:105AC00022F440620283028B4FF6FF7303EA012146
:105AD0000A4302837047F0B5048C24F01004048458
