:020000040800F2
:1000000090300020453D00084502000847020008E6
:10001000490200084B0200084D02000800000000E1
:100020000000000000000000000000009D0100082A
:100030004F02000800000000E10100087B63000897
:100040005F3D00085F3D00085F3D00085F3D000820
:100050005F3D00085F3D00085F3D00085F3D000810
:1000600017040008630400085F3D0008010300084E
:10007000C30200084D0300085F3D00087502000838
:100080005F3D00087D0200085F3D00085F3D0008FD
:100090005F3D00085F3D00085F3D00085F3D0008D0
:1000A0005F3D000871030008910300085F3D0008F0
:1000B00093030008B3030008D30300085F3D000862
:1000C0005F3D00085F3D00085F3D00081304000825
:1000D0005F3D0008550200085F3D00085F3D0008D5
:1000E0005F3D00085F3D00085F3D00085F3D000880
:1000F0005F3D00085F3D00085F3D000823030008E6
:100100005F3D00085F3D0008F30300081504000888
:100110005F3D00085F3D0008570300085F030008CB
:100120005F3D00085F3D00089F0200085F3D00083A
:100130005F3D00085F3D00085F3D00085F3D00082F
:100140005F3D00085F3D00085F3D00085F3D00081F
:10015000B90200085F3D00085F3D00085F3D0008F0
:100160005F3D00085F3D00085F3D00085F3D0008FF
:100170005F3D00085F3D00085F3D00085F3D0008EF
:100180005F3D00085F3D0008DFF80CD007F092F9F2
:1001900000480047393B000890300020234B196885
:1001A0000868B0E8F04F80F309884FF0000080F352
:1001B000118870470000000003480068006880F361
:1001C000088862B600DF00BF08ED00E0DFF80C0031
:1001D000016841F470010160704700BF88ED00E0E4
:1001E000EFF30980114B1A681EF0100F08BF20EDC5
:1001F000108A20E9F04F106008B54FF0140080F32A
:10020000118806F090FB4FF0000080F31188BDE8E4
:10021000084019680868B0E8F04F1EF0100F08BFDA
:10022000B0EC108A80F30988704700BFD401002029
:10023000EFF311804FF0140181F31188704780F3C0
:10024000118870477047FEE7FEE7FEE7FEE770475C
:100250007047704710B5834C40F22551204605F099
:10026000D6FA002805D02046BDE81040202105F030
:10027000CBBA10BD7C497D4804F0DBBB70B57B4D2B
:100280007B4C30352146284604F0B0FB002805D0D1
:1002900021462846BDE8704004F0CBBB70BD10B5C8
:1002A0007449754804F0C5FB74484178007841EA08
:1002B00000207349088010BD6F487249483004F02F
:1002C000B8BB70B5694D704C483D2146284604F0D6
:1002D0008DFB002813D02146284604F0AAFB6B486A
:1002E00001F085FD00280AD1694C0021204605F067
:1002F000CDF92046BDE87040012105F0C7B970BDB9
:1003000070B55A4D634C603D2146284604F06EFBA3
:10031000002805D021462846BDE8704004F089BB7E
:1003200070BD70B5514C5C4D48342946204604F0F0
:100330005DFB002809D00021204604F0CCFA2946B4
:100340002046BDE8704004F074BB70BD4748464984
:10035000303804F06EBB0121504805F036B810B5B6
:1003600001214F4805F031F83E497A20888010BDC0
:1003700010B54C4C0121204605F027F82088C10615
:100380004948016801D5491E00E0491C016010BDC3
:10039000704710B501218C07204605F016F820881B
:1003A000C1064248016801D5491E00E0491C0160B0
:1003B00010BD10B53E4C0121204605F006F82088FE
:1003C000C1063C48016801D5491E00E0491C016096
:1003D00010BD10B5384C0121204604F0F6FF2088EE
:1003E000C1063648016801D5491E00E0491C01607C
:1003F00010BD10B5324C0121204604F0E6FF2088E4
:10040000C1063048016801D5491E00E0491C016061
:1004100010BD7047704770B5042004F089FB0028B8
:100420001ED02021284803F0DCFD284D0421284659
:1004300003F0B8FD1A4C012805D00421284603F02A
:10044000B1FD28B109E00021204604F057FC04E08A
:10045000204604F057FC1E4908601E49042008602D
:1004600070BD704700100140208000207060024085
:100470000080202000802010406402400C030020F7
:100480000800002000880020008800102A030020B7
:10049000004800402080001000800028001000402C
:1004A00000140040000001400C000020100000205B
:1004B00000040040140000200008004078010020E3
:1004C000000C00407C01002000000240000C0240B3
:1004D00080010020143C014070B50546002406F060
:1004E0004FFDFE4902E02A5D0A55641C8442FADB96
:1004F000BDE870400121FA4804F0EDB970B5F94D3E
:1005000006460024315D00290BD0284605F0E4F8AA
:100510008021284605F071F90028F9D0641CE4B266
:10052000F0E770BD70B5EF4E05460024002D0DD0EC
:100530002946304605F0D0F88021304605F05DF9B7
:100540000028F9D0641CE4B2032CEFD370BD73B55E
:100550000C460020FFF7E6FFE3A0FFF7CFFFDF48E0
:100560002246E2A1823806F0F3FFDC488238FFF72A
:10057000C5FFDFA0FFF7C2FFDFA0FFF7BFFFD7482F
:10058000DAA18238009A06F0E3FFD44E0024D54D5C
:10059000823E2846315D05F09FF84021284605F04F
:1005A0002CF90028F9D0641C142CF2DBD2A0FFF740
:1005B000A5FFFF20FFF7B6FFFF20FFF7B3FFBDE861
:1005C0007C40FF20AEE770B505460C46C6A0FFF79D
:1005D00095FFC2482246C5A1823806F0B9FFBF4840
:1005E0008238FFF78BFFC5A0FFF788FF2846FFF78B
:1005F00085FFC1A0FFF782FFBDE87040FF2091E7B3
:1006000077B5BEA185B00646D1E90001CDE900016C
:10061000B9A0002200680390B3A0B04D0068283D47
:10062000A5F128030290AD4C1146A3F13200A95464
:1006300099548154A154521CD2B21E2AF7D30A21D4
:100640000170FF2444708470C470A448A7A150387E
:10065000079A06F07DFFA14902A8503906F078FC00
:100660009E4802A9823806F073FC9C48694682388D
:1006700006F06EFC99483146823806F069FC9748CE
:100680009AA15038069A06F063FF94495039A1F1B7
:10069000320006F05DFC914803A9823806F058FC50
:1006A0008E492C706C702839AC70A1F15A0006F09C
:1006B0004FFC8A488238FFF70FFF08B070BD2DE964
:1006C000F74188468DA185B00646D1E90001CDE904
:1006D000000189A000220068039083A07F4D00687C
:1006E000283DA5F1280102901446A1F13200AC5436
:1006F0008C548454521CD2B20A2AF8D30A210170B5
:10070000FF2747708770C770744878A15038079AE0
:1007100006F01EFF714902A8503906F019FC6F4817
:1007200002A9823806F014FC6C486946823806F04B
:100730000FFC6A483146823806F00AFC6748414699
:10074000823806F005FC654803A9823806F000FCF3
:100750002F706F706149AF70EC7028392C71A1F166
:100760005A0006F0F5FB5D488238FFF7B5FE08B089
:10077000BDE8F08170B50020FFF7D4FE5AA0FFF766
:10078000BDFE56480D2259A1823806F0E1FE5348BD
:100790008238FFF7B3FE59A0FFF7B0FE594C202175
:1007A000204603F0FFFB02464C4850A1823806F079
:1007B000CFFE4A488238FFF7A1FE1021204603F001
:1007C000F1FB0246454849A1823806F0C1FE434884
:1007D0008238FFF793FE4C4D8021284603F0E2FB60
:1007E00002463E4841A1823806F0B2FE3B488238BC
:1007F000FFF784FE4021284603F0D4FB0246374829
:100800003AA1823806F0A4FE34488238FFF776FE1B
:100810004FF40041204603F0C5FB02462F4833A1A8
:10082000823806F095FE2D488238FFF767FE4FF4B8
:100830008041204603F0B6FB024628482BA18238AF
:1008400006F086FE25488238FFF758FE4FF4005127
:10085000204603F0A7FB0246204824A1823806F078
:1008600077FE1E488238FFF749FE4021274803F0F3
:1008700099FB024619481DA1823806F069FE174807
:100880008238FFF73BFE1CA0FFF738FEFF20FFF782
:1008900049FEFF20FFF746FEBDE87040FF2041E61D
:1008A000FEB51BA10646D1E90001CDE900011AA061
:1008B00000210A4D0068283DA5F1280202900C464F
:1008C000A2F132006C5454544454491CC9B2322928
:1008D000F8D30A210170FF2747701FE0CA020020E9
:1008E000B860024000500040740000002564000021
:1008F0002E7478743D000000220000002E7478747D
:100900003D220000000802400000024000100240AA
:100910002E76616C3D0000006A0000008770C77091
:100920000022AFF23801FE4806F012FEFC4902A890
:1009300006F00EFBFA4802A9323806F009FBF84827
:100940006946323806F004FB3246AFF26001F448E3
:1009500006F0FEFDF249A1F1320006F0F9FA2F701F
:100960006F70EF49AF70EC7028312C71A1F15A0013
:1009700006F0EEFAEA483238FFF7AEFDFEBD70B57C
:100980000D46044606F0AEFA291B491C90FBF1F215
:1009900001FB1200204470BD2DE9FC414FF080475F
:1009A000384604F0AFF9DF4D2969642640EA01407A
:1009B00090FBF6F000240190384604F0A3F9296971
:1009C00040EA014090FBF6F001990090401A00D5F2
:1009D0004042322800DA641C00980190022CEBDBC4
:1009E0000098002800DA4042BDE8FC812DE9FC4176
:1009F000CD4F384604F086F9CA4D6969642640EA4D
:100A0000014090FBF6F000240190384604F07AF99A
:100A1000696940EA014090FBF6F001990090401AA4
:100A200000D54042322800DA641C00980190022C64
:100A3000EBDB00980028D7DA4042D5E710B5FFF786
:100A4000ABFF0446FFF7D2FF002C00DA6442002817
:100A500000DA4042204410BD01B581B0019800EB9E
:100A6000C00040000090002801D0401EFAE70CBDF5
:100A700001B581B044F250610198484300900028CC
:100A800001D0401EFAE70CBD2DE9FC4101211F20D9
:100A900003F0F0FB01248DF8044000268DF8066079
:100AA0004FF6FF758DF80740032700958DF8057008
:100AB00069469E4803F010FA8DF804408DF80660F0
:100AC0008DF8074000958DF805706946984803F049
:100AD00003FA8DF804408DF806608DF80740009504
:100AE0008DF805706946934803F0F6F97CE77CB50C
:100AF00001217E2003F0BEFB0024FC208DF8044081
:100B0000012500908DF8075002268DF80560694692
:100B1000894803F0E1F948F206008DF8044000909E
:100B20008DF807508DF805606946804803F0D4F9C8
:100B300046F6C4408DF8044000908DF807508DF8BB
:100B4000056069467A4803F0C7F903208DF8044030
:100B500000908DF807508DF805606946754803F0E0
:100B6000BBF94FF2FF508DF8044000908DF807500C
:100B70008DF805606946714803F0AEF97CBD1FB57C
:100B80004FF4E06003F0F0F836208DF80C000024FC
:100B90008DF80D408DF80E4001208DF80F0003A850
:100BA00003F0E7F80121102003F082FB3220ADF8BA
:100BB0000000ADF80840ADF8024040F2E730604C6C
:100BC00001906946204604F057F80121204604F0C0
:100BD000FCFB01221146204604F0D7FB00212046F1
:100BE00004F08CF80121204604F0BEF81FBD1FB5AB
:100BF0004FF4E06003F0B8F837208DF80C000024C3
:100C00008DF80D408DF80E4001208DF80F0003A8DF
:100C100003F0AFF80121202003F04AFB4FF4FA70F3
:100C2000ADF80000ADF80840ADF8024040F2E73002
:100C3000444C01906946204604F01EF801212046EC
:100C400004F0C3FB01221146204604F09EFB002164
:100C5000204604F053F80121204604F085F81FBD1A
:100C600070B58AB00121022003F02CFB01210C2079
:100C700003F000FB2E4E03220621304603F0B5F9A7
:100C800003220721304603F0B0F903220821304641
:100C900003F0ABF903220921304603F0A6F94FF423
:100CA0007070059002208DF8180003208DF819004F
:100CB00000248DF81A4001258DF81B5005A93046F7
:100CC00003F00AF9A420ADF81C0028021E4E08907B
:100CD000ADF82400ADF81E4007A9304603F0CCFF64
:100CE0006020ADF80000ADF802500294ADF80C4061
:100CF0000121304604F038F80021304603F0FEFFB1
:100D00006946304604F03AF86946304604F062F825
:100D10006946304604F09AF86946304616E000000D
:100D20007A0200200000002000040040000402407D
:100D300000080240000C0240000002400010024087
:100D400000100040001400400004014004F0B8F816
:100D50000121304604F0FAFA0AB070BD70B58AB0CD
:100D60000121042003F0A4FA01210D2003F082FAEE
:100D7000FF4E02220C21304603F037F902220D21EA
:100D8000304603F032F902220E21304603F02DF9ED
:100D900002220F21304603F028F94FF470400590ED
:100DA00002208DF8180003208DF8190000248DF81A
:100DB0001A4001258DF81B5005A9304603F08CF828
:100DC000A420ADF81C002802EA4E0890ADF82400DB
:100DD000ADF81E4007A9304603F04EFF7020ADF875
:100DE0000000ADF802500294ADF80C4001213046ED
:100DF00003F0BAFF0021304603F080FF6946304619
:100E000003F0BCFF6946304603F0E4FF6946304614
:100E100004F01CF86946304604F052F89CE730B5FF
:100E2000012187B0080403F04DFA0121084603F0C0
:100E300021FA00244FF6FF70CF4DADF8004001902D
:100E4000ADF80840ADF802406946284603F014FFAB
:100E50000420ADF80C00C820ADF814000120ADF856
:100E60001000ADF80E4003A9284604F0BFF9C34CAA
:100E700000231A460321204604F021FB01212046CD
:100E800004F0A3FA01221146204604F07EFA012163
:100E9000284603F069FF0021204603F02FFF07B02A
:100EA00030BD2DE9F04701218AB0084603F000FA71
:100EB0000121022003F0FCF90121032003F0DAF9FB
:100EC000DFF8BC9201220F21484603F08EF8DFF8CC
:100ED000B48201220321404603F087F80222042154
:100EE000404603F082F802220521404603F07DF8D7
:100EF00002268DF80460032738208DF80570002441
:100F000000908DF8064001258DF80750694640464F
:100F100002F0E2FF8DF80460E8038DF805700090A0
:100F20008DF806408DF807506946484602F0D4FF18
:100F30004FF6FF70ADF80C4004904FF08049ADF8CB
:100F40001440ADF80E4003A9484603F095FEDFF8C3
:100F500038A203A9504603F08FFE4FF00408142076
:100F6000ADF81880ADF82000ADF81A60ADF81C504F
:100F700006A9484604F03AF906A9504604F036F9A5
:100F800002231A460321484604F099FA02231A461E
:100F90000321504604F093FA0121484604F015FA63
:100FA0000121504604F011FA01221146484604F08E
:100FB000ECF901221146504604F0E7F901214846B8
:100FC00003F0D2FE0121504603F0CEFE0021484638
:100FD00003F094FE0021504603F090FE780202F0E8
:100FE000C3FE1D208DF808008DF809708DF80A40A9
:100FF0008DF80B5002A802F0BCFE1C208DF80800F2
:101000008DF809808DF80A408DF80B5002A802F087
:10101000B0FE0AB0BDE8F08770B501218AB008467D
:1010200003F050F90121102003F024F94FF420605F
:10103000009002208DF8040003208DF805000024A4
:10104000524E8DF8064001258DF80750694630460E
:1010500002F042FF01220921304602F0C6FF0122C0
:101060000B21304602F0C1FF4FF6FF70424EADF843
:1010700008400390ADF81040ADF80A4002A9304690
:1010800003F0FAFD0420ADF814000A20ADF81C00AE
:10109000ADF81640ADF8185005A9304604F0A6F892
:1010A00000231A460321304604F009FA0121304694
:1010B00004F08BF901221146304604F066F9012153
:1010C000304604F082F901221146304604F05DF901
:1010D0000121304603F048FE0021304603F00EFEA9
:1010E0004FF4C06002F040FE19208DF820008DF80A
:1010F00021508DF822408DF8235008A802F039FEC7
:101100002AE6F0B59BB00121214803F0B3F8012194
:101110000D02284603F0D6F81E480024CDE9004011
:101120001D4802A9082681E85100A800CDE9054024
:10113000400007908000CDE908050AA900010125BB
:1011400081E83100154F0D94694638460E9403F03E
:1011500089FB0121384603F0BEFB3C201990032097
:101160008DF868008DF86B4019A90D481AE0000051
:10117000000C024000080040000001400040014017
:101180000000024000040240000400400010024041
:10119000050040004C200140FC0200201064024089
:1011A0000008024002F098FE4FF44030CDE91540AF
:1011B0004FF47060CDE9174015A803F058F92806E0
:1011C0000F908DF840508DF8415011941294139463
:1011D0008DF850600FA9FE4C204603F01DF9042342
:1011E00001220221204603F08CF90423022203216C
:1011F000204603F086F9042303221946204603F013
:1012000080F904231A460521204603F07AF90423C5
:1012100005220C21204603F074F9042306220D2137
:10122000204603F06EF9042307220E21204603F026
:1012300068F9042308220F21204603F062F90121F6
:10124000204603F0DBF90121204603F0CDF901210E
:10125000204603F023F9204603F08DF91BB0F0BDC2
:1012600008B54FF4E06002F07FFD25208DF8000006
:1012700000208DF801008DF8020001208DF8030098
:10128000684602F076FD08BD70B5054696B00121AE
:10129000102003F017F80121084602F0EBFF0121AE
:1012A000880502F0E7FF4FF4C060139002208DF82C
:1012B000500000248DF852408DF85340C54E8DF8F3
:1012C000510013A9304602F007FE072209213046DB
:1012D00002F08BFE07220A21304602F086FE0F95AF
:1012E000ADF844400C20BC4DADF84040ADF8460090
:1012F000ADF84240ADF848400FA9284604F055F932
:101300000121284604F0C2F94FF4A06002F02CFD40
:101310003A208DF854008DF855408DF85640012044
:101320008DF8570015A802F024FDAC4E304603F0AE
:1013300011FA4FF000600090A948CDE902040A209C
:101340000490281D01900015CDE905408010CDE9DD
:10135000084040020A9004200B9007940320CDE936
:101360000C04694630460E9403F07CFA01224021B9
:10137000284604F022FA01221021304603F020FB17
:101380000121304603F0A7FA16B070BDF0B506464D
:10139000012197B0480502F06DFF01214D04284658
:1013A00002F086FF0121082002F064FF6020139004
:1013B00002208DF8500000248DF852408DF85340E3
:1013C000884F8DF8510013A9384602F085FD072299
:1013D0000521384602F009FE07220621384602F0B0
:1013E00004FE0F96ADF844400C207F4EADF840400F
:1013F000ADF84600ADF84240ADF848400FA9304680
:1014000004F0D3F80121304604F040F94FF4A06015
:1014100002F0AAFC11208DF854008DF855408DF88B
:10142000564001208DF8570015A802F0A2FC6F4F1E
:10143000384603F08FF9A8020090402003906C48D2
:1014400002903C200490301D01900015CDE905402C
:101450008010CDE908400420CDE90A50079403200C
:10146000CDE90C04694638460E9403F0FBF90122DD
:101470008021304604F0A1F901228021304604F099
:101480009CF901221021384603F09AFA01213846CE
:1014900003F021FA17B0F0BD70B50546012196B0F2
:1014A000880402F005FF0121082002F0E3FE01217B
:1014B000480502F0DFFE4FF44070139002208DF8D3
:1014C000500000248DF852408DF85340454E8DF861
:1014D000510013A9304602F0FFFC072208213046D4
:1014E00002F083FD07220921304602F07EFD0F95B0
:1014F000404EADF84040ADF844400C25ADF84240B8
:10150000ADF84840ADF846500FA9304604F04DF80C
:101510000121304604F0BAF84FF4A06002F024FC38
:101520008DF854508DF855408DF8564001208DF8B7
:10153000570015A802F01DFC2C4D783D284603F0FD
:1015400009F94FF000600090254869461E30CDE94A
:10155000020408200490301D01900015CDE90540DB
:101560008010CDE9084040020A9004200B900794B7
:101570000320CDE90C0428460E9403F073F90122F0
:101580004021304604F019F901224021304604F090
:1015900014F901221021284603F012FA01212846ED
:1015A00003F099F9F0E6F0B50646012197B0C804BA
:1015B00002F07EFE0121084602F05CFE0121480592
:1015C00002F058FE0325022013958DF8500013E019
:1015D0000020014000000240001001404064024031
:1015E0000C030020000C024000440040A0600240B8
:1015F000FC0000200048004000248DF852408DF887
:101600005340FA4F8DF8510013A9384602F064FC9C
:1016100008220021384602F0E8FC08220121384661
:1016200002F0E3FC0F96ADF844400C20F04EADF80C
:101630004040ADF84600ADF84240ADF848400FA933
:10164000304603F0B2FF0121304604F01FF84FF49A
:10165000A06002F089FB0D208DF854008DF85540F4
:101660008DF8564001208DF8570015A802F081FB37
:10167000E04F384603F06EF878050090DE48CDE97B
:10168000020408200490301D01900015CDE90540AA
:101690008010CDE90840400207940A900420CDE96B
:1016A0000C540B90694638460E9403F0DBF8012287
:1016B0004021304604F081F801224021304604F0F8
:1016C0007CF801221021384603F07AF901213846CE
:1016D00003F001F9DEE62DE9F0418046012196B0E4
:1016E000480502F0C7FD0121080502F0E1FD0121D6
:1016F0000C2002F0BFFD02258DF8405000248DF82B
:101700004240BE4F04268DF843400F968DF841505D
:101710000FA9384602F0E0FB8DF840508DF84240AA
:101720008DF84340E8028DF84150B54D0F900FA958
:10173000284602F0D1FB08220221384602F055FC6F
:1017400008220C21284602F050FC4FF4A06002F061
:101750000BFB2F208DF8540005208DF855008DF8D7
:10176000560001208DF8570015A802F002FBADF8D5
:101770004C400C20A34DADF84840ADF84E00CDF8DC
:101780004480ADF84A40ADF8504011A9284603F016
:101790000CFF0121284603F079FF964F7837384631
:1017A00002F0D8FF700600904020039092486946EE
:1017B0005138029031200490281D01900015CDE988
:1017C00005408010CDE908404002CDE90A060794A3
:1017D0000320CDE90C0438460E9403F043F80122AF
:1017E0008021284603F0E9FF01221021384603F04A
:1017F000E7F80121384603F06EF816B0BDE8F08135
:1018000030B585B00121082002F034FD01218803A4
:1018100002F058FD00240C208DF8104001250390A3
:101820008DF8135003A9754802F056FB02210320DE
:1018300004F02DF8042000908DF8044010208DF85D
:1018400005008DF80650684603F022F908208DF84F
:1018500008008DF809408DF80A408DF80B5002A859
:1018600002F087FA05B030BD10B5012810D003286A
:1018700019D0042822D0052809D1624C204603F053
:101880002BFF4021204603F0B8FF0028F9D010BDFF
:101890005D4C204603F020FF4021204603F0ADFFC1
:1018A0000028F9D010BD594C204603F015FF402107
:1018B000204603F0A2FF0028F9D010BD4C4C204672
:1018C00003F00AFF4021204603F097FF0028F9D0DB
:1018D00010BD4F49002048624E49C8604FF0804219
:1018E000506208614C4A10604861704770B5494DBC
:1018F00000202871044661210120FFF7B5FF322046
:10190000FFF7B6F8641C022CF5D3012028717A2069
:10191000E87070BD10B561210120FFF7A5FFBDE89B
:1019200010400A20FFF7A4B870B53A4D0020A87106
:10193000044661210320FFF797FF3220FFF798F854
:10194000641C022CF5D30120A8717A20687170BD47
:101950002DE9F14195B0002014908DF800002D4B39
:10196000DFF8BCC08DF82800254C8033159A2B4E2B
:1019700028482715DCF814C04FF4004503F1E801AE
:10198000122A32D2DFE802F009282C72787E83878F
:101990008B8F93979B9FA3A5ABBC0221304602F08F
:1019A00001FB60B101222946204602F013FB2946C3
:1019B000204602F001FB014600221AA08CE0002222
:1019C0002946204602F006FB2946204602F0F4FA9A
:1019D000014600221AA07FE0012221A0596B7BE082
:1019E000FFF72CF8014602223EE077E000000240BB
:1019F000004C0040406002401B030020000C0240ED
:101A00000008024000500040001001400048004023
:101A100000000140000000202404004000040240B7
:101A200018020020524F424F542044414E47204359
:101A30004841592053414E20444F3A202020000075
:101A4000524F424F542044414E4720434841592071
:101A500053414E2058414E483A20202000000000BB
:101A6000494D553A00000000EAA035E0FEF7BEFF00
:101A700001460322EBA02FE0FEF78EFF0146042271
:101A8000E9A029E0E948C17C0522E9A024E0097821
:101A90000622EAA020E009790722EBA01CE0416BB6
:101AA0000822ECA018E0816A0922EEA014E0416A45
:101AB0000A22F1A010E081780B22F3A00CE0816BE8
:101AC0000C22F6A008E00D22F8A0996F04E00E2287
:101AD00000E00F226146FAA0FEF792FD8DE639463E
:101AE000FD4802F05FFA0246FCA1684605F030FDB1
:101AF00069460AA805F02CFA10220AA9F8A0DBE032
:101B00002946304602F058FA0246F4A1684605F02C
:101B10001FFD69460AA805F01BFA4FF480413046C4
:101B200002F04AFA0246EDA1684605F011FD694649
:101B30000AA805F00DFA4FF40051304602F03CFAC5
:101B40000246E6A1684605F003FD69460AA805F0CD
:101B5000FFF94FF480584146304602F02DFA024614
:101B6000DEA1684605F0F4FC69460AA805F0F0F924
:101B70004FF400652946304602F01EFA0246D7A10E
:101B8000684605F0E5FC69460AA805F0E1F9394622
:101B9000304602F011FA0246D0A1684605F0D8FCA2
:101BA00069460AA805F0D4F9A9102746204602F094
:101BB00003FA0246C9A1684605F0CAFC69460AA8AC
:101BC00005F0C6F9EC102146384602F0F5F9024658
:101BD000C2A1684605F0BCFC69460AA805F0B8F940
:101BE0002146C04C204602F0E7F90246BBA16846F8
:101BF00005F0AEFC69460AA805F0AAF901212046C5
:101C000002F0DAF90246B5A1684605F0A1FC694682
:101C10000AA805F09DF90221204602F0CDF90246FE
:101C2000AEA1684605F094FC69460AA805F090F953
:101C30000121304602F0C0F90246A8A1684605F02D
:101C400087FC69460AA805F083F92946204602F078
:101C5000B3F90246A1A1684605F07AFC69460AA8D4
:101C600005F076F94146204602F0A6F902469BA10E
:101C7000684605F06DFC69460AA805F069F98021FF
:101C8000304602F099F9024694A1684605F060FCDE
:101C900069460AA805F05CF94021304602F08CF94B
:101CA00002468EA1684605F053FC69460AA805F075
:101CB0004FF911220AA98CA0FEF701FD9DE5012133
:101CC0008A4802F008BE11B458487C38C16E009AA8
:101CD000914201DD002101E0C16E491CC166C06E68
:101CE00018BC35E62DE9F0470025814E0746012452
:101CF0004FF400594FF480484FF4805A0022414677
:101D0000304602F067F91020FEF7A6FE274201D008
:101D1000012200E000224946304602F05BF9012230
:101D20004146304602F056F91020FEF795FE514626
:101D3000304602F037F900B12543600010F0FF048F
:101D4000DCD12846BDE8F08770B5694E4FF40045F8
:101D500000222946304602F03DF91020FEF77CFEB5
:101D60000120FFF7BFFF4220FFF7BCFFFF20FFF776
:101D7000B9FFFF20FFF7B6FF2C4C6C342070FF201A
:101D8000FFF7B0FF6070FF20FFF7ACFFA070FF20EF
:101D9000FFF7A8FFE070FF20FFF7A4FF2071FF20EE
:101DA000FFF7A0FF607129463046BDE87040012270
:101DB00002F010B970B54E4E4FF40045002229468E
:101DC000304602F007F91020FEF746FE0120FFF72B
:101DD00089FF4220FFF786FF04460122294630464C
:101DE00002F0F8F81020FEF737FE204670BD0F4ACB
:101DF0000021FC3A1164C2790C496C310D2A7AD069
:101E0000FF20087048708870C87008714871887128
:101E100000207047454E434F4445525F544F4E4754
:101E20003A00000046523A00464C3A00FC000020BE
:101E30004D6F725F53696C6F0000000047414D4564
:101E4000205041443A0000004C4A4F595F4C523AEE
:101E5000000000006269656E20646F20626F6E672B
:101E60003A2000006269656E2064756E67206261C9
:101E70006E67207461693A0073696C6F5F76756193
:101E80005F636861793A20006269656E5F6E6861C0
:101E90006E5F626F6E673A20000000007472756FAB
:101EA0006E6720686F703A20000000006C617A65F0
:101EB000206E67616E672078616E683A20000000CE
:101EC000626F6E675F74726F6E675F73696C6F5B72
:101ED000355D3A200000000000100240256400003B
:101EE000493A0000000002404F3A0000A060024062
:101EF000000C0240FFE702780A7042784A7082784C
:101F00008A70C278CA7002790A7142794A718079FE
:101F1000887101207DE7FE48A0F5B4710278FF2AA0
:101F200005D14278FF2A02D18278FF2A09D00A6CB3
:101F3000531C0B64C82A03DDFF21017041708170BE
:101F400067E70020086464E7F148807961E7F048BA
:101F50000078400601D401205BE7002059E7EC48F7
:101F60000078C00601D4012053E7002051E701B5F5
:101F70009DF80000052801D2002008BD9DF8000052
:101F800008BDF0B5E34E00271D4606F1FC044FF0F6
:101F9000010C002806D009DDC0B2FFF7E8FFE070B1
:101FA000A7700AE096F86C00E07006E04042C0B20C
:101FB000FFF7DDFFE07084F802C0002907D00ADDDA
:101FC000C8B2FFF7D4FFE07184F806C009E096F8C4
:101FD0006C00E07105E04842C0B2FFF7C8FFE07155
:101FE000A771002A06D009DDD0B2FFF7C0FFE0726A
:101FF000A7720AE096F86C00E07206E05042C0B2A8
:10200000FFF7B5FFE07284F80AC0002D07D00ADDA3
:10201000E8B2FFF7ACFFE07384F80EC0F0BD96F8AD
:102020006C00E073F0BD6842C0B2FFF7A0FFE07340
:10203000A773F0BDB6496C39C870C871C872C8734F
:10204000E7E6B449012080310865E2E6B148803016
:102050004069A0F5EA41303901D00120D9E60020DD
:10206000D7E643E4AB48B0F908004042D1E6A948BE
:10207000B5EEC00AD0ED120AF1EE10FA02D230EE3F
:10208000600A01E030EE200ABDEEC00A10EE100A30
:10209000BFE610B5041E2DED068B9E4800F18000B2
:1020A0009FED9DAB9FED9E9B006810D014DA05F06C
:1020B000F6F841EC180B204605F0F1F853EC1A2B1A
:1020C00005F00CF853EC192B05F002F813E09FED26
:1020D000960ABDEC068B10BD05F0E1F841EC180B3B
:1020E000204605F0DCF853EC1A2B04F0F7FF53EC14
:1020F000192B04F04CFF53EC182B05F061F805F098
:10210000F2F800EE100AE4E7B5EEC00AF1EE10FABC
:1021100001DAB1EE400A7CE6002800DA404278E6B7
:102120007C4991ED190AD1ED1A1AF1EE400A80EEC0
:10213000A11A00EE900AF8EEE00A01EE200ABDEEC8
:10214000C00A10EE100A64E6B0EE402A9FED770A4E
:10215000B5EEC02AF1EE10FA01D2B1EE422AF5EE48
:10216000C00AF1EE10FA01D2F1EE600AB5EEC01A23
:10217000F1EE10FA01D2B1EE411AF5EEC01AF1EE0D
:1021800010FA01D2F1EE611AB4EEC02AF1EE10FAA3
:1021900001DDB0EE420AF4EEC00AF1EE10FA01DD04
:1021A000B0EE600AB4EEC01AF1EE10FA01DDB0EE46
:1021B000410AF4EEC01AF1EE10FA01DDB0EE610A48
:1021C00027E654488030006823E652488030C06AD1
:1021D0001FE670B54F4C4F4D80342DED048BB0EEA3
:1021E000408A6069A0F5EA4130393ED0226A616BCD
:1021F00095ED151A891A401A00EE100AB8EEC00AB9
:10220000C0EE010A95ED160A30EE800AD5ED1D0AE2
:1022100060EE208AB0EE680A05F06AFAB0EE009A25
:1022200020EE090A84ED130AB0EE680A05F0B8F949
:1022300060EE090AC4ED120A94ED131A94ED0A0A2D
:1022400031EE001A30EEC00A84ED101A84ED110A46
:10225000B5EEC08AF1EE10FA7ED0E86F05287BD289
:10226000DFE800F00E1F324166009FED2F0A84ED7B
:10227000130A84ED120A84ED110A84ED100AE7E7CF
:1022800094ED100A30EE080A84ED100A94ED110A5C
:1022900030EE480A84ED110A94ED120A30EE080A75
:1022A0001EE094ED110A30EE480A84ED110A94ED17
:1022B000120A30EE080A84ED120A94ED130AD5EDE5
:1022C000130A08EE600A20E094ED100A30EE080AC6
:1022D00084ED100A94ED120AD5ED130A08EE200AD7
:1022E00084ED120A0DE094ED100A30EE080A84ED38
:1022F000100A94ED110AD5ED130A08EE600A84ED78
:10230000110A94ED130A30EE480A84ED130A23E013
:102310006801002000000020333333333333D33FD0
:102320009A9999999999B93F000000006F12833AE0
:1023300094ED100AD5ED130A08EE200A84ED100A78
:1023400094ED110A30EE480A84ED110A94ED120A58
:1023500030EE080A84ED120A04F1400090EC040A01
:10236000FFF7F2FED5ED110AF8EEE00A80EE801AD2
:10237000BDEEC10A10EE100AA0602168814200DDA6
:1023800020600120A867BDEC048B70BDFA490022D3
:1023900000284A60C86011D10A601FED1D0A47F28B
:1023A000305081ED0A0A48618861A1F1800081ED19
:1023B000090AC267CA61CA620A650AE729E5EE48E6
:1023C000A0F1800190ED090AB5EEC00AF1EE10FA15
:1023D00004D1CA6F12B9C269002A09D000221FEDC8
:1023E0002E0A80ED090ACA67C261416B0162F0E6FC
:1023F0000FE5E1488038C0ED190A80ED1A0A08E5BA
:10240000DD4A5369834209D153688B4206D1D2ED2C
:102410000A0AF4EE400AF1EE10FA0ED0516011688B
:1024200009B905211160516B116282ED0A0A5061F0
:102430000020106192ED090ACBE6EAE4F0B4CE4B3D
:10244000A3F18004DD69854209D1D3ED090AF4EED8
:10245000400AF1EE10FA02D1E56F8D4225D05E6997
:1024600047F23055AE4218D15A6005221A60A84290
:1024700013DAB5EEC00A0122F1EE10FADA6202DDDB
:102480005A6B824207DCB5EEC00AF1EE10FA04D2B4
:102490005A6B824201DAB1EE400AD861E16783EDFE
:1024A000090A00201861F0BC93E6F0BC70470A46A8
:1024B000014647F23050C1E71FED650AA0E770B54D
:1024C000AD4C05462DED028BF0EE608AD4ED060A88
:1024D000B0EE418AF8EEE00AF4EE400AF1EE10FAAE
:1024E0000BD16068A84208D1D4ED070AF8EEE00AE3
:1024F000F4EE680AF1EE10FA4AD0FDEEC00AC4ED1F
:10250000060AD4ED0D0AF8EEE00A30EE600ABDEEE0
:10251000C00A10EE100A1FED7C0A2946FFF770FF73
:1025200094ED0D0AF8EEC00A78EEE00AFDEEE00A3E
:1025300010EE903A002B00DA5B42B8EEC00A642B32
:1025400019DDF4EEC08AF1EE10FA01DCB1EE488A32
:1025500018EE100A04F0B4FE04F0C5FEFDEEE80A21
:10256000BDEC028B2A46BDE8704000EE100A002147
:1025700010EE900A62E738EEC00A10EE100A04F07E
:102580009FFE9FED7E1B53EC112B04F0A7FDE3E7AC
:10259000BDEC028B70BD784910B5C86A012826DDF4
:1025A0004A6BC869801AFFF7B7FD062809DAC86ABE
:1025B000421CCA62B0F5FA7F19DDBDE81040002068
:1025C000E4E60520CA6A4860FA2A086001DDFB20BB
:1025D000C862CA69486B904202DDBFEE000A01E0A2
:1025E000B7EE000A81ED090ABDE81040F1E510BD23
:1025F00070B5614991ED0A0AB5EEC00AF1EE10FA24
:1026000073D10B68002B70D0C86947F23054A042D8
:102610006BDA91ED090AB5EEC00AF1EE10FA7DD041
:102620004D69A1F18002A54260D1B5EEC00A134602
:10263000F1EE10FA1B6E03DD4D6BC41AAC4208DBE1
:10264000B5EEC00AF1EE10FA17D24C6B0344A34268
:1026500013DDCB6A032B48DA4B6BC01AFFF75CFD26
:102660000A28C8690ADA0863002008601FEDD20A48
:10267000486081ED090A0220C86279E091ED000A04
:10268000D1ED090A4B6BB8EEC00A984260EE200A01
:1026900092ED180AB8EEC01A80EE810A0FDDFFF73E
:1026A00033FD4B6BC869C01AFFF736FD00EE900A88
:1026B000B8EEE01AD2ED140A40EE010A0EE0FFF780
:1026C00023FD4B6BC869C01AFFF726FD00EE900A88
:1026D000B8EEE01AD2ED140A50EE410A91ED000A6C
:1026E000B8EEC01A80EE810A42E04DE0224AB5EE13
:1026F000C00A803AD2ED170AF1EE10FA18DD01EEA9
:10270000100AF8EEC11A01EE103AB8EEC11A41EE05
:10271000401AB8EEE01A71EEC11A00E032E091ED15
:102720000D1AB8EEC11AF4EEC11AF1EE10FA1BD36D
:10273000B5EEC00AF1EE10FA1AD201EE100AF8EE68
:10274000E00AF8EEC11A01EE103AB8EEC11A41EEF5
:10275000401A31EEA01AD1ED0D0AF8EEE00AB4EEFF
:10276000E01AF1EE10FA03DD496B401AFFF791FC15
:10277000BDE870402DE50000800000207B14AE47CE
:10278000E17A743F086AEFE770BDFD49A1F180006E
:10279000CA6A022A0CDA9FEDFB0A002381ED0A0ABD
:1027A00081ED090A47F23052C3674A61C1E9062345
:1027B0000B695B1C0B61026FF14880389342C06E5D
:1027C00001DB0A61096D35E4ED4A13695B1C136195
:1027D000834204DD106808441060002010612FE47B
:1027E00010B5FFF73FFCE64C6063FFF7D4FE62686C
:1027F00020684FF0FF31002A0BDD90420ED006DA40
:10280000A16888420ADAFFF78BFC022104E0E06B42
:1028100002E000283EDDE068FFF7D6FFD4E90D01B5
:10282000814203D0FFF7E4FE606BA063D448803898
:10283000806F002831D094ED000AD4ED130AB8EE71
:10284000C00A20EE200AFFF712FC94ED000AD4ED36
:10285000120A0346B8EEC00A20EE200AFFF707FC72
:1028600094ED000AD4ED110A0246B8EEC00A20EE3B
:10287000200AFFF7FCFB94ED000AD4ED100A014694
:10288000B8EEC00A20EE200AFFF7F1FBBDE81040C9
:10289000FFF777BBBDE8104077E710BD2DE9F05F8B
:1028A000B749E8318878401FF52801D8012500E0B4
:1028B00000250879401FF52801D8012700E00027EE
:1028C000AF4A087802F1E802C30652780DD54306F4
:1028D0000BD5830609D5030607D535B12FB193066D
:1028E00003D5BDE8F05F022050E5530702D432263D
:1028F000142403E0D20717D01E260A248B46DFF8E3
:102900008082C10647F23059A8F1800A4FEA40613F
:102910000DD400294DDA81064FEA006024D5002845
:10292000314627DA00202EE00A260724E6E70029B0
:102930004FEA806109DB00294FEA00601CDA0028B9
:1029400031461FDA4FF4E1601DE000294FEA0060D4
:1029500005DB00282DDA31464FF4617013E00028C2
:102960001DDB314688480EE0002822DA31464FF45C
:10297000E17008E0854806E000281ADA314640F2A6
:10298000465000E08248FFF797FD9BF80000C10623
:102990000FD541060DD581060BD5000609D54DB9D9
:1029A0005FB1D8F81410494507D00520FFF7EEFCB9
:1029B00003E015B1FFF703FD31E09BF8021001229F
:1029C0005846052912D24378DB070FD0D8F81410E7
:1029D000494504D031460020BFEE080A14E08AF8C9
:1029E0000020234662421046194616E0FA291CD9F7
:1029F0009BF80100C00718D0D8F81410494506D03C
:102A000031460020B7EE080AFFF751FD07E08AF8CB
:102A100000206342224619461046FFF7B2FA002111
:102A20008AF80010BDE8F05FC9E402231A4619468F
:102A30001846F2E730B55248564B1422456D691CD2
:102A4000416501468C6D0021142D03D2DD892C4493
:102A5000846504E0B4FBF2F4416504678165C56DEB
:102A60006C1CC465464C142D246E03D29D892C44E5
:102A7000046604E0B4FBF2F4C16544670166456E88
:102A80006C1C44663E4C142DA46E02D2598921441C
:102A900003E0B4FBF2F282674166816630BD70B537
:102AA000374C3D4DE8346078C00604D40122402103
:102AB000284601F08FFA6078400616D400224FF4C1
:102AC0008071364801F086FA012294032146284697
:102AD00001F080FA4FF4FA70FDF7CAFF214628464C
:102AE000BDE87040002201F075BA70BD66E465E48F
:102AF00070B5234C294EE8344FF480756078C106D8
:102B000001D4002202E0400616D4012229463046B4
:102B100001F060FA6078C00604D4012229463046EC
:102B200001F058FA6078400606D429463046BDE8E0
:102B30007040002201F04EBA70BD3FE410B5FEF7C0
:102B4000E9FEBDE81040FEF7C4BE10B50446022100
:102B5000114801F027FA012811D00948B830A0F532
:102B60009C71012C07D0022C05D0032C03D0042C1F
:102B700001D0052C03D10A6A50F82200C86310BDA9
:102B800080000020000000007CFCFFFF3EFEFFFFF5
:102B9000BAFAFFFFFC0200200004024000080240D5
:102BA00070B50122FE4D54022146284601F012FA6A
:102BB000FC4E4021304601F0F5F90128F9D04FF4E0
:102BC000FA70FDF755FF00222146284601F002FA6F
:102BD000F649F548096A50F82120521C40F8212096
:102BE000BDE87040AAE710B52DED028BFEF771FE2F
:102BF0000221EF4801F0D6F9012825D064201FED0D
:102C00001F8AB0EE480AB0EE401AF0EE400AFFF715
:102C100056FC40F6B83402E0FFF7A1F918B9FDF709
:102C20000DFFA042F8DBFEF754FE1420FDF720FF55
:102C3000F0EE480A1E20B0EE601A9FEDDE0ABDECF1
:102C4000028BBDE810403AE4BDEC028B97E770B50B
:102C50002DED028BFFF772FFD44C206AFFF775FF52
:102C60000020A0700221D24801F09CF901286FD009
:102C7000FEF72FFE1FED3D8AC820F0EE480AB0EEA9
:102C8000601ADFEDCD8AB0EE680AFFF718FC4FF44A
:102C9000FA6402E0FFF763F918B9FDF7CFFEA0422E
:102CA000F8DB0220FFF772FB6420FDF7E1FEBF4C6A
:102CB00047F230508034616B002913DA4FF01E0266
:102CC0004FF00001B6EE000AFFF7B8FB03E000BFCB
:102CD000FFF73DF910B9606B0028F9DB0220FFF720
:102CE00055FB0FE00EDD1E220021BEEE000AFFF7AD
:102CF000A5FB02E0FFF72BF910B9606B0028F9DCA7
:102D0000FFF75DFB0220FFF741FBF0EE480A2820A9
:102D1000B0EE601AB0EE680AFFF7D1FBA14D4FF498
:102D2000804602E0FFF713F928B93146284601F042
:102D300039F90128F6D0A06F0D2825DDB0EE481A2C
:102D4000DFED9E0A28209FED9E0AFFF7B8FB04E006
:102D500048E000BFFFF7FBF810B9A06F3A28F9DC94
:102D6000B6EE001ADFED970A0A209FED970AFFF7EB
:102D7000A6FB02E0FFF7EBF868BB2021284601F034
:102D800011F90128F6D026E0F0EE480A2820B0EE2E
:102D9000601A9FED8E0AFFF792FB02E0FFF7D7F86B
:102DA00010B9A06F0628F9DC0220FFF7EFFAF0EE69
:102DB000480A0A20B0EE601A9FED850AFFF77FFBF4
:102DC00003E000BFFFF7C3F828B92021284601F02F
:102DD000E9F80128F6D0BDEC028B0220BDE8704076
:102DE000FFF7D4BABDEC028B70BD2DE9F041022192
:102DF0002DED028B6E4801F0D5F81FED9E8A6A4DCD
:102E00006A4C00260127183D0128206A0AD0FFF7E6
:102E10009CFE2868DFF88C81012866D0206A012892
:102E200076D084E0FFF791FE286801281FD10121A8
:102E30000020FDF7A4FDC1B26170206A012807D00F
:102E4000052807D005EB80004268032A04D004E07F
:102E5000677016E066701DE021B150F8040C03287D
:102E600002D004E0677002E0012900D16670206A98
:102E7000002801DD617869B1062822DA607801282E
:102E80001FD1206A55F8200001281ED003281CD02D
:102E9000206A26E055F82000012803D0032801D03D
:102EA000206A0BE0F0EE480A1420B0EE601A9FEDA5
:102EB000410AFFF704FB206A401E2062012800D16E
:102EC0006770BDEC028BBDE8F081F0EE480A14207B
:102ED000B0EE601A9FED3D0AFFF7F1FA206A401E3E
:102EE00020620528EDD16670EBE701210020FDF797
:102EF00046FDC1B26170206A012808D0052809D0BA
:102F000005EB80004268032A06D007E000E0667007
:102F1000667017E067701EE0012904D050F8040CB9
:102F2000032802D003E0667001E001B96770206AEF
:102F3000002804DD617801290DD00628C1DA607807
:102F40000028BED1206A55F82000012856D0032859
:102F500054D0206A73E055F82010032903D1401E95
:102F60002062FFF7F2FD206A55F82000012803D007
:102F7000032801D0206A3DE0BEEE001AFAEE040AF2
:102F800014209FED140AFFF79AFABEEE001AFAEE2B
:102F9000040A05209FED100AFFF791FA45461DE04F
:102FA0000008024000100240300200200000002013
:102FB00000040240000061C40000E144CDCC4CBEDE
:102FC00000007AC4CDCC4C3E0000AFC40000614488
:102FD00000007A4400007044008089442021284683
:102FE00000F0E0FF0128DAD00220FFF7CFF9206AD5
:102FF000401E206201283FF476AF62E75FED108A41
:10300000B0EE481AF1EE080A1420B0EE680AFFF795
:1030100056FAB0EE481AF1EE080A0520B0EE680A3A
:10302000FFF74DFA45462021284600F0BBFF012856
:10303000F9D00220FFF7AAF9206A401C2062052877
:103040003FF43EAF3DE72DE9F047FB4C01266069B8
:1030500001280CD16068012809D1A068012806D197
:10306000E068012803D12069012800D12660F34FD0
:103070000421384600F096FFF14D012809D00421C3
:10308000384600F08FFF4FF000084FF0030910B1F1
:103090000CE0AE7023E00821384600F083FF28B929
:1030A0004FF40041384600F07DFF28B10421384636
:1030B00000F078FF18B107E085F8028015E00821DC
:1030C000384600F06FFF78B10421384600F06AFFFF
:1030D000002807D1206801280BD085F80280286AD3
:1030E00044F82060BDE8F087AE70296A44F821906A
:1030F000F8E7286A022144F820102863AE70F1E74F
:1031000010B5FFF7A0FFCE488078012802D1BDE8B6
:10311000104045E533E570B5FFF795FF4FF47A743D
:10312000C74D06E0FFF761FE2046FDF7A1FCFFF763
:103130008AFFA8780028F5D070BD10B52DED028B60
:10314000FEF7C7FBBE4C01202062FFF780FD9FED1C
:10315000BD8A1E20B0EE481AF0EE480A1FED6B0A39
:10316000FFF7ADF9B0EE481AF0EE480A14201FED53
:103170006E0AFFF7A4F900BFFDF760FC6428FBDBD3
:10318000FFF7C9FF206A60625EE510B52DED028B86
:10319000FEF79FFBAA4C02202062FFF758FD9FED2F
:1031A000A98A1E20B0EE481AF0EE480A1FED7F0AE9
:1031B000FFF785F9B0EE481AF0EE480A14201FED2B
:1031C000820AFFF77CF900BFFDF738FC6428FBDBBF
:1031D000FFF7A1FF206A606236E510B52DED028B86
:1031E000FEF777FB964C03202062FFF730FD9FED42
:1031F000958A1E20B0EE481AF0EE480A1FED930A99
:10320000FFF75DF9B0EE481AF0EE480A14201FED02
:10321000960AFFF754F900BFFDF710FC6428FBDBAA
:10322000FFF779FF206A60620EE510B52DED028B85
:10323000FEF74FFB824C04202062FFF708FD9FED54
:10324000818A1E20B0EE481AF0EE480A1FEDA70A48
:10325000FFF735F9B0EE481AF0EE480A14201FEDDA
:10326000AA0AFFF72CF900BFFDF7E8FB6428FBDB97
:10327000FFF751FF206A6062E6E410B5FEF729FB14
:103280006F4C05202062FFF7E2FC6420FDF7F0FBA5
:10329000FFF741FF206A606271E42DE9F05F674F3C
:1032A0004FF48071384600F07DFE28B10221384687
:1032B00000F078FE00284ED1614D01260022402109
:1032C00061486E6300F086FE05F1FC04FE20E074A8
:1032D000A6744FF480594946B846384600F062FE5D
:1032E00000274FF4FA7A4FF4007B20B94021404682
:1032F00000F058FEE0B149464646404600F052FE16
:103300004FF49678B0B14021304600F04BFE20B328
:103310004946304600F046FE01281CD14021304687
:1033200000F040FE012816D10420A86350460AE0B0
:10333000AE63FBE70220A8634021304600F032FE76
:103340000128F9D04046FDF793FB002259463F483B
:1033500000F040FEE774BDE8F09F0320A863F1E7AA
:103360002DE9F041364C00202DED028B04F1FC01DB
:103370006063A063A070FE22CA748874334E012279
:103380005102304600F026FE012240212E4800F076
:1033900021FE2A4D9FED2B8A1FE000BFB0EE480AA8
:1033A0000A20B0EE401AF0EE400AFFF788F84FF41A
:1033B000806702E0606B012805D03946284600F09E
:1033C000F1FD0028F6D00220FEF7E0FF606B012837
:1033D0000FD04FF4FA70FDF74BFB1021284600F098
:1033E000E1FD012805D14103284600F0DBFD01285D
:1033F000D4D0FDF723FBE0619FED151AF0EE480AEB
:1034000032209FED140AFFF75AF84FF4807707E057
:1034100001223946304600F0DDFDFEF798FD28B95F
:10342000FDF70CFBE169C8398842F1DC606B0128CB
:10343000D3D1BDEC028B46E51802002000100240FB
:1034400000000020000000000004024000080240CC
:10345000CDCC4C3E0000E14470B5FFF781FFFDF795
:10346000EDFAFE4C5FED090A1FED060AE061B0EED1
:10347000601A3220FFF723F803E000BFFEF76FFD6C
:1034800030B9FDF7DBFAE169A1F596718842F5DC08
:103490000220FEF77BFFC820FDF7EAFAFFF74EFB9C
:1034A00047F2305696220021B6EE000A3046FEF76B
:1034B000C5FFEA4D4FF46174803502E0FEF74FFD21
:1034C00010B9686BA042F9DBFEF779FF41F2883052
:1034D000FDF7CEFA686BA04213DD0A220021BEEE92
:1034E000000A3046FEF7AAFF686BA042FDDCFEF73B
:1034F00066FF0220FEF74AFFBDE870406420FDF73A
:10350000B7BA70BD2DE9F05F02212DED068BD448CE
:1035100000F048FDDFEDD39A9FEDD3AACF4C1FED0D
:10352000348A1FED349ADFF844A35FED3A8A803481
:103530004FF4FA6941F2883B4FF4804840F62E156B
:1035400040F6B83647F2305701280BD0FFF7F6FAAD
:10355000B0EE481AFEEE000A9620B0EE490AFEF7D9
:10356000AEFFE0E0FFF7EAFAB0EE481AFEEE000A1E
:103570009620B0EE490AFEF7A2FF02E0FEF7E7FC54
:1035800018B9FDF75BFA4845F8DBB0EE481AF6EEDD
:10359000000A7820B0EE490AFEF791FF4FF47A69ED
:1035A00003E000BFFEF7D3FC18B9FDF747FA484522
:1035B000F8DB46214FF4E160FEF77EFF4FF49659A9
:1035C00003E000BFFEF7C3FC18B9FDF737FA484522
:1035D000F8DBB0EE481AF6EE000A1420B0EE690AE5
:1035E000FEF76DFF03E000BFFEF7B1FC28B94146CE
:1035F000504600F0D7FC0128F6D00220FEF7C6FEA8
:10360000FFF79CFAB0EE4A1AF6EE000A32209FED60
:10361000980AFEF754FF40F6746802E0FEF797FC44
:1036200018B9FDF70BFA4045F8DB0220FEF7AEFEB5
:10363000FEF74FF9B0EE688A3220F0EE480AB0EE9D
:10364000490AB0EE601AFEF73AFF02E0FEF77FFC8F
:1036500018B9FDF7F3F9A842F8DB0220FEF796FE51
:103660005846FDF705FA96220021B6EE000A3D46BF
:103670003846FEF7E3FE4FF4617702E0FEF767FCA1
:1036800010B9606BB842F9DB14220021BEEE000ACB
:10369000A8462846FEF7D2FE40F27A3503E000BF86
:1036A000FEF755FC10B9606BA842F9DCFFF746FA4B
:1036B000B0EE480A3220B0EE401AF0EE400AFEF7B3
:1036C000FEFE02E0FEF743FC18B9FDF7B7F9B04281
:1036D000F8DB0220FEF75AFEC820FDF7C9F9962252
:1036E0000021B6EE000A46464046FEF7A7FE02E07D
:1036F000FEF72DFC10B9606BB842F9DB14220021F3
:10370000BEEE000A3046FEF799FE02E0FEF71FFC0F
:1037100010B9606BA842F9DC0220FEF737FEE4E046
:10372000FEF715FC18B9FDF789F94845F8DBB0EE4E
:10373000481AF6EE000A7820B0EE490AFEF7BFFEFE
:1037400041F2301903E000BFFEF701FC18B9FDF7A4
:1037500075F94845F8DB46214FF4E160FEF7ACFE11
:10376000D94602E0FEF7F3FB18B9FDF767F94845C3
:10377000F8DBB0EE481AF6EE000A1420B0EE690A43
:10378000FEF79DFE03E000BFFEF7E1FB28B94146CE
:10379000504600F007FC0128F6D00220FEF7F6FDA7
:1037A000FFF7CCF9B0EE4A1AF6EE000A32209FED90
:1037B000310AFEF784FE40F6D86802E0FEF7C7FB48
:1037C00018B9FDF73BF94045F8DB0220FEF7DEFDB6
:1037D000FEF77FF8F0EE680A3220B0EE601AB0EE25
:1037E000490AFEF76CFE02E0FEF7B1FB18B9FDF7DF
:1037F00025F9A842F8DB0220FEF7C8FDC820FDF736
:1038000037F996220021BEEE000A3D463846FEF703
:1038100015FE194F03E000BFFEF799FB10B9606B6E
:10382000B842F9DC14220021B6EE000AA846284668
:10383000FEF704FE104D0A3503E000BFFEF787FBDC
:1038400010B9606BA842F9DBFEF7B9FDC820FDF79F
:103850000FF9FFF773F9B0EE680A0FE000000020DF
:103860000004024000C0DAC4CDCC4CBE00100240BF
:1038700000007AC400007A447CFCFFFFB0EE401ADE
:10388000F0EE400A3220FEF71AFE02E0FEF75FFB80
:1038900018B9FDF7D3F8B042F8DB0220FEF776FD49
:1038A000C820FDF7E5F896220021BEEE000A464644
:1038B0004046FEF7C3FD02E0FEF749FB10B9606B1E
:1038C000B842F9DC14220021B6EE000A3046FEF7B9
:1038D000B5FD02E0FEF73BFB10B9606BA842F9DBD7
:1038E0000220FEF753FDFEF76AFDBDEC068BC820F3
:1038F000BDE8F05FFDF7BCB810B59E4C206B012809
:1039000001D1FFF71AFC206B022801D1FFF73DFC23
:10391000206B032801D1FFF760FC206B042801D144
:10392000FFF783FC206B052802D1BDE81040A4E41A
:10393000B2E4914A30B410688E4901280CD0486A2C
:10394000052828D0042828D0032828D002281FD0F2
:10395000012827D130BC90E40120874B88611833BF
:1039600053F820402CB152F82040032C01D00862BB
:1039700002E0401C0528F3DD8861086A0528E9D0CB
:10398000042808D0032808D0022808D0012809D12B
:1039900030BCFFF7D2BB30BC47E430BC1DE430BCC8
:1039A000FFF7F3BB30BC7047FFF7DAFC714C206ABD
:1039B000012808D0022809D003280AD004280BD0F7
:1039C00005280CD00DE0FFF7B8FB0AE0FFF7DDFBA0
:1039D00007E0FFF702FC04E0FFF727FC01E0FFF738
:1039E0004CFCFFF730FB06E0FFF72DFBA078012829
:1039F00010D0FFF7FAF9A0780028F5D00025A570BF
:103A0000FFF7F1F8FFF7ACFC206B30B1FFF774FF64
:103A100025630CE0FFF7C4F8F0E7FFF78AFF06E044
:103A2000FFF711FBA078012806D0FFF7DEF9A07898
:103A30000028F5D0A570E5E7FFF7B2F8FFF7D3F857
:103A4000F5E74C490120086202214C4800F0AABA6F
:103A500048490220086270474649032008627047BF
:103A600044490420086270474249052008627047B3
:103A700076E41120FEF727F90F2002F0E6FEF8E7C2
:103A8000FFF736F80A2002F0E0FEF9E7394C00BFF4
:103A9000FEF7D0FFFFF701FC207808B9FEF7A0FE83
:103AA000052002F0D2FEF3E71FB5FCF7EDFFFDF7AE
:103AB0001EF8FDF753F9FDF7F4F9FDF7ADFAFDF740
:103AC00020FBFDF794F84FF4E1342046FDF7DCFBD2
:103AD0002046FDF75BFC2046FDF7DEFCE000FDF72D
:103AE000FAFDFDF703FFFDF7F4FE00244FF48075A7
:103AF00000940194029423462A4621A12548039468
:103B000002F0CCFC00940194029400232A4622A1E6
:103B10002648039402F0C2FC254C0B25154E07E005
:103B2000FEF7BCFE2078000702D4F562FFF718FC10
:103B3000A0797328FCD1F3E77FB500244FF480759A
:103B400000940194029423462A461AA11C48039427
:103B500002F0A4FC00940194029400232A4619A1C7
:103B60001B48039402F09AFC02F0BEFF04B0002050
:103B700070BD000000000020180200200004024078
:103B80007461736B526F626F74416E616C797469AA
:103B9000637300008D3A00087461736B4469657546
:103BA0004B6869656E436F4361750000813A000898
:103BB000680100207461736B4D61696E0000000044
:103BC000A93A00087461736B4779726F00000000B6
:103BD000733A00080CB500205149019000900A6822
:103BE00042F480320A604FF4A0630A6802F40032A3
:103BF0000092019A521C0192009A12B9019A9A42BB
:103C0000F3D10A68920334D5012000904448403033
:103C1000026842F0805202604248026842F48042E8
:103C200002603F48083002680260026842F40042C5
:103C30000260026842F4A0520260031F3A4A1A600E
:103C40000A6842F080720A600A689201FCD5374A1D
:103C500040F205611160016821F003010160016813
:103C600041F0020101600168C1F381010229FAD12A
:103C70000CBD00900CBD2A4810B5016841F001014F
:103C80000160274A0021083211600268284B1A405F
:103C90000260031D274A1A60026822F48022026033
:103CA0001F480C300160FFF795FF23494FF000607B
:103CB000086010BD70B51A4C083420681F4A10F017
:103CC0000C011F4804D05510042903D0082903D043
:103CD00002601BE0056019E01149091D0B68C3F380
:103CE00080560B6803F03F0316B1B5FBF3F201E019
:103CF000B2FBF3F20B680968C3F388135A43C1F3AC
:103D00000141491C4900B2FBF1F1016021680C4AF4
:103D1000C1F30311121D515C0268CA40026070BDFC
:103D2000003802400070004008544007003C024048
:103D3000FFFFF6FE1030002408ED00E00024F40040
:103D4000840100200648804706480047FEE7FEE75A
:103D5000FEE7FEE7FEE7FEE7FEE7FEE7FEE7FEE73B
:103D6000773C000889010008284908432849086071
:103D7000704730B50F22C47801780123FCB1244C80
:103D8000246801F1E02104F4E064C4F5E064C4F3C4
:103D90000724C4F10405E2404478AC40857815401E
:103DA00025432A0181F80024007800F01F018B4090
:103DB0004009800000F1E020C0F8003130BD01F082
:103DC0001F0083404809800000F1E020C0F88031E6
:103DD00030BD104A114001430D48001F016070477B
:103DE0000B4A121D0029116801D0014300E08143F4
:103DF000116070474FF0E0210428086903D020F0DB
:103E000004000861704740F00400FAE70000FA057A
:103E10000CED00E080FFFF1F7C4910B5884206D101
:103E20000121084600F058FA002101204FE07849AE
:103E3000884206D10121022000F04EFA0021022022
:103E400045E07449884206D10121042000F044FA7B
:103E5000002104203BE07049884206D1012108205E
:103E600000F03AFA0021082031E06C49884206D17E
:103E70000121102000F030FA0021102027E06849CD
:103E8000884206D10121202000F026FA00212020BE
:103E90001DE06449884206D10121402000F01CFA4F
:103EA0000021402013E06049884206D10121802092
:103EB00000F012FA0021802009E05C4988420AD112
:103EC00084150121204600F007FA00212046BDE8B4
:103ED000104000F001BA10BDF0B500230124032703
:103EE0000D6804FA03F21540954242D1D0F800C0A3
:103EF0005E0007FA06F52CEA050CC0F800C091F840
:103F000004C0D0F800E00CFA06FC4CEA0E0CC0F835
:103F100000C091F804C0BCF1010F02D0BCF1020F47
:103F20001FD1D0F808C02CEA050CC0F808C091F8E1
:103F300005C0D0F808E00CFA06FC4CEA0E0CC0F8FC
:103F400008C0D0F804C02CEA020CC0F804C04268D3
:103F500091F806C00CFA03FC1FFA8CFC42EA0C0232
:103F60004260C268AA43C260CA79C568B2402A43A7
:103F7000C2605B1C102BB3D3F0BD4FF6FF71016024
:103F80000021017141718171C171704708B541F41F
:103F900080320092C261C1610099C161C169C0698A
:103FA000009008BD0246002012690A4200D001209C
:103FB0007047006980B270470246002052690A4289
:103FC00000D001207047406980B27047018370477C
:103FD000418370470AB10183704741837047416153
:103FE000704742694A40426170474B07DB0E9A4076
:103FF000C90810B500EB8100016A0F249C40A14361
:104000000162016A1143016210BD0000000002401C
:104010000004024000080240000C02400010024070
:104020000014024000180240001C02400020024020
:10403000EA48016841F001010160E84A00210832C4
:1040400011600268E64B1A400260031DE54A1A60DF
:10405000026822F480220260E0480C300160704760
:10406000DE490022891C0A70087070470246002051
:10407000510901290CD002290CD0D84974310968A2
:1040800002F01F02012393400B4200D00120704731
:10409000D249F4E7D1497031F1E718B500204FF467
:1040A000A06400903120FFF7E1FF0099491C0091C6
:1040B000A14201D00028F5D03120FFF7D7FF00281A
:1040C00000D0012018BDC5490A6822F0F80242EA72
:1040D000C00008607047C44908607047BF490022AB
:1040E00070310A700A70012802D0042801D105201D
:1040F00008707047BD490860704741EA82115A084C
:1041000010B5BB4B029C03EB02421143014341EA51
:104110000460B249091D086010BDB34908667047C4
:10412000800140EA0170AD49843108607047AE49B2
:1041300088667047AC49C8647047A84A083213685B
:10414000084323F0EC63184310607047A34A083219
:104150001368084323F078431843106070479F4A60
:104160000832116821F003010143116070479B4838
:104170000830006800F00C007047984A0832116857
:1041800021F0F001014311607047944A0832116830
:1041900021F4E051014311607047904908310A68E9
:1041A00022F4604242EAC0000860704770B58B4A52
:1041B000083211688F4C11F00C0104D066100429EC
:1041C00003D0082903D004601BE0066019E083498E
:1041D000091D0B68C3F380550B6803F03F0315B14D
:1041E000B6FBF3F301E0B4FBF3F30C680968C4F326
:1041F00088146343C1F30141491C4900B3FBF1F149
:10420000016011680F2303EA11117B4B5C5C0168AC
:10421000E14041601468072505EA94241C5D21FAF9
:1042200004F48460126805EA52329A5CD140C1609D
:1042300070BDC0F30121032908D1684A0832116812
:1042400021F4F8136D49014019431160634970313D
:104250000A68C0F30B0002430A607047634944399F
:104260000860704761494039086070475E49C1F88D
:104270005C017047594A30320029116801D001436E
:1042800000E0814311607047544A343200291168BC
:1042900001D0014300E08143116070474F4A38323A
:1042A0000029116801D0014300E08143116070478B
:1042B0004A4A40320029116801D0014300E081439D
:1042C00011607047454A44320029116801D001430A
:1042D00000E0814311607047404A103200291168A4
:1042E00001D0014300E08143116070473B4A143222
:1042F0000029116801D0014300E08143116070473B
:10430000364A18320029116801D0014300E0814388
:1043100011607047314A20320029116801D00143F1
:1043200000E08143116070472C4A24320029116853
:1043300001D0014300E0814311607047274A5032A9
:104340000029116801D0014300E0814311607047EA
:10435000224A54320029116801D0014300E0814310
:10436000116070471D4A58320029116801D001437D
:1043700000E0814311607047184A603200291168DB
:1043800001D0014300E0814311607047134A643259
:104390000029116801D0014300E08143116070479A
:1043A0000E4A0D320029117801D0014300E081430B
:1043B0001170704709487430016841F080710160E4
:1043C00070470146054A00200C3212680A4200D0AC
:1043D0000120704701490E310870704700380240D3
:1043E000FFFFF6FE1030002400004742800E4742D7
:1043F0000000FFFF0024F40098010020FFFCFF0FE5
:1044000010B501210C022046FFF78EFF2046BDE8C3
:1044100010400021FFF788BF30B54268C84B0C79C7
:104420001A400B6842EA0422134343608268C54B7A
:104430004D791A40D1E9034323438C6844EA45048B
:10444000234313438360C26A097D22F47002491E2C
:10445000C9B242EA0151C16230BD0021016001715F
:1044600041718160C1600161012101757047B64BE6
:1044700010B5D3F80423B5490A40D0E9001421430C
:10448000D0E90240044321431143C3F8041310BD93
:104490000021016041608160C1607047002981682E
:1044A00002D041F0010101E021F00101816070477B
:1044B0004268A74B1A400A434260704741628262D9
:1044C0007047426822F01F020A43426070479E49CB
:1044D0000028D1F8040302D040F4000001E020F4E9
:1044E0000000C1F80403704797490028D1F804037D
:1044F00002D040F4800001E020F48000C1F8040301
:10450000704770B5072409290AD9C568A1F10A06C0
:1045100006EB4606B440A543B3401D43C56007E023
:10452000056901EB4106B440A543B3401D43056155
:104530001F23072A09D2446B521E02EB82029340CA
:104540009C4391400C43446370BD0D2A09D2046B17
:10455000D21F02EB820293409C4391400C430463C0
:1045600070BDC46A0D3A02EB820293409C439140B5
:104570000C43C46270BD816841F080418160704726
:10458000014600208968490200D5012070470029B2
:10459000816802D041F4806101E021F48061816092
:1045A00070470029816802D041F0020101E021F04A
:1045B0000201816070474268491E22F4604242EA6B
:1045C0004131416070470029416802D041F40061E7
:1045D00001E021F4006141607047C06C80B2704717
:1045E0005948D0F8080370470029816802D041F487
:1045F000807101E021F48071816070470029816839
:1046000002D041F4007101E021F400718160704733
:104610004D490028D1F8040302D040F4005001E0D5
:1046200020F40050C1F80403704770B5072409292D
:104630000AD9C568A1F10A0606EB4606B440A543AF
:10464000B3401D43C56007E0056901EB4106B44076
:10465000A543B3401D430561836BC3F30154121B93
:10466000921C02EB82041F22A2409343A1400B4301
:10467000836370BD826B491E22F4401242EA0151ED
:104680008163704708B508440090026008BD8268E5
:1046900022F470220A4382607047826822F440123A
:1046A0000A4382607047816841F4800181607047ED
:1046B000014600208968490200D501207047002981
:1046C000416802D041F4806101E021F480614160E1
:1046D00070470029416802D041F4805101E021F483
:1046E00080514160704708B5084428300090006848
:1046F00080B208BD01238B4041680AB1194300E034
:104700009943416070470246002012680A4200D077
:1047100001207047C9430160704730B50246002050
:1047200053680C0A01258D4011682B40214202D0AC
:10473000002B00D0012030BD6FEA112101607047CD
:10474000FFFEFFFCFDF7FFC000200140E030FCFF52
:10475000FFFD3FFF2DE9F043016821F001010160F9
:104760000021016041608160C160016121214161DE
:10477000B849B84A3D251039904202D18D60BDE854
:10478000F083B44A4FF474661832904201D18E60BF
:10479000F5E7B04A4FF474173032904201D18F6080
:1047A000EDE7AC4A4FF0746C4832904202D1C1F848
:1047B00008C0E4E7A74BA84A6033984201D1CA6019
:1047C000DDE7A44CA54B7834A04201D1CB60D6E7FD
:1047D000DFF88082A24C08F19008404501D1CC60FE
:1047E000CDE7DFF870824FF03D5908F1A808404549
:1047F00002D1C1F80C90C2E79A49DFF86882083903
:10480000404501D10D60BAE7964D1835A84201D157
:104810000E60B4E7934D3035A84201D10F60AEE78A
:10482000904D4835A84202D1C1F800C0A7E78D4D90
:104830008C496035091FA84201D10A609FE7894A67
:104840007832904201D10B6099E7864A90329042CB
:1048500001D10C6093E7834AA83290428FD1C1F80E
:1048600000908CE730B503687F4ACC6813400A6833
:104870002243D1E905452C432243CC6922430C6AEB
:1048800022434C6A22438C6A22434C6B22438C6B3A
:1048900022431A430260426922F00703D1E90B2444
:1048A00022431A4342610A6942604A688260896809
:1048B000C16030BD0021016041608160C160016163
:1048C00041618161C161016241628162C1620163D2
:1048D0004163816370470029016802D041F0010102
:1048E00001E021F00101016070470029016802D058
:1048F00041F4004101E021F40041016070470029CA
:10490000016802D041F0200101E021F020010160A6
:10491000704741607047406880B27047002A026863
:1049200002D042F4002201E022F400220260016180
:1049300070470029016802D041F4802101E021F490
:104940008021016070470AB101617047C160704702
:10495000014600200968090300D50120704701467F
:1049600000200968C90700D001207047406900F0A5
:104970003800704702463B4B00209A4202D2354A2B
:10498000103A01E0374A103A8B0001D5526800E036
:104990001268364B1A400A4200D001207047314A53
:1049A000904202D22B48103801E02E4810382F4A8E
:1049B0008B0001EA020101D5C16070478160704738
:1049C0000B0607D5436912B143F0800301E023F0E1
:1049D00080034361802908D0002A026801F01E018B
:1049E00001D00A4300E08A430260704730B51D4A97
:1049F0000024904202D2174B103B01E0194B103BB0
:104A00001B4A114205D01E2202EAD12502682A4023
:104A100002E0406900F08002880001D5586800E09B
:104A20001868124B1840084201D002B101242046F8
:104A300030BD0C4A904202D20648103801E00948C5
:104A400010380A4A8B0001EA020101D5C1607047A3
:104A500081607047106002403D000020400F002040
:104A600000003D20106402403F801CF07D0F7D0F50
:104A70003C0F3C0F374900200860091D0860091DE4
:104A80000860091D086033493348143108607047D5
:104A900030B530498379026853B30B6893430B6098
:104AA0000A1D13680468A343136002790A4413685B
:104AB000046823431360274A083213680468A34339
:104AC0001360131D1C680568AC431C604479102CEE
:104AD00005D021440A68006802430A6030BD1168AD
:104AE000046821431160196800680143196030BDF2
:104AF0000079084401689143016030BD00210160E4
:104B000001710C22427181717047124910310A689B
:104B100002430A60704701460E4A002014321268B0
:104B20000A4200D0012070470A49143108607047DA
:104B3000084A014600201268064B0A4014331B68DD
:104B40000B4202D0002A00D00120704701491431E5
:104B500008607047003C0140FFFF7F00FE4910B530
:104B6000884206D101210846FFF7DEFB0021012023
:104B70005BE0B0F1804F09D0F84988420DD10121A6
:104B80000220FFF7C7FB0021022070E00121084648
:104B9000FFF7C0FB0021012069E0F149884206D1FE
:104BA00001210420FFF7B6FB002104205FE0ED495E
:104BB000884206D101210820FFF7ACFB0021082024
:104BC00055E0E949884206D101211020FFF7A2FBF8
:104BD000002110204BE0E549884206D10121202028
:104BE000FFF798FB0021202041E0E149884206D1EF
:104BF00001210220FFF798FB0021022015E0DD498A
:104C0000884202D101210C040AE0DB49884202D12A
:104C100001214C0404E0D94988420AD101218C04C5
:104C20002046FFF781FB00212046BDE81040FFF73A
:104C30007BBBD349884206D101214020FFF76AFBA4
:104C40000021402013E0CF49884206D10121802075
:104C5000FFF760FB0021802009E0CB4988420AD1A0
:104C6000841501212046FFF755FB00212046BDE8B1
:104C70001040FFF74FBB10BD30B50288B64BBC4C9F
:104C800098420DD0A0420BD0B0F1804F08D0B34D68
:104C9000A84205D0B24DA84202D0B24DA84203D1DD
:104CA00022F070054A882A43AF4DA84206D0AF4D86
:104CB000A84203D022F440750A892A4302804A6838
:104CC000C2620A880285984201D0A04201D1897A45
:104CD00001860121818230BD4FF0FF31416000210A
:104CE0000180018141808172704701858282704715
:104CF000028822F070020A430280704741627047C6
:104D0000C1627047406A7047008D70470029018872
:104D100002D041F0020101E021F002010180704760
:104D20000029018802D041F0040101E021F00401D2
:104D3000018070470029018802D041F0800101E024
:104D400021F0800101807047028822F00802028071
:104D500002880A4302807047028822F4407202806F
:104D600002880A43028070470029018802D041F07E
:104D7000010101E021F001010180704730B5028C92
:104D800022F001020284028C8388048B22F002024A
:104D900024F073050C882C438D8915434A882A43D7
:104DA0006D4DA84202D0724DA8420DD122F00805E7
:104DB000CA8923F440732A4322F004058A882A43CF
:104DC0000D8A1D434B8A2B4383800483896841638A
:104DD000028430BD70B5028C22F010020284028C75
:104DE0008488038B0D8823F4E6464FF6FF7303EAAD
:104DF000052535438E8922F0200203EA0616164364
:104E00004A8803EA02123243534EB04202D0584E4F
:104E1000B04215D122F08006CA8924F4406403EA26
:104E20000212324322F040068A8803EA0212324319
:104E30000E8A03EA860626434C8A03EA8404344336
:104E40008480058389688163028470BD70B5028C9B
:104E500022F480720284028C8488838B0D8823F074
:104E600073031D4322F400738E894FF6FF7202EA2A
:104E700006261E434B8802EA03233343364EB042D4
:104E800002D03B4EB04215D123F40066CB8924F406
:104E9000405402EA0323334323F480668B8802EAFA
:104EA000032333430E8A02EA061626434C8A02EA9B
:104EB00004143443848085838968C163038470BD8E
:104EC00070B5028C22F480520284048C8288838B19
:104ED0000D8823F4E6464FF6FF7303EA05253543B4
:104EE00024F400568C8903EA043434434E8803EAE0
:104EF00006362643184CA04202D01D4CA04205D1D4
:104F000022F480440A8A03EA821222438280858343
:104F100089680164068470BD002101804180818020
:104F200081608181C18101824182704730B5012455
:104F3000058C00F118038C40A543058431B3082982
:104F40002CD0091FC1F34E001844016848F6FF73C6
:104F50001940016001681AE00000014000040040AF
:104F600000080040000C0040001000400014004009
:104F7000000401400040014000440140004801405D
:104F800000180040001C00400020004006E04FF6E2
:104F9000FF7303EA02221143016030BD03EB5100AD
:104FA00001684FF68F73194001600168F3E74163B0
:104FB000704781637047C163704701647047028B1B
:104FC00022F070020A4302837047028B4FF6FF7390
:104FD00022F4E04203EA0121114301837047828BEE
:104FE00022F070020A4382837047828B4FF6FF7370
:104FF00022F4E04203EA0121114381837047028BCE
:1050000022F008020A4302837047028B4FF6FF73B7
:1050100022F4006203EA0121114301837047828B6D
:1050200022F008020A4382837047828B4FF6FF7397
:1050300022F4006203EA0121114381837047028B4D
:1050400022F004020A4302837047028B4FF6FF737B
:1050500022F4806203EA0121114301837047828BAD
:1050600022F004020A4382837047828B4FF6FF735B
:1050700022F4806203EA0121114381837047028B8D
:1050800022F080020A4302837047028B4FF6FF73BF
:10509000C2F30E0203EA0121114301837047828BA0
:1050A00022F080020A4382837047828B4FF6FF739F
:1050B000C2F30E0203EA0121114381837047028C7F
:1050C00022F002020A4302847047028C22F0080296
:1050D0000A4302847047028C4FF6FF7322F02002CD
:1050E00003EA0111114301847047028C4FF6FF73EC
:1050F00022F0800203EA0111114301847047028CFF
:105100004FF6FF7322F4007203EA01211143018478
:105110007047028C4FF6FF7322F4006203EA01210C
:10512000114301847047028C4FF6FF7322F4005242
:1051300003EA013111430184704710B50123048C47
:105140008B409C430484038C8A401343038410BD2A
:1051500010B50423048C8B409C430484038C8A4048
:105160001343038410BD828B22F440628283828BBE
:105170004FF6FF7303EA01210A4382837047828B53
:1051800022F00C028283828B0A4382837047028B57
:1051900022F440620283028B4FF6FF7303EA01217F
:1051A0000A4302837047F0B5048C24F01004048491
:1051B000078B068C4FF6FF7404EA011527F473473A
:1051C00004EA0331394304EA02220A4326F0A0012B
:1051D000294341F0100102830184F0BD028B22F0CB
:1051E0000C020283028B0A43028370472DE9F041CF
:1051F0000D460E884988AA882B8904460EB3042ED2
:1052000026D0082E268C4FF6FF7028D026F4805624
:105210002684A78B268C00EA022200EA013127F4BB
:1052200073473A4300EA0330104326F420420A430E
:1052300042F48051A0832184E9882046BDE8F041F2
:1052400091E700F062F9E9882046BDE8F041C5E742
:10525000FFF7A9FFE9882046BDE8F04197E726F46B
:1052600080762684A78B268C00EA012100EA0310B1
:10527000104327F0F307384326F420620A4342F430
:105280008071A0832184E9882046BDE8F04176E75B
:1052900000210180418001228280C180018170470C
:1052A0002DE9F0410C46002649880746012501B941
:1052B0000226A288012A00D10225208823890028FD
:1052C000384610D0FFF76FFFE1883846FFF75FFFE1
:1052D00023892A463146384600F017F9E1883846D6
:1052E000BDE8F0417AE700F010F9E1883846FFF7B1
:1052F00075FF23892A4631463846FFF754FFE18877
:105300003846BDE8F04142E7406B7047806B70471C
:10531000C06B7047006C704710B50A884B88CC880A
:105320001A438B8823431A430B891A434B89898973
:105330001A430A43A0F8442010BD00210180418097
:105340008180C1800181418181817047002930F8CD
:10535000441F02D041F4004101E0C1F30E0101807D
:1053600070470029818802D041F0040101E021F05A
:105370000401818070470029818802D041F0010139
:1053800001E021F0010181807047002A828901D06B
:105390000A4300E08A438281704781827047024657
:1053A0000020128A0A4200D001207047C9430182BE
:1053B000704702460020138A92890B4202EA0102DA
:1053C00002D0002A00D001207047C94301827047F3
:1053D0001143A0F848107047002A828901D00A437F
:1053E00000E08A43828170470029818802D041F021
:1053F000080101E021F0080181807047018921F056
:10540000070101817047028922F070020A4302817C
:10541000704700B50346FFF7F6FF188940F0070014
:10542000188100BD70B516460D46602904464FF040
:10543000010231460AD000F068F829462046FFF7FD
:10544000E2FF208940F00700208170BDFFF7ABFE2E
:10545000F3E730B504894FF6FF7505EA03231343DC
:10546000E4B20B432343038130BD10B50446FFF77C
:10547000F0FF208940F07700208110BD10B5044670
:10548000FFF7E7FF208940F48040208110BD82882B
:1054900022F07002828082880A43828070470289EB
:1054A00022F00702028102890A43028170470289C1
:1054B00022F08002028102890A430281704770B59E
:1054C0000589048B068C25F007050D434FF6FC413A
:1054D0000C4040F201110C434FF6FF7101EA031139
:1054E00026F022061143314305810483018470BDF7
:1054F0000029818802D041F0800101E021F0800183
:1055000081807047A0F85010704770B5048C24F06B
:1055100001040484058B048C4FF6FF7606EA03131E
:10552000134325F0F3052B4324F00A020A4342F00B
:1055300001010383018470BDC74910B5884206D1BB
:1055400001211020FEF7F0FE0021102028E0C349C1
:10555000884202D101214C0410E0C149884202D1A5
:1055600001218C040AE0BF49884202D10121CC0408
:1055700004E0BD4988420AD101210C052046FEF70E
:10558000C9FE2046BDE810400021FEF7C3BEB74962
:10559000884209D101212020FEF7C6FE00212020EB
:1055A000BDE81040FEF7C0BE10BD7FB50446008ABE
:1055B0000D4620F44051E88808432082A08941F23A
:1055C0000C618843A9882A8911436A8902431143DF
:1055D000A181A08A20F44071A8890843A08268466E
:1055E000FEF7E4FD9C48844202D0A048844201D1E9
:1055F000039800E00298A189090400EBC00101EBC7
:105600000010296801D5490000E08900B0FBF1F2E3
:105610006420B2FBF0F109010B096FF018056B4330
:1056200002EB8302A3891D044FF0320306D503EB7E
:10563000C202B2FBF0F000F0070005E003EB02123B
:10564000B2FBF0F000F00F00084320817FBD4FF463
:105650001651016000218180C18001810C224281AC
:105660008181704710B5028A4C8822F470630A88E1
:1056700022438C88C9880C4322431A43028210BDFE
:105680000021018041808180C1807047002981898B
:1056900002D041F4005101E021F4005181817047B2
:1056A000028B02F47F420283028B0A43028370471B
:1056B0000029818902D041F4004101E0C1F30E01CB
:1056C000818170470029818A02D041F4006101E0A4
:1056D00021F4006181827047C1F308018180704725
:1056E0008088C0F308007047028A22F00F0202820D
:1056F000028A0A43028270470029818902D041F060
:10570000020101E021F0020181817047828922F4C7
:105710000062828182890A4382817047028A22F074
:1057200020020282028A0A43028270470029018A0B
:1057300002D041F4804101E021F4804101827047B0
:10574000818941F00101818170470029818A02D05D
:1057500041F0080101E021F0080181827047028BCD
:10576000D2B20283028B42EA0121018370470029F1
:10577000818A02D041F0200101E021F020018182E4
:1057800070470029818A02D041F0100101E021F028
:10579000100181827047828A22F004028282828A0A
:1057A0000A43828270470029818A02D041F00201B7
:1057B00001E021F0020181827047002A828A01D033
:1057C0000A4300E08A438282704710B5C1F3421356
:1057D00001F01F040121A140012B07D0022B07D0AB
:1057E0001430002A026805D00A4304E00C30F8E7C0
:1057F0001030F6E78A43026010BD0246002012888E
:105800000A4200D001207047C9430180704730B57B
:1058100001F01F0201240025C1F3421304FA02F231
:10582000012B0FD0022B0FD0838A4FEA1121008861
:10583000134204FA01F400EA040001D000B101258A
:10584000284630BD8389F0E7038AEEE70A0A012182
:105850009140C9430180704700100140004400405E
:1058600000480040004C004000500040001401403F
:1058700010B501218C032046FEF756FD2046BDE8F9
:1058800010400021FEF750BD13490860704710B565
:105890008A0721F003041149130F21440F22D1F884
:1058A00008489A409443C1F80848D1F8082898401D
:1058B0000243C1F8082810BD0949C1F8DC0070474F
:1058C0000849086070470449002020310968C9056B
:1058D00000D5012070470000003801400030014031
:1058E000000027420004274200F108014FF0FF3278
:1058F000C0E90112C160016100210160704700210F
:1059000001617047426853684B6043688B6053681D
:1059100099605160416008610168491C01607047ED
:1059200010B50B685A1C02D000F1080202E00269AF
:1059300004E05268546824689C42FAD953684B606A
:1059400099608A60516008610168491C016010BD5E
:10595000D0E901128A60D0E90112516001694A68F8
:10596000824201D182684A60002202610868401EBA
:10597000086008687047000070B50D4604001FD02D
:1059800000F0EBFCD4E90F21206802FB0103636007
:105990000023A363521EA06002FB0100E060581EBA
:1059A0006064A06404F110006DB1FFF79DFF04F185
:1059B0002400FFF799FF00BF00F0D7FC012070BD65
:1059C000FAF736FCFEE721690029F5D001F07BF9F2
:1059D0000128F1D100F0BBFCEEE72DE9F0411746BC
:1059E0000E46050019D0502000F0DEFC040014D053
:1059F00005FB06F0401C00F0D7FC206050B1C4E964
:105A00000F5601212046FFF7B7FF84F84D7020465E
:105A1000BDE8F081204600F01CFDFAF709FCFEE726
:105A200070B5044600F099FC04F124050AE0606AB0
:105A300058B1284601F047F908B101F0BFF9A06C50
:105A4000401EA064A06C0028F1DC4FF0FF36A66475
:105A500000F08BFC00F081FC04F110050AE02069E5
:105A600058B1284601F02FF908B101F0A7F9606C90
:105A7000401E6064606C0028F1DC6664BDE8704024
:105A800000F073BC10B51346026C04468AB1CBB16A
:105A9000E06801F039FAE168206C091AE1602268D7
:105AA000914202D26168081AE060A06B401CA063BA
:105AB00010BD20680028F8D1606801F0C7F9002007
:105AC0006060F2E7A06801F01FFA216CA06808444A
:105AD000A06061688842E8D32068A060E5E72DE90E
