:020000040800F2
:100000009830002005450008450200084702000816
:10001000490200084B0200084D02000800000000E1
:100020000000000000000000000000009D0100082A
:100030004F02000800000000E10100083B6B0008CF
:100040001F4500081F4500081F4500081F45000800
:100050001F4500081F4500081F4500081F450008F0
:1000600017040008630400081F4500080103000886
:10007000C30200084D0300081F4500087502000870
:100080001F4500087D0200081F4500081F450008A5
:100090001F4500081F4500081F4500081F450008B0
:1000A0001F45000871030008910300081F45000860
:1000B00093030008B3030008D30300081F4500089A
:1000C0001F4500081F4500081F45000813040008CD
:1000D0001F450008550200081F4500081F4500087D
:1000E0001F4500081F4500081F4500081F45000860
:1000F0001F4500081F4500081F450008230300088E
:100100001F4500081F450008F303000815040008F8
:100110001F4500081F450008570300085F0300083B
:100120001F4500081F4500089F0200081F450008E2
:100130001F4500081F4500081F4500081F4500080F
:100140001F4500081F4500081F4500081F450008FF
:10015000B90200081F4500081F4500081F45000898
:100160001F4500081F4500081F4500081F450008DF
:100170001F4500081F4500081F4500081F450008CF
:100180001F4500081F450008DFF80CD007F072FD7E
:1001900000480047F342000898300020234B1968BC
:1001A0000868B0E8F04F80F309884FF0000080F352
:1001B000118870470000000003480068006880F361
:1001C000088862B600DF00BF08ED00E0DFF80C0031
:1001D000016841F470010160704700BF88ED00E0E4
:1001E000EFF30980114B1A681EF0100F08BF20EDC5
:1001F000108A20E9F04F106008B54FF0140080F32A
:10020000118806F070FF4FF0000080F31188BDE800
:10021000084019680868B0E8F04F1EF0100F08BFDA
:10022000B0EC108A80F30988704700BFDC01002021
:10023000EFF311804FF0140181F31188704780F3C0
:10024000118870477047FEE7FEE7FEE7FEE770475C
:100250007047704710B5834C40F22551204605F099
:10026000B6FE002805D02046BDE81040202105F04C
:10027000ABBE10BD7C497D4804F0BBBF70B57B4D63
:100280007B4C30352146284604F090FF002805D0ED
:1002900021462846BDE8704004F0ABBF70BD10B5E4
:1002A0007449754804F0A5FF74484178007841EA24
:1002B00000207349088010BD6F487249483004F02F
:1002C00098BF70B5694D704C483D2146284604F0F2
:1002D0006DFF002813D02146284604F08AFF6B48A2
:1002E00001F057FE00280AD1694C0021204605F094
:1002F000ADFD2046BDE87040012105F0A7BD70BDF1
:1003000070B55A4D634C603D2146284604F04EFFBF
:10031000002805D021462846BDE8704004F069BF9A
:1003200070BD70B5514C5C4D48342946204604F0F0
:100330003DFF002809D00021204604F0ACFE2946EC
:100340002046BDE8704004F054BF70BD47484649A0
:10035000303804F04EBF0121504805F016BC10B5EE
:1003600001214F4805F011FC3E497A20888010BDDC
:1003700010B54C4C0121204605F007FC2088C10631
:100380004948016801D5491E00E0491C016010BDC3
:10039000704710B501218C07204605F0F6FB208838
:1003A000C1064248016801D5491E00E0491C0160B0
:1003B00010BD10B53E4C0121204605F0E6FB20881B
:1003C000C1063C48016801D5491E00E0491C016096
:1003D00010BD10B5384C0121204605F0D6FB208811
:1003E000C1063648016801D5491E00E0491C01607C
:1003F00010BD10B5324C0121204605F0C6FB208807
:10040000C1063048016801D5491E00E0491C016061
:1004100010BD7047704770B5042004F069FF0028D4
:100420001ED02021284804F0BCF9284D042128467C
:1004300004F098F91A4C012805D00421284604F04C
:1004400091F928B109E00021204605F037F804E0D1
:10045000204605F037F81E4908601E490420086050
:1004600070BD704700100140208000207060024085
:1004700000802020008020104064024014030020EF
:1004800008000020008800200088001032030020AF
:10049000004800402080001000800028001000402C
:1004A00000140040000001400C000020100000205B
:1004B00000040040140000200008004080010020DB
:1004C000000C00408401002000000240000C0240AB
:1004D00088010020143C014070B50546002407F057
:1004E0002FF9FE4902E02A5D0A55641C8442FADBBA
:1004F000BDE870400121FA4804F0CDBD70B5F94D5A
:1005000006460024315D00290BD0284605F0C4FCC6
:100510008021284605F051FD0028F9D0641CE4B282
:10052000F0E770BD70B5EF4E05460024002D0DD0EC
:100530002946304605F0B0FC8021304605F03DFDEF
:100540000028F9D0641CE4B2032CEFD370BD73B55E
:100550000C460020FFF7E6FFE3A0FFF7CFFFDF48E0
:100560002246E2A1823807F0FFFBDC488238FFF721
:10057000C5FFDFA0FFF7C2FFDFA0FFF7BFFFD7482F
:10058000DAA18238009A07F0EFFBD44E0024D54D53
:10059000823E2846315D05F07FFC4021284605F06B
:1005A0000CFD0028F9D0641C142CF2DBD2A0FFF75C
:1005B000A5FFFF20FFF7B6FFFF20FFF7B3FFBDE861
:1005C0007C40FF20AEE770B505460C46C6A0FFF79D
:1005D00095FFC2482246C5A1823807F0C5FBBF4837
:1005E0008238FFF78BFFC5A0FFF788FF2846FFF78B
:1005F00085FFC1A0FFF782FFBDE87040FF2091E7B3
:1006000077B5BEA185B00646D1E90001CDE900016C
:10061000B9A0002200680390B3A0B04D0068283D47
:10062000A5F128030290AD4C1146A3F13200A95464
:1006300099548154A154521CD2B21E2AF7D30A21D4
:100640000170FF2444708470C470A448A7A150387E
:10065000079A07F089FBA14902A8503907F058F81A
:100660009E4802A9823807F053F89C4869468238B0
:1006700007F04EF899483146823807F049F8974814
:100680009AA15038069A07F06FFB94495039A1F1AE
:10069000320007F03DF8914803A9823807F038F896
:1006A0008E492C706C702839AC70A1F15A0007F09B
:1006B0002FF88A488238FFF70FFF08B070BD2DE988
:1006C000F74188468DA185B00646D1E90001CDE904
:1006D000000189A000220068039083A07F4D00687C
:1006E000283DA5F1280102901446A1F13200AC5436
:1006F0008C548454521CD2B20A2AF8D30A210170B5
:10070000FF2747708770C770744878A15038079AE0
:1007100007F02AFB714902A8503906F0F9FF6F482B
:1007200002A9823806F0F4FF6C486946823806F068
:10073000EFFF6A483146823806F0EAFF67484146D3
:10074000823806F0E5FF654803A9823806F0E0FF2D
:100750002F706F706149AF70EC7028392C71A1F166
:100760005A0006F0D5FF5D488238FFF7B5FE08B0A5
:10077000BDE8F08170B50020FFF7D4FE5AA0FFF766
:10078000BDFE56480D2259A1823807F0EDFA5348B4
:100790008238FFF7B3FE59A0FFF7B0FE594C202175
:1007A000204603F0DFFF02464C4850A1823807F094
:1007B000DBFA4A488238FFF7A1FE1021204603F0F9
:1007C000D1FF0246454849A1823807F0CDFA434897
:1007D0008238FFF793FE4C4D8021284603F0C2FF7C
:1007E00002463E4841A1823807F0BEFA3B488238B3
:1007F000FFF784FE4021284603F0B4FF0246374845
:100800003AA1823807F0B0FA34488238FFF776FE12
:100810004FF40041204603F0A5FF02462F4833A1C4
:10082000823807F0A1FA2D488238FFF767FE4FF4AF
:100830008041204603F096FF024628482BA18238CB
:1008400007F092FA25488238FFF758FE4FF400511E
:10085000204603F087FF0246204824A1823807F093
:1008600083FA1E488238FFF749FE4021274803F0EB
:1008700079FF024619481DA1823807F075FA17481A
:100880008238FFF73BFE1CA0FFF738FEFF20FFF782
:1008900049FEFF20FFF746FEBDE87040FF2041E61D
:1008A000FEB51BA10646D1E90001CDE900011AA061
:1008B00000210A4D0068283DA5F1280202900C464F
:1008C000A2F132006C5454544454491CC9B2322928
:1008D000F8D30A210170FF2747701FE0D2020020E1
:1008E000B860024000500040740000002564000021
:1008F0002E7478743D000000220000002E7478747D
:100900003D220000000802400000024000100240AA
:100910002E76616C3D0000006A0000008770C77091
:100920000022AFF23801FE4807F01EFAFC4902A887
:1009300006F0EEFEFA4802A9323806F0E9FEF84861
:100940006946323806F0E4FE3246AFF26001F44800
:1009500007F00AFAF249A1F1320006F0D9FE2F7031
:100960006F70EF49AF70EC7028312C71A1F15A0013
:1009700006F0CEFEEA483238FFF7AEFDFEBD70B598
:100980000D46044606F08EFE291B491C90FBF1F231
:1009900001FB1200204470BD2DE9FC41E14F3846B7
:1009A00004F090FDE04D6969642640EA014090FB47
:1009B000F6F000240190384604F084FD696940EAAD
:1009C000014090FBF6F001990090401A00D540429A
:1009D000322800DA641C00980190022CEBDB0098AE
:1009E000002800DA4042BDE8FC812DE9FC41CF4FF0
:1009F000384604F067FDCC4DE968642640EA0140C2
:100A000090FBF6F000240190384604F05BFDE968A5
:100A100040EA014090FBF6F001990090401A00D5A1
:100A20004042322800DA641C00980190022CEBDB73
:100A300000980028D7DA4042D5E72DE9FC414FF075
:100A40008047384604F03EFDB74D2969642640EAE8
:100A5000014090FBF6F000240190384604F032FD8E
:100A6000296940EA014090FBF6F001990090401A94
:100A700000D54042322800DA641C00980190022C14
:100A8000EBDB00980028AEDA4042ACE770B5FFF728
:100A900083FF0546FFF7D1FF0446FFF7A6FF002DB1
:100AA00000DA6D42002800DA40422844002C00DAC7
:100AB0006442204470BD01B581B0019800EBC000D4
:100AC00040000090002801D0401EFAE70CBD01B59F
:100AD00081B044F25061019848430090002801D051
:100AE000401EFAE70CBD2DE9FC4101211F2003F057
:100AF000A1FF01248DF8044000268DF806604FF612
:100B0000FF758DF80740032700958DF8057069463D
:100B1000874803F0C1FD8DF804408DF806608DF81C
:100B2000074000958DF805706946824803F0B4FDD2
:100B30008DF804408DF806608DF8074000958DF81B
:100B4000057069467C4803F0A7FD4CE77CB50121A0
:100B50007E2003F06FFF0024FC208DF80440012567
:100B600000908DF8075002268DF80560694673489D
:100B700003F092FD48F206008DF8044000908DF8D5
:100B800007508DF805606946694803F085FD46F613
:100B9000C4408DF8044000908DF807508DF8056032
:100BA0006946644803F078FD03208DF80440009006
:100BB0008DF807508DF8056069465F4803F06CFDBD
:100BC0004FF2FF508DF8044000908DF807508DF8DB
:100BD000056069465A4803F05FFD7CBD1FB54FF4C0
:100BE000E06003F0A1FC36208DF80C0000248DF8A5
:100BF0000D408DF80E4001208DF80F0003A803F082
:100C000098FC0121102003F033FF3220ADF80000E2
:100C1000ADF80840ADF8024040F2E730494C019091
:100C20006946204604F008FC0121204604F0ADFF8F
:100C300001221146204604F088FF0021204604F0DE
:100C40003DFC0121204604F06FFC1FBD1FB54FF491
:100C5000E06003F069FC37208DF80C0000248DF86B
:100C60000D408DF80E4001208DF80F0003A803F011
:100C700060FC0121202003F0FBFE4FF4FA70ADF878
:100C80000000ADF80840ADF8024040F2E7302E4CCD
:100C900001906946204604F0CFFB0121204604F074
:100CA00074FF01221146204604F04FFF0021204628
:100CB00004F004FC0121204604F036FC1FBD70B591
:100CC0008AB00121022003F0DDFE01210C2003F097
:100CD000B1FE184E03220621304603F066FD0322C2
:100CE0000721304603F061FD03220821304603F05E
:100CF0005CFD03220921304603F057FD4FF470706C
:100D0000059002208DF8180003208DF819000024AA
:100D10008DF81A4001258DF81B5005A9304615E0C5
:100D2000820200200004004000000020000001407A
:100D30000004024000080240000C02400000024093
:100D400000100240001000400014004003F0A4FC1A
:100D5000A420ADF81C0028020890ADF82400ADF8DE
:100D60001E4007A9FE4E304604F066FB6020ADF839
:100D70000000ADF802500294ADF80C40012130465D
:100D800004F0D2FB0021304604F098FB694630465F
:100D900004F0D4FB6946304604F0FCFB694630465B
:100DA00004F034FC6946304604F06AFC0121304608
:100DB00004F0ACFE0AB070BD70B58AB00121042009
:100DC00003F056FE01210D2003F034FEE54E022211
:100DD0000C21304603F0E9FC02220D21304603F0DD
:100DE000E4FC02220E21304603F0DFFC02220F2138
:100DF000304603F0DAFC4FF47040059002208DF885
:100E0000180003208DF8190000248DF81A400125E0
:100E10008DF81B5005A9304603F03EFCA420ADF828
:100E20001C002802D04E0890ADF82400ADF81E40FA
:100E300007A9304604F000FB7020ADF80000ADF8C3
:100E400002500294ADF80C400121304604F06CFBD6
:100E50000021304604F032FB6946304604F06EFB58
:100E60006946304604F096FB6946304604F0CEFBF6
:100E70006946304604F004FC9CE730B5012187B098
:100E8000080403F0FFFD0121084603F0D3FD002410
:100E90004FF6FF70B54DADF800400190ADF8084039
:100EA000ADF802406946284604F0C6FA0420ADF8C1
:100EB0000C00C820ADF814000120ADF81000ADF80A
:100EC0000E4003A9284604F071FDA94C00231A46E0
:100ED0000321204604F0D3FE0121204604F055FEF4
:100EE00001221146204604F030FE0121284604F07C
:100EF0001BFB0021204604F0E1FA07B030BD2DE9CC
:100F0000F04701218AB0084603F0B2FD012102201A
:100F100003F0AEFD0121032003F08CFDDFF85492B5
:100F200001220F21484603F040FCDFF84C820122E9
:100F30000321404603F039FC02220421404603F01D
:100F400034FC02220521404603F02FFC02268DF8D6
:100F50000460032738208DF80570002400908DF878
:100F6000064001258DF807506946404603F094FB82
:100F70008DF80460E8038DF8057000908DF8064048
:100F80008DF807506946484603F086FB4FF6FF7020
:100F9000ADF80C4004904FF08049ADF81440ADF826
:100FA0000E4003A9484604F047FADFF8D0A103A990
:100FB000504604F041FA4FF004081420ADF81880B0
:100FC000ADF82000ADF81A60ADF81C5006A94846EF
:100FD00004F0ECFC06A9504604F0E8FC02231A4693
:100FE0000321484604F04BFE02231A4603215046D3
:100FF00004F045FE0121484604F0C7FD012150469A
:1010000004F0C3FD01221146484604F09EFD012272
:101010001146504604F099FD0121484604F084FA37
:101020000121504604F080FA0021484604F046FAB7
:101030000021504604F042FA780203F075FA1D20B0
:101040008DF808008DF809708DF80A408DF80B5066
:1010500002A803F06EFA1C208DF808008DF80980B4
:101060008DF80A408DF80B5002A803F062FA0AB01E
:10107000BDE8F08770B501218AB0084603F002FD93
:101080000121102003F0D6FC4FF4206000900220D4
:101090008DF8040003208DF805000024384E8DF8EB
:1010A000064001258DF807506946304603F0F4FAF2
:1010B00001220921304603F078FB01220B21304642
:1010C00003F073FB4FF6FF70284EADF80840039015
:1010D000ADF81040ADF80A4002A9304604F0ACF972
:1010E0000420ADF814000A20ADF81C00ADF816403D
:1010F000ADF8185005A9304604F058FC00231A46F4
:101100000321304604F0BBFD0121304604F03DFDD3
:1011100001221146304604F018FD0121304604F04A
:1011200034FD01221146304604F00FFD0121304606
:1011300004F0FAF90021304604F0C0F94FF4C06021
:1011400003F0F2F919208DF820008DF821508DF868
:1011500022408DF8235008A803F0EBF92AE600009E
:1011600000040140000C0240000800400000014063
:101170000040014000000240000402400004004022
:1011800000100240F0B59BB00121FE4803F052FC74
:1011900001210D02284603F075FCFB480024CDE92F
:1011A0000040FA4802A9082681E85100A800CDE9CC
:1011B0000540400007908000CDE908050AA900011C
:1011C000012581E83100F24F0D94694638460E94AE
:1011D00003F028FF0121384603F05DFF3C20199001
:1011E00003208DF868008DF86B4019A9E94803F0D9
:1011F00053FA4FF44030CDE915404FF47060CDE91B
:10120000174015A803F013FD1194129413942806A7
:10121000DD4C0F908DF840504C3C8DF841508DF8CE
:1012200050600FA9204603F0D7FC042301220221BD
:10123000204603F046FD042302220321204603F04A
:1012400040FD042303221946204603F03AFD0423FF
:101250001A460521204603F034FD042305220C2103
:10126000204603F02EFD042306220D21204603F024
:1012700028FD042307220E21204603F022FD04232B
:1012800008220F21204603F01CFD0121204603F017
:1012900095FD0121204603F087FD0121204603F042
:1012A000DDFC204603F047FD1BB0F0BD08B54FF450
:1012B000E06003F039F925208DF8000000208DF85A
:1012C00001008DF8020001208DF80300684603F04C
:1012D00030F908BD70B5054696B00121102003F025
:1012E000D1FB0121084603F0A5FB0121880503F08D
:1012F000A1FB4FF4C060139002208DF85000002431
:101300008DF852408DF85340A34E8DF8510013A92B
:10131000304603F0C1F907220921304603F045FAAF
:1013200007220A21304603F040FA0F95ADF84440F9
:101330000C209A4DADF84040ADF84600ADF8424063
:10134000ADF848400FA9284604F00FFD01212846BA
:1013500004F07CFD4FF4A06003F0E6F83A208DF82D
:1013600054008DF855408DF8564001208DF85700F7
:1013700015A803F0DEF8864E3036304603F0CAFD7D
:101380004FF000600090814869461030CDE90204BA
:101390000A200490281D01900015CDE90540801019
:1013A000CDE9084040020A9004200B9007940320E6
:1013B000CDE90C0430460E9403F034FE01224021A6
:1013C000284604F0DAFD01221021304603F0D8FE51
:1013D0000121304603F05FFE16B070BDF0B5064641
:1013E000012197B0480503F025FB01214D04284653
:1013F00003F03EFB0121082003F01CFB602013904A
:1014000002208DF8500000248DF852408DF8534092
:10141000634F8DF8510013A9384603F03DF90722B8
:101420000521384603F0C1F907220621384603F0AA
:10143000BCF90F96ADF844400C205A4EADF8404030
:10144000ADF84600ADF84240ADF848400FA930462F
:1014500004F08BFC0121304604F0F8FC4FF4A0604E
:1014600003F062F811208DF854008DF855408DF886
:10147000564001208DF8570015A803F05AF84A4F3E
:10148000384603F047FDA8020090402003904748EB
:1014900002903C200490301D01900015CDE90540DC
:1014A0008010CDE908400420CDE90A5007940320BC
:1014B000CDE90C04694638460E9403F0B3FD0122D1
:1014C0008021304604F059FD01228021304604F08D
:1014D00054FD01221021384603F052FE0121384606
:1014E00003F0D9FD17B0F0BD70B50546012196B0E7
:1014F000880403F0BDFA0121082003F09BFA0121C2
:10150000480503F097FA4FF44070139002208DF8CD
:10151000500000248DF852408DF85340204E8DF835
:10152000510013A9304603F0B7F8072208213046CE
:1015300003F03BF907220921304603F036F90F95F5
:101540001B4EADF84040ADF844400C25ADF842408C
:10155000ADF84840ADF846500FA9304604F005FC00
:101560000121304604F072FC4FF4A06002F0DCFF71
:101570008DF854508DF855408DF8564001208DF867
:10158000570017E0050040004C20014004030020F4
:1015900010640240000802400000024000100140B8
:1015A000000C024000440040A06002400401002002
:1015B0000048004015A802F0BCFFFB4D284603F090
:1015C000A9FC4FF000600090F848CDE90204082023
:1015D0000490301D01900015CDE905408010CDE943
:1015E000084040020A9004200B9007940320CDE9A4
:1015F0000C04694628460E9403F014FD0122402194
:10160000304604F0BAFC01224021304604F0B5FC1B
:1016100001221021284603F0B3FD0121284603F0E2
:101620003AFDD9E6F0B50646012197B0C80403F0AB
:101630001FFA0121084603F0FDF90121480503F0D6
:10164000F9F902208DF8500000248DF852408DF8F1
:101650005340D74F03258DF85100139513A93846F1
:1016600003F01AF808220021384603F09EF80822F9
:101670000121384603F099F80F96ADF844400C204C
:10168000CC4EADF84040ADF84600ADF84240ADF864
:1016900048400FA9304604F068FB0121304604F0B1
:1016A000D5FB4FF4A06002F03FFF0D208DF85400F1
:1016B0008DF855408DF8564001208DF8570015A83B
:1016C00002F037FFB84F1837384603F023FC78058F
:1016D0000090B64869460F38CDE90204082004900E
:1016E000301D01900015CDE905408010CDE908407E
:1016F000400207940A900420CDE90C540B90384620
:101700000E9403F08FFC01224021304604F035FC9A
:1017100001224021304604F030FC012210213846DD
:1017200003F02EFD0121384603F0B5FCDAE62DE981
:10173000F0418046012196B0480503F07BF9012174
:10174000080503F095F901210C2003F073F9022537
:101750008DF8405000248DF84240974F04268DF8B4
:1017600043400F968DF841500FA9384602F094FF80
:101770008DF840508DF842408DF84340E8028DF8D6
:1017800041508E4D0F900FA9284602F085FF082288
:101790000221384603F009F808220C21284603F0FC
:1017A00004F84FF4A06002F0BFFE2F208DF8540023
:1017B00005208DF855008DF8560001208DF8570052
:1017C00015A802F0B6FEADF84C400C207C4DADF8EB
:1017D0004840ADF84E00CDF84480ADF84A40ADF831
:1017E000504011A9284604F0C0FA0121284604F00F
:1017F0002DFB6D4F9037384603F08CFB7006009040
:101800004020039069486946603802903120049076
:10181000281D01900015CDE905408010CDE9084054
:101820004002CDE90A0607940320CDE90C043846AE
:101830000E9403F0F7FB01228021284604F09DFB63
:1018400001221021384603F09BFC0121384603F0A9
:1018500022FC16B0BDE8F08130B585B0012108202A
:1018600003F0E8F80121880303F00CF900240C20B0
:101870008DF81040012503908DF8135003A94E48B0
:1018800002F00AFF0221032004F0E1FB0420009093
:101890008DF8044010208DF805008DF8065068463C
:1018A00003F0D6FC08208DF808008DF809408DF86B
:1018B0000A408DF80B5002A802F03BFE05B030BD87
:1018C00010B5012810D0032819D0042822D00528EB
:1018D00009D13B4C204604F0DFFA4021204604F0B9
:1018E0006CFB0028F9D010BD364C204604F0D4FA29
:1018F0004021204604F061FB0028F9D010BD324C95
:10190000204604F0C9FA4021204604F056FB002886
:10191000F9D010BD274C204604F0BEFA40212046E5
:1019200004F04BFB0028F9D010BD28490020486284
:101930002749C8604FF0804250620861254A106014
:101940004861704770B5224D00202871044661211E
:101950000120FFF7B5FF3220FFF7B9F8641C022C15
:10196000F5D3012028717A20E87070BD10B561218F
:101970000120FFF7A5FFBDE810400A20FFF7A7B838
:1019800070B5134D0020A871044661210320FFF7B4
:1019900097FF3220FFF79BF8641C022CF5D301203F
:1019A000A8717A20687170BD28600240320300205F
:1019B00000000240004C0040000C024000080240C1
:1019C000005000400010014000480040000001406D
:1019D00000000020240400402DE9F14396B00020CF
:1019E00014908DF800008DF82800FD484FF4004554
:1019F000A0F18003DDF858C0F74EF84CF94A6F109B
:101A0000D96A4FF40059BCF1120F74D2DFE80CF020
:101A100009282C32363C40444A50565A5F63686B62
:101A200076AF0221304602F09DFE60B101222946C8
:101A3000204602F0AFFE2946204602F09DFE0146F8
:101A40000022E9A055E000222946204602F0A2FE2D
:101A50002946204602F090FE01460022E9A048E017
:101A6000416C0122EFA044E0FFF710F8014602228A
:101A7000EEA03EE0816F0322F0A03AE0D8480422B5
:101A800080300168F0A034E0C16F0522F1A030E0A1
:101A90000622F2A0596C2CE0D148F03007220179DF
:101AA000F1A026E0FEF778FF01460822F1A020E031
:101AB000FEF79BFF01460922F0A01AE00A22F1A0DE
:101AC000996A16E052F821100B22F2A011E0116879
:101AD0000C22F6A00DE052F821100D22F9A008E02A
:101AE0000E22FEA005E0BF480F22183050F821104A
:101AF000FDA0FEF785FD17B0BDE8F083394620460E
:101B000002F030FE0246FCA1684606F02DF9694657
:101B10000AA805F0FDFDF94D0221284602F022FE3B
:101B20000246F5A1684606F01FF969460AA805F0C5
:101B3000EFFD4946204602F015FE0246EEA168463A
:101B400006F012F969460AA805F0E2FD04212846CC
:101B500002F008FE0246E8A1684606F005F969466B
:101B60000AA805F0D5FD10220AA9E5A0D9E029466A
:101B7000304602F001FE0246DFA1684606F0F4F8A6
:101B800069460AA805F0C4FD3946304602F0F4FD66
:101B90000246D9A1684606F0E7F869460AA805F0AA
:101BA000B7FD4946304602F0E7FD0246D2A168463D
:101BB00006F0DAF869460AA805F0AAFD4FF4805845
:101BC0004146304602F0D8FD0246CBA1684606F0F9
:101BD000CBF869460AA805F09BFD4FF4006529463D
:101BE000304602F0C9FD0246C3A1684606F0BCF8C3
:101BF00069460AA805F08CFD6910304602F0BCFD6C
:101C00000246BDA1684606F0AFF869460AA805F08D
:101C10007FFDA9102746204602F0AEFD0246B6A180
:101C2000684606F0A1F869460AA805F071FDEC10B7
:101C30002146384602F0A0FD0246AFA1684606F0F4
:101C400093F869460AA805F063FD2146AD4C20468D
:101C500002F092FD0246A8A1684606F085F86946A2
:101C60000AA805F055FD0121204602F085FD024637
:101C7000A1A1684606F078F869460AA805F048FD73
:101C80000221204602F078FD02469BA1684606F03C
:101C90006BF869460AA805F03BFD0121304602F0C9
:101CA0006BFD024694A1684606F05EF869460AA8F4
:101CB00005F02EFD2946204602F05EFD02468EA16B
:101CC000684606F051F869460AA805F021FD41462C
:101CD000204602F051FD024687A1684606F044F80E
:101CE00069460AA805F014FD8021304602F044FD43
:101CF000024681A1684606F037F869460AA805F051
:101D000007FD4021304602F037FD02467AA16846C1
:101D100006F02AF869460AA805F0FAFC11220AA979
:101D200079A0FEF7CCFCE6E60121784803F0B3B9D0
:101D300011B42B48416F009A914201DD002101E06E
:101D4000416F491C4167406F18BC45E62DE9F047DB
:101D500000256F4E074601244FF400594FF4804888
:101D60004FF4805A00224146304602F013FD102005
:101D7000FEF7A1FE274201D0012200E000224946E1
:101D8000304602F007FD01224146304602F002FDD6
:101D90001020FEF790FE5146304602F0E3FC00B101
:101DA0002543600010F0FF04DCD12846BDE8F08731
:101DB00070B5574E4FF4004500222946304602F0D8
:101DC000E9FC1020FEF777FE0120FFF7BFFF42205D
:101DD000FFF7BCFFFF209DE0000402400008024026
:101DE0008000002020020020524F424F54204441E6
:101DF0004E4720434841592053414E20444F3A20FA
:101E000020200000524F424F542044414E4720436F
:101E10004841592053414E2058414E483A202020F5
:101E200000000000494D553A00000000454E434F68
:101E30004445525F544F4E473A0000006C617A654A
:101E40002030683A200000006C617A652038683ADA
:101E5000000000006C617A6520346800646F206CBB
:101E6000617A653A000000004C4A4F595F4C523A83
:101E70000000000030683A200000000034683A207A
:101E8000000000006269656E2076652078703A2057
:101E900000000000626F6E672074726F6E672073BF
:101EA000696C6F20736F3A2000000000626F6E67EC
:101EB0002074726F6E672073696C6F5B305D3A20BF
:101EC00000000000626F6E672074726F6E6720738F
:101ED000696C6F5F736F3A200000000073696C6F6C
:101EE0005F736F3A200000006269656E20646120B4
:101EF0007468613A20000000256400000010024070
:101F0000493A0000000002404F3A0000A060024041
:101F1000000C0240FFF71AFFFF20FFF717FFFE4CEF
:101F20002070FF20FFF712FF6070FF20FFF70EFF09
:101F3000A070FF20FFF70AFFE070FF20FFF706FF09
:101F40002071FF20FFF702FF607129463046BDE88F
:101F50007040012202F01EBC70B5F04E4FF40045F7
:101F600000222946304602F015FC1020FEF7A3FDA2
:101F70000120FFF7EBFE4220FFF7E8FE04460122B6
:101F80002946304602F006FC1020FEF794FD20465C
:101F900009E5E34A00219164C279DF490D2A09D09D
:101FA000FF20087048708870C87008714871887187
:101FB0000020704702780A7042784A7082788A70EE
:101FC000C278CA7002790A7142794A71807988713F
:101FD00001207047D048D2490278FF2A05D14278C3
:101FE000FF2A02D18278FF2A09D08A6C531C8B64A5
:101FF000C82A03DDFF210170417081707047002005
:1020000088647047C44880797047C34800784006A8
:1020100001D40120704700207047BF480078C006F7
:1020200001D4012070470020704770B5BC4B0125DA
:10203000002693F87C4003F58273002803D004DD6A
:10204000D8709D7005E0DC7003E0C0F10000D8702E
:102050009E70002903D004DDD9719D7105E0DC710B
:1020600003E0C1F10000D8719E71002A03D004DDA5
:10207000DA729D7297E4DC7295E4C2F10000D872C6
:102080009E7290E4A4496C39C870C871C8727047D8
:10209000A3490120886770479F486C38C17803299D
:1020A00007D2C179032904D2C07A032801D20120C2
:1020B0007047002070479A488030406AA0F5EA4196
:1020C000303901D001207047002070473AE494482D
:1020D000B0F90800404270479148B5EEC00AD0ED13
:1020E000140AF1EE10FA02D230EE600A01E030EE8E
:1020F000200ABDEEC00A10EE100A704710B5041E8B
:102100002DED068B864800F180009FED86AB9FED9C
:10211000879B11D0006914DA05F0A1FC41EC180B83
:10212000204605F09CFC53EC1A2B05F0B7FB53EC52
:10213000192B05F0ADFB13E09FED7E0ABDEC068B7D
:1021400010BD05F08CFC41EC180B204605F087FC17
:1021500053EC1A2B05F0A2FB53EC192B05F0F7FA00
:1021600053EC182B05F00CFC05F09DFC00EE100A5A
:10217000E4E7B5EEC00AF1EE10FA01DAB1EE400A7A
:102180007047002800DA40427047654991ED1C0A0B
:10219000D1ED1D1AF1EE400A80EEA11A00EE900A70
:1021A000F8EEE00A01EE200ABDEEC00A10EE100AB9
:1021B0007047F0EE401A9FED600AF5EEC01AF1EE9E
:1021C00010FA01D2F1EE611AF5EEC00AF1EE10FA42
:1021D00001D2F1EE600AB5EEC01AF1EE10FA01D2AA
:1021E000B1EE411AF4EEC01AF1EE10FA01DDB0EED4
:1021F000610AF4EEC00AF1EE10FA01DDB0EE600AF9
:10220000B4EEC01AF1EE10FA01DDB0EE410A7047EB
:10221000434880300069704741488030C06B704748
:1022200070B53F4C3E4D80342DED068BB0EE408AAC
:10223000606AA0F5EA4130396CD0226B616CD4ED54
:102240000D0A891A401A00EE100A95ED171AA06BB4
:10225000B8EEC00A00EEC10AD5ED160AC0EE208A1B
:1022600005F00EFC94ED010A41EC190B20EE280A52
:1022700010EE100A05F004FC41EC100B05F0A0FD77
:102280009FED2EAB51EC100B53EC1A2B05F006FB17
:1022900053EC192B05F0FCFA05F005FC2065A06B4A
:1022A00005F0EEFB95ED180AD4ED010A41EC190B8F
:1022B00038EE800A20EE200A10EE100A05F0E0FB4E
:1022C00041EC100B05F07CFD9FED1E1B51EC100B3B
:1022D00053EC112B05F0E2FA53EC192B05F0D8FA68
:1022E00005F0E1FB606595ED190AD4ED010A38EEC1
:1022F000800A20EE200A10EE100A05F0C1FB41EC26
:10230000100B05F05DFD53EC1A2B51EC100B05F092
:10231000C5FA1BE02CE0000070010020000C024018
:1023200000000020333333333333D33F9A999999E4
:102330009999B93F000000006F12833A0000000035
:10234000000000C0000000000000004005F0ABFBF2
:10235000C4F85800B5EEC08AF1EE10FA37D0E06844
:1023600078B1012813D0022818D003282FD122E0F9
:102370001FED100A84ED160A84ED150A84ED140A87
:10238000E8E794ED140A30EE480A84ED140A94ED5F
:10239000150A30EE480A84ED150A05E094ED140A9A
:1023A00030EE480A84ED140A94ED160A30EE480A1D
:1023B00084ED160A0BE094ED140A30EE480A84ED21
:1023C000140A94ED150A30EE480A84ED150A04F15A
:1023D000500090EC030AFFF7ECFED5ED130AF8EE7F
:1023E000E00A80EE801ABDEEC10A10EE100AA0616C
:1023F0002169814200DD20610120A060BDEC068BD7
:10240000C6E5F949002200284A61C86111D10A6174
:102410001FED380A47F2305081ED0E0A486288629B
:1024200081ED0D0ACA60CA62A1F18000CA638267A9
:10243000F6E67047EC4890ED0D0AB5EEC00AF1EEF5
:1024400010FA04D1C16811B9C16A002909D01FED81
:10245000470A002180ED0D0AC160C162416C016331
:10246000DEE67047E0488038C0ED1C0A80ED1D0AAA
:102470007047DD4A536A834209D153698B4206D1C2
:10248000D2ED0E0AF4EE400AF1EE10FA0ED05161D0
:10249000116909B905211161516C116382ED0E0AB0
:1024A00050620020106292ED0D0AB9E67047CE4AE4
:1024B00030B4D36A834209D1D2ED0D0AF4EE400A5A
:1024C000F1EE10FA02D1D3688B4226D0546A47F25B
:1024D00030539C4219D1322454610524146198422E
:1024E00013DAB5EEC00A0123F1EE10FAD36302DD70
:1024F000536C834207DCB5EEC00AF1EE10FA04D249
:10250000536C834201DAB1EE400AD160D06282EDB1
:102510000D0A0020106230BC82E630BC70470146D4
:1025200047F23050C3E71FED7D0AA2E710B5AE4C6D
:102530002DED028BF0EE608AD4ED0A0AB0EE418AEE
:10254000F8EEE00AF4EE400AF1EE10FA0BD1616900
:10255000814208D1D4ED0B0AF8EEE00AF4EE680AE5
:10256000F1EE10FA4BD0FDEEC00AC4ED0A0AD4ED2C
:10257000110AF8EEE00A30EE600ABDEEC00A10EE75
:10258000102A1FED940A01461046FFF772FF94EDE2
:10259000110AF8EEC00A78EEE00AFDEEE00A10EE4D
:1025A000900A002800DA4042B8EEC00A642819DD1B
:1025B000F4EEC08AF1EE10FA01DCB1EE488A18EEB2
:1025C000100A05F05DFA00BF05F06DFAFDEEE80AAD
:1025D000BDEC028B00EE100ABDE81040002110EEA9
:1025E000900A64E738EEC00A10EE100A05F048FAC7
:1025F0009FED7E1B53EC112B05F050F9E4E7BDEC89
:10260000028B10BD784910B5C86B012828DD4A6CD3
:10261000C86A801AFFF7B5FD042809DAC86B421CA6
:10262000CA63B0F57A7F1BDDBDE810400020E8E604
:102630000520CA6B4861B2F5FA7F086102DD40F2FD
:10264000F510C863CA6A486C904202DDBFEE000A0A
:1026500001E0B7EE000A81ED0D0ABDE81040DFE5AC
:1026600010BD70B5604991ED0E0AB5EEC00AF1EEED
:1026700010FA73D10B69002B70D0C86A47F230543E
:10268000A0426BDA91ED0D0AB5EEC00AF1EE10FA38
:102690007DD04D6AA1F18002A54260D1B5EEC00A9D
:1026A0001346F1EE10FADB6E03DD4D6CC41AAC423A
:1026B00008DBB5EEC00AF1EE10FA17D24C6C0344F9
:1026C000A34213DDCB6B032B48DA4B6CC01AFFF728
:1026D00058FD0A28C86A0ADA0864002008611FED5C
:1026E000EB0A486181ED0D0A0220C86379E091EDA3
:1026F000040AD1ED0D0A4B6CB8EEC00A984260EEA8
:10270000200A92ED1B0AB8EEC01A80EE810A0FDD96
:10271000FFF72FFD4B6CC86AC01AFFF732FD00EEC1
:10272000900AB8EEE01AD2ED150A40EE010A0EE06A
:10273000FFF71FFD4B6CC86AC01AFFF722FD00EEC1
:10274000900AB8EEE01AD2ED150A50EE410A91ED6A
:10275000040AB8EEC01A80EE810A42E04CE0224A38
:10276000B5EEC00A803AD2ED1A0AF1EE10FA18DD81
:1027700001EE100AF8EEC11A01EE103AB8EEC11AD5
:1027800041EE401AB8EEE01A71EEC11A00E031E0F5
:1027900091ED111AB8EEC11AF4EEC11AF1EE10FA69
:1027A0001BD3B5EEC00AF1EE10FA1AD201EE100AF0
:1027B000F8EEE00AF8EEC11A01EE103AB8EEC11ACE
:1027C00041EE401A31EEA01AD1ED110AF8EEE00AFE
:1027D000B4EEE01AF1EE10FA03DD496C401AFFF78F
:1027E0008DFCBDE870401BE5800000207B14AE47E7
:1027F000E17A743F086BF0E73CE4F84910B4C86B29
:1028000002280CDA9FEDF60A002281ED0E0A81ED16
:102810000D0A47F23050CA604862C1E90A020C6AE8
:10282000EE4A641C0C62803A0B68D06F9C4202DB5B
:102830000B62916F09B110BC24E40020FBE7E74A6A
:10284000136A5B1C1362834204DD10690844106143
:1028500000201062704710B5FFF739FCDF4C606450
:10286000FFF7D0FE626920694FF0FF31002A0BDDCF
:1028700090420ED006DAA16988420ADAFFF785FC99
:10288000012104E0E06C02E0002831DDE069FFF79F
:10289000D6FFD4E91101814203D0FFF7E2FE606C5C
:1028A000A064A068002826D094ED040AD4ED160A8E
:1028B000B8EEC00A20EE200AFFF70EFC94ED040AE1
:1028C000D4ED150A0246B8EEC00A20EE200AFFF742
:1028D00003FC94ED040AD4ED140A0146B8EEC00AD4
:1028E00020EE200AFFF7F8FBBDE81040FFF79DBB84
:1028F000BDE8104081E710BD2DE9F047B74AF0323E
:102900009078401FF52801D8012500E000251079B6
:10291000401FF52801D8012600E00026AF491078B5
:1029200001F1F001C30649780DD543060BD58306A6
:1029300009D5030607D535B12EB18B0603D5BDE801
:10294000F04702205DE54B0702D43221142403E056
:10295000C90715D01E210A249246A04FC20647F28D
:102960003058A7F180094FEA40620CD4002A46DAB9
:1029700082064FEA006020D5002823DA002029E0F3
:102980000A210724E8E7002A4FEA806208DB002AD0
:102990004FEA006018DA00281BDA4FF4E16019E012
:1029A000002A4FEA006004DB002828DA4FF4617047
:1029B00010E000281ADB8B480CE000281FDA4FF4E7
:1029C000E17007E0884805E0002818DA40F2465038
:1029D00000E08648FFF7A7FD9AF80000C1060ED573
:1029E00041060CD581060AD5000608D545B956B171
:1029F000796A414507D00520FFF703FD03E015B1D3
:102A0000FFF718FD2BE09AF8021001225046052925
:102A10000FD24378DB070CD0796A414503D0002000
:102A2000BFEE080A11E089F8002022461146084648
:102A300013E0FA2919D99AF80100C00715D0796A6C
:102A4000414505D00020B7EE080AFFF768FD06E013
:102A500089F80020624210461146FFF7E6FA00218D
:102A600089F80010BDE8F047E4E402221146104660
:102A7000F3E730B5594814245D4AC56D691CC1653A
:102A800001460B6E0021142D03D295892B44036659
:102A900004E0B3FBF4F3C16583670166456E6B1C0C
:102AA00043664E4B642D9B6E03D2D5892B448366BF
:102AB00005E06425B3FBF5F34166C3678166C56E27
:102AC0006B1CC366454B142D1B6F02D251891944F0
:102AD00005E0B3FBF4F2414B80331A60C166016735
:102AE00030BD70B53D49FE20803901F5B87488616C
:102AF0006078404DC0064FF4806604D40122314610
:102B0000284601F047FE6078400604D40022314692
:102B1000284601F03FFE60784FF40066800604D43A
:102B200000223146284601F035FE6078000604D4C4
:102B300001223146284601F02DFE60782E4E4007D6
:102B40004FF4807504D401222946304601F022FE5C
:102B50006078C00706D129463046BDE870400022A3
:102B600001F018BE48E670477047704770B50D46D3
:102B70002DED048B06461446F0EE418AB0EE609AC5
:102B8000B0EE408A02211B4801F0ECFD78EE281AD5
:102B900038EE680A9FED191A012808D00F488030D6
:102BA0000068401BA04217DDB0EE610A06E00B484A
:102BB000C06FA0EB0500A042F6DC03DAF0EE490A94
:102BC000304604E0F0EE490A3046B0EE480ABDEC6B
:102BD000048BBDE87040A9E4F4DAEFE78000002040
:102BE000000000007CFCFFFF3EFEFFFFBAFAFFFF83
:102BF000040300200004024000080240CDCC4C3EFB
:102C000070B50D462DED048B06461446F0EE418A54
:102C1000B0EE609AB0EE408A0221FE4801F0A2FDBB
:102C2000FD4B012878EE281A38EE680A986F1FEDE0
:102C30000D1AA0EB050004D0A04213DDB0EE610A2E
:102C400002E0A042FADC03DAF0EE490A304604E082
:102C5000F0EE490A3046B0EE480ABDEC048BBDE800
:102C6000704063E4F4DAEFE7704710B5FEF76AFEF0
:102C7000FEF75BFEBDE810400A2004F0C6B970B54F
:102C8000E54DE44AC035A5F5A074012807D0022817
:102C900005D0032803D0042801D005280BD1022138
:102CA000104601F05FFD00EB4000E16A05EBC0005B
:102CB00050F8210060649FE510B5D74C642084343F
:102CC000E073FDF704FF0020E073A4F58271D348A0
:102CD000C96A50F82120521C40F82120BDE810405C
:102CE000C3E770B52DED048BFFF7BFFF0221C94884
:102CF00001F038FD00261FED468AC74D0128A5F1D9
:102D0000800415D0E86FF02874DADFEDC58A00BFC3
:102D1000B6EE001AF0EE480A4620B0EE680AFFF759
:102D200005FC0A2004F071F9E86FF028F0DBA7E059
:102D3000A06A0328E86F4CDA5FED508AF0281EDAAB
:102D40009FEDB89AB0EE681AF0EE480A4620B0EE51
:102D5000490AFFF7EBFB0A2004F057F9E86FF02867
:102D6000F0DB11E0B0EE681AF0EE480A4620B0EE53
:102D7000490AFFF7DBFB0A2004F047F901E09FED69
:102D8000AA9AE86FF028EDDCA6610AE0B0EE480AE6
:102D90000222F021B3EE0E1AF0EE400A4620FFF7B1
:102DA000E5FEA86FBE28F1DBA069401CA0613228B7
:102DB000F7DB9FED9E1ADFED9E0A2820B0EE480A51
:102DC000FFF7B4FB4FF4E171FFF781F98842FBDBB9
:102DD0007CE014280FDDDFED978AE86F1E280ADDFE
:102DE000F0EE480A4620B0EE601AB0EE680AFFF72F
:102DF0009DFBF2E73FE0A6610AE0B0EE480A02223E
:102E00001E21B3EE0E1AF0EE400A4620FFF7AEFE8A
:102E1000A86FAA28F1DBA069401CA0613228F7DB6B
:102E2000FEF783FDB0EE480A6420B0EE401AF0EEE3
:102E3000400AFFF77BFB4FF4966402E0FFF7E5F8EA
:102E400018B9FDF723FEA042F8DB0020FFF7D9FAFE
:102E5000BDEC048BBDE87040FEF767BDB6EE001A0E
:102E6000F0EE480A4620B0EE680AFFF75FFB0A2042
:102E700004F0CBF801E0DFED708AE86FFA28EDDCB2
:102E8000A6614FF487760AE0B0EE480A0222314686
:102E9000B3EE0E1AF0EE400A4620FFF767FEA86F69
:102EA000BE28F1DBA069401CA0613228F7DB9FED52
:102EB000631ADFED630A1E209FED620AFFF736FBFF
:102EC000614900BFFFF703F98842FBDCBDEC048BCE
:102ED0000020BDE87040FFF794BA2DE9F0414E4D57
:102EE0002DED048B803DE86AFFF7C9FE0027AF7027
:102EF0003846FFF786FAFFF7B8FE6F2004F085F832
:102F00000221444801F02EFC9FED4D8A5FEDCC8AF2
:102F1000414C4E4E012811D0B0EE680AB6EE001AB0
:102F2000F0EE400A2820FFF701FBA06F3228FDDCFD
:102F30009FED479ADFED479AAF61D7E0B0EE480AC0
:102F4000B0EE001AF0EE400A1E20FFF7EFFA3E49FD
:102F5000323902E0FFF759F818B9FFF7B8F888429C
:102F6000F8DCB7EE081A9FED379AF0EE480A1E20FB
:102F7000B0EE490AFFF7DAFA03E000BFFFF745F8C1
:102F800010B9E06F1E28F9DBF0EE480AB0EE498A6E
:102F9000B7EE081A1E20B0EE480AFFF7C7FA02E0A3
:102FA000FFF733F818B9E06F1F386D28F8D3FEF734
:102FB000BCFCB7EE081ADFED280A1E20B0EE480A66
:102FC000FFF7B4FA40F2DC57FDF760FDB842FBDBD7
:102FD000B7EE001AF0EE680A3220B0EE480AFFF7AA
:102FE000A5FA00BFFFF773F80028FBDB0020FFF70E
:102FF00008FAFFF73AFE40F22B2004F006F8E06FE3
:10300000696C88424FF0280140DD4FF47A70FFF779
:103010008AFA26E0000402408000002038020020E6
:1030200000409CC400002FC4000096433333333F5C
:103030000000E14300002F4400409C446666663F68
:10304000000061C40000E144AEFCFFFF001002403C
:1030500000004842000061440000E1C3FEF7D5FFD4
:1030600020B9686CE16F28308142F7DC0A2140F218
:103070007E40FFF758FA02E0FEF7C7FF08BB402189
:10308000304601F06FFB0128F6D01AE0F648FFF752
:103090004AFA02E0FEF7B9FF20B9686CE16F283800
:1030A0008142F7DBF0480A219638FFF73CFA02E04C
:1030B000FEF7ABFF28B94021304601F053FB012851
:1030C000F6D0BDEC048B0020BDE8F041FFF799B9C4
:1030D00002221921B0EE491AF0EE680A1420B0EE6F
:1030E000480AFFF78DFDFEF790FFC0B9E06F696CED
:1030F000884214DA4021304601F034FB0128E7D041
:103100000DE002221921B0EE491AF0EE680A1420EF
:10311000B0EE690AFFF774FDFEF777FF48B9E06F7C
:10312000696C884205DD4021304601F01BFB012817
:10313000E7D0A869401CA8613228D7DBBDEC048B1E
:10314000BDE8F08170B502212DED048BC74801F078
:1031500009FBC74C0128C74EE06A04F180051DD069
:10316000FFF78DFD60785FED468A9FEDC38A0128E9
:1031700065D000287DD11FED499AE86F616C8842C7
:1031800005DD4021304601F0EDFA012865D0BDECA7
:10319000048B0020BDE87040FFF733B9FFF76FFDE7
:1031A0006078012807D0002863D128214FF47A7075
:1031B000FFF7B9F921E02821AB48FFF7B4F902E0A5
:1031C000FEF723FF20B9606CE96F2C388142F7DBF2
:1031D000A5480A219638FFF7A6F903E0FEF715FF88
:1031E0000028D4D14021304601F0BCFA0128F5D0A6
:1031F000CDE700BFFEF709FF20B9606CE96F2C3006
:103200008142F7DC0A2140F27E40FFF78CF903E0AF
:10321000FEF7FBFE0028BAD14021304601F0A2FAA9
:103220000128F5D0B3E702221921B0EE681AF0EEBA
:10323000480A1E20B0EE490AFFF7E2FC01E01FED4C
:10324000809AE86F616C8842A1DA4021304601F033
:1032500089FA0128E7D09AE70BE002221921B0EEA3
:10326000681AF0EE480A1E20B0EE490AFFF7C8FCC3
:1032700083E7BDEC048B75E42DE9F05FDFF8F481A2
:103280004FF480773946404601F06CFA784D0126BC
:103290007A4C01280DD0BA4639464746404601F0DF
:1032A00061FA4FF000084FF003094FF4806B10B142
:1032B0000BE0AE7027E05946384601F053FA20B9CA
:1032C0008021384601F04EFA28B15146384601F0C7
:1032D00049FA18B107E085F802800BE059463846F4
:1032E00001F040FA28B15146384601F03BFA28B1C6
:1032F0000CE0AE70E96A44F8219007E020680128EC
:1033000016D085F80280E86A44F8206060690128D8
:103310000CDB6068012809DBA068012806DBE06897
:10332000012803DB2069012800DB2660BDE8F09F4F
:10333000E86A022144F82010A863AE70E6E72DE9A0
:10334000F041FFF799FF4D4E002718364B4D484C82
:1033500083E02868F0BBE76100E0B0B9E06A10E004
:1033600055F8201061B9217F6170E062FFF7EAFE35
:10337000FFF782FFA078012807D02868012804D031
:10338000A069401CA0610628EADBE069012816D18B
:10339000E06A10E055F8201061B9217F6170E062A9
:1033A000FFF7D0FEFFF768FFA078012815D0286846
:1033B000012815D0A069401EA0610028EADCA07891
:1033C00001280AD0286801280AD0E069401CE06181
:1033D000022800E001E040DABFE7286801283CD17C
:1033E000E76100E0B8B9E06A11E000BF56F82010CC
:1033F00055F82010032909D0217F6170E062FFF7A2
:10340000A1FEFFF739FFA078012804D0A069401C75
:10341000A0610628EADBE069012816D1E06A10E025
:1034200056F8201055F82010032909D0217F61702B
:10343000E062FFF787FEFFF71FFFA078012810D09A
:10344000A069401EA0610028EADCA078012808D00D
:10345000E069401CE0610228C4DBA07800283FF44A
:1034600078AFE06A20636BE618FCFFFF00040240BF
:103470000000002000100240000000002002002098
:1034800010B5FEF752FAF84C0120E062FFF725FD77
:10349000E06A206310BD10B5FEF747FAF24C022037
:1034A000E062FFF71AFDE06A206310BD10B5FEF779
:1034B0003CFAED4C0320E062FFF70FFDE06A206369
:1034C00010BD10B5FEF731FAE74C0420E062FFF7BB
:1034D00004FDE06A206310BD10B5FEF726FAE24C49
:1034E0000520E062FFF7F9FCE06A206310BD2DE9DA
:1034F000F047DE4E0221304601F034F9DC4F30B1A6
:103500004FF40051384601F02DF900282FD1D6494B
:103510000120DFF86093C863C1020022484601F031
:1035200039F9D54C0025E573E574E5754FF47A70EB
:10353000FDF7CDFAFE20E074E0734FF480480421DB
:10354000304601F00FF940B14146384601F00AF922
:1035500018B1012003F059FDF1E7E5730220E07492
:10356000012241024846BDE8F04701F013B9BDE829
:10357000F08710B5BC4C606B0B280FD1A06A0328F4
:103580000CDAE06B002809D1FDF780FA40F6E4413F
:10359000884201DD012000E00020606210BD2DE9BD
:1035A000F05F2DED048BFFF760FBAF4C0020012195
:1035B000E06320462246016400209070AE48FE225F
:1035C000C273C274C27581758174002181732046F3
:1035D000A64D806A4FF4006B4FF0050ADFEDA79A05
:1035E000DFF8908203279FEDA69A1FED5D8ADFED3D
:1035F000A58A40F6C416032874DA4FF0140900BFF8
:10360000B0EE480A1420B0EE401AF0EE400AFEF781
:103610008DFF4FF48046B71005E0E06B012809D01C
:10362000606A012806D00821284601F09BF801288D
:1036300004D00FE00220FEF7E4FE0BE031462846FE
:1036400001F090F8012805D13946284601F08AF8A2
:103650000028E2D00020FEF7D4FE4FF4C870FDF73A
:1036600036FAE06B01282ED0606A0128C8D1FDF738
:103670000DFA2062FEF759F9B0EE480A1420B0EEB8
:10368000401AF0EE400AFEF751FF4E46FDF7FEF9F4
:10369000216A01EB011191FBF6F18842F6DB022170
:1036A000404601F05FF801281DD0FEF73EF9B6EE66
:1036B000001AF0EE480A1E20B0EE680AFEF736FF48
:1036C00040F2DC5630E00020FEF79BFEA06A401C72
:1036D000A062FDF7DBF92062FEF727F95E4655464A
:1036E000474635E05FE0FEF720F9F0EE480A1E207D
:1036F000B0EE601AB0EE680AFEF718FF04E000BFF3
:10370000FEF783FC0028B1D1FDF7C0F9216A01EB77
:10371000011191FBF6F18842BFF672AFF0E700BFEE
:10372000FEF773FC0028A1D1FDF7B0F9B042F3DA3F
:10373000F6E700BFB0EE480A1E20B0EE401AF0EEE9
:10374000400AFEF7F3FE00223146384601F022F827
:10375000FDF79CF9216A490091FBF5F18842E9DB0C
:10376000FEF7E3F8B0EE680AB0EE691AF0EE400A30
:103770001E20FEF7DBFE40F27A3100BFFEF7A7FC09
:103780008842FBDBBDEC048BD0E500BFB0EE480AFD
:103790001420B0EE401AF0EE400AFEF7C7FEE06BD0
:1037A000012801D113E0A94608214D46484600F002
:1037B000D9FF01280BD18103284600F0D3FF01284F
:1037C00005D10103284600F0CDFF0028DED00020FF
:1037D000FEF717FE4FF4FA70FDF779F9E06B012858
:1037E000D0D0606A0128DFD1FDF750F92062FEF7E2
:1037F0009CF855460EE000BFB0EE480A1E20B0EE21
:10380000401AF0EE400AFEF791FE0022594640466B
:1038100000F0C0FFFDF73AF9216A490091FBF5F18C
:103820008842E9DBFEF781F8B0EE680AB0EE691A6B
:10383000F0EE400A1E20FEF779FE40F27A355CE099
:103840000221404600F08EFF0128206C90FBF7F12A
:1038500007FB110003D0C8B3FEF767F85DE098B12D
:10386000FEF763F82DE00000000000200010024089
:103870000008024000040240040100209A99193F08
:10388000000061C400006144F0EE480A3220B0EE4E
:10389000601AB0EE680AFEF749FEFE4903E000BF79
:1038A000FEF7B3FB30BBC86F1928F9DC22E000BF7C
:1038B000B7EE081AF0EE480A1E20B0EE490AFEF7ED
:1038C00035FEFDF7E3F8B042F2DB13E0FFE7F0EE80
:1038D000480A3220B0EE601AB0EE490AFEF726FE22
:1038E000EC49803103E000BFFEF78FFB10B9086898
:1038F0001428F9DC206C401C2064FEF7E8FBA84289
:10390000BFF652AF9CE700BFB7EE081AF0EE480AC8
:103910001E20B0EE680AFEF709FEFDF7B7F8B042C8
:10392000F2DBE7E72DE9F0472DED068BFFF79DF978
:103930006F2003F06AFBDFF860930221484600F035
:1039400011FF9FEDD6AAD34D00265FED33AA4FF4A9
:103950009677803D9FEDD28ACE4C5FED369A04F18A
:1039600080080128B6EE001A07D0B0EE480A3220CF
:10397000F0EE400AFEF7DAFDE5E09FEDCA9A32204C
:10398000F0EE490A9FEDC80AFEF7D0FD03E000BF44
:10399000FEF73BFB18B9FDF779F8B842F8DBB6EE55
:1039A000001AF0EE480A9620B0EE4A0AFEF7BEFD75
:1039B00041F6583903E000BFFEF727FB18B9FDF7C1
:1039C00065F84845F8DBB6EE001AF0EE480A4620E6
:1039D0009FEDB60AFEF7AAFD03E000BFFEF715FB58
:1039E00010B9A06F5A28F9DCB6EE001AF0EE480ABA
:1039F00046209FEDAF0AFEF799FD02E0FEF705FBBA
:103A000010B9A06F3C28F9DCF0EE6A8AAE610AE0DA
:103A100000221E21B0EE491AF0EE480A6420B0EEF2
:103A2000680AFFF7EDF8E06FFA28F1DBA869401C9F
:103A3000A8613228F7DBAE614FF4B4760AE00022C9
:103A40001E21B0EE491AF0EE480A3C20B0EE680A9A
:103A5000FFF7D6F8E06FB042F1DBA869401CA8611F
:103A60003228F7DB0220FEF7CCFC4FF4FA70FDF7AA
:103A70002EF8FDF75AFFB6EE001ADFED8E0A32205F
:103A80009FED8D8AB0EE480AFEF750FD03E000BFBF
:103A9000FEF7BBFA18B9FCF7F9FFB842F8DBB6EE4F
:103AA000001AFBEE0E0A9620B0EE480AFEF73EFD25
:103AB00040F6B83503E000BFFEF7A7FA18B9FCF7E7
:103AC000E5FFA842F8DBFDF730FFB7EE001ADFEDA7
:103AD0007B0A3220B0EE690AFEF728FD784902E041
:103AE000FEF793FA18B9FEF7F2FA8842F8DC0020E4
:103AF000FEF787FC0021B7EE000A7248FEF7D7FCFC
:103B000002E0012003F081FAE06B0028F9D1B6EE63
:103B1000001ADFED6D0A14209FED6C0AFEF706FD1A
:103B2000414602E0FEF771FA10B908686928F9DC2D
:103B3000BDEC068B0020BDE8F047FEF762BC00BF7D
:103B4000FEF763FA18B9FCF7A1FFB842F8DBB0EE54
:103B5000480AB6EE001AF0EE400A6420FEF7E6FCD2
:103B60004FF47A6703E000BFFEF74FFA18B9FCF78D
:103B70008DFFB842F8DBB0EE480AB6EE001AF0EE60
:103B8000400A5020FEF7D2FC41F6641703E000BF64
:103B9000FEF73BFA18B9FCF779FFB842F8DBB6EE4E
:103BA000001AF0EE480A3C209FED490AFEF7BEFCE1
:103BB00003E000BFFEF729FA10B9A06F4628F9DC30
:103BC0000020FEF71EFCDFED438AB0EE6A9AAE617C
:103BD0000AE000221E21B0EE681AF0EE480A282002
:103BE000B0EE490AFFF70CF8E06FFA28F1DBA8699C
:103BF000401CA8613228F7DBAE614FF4C0760AE0C2
:103C00001E210022B0EE681AF0EE480A0846B0EE17
:103C1000490AFEF7F5FFE06FB042F1DDA869401CEC
:103C2000A8613228F7DB0020FEF7EBFBFDF77DFEF5
:103C3000B0EE480A9FED281AF0EE400A3C20FEF74D
:103C400075FC4FF4E16502E0FEF7DFF918B9FCF707
:103C50001DFFA842F8DBB0EE480A1E20B0EE401A65
:103C6000F0EE400AFEF762FC4FF4947103E000BFEF
:103C7000FEF7CBF910B9A06F8842F9DA0122D10220
:103C80004C46484600F086FD01229102204600F095
:103C900081FD23E080000020000402400000E14498
:103CA00000000000000048C20040DD4400C0C1C464
:103CB000008089C4000020C200C0DA440000E1C4D2
:103CC000F8F8FFFF36F7FFFF00A00CC50000964391
:103CD000000048C300004842CDCC4C3EFDF725FE15
:103CE0009FEDFE1AF0EE4A0A3220B0EE690AFEF7A6
:103CF0001DFC40F2FE6102E0FEF787F918B9FEF7FD
:103D0000E6F98842F8DBF0EE480A1E20B0EE601AB1
:103D1000B0EE690AFEF70AFC414603E0FEF775F9CA
:103D2000002802D108685528F8DCBDEC068B1EE49B
:103D300010B5EB4CA06B012801D1FFF7A1FBA06BE4
:103D4000022801D1FFF7A7FBA06B032801D1FFF7E1
:103D5000ADFBA06B042801D1FFF7B3FBA06B0528D6
:103D600003D1BDE81040FFF7B7BB10BDDD4A30B44A
:103D70001068DB49012816D00120886152F82030F4
:103D80006BB3401C0628F9DB8861C86A042828D078
:103D9000032829D002282AD001281DD0052829D19E
:103DA00030BCFFF799BBCF4B0520183353F82040A8
:103DB00052F82040032C01D0C86203E0401E0128C5
:103DC000F4DAC86A0528EBD004280AD003280BD0FF
:103DD00002280CD001280DD130BCFFF751BBC862BE
:103DE000D2E730BCFFF76DBB30BCFFF75FBB30BC28
:103DF000FFF751BB30BC7047FFF7D1FBB84CE06A0E
:103E0000012808D0022809D003280AD004280BD0A2
:103E100005280CD00DE0FFF733FB0AE0FFF73BFB72
:103E200007E0FFF743FB04E0FFF74BFB01E0FFF780
:103E300053FBFFF721FA06E0FFF71EFAA0780128EE
:103E400010D0FFF77FF9A0780028F5D00025A570E5
:103E5000FEF747FFFFF7A3FBA06B30B1FFF768FF4A
:103E6000A5630CE0FEF728FFF0E7FFF77FFF06E011
:103E7000FFF702FAA078012806D0FFF763F9A078CF
:103E80000028F5D0A570E5E7FEF716FFFEF729FF3D
:103E9000F5E793490120C8620221934800F062BC13
:103EA0008F490220C86270478D490320C86270475D
:103EB0008B490420C862704789490520C862704751
:103EC0002DE9F0472DED068BFEF7CFFE0221864847
:103ED00000F048FC4FF4FA795FED8EAA804D8035F2
:103EE00000271FED918A9FED81AA7D4C5FED959A89
:103EF0009FED7F9AF0EE480A012840F6AC56B0EEEE
:103F0000601A4FF0460004D09FED7A0AFEF70EFBD0
:103F1000A7E09FED790AFEF709FB02E0FEF775F8CE
:103F200010B9A86F3228F9DCB846A7614FF496772C
:103F3000F0EE6A8A0AE000221E21B0EE681AF0EE66
:103F4000480A6420B0EE490AFEF75AFEE86FB8420C
:103F5000F1DBA069401CA0613228F7DBC4F81880AF
:103F60004FF4B4780AE000221E21B0EE681AF0EE99
:103F7000480A3C20B0EE490AFEF742FEE86F404591
:103F8000F1DBA069401CA0613228F7DB0220FEF7BC
:103F900038FA4846FCF79BFDFDF7C7FCB6EE001A61
:103FA0005FEDBC0A32205FEDBC8AB0EE680AFEF716
:103FB000BDFA02E0FEF729F818B9FCF767FDB84230
:103FC000F8DBB6EE001AFBEE0E0A9620B0EE680A99
:103FD000FEF7ACFA40F6B83403E000BFFEF715F880
:103FE00018B9FCF753FDA042F8DBFDF79EFCB7EED5
:103FF000001AF0EE4A0A3220B0EE690AFEF796FA8D
:104000004FF4617402E0012002F0FFFFFEF75FF859
:10401000A042F8DBB7EE001AF0EE4A0A3220B0EE0A
:10402000690AFEF783FA02E0012002F0EEFFE86F72
:104030002328F9DC0020FEF7E4F9FDF776FCB0EE6A
:10404000481ADFED2E0A1E209FED2D0AFEF76EFAAC
:10405000FCF71CFDB042FBDB9EE000BFFDF7D5FF87
:1040600010B9A86F1E28F9DC5FEDE68A254D4FF4E4
:10407000A578A7610AE000221921B0EE681AF0EED7
:10408000480A6420B0EE4A0AFEF7BAFD28684045A7
:10409000F1DBA069401CA0613228F7DBA7614FF477
:1040A000B1770AE000221921B0EE681AF0EE480A52
:1040B0003C20B0EE4A0AFEF7A3FD2868B842F1DDC5
:1040C000A069401CA0613228F7DB0220FEF799F9B5
:1040D0004846FCF7FCFCFDF728FC15E0CDCC4C3F36
:1040E0000000002020020020000402400000614483
:1040F000000061C400C0A84400C08FC400005C443C
:1041000000007A4400010020B6EE001AF0EE6A0AC0
:1041100064209FED860AFEF709FA4FF47A6402E004
:10412000FDF773FF18B9FCF7B1FCA042F8DBB7EE5E
:10413000001AF0EE490A4620B0EE690AFEF7F6F9D9
:104140007B4C02E0012002F060FFFDF7C0FFA042BF
:10415000F8DCB7EE001AF0EE490A3220B0EE690A38
:10416000FEF7E4F902E0012002F04FFF28681E2864
:10417000F9DC0020FEF745F9FDF7D7FBB0EE481A51
:10418000F0EE490A1E209FED6B0AFEF7CFF900BF43
:10419000FCF77CFCB042FBDBBDEC068B0020BDE8ED
:1041A000F047FEF72EB9644C0420A062FFF788FEAA
:1041B000FFF7F5F9FFF764F9FFF7C1F8FEF77CFDAB
:1041C000FEF78FFD5FF00005FFF7E9F9A06B48B13E
:1041D000FFF7AEFDFFF7B3F8FEF76EFDFEF781FDCA
:1041E000A56307E0FFF7C2FDFFF7A9F8FEF764FD3E
:1041F000FEF777FDA570E7E710B5FFF793FBBDE885
:104200001040FFF7CCB910B50122D1024B4800F0A5
:10421000C1FA4FF4FA60FCF75AFC4948FE21C17319
:10422000C174C1750121817581740021817310BD34
:104230001120FDF77DFD0F2002F0E7FEF8E70A20D0
:1042400002F0E3FEFBE73C4CFEF713FCFFF74FF9EF
:10425000FFF78FF9207808B9FEF7FDFA012002F088
:10426000D4FEF1E71FB5FCF73EFCFCF76FFCFCF752
:10427000A3FDFCF744FEFCF7FDFEFCF783FFFCF713
:10428000E5FC4FF4E1342046FDF724F82046FDF725
:10429000A5F82046FDF728F9E000FDF748FAFDF7FC
:1042A00051FBFDF742FB00244FF48075009401940C
:1042B000029423462A4623A12748039402F0CEFC09
:1042C00000940194029400232A4624A128480394D0
:1042D00002F0C4FC1A4C6C3407E000BFFEF70CFB84
:1042E0002078000701D4FFF787FFA0797328FCD15D
:1042F000F4E77FB500244FF4807500940194029494
:1043000023462A461BA11E48039402F0A7FC0094F2
:104310000194029400232A461AA11D48039402F036
:104320009DFC02F0C1FF04B0002070BD0040DD44E0
:104330007CFCFFFF00007AC4000000200004024063
:10434000040100207461736B526F626F74416E617F
:104350006C79746963730000474200087461736B81
:10436000446965754B6869656E436F43617500000C
:104370003F4200087461736B4D61696E000000007C
:10438000654200087461736B4779726F000000002A
:10439000314200080CB500205149019000900A6894
:1043A00042F480320A604FF4A0630A6802F40032DB
:1043B0000092019A521C0192009A12B9019A9A42F3
:1043C000F3D10A68920334D501200090444840306C
:1043D000026842F0805202604248026842F4804221
:1043E00002603F48083002680260026842F40042FE
:1043F0000260026842F4A0520260031F3A4A1A6047
:104400000A6842F080720A600A689201FCD5374A55
:1044100040F205611160016821F00301016001684B
:1044200041F0020101600168C1F381010229FAD162
:104430000CBD00900CBD2A4810B5016841F0010187
:104440000160274A0021083211600268284B1A4097
:104450000260031D274A1A60026822F4802202606B
:104460001F480C300160FFF795FF23494FF00060B3
:10447000086010BD70B51A4C083420681F4A10F04F
:104480000C011F4804D05510042903D0082903D07B
:1044900002601BE0056019E01149091D0B68C3F3B8
:1044A00080560B6803F03F0316B1B5FBF3F201E051
:1044B000B2FBF3F20B680968C3F388135A43C1F3E4
:1044C0000141491C4900B2FBF1F1016021680C4A2D
:1044D000C1F30311121D515C0268CA40026070BD35
:1044E000003802400070004008544007003C024081
:1044F000FFFFF6FE1030002408ED00E00024F40079
:104500008C0100200648804706480047FEE7FEE78A
:10451000FEE7FEE7FEE7FEE7FEE7FEE7FEE7FEE773
:1045200037440008890100082849084328490860E1
:10453000704730B50F22C47801780123FCB1244CB8
:10454000246801F1E02104F4E064C4F5E064C4F3FC
:104550000724C4F10405E2404478AC408578154056
:1045600025432A0181F80024007800F01F018B40C8
:104570004009800000F1E020C0F8003130BD01F0BA
:104580001F0083404809800000F1E020C0F880311E
:1045900030BD104A114001430D48001F01607047B3
:1045A0000B4A121D0029116801D0014300E081432C
:1045B000116070474FF0E0210428086903D020F013
:1045C00004000861704740F00400FAE70000FA05B3
:1045D0000CED00E080FFFF1F7C4910B5884206D13A
:1045E0000121084600F058FA002101204FE07849E7
:1045F000884206D10121022000F04EFA002102205B
:1046000045E07449884206D10121042000F044FAB3
:10461000002104203BE07049884206D10121082096
:1046200000F03AFA0021082031E06C49884206D1B6
:104630000121102000F030FA0021102027E0684905
:10464000884206D10121202000F026FA00212020F6
:104650001DE06449884206D10121402000F01CFA87
:104660000021402013E06049884206D101218020CA
:1046700000F012FA0021802009E05C4988420AD14A
:1046800084150121204600F007FA00212046BDE8EC
:10469000104000F001BA10BDF0B50023012403273B
:1046A0000D6804FA03F21540954242D1D0F800C0DB
:1046B0005E0007FA06F52CEA050CC0F800C091F878
:1046C00004C0D0F800E00CFA06FC4CEA0E0CC0F86E
:1046D00000C091F804C0BCF1010F02D0BCF1020F80
:1046E0001FD1D0F808C02CEA050CC0F808C091F81A
:1046F00005C0D0F808E00CFA06FC4CEA0E0CC0F835
:1047000008C0D0F804C02CEA020CC0F804C042680B
:1047100091F806C00CFA03FC1FFA8CFC42EA0C026A
:104720004260C268AA43C260CA79C568B2402A43DF
:10473000C2605B1C102BB3D3F0BD4FF6FF7101605C
:104740000021017141718171C171704708B541F457
:1047500080320092C261C1610099C161C169C069C2
:10476000009008BD0246002012690A4200D00120D4
:104770007047006980B270470246002052690A42C1
:1047800000D001207047406980B2704701837047B4
:10479000418370470AB1018370474183704741618B
:1047A000704742694A40426170474B07DB0E9A40AE
:1047B000C90810B500EB8100016A0F249C40A14399
:1047C0000162016A1143016210BD00000000024055
:1047D0000004024000080240000C024000100240A9
:1047E0000014024000180240001C02400020024059
:1047F000EA48016841F001010160E84A00210832FD
:1048000011600268E64B1A400260031DE54A1A6017
:10481000026822F480220260E0480C300160704798
:10482000DE490022891C0A70087070470246002089
:10483000510901290CD002290CD0D84974310968DA
:1048400002F01F02012393400B4200D00120704769
:10485000D249F4E7D1497031F1E718B500204FF49F
:10486000A06400903120FFF7E1FF0099491C0091FE
:10487000A14201D00028F5D03120FFF7D7FF002852
:1048800000D0012018BDC5490A6822F0F80242EAAA
:10489000C00008607047C44908607047BF490022E3
:1048A00070310A700A70012802D0042801D1052055
:1048B00008707047BD490860704741EA82115A0884
:1048C00010B5BB4B029C03EB02421143014341EA8A
:1048D0000460B249091D086010BDB34908667047FD
:1048E000800140EA0170AD49843108607047AE49EB
:1048F00088667047AC49C8647047A84A0832136894
:10490000084323F0EC63184310607047A34A083251
:104910001368084323F078431843106070479F4A98
:104920000832116821F003010143116070479B4870
:104930000830006800F00C007047984A083211688F
:1049400021F0F001014311607047944A0832116868
:1049500021F4E051014311607047904908310A6821
:1049600022F4604242EAC0000860704770B58B4A8A
:10497000083211688F4C11F00C0104D06610042924
:1049800003D0082903D004601BE0066019E08349C6
:10499000091D0B68C3F380550B6803F03F0315B185
:1049A000B6FBF3F301E0B4FBF3F30C680968C4F35E
:1049B00088146343C1F30141491C4900B3FBF1F181
:1049C000016011680F2303EA11117B4B5C5C0168E5
:1049D000E14041601468072505EA94241C5D21FA32
:1049E00004F48460126805EA52329A5CD140C160D6
:1049F00070BDC0F30121032908D1684A083211684B
:104A000021F4F8136D490140194311606349703175
:104A10000A68C0F30B0002430A60704763494439D7
:104A20000860704761494039086070475E49C1F8C5
:104A30005C017047594A30320029116801D00143A6
:104A400000E0814311607047544A343200291168F4
:104A500001D0014300E08143116070474F4A383272
:104A60000029116801D0014300E0814311607047C3
:104A70004A4A40320029116801D0014300E08143D5
:104A800011607047454A44320029116801D0014342
:104A900000E0814311607047404A103200291168DC
:104AA00001D0014300E08143116070473B4A14325A
:104AB0000029116801D0014300E081431160704773
:104AC000364A18320029116801D0014300E08143C1
:104AD00011607047314A20320029116801D001432A
:104AE00000E08143116070472C4A2432002911688C
:104AF00001D0014300E0814311607047274A5032E2
:104B00000029116801D0014300E081431160704722
:104B1000224A54320029116801D0014300E0814348
:104B2000116070471D4A58320029116801D00143B5
:104B300000E0814311607047184A60320029116813
:104B400001D0014300E0814311607047134A643291
:104B50000029116801D0014300E0814311607047D2
:104B60000E4A0D320029117801D0014300E0814343
:104B70001170704709487430016841F0807101601C
:104B800070470146054A00200C3212680A4200D0E4
:104B90000120704701490E3108707047003802400B
:104BA000FFFFF6FE1030002400004742800E47420F
:104BB0000000FFFF0024F400A0010020FFFCFF0F15
:104BC00010B501210C022046FFF78EFF2046BDE8FC
:104BD00010400021FFF788BF30B54268C84B0C7900
:104BE0001A400B6842EA0422134343608268C54BB3
:104BF0004D791A40D1E9034323438C6844EA4504C4
:104C0000234313438360C26A097D22F47002491E64
:104C1000C9B242EA0151C16230BD00210160017197
:104C200041718160C1600161012101757047B64B1E
:104C300010B5D3F80423B5490A40D0E90014214344
:104C4000D0E90240044321431143C3F8041310BDCB
:104C50000021016041608160C16070470029816866
:104C600002D041F0010101E021F0010181607047B3
:104C70004268A74B1A400A43426070474162826211
:104C80007047426822F01F020A43426070479E4903
:104C90000028D1F8040302D040F4000001E020F421
:104CA0000000C1F80403704797490028D1F80403B5
:104CB00002D040F4800001E020F48000C1F8040339
:104CC000704770B5072409290AD9C568A1F10A06F9
:104CD00006EB4606B440A543B3401D43C56007E05C
:104CE000056901EB4106B440A543B3401D4305618E
:104CF0001F23072A09D2446B521E02EB8202934003
:104D00009C4391400C43446370BD0D2A09D2046B4F
:104D1000D21F02EB820293409C4391400C430463F8
:104D200070BDC46A0D3A02EB820293409C439140ED
:104D30000C43C46270BD816841F08041816070475E
:104D4000014600208968490200D5012070470029EA
:104D5000816802D041F4806101E021F480618160CA
:104D600070470029816802D041F0020101E021F082
:104D70000201816070474268491E22F4604242EAA3
:104D80004131416070470029416802D041F400611F
:104D900001E021F4006141607047C06C80B270474F
:104DA0005948D0F8080370470029816802D041F4BF
:104DB000807101E021F48071816070470029816871
:104DC00002D041F4007101E021F40071816070476C
:104DD0004D490028D1F8040302D040F4005001E00E
:104DE00020F40050C1F80403704770B50724092966
:104DF0000AD9C568A1F10A0606EB4606B440A543E8
:104E0000B3401D43C56007E0056901EB4106B440AE
:104E1000A543B3401D430561836BC3F30154121BCB
:104E2000921C02EB82041F22A2409343A1400B4339
:104E3000836370BD826B491E22F4401242EA015125
:104E40008163704708B508440090026008BD82681D
:104E500022F470220A4382607047826822F4401272
:104E60000A4382607047816841F480018160704725
:104E7000014600208968490200D5012070470029B9
:104E8000416802D041F4806101E021F48061416019
:104E900070470029416802D041F4805101E021F4BB
:104EA00080514160704708B5084428300090006880
:104EB00080B208BD01238B4041680AB1194300E06C
:104EC0009943416070470246002012680A4200D0B0
:104ED00001207047C9430160704730B50246002089
:104EE00053680C0A01258D4011682B40214202D0E5
:104EF000002B00D0012030BD6FEA11210160704706
:104F0000FFFEFFFCFDF7FFC000200140E030FCFF8A
:104F1000FFFD3FFF2DE9F043016821F00101016031
:104F20000021016041608160C16001612121416116
:104F3000B849B84A3D251039904202D18D60BDE88C
:104F4000F083B44A4FF474661832904201D18E60F7
:104F5000F5E7B04A4FF474173032904201D18F60B8
:104F6000EDE7AC4A4FF0746C4832904202D1C1F880
:104F700008C0E4E7A74BA84A6033984201D1CA6051
:104F8000DDE7A44CA54B7834A04201D1CB60D6E735
:104F9000DFF88082A24C08F19008404501D1CC6036
:104FA000CDE7DFF870824FF03D5908F1A808404581
:104FB00002D1C1F80C90C2E79A49DFF8688208393B
:104FC000404501D10D60BAE7964D1835A84201D190
:104FD0000E60B4E7934D3035A84201D10F60AEE7C3
:104FE000904D4835A84202D1C1F800C0A7E78D4DC9
:104FF0008C496035091FA84201D10A609FE7894AA0
:105000007832904201D10B6099E7864A9032904203
:1050100001D10C6093E7834AA83290428FD1C1F846
:1050200000908CE730B503687F4ACC6813400A686B
:105030002243D1E905452C432243CC6922430C6A23
:1050400022434C6A22438C6A22434C6B22438C6B72
:1050500022431A430260426922F00703D1E90B247C
:1050600022431A4342610A6942604A688260896841
:10507000C16030BD0021016041608160C16001619B
:1050800041618161C161016241628162C16201630A
:105090004163816370470029016802D041F001013A
:1050A00001E021F00101016070470029016802D090
:1050B00041F4004101E021F4004101607047002902
:1050C000016802D041F0200101E021F020010160DF
:1050D000704741607047406880B27047002A02689C
:1050E00002D042F4002201E022F4002202600161B9
:1050F00070470029016802D041F4802101E021F4C9
:105100008021016070470AB101617047C16070473A
:10511000014600200968090300D5012070470146B7
:1051200000200968C90700D001207047406900F0DD
:105130003800704702463B4B00209A4202D2354A63
:10514000103A01E0374A103A8B0001D5526800E06E
:105150001268364B1A400A4200D001207047314A8B
:10516000904202D22B48103801E02E4810382F4AC6
:105170008B0001EA020101D5C16070478160704770
:105180000B0607D5436912B143F0800301E023F019
:1051900080034361802908D0002A026801F01E01C3
:1051A00001D00A4300E08A430260704730B51D4ACF
:1051B0000024904202D2174B103B01E0194B103BE8
:1051C0001B4A114205D01E2202EAD12502682A405C
:1051D00002E0406900F08002880001D5586800E0D4
:1051E0001868124B1840084201D002B10124204631
:1051F00030BD0C4A904202D20648103801E00948FE
:1052000010380A4A8B0001EA020101D5C1607047DB
:1052100081607047106002403D000020400F002078
:1052200000003D20106402403F801CF07D0F7D0F88
:105230003C0F3C0F374900200860091D0860091D1C
:105240000860091D0860334933481431086070470D
:1052500030B530498379026853B30B6893430B60D0
:105260000A1D13680468A343136002790A44136893
:10527000046823431360274A083213680468A34371
:105280001360131D1C680568AC431C604479102C26
:1052900005D021440A68006802430A6030BD1168E5
:1052A000046821431160196800680143196030BD2A
:1052B0000079084401689143016030BD002101601C
:1052C00001710C22427181717047124910310A68D4
:1052D00002430A60704701460E4A002014321268E9
:1052E0000A4200D0012070470A4914310860704713
:1052F000084A014600201268064B0A4014331B6816
:105300000B4202D0002A00D001207047014914311D
:1053100008607047003C0140FFFF7F00FE4910B568
:10532000884206D101210846FFF7DEFB002101205B
:105330005BE0B0F1804F09D0F84988420DD10121DE
:105340000220FFF7C7FB0021022070E00121084680
:10535000FFF7C0FB0021012069E0F149884206D136
:1053600001210420FFF7B6FB002104205FE0ED4996
:10537000884206D101210820FFF7ACFB002108205C
:1053800055E0E949884206D101211020FFF7A2FB30
:10539000002110204BE0E549884206D10121202060
:1053A000FFF798FB0021202041E0E149884206D127
:1053B00001210220FFF798FB0021022015E0DD49C2
:1053C000884202D101210C040AE0DB49884202D163
:1053D00001214C0404E0D94988420AD101218C04FE
:1053E0002046FFF781FB00212046BDE81040FFF773
:1053F0007BBBD349884206D101214020FFF76AFBDD
:105400000021402013E0CF49884206D101218020AD
:10541000FFF760FB0021802009E0CB4988420AD1D8
:10542000841501212046FFF755FB00212046BDE8E9
:105430001040FFF74FBB10BD30B50288B64BBC4CD7
:1054400098420DD0A0420BD0B0F1804F08D0B34DA0
:10545000A84205D0B24DA84202D0B24DA84203D115
:1054600022F070054A882A43AF4DA84206D0AF4DBE
:10547000A84203D022F440750A892A4302804A6870
:10548000C2620A880285984201D0A04201D1897A7D
:1054900001860121818230BD4FF0FF314160002142
:1054A000018001814180817270470185828270474D
:1054B000028822F070020A430280704741627047FE
:1054C000C1627047406A7047008D704700290188AB
:1054D00002D041F0020101E021F002010180704799
:1054E0000029018802D041F0040101E021F004010B
:1054F000018070470029018802D041F0800101E05D
:1055000021F0800101807047028822F008020280A9
:1055100002880A4302807047028822F440720280A7
:1055200002880A43028070470029018802D041F0B6
:10553000010101E021F001010180704730B5028CCA
:1055400022F001020284028C8388048B22F0020282
:1055500024F073050C882C438D8915434A882A430F
:105560006D4DA84202D0724DA8420DD122F008051F
:10557000CA8923F440732A4322F004058A882A4307
:105580000D8A1D434B8A2B438380048389684163C2
:10559000028430BD70B5028C22F010020284028CAD
:1055A0008488038B0D8823F4E6464FF6FF7303EAE5
:1055B000052535438E8922F0200203EA061616439C
:1055C0004A8803EA02123243534EB04202D0584E88
:1055D000B04215D122F08006CA8924F4406403EA5F
:1055E0000212324322F040068A8803EA0212324352
:1055F0000E8A03EA860626434C8A03EA840434436F
:105600008480058389688163028470BD70B5028CD3
:1056100022F480720284028C8488838B0D8823F0AC
:1056200073031D4322F400738E894FF6FF7202EA62
:1056300006261E434B8802EA03233343364EB0420C
:1056400002D03B4EB04215D123F40066CB8924F43E
:10565000405402EA0323334323F480668B8802EA32
:10566000032333430E8A02EA061626434C8A02EAD3
:1056700004143443848085838968C163038470BDC6
:1056800070B5028C22F480520284048C8288838B51
:105690000D8823F4E6464FF6FF7303EA05253543EC
:1056A00024F400568C8903EA043434434E8803EA18
:1056B00006362643184CA04202D01D4CA04205D10C
:1056C00022F480440A8A03EA82122243828085837C
:1056D00089680164068470BD002101804180818059
:1056E00081608181C18101824182704730B501248E
:1056F000058C00F118038C40A543058431B30829BB
:105700002CD0091FC1F34E001844016848F6FF73FE
:105710001940016001681AE00000014000040040E7
:1057200000080040000C0040001000400014004041
:105730000004014000400140004401400048014095
:1057400000180040001C00400020004006E04FF61A
:10575000FF7303EA02221143016030BD03EB5100E5
:1057600001684FF68F73194001600168F3E74163E8
:10577000704781637047C163704701647047028B53
:1057800022F070020A4302837047028B4FF6FF73C8
:1057900022F4E04203EA0121114301837047828B26
:1057A00022F070020A4382837047828B4FF6FF73A8
:1057B00022F4E04203EA0121114381837047028B06
:1057C00022F008020A4302837047028B4FF6FF73F0
:1057D00022F4006203EA0121114301837047828BA6
:1057E00022F008020A4382837047828B4FF6FF73D0
:1057F00022F4006203EA0121114381837047028B86
:1058000022F004020A4302837047028B4FF6FF73B3
:1058100022F4806203EA0121114301837047828BE5
:1058200022F004020A4382837047828B4FF6FF7393
:1058300022F4806203EA0121114381837047028BC5
:1058400022F080020A4302837047028B4FF6FF73F7
:10585000C2F30E0203EA0121114301837047828BD8
:1058600022F080020A4382837047828B4FF6FF73D7
:10587000C2F30E0203EA0121114381837047028CB7
:1058800022F002020A4302847047028C22F00802CE
:105890000A4302847047028C4FF6FF7322F0200205
:1058A00003EA0111114301847047028C4FF6FF7324
:1058B00022F0800203EA0111114301847047028C37
:1058C0004FF6FF7322F4007203EA012111430184B1
:1058D0007047028C4FF6FF7322F4006203EA012145
:1058E000114301847047028C4FF6FF7322F400527B
:1058F00003EA013111430184704710B50123048C80
:105900008B409C430484038C8A401343038410BD62
:1059100010B50423048C8B409C430484038C8A4080
:105920001343038410BD828B22F440628283828BF6
:105930004FF6FF7303EA01210A4382837047828B8B
:1059400022F00C028283828B0A4382837047028B8F
:1059500022F440620283028B4FF6FF7303EA0121B7
:105960000A4302837047F0B5048C24F010040484C9
:10597000078B068C4FF6FF7404EA011527F4734772
:1059800004EA0331394304EA02220A4326F0A00163
:10599000294341F0100102830184F0BD028B22F003
:1059A0000C020283028B0A43028370472DE9F04107
:1059B0000D460E884988AA882B8904460EB3042E0A
:1059C00026D0082E268C4FF6FF7028D026F480565D
:1059D0002684A78B268C00EA022200EA013127F4F4
:1059E00073473A4300EA0330104326F420420A4347
:1059F00042F48051A0832184E9882046BDE8F0412B
:105A000091E700F062F9E9882046BDE8F041C5E77A
:105A1000FFF7A9FFE9882046BDE8F04197E726F4A3
:105A200080762684A78B268C00EA012100EA0310E9
:105A3000104327F0F307384326F420620A4342F468
:105A40008071A0832184E9882046BDE8F04176E793
:105A500000210180418001228280C1800181704744
:105A60002DE9F0410C46002649880746012501B979
:105A70000226A288012A00D1022520882389002835
:105A8000384610D0FFF76FFFE1883846FFF75FFF19
:105A900023892A463146384600F017F9E18838460E
:105AA000BDE8F0417AE700F010F9E1883846FFF7E9
:105AB00075FF23892A4631463846FFF754FFE188AF
:105AC0003846BDE8F04142E7406B7047806B704755
:105AD000C06B7047006C704710B50A884B88CC8843
