:020000040800F2
:1000000098300020294600084502000847020008F1
:10001000490200084B0200084D02000800000000E1
:100020000000000000000000000000009D0100082A
:100030004F02000800000000E10100085F6C0008AA
:10004000434600084346000843460008434600086C
:10005000434600084346000843460008434600085C
:100060001704000863040008434600080103000861
:10007000C30200084D03000843460008750200084B
:10008000434600087D020008434600084346000836
:10009000434600084346000843460008434600081C
:1000A0004346000871030008910300084346000816
:1000B00093030008B3030008D30300084346000875
:1000C000434600084346000843460008130400085E
:1000D000434600085502000843460008434600080E
:1000E00043460008434600084346000843460008CC
:1000F000434600084346000843460008230300081F
:100100004346000843460008F303000815040008AE
:100110004346000843460008570300085F030008F1
:1001200043460008434600089F0200084346000873
:10013000434600084346000843460008434600087B
:10014000434600084346000843460008434600086B
:10015000B902000843460008434600084346000829
:10016000434600084346000843460008434600084B
:10017000434600084346000843460008434600083B
:100180004346000843460008DFF80CD007F004FEA1
:10019000004800472744000898300020234B196886
:1001A0000868B0E8F04F80F309884FF0000080F352
:1001B000118870470000000003480068006880F361
:1001C000088862B600DF00BF08ED00E0DFF80C0031
:1001D000016841F470010160704700BF88ED00E0E4
:1001E000EFF30980114B1A681EF0100F08BF20EDC5
:1001F000108A20E9F04F106008B54FF0140080F32A
:10020000118807F002F84FF0000080F31188BDE874
:10021000084019680868B0E8F04F1EF0100F08BFDA
:10022000B0EC108A80F30988704700BFDC01002021
:10023000EFF311804FF0140181F31188704780F3C0
:10024000118870477047FEE7FEE7FEE7FEE770475C
:100250007047704710B5834C40F22551204605F099
:1002600048FF002805D02046BDE81040202105F0B9
:100270003DBF10BD7C497D4805F04DB870B57B4D44
:100280007B4C30352146284605F022F8002805D061
:1002900021462846BDE8704005F03DB870BD10B558
:1002A0007449754805F037F874484178007841EA98
:1002B00000207349088010BD6F487249483005F02E
:1002C0002AB870B5694D704C483D2146284604F067
:1002D000FFFF002813D02146284605F01CF86B4884
:1002E00001F073FE00280AD1694C0021204605F078
:1002F0003FFE2046BDE87040012105F039BE70BDCB
:1003000070B55A4D634C603D2146284604F0E0FF2D
:10031000002805D021462846BDE8704004F0FBBF08
:1003200070BD70B5514C5C4D48342946204604F0F0
:10033000CFFF002809D00021204604F03EFF2946C7
:100340002046BDE8704004F0E6BF70BD474846490E
:10035000303804F0E0BF0121504805F0A8BC10B5CA
:1003600001214F4805F0A3FC3E497A20888010BD4A
:1003700010B54C4C0121204605F099FC2088C1069F
:100380004948016801D5491E00E0491C016010BDC3
:10039000704710B501218C07204605F088FC2088A5
:1003A000C1064248016801D5491E00E0491C0160B0
:1003B00010BD10B53E4C0121204605F078FC208888
:1003C000C1063C48016801D5491E00E0491C016096
:1003D00010BD10B5384C0121204605F068FC20887E
:1003E000C1063648016801D5491E00E0491C01607C
:1003F00010BD10B5324C0121204605F058FC208874
:10040000C1063048016801D5491E00E0491C016061
:1004100010BD7047704770B5042004F0FBFF002842
:100420001ED02021284804F04EFA284D04212846E9
:1004300004F02AFA1A4C012805D00421284604F0B9
:1004400023FA28B109E00021204605F0C9F804E0AC
:10045000204605F0C9F81E4908601E4904200860BE
:1004600070BD704700100140208000207060024085
:1004700000802020008020104064024014030020EF
:1004800008000020008800200088001032030020AF
:10049000004800402080001000800028001000402C
:1004A00000140040000001400C000020100000205B
:1004B00000040040140000200008004080010020DB
:1004C000000C00408401002000000240000C0240AB
:1004D00088010020143C014070B50546002407F057
:1004E000C1F9FE4902E02A5D0A55641C8442FADB28
:1004F000BDE870400121FA4804F05FBE70B5F94DC7
:1005000006460024315D00290BD0284605F056FD33
:100510008021284605F0E3FD0028F9D0641CE4B2F0
:10052000F0E770BD70B5EF4E05460024002D0DD0EC
:100530002946304605F042FD8021304605F0CFFDCA
:100540000028F9D0641CE4B2032CEFD370BD73B55E
:100550000C460020FFF7E6FFE3A0FFF7CFFFDF48E0
:100560002246E2A1823807F091FCDC488238FFF78E
:10057000C5FFDFA0FFF7C2FFDFA0FFF7BFFFD7482F
:10058000DAA18238009A07F081FCD44E0024D54DC0
:10059000823E2846315D05F011FD4021284605F0D8
:1005A0009EFD0028F9D0641C142CF2DBD2A0FFF7CA
:1005B000A5FFFF20FFF7B6FFFF20FFF7B3FFBDE861
:1005C0007C40FF20AEE770B505460C46C6A0FFF79D
:1005D00095FFC2482246C5A1823807F057FCBF48A4
:1005E0008238FFF78BFFC5A0FFF788FF2846FFF78B
:1005F00085FFC1A0FFF782FFBDE87040FF2091E7B3
:1006000077B5BEA185B00646D1E90001CDE900016C
:10061000B9A0002200680390B3A0B04D0068283D47
:10062000A5F128030290AD4C1146A3F13200A95464
:1006300099548154A154521CD2B21E2AF7D30A21D4
:100640000170FF2444708470C470A448A7A150387E
:10065000079A07F01BFCA14902A8503907F0EAF8F5
:100660009E4802A9823807F0E5F89C48694682381E
:1006700007F0E0F899483146823807F0DBF89748F0
:100680009AA15038069A07F001FC94495039A1F11B
:10069000320007F0CFF8914803A9823807F0CAF872
:1006A0008E492C706C702839AC70A1F15A0007F09B
:1006B000C1F88A488238FFF70FFF08B070BD2DE9F6
:1006C000F74188468DA185B00646D1E90001CDE904
:1006D000000189A000220068039083A07F4D00687C
:1006E000283DA5F1280102901446A1F13200AC5436
:1006F0008C548454521CD2B20A2AF8D30A210170B5
:10070000FF2747708770C770744878A15038079AE0
:1007100007F0BCFB714902A8503907F08BF86F480D
:1007200002A9823807F086F86C486946823807F0DB
:1007300081F86A483146823807F07CF867484146BC
:10074000823807F077F8654803A9823807F072F815
:100750002F706F706149AF70EC7028392C71A1F166
:100760005A0007F067F85D488238FFF7B5FE08B019
:10077000BDE8F08170B50020FFF7D4FE5AA0FFF766
:10078000BDFE56480D2259A1823807F07FFB534821
:100790008238FFF7B3FE59A0FFF7B0FE594C202175
:1007A000204604F071F802464C4850A1823807F008
:1007B0006DFB4A488238FFF7A1FE1021204604F065
:1007C00063F80246454849A1823807F05FFB434879
:1007D0008238FFF793FE4C4D8021284604F054F8F0
:1007E00002463E4841A1823807F050FB3B48823820
:1007F000FFF784FE4021284604F046F802463748B9
:100800003AA1823807F042FB34488238FFF776FE7F
:100810004FF40041204604F037F802462F4833A138
:10082000823807F033FB2D488238FFF767FE4FF41C
:100830008041204604F028F8024628482BA182383F
:1008400007F024FB25488238FFF758FE4FF400518B
:10085000204604F019F80246204824A1823807F007
:1008600015FB1E488238FFF749FE4021274804F057
:100870000BF8024619481DA1823807F007FB1748FC
:100880008238FFF73BFE1CA0FFF738FEFF20FFF782
:1008900049FEFF20FFF746FEBDE87040FF2041E61D
:1008A000FEB51BA10646D1E90001CDE900011AA061
:1008B00000210A4D0068283DA5F1280202900C464F
:1008C000A2F132006C5454544454491CC9B2322928
:1008D000F8D30A210170FF2747701FE0D2020020E1
:1008E000B860024000500040740000002564000021
:1008F0002E7478743D000000220000002E7478747D
:100900003D220000000802400000024000100240AA
:100910002E76616C3D0000006A0000008770C77091
:100920000022AFF23801FE4807F0B0FAFC4902A8F5
:1009300006F080FFFA4802A9323806F07BFFF8483B
:100940006946323806F076FF3246AFF26001F4486D
:1009500007F09CFAF249A1F1320006F06BFF2F700C
:100960006F70EF49AF70EC7028312C71A1F15A0013
:1009700006F060FFEA483238FFF7AEFDFEBD70B505
:100980000D46044606F020FF291B491C90FBF1F29E
:1009900001FB1200204470BD2DE9FC41E14F3846B7
:1009A00004F022FEE04D6969642640EA014090FBB4
:1009B000F6F000240190384604F016FE696940EA1A
:1009C000014090FBF6F001990090401A00D540429A
:1009D000322800DA641C00980190022CEBDB0098AE
:1009E000002800DA4042BDE8FC812DE9FC41CF4FF0
:1009F000384604F0F9FDCC4DE968642640EA014030
:100A000090FBF6F000240190384604F0EDFDE96813
:100A100040EA014090FBF6F001990090401A00D5A1
:100A20004042322800DA641C00980190022CEBDB73
:100A300000980028D7DA4042D5E72DE9FC414FF075
:100A40008047384604F0D0FDB74D2969642640EA56
:100A5000014090FBF6F000240190384604F0C4FDFC
:100A6000296940EA014090FBF6F001990090401A94
:100A700000D54042322800DA641C00980190022C14
:100A8000EBDB00980028AEDA4042ACE770B5FFF728
:100A900083FF0546FFF7D1FF0446FFF7A6FF002DB1
:100AA00000DA6D42002800DA40422844002C00DAC7
:100AB0006442204470BD01B581B0019800EBC000D4
:100AC00040000090002801D0401EFAE70CBD01B59F
:100AD00081B044F25061019848430090002801D051
:100AE000401EFAE70CBD2DE9FC4101211F2004F056
:100AF00033F801248DF8044000268DF806604FF687
:100B0000FF758DF80740032700958DF8057069463D
:100B1000874803F053FE8DF804408DF806608DF889
:100B2000074000958DF805706946824803F046FE3F
:100B30008DF804408DF806608DF8074000958DF81B
:100B4000057069467C4803F039FE4CE77CB501210D
:100B50007E2004F001F80024FC208DF804400125DB
:100B600000908DF8075002268DF80560694673489D
:100B700003F024FE48F206008DF8044000908DF842
:100B800007508DF805606946694803F017FE46F680
:100B9000C4408DF8044000908DF807508DF8056032
:100BA0006946644803F00AFE03208DF80440009073
:100BB0008DF807508DF8056069465F4803F0FEFD2B
:100BC0004FF2FF508DF8044000908DF807508DF8DB
:100BD000056069465A4803F0F1FD7CBD1FB54FF42E
:100BE000E06003F033FD36208DF80C0000248DF812
:100BF0000D408DF80E4001208DF80F0003A803F082
:100C00002AFD0121102003F0C5FF3220ADF80000BD
:100C1000ADF80840ADF8024040F2E730494C019091
:100C20006946204604F09AFC0121204605F03FF871
:100C300001221146204605F01AF80021204604F052
:100C4000CFFC0121204604F001FD1FBD1FB54FF46C
:100C5000E06003F0FBFC37208DF80C0000248DF8D9
:100C60000D408DF80E4001208DF80F0003A803F011
:100C7000F2FC0121202003F08DFF4FF4FA70ADF853
:100C80000000ADF80840ADF8024040F2E7302E4CCD
:100C900001906946204604F061FC0121204605F0E0
:100CA00006F801221146204604F0E1FF002120460B
:100CB00004F096FC0121204604F0C8FC1FBD70B56D
:100CC0008AB00121022003F06FFF01210C2003F004
:100CD00043FF184E03220621304603F0F8FD03229D
:100CE0000721304603F0F3FD03220821304603F0CC
:100CF000EEFD03220921304603F0E9FD4FF4707048
:100D0000059002208DF8180003208DF819000024AA
:100D10008DF81A4001258DF81B5005A9304615E0C5
:100D2000820200200004004000000020000001407A
:100D30000004024000080240000C02400000024093
:100D400000100240001000400014004003F036FD87
:100D5000A420ADF81C0028020890ADF82400ADF8DE
:100D60001E4007A9FE4E304604F0F8FB6020ADF8A7
:100D70000000ADF802500294ADF80C40012130465D
:100D800004F064FC0021304604F02AFC6946304639
:100D900004F066FC6946304604F08EFC6946304635
:100DA00004F0C6FC6946304604F0FCFC01213046E4
:100DB00004F03EFF0AB070BD70B58AB00121042076
:100DC00003F0E8FE01210D2003F0C6FEE54E0222ED
:100DD0000C21304603F07BFD02220D21304603F04A
:100DE00076FD02220E21304603F071FD02220F2112
:100DF000304603F06CFD4FF47040059002208DF8F2
:100E0000180003208DF8190000248DF81A400125E0
:100E10008DF81B5005A9304603F0D0FCA420ADF896
:100E20001C002802D04E0890ADF82400ADF81E40FA
:100E300007A9304604F092FB7020ADF80000ADF831
:100E400002500294ADF80C400121304604F0FEFB44
:100E50000021304604F0C4FB6946304604F000FC33
:100E60006946304604F028FC6946304604F060FCD0
:100E70006946304604F096FC9CE730B5012187B006
:100E8000080403F091FE0121084603F065FE0024EA
:100E90004FF6FF70B54DADF800400190ADF8084039
:100EA000ADF802406946284604F058FB0420ADF82E
:100EB0000C00C820ADF814000120ADF81000ADF80A
:100EC0000E4003A9284604F003FEA94C00231A464D
:100ED0000321204604F065FF0121204604F0E7FECF
:100EE00001221146204604F0C2FE0121284604F0EA
:100EF000ADFB0021204604F073FB07B030BD2DE9A7
:100F0000F04701218AB0084603F044FE0121022087
:100F100003F040FE0121032003F01EFEDFF854928F
:100F200001220F21484603F0D2FCDFF84C82012257
:100F30000321404603F0CBFC02220421404603F08B
:100F4000C6FC02220521404603F0C1FC02268DF8B2
:100F50000460032738208DF80570002400908DF878
:100F6000064001258DF807506946404603F026FCEF
:100F70008DF80460E8038DF8057000908DF8064048
:100F80008DF807506946484603F018FC4FF6FF708D
:100F9000ADF80C4004904FF08049ADF81440ADF826
:100FA0000E4003A9484604F0D9FADFF8D0A103A9FE
:100FB000504604F0D3FA4FF004081420ADF818801E
:100FC000ADF82000ADF81A60ADF81C5006A94846EF
:100FD00004F07EFD06A9504604F07AFD02231A466D
:100FE0000321484604F0DDFE02231A460321504641
:100FF00004F0D7FE0121484604F059FE0121504675
:1010000004F055FE01221146484604F030FE01224C
:101010001146504604F02BFE0121484604F016FB11
:101020000121504604F012FB0021484604F0D8FA92
:101030000021504604F0D4FA780203F007FB1D208B
:101040008DF808008DF809708DF80A408DF80B5066
:1010500002A803F000FB1C208DF808008DF8098021
:101060008DF80A408DF80B5002A803F0F4FA0AB08C
:10107000BDE8F08770B501218AB0084603F094FD01
:101080000121102003F068FD4FF420600090022041
:101090008DF8040003208DF805000024384E8DF8EB
:1010A000064001258DF807506946304603F086FB5F
:1010B00001220921304603F00AFC01220B213046AF
:1010C00003F005FC4FF6FF70284EADF80840039082
:1010D000ADF81040ADF80A4002A9304604F03EFADF
:1010E0000420ADF814000A20ADF81C00ADF816403D
:1010F000ADF8185005A9304604F0EAFC00231A4662
:101100000321304604F04DFE0121304604F0CFFDAE
:1011100001221146304604F0AAFD0121304604F0B8
:10112000C6FD01221146304604F0A1FD01213046E2
:1011300004F08CFA0021304604F052FA4FF4C060FB
:1011400003F084FA19208DF820008DF821508DF8D5
:1011500022408DF8235008A803F07DFA2AE600000B
:1011600000040140000C0240000800400000014063
:101170000040014000000240000402400004004022
:1011800000100240F0B59BB00121FE4803F0E4FCE2
:1011900001210D02284603F007FDFB480024CDE99C
:1011A0000040FA4802A9082681E85100A800CDE9CC
:1011B0000540400007908000CDE908050AA900011C
:1011C000012581E83100F24F0D94694638460E94AE
:1011D00003F0BAFF0121384603F0EFFF3C201990DD
:1011E00003208DF868008DF86B4019A9E94803F0D9
:1011F000E5FA4FF44030CDE915404FF47060CDE989
:10120000174015A803F0A5FD119412941394280615
:10121000DD4C0F908DF840504C3C8DF841508DF8CE
:1012200050600FA9204603F069FD0423012202212A
:10123000204603F0D8FD042302220321204603F0B8
:10124000D2FD042303221946204603F0CCFD0423DB
:101250001A460521204603F0C6FD042305220C2171
:10126000204603F0C0FD042306220D21204603F092
:10127000BAFD042307220E21204603F0B4FD042307
:1012800008220F21204603F0AEFD0121204603F085
:1012900027FE0121204603F019FE0121204603F01C
:1012A0006FFD204603F0D9FD1BB0F0BD08B54FF42B
:1012B000E06003F0CBF925208DF8000000208DF8C8
:1012C00001008DF8020001208DF80300684603F04C
:1012D000C2F908BD70B5054696B00121102003F093
:1012E00063FC0121084603F037FC0121880503F067
:1012F00033FC4FF4C060139002208DF8500000249E
:101300008DF852408DF85340A34E8DF8510013A92B
:10131000304603F053FA07220921304603F0D7FA8A
:1013200007220A21304603F0D2FA0F95ADF8444067
:101330000C209A4DADF84040ADF84600ADF8424063
:10134000ADF848400FA9284604F0A1FD0121284628
:1013500004F00EFE4FF4A06003F078F93A208DF807
:1013600054008DF855408DF8564001208DF85700F7
:1013700015A803F070F9864E3036304603F05CFE57
:101380004FF000600090814869461030CDE90204BA
:101390000A200490281D01900015CDE90540801019
:1013A000CDE9084040020A9004200B9007940320E6
:1013B000CDE90C0430460E9403F0C6FE0122402114
:1013C000284604F06CFE01221021304603F06AFF2B
:1013D0000121304603F0F1FE16B070BDF0B50646AF
:1013E000012197B0480503F0B7FB01214D042846C1
:1013F00003F0D0FB0121082003F0AEFB6020139026
:1014000002208DF8500000248DF852408DF8534092
:10141000634F8DF8510013A9384603F0CFF9072226
:101420000521384603F053FA07220621384603F017
:101430004EFA0F96ADF844400C205A4EADF840409D
:10144000ADF84600ADF84240ADF848400FA930462F
:1014500004F01DFD0121304604F08AFD4FF4A06028
:1014600003F0F4F811208DF854008DF855408DF8F4
:10147000564001208DF8570015A803F0ECF84A4FAC
:10148000384603F0D9FDA802009040200390474859
:1014900002903C200490301D01900015CDE90540DC
:1014A0008010CDE908400420CDE90A5007940320BC
:1014B000CDE90C04694638460E9403F045FE01223E
:1014C0008021304604F0EBFD01228021304604F0FB
:1014D000E6FD01221021384603F0E4FE01213846E2
:1014E00003F06BFE17B0F0BD70B50546012196B054
:1014F000880403F04FFB0121082003F02DFB01219C
:10150000480503F029FB4FF44070139002208DF83A
:10151000500000248DF852408DF85340204E8DF835
:10152000510013A9304603F049F90722082130463B
:1015300003F0CDF907220921304603F0C8F90F95D1
:101540001B4EADF84040ADF844400C25ADF842408C
:10155000ADF84840ADF846500FA9304604F097FC6E
:101560000121304604F004FD4FF4A06003F06EF852
:101570008DF854508DF855408DF8564001208DF867
:10158000570017E0050040004C20014004030020F4
:1015900010640240000802400000024000100140B8
:1015A000000C024000440040A06002400401002002
:1015B0000048004015A803F04EF8FB4D284603F004
:1015C0003BFD4FF000600090F848CDE90204082090
:1015D0000490301D01900015CDE905408010CDE943
:1015E000084040020A9004200B9007940320CDE9A4
:1015F0000C04694628460E9403F0A6FD0122402102
:10160000304604F04CFD01224021304604F047FDF5
:1016100001221021284603F045FE0121284603F04F
:10162000CCFDD9E6F0B50646012197B0C80403F019
:10163000B1FA0121084603F08FFA0121480503F0B1
:101640008BFA02208DF8500000248DF852408DF85E
:101650005340D74F03258DF85100139513A93846F1
:1016600003F0ACF808220021384603F030F90822D4
:101670000121384603F02BF90F96ADF844400C20B9
:10168000CC4EADF84040ADF84600ADF84240ADF864
:1016900048400FA9304604F0FAFB0121304604F01F
:1016A00067FC4FF4A06002F0D1FF0D208DF85400CC
:1016B0008DF855408DF8564001208DF8570015A83B
:1016C00002F0C9FFB84F1837384603F0B5FC78056B
:1016D0000090B64869460F38CDE90204082004900E
:1016E000301D01900015CDE905408010CDE908407E
:1016F000400207940A900420CDE90C540B90384620
:101700000E9403F021FD01224021304604F0C7FC75
:1017100001224021304604F0C2FC0122102138464B
:1017200003F0C0FD0121384603F047FDDAE62DE95C
:10173000F0418046012196B0480503F00DFA0121E1
:10174000080503F027FA01210C2003F005FA022511
:101750008DF8405000248DF84240974F04268DF8B4
:1017600043400F968DF841500FA9384603F026F8F4
:101770008DF840508DF842408DF84340E8028DF8D6
:1017800041508E4D0F900FA9284603F017F80822FC
:101790000221384603F09BF808220C21284603F06A
:1017A00096F84FF4A06002F051FF2F208DF85400FE
:1017B00005208DF855008DF8560001208DF8570052
:1017C00015A802F048FFADF84C400C207C4DADF858
:1017D0004840ADF84E00CDF84480ADF84A40ADF831
:1017E000504011A9284604F052FB0121284604F07C
:1017F000BFFB6D4F9037384603F01EFC700600901B
:101800004020039069486946603802903120049076
:10181000281D01900015CDE905408010CDE9084054
:101820004002CDE90A0607940320CDE90C043846AE
:101830000E9403F089FC01228021284604F02FFC3D
:1018400001221021384603F02DFD0121384603F016
:10185000B4FC16B0BDE8F08130B585B00121082098
:1018600003F07AF90121880303F09EF900240C208B
:101870008DF81040012503908DF8135003A94E48B0
:1018800002F09CFF0221032004F073FC042000906E
:101890008DF8044010208DF805008DF8065068463C
:1018A00003F068FD08208DF808008DF809408DF8D8
:1018B0000A408DF80B5002A802F0CDFE05B030BDF5
:1018C00010B5012810D0032819D0042822D00528EB
:1018D00009D13B4C204604F071FB4021204604F026
:1018E000FEFB0028F9D010BD364C204604F066FB04
:1018F0004021204604F0F3FB0028F9D010BD324C03
:10190000204604F05BFB4021204604F0E8FB002861
:10191000F9D010BD274C204604F050FB4021204652
:1019200004F0DDFB0028F9D010BD284900204862F2
:101930002749C8604FF0804250620861254A106014
:101940004861704770B5224D00202871044661211E
:101950000120FFF7B5FF3220FFF7B9F8641C022C15
:10196000F5D3012028717A20E87070BD10B561218F
:101970000120FFF7A5FFBDE810400A20FFF7A7B838
:1019800070B5134D0020A871044661210320FFF7B4
:1019900097FF3220FFF79BF8641C022CF5D301203F
:1019A000A8717A20687170BD28600240320300205F
:1019B00000000240004C0040000C024000080240C1
:1019C000005000400010014000480040000001406D
:1019D00000000020240400402DE9F14195B00020D2
:1019E00014908DF800008DF82800F348F14CA0F118
:1019F0008003DDF854C0EE4FF04AA614D96A4FF4C4
:101A00000045BCF1120F74D2DFE80CF009282C322B
:101A1000363C40444A50565A5F63686B74C7022193
:101A2000384602F031FF60B101222946204602F01B
:101A300043FF2946204602F031FF01460022E0A084
:101A400055E000222946204602F036FF294620466E
:101A500002F024FF01460022E0A048E0416C012290
:101A6000E6A044E0FFF712F801460222E5A03EE0BE
:101A7000C16F0322E7A03AE0CF480422803001681A
:101A8000E7A034E0816F0522E8A030E00622EAA05A
:101A9000596C2CE0C848F03007220179E9A026E013
:101AA000FEF77AFF01460822E9A020E0FEF79DFF3D
:101AB00001460922E8A01AE00A22E9A0996A16E084
:101AC00052F821100B22EAA011E011680C22EEA0BE
:101AD0000DE052F821100D22F1A008E00E22F6A030
:101AE00005E0B6480F22183050F82110F5A0FEF797
:101AF00087FDAEE6F74C0121204602F0C5FE024606
:101B0000F5A1684606F0C2F969460AA805F092FEFA
:101B10000221204602F0B8FE0246EFA1684606F018
:101B2000B5F969460AA805F085FE2946204602F067
:101B3000ABFE0246E8A1684606F0A8F969460AA885
:101B400005F078FE0821204602F09EFE0246E2A142
:101B5000684606F09BF969460AA805F06BFE10215D
:101B6000204602F091FE0246DBA1684606F08EF99F
:101B700069460AA805F05EFE3146204602F084FE62
:101B80000246D5A1684606F081F969460AA805F023
:101B900051FE10220AA9D1A0DCE02946384602F005
:101BA0007DFE0246CCA1684606F070F969460AA897
:101BB00005F040FE4FF48041384602F06FFE0246C9
:101BC000C5A1684606F062F969460AA805F032FE2A
:101BD0004FF40051384602F061FE0246BEA168464D
:101BE00006F054F969460AA805F024FE3146384645
:101BF00002F054FE0246B8A1684606F047F969466D
:101C00000AA805F017FE4FF400684146384602F076
:101C100045FE0246B0A1684606F038F969460AA8B2
:101C200005F008FE4FF48061384602F037FE0246A8
:101C3000A9A1684606F02AF969460AA805F0FAFD46
:101C40004FF400712546204602F028FE0246A2A16C
:101C5000684606F01BF969460AA805F0EBFD4FF44B
:101C600080742146284602F019FE02469AA1684671
:101C700006F00CF969460AA805F0DCFD2146984CEF
:101C8000204602F00BFE024693A1684606F0FEF8DD
:101C900069460AA805F0CEFD0121204602F0FEFDAE
:101CA00002468DA1684606F0F1F869460AA805F0DB
:101CB000C1FD0221204602F0F1FD024686A16846E0
:101CC00006F0E4F869460AA805F0B4FD012138469B
:101CD00002F0E4FD024680A1684606F0D7F86946A6
:101CE0000AA805F0A7FD4146204602F0D7FD0246AE
:101CF00079A1684606F0CAF869460AA805F09AFD77
:101D00003146204602F0CAFD024673A1684606F03D
:101D1000BDF869460AA805F08DFD8021384602F01D
:101D2000BDFD02466CA1684606F0B0F869460AA8F7
:101D300005F080FD4021384602F0B0FD024666A164
:101D4000684606F0A3F869460AA805F073FD11225B
:101D50000AA964A0FEF7B3FC7BE50121624803F009
:101D60002CBA11B41448416F009A914201DD002150
:101D700001E0416F491C4167406F18BC2CE62DE91A
:101D8000F0470025594E074601244FF400594FF4FF
:101D900080484FF4805A00224146304602F08CFDC4
:101DA0001020FEF788FE274201D00122A1E09FE02B
:101DB00000040240000802408000002020020020B1
:101DC000524F424F542044414E47204348415920EE
:101DD00053414E20444F3A2020200000524F424FA2
:101DE000542044414E4720434841592053414E20FE
:101DF00058414E483A20202000000000494D553AF5
:101E000000000000454E434F4445525F544F4E473B
:101E10003A0000006C617A6520646F3A200000008F
:101E20006C617A652078616E683A00006C617A6551
:101E30002073617500000000646F206C617A653A60
:101E4000000000004C4A4F595F4C523A000000001D
:101E500030683A200000000034683A20000000009A
:101E60006269656E2076652078703A200000000077
:101E7000626F6E672074726F6E672073696C6F207B
:101E8000736F3A2000000000626F6E672074726FFB
:101E90006E672073696C6F5B305D3A200000000054
:101EA000626F6E672074726F6E672073696C6F5F0C
:101EB000736F3A200000000073696C6F5F736F3AB4
:101EC000200000006269656E206461207468613AD8
:101ED000200000000010024025640000493A000084
:101EE000000002404F3A0000A0600240000C024097
:101EF00000224946304602F0DFFC012241463046CE
:101F000002F0DAFC1020FEF7D6FD5146304602F012
:101F1000BBFC00B12543600010F0FF047FF43BAF31
:101F20002846BDE8F08770B54FF4004500222946E9
:101F3000FE4E304602F0C0FC1020FEF7BCFD012032
:101F4000FFF71DFF4220FFF71AFFFF20FFF717FFE3
:101F5000FF20FFF714FFF64C2070FF20FFF70FFF64
:101F60006070FF20FFF70BFFA070FF20FFF707FF57
:101F7000E070FF20FFF703FF2071FF20FFF7FFFE57
:101F8000607129463046BDE87040012202F094BCE1
:101F900070B5E64E4FF4004500222946304602F067
:101FA0008BFC1020FEF787FD0120FFF7E8FE4220A2
:101FB000FFF7E5FE044601222946304602F07CFC8C
:101FC0001020FEF778FD2046EDE4DA4A0021916406
:101FD000C279D7490D2A09D0FF200870487088704F
:101FE000C8700871487188710020704702780A70C3
:101FF00042784A7082788A70C278CA7002790A710F
:1020000042794A718079887101207047C848C9496E
:102010000278FF2A05D14278FF2A02D18278FF2A6E
:1020200009D08A6C531C8B64C82A03DDFF21017020
:10203000417081707047002088647047BC48807987
:102040007047BB480078400601D40120704700204B
:102050007047B7480078C00601D4012070470020BF
:10206000704770B5B34B0125002693F87C4003F50B
:102070008273002803D004DDD8709D7005E0DC7009
:1020800003E0C0F10000D8709E70002903D004DD89
:10209000D9719D7105E0DC7103E0C1F10000D871D8
:1020A0009E71002A03D004DDDA729D727BE4DC723B
:1020B00079E4C2F10000D8729E7274E49C496C39D4
:1020C000C870C871C87270479A4901208867704704
:1020D00097486C38C178032907D2C179032904D203
:1020E000C07A032801D20120704700207047914830
:1020F0008030406AA0F5EA41303901D001207047B4
:10210000002070471EE48B48B0F908004042704739
:102110008848B5EEC00AD0ED140AF1EE10FA02D2EA
:1021200030EE600A01E030EE200ABDEEC00A10EE8B
:10213000100A704710B5041E7E482DED048B00F187
:1021400080009FED7D8B11D0006914DA05F019FD38
:1021500041EC190B204605F014FD53EC182B05F04B
:102160002FFC53EC182B05F025FC13E09FED740AAF
:10217000BDEC048B10BD05F004FD41EC190B2046AD
:1021800005F0FFFC53EC182B05F01AFC53EC182B50
:1021900005F06FFB53EC192B05F084FC05F015FDE1
:1021A00000EE100AE4E7B5EEC00AF1EE10FA01DA2B
:1021B000B1EE400A7047002800DA404270475D499E
:1021C00091ED1C0AD1ED1D1AF1EE400A80EEA11A24
:1021D00000EE900AF8EEE00A01EE200ABDEEC00A19
:1021E00010EE100A7047F0EE401A9FED560AF5EE19
:1021F000C01AF1EE10FA01D2F1EE611AF5EEC00A42
:10220000F1EE10FA01D2F1EE600AB5EEC01AF1EE6D
:1022100010FA01D2B1EE411AF4EEC01AF1EE10FA42
:1022200001DDB0EE610AF4EEC00AF1EE10FA01DD54
:10223000B0EE600AB4EEC01AF1EE10FA01DDB0EEB5
:10224000410A70473B488030006970473948803008
:10225000C06B704770B5374C364D80342DED048B14
:10226000B0EE408A606AA0F5EA4130396CD0226B4A
:10227000616CD4ED0D0A891A401A00EE100A95ED32
:10228000171AA06BB8EEC00A00EEC10AD5ED160A07
:10229000C0EE208A05F086FC94ED010A41EC190B92
:1022A00020EE280A10EE100A05F07CFC41EC100B21
:1022B00005F01AFE51EC100B81F0004153EC192B84
:1022C00005F078FB05F081FC2065A06B05F06AFC49
:1022D00095ED180AD4ED010A41EC190B38EE800A8D
:1022E00020EE200A10EE100A05F05CFC41EC100B09
:1022F00005F0FAFD53EC192B51EC100B05F05AFBCD
:1023000005F063FC606595ED190AD4ED010A38EE1D
:10231000800A20EE200A10EE100A05F043FC41EC82
:10232000100B05F0E1FD51EC100B0EE0000C02402B
:1023300070010020000000209A9999999999B93F5D
:10234000000000006F12833A16E005F03EFC00EE3C
:10235000100AB1EE400A84ED160A00BFB5EEC08A3D
:10236000F1EE10FA37D0E06878B1012813D00228D6
:1023700018D003282FD122E01FED0F0A84ED160A92
:1023800084ED150A84ED140AE8E794ED140A30EEA2
:10239000480A84ED140A94ED150A30EE480A84EDDB
:1023A000150A05E094ED140A30EE480A84ED140A8B
:1023B00094ED160A30EE480A84ED160A0BE094ED0F
:1023C000140A30EE480A84ED140A94ED150A30EE32
:1023D000480A84ED150A04F1500090EC030AFFF757
:1023E00002FFD5ED130AF8EEE00A80EE801ABDEE8A
:1023F000C10A10EE100AA0612169814200DD20614E
:102400000120A060BDEC048BDEE5F9490022002824
:102410004A61C86111D10A611FED370A47F2305095
:1024200081ED0E0A4862886281ED0D0ACA60CA62B7
:10243000A1F18000CA6382670CE77047EC4890ED19
:102440000D0AB5EEC00AF1EE10FA04D1C16811B957
:10245000C16A002909D01FED460A002180ED0D0A4E
:10246000C160C162416C0163F4E67047E0488038A6
:10247000C0ED1C0A80ED1D0A7047DD4A536A834295
:1024800009D153698B4206D1D2ED0E0AF4EE400A0F
:10249000F1EE10FA0ED05161116909B905211161EF
:1024A000516C116382ED0E0A50620020106292EDB1
:1024B0000D0ACFE67047CE4A30B4D36A834209D1C1
:1024C000D2ED0D0AF4EE400AF1EE10FA02D1D36813
:1024D0008B4226D0546A47F230539C4219D13224A1
:1024E000546105241461984213DAB5EEC00A012341
:1024F000F1EE10FAD36302DD536C834207DCB5EED4
:10250000C00AF1EE10FA04D2536C834201DAB1EE44
:10251000400AD160D06282ED0D0A0020106230BC0A
:1025200098E630BC7047014647F23050C3E71FEDD4
:102530007C0AA2E710B5AE4C2DED028BF0EE608A5E
:10254000D4ED0A0AB0EE418AF8EEE00AF4EE400A51
:10255000F1EE10FA0BD16169814208D1D4ED0B0A7A
:10256000F8EEE00AF4EE680AF1EE10FA4BD0FDEE58
:10257000C00AC4ED0A0AD4ED110AF8EEE00A30EE02
:10258000600ABDEEC00A10EE102A1FED930A014644
:102590001046FFF772FF94ED110AF8EEC00A78EECC
:1025A000E00AFDEEE00A10EE900A002800DA404250
:1025B000B8EEC00A642819DDF4EEC08AF1EE10FA14
:1025C00001DCB1EE488A18EE100A05F0EBFA00BF04
:1025D00005F0FBFAFDEEE80ABDEC028B00EE100AF6
:1025E000BDE81040002110EE900A64E738EEC00A02
:1025F00010EE100A05F0D6FA9FED7E1B53EC112B5E
:1026000005F0DEF9E4E7BDEC028B10BD784910B5AA
:10261000C86B012828DD4A6CC86A801AFFF7CBFD19
:10262000042809DAC86B421CCA63B0F57A7F1BDD47
:10263000BDE810400020E8E60520CA6B4861B2F50D
:10264000FA7F086102DD40F2F510C863CA6A486C7F
:10265000904202DDBFEE000A01E0B7EE000A81ED14
:102660000D0ABDE81040F5E510BD70B5604991ED6B
:102670000E0AB5EEC00AF1EE10FA73D10B69002B09
:1026800070D0C86A47F23054A0426BDA91ED0D0A5F
:10269000B5EEC00AF1EE10FA7DD04D6AA1F18002CC
:1026A000A54260D1B5EEC00A1346F1EE10FADB6E1A
:1026B00003DD4D6CC41AAC4208DBB5EEC00AF1EE86
:1026C00010FA17D24C6C0344A34213DDCB6B032BDF
:1026D00048DA4B6CC01AFFF76EFD0A28C86A0ADA9E
:1026E0000864002008611FEDEA0A486181ED0D0AC7
:1026F0000220C86379E091ED040AD1ED0D0A4B6C1C
:10270000B8EEC00A984260EE200A92ED1B0AB8EEBD
:10271000C01A80EE810A0FDDFFF745FD4B6CC86AD9
:10272000C01AFFF748FD00EE900AB8EEE01AD2EDAD
:10273000150A40EE010A0EE0FFF735FD4B6CC86A42
:10274000C01AFFF738FD00EE900AB8EEE01AD2ED9D
:10275000150A50EE410A91ED040AB8EEC01A80EE57
:10276000810A42E04CE0224AB5EEC00A803AD2ED3E
:102770001A0AF1EE10FA18DD01EE100AF8EEC11A8D
:1027800001EE103AB8EEC11A41EE401AB8EEE01A66
:1027900071EEC11A00E031E091ED111AB8EEC11AE4
:1027A000F4EEC11AF1EE10FA1BD3B5EEC00AF1EE49
:1027B00010FA1AD201EE100AF8EEE00AF8EEC11A89
:1027C00001EE103AB8EEC11A41EE401A31EEA01AED
:1027D000D1ED110AF8EEE00AB4EEE01AF1EE10FACB
:1027E00003DD496C401AFFF7A5FCBDE8704031E5F8
:1027F000800000207B14AE47E17A743F086BF0E75D
:1028000054E4F84910B4C86B02280CDA9FEDF60ABC
:10281000002281ED0E0A81ED0D0A47F23050CA60A8
:102820004862C1E90A020C6AEE4A641C0C62803AF2
:102830000B68D06F9C4202DB0B62916F09B110BC38
:102840003CE40020FBE7E74A136A5B1C1362834207
:1028500004DD10690844106100201062704710B553
:10286000FFF751FCDF4C6064FFF7D0FE626920691E
:102870004FF0FF31002A0BDD90420ED006DAA1693D
:1028800088420ADAFFF79BFC012104E0E06C02E0D9
:10289000002831DDE069FFF7D6FFD4E9110181425C
:1028A00003D0FFF7E2FE606CA064A068002826D089
:1028B00094ED040AD4ED160AB8EEC00A20EE200A00
:1028C000FFF726FC94ED040AD4ED150A0246B8EE93
:1028D000C00A20EE200AFFF71BFC94ED040AD4ED99
:1028E000140A0146B8EEC00A20EE200AFFF710FCD9
:1028F000BDE81040FFF7B5BBBDE8104081E710BD53
:102900002DE9F047B74AF0329078401FF52801D8FA
:10291000012500E000251079401FF52801D8012687
:1029200000E00026AF49107801F1F001C3064978B4
:102930000DD543060BD5830609D5030607D535B15A
:102940002EB18B0603D5BDE8F04702205DE54B07AD
:1029500002D43221142403E0C90715D01E210A2411
:102960009246A04FC20647F23058A7F180094FEABD
:1029700040620CD4002A46DA82064FEA006020D575
:10298000002823DA002029E00A210724E8E7002AAA
:102990004FEA806208DB002A4FEA006018DA00285C
:1029A0001BDA4FF4E16019E0002A4FEA006004DB13
:1029B000002828DA4FF4617010E000281ADB8B48F9
:1029C0000CE000281FDA4FF4E17007E0884805E0CA
:1029D000002818DA40F2465000E08648FFF7A7FDCD
:1029E0009AF80000C1060ED541060CD581060AD51D
:1029F000000608D545B956B1796A414507D005208A
:102A0000FFF703FD03E015B1FFF718FD2BE09AF87F
:102A100002100122504605290FD24378DB070CD063
:102A2000796A414503D00020BFEE080A11E089F819
:102A3000002022461146084613E0FA2919D99AF8CF
:102A40000100C00715D0796A414505D00020B7EED6
:102A5000080AFFF768FD06E089F800206242104688
:102A60001146FFF7FEFA002189F80010BDE8F04793
:102A7000E4E4022211461046F3E730B55948142425
:102A80005D4AC56D691CC16501460B6E0021142DA0
:102A900003D2D5892B44036604E0B3FBF4F3C1658C
:102AA00083670166456E6B1C43664E4B642D9B6EBF
:102AB00003D295892B44836605E06425B3FBF5F3C7
:102AC0004166C3678166C56E6B1CC366454B142D9A
:102AD0001B6F02D25189194405E0B3FBF4F2414B5C
:102AE00080331A60C166016730BD70B53D49FE2074
:102AF000803901F5B87488616078404DC0064FF4A4
:102B0000806604D401223146284601F0D5FE607863
:102B1000400604D400223146284601F0CDFE6078FC
:102B20004FF40066800604D400223146284601F0A6
:102B3000C3FE6078000604D401223146284601F025
:102B4000BBFE60782E4E40074FF4807504D40122FE
:102B50002946304601F0B0FE6078C00706D129460C
:102B60003046BDE87040002201F0A6BE48E670473E
:102B70007047704770B50D462DED048B0646144620
:102B8000F0EE418AB0EE609AB0EE408A02211B4816
:102B900001F07AFE78EE281A38EE680A9FED191ACD
:102BA000012808D00F4880300068401BA04217DD84
:102BB000B0EE610A06E00B48C06FA0EB0500A04232
:102BC000F6DC03DAF0EE490A304604E0F0EE490A9A
:102BD0003046B0EE480ABDEC048BBDE87040A9E475
:102BE000F4DAEFE780000020000000007CFCFFFF2B
:102BF0003EFEFFFFBAFAFFFF04030020000402407C
:102C000000080240CDCC4C3E70B50D462DED048B36
:102C100006461446F0EE418AB0EE609AB0EE408A65
:102C20000221F94801F030FEF84B012878EE281A0D
:102C300038EE680A986F1FED0D1AA0EB050004D05E
:102C4000A04213DDB0EE610A02E0A042FADC03DA32
:102C5000F0EE490A304604E0F0EE490A3046B0EEA4
:102C6000480ABDEC048BBDE8704063E4F4DAEFE79A
:102C7000704710B5FEF766FEFEF757FEBDE8104040
:102C80000A2004F054BA70B5E04DDF4AC035A5F50E
:102C9000A074012807D0022805D0032803D00428F7
:102CA00001D005280BD10221104601F0EDFD00EB0B
:102CB0004000E16A05EBC00050F8210060649FE528
:102CC000D249D3488039C96A50F82120521C40F8B3
:102CD0002120CEE72DE9F0412DED048BFFF7C9FF50
:102CE0000221C94801F0D0FD00269FEDCA9A5FED90
:102CF0003B8ADFEDC99A1FED448AC44C0128A4F138
:102D00008005A86A16D004F18007032838686FDAB6
:102D1000F0286EDAB0EE681AF0EE480A4620B0EEFF
:102D2000490AFFF707FC0A2004F001FA3868F02886
:102D3000F0DB9BE00328E06F49DAF0281DDA00BFE2
:102D4000B0EE681AF0EE480A4620B0EE690AFFF7C6
:102D5000F1FB0A2004F0EBF9E06FF028F0DB11E062
:102D6000B0EE681AF0EE480A4620B0EE490AFFF7C6
:102D7000E1FB0A2004F0DBF901E09FEDA89AE06F87
:102D8000F028EDDCAE610AE0B0EE480A0222F02144
:102D9000B3EE0E1AF0EE400A4620FFF7EBFEA06FEE
:102DA000BE28F1DBA869401CA8613228F7DB9FED43
:102DB0009C1ADFED9C0A2820B0EE480AFFF7BAFB08
:102DC0004FF4E171FFF79FF98842FBDB78E01428AC
:102DD00009DC0BE0F0EE480A4620B0EE601AB0EED7
:102DE000490AFFF7A7FBE06F1E28F3DCAE610CE099
:102DF0006DE036E0B0EE480A02221E21B3EE0E1A54
:102E0000F0EE400A4620FFF7B5FEA06FAA28F1DBDE
:102E1000A869401CA8613228F7DBFEF786FDB0EEFA
:102E2000480A6420B0EE401AF0EE400AFFF782FB39
:102E30004FF4966403E000BFFFF703F9F0BBFDF722
:102E400025FEA042F8DB7CE0B0EE681AF0EE480AFE
:102E50004620B0EE490AFFF76DFB0A2004F067F93F
:102E600001E09FED719A3868FA28EDDCAE614FF40D
:102E700087760AE0B0EE480A02223146B3EE0E1A17
:102E8000F0EE400A4620FFF775FEA06FBE28F1DB8A
:102E9000A869401CA8613228F7DBFEF746FD9FEDCC
:102EA000631ADFED630A1E20B0EE480AFFF742FB0B
:102EB000604900BFFFF727F9884200E041E0F9DCF4
:102EC000BDEC048B0020BDE8F041FFF79EBA14284A
:102ED00009DC0BE0F0EE480A4620B0EE601AB0EED6
:102EE000690AFFF727FB38681E28F3DCAE610AE0A9
:102EF000B0EE480A02221E21B3EE0E1AF0EE400A8E
:102F00004620FFF737FEA06FAA28F1DBA869401C16
:102F1000A8613228F7DBFEF708FDB0EE480A64200E
:102F2000B0EE401AF0EE400AFFF704FB4FF42F74A6
:102F300003E000BFFFF785F818B9FDF7A7FDA04231
:102F4000F8DB0020FFF761FABDEC048BBDE8F0412F
:102F5000FEF7EBBC2DE9F05F2C4C2DED068B803C91
:102F6000E06AFFF790FE0020A070FFF74EFAFFF72F
:102F700080FE4FF4FA70FDF7AAFD0221224801F00D
:102F800083FC9FED2BAA5FEDE89ADFF8AC90012857
:102F9000294F9FED2A8A1D4DDFED298A294EA06A0F
:102FA00040F22B2B4FF47A78A9F1FA0940F27E4ACD
:102FB0000BD003287CDDB7EE001AF0EE480A1E2085
:102FC0009FED210AFFF7B6FAC5E0032876DDB0EEE3
:102FD000480AB0EE001AF0EE400A1E20FFF7AAFAE7
:102FE00003E000BFFFF72DF818B9FFF78CF8B842DF
:102FF000F8DCB7EE081AF0EE480A1E20B0EE680AB8
:10300000FFF798FA25E0000000040240800000204D
:103010003802002000002F4400002FC40000964317
:103020003333333F0000E143000096C36666663FDA
:103030000000E1C33EFEFFFF7CFCFFFF000061C417
:103040000000E1440010024000006144FEF7F9FF77
:1030500010B9E86F1E28F9DBB7EE081AF0EE480A3F
:103060001E20B0EE680AFFF765FA02E0FEF7E9FFFE
:1030700018B9E86F1F386D28F8D3FEF756FCB7EE85
:10308000081AF0EE4A0A1E20B0EE680AFFF752FA5C
:1030900040F2DC57FDF7FAFCB842FBDBB7EE001A52
:1030A000F0EE690A3220B0EE680AFFF743FA01E059
:1030B0009CE003E0FFF727F80028F8DB0020FFF78B
:1030C000A4F9FFF7D6FD584604F031F8E86F616CBB
:1030D00088424FF028011CDD4046FFF728FA02E045
:1030E000FEF7AFFF20B9606CE96F28308142F7DC52
:1030F0000A215046FFF71BFA04E000BFFEF7A1FFCC
:10310000002805D14021304601F0BEFB0128F5D052
:10311000B7E0FE48FFF70BFA03E000BFFEF791FFB0
:1031200020B9606CE96F28388142F7DB0A214846F4
:10313000FFF7FDF904E000BFFEF783FF002805D18B
:103140004021304601F0A0FB0128F5D099E000BFF6
:10315000FEF777FF18B9FEF7D6FFB842F8DCB0EEFD
:10316000489AB0EE688AB7EE081AF0EE490A1E20B7
:10317000B0EE480AFFF7DEF903E000BFFEF761FF9B
:1031800010B9E86F1E28F9DBB7EE081AF0EE490A0D
:103190001E20B0EE480AFFF7CDF902E0FEF751FF1E
:1031A00018B9E86F1F388B28F8D3FEF7BEFBB7EECF
:1031B000081AF0EE4A0A1E20B0EE480AFFF7BAF9E4
:1031C0004FF4FA65FDF7E8FBA842FBDBFEF7ADFB29
:1031D000B0EE001AF0EE690A3220B0EE480AFFF7AE
:1031E000A9F94546FDF752FCA842FBDBFEF79DFB23
:1031F0000020FFF70AF9FFF73CFD584603F097FF60
:10320000C34D616C286888424FF028011CDD4F4691
:103210004846FFF78CF902E0FEF713FF20B9606C17
:10322000296823308142F7DC0A213846FFF77FF90D
:1032300003E000BFFEF705FF18BB4021304601F058
:1032400023FB0128F6D01CE057465046FFF76FF9E4
:1032500003E000BFFEF7F5FE20B9606C2968233853
:103260008142F7DB0A213846FFF761F903E000BF2E
:10327000FEF7E7FE28B94021304601F005FB0128A2
:10328000F6D0BDEC068B0020BDE8F05FFFF7BDB8BF
:103290002DE9F04702219F4801F0F6FA9E4CDFF835
:1032A0006C820128994E9D4DE06AA8F196084FF472
:1032B0007A7940F27E4A0CD0FFF7E5FC6078944FB3
:1032C000012849D0002872D128213046FFF72FF974
:1032D00063E0FFF7D8FC8E4F6078803F012806D06E
:1032E000002873D128214846FFF721F91FE0282143
:1032F0003046FFF71CF902E0FEF7A3FE20B9606C30
:10330000F96F2C388142F7DB0A214046FFF70FF9AD
:1033100003E000BFFEF795FE88BB4021284601F080
:10332000B3FA0128F6D04CE0FEF78BFE20B9606CB2
:10333000F96F2C308142F7DC0A215046FFF7F7F88D
:1033400003E000BFFEF77DFEC8B94021284601F02A
:103350009BFA0128F6D034E028214846FFF7E7F829
:1033600003E000BFFEF76DFE20B9606C39682C38B1
:103370008142F7DB0A215046FFF7D9F803E020E04D
:10338000FEF75FFEE8B94021284601F07DFA0128EA
:10339000F6D016E0FEF755FE20B9606C39682C3087
:1033A0008142F7DC0A214046FFF7C1F803E00DE057
:1033B000FEF747FE28B94021284601F065FA0128AA
:1033C000F6D0BDE8F0470020FFF71FB8BDE8F08752
:1033D0002DE9F05FDFF844814FF4807739464046AD
:1033E00001F052FA4C4D01264D4C01280DD0BA4641
:1033F00039464746404601F047FA4FF000084FF083
:1034000003094FF4806B10B10BE0AE7027E0594612
:10341000384601F039FA20B98021384601F034FAF3
:1034200028B15146384601F02FFA18B107E085F867
:1034300002800BE05946384601F026FA28B1514681
:10344000384601F021FA28B10CE0AE70E96A44F880
:10345000219007E02068012816D085F80280E86AEC
:1034600044F82060606901280CDB6068012809DBF2
:10347000A068012806DBE068012803DB2069012839
:1034800000DB2660BDE8F09FE86A022144F82010C6
:10349000A863AE70E6E72DE9F041FFF799FF204EF3
:1034A000002718361E4D1C4C8FE02868D0BBE76102
:1034B00000E0B0B9E06A10E055F8201061B9217F52
:1034C0006170E062FFF7E4FEFFF782FFA078012859
:1034D00007D02868012804D0A069401CA0610628F4
:1034E000EADBE069012824D1E06A1EE055F82010EB
:1034F000D1B9217F6170E062FFF7CAFEFFF768FF74
:10350000A078012821D0286801280CE018FCFFFFD2
:1035100000010020000402400000002000100240D2
:103520002002002011E013D0A069401EA0610028F5
:10353000DCDCA078012808D02868012808D0E069E0
:10354000401CE061022840DAB3E7286801283CD13A
:10355000E76100E0B8B9E06A11E000BF56F820105A
:1035600055F82010032909D0217F6170E062FFF730
:103570008FFEFFF72DFFA078012804D0A069401C22
:10358000A0610628EADBE069012816D1E06A10E0B4
:1035900056F8201055F82010032909D0217F6170BA
:1035A000E062FFF775FEFFF713FFA078012810D047
:1035B000A069401EA0610028EADCA078012808D09C
:1035C000E069401CE0610228C4DBA07800283FF4D9
:1035D0006CAFE06A2063BDE8F08110B5FEF7A5F995
:1035E000FA4C0120E062FFF7B5FCE06A206310BDF1
:1035F00010B5FEF79AF9F54C0220E062FFF7AAFC3D
:10360000E06A206310BD10B5FEF78FF9EF4C032080
:10361000E062FFF79FFCE06A206310BD10B5FEF783
:1036200084F9EA4C0420E062FFF794FCE06A20632E
:1036300010BD10B5FEF779F9E44C0520E062FFF704
:1036400089FCE06A206310BD2DE9F041E04D0421C2
:10365000284601F019F94FF40057DE4C7E0078B18E
:103660000221284601F010F950B13946204601F0F8
:103670000BF928B13146204601F006F90028AAD1FD
:10368000D2490120C8630421284601F0FDF8012831
:10369000F9D10221284601F0F7F80128F3D1394683
:1036A000204601F0F1F80128EDD13146204601F025
:1036B000EBF80128E7D18EE770472DE9F0472DEDB3
:1036C000048BFFF7D6FAC14C00260120C4E90F6035
:1036D000A6709FEDC19ADFF804A31427DFEDC09A0E
:1036E0009FEDC08ADFEDC08AA06A40F6C4150328AA
:1036F0007EDA4FF47A7900BFB0EE480A1420B0EEBB
:10370000401AF0EE400AFEF715FFE06B01283CD0AE
:10371000606A012839D00020FEF777FE4FF4C870A8
:10372000FDF7D5F9E06B012831D0606A0128E3D1BB
:10373000FDF7ACF92062FEF7F8F8F0EE480A142025
:10374000B0EE601AB0EE490AFEF7F4FEFDF79EF9FE
:10375000216A01EB011191FBF7F18842F6DB0221AE
:10376000504601F091F80128606B4DD00B287ED0B7
:10377000FEF7DBF8F0EE480A3220B0EE601AB0EE49
:10378000680AFEF7D7FEC8468CE0022000E0002061
:10379000FEF73BFEA06A401CA062FDF777F92062AD
:1037A000FEF7C3F80221504601F06EF840F2DC57F4
:1037B00001287CD0FEF7B9F8F0EE480A1E20B0EEE2
:1037C000601A9FED8A8AB0EE480AFEF7B3FE00BF8A
:1037D000FDF7E2F8B842FBDBFEF7A7F8B7EE001AF8
:1037E000DFED830A1E20B0EE480AFEF7A3FE00E0DC
:1037F00079E0FDF74BF9A842F9DB0020FEF705FE62
:10380000E663BDEC048BE1E50B280DD0FEF78DF8E7
:10381000F0EE480A3220B0EE601AB0EE690AFEF708
:1038200089FE4FF4FA681DE0FEF77FF8F0EE480AD3
:103830003220B0EE601AB0EE680AFEF77BFEC84692
:1038400005E000BFFEF7FDFB00287FF455AFFDF754
:103850001DF94045BFF650AFF4E708E0FEF7F1FB75
:103860000028F2D1FDF712F94045F3DAF6E7FEF74A
:103870005CF8F0EE480A3220B0EE601AB0EE690A49
:10388000FEF758FEC84603E0FEF7DBFB0028DCD15C
:10389000FDF7FCF84045DDDAF6E708E0FEF7D1FB7E
:1038A0000028D2D1FDF7F2F84045D3DAF6E7FEF76B
:1038B0003CF8B7EE081AF0EE690A1E20B0EE680A6E
:1038C000FEF738FEFEF731F8B7EE001ADFED490AD1
:1038D0001E20B0EE680AFEF72DFE00BFFDF7D6F8F9
:1038E000B842FBDB89E74FF4FA7803260020FEF7A5
:1038F0008CFD4046FDF7EBF8E06B012881D0606A53
:103900000128F3D1FDF7C2F82062FEF70EF808E0B7
:10391000B6EE001AF0EE480A1E20B0EE490AFEF795
:1039200009FEFDF7B3F8216A01EB011191FBF7F1F4
:103930008842EDDB0221504600F0A6FF0128206CF2
:1039400090FBF6F106FB110003D048B3FDF7EDFF45
:103950005DE010B1FDF7E9FF1DE0F0EE480A32200E
:10396000B0EE601AB0EE680AFEF7E4FD1749803148
:1039700003E000BFFEF765FB20BBC86F1928F9DC28
:1039800020E000BFB7EE081AF0EE480A1E20B0EEA5
:10399000690AFEF7CFFDFDF779F8A842F2DB11E0E6
:1039A000F0EE480A3220B0EE601AB0EE690AFEF777
:1039B000C1FD114903E000BFFEF743FB10B90868E1
:1039C0001428F9DC206C401C20648FE700000020E4
:1039D00000100240000802400000E14400040240E0
:1039E000000061C4000000000000614400C08FC4FA
:1039F0000000E1430000E1C300010020B7EE081A17
:103A0000F0EE480A1E20B0EE680AFEF793FDFDF7BF
:103A10003DF8A842F2DBD5E72DE9F0472DED088B04
:103A2000FFF727F96F2003F082FB0221FD4800F029
:103A30002BFF9FEDFDBA5FED18AA5FED179A4FF4CB
:103A4000FA7ADFEDFA8A9FEDFA9AFA4E1FED1B8A99
:103A50001FED1BAAA6F5807501284FF496774FF04D
:103A6000000805F18004B6EE001AF0EE680A4FF087
:103A7000320004D0B0EE490AFEF75CFDD5E0B0EEAE
:103A80004B0AFEF757FD02E0FEF7DBFA18B9FCF728
:103A9000FDFFB842F8DBB6EE001AF0EE480A9620B9
:103AA000B0EE6A0AFEF746FD41F6583903E000BF62
:103AB000FEF7C7FA18B9FCF7E9FF4845F8DBB6EEA0
:103AC000001AF0EE480A46209FEDDB0AFEF732FDB1
:103AD00003E000BFFEF7B5FA10B9A06F5A28F9DC71
:103AE000B6EE001AF0EE480A46209FEDD40AFEF723
:103AF00021FD02E0FEF7A5FA10B9A06F3C28F9DC21
:103B0000C5F818800AE000221E21B0EE681AF0EE17
:103B1000480A6420B0EE690AFFF776F8E06FFA28E9
:103B2000F1DBA869401CA8613228F7DBC5F81880D2
:103B30004FF4B4780AE000221E21B0EE681AF0EECD
:103B4000480A3C20B0EE690AFFF75EF8E06F404596
:103B5000F1DBA869401CA8613228F7DB0220FEF7E0
:103B600054FC5046FCF7B3FFFDF7DFFEB6EE001A3B
:103B7000DFEDB30A3220B0EE490AFEF7DBFC02E0CB
:103B8000FEF75FFA18B9FCF781FFB842F8DBB6EE32
:103B9000001AFBEE0E0A9620B0EE490AFEF7CAFCA8
:103BA00040F6B83503E000BFFEF74BFA18B9FCF752
:103BB0006DFFA842F8DBFDF7B8FEB7EE001ADFEDA7
:103BC000A10A3220B0EE4A0AFEF7B4FC9E4902E098
:103BD000FEF737FA18B9FEF796FA8842F8DC0020AB
:103BE000FEF713FC0021B7EE000A9848FEF763FCCD
:103BF00002E0012003F09BFAE06B0028F9D1B6EE59
:103C0000001ADFED930A14209FED920AFEF792FC52
:103C100004E000BFFEF715FA002802D130686928D9
:103C2000F8DCBFE0FEF70DFA18B9FCF72FFFB84239
:103C3000F8DBB6EE001AF0EE680A7820B0EE490A1A
:103C4000FEF778FC4FF4FA5703E000BFFEF7F9F9EE
:103C500018B9FCF71BFFB842F8DBB6EE001AF0EE1D
:103C6000480A46209FED7C0AFEF764FC03E000BF93
:103C7000FEF7E7F910B9A06F4628F9DCB6EE001A96
:103C8000F0EE480A46209FED750AFEF753FC02E06D
:103C9000FEF7D7F910B9A06F2828F9DC47469FED49
:103CA000709AF0EE4A8AC5F818800AE000221E21B8
:103CB000B0EE491AF0EE480A6420B0EE680AFEF74A
:103CC000A3FF3068FA28F1DBA869401CA8613228FC
:103CD000F7DBAF614FF4AF770AE000221E21B0EEB0
:103CE000491AF0EE480A3C20B0EE680AFEF78CFF55
:103CF0003068B842F1DBA869401CA8613228F7DBC4
:103D00001420FEF782FB5046FCF7E1FEFDF70DFEA6
:103D1000B6EE001ADFED530A9620B0EE4B0AFEF71E
:103D200009FC4FF4486502E0FEF78BF918B9FCF77F
:103D3000ADFEA842F8DBFDF7F8FDB7EE001AF0EE95
:103D40006A0A3220B0EE690AFEF7F4FB4FF4E16133
:103D500003E000BFFEF775F918B9FEF7D4F9884201
:103D6000F8DB0020FEF751FB0021B7EE000A40F619
:103D7000CA00FEF7A0FB02E0012003F0D8F9E06BD7
:103D80000028F9D1B0EE481ADFED370A0F209FED79
:103D9000370AFEF7CFFB02E0FEF753F910B9E06FE8
:103DA0006928F9DCBDEC088B0020BDE8F047FEF780
:103DB0002CBB10B52E4CA06B012801D1FFF70DFCD8
:103DC000A06B022801D1FFF713FCA06B032801D1DF
:103DD000FFF719FCA06B042801D1FFF71FFCA06BB3
:103DE000052802D1BDE8104023E410BD214A30B4BB
:103DF00010681F49012840D00120886152F8203006
:103E0000D3B3401C0628F9DB8861C86A042852D065
:103E1000032853D0022854D0012847D0052853D175
:103E200030BC06E4000402400040DD44000048C20B
:103E300000C0DA440001002000C0C1C4008089C471
:103E4000000020C20000E1C4F8F8FFFF36F7FFFFD2
:103E500000A00CC50000964300C0C1440080894406
:103E60000000484200008CC200A00C45000096C330
:103E700000000020200200201BE0FF4B052000BFB7
:103E800053F8204052F82040032C01D0C86203E0D0
:103E9000401E0128F4DAC86A0528C1D004280AD0D7
:103EA00003280BD002280CD001280DD130BCFFF71D
:103EB00094BBC862A8E730BCFFF7B0BB30BCFFF7CB
:103EC000A2BB30BCFFF794BB30BC7047FFF7F5FBDB
:103ED000EA4CE06A012808D0022809D003280AD059
:103EE00004280BD005280CD00DE0FFF776FB0AE084
:103EF000FFF77EFB07E0FFF786FB04E0FFF78EFB92
:103F000001E0FFF796FBFFF763FA06E0FFF760FAC0
:103F1000A078012810D0FFF7BBF9A0780028F5D0D1
:103F20000025A570FEF7D6FEFFF7C7FBA06B30B1EA
:103F3000FFF73FFFA5630CE0FEF7C2FEF0E7FFF7D7
:103F400055FF06E0FFF744FAA078012806D0FFF7F6
:103F50009FF9A0780028F5D0A570E5E7FEF7B0FE40
:103F6000FEF7B8FEF5E7C5490120C8620221C44842
:103F700000F08ABCC1490220C8627047BF490320D3
:103F8000C8627047BD490420C8627047BB4905201C
:103F9000C86270472DE9F0472DED068BFEF769FEEC
:103FA0000221B74800F070FC4FF4FA795FED61AA86
:103FB000B24D803500279FEDB38A9FEDB3AAAF4C79
:103FC000DFEDB29A9FEDB29AF0EE480A012840F672
:103FD000AC56B0EE601A4FF0460004D09FEDAD0A2B
:103FE000FEF7A8FAA7E09FEDAC0AFEF7A3FA02E0FD
:103FF000FEF727F810B9A86F3228F9DCB846A76198
:104000004FF49677F0EE6A8A0AE000221E21B0EEA5
:10401000681AF0EE480A6420B0EE490AFEF7F4FD93
:10402000E86FB842F1DBA069401CA0613228F7DBE1
:10403000C4F818804FF4B4780AE000221E21B0EED4
:10404000681AF0EE480A3C20B0EE490AFEF7DCFDA3
:10405000E86F4045F1DBA069401CA0613228F7DB26
:104060000220FEF7D2F94846FCF731FDFDF75DFC72
:10407000B6EE001A5FED8E0A32205FED938AB0EE45
:10408000680AFEF757FA02E0FDF7DBFF18B9FCF704
:10409000FDFCB842F8DBB6EE001AFBEE0E0A9620E5
:1040A000B0EE680AFEF746FA40F6B83403E000BF07
:1040B000FDF7C7FF18B9FCF7E9FCA042F8DBFDF7F4
:1040C00034FCB7EE001AF0EE4A0A3220B0EE690A6C
:1040D000FEF730FA4FF4617402E0012003F027F894
:1040E000FEF711F8A042F8DBB7EE001AF0EE4A0A2C
:1040F0003220B0EE690AFEF71DFA02E0012003F05B
:1041000016F8E86F2328F9DC0020FEF77EF9FDF7AA
:104110000CFCB0EE481ADFED610A1E209FED600A2C
:10412000FEF708FAFCF7B2FCB042FBDB88E000BF08
:10413000FDF787FF10B9A86F1E28F9DC5FEDB88A7C
:10414000584D4FF4A578A7610AE000221921B0EE7E
:10415000681AF0EE480A6420B0EE4A0AFEF754FDF1
:1041600028684045F1DBA069401CA0613228F7DBDC
:10417000A7614FF4B1770AE000221921B0EE681A66
:10418000F0EE480A3C20B0EE4A0AFEF73DFD2868F2
:10419000B842F1DDA069401CA0613228F7DB0220A3
:1041A000FEF733F94846FCF792FCFDF7BEFBB6EE8E
:1041B000001AF0EE6A0A64201FEDE50AFEF7BAF96C
:1041C0004FF47A6403E000BFFDF73BFF18B9FCF73A
:1041D0005DFCA042F8DBB7EE001AF0EE490A46207B
:1041E000B0EE690AFEF7A6F92F4C02E0012002F0BA
:1041F0009EFFFDF788FFA042F8DCB7EE001AF0EE54
:10420000490A3220B0EE690AFEF794F902E0012073
:1042100002F08DFF28681E28F9DC0020FEF7F5F873
:10422000FDF783FBB0EE481AF0EE490A1E209FED21
:104230001F0AFEF77FF900BFFCF728FCB042FBDB4A
:10424000BDEC068B0020BDE8F047FEF7DEB80B4C56
:104250000420A062FFF79EFEFFF72FFAFFF7BDF9DB
:10426000FFF719F9FEF72CFDFEF734FD5FF00005AE
:10427000FFF723FAA06B1BE03802002000000020AB
:104280000004024000000000000061440000E1441E
:10429000000061C400C0A84400C08FC400005C449A
:1042A00000007A44000100207CFCFFFF00007AC47B
:1042B00048B1FFF77EFDFFF7EEF8FEF701FDFEF7D0
:1042C00009FDA56307E0FFF791FDFFF7E4F8FEF7AE
:1042D000F7FCFEF7FFFCA570CAE7FFF79DFBFFF7B1
:1042E000ECF9FFF77AF9FFF7D6F8FEF7E9FCFEF7ED
:1042F000F1FC5B4C002500BFFFF7DFF9A06B48B174
:10430000FFF757FDFFF7C7F8FEF7DAFCFEF7E2FC10
:10431000A56307E0FFF76AFDFFF7BDF8FEF7D0FCE5
:10432000FEF7D8FCA570E7E71FED2A0A10B5B0EE3E
:10433000401AF0EE400A2820FEF7FCF80021B6EE05
:10434000000A4FF4E160FEF7B6F840F2D66102E0F1
:10435000FDF777FE18B9FDF7D6FE8842F8DBBDE819
:1043600010400220FEF751B81120FDF7FAFC0F2093
:1043700002F0DDFEF8E70A2002F0D9FEFBE7384C38
:10438000FEF77BFBFFF760F9FFF796F9207808B995
:10439000FEF765FA012002F0CAFEF1E71FB5FCF74F
:1043A000A2FBFCF7D3FBFCF707FDFCF7A8FDFCF72D
:1043B00061FEFCF7E7FEFCF749FC4FF4E1342046D0
:1043C000FCF788FF2046FDF709F82046FDF78CF83A
:1043D000E000FDF7ACF9FDF7B5FAFDF7A6FA002409
:1043E0004FF4807500940194029423462A461DA13F
:1043F0002148039402F0C4FC009401940294002329
:104400002A461EA12248039402F0BAFC214C06E081
:10441000FEF776FA2078000701D4FFF785FFA07930
:104420007328FCD1F4E77FB500244FF48075009425
:104430000194029423462A4617A11A48039402F0D5
:104440009FFC00940194029400232A4616A1194867
:10445000039402F095FC02F0B9FF04B0002070BD97
:10446000000000207461736B526F626F74416E6163
:104470006C797469637300007F4300087461736B27
:10448000446965754B6869656E436F4361750000EB
:1044900077430008700100207461736B4D61696E91
:1044A000000000009D4300087461736B4779726FD0
:1044B00000000000694300080CB50020514901903C
:1044C00000900A6842F480320A604FF4A0630A68E0
:1044D00002F400320092019A521C0192009A12B921
:1044E000019A9A42F3D10A68920334D501200090D0
:1044F00044484030026842F08052026042480268FC
:1045000042F4804202603F4808300268026002685C
:1045100042F400420260026842F4A0520260031FAB
:104520003A4A1A600A6842F080720A600A68920188
:10453000FCD5374A40F205611160016821F00301A2
:104540000160016841F0020101600168C1F381016D
:104550000229FAD10CBD00900CBD2A4810B50168A3
:1045600041F001010160274A002108321160026810
:10457000284B1A400260031D274A1A60026822F481
:10458000802202601F480C300160FFF795FF23492D
:104590004FF00060086010BD70B51A4C08342068F8
:1045A0001F4A10F00C011F4804D05510042903D0F5
:1045B000082903D002601BE0056019E01149091DBC
:1045C0000B68C3F380560B6803F03F0316B1B5FBCD
:1045D000F3F201E0B2FBF3F20B680968C3F388134E
:1045E0005A43C1F30141491C4900B2FBF1F101609A
:1045F00021680C4AC1F30311121D515C0268CA40C4
:10460000026070BD0038024000700040085440074E
:10461000003C0240FFFFF6FE1030002408ED00E0F1
:104620000024F4008C01002006488047064800471B
:10463000FEE7FEE7FEE7FEE7FEE7FEE7FEE7FEE752
:10464000FEE7FEE75B4500088901000828490843AA
:1046500028490860704730B50F22C47801780123DB
:10466000FCB1244C246801F1E02104F4E064C4F5B9
:10467000E064C4F30724C4F10405E2404478AC408C
:104680008578154025432A0181F80024007800F040
:104690001F018B404009800000F1E020C0F800318C
:1046A00030BD01F01F0083404809800000F1E02088
:1046B000C0F8803130BD104A114001430D48001F41
:1046C000016070470B4A121D0029116801D0014397
:1046D00000E08143116070474FF0E0210428086931
:1046E00003D020F004000861704740F00400FAE7AE
:1046F0000000FA050CED00E080FFFF1F7C4910B5BB
:10470000884206D10121084600F058FA0021012014
:104710004FE07849884206D10121022000F04EFA8C
:104720000021022045E07449884206D1012104207D
:1047300000F044FA002104203BE07049884206D191
:104740000121082000F03AFA0021082031E06C49EC
:10475000884206D10121102000F030FA00211020FB
:1047600027E06849884206D10121202000F026FA7E
:10477000002120201DE06449884206D1012140200B
:1047800000F01CFA0021402013E06049884206D165
:104790000121802000F012FA0021802009E05C490C
:1047A00088420AD184150121204600F007FA002131
:1047B0002046BDE8104000F001BA10BDF0B500235E
:1047C000012403270D6804FA03F21540954242D1F3
:1047D000D0F800C05E0007FA06F52CEA050CC0F818
:1047E00000C091F804C0D0F800E00CFA06FC4CEAD6
:1047F0000E0CC0F800C091F804C0BCF1010F02D04B
:10480000BCF1020F1FD1D0F808C02CEA050CC0F88B
:1048100008C091F805C0D0F808E00CFA06FC4CEA94
:104820000E0CC0F808C0D0F804C02CEA020CC0F886
:1048300004C0426891F806C00CFA03FC1FFA8CFC15
:1048400042EA0C024260C268AA43C260CA79C568E3
:10485000B2402A43C2605B1C102BB3D3F0BD4FF6AD
:10486000FF7101600021017141718171C171704757
:1048700008B541F480320092C261C1610099C16102
:10488000C169C069009008BD0246002012690A4251
:1048900000D001207047006980B2704702460020B6
:1048A00052690A4200D001207047406980B27047C7
:1048B00001837047418370470AB101837047418388
:1048C00070474161704742694A40426170474B07F7
:1048D000DB0E9A40C90810B500EB8100016A0F2475
:1048E0009C40A1430162016A1143016210BD0000B6
:1048F000000002400004024000080240000C024098
:10490000001002400014024000180240001C024047
:1049100000200240EA48016841F001010160E84AD4
:104920000021083211600268E64B1A400260031D44
:10493000E54A1A60026822F480220260E0480C30E6
:1049400001607047DE490022891C0A7008707047B8
:1049500002460020510901290CD002290CD0D84967
:104960007431096802F01F02012393400B4200D00A
:1049700001207047D249F4E7D1497031F1E718B509
:1049800000204FF4A06400903120FFF7E1FF009970
:10499000491C0091A14201D00028F5D03120FFF739
:1049A000D7FF002800D0012018BDC5490A6822F0B1
:1049B000F80242EAC00008607047C44908607047C6
:1049C000BF49002270310A700A70012802D0042801
:1049D00001D1052008707047BD490860704741EA61
:1049E00082115A0810B5BB4B029C03EB02421143E3
:1049F000014341EA0460B249091D086010BDB34992
:104A000008667047800140EA0170AD498431086052
:104A10007047AE4988667047AC49C8647047A84A79
:104A200008321368084323F0EC63184310607047A2
:104A3000A34A08321368084323F0784318431060F0
:104A400070479F4A0832116821F003010143116049
:104A500070479B480830006800F00C007047984A87
:104A60000832116821F0F001014311607047944A47
:104A70000832116821F4E0510143116070479049F8
:104A800008310A6822F4604242EAC00008607047B8
:104A900070B58B4A083211688F4C11F00C0104D0AC
:104AA0006610042903D0082903D004601BE00660C7
:104AB00019E08349091D0B68C3F380550B6803F0A7
:104AC0003F0315B1B6FBF3F301E0B4FBF3F30C685D
:104AD0000968C4F388146343C1F30141491C4900C8
:104AE000B3FBF1F1016011680F2303EA11117B4B55
:104AF0005C5C0168E14041601468072505EA942484
:104B00001C5D21FA04F48460126805EA52329A5C52
:104B1000D140C16070BDC0F30121032908D1684AAA
:104B20000832116821F4F8136D49014019431160EE
:104B3000634970310A68C0F30B0002430A60704792
:104B400063494439086070476149403908607047DB
:104B50005E49C1F85C017047594A3032002911683A
:104B600001D0014300E0814311607047544A343260
:104B70000029116801D0014300E0814311607047B2
:104B80004F4A38320029116801D0014300E08143C7
:104B9000116070474A4A40320029116801D0014330
:104BA00000E0814311607047454A44320029116892
:104BB00001D0014300E0814311607047404A103248
:104BC0000029116801D0014300E081431160704762
:104BD0003B4A14320029116801D0014300E08143AF
:104BE00011607047364A18320029116801D001431C
:104BF00000E0814311607047314A2032002911687A
:104C000001D0014300E08143116070472C4A2432F7
:104C10000029116801D0014300E081431160704711
:104C2000274A50320029116801D0014300E0814336
:104C300011607047224A54320029116801D00143A3
:104C400000E08143116070471D4A58320029116805
:104C500001D0014300E0814311607047184A60327F
:104C60000029116801D0014300E0814311607047C1
:104C7000134A64320029116801D0014300E08143E6
:104C8000116070470E4A0D320029117801D001439E
:104C900000E081431170704709487430016841F0A9
:104CA0008071016070470146054A00200C3212688D
:104CB0000A4200D00120704701490E310870704748
:104CC00000380240FFFFF6FE10300024000047428B
:104CD000800E47420000FFFF0024F400A0010020E6
:104CE000FFFCFF0F10B501210C022046FFF78EFFDD
:104CF0002046BDE810400021FFF788BF30B542686C
:104D0000C84B0C791A400B6842EA042213434360F3
:104D10008268C54B4D791A40D1E9034323438C681F
:104D200044EA4504234313438360C26A097D22F4A5
:104D30007002491EC9B242EA0151C16230BD002170
:104D40000160017141718160C160016101210175E2
:104D50007047B64B10B5D3F80423B5490A40D0E9E3
:104D600000142143D0E90240044321431143C3F816
:104D7000041310BD0021016041608160C160704773
:104D80000029816802D041F0010101E021F0010118
:104D9000816070474268A74B1A400A4342607047DF
:104DA000416282627047426822F01F020A434260F9
:104DB00070479E490028D1F8040302D040F4000057
:104DC00001E020F40000C1F804037047974900286F
:104DD000D1F8040302D040F4800001E020F4800008
:104DE000C1F80403704770B5072409290AD9C568BA
:104DF000A1F10A0606EB4606B440A543B3401D43A5
:104E0000C56007E0056901EB4106B440A543B34026
:104E10001D4305611F23072A09D2446B521E02EB72
:104E2000820293409C4391400C43446370BD0D2A21
:104E300009D2046BD21F02EB820293409C43914043
:104E40000C43046370BDC46A0D3A02EB82029340C6
:104E50009C4391400C43C46270BD816841F0804125
:104E600081607047014600208968490200D5012011
:104E700070470029816802D041F4806101E021F48B
:104E80008061816070470029816802D041F0020191
:104E900001E021F00201816070474268491E22F45E
:104EA000604242EA4131416070470029416802D0C6
:104EB00041F4006101E021F4006141607047C06C81
:104EC00080B270475948D0F80803704700298168BC
:104ED00002D041F4807101E021F48071816070475B
:104EE0000029816802D041F4007101E021F40071D1
:104EF000816070474D490028D1F8040302D040F486
:104F0000005001E020F40050C1F80403704770B570
:104F1000072409290AD9C568A1F10A0606EB460645
:104F2000B440A543B3401D43C56007E0056901EBEC
:104F30004106B440A543B3401D430561836BC3F3F1
:104F40000154121B921C02EB82041F22A2409343C5
:104F5000A1400B43836370BD826B491E22F4401253
:104F600042EA01518163704708B50844009002602D
:104F700008BD826822F470220A438260704782680A
:104F800022F440120A4382607047816841F4800134
:104F900081607047014600208968490200D50120E0
:104FA00070470029416802D041F4806101E021F49A
:104FB0008061416070470029416802D041F480510E
:104FC00001E021F480514160704708B50844283061
:104FD0000090006880B208BD01238B4041680AB18F
:104FE000194300E09943416070470246002012686F
:104FF0000A4200D001207047C9430160704730B5B4
:105000000246002053680C0A01258D4011682B4090
:10501000214202D0002B00D0012030BD6FEA1121C7
:1050200001607047FFFEFFFCFDF7FFC0002001405C
:10503000E030FCFFFFFD3FFF2DE9F043016821F068
:10504000010101600021016041608160C160016176
:1050500021214161B849B84A3D251039904202D119
:105060008D60BDE8F083B44A4FF474661832904204
:1050700001D18E60F5E7B04A4FF474173032904298
:1050800001D18F60EDE7AC4A4FF0746C483290422A
:1050900002D1C1F808C0E4E7A74BA84A60339842A0
:1050A00001D1CA60DDE7A44CA54B7834A04201D100
:1050B000CB60D6E7DFF88082A24C08F1900840452B
:1050C00001D1CC60CDE7DFF870824FF03D5908F197
:1050D000A808404502D1C1F80C90C2E79A49DFF810
:1050E00068820839404501D10D60BAE7964D183500
:1050F000A84201D10E60B4E7934D3035A84201D1EA
:105100000F60AEE7904D4835A84202D1C1F800C00B
:10511000A7E78D4D8C496035091FA84201D10A606F
:105120009FE7894A7832904201D10B6099E7864A1D
:105130009032904201D10C6093E7834AA8329042AA
:105140008FD1C1F800908CE730B503687F4ACC68F6
:1051500013400A682243D1E905452C432243CC6918
:1051600022430C6A22434C6A22438C6A22434C6BD2
:1051700022438C6B22431A430260426922F00703E8
:10518000D1E90B2422431A4342610A6942604A680A
:1051900082608968C16030BD00210160416081602A
:1051A000C160016141618161C161016241628162ED
:1051B000C16201634163816370470029016802D0C5
:1051C00041F0010101E021F0010101607047002977
:1051D000016802D041F4004101E021F40041016086
:1051E00070470029016802D041F0200101E021F060
:1051F00020010160704741607047406880B270478D
:10520000002A026802D042F4002201E022F40022C7
:105210000260016170470029016802D041F48021D9
:1052200001E021F48021016070470AB101617047FB
:10523000C1607047014600200968090300D50120BC
:105240007047014600200968C90700D00120704757
:10525000406900F03800704702463B4B00209A42FC
:1052600002D2354A103A01E0374A103A8B0001D594
:10527000526800E01268364B1A400A4200D0012002
:105280007047314A904202D22B48103801E02E4834
:1052900010382F4A8B0001EA020101D5C160704726
:1052A000816070470B0607D5436912B143F0800354
:1052B00001E023F080034361802908D0002A0268BE
:1052C00001F01E0101D00A4300E08A4302607047EA
:1052D00030B51D4A0024904202D2174B103B01E02A
:1052E000194B103B1B4A114205D01E2202EAD12560
:1052F00002682A4002E0406900F08002880001D57F
:10530000586800E01868124B1840084201D002B1FA
:105310000124204630BD0C4A904202D20648103883
:1053200001E0094810380A4A8B0001EA020101D560
:10533000C160704781607047106002403D000020EE
:10534000400F002000003D20106402403F801CF010
:105350007D0F7D0F3C0F3C0F374900200860091D71
:105360000860091D0860091D08603349334814317D
:105370000860704730B530498379026853B30B68D1
:1053800093430B600A1D13680468A34313600279FA
:105390000A441368046823431360274A08321368D9
:1053A0000468A3431360131D1C680568AC431C60AC
:1053B0004479102C05D021440A68006802430A6031
:1053C00030BD116804682143116019680068014309
:1053D000196030BD0079084401689143016030BD17
:1053E0000021016001710C224271817170471249E4
:1053F00010310A6802430A60704701460E4A0020D5
:10540000143212680A4200D0012070470A49143150
:1054100008607047084A014600201268064B0A409F
:1054200014331B680B4202D0002A00D001207047C1
:105430000149143108607047003C0140FFFF7F00C4
:10544000FE4910B5884206D101210846FFF7DEFB70
:10545000002101205BE0B0F1804F09D0F84988427B
:105460000DD101210220FFF7C7FB0021022070E0CF
:1054700001210846FFF7C0FB0021012069E0F14946
:10548000884206D101210420FFF7B6FB0021042049
:105490005FE0ED49884206D101210820FFF7ACFB0F
:1054A0000021082055E0E949884206D10121102059
:1054B000FFF7A2FB002110204BE0E549884206D10E
:1054C00001212020FFF798FB0021202041E0E14945
:1054D000884206D101210220FFF798FB002102201B
:1054E00015E0DD49884202D101210C040AE0DB49C4
:1054F000884202D101214C0404E0D94988420AD1F2
:1055000001218C042046FFF781FB00212046BDE8E5
:105510001040FFF77BBBD349884206D101214020D0
:10552000FFF76AFB0021402013E0CF49884206D1F3
:1055300001218020FFF760FB0021802009E0CB499A
:1055400088420AD1841501212046FFF755FB00212E
:105550002046BDE81040FFF74FBB10BD30B50288B4
:10556000B64BBC4C98420DD0A0420BD0B0F1804F4E
:1055700008D0B34DA84205D0B24DA84202D0B24DDA
:10558000A84203D122F070054A882A43AF4DA842B1
:1055900006D0AF4DA84203D022F440750A892A43B1
:1055A00002804A68C2620A880285984201D0A042FD
:1055B00001D1897A01860121818230BD4FF0FF310E
:1055C0004160002101800181418081727047018525
:1055D00082827047028822F070020A43028070477C
:1055E00041627047C1627047406A7047008D7047E2
:1055F0000029018802D041F0020101E021F00201FE
:10560000018070470029018802D041F0040101E0C7
:1056100021F00401018070470029018802D041F087
:10562000800101E021F0800101807047028822F0B2
:105630000802028002880A4302807047028822F42E
:105640004072028002880A43028070470029018864
:1056500002D041F0010101E021F001010180704719
:1056600030B5028C22F001020284028C8388048B04
:1056700022F0020224F073050C882C438D89154317
:105680004A882A436D4DA84202D0724DA8420DD1DE
:1056900022F00805CA8923F440732A4322F0040546
:1056A0008A882A430D8A1D434B8A2B4383800483B7
:1056B00089684163028430BD70B5028C22F010020B
:1056C0000284028C8488038B0D8823F4E6464FF60F
:1056D000FF7303EA052535438E8922F0200203EA91
:1056E000061616434A8803EA02123243534EB0426A
:1056F00002D0584EB04215D122F08006CA8924F457
:10570000406403EA0212324322F040068A8803EA28
:10571000021232430E8A03EA860626434C8A03EAC3
:10572000840434438480058389688163028470BD66
:1057300070B5028C22F480720284028C8488838B80
:105740000D8823F073031D4322F400738E894FF6F6
:10575000FF7202EA06261E434B8802EA0323334304
:10576000364EB04202D03B4EB04215D123F4006613
:10577000CB8924F4405402EA0323334323F48066A4
:105780008B8802EA032333430E8A02EA0616264375
:105790004C8A02EA04143443848085838968C16397
:1057A000038470BD70B5028C22F480520284048C94
:1057B0008288838B0D8823F4E6464FF6FF7303EA55
:1057C0000525354324F400568C8903EA0434344318
:1057D0004E8803EA06362643184CA04202D01D4CE0
:1057E000A04205D122F480440A8A03EA82122243AD
:1057F0008280858389680164068470BD00210180F0
:105800004180818081608181C181018241827047B4
:1058100030B50124058C00F118038C40A5430584A4
:1058200031B308292CD0091FC1F34E001844016878
:1058300048F6FF731940016001681AE0000001405A
:105840000004004000080040000C00400010004030
:1058500000140040000401400040014000440140A9
:105860000048014000180040001C0040002000409B
:1058700006E04FF6FF7303EA02221143016030BDD8
:1058800003EB510001684FF68F7319400160016806
:10589000F3E74163704781637047C16370470164F8
:1058A0007047028B22F070020A4302837047028B1A
:1058B0004FF6FF7322F4E04203EA01211143018312
:1058C0007047828B22F070020A4382837047828B7A
:1058D0004FF6FF7322F4E04203EA01211143818372
:1058E0007047028B22F008020A4302837047028B42
:1058F0004FF6FF7322F4006203EA01211143018392
:105900007047828B22F008020A4382837047828BA1
:105910004FF6FF7322F4006203EA012111438183F1
:105920007047028B22F004020A4302837047028B05
:105930004FF6FF7322F4806203EA012111430183D1
:105940007047828B22F004020A4382837047828B65
:105950004FF6FF7322F4806203EA01211143818331
:105960007047028B22F080020A4302837047028B49
:105970004FF6FF73C2F30E0203EA012111430183C4
:105980007047828B22F080020A4382837047828BA9
:105990004FF6FF73C2F30E0203EA01211143818324
:1059A0007047028C22F002020A4302847047028C84
:1059B00022F008020A4302847047028C4FF6FF73FC
:1059C00022F0200203EA0111114301847047028C86
:1059D0004FF6FF7322F0800203EA011111430184A4
:1059E0007047028C4FF6FF7322F4007203EA012124
:1059F000114301847047028C4FF6FF7322F400625A
:105A000003EA0121114301847047028C4FF6FF73B2
:105A100022F4005203EA013111430184704710B5AA
:105A20000123048C8B409C430484038C8A401343E1
:105A3000038410BD10B50423048C8B409C43048464
:105A4000038C8A401343038410BD828B22F440628E
:105A50008283828B4FF6FF7303EA01210A4382831C
:105A60007047828B22F00C028283828B0A438283EE
:105A70007047028B22F440620283028B4FF6FF7361
:105A800003EA01210A4302837047F0B5048C24F035
:105A900010040484078B068C4FF6FF7404EA01158A
:105AA00027F4734704EA0331394304EA02220A4324
:105AB00026F0A001294341F0100102830184F0BDCA
:105AC000028B22F00C020283028B0A43028370478E
:105AD0002DE9F0410D460E884988AA882B89044695
