:020000040800F2
:1000000098300020B5450008450200084702000866
:10001000490200084B0200084D02000800000000E1
:100020000000000000000000000000009D0100082A
:100030004F02000800000000E1010008EB6B00081F
:10004000CF450008CF450008CF450008CF45000840
:10005000CF450008CF450008CF450008CF45000830
:100060001704000863040008CF45000801030008D6
:10007000C30200084D030008CF45000875020008C0
:10008000CF4500087D020008CF450008CF45000895
:10009000CF450008CF450008CF450008CF450008F0
:1000A000CF4500087103000891030008CF45000800
:1000B00093030008B3030008D3030008CF450008EA
:1000C000CF450008CF450008CF45000813040008BD
:1000D000CF45000855020008CF450008CF4500086D
:1000E000CF450008CF450008CF450008CF450008A0
:1000F000CF450008CF450008CF450008230300087E
:10010000CF450008CF450008F30300081504000898
:10011000CF450008CF450008570300085F030008DB
:10012000CF450008CF4500089F020008CF450008D2
:10013000CF450008CF450008CF450008CF4500084F
:10014000CF450008CF450008CF450008CF4500083F
:10015000B9020008CF450008CF450008CF45000888
:10016000CF450008CF450008CF450008CF4500081F
:10017000CF450008CF450008CF450008CF4500080F
:10018000CF450008CF450008DFF80CD007F0CAFDC6
:1001900000480047B143000898300020234B1968FD
:1001A0000868B0E8F04F80F309884FF0000080F352
:1001B000118870470000000003480068006880F361
:1001C000088862B600DF00BF08ED00E0DFF80C0031
:1001D000016841F470010160704700BF88ED00E0E4
:1001E000EFF30980114B1A681EF0100F08BF20EDC5
:1001F000108A20E9F04F106008B54FF0140080F32A
:10020000118806F0C8FF4FF0000080F31188BDE8A8
:10021000084019680868B0E8F04F1EF0100F08BFDA
:10022000B0EC108A80F30988704700BFDC01002021
:10023000EFF311804FF0140181F31188704780F3C0
:10024000118870477047FEE7FEE7FEE7FEE770475C
:100250007047704710B5834C40F22551204605F099
:100260000EFF002805D02046BDE81040202105F0F3
:1002700003BF10BD7C497D4805F013B870B57B4DB8
:100280007B4C30352146284604F0E8FF002805D095
:1002900021462846BDE8704005F003B870BD10B592
:1002A0007449754804F0FDFF74484178007841EACC
:1002B00000207349088010BD6F487249483004F02F
:1002C000F0BF70B5694D704C483D2146284604F09A
:1002D000C5FF002813D02146284604F0E2FF6B48F2
:1002E00001F0F1FE00280AD1694C0021204605F0FA
:1002F00005FE2046BDE87040012105F0FFBD70BD40
:1003000070B55A4D634C603D2146284604F0A6FF67
:10031000002805D021462846BDE8704004F0C1BF42
:1003200070BD70B5514C5C4D48342946204604F0F0
:1003300095FF002809D00021204604F004FF29463B
:100340002046BDE8704004F0ACBF70BD4748464948
:10035000303804F0A6BF0121504805F06EBC10B53E
:1003600001214F4805F069FC3E497A20888010BD84
:1003700010B54C4C0121204605F05FFC2088C106D9
:100380004948016801D5491E00E0491C016010BDC3
:10039000704710B501218C07204605F04EFC2088DF
:1003A000C1064248016801D5491E00E0491C0160B0
:1003B00010BD10B53E4C0121204605F03EFC2088C2
:1003C000C1063C48016801D5491E00E0491C016096
:1003D00010BD10B5384C0121204605F02EFC2088B8
:1003E000C1063648016801D5491E00E0491C01607C
:1003F00010BD10B5324C0121204605F01EFC2088AE
:10040000C1063048016801D5491E00E0491C016061
:1004100010BD7047704770B5042004F0C1FF00287C
:100420001ED02021284804F014FA284D0421284623
:1004300004F0F0F91A4C012805D00421284604F0F4
:10044000E9F928B109E00021204605F08FF804E021
:10045000204605F08FF81E4908601E4904200860F8
:1004600070BD704700100140208000207060024085
:1004700000802020008020104064024014030020EF
:1004800008000020008800200088001032030020AF
:10049000004800402080001000800028001000402C
:1004A00000140040000001400C000020100000205B
:1004B00000040040140000200008004080010020DB
:1004C000000C00408401002000000240000C0240AB
:1004D00088010020143C014070B50546002407F057
:1004E00087F9FE4902E02A5D0A55641C8442FADB62
:1004F000BDE870400121FA4804F025BE70B5F94D01
:1005000006460024315D00290BD0284605F01CFD6D
:100510008021284605F0A9FD0028F9D0641CE4B22A
:10052000F0E770BD70B5EF4E05460024002D0DD0EC
:100530002946304605F008FD8021304605F095FD3E
:100540000028F9D0641CE4B2032CEFD370BD73B55E
:100550000C460020FFF7E6FFE3A0FFF7CFFFDF48E0
:100560002246E2A1823807F02BFCDC488238FFF7F4
:10057000C5FFDFA0FFF7C2FFDFA0FFF7BFFFD7482F
:10058000DAA18238009A07F01BFCD44E0024D54D26
:10059000823E2846315D05F0D7FC4021284605F013
:1005A00064FD0028F9D0641C142CF2DBD2A0FFF704
:1005B000A5FFFF20FFF7B6FFFF20FFF7B3FFBDE861
:1005C0007C40FF20AEE770B505460C46C6A0FFF79D
:1005D00095FFC2482246C5A1823807F0F1FBBF480B
:1005E0008238FFF78BFFC5A0FFF788FF2846FFF78B
:1005F00085FFC1A0FFF782FFBDE87040FF2091E7B3
:1006000077B5BEA185B00646D1E90001CDE900016C
:10061000B9A0002200680390B3A0B04D0068283D47
:10062000A5F128030290AD4C1146A3F13200A95464
:1006300099548154A154521CD2B21E2AF7D30A21D4
:100640000170FF2444708470C470A448A7A150387E
:10065000079A07F0B5FBA14902A8503907F0B0F896
:100660009E4802A9823807F0ABF89C486946823858
:1006700007F0A6F899483146823807F0A1F8974864
:100680009AA15038069A07F09BFB94495039A1F182
:10069000320007F095F8914803A9823807F090F8E6
:1006A0008E492C706C702839AC70A1F15A0007F09B
:1006B00087F88A488238FFF70FFF08B070BD2DE930
:1006C000F74188468DA185B00646D1E90001CDE904
:1006D000000189A000220068039083A07F4D00687C
:1006E000283DA5F1280102901446A1F13200AC5436
:1006F0008C548454521CD2B20A2AF8D30A210170B5
:10070000FF2747708770C770744878A15038079AE0
:1007100007F056FB714902A8503907F051F86F48AD
:1007200002A9823807F04CF86C486946823807F015
:1007300047F86A483146823807F042F86748414630
:10074000823807F03DF8654803A9823807F038F889
:100750002F706F706149AF70EC7028392C71A1F166
:100760005A0007F02DF85D488238FFF7B5FE08B053
:10077000BDE8F08170B50020FFF7D4FE5AA0FFF766
:10078000BDFE56480D2259A1823807F019FB534887
:100790008238FFF7B3FE59A0FFF7B0FE594C202175
:1007A000204604F037F802464C4850A1823807F042
:1007B00007FB4A488238FFF7A1FE1021204604F0CB
:1007C00029F80246454849A1823807F0F9FA43481A
:1007D0008238FFF793FE4C4D8021284604F01AF82A
:1007E00002463E4841A1823807F0EAFA3B48823887
:1007F000FFF784FE4021284604F00CF802463748F3
:100800003AA1823807F0DCFA34488238FFF776FEE6
:100810004FF40041204603F0FDFF02462F4833A16C
:10082000823807F0CDFA2D488238FFF767FE4FF483
:100830008041204603F0EEFF024628482BA1823873
:1008400007F0BEFA25488238FFF758FE4FF40051F2
:10085000204603F0DFFF0246204824A1823807F03B
:10086000AFFA1E488238FFF749FE4021274803F0BF
:10087000D1FF024619481DA1823807F0A1FA174896
:100880008238FFF73BFE1CA0FFF738FEFF20FFF782
:1008900049FEFF20FFF746FEBDE87040FF2041E61D
:1008A000FEB51BA10646D1E90001CDE900011AA061
:1008B00000210A4D0068283DA5F1280202900C464F
:1008C000A2F132006C5454544454491CC9B2322928
:1008D000F8D30A210170FF2747701FE0D2020020E1
:1008E000B860024000500040740000002564000021
:1008F0002E7478743D000000220000002E7478747D
:100900003D220000000802400000024000100240AA
:100910002E76616C3D0000006A0000008770C77091
:100920000022AFF23801FE4807F04AFAFC4902A85B
:1009300006F046FFFA4802A9323806F041FFF848AF
:100940006946323806F03CFF3246AFF26001F448A7
:1009500007F036FAF249A1F1320006F031FF2F70AC
:100960006F70EF49AF70EC7028312C71A1F15A0013
:1009700006F026FFEA483238FFF7AEFDFEBD70B53F
:100980000D46044606F0E6FE291B491C90FBF1F2D9
:1009900001FB1200204470BD2DE9FC414FF080475F
:1009A000384604F0E7FDDF4D2969642640EA01403E
:1009B00090FBF6F000240190384604F0DBFD296935
:1009C00040EA014090FBF6F001990090401A00D5F2
:1009D0004042322800DA641C00980190022CEBDBC4
:1009E0000098002800DA4042BDE8FC812DE9FC4176
:1009F000CD4F384604F0BEFDCA4D6969642640EA11
:100A0000014090FBF6F000240190384604F0B2FD5E
:100A1000696940EA014090FBF6F001990090401AA4
:100A200000D54042322800DA641C00980190022C64
:100A3000EBDB00980028D7DA4042D5E710B5FFF786
:100A4000ABFF0446FFF7D2FF002C00DA6442002817
:100A500000DA4042204410BD01B581B0019800EB9E
:100A6000C00040000090002801D0401EFAE70CBDF5
:100A700001B581B044F250610198484300900028CC
:100A800001D0401EFAE70CBD2DE9FC4101211F20D9
:100A900004F028F801248DF8044000268DF8066043
:100AA0004FF6FF758DF80740032700958DF8057008
:100AB00069469E4803F048FE8DF804408DF80660B4
:100AC0008DF8074000958DF805706946984803F049
:100AD0003BFE8DF804408DF806608DF807400095C8
:100AE0008DF805706946934803F02EFE7CE77CB5CF
:100AF00001217E2003F0F6FF0024FC208DF8044045
:100B0000012500908DF8075002268DF80560694692
:100B1000894803F019FE48F206008DF80440009061
:100B20008DF807508DF805606946804803F00CFE8B
:100B300046F6C4408DF8044000908DF807508DF8BB
:100B4000056069467A4803F0FFFD03208DF80440F4
:100B500000908DF807508DF805606946754803F0E0
:100B6000F3FD4FF2FF508DF8044000908DF80750D0
:100B70008DF805606946714803F0E6FD7CBD1FB540
:100B80004FF4E06003F028FD36208DF80C000024BF
:100B90008DF80D408DF80E4001208DF80F0003A850
:100BA00003F01FFD0121102003F0BAFF3220ADF841
:100BB0000000ADF80840ADF8024040F2E730604C6C
:100BC00001906946204604F08FFC0121204605F083
:100BD00034F801221146204605F00FF80021204686
:100BE00004F0C4FC0121204604F0F6FC1FBD1FB533
:100BF0004FF4E06003F0F0FC37208DF80C00002487
:100C00008DF80D408DF80E4001208DF80F0003A8DF
:100C100003F0E7FC0121202003F082FF4FF4FA707B
:100C2000ADF80000ADF80840ADF8024040F2E73002
:100C3000444C01906946204604F056FC01212046B0
:100C400004F0FBFF01221146204604F0D6FF0021EC
:100C5000204604F08BFC0121204604F0BDFC1FBDA2
:100C600070B58AB00121022003F064FF01210C203D
:100C700003F038FF2E4E03220621304603F0EDFD2F
:100C800003220721304603F0E8FD03220821304605
:100C900003F0E3FD03220921304603F0DEFD4FF4AB
:100CA0007070059002208DF8180003208DF819004F
:100CB00000248DF81A4001258DF81B5005A93046F7
:100CC00003F042FDA420ADF81C0028021E4E08903F
:100CD000ADF82400ADF81E4007A9304604F004FC2E
:100CE0006020ADF80000ADF802500294ADF80C4061
:100CF0000121304604F070FC0021304604F036FC3F
:100D00006946304604F072FC6946304604F09AFCAD
:100D10006946304604F0D2FC6946304616E00000D1
:100D20008202002000000020000400400004024075
:100D300000080240000C0240000002400010024087
:100D400000100040001400400004014004F0F0FCDA
:100D50000121304604F032FF0AB070BD70B58AB090
:100D60000121042003F0DCFE01210D2003F0BAFE76
:100D7000FF4E02220C21304603F06FFD02220D21AE
:100D8000304603F06AFD02220E21304603F065FD75
:100D900002220F21304603F060FD4FF470400590B1
:100DA00002208DF8180003208DF8190000248DF81A
:100DB0001A4001258DF81B5005A9304603F0C4FCEC
:100DC000A420ADF81C002802EA4E0890ADF82400DB
:100DD000ADF81E4007A9304604F086FB7020ADF840
:100DE0000000ADF802500294ADF80C4001213046ED
:100DF00004F0F2FB0021304604F0B8FB69463046AF
:100E000004F0F4FB6946304604F01CFC69463046A9
:100E100004F054FC6946304604F08AFC9CE730B587
:100E2000012187B0080403F085FE0121084603F084
:100E300059FE00244FF6FF70CF4DADF800400190F1
:100E4000ADF80840ADF802406946284604F04CFB76
:100E50000420ADF80C00C820ADF814000120ADF856
:100E60001000ADF80E4003A9284604F0F7FDC34C6E
:100E700000231A460321204604F059FF0121204691
:100E800004F0DBFE01221146204604F0B6FE0121EB
:100E9000284604F0A1FB0021204604F067FB07B0C0
:100EA00030BD2DE9F04701218AB0084603F038FE35
:100EB0000121022003F034FE0121032003F012FE81
:100EC000DFF8BC9201220F21484603F0C6FCDFF890
:100ED000B48201220321404603F0BFFC0222042118
:100EE000404603F0BAFC02220521404603F0B5FC5F
:100EF00002268DF80460032738208DF80570002441
:100F000000908DF8064001258DF80750694640464F
:100F100003F01AFC8DF80460E8038DF8057000906A
:100F20008DF806408DF807506946484603F00CFCE2
:100F30004FF6FF70ADF80C4004904FF08049ADF8CB
:100F40001440ADF80E4003A9484604F0CDFADFF88E
:100F500038A203A9504604F0C7FA4FF00408142041
:100F6000ADF81880ADF82000ADF81A60ADF81C504F
:100F700006A9484604F072FD06A9504604F06EFD2D
:100F800002231A460321484604F0D1FE02231A46E2
:100F90000321504604F0CBFE0121484604F04DFEEB
:100FA0000121504604F049FE01221146484604F052
:100FB00024FE01221146504604F01FFE012148463E
:100FC00004F00AFB0121504604F006FB00214846CC
:100FD00004F0CCFA0021504604F0C8FA780203F07D
:100FE000FBFA1D208DF808008DF809708DF80A4075
:100FF0008DF80B5002A803F0F4FA1C208DF80800BD
:101000008DF809808DF80A408DF80B5002A803F086
:10101000E8FA0AB0BDE8F08770B501218AB0084649
:1010200003F088FD0121102003F05CFD4FF42060E7
:10103000009002208DF8040003208DF805000024A4
:10104000524E8DF8064001258DF80750694630460E
:1010500003F07AFB01220921304603F0FEFB012256
:101060000B21304603F0F9FB4FF6FF70424EADF80E
:1010700008400390ADF81040ADF80A4002A9304690
:1010800004F032FA0420ADF814000A20ADF81C0078
:10109000ADF81640ADF8185005A9304604F0DEFC56
:1010A00000231A460321304604F041FE0121304658
:1010B00004F0C3FD01221146304604F09EFD0121DB
:1010C000304604F0BAFD01221146304604F095FD89
:1010D0000121304604F080FA0021304604F046FA3F
:1010E0004FF4C06003F078FA19208DF820008DF8D5
:1010F00021508DF822408DF8235008A803F071FA92
:101100002AE6F0B59BB00121214803F0EBFC012158
:101110000D02284603F00EFD1E480024CDE90040D4
:101120001D4802A9082681E85100A800CDE9054024
:10113000400007908000CDE908050AA900010125BB
:1011400081E83100154F0D94694638460E9403F03E
:10115000C1FF0121384603F0F6FF3C20199003201F
:101160008DF868008DF86B4019A90D481AE0000051
:10117000000C024000080040000001400040014017
:101180000000024000040240000400400010024041
:10119000050040004C200140040300201064024080
:1011A0000008024003F0D0FA4FF44030CDE915407A
:1011B0004FF47060CDE9174015A803F090FD2806A4
:1011C0000F908DF840508DF8415011941294139463
:1011D0008DF850600FA9FE4C204603F055FD042306
:1011E00001220221204603F0C4FD04230222032130
:1011F000204603F0BEFD042303221946204603F0D7
:10120000B8FD04231A460521204603F0B2FD04234D
:1012100005220C21204603F0ACFD042306220D21FB
:10122000204603F0A6FD042307220E21204603F0EA
:10123000A0FD042308220F21204603F09AFD01217E
:10124000204603F013FE0121204603F005FE012194
:10125000204603F05BFD204603F0C5FD1BB0F0BD4A
:1012600008B54FF4E06003F0B7F925208DF80000D1
:1012700000208DF801008DF8020001208DF8030098
:10128000684603F0AEF908BD70B5054696B0012179
:10129000102003F04FFC0121084603F023FC01213C
:1012A000880503F01FFC4FF4C060139002208DF8F6
:1012B000500000248DF852408DF85340C54E8DF8F3
:1012C000510013A9304603F03FFA072209213046A6
:1012D00003F0C3FA07220A21304603F0BEFA0F9545
:1012E000ADF844400C20BC4DADF84040ADF8460090
:1012F000ADF84240ADF848400FA9284604F08DFDF6
:101300000121284604F0FAFD4FF4A06003F064F9CF
:101310003A208DF854008DF855408DF85640012044
:101320008DF8570015A803F05CF9AC4E304603F079
:1013300049FE4FF000600090A948CDE902040A2060
:101340000490281D01900015CDE905408010CDE9DD
:10135000084040020A9004200B9007940320CDE936
:101360000C04694630460E9403F0B4FE012240217D
:10137000284604F05AFE01221021304603F058FF9F
:101380000121304603F0DFFE16B070BDF0B5064611
:10139000012197B0480503F0A5FB01214D04284623
:1013A00003F0BEFB0121082003F09CFB602013909A
:1013B00002208DF8500000248DF852408DF85340E3
:1013C000884F8DF8510013A9384603F0BDF9072264
:1013D0000521384603F041FA07220621384603F07A
:1013E0003CFA0F96ADF844400C207F4EADF84040DB
:1013F000ADF84600ADF84240ADF848400FA9304680
:1014000004F00BFD0121304604F078FD4FF4A0609C
:1014100003F0E2F811208DF854008DF855408DF856
:10142000564001208DF8570015A803F0DAF86F4FE9
:10143000384603F0C7FDA8020090402003906C4896
:1014400002903C200490301D01900015CDE905402C
:101450008010CDE908400420CDE90A50079403200C
:10146000CDE90C04694638460E9403F033FE0122A0
:101470008021304604F0D9FD01228021304604F05D
:10148000D4FD01221021384603F0D2FE0121384656
:1014900003F059FE17B0F0BD70B50546012196B0B6
:1014A000880403F03DFB0121082003F01BFB012110
:1014B000480503F017FB4FF44070139002208DF89D
:1014C000500000248DF852408DF85340454E8DF861
:1014D000510013A9304603F037F90722082130469E
:1014E00003F0BBF907220921304603F0B6F90F9546
:1014F000404EADF84040ADF844400C25ADF84240B8
:10150000ADF84840ADF846500FA9304604F085FCD0
:101510000121304604F0F2FC4FF4A06003F05CF8C7
:101520008DF854508DF855408DF8564001208DF8B7
:10153000570015A803F055F82C4D783D284603F0C8
:1015400041FD4FF000600090254869461E30CDE90E
:10155000020408200490301D01900015CDE90540DB
:101560008010CDE9084040020A9004200B900794B7
:101570000320CDE90C0428460E9403F0ABFD0122B4
:101580004021304604F051FD01224021304604F054
:101590004CFD01221021284603F04AFE0121284675
:1015A00003F0D1FDF0E6F0B50646012197B0C8047E
:1015B00003F0B6FA0121084603F094FA0121480528
:1015C00003F090FA0325022013958DF8500013E0E4
:1015D0000020014000000240001001404064024031
:1015E00014030020000C024000440040A0600240B0
:1015F000040100200048004000248DF852408DF87E
:101600005340F94F8DF8510013A9384603F09CF868
:1016100008220021384603F020F90822012138462B
:1016200003F01BF90F96ADF844400C20EF4EADF8D7
:101630004040ADF84600ADF84240ADF848400FA933
:10164000304604F0EAFB0121304604F057FC4FF429
:10165000A06002F0C1FF0D208DF854008DF85540B8
:101660008DF8564001208DF8570015A802F0B9FFFB
:10167000DF4F384603F0A6FC78050090DD48CDE941
:10168000020408200490301D01900015CDE90540AA
:101690008010CDE90840400207940A900420CDE96B
:1016A0000C540B90694638460E9403F013FD01224A
:1016B0004021304604F0B9FC01224021304604F0BC
:1016C000B4FC01221021384603F0B2FD0121384656
:1016D00003F039FDDEE62DE9F0418046012196B0A8
:1016E000480503F0FFF90121080503F019FA01216B
:1016F0000C2003F0F7F902258DF8405000248DF8F6
:101700004240BD4F04268DF843400F968DF841505E
:101710000FA9384603F018F88DF840508DF8424074
:101720008DF84340E8028DF84150B44D0F900FA959
:10173000284603F009F808220221384603F08DF804
:1017400008220C21284603F088F84FF4A06002F02C
:1017500043FF2F208DF8540005208DF855008DF89B
:10176000560001208DF8570015A802F03AFFADF899
:101770004C400C20A24DADF84840ADF84E00CDF8DD
:101780004480ADF84A40ADF8504011A9284604F015
:1017900044FB0121284604F0B1FB954F78373846C9
:1017A00003F010FC700600904020039091486946B9
:1017B0005138029031200490281D01900015CDE988
:1017C00005408010CDE908404002CDE90A060794A3
:1017D0000320CDE90C0438460E9403F07BFC012273
:1017E0008021284604F021FC01221021384603F014
:1017F0001FFD0121384603F0A6FC16B0BDE8F081BC
:1018000030B585B00121082003F06CF9012188036F
:1018100003F090F900240C208DF81040012503906E
:101820008DF8135003A9744802F08EFF02210320A3
:1018300004F065FC042000908DF8044010208DF821
:1018400005008DF80650684603F05AFD08208DF813
:1018500008008DF809408DF80A408DF80B5002A859
:1018600002F0BFFE05B030BD10B5012810D003282E
:1018700019D0042822D0052809D1614C204604F053
:1018800063FB4021204604F0F0FB0028F9D010BD96
:101890005C4C204604F058FB4021204604F0E5FB58
:1018A0000028F9D010BD584C204604F04DFB4021D3
:1018B000204604F0DAFB0028F9D010BD4B4C20463E
:1018C00004F042FB4021204604F0CFFB0028F9D071
:1018D00010BD4E49002048624D49C8604FF080421B
:1018E000506208614B4A10604861704770B5484DBE
:1018F00000202871044661210120FFF7B5FF322046
:10190000FFF7B6F8641C022CF5D3012028717A2069
:10191000E87070BD10B561210120FFF7A5FFBDE89B
:1019200010400A20FFF7A4B870B5394D0020A87107
:10193000044661210320FFF797FF3220FFF798F854
:10194000641C022CF5D30120A8717A20687170BD47
:101950002DE9F14F96B0002014908DF800008DF81D
:1019600028002B492C48DFF8A8C0169F234C2B4A8F
:101970008614CB6A4FF400450CF1800C4FF480794B
:101980004FF4806A4FF4804B122F6BD2DFE807F0E0
:1019900009276B71767B80848A8E92969A9EA3A784
:1019A000B1FD022102F036FF60B101222946204636
:1019B00002F048FF2946204602F036FF0146002289
:1019C00017A091E000222946204602F03BFF29465D
:1019D000204602F029FF0146002218A084E00122DF
:1019E0001EA0DCF83C107FE000000240004C0040EC
:1019F0004060024023030020000C02400008024027
:101A0000005000400010014000480040000001402C
:101A100000000020240400400004024020020020B6
:101A2000524F424F542044414E4720434841592091
:101A300053414E20444F3A2020200000524F424F45
:101A4000542044414E4720434841592053414E20A1
:101A500058414E483A20202000000000494D553A98
:101A60000000000042E0FEF7E9FF01460222EDA07F
:101A70003AE00322EFA0DCF87C1035E0F0480422C5
:101A80000168F0A030E00522F1A0DCF878102BE02E
:101A90000622496CF1A027E0E9487030072201795D
:101AA000F1A021E008228969F2A01DE00922C9699C
:101AB000F1A019E00A22096BF0A015E00B22896B56
:101AC000F2A011E011680C22F4A00DE052F82310EE
:101AD0000D22F8A008E00E221946FCA004E0FE4802
:101AE0000F2250F82310FDA0FEF78AFD17B0BDE8C5
:101AF000F08FDFF8F8838021404602F08BFE02462B
:101B0000FBA1684606F05CF969460AA805F058FE94
:101B10004946404602F07EFE0246F5A1684606F0C0
:101B20004FF969460AA805F04BFE57465146404614
:101B300002F070FE0246EEA1684606F041F96946E1
:101B40000AA805F03DFE8021204602F063FE024611
:101B5000E7A1684606F034F969460AA805F030FEA8
:101B60004021204602F056FE0246E1A1684606F0FA
:101B700027F969460AA805F023FE3946204602F0F7
:101B800049FE0246DAA1684600E0B5E006F018F921
:101B900069460AA805F014FED64F0121384602F026
:101BA00039FE0246D2A1684606F00AF969460AA83B
:101BB00005F006FE0221384602F02CFE0246CCA1BA
:101BC000684606F0FDF869460AA805F0F9FD2021EF
:101BD000404602F01FFE0246C5A1684606F0F0F836
:101BE00069460AA805F0ECFD4021404602F012FECD
:101BF0000246BFA1684606F0E3F869460AA805F068
:101C0000DFFD3146404602F005FE0246B8A16846B7
:101C100006F0D6F869460AA805F0D2FD1021404624
:101C200002F0F8FD0246B2A1684606F0C9F869461E
:101C30000AA805F0C5FD2946404602F0EBFD024624
:101C4000ABA1684606F0BCF869460AA805F0B8FDE5
:101C50000821404602F0DEFD0246A5A1684606F0D6
:101C6000AFF869460AA805F0ABFD0421404602F032
:101C7000D1FD02469EA1684606F0A2F869460AA870
:101C800005F09EFD0221404602F0C4FD024698A1E7
:101C9000684606F095F869460AA805F091FD5D468C
:101CA0005946404602F0B6FD024691A1684606F04C
:101CB00087F869460AA805F083FD4FF400512046D5
:101CC00002F0A8FD02468AA1684606F079F8694646
:101CD0000AA805F075FD2946204602F09BFD024644
:101CE00083A1684606F06CF869460AA805F068FD0D
:101CF00010220AA980A04CE12946074602F094FD73
:101D000002467BA1684606F05BF869460AA805F022
:101D100057FD5946384602F087FD024674A16846D1
:101D200006F04EF869460AA805F04AFD4FF4005146
:101D3000384602F079FD02466DA1684606F040F88B
:101D400069460AA805F03CFD3146384602F06CFDB4
:101D5000024667A1684606F033F869460AA805F00E
:101D60002FFD4FF400684146384602F05DFD024603
:101D70005FA1684606F024F869460AA805F020FD30
:101D80005146384602F050FD024659A1684606F019
:101D900017F869460AA805F013FD4FF400712046B4
:101DA00002F042FD024652A1684606F009F8694673
:101DB0000AA805F005FD4D464946204602F034FDCF
:101DC00002464BA1684605F0FBFF69460AA805F0EC
:101DD000F7FC4A4C2946204602F026FD024644A163
:101DE000684605F0EDFF69460AA805F0E9FC012107
:101DF000204602F019FD02463DA1684605F0E0FFCD
:101E000069460AA805F0DCFC0221204602F00CFD20
:101E1000024637A1684605F0D3FF69460AA805F0D7
:101E2000CFFC6DE0454E434F4445525F544F4E4703
:101E30003A0000006C617A6520646F3A200000006F
:101E4000000100206C617A652078616E683A0000BC
:101E50006C617A652073617500000000646F206C0E
:101E6000617A653A000000004C4A4F595F4C523A83
:101E700000000000693A20006A3A200073696C6F24
:101E80005F7675615F636861793A20006269656EAB
:101E9000203220626F6E673A20000000626F6E672A
:101EA0002074726F6E672073696C6F5B305D3A20CF
:101EB00000000000626F6E672074726F6E6720739F
:101EC000696C6F5F736F3A200000000073696C6F7C
:101ED0005F736F3A20000000380200206269656E6F
:101EE000206461207468613A200000000010024004
:101EF00025640000000C0240493A00000000024046
:101F00000121384602F090FC0246AFF21C016846FF
:101F100005F056FF69460AA805F052FC41462046E6
:101F200002F082FC0246AFF23801684605F048FF35
:101F300069460AA805F044FC3146204602F074FCCC
:101F40000246AFF25401684605F03AFF69460AA816
:101F500005F036FC8021384602F066FC0246AFF2FE
:101F60007001684605F02CFF69460AA805F028FCB8
:101F70004021384602F058FC0246AFF28C01684618
:101F800005F01EFF69460AA805F01AFC11220AA9ED
:101F9000FEA0FEF794FBA9E50121FD4803F0D3B8AC
:101FA00011B4FC48416F009A914201DD002101E02B
:101FB000416F491C4167406F18BCC9E42DE9F047E7
:101FC0000025F54E074601244FF400594FF4804890
:101FD0004FF4805A00224146304602F033FC102074
:101FE000FEF73AFD274201D0012200E000224946D7
:101FF000304602F027FC01224146304602F022FC26
:102000001020FEF729FD5146304602F003FC00B1D6
:102010002543600010F0FF04DCD12846BDE8F087BE
:1020200070B5DD4E4FF4004500222946304602F0DF
:1020300009FC1020FEF710FD0120FFF7BFFF422032
:10204000FFF7BCFFFF20FFF7B9FFFF20FFF7B6FF48
:10205000D04CF0342070FF20FFF7B0FF6070FF20FD
:10206000FFF7ACFFA070FF20FFF7A8FFE070FF2094
:10207000FFF7A4FF2071FF20FFF7A0FF6071294642
:102080003046BDE87040012202F0DCBB70B5C24EA4
:102090004FF4004500222946304602F0D3FB1020C1
:1020A000FEF7DAFC0120FFF789FF4220FFF786FFE9
:1020B000044601222946304602F0C4FB1020FEF7F8
:1020C000CBFC204670BDB34A0021803A9164C279AE
:1020D000B049F0310D2A09D0FF200870487088708F
:1020E000C8700871487188710020704702780A70C2
:1020F00042784A7082788A70C278CA7002790A710E
:1021000042794A718079887101207047A148F03086
:10211000A0F5B8710278FF2A05D14278FF2A02D1D2
:102120008278FF2A09D08A6C531C8B64C82A03DD8D
:10213000FF210170417081707047002088647047F2
:102140009448F030807970479248F030007840062B
:1021500001D401207047002070478E48F03000788D
:10216000C00601D4012070470020704701B59DF8DA
:102170000000052801D2002008BD9DF8000008BD20
:10218000F0B5844E0027803E1D4606F582744FF060
:10219000010C002806D009DDC0B2FFF7E7FFE070B0
:1021A000A7700AE096F87400E07006E04042C0B202
:1021B000FFF7DCFFE07084F802C0002907D00ADDD9
:1021C000C8B2FFF7D3FFE07184F806C009E096F8C3
:1021D0007400E07105E04842C0B2FFF7C7FFE0714C
:1021E000A771002A06D009DDD0B2FFF7BFFFE07269
:1021F000A7720AE096F87400E07206E05042C0B29E
:10220000FFF7B4FFE07284F80AC0002D07D00ADDA2
:10221000E8B2FFF7ABFFE07384F80EC0F0BD96F8AC
:102220007400E073F0BD6842C0B2FFF79FFFE07337
:10223000A773F0BD57498431C870C871C872C8739C
:10224000704754490120886570475248C069A0F51D
:10225000EA41303901D00120704700207047FFF774
:1022600045BB4C488038B0F90800404270474948A7
:10227000B5EEC00A8038D0ED140AF1EE10FA02D2A1
:1022800030EE600A01E030EE200ABDEEC00A10EE2A
:10229000100A704710B5041E2DED068B3D489FEDCA
:1022A0003FAB9FED409B11D0806814DA05F02FFC06
:1022B00041EC180B204605F02AFC53EC1A2B05F0D4
:1022C00045FB53EC192B05F03BFB13E09FED370A60
:1022D000BDEC068B10BD05F01AFC41EC180B204636
:1022E00005F015FC53EC1A2B05F030FB53EC192BC1
:1022F00005F085FA53EC182B05F09AFB05F02BFC42
:1023000000EE100AE4E7B5EEC00AF1EE10FA01DAC9
:10231000B1EE400A7047002800DA404270471D497C
:10232000803991ED1B0AD1ED1C1AF1EE400A80EEC6
:10233000A11A00EE900AF8EEE00A01EE200ABDEEC6
:10234000C00A10EE100A7047B0EE402A9FED180A3E
:10235000B5EEC02AF1EE10FA01D2B1EE422AF5EE46
:10236000C00AF1EE10FA01D2F1EE600AB5EEC01A21
:10237000F1EE10FA01D2B1EE411AF5EEC01AF1EE0B
:1023800010FA01D2F1EE611A14E000004F3A000099
:10239000A060024080000020000C02403333333341
:1023A0003333D33F9A9999999999B93F0000000026
:1023B0006F12833AB4EEC02AF1EE10FA01DDB0EEEE
:1023C000420AF4EEC00AF1EE10FA01DDB0EE600A46
:1023D000B4EEC01AF1EE10FA01DDB0EE410AF4EEEF
:1023E000C01AF1EE10FA01DDB0EE610A7047FB4849
:1023F00080687047F948406B704770B5F74C2DED19
:10240000048BB0EE408AA4F18005E069A0F5EA41B2
:1024100030393ED0A26AE16B95ED171A891A401A3D
:1024200000EE100AB8EEC00AC0EE010A95ED180AD7
:1024300030EE800AD5ED1F0A60EE208AB0EE680A01
:1024400005F08EFDB0EE009A20EE090A84ED150A23
:10245000B0EE680A05F0DCFC60EE090AC4ED140A6F
:1024600094ED151A94ED0C0A31EE001A30EEC00A04
:1024700084ED121A84ED130AB5EEC08AF1EE10FA5B
:102480006ED0606805286BD2DFE800F00E1F324185
:1024900056001FED3A0A84ED150A84ED140A84ED06
:1024A000130A84ED120AE7E794ED120A30EE080AE7
:1024B00084ED120A94ED130A30EE480A84ED130AF3
:1024C00094ED140A30EE080A1EE094ED130A30EE83
:1024D000480A84ED130A94ED140A30EE080A84EDDC
:1024E000140A94ED150AD5ED150A08EE600A20E0ED
:1024F00094ED120A30EE080A84ED120A94ED140AE3
:10250000D5ED150A08EE200A84ED140A0DE094EDCD
:10251000120A30EE080A84ED120A94ED130AD5ED82
:10252000150A08EE600A84ED130A94ED150A30EEE0
:10253000480A84ED150A13E094ED120AD5ED150A48
:1025400008EE200A84ED120A94ED130A30EE480AD0
:1025500084ED130A94ED140A30EE080A84ED140A8F
:1025600004F1480090EC040AFFF7EEFED5ED130AE3
:10257000F8EEE00A80EE801ABDEEC10A10EE100AF5
:102580002061A168814200DDA06001202060BDECD7
:10259000048B70BD914900220028CA6048610FD1A8
:1025A0001FED7E0A8A6081ED0C0A47F23050C86147
:1025B000086281ED0B0A4A604A624A638A651CE739
:1025C0007047864890ED0B0AB5EEC00AF1EE10FA9E
:1025D00004D1416811B9416A002909D01FED8D0A63
:1025E000002180ED0B0A41604162C16B816204E70A
:1025F00070477A488038C0ED1B0A80ED1C0A70478E
:10260000764AD369834209D1D3688B4206D1D2ED91
:102610000C0AF4EE400AF1EE10FA0ED0D160916887
:1026200009B905219160D16B916282ED0C0AD061EC
:102630000020906192ED0B0ADFE67047674B30B4E3
:102640005C6A844209D1D3ED0B0AF4EE400AF1EE44
:1026500010FA02D15C688C4225D0DD6947F2305413
:10266000A54218D1DA6005229A60A04213DAB5EECD
:10267000C00A0122F1EE10FA5A6302DDDA6B8242DF
:1026800007DCB5EEC00AF1EE10FA04D2DA6B824232
:1026900001DAB1EE400A5960586283ED0B0A00205E
:1026A000986130BCA9E630BC70470A46014647F243
:1026B0003050C3E71FEDC30AA2E770B5474C05468B
:1026C0002DED028BF0EE608AD4ED080AB0EE418A5F
:1026D000F8EEE00AF4EE400AF1EE10FA0BD1E068F1
:1026E000A84208D1D4ED090AF8EEE00AF4EE680A2F
:1026F000F1EE10FA4AD0FDEEC00AC4ED080AD4ED9E
:102700000F0AF8EEE00A30EE600ABDEEC00A10EEE5
:10271000100A1FEDDA0A2946FFF772FF94ED0F0A3F
:10272000F8EEC00A78EEE00AFDEEE00A10EE903A0C
:10273000002B00DA5B42B8EEC00A642B19DDF4EE20
:10274000C08AF1EE10FA01DCB1EE488A18EE100AE8
:1027500005F0EEF905F0FFF9FDEEE80ABDEC028B9D
:102760002A46BDE8704000EE100A002110EE900AE3
:1027700064E738EEC00A10EE100A05F0D9F99FEDB3
:10278000181B53EC112B05F0E1F8E3E7BDEC028BCD
:1027900070BD124910B5486B01282CDDCA6B486A20
:1027A000801AFFF7B8FD062809DA486B421C4A6315
:1027B000B0F5FA7F1FDDBDE810400020EAE60520F5
:1027C0004A6BC860FA2A886001DDFB2048634A6AC8
:1027D000C86B904208DDBFEE000A07E080000020D1
:1027E0007B14AE47E17A743FB7EE000A81ED0B0A25
:1027F000BDE8104001E610BD70B5FE4991ED0C0A30
:10280000B5EEC00AF1EE10FA73D18B68002B70D0D0
:10281000486A47F23054A0426BDA91ED0B0AB5EEEC
:10282000C00AF1EE10FA7DD0CD69A1F18002A54277
:1028300060D1B5EEC00A1346F1EE10FA9B6E03DDCF
:10284000CD6BC41AAC4208DBB5EEC00AF1EE10FA4B
:1028500017D2CC6B0344A34213DD4B6B032B48DA36
:10286000CB6BC01AFFF757FD0A28486A0ADA88635B
:10287000002088609FEDE00AC86081ED0B0A02200D
:10288000486379E091ED020AD1ED0B0ACB6BB8EE0B
:10289000C00A984260EE200A92ED1A0AB8EEC01AF9
:1028A00080EE810A0FDDFFF72EFDCB6B486AC01A60
:1028B000FFF731FD00EE900AB8EEE01AD2ED160AED
:1028C00040EE010A0EE0FFF71EFDCB6B486AC01A0E
:1028D000FFF721FD00EE900AB8EEE01AD2ED160ADD
:1028E00050EE410A91ED020AB8EEC01A80EE810A5C
:1028F00042E046E0BF4AB5EEC00A803AD2ED190A7E
:10290000F1EE10FA18DD01EE100AF8EEC11A01EE30
:10291000103AB8EEC11A41EE401AB8EEE01A71EE64
:10292000C11A00E02BE091ED0F1AB8EEC11AF4EED7
:10293000C11AF1EE10FA1BD3B5EEC00AF1EE10FA8F
:102940001AD201EE100AF8EEE00AF8EEC11A01EE12
:10295000103AB8EEC11A41EE401A31EEA01AD1ED8C
:102960000F0AF8EEE00AB4EEE01AF1EE10FA03DD19
:10297000C96B401AFFF78EFCBDE870403DE5886AE0
:10298000F6E770BD9B49486B02280CDA9FED9A0A66
:10299000002281ED0C0A81ED0B0A47F230504A60AB
:1029A000C861C1E908028B6992485B1C80388B6161
:1029B000826F406F934201DB8A61896D3AE48D4AF0
:1029C00093695B1C9361834204DD906808449060C6
:1029D00000209061704710B5FFF743FC854CE06321
:1029E000FFF7D7FEE268A0684FF0FF31002A0BDD49
:1029F00090420ED006DA216988420ADAFFF78FFC8E
:102A0000022104E0606C02E000283CDD6069FFF711
:102A1000D6FFD4E90F01814203D0FFF7EDFEE06B52
:102A200020642068002831D094ED020AD4ED150A04
:102A3000B8EEC00A20EE200AFFF719FC94ED020A56
:102A4000D4ED140A0346B8EEC00A20EE200AFFF7C0
:102A50000EFC94ED020AD4ED130A0246B8EEC00A49
:102A600020EE200AFFF703FC94ED020AD4ED120ACF
:102A70000146B8EEC00A20EE200AFFF7F8FBBDE8D9
:102A80001040FFF77DBBBDE810407BE710BD70B57F
:102A90000D462DED048B06461446F0EE418AB0EE4D
:102AA000609AB0EE408A0221544801F0B3FE78EEFD
:102AB000281A38EE680A9FED521A012809D04D48AD
:102AC00080300068401BA04218DD00BFB0EE610AF4
:102AD00006E04848C06FA0EB0500A042F6DC03DA30
:102AE000F0EE490A304604E0F0EE490A3046B0EE16
:102AF000480ABDEC048BBDE87040DEE5F4DAEFE790
:102B000070B50D462DED048B06461446F0EE418A55
:102B1000B0EE609AB0EE408A0221384801F07AFEA9
:102B2000344B012878EE281A38EE680A986F9FED2A
:102B3000341AA0EB050004D0A04213DDB0EE610A08
:102B400002E0A042FADC03DAF0EE490A304604E083
:102B5000F0EE490A3046B0EE480ABDEC048BBDE801
:102B60007040AAE5F4DAEFE72DE9F05F2149F03192
:102B70008878401FF52801D8012500E00025087954
:102B8000401FF52801D8012700E00027194A0878DE
:102B900002F1F002C30652780DD543060BD5830629
:102BA00009D5030607D535B12FB1930603D5BDE886
:102BB000F05F0220EEE4530702D43226142403E02F
:102BC000D2071FD01E260A248B46DFF82880C106B4
:102BD00047F23059A8F1800A4FEA406115D4002924
:102BE00055DA81064FEA00602CD5002831462FDAED
:102BF000002036E0800000200000000000040240B9
:102C0000CDCC4C3E0A260724DEE700294FEA80613E
:102C100009DB00294FEA00601CDA002831461FDA80
:102C20004FF4E1601DE000294FEA006005DB002859
:102C30002DDA31464FF4617013E000281DDB314678
:102C4000FC480EE0002822DA31464FF4E17008E03B
:102C5000F94806E000281ADA314640F2465000E012
:102C6000F648FFF727FD9BF80000C1060FD5410687
:102C70000DD581060BD5000609D54DB95FB1D8F841
:102C80001C10494507D00520FFF784FC03E015B16F
:102C9000FFF797FC31E09BF8021001225846052906
:102CA00012D24378DB070FD0D8F81C10494504D066
:102CB00031460020BFEE080A14E08AF800202346BF
:102CC00062421046194616E0FA291CD99BF8010009
:102CD000C00718D0D8F81C10494506D0314600204E
:102CE000B7EE080AFFF7E1FC07E08AF8002063422C
:102CF000224619461046FFF743FA00218AF80010D1
:102D0000BDE8F05F5DE402231A4619461846F2E773
:102D100030B5CB48CB4A1423C56D691CC16501464B
:102D20000C6E0021142D03D2D5892C44046604E0D6
:102D3000B4FBF3F4C16584670166456E6C1C4466A0
:102D4000BF4C142DA46E03D295892C44846604E0F4
:102D5000B4FBF3F44166C4678166C56E6C1CC4663F
:102D6000B74C142D246F02D25189214405E0B4FBE5
:102D7000F3F2B34B80331A60C166016730BD70B5A2
:102D8000AF4CB14DF0346078C00604D4012240212C
:102D9000284601F057FD6078400615D40122110243
:102DA000AA4801F04FFD012294032146284601F074
:102DB00049FD4FF4FA70FDF75BFE21462846BDE859
:102DC0007040002201F03EBD70BD7047704770B585
:102DD0009B484FF48071F03042789C48530610D4E1
:102DE000012201F02FFD0122974D94032146284630
:102DF00001F028FDC820FDF73BFE002221462846B1
:102E000002E0D20604D40022BDE8704001F01ABDF1
:102E100070BD704710B5FEF769FDFEF75AFDBDE8BD
:102E200010400A2004F049B970B5854D864AC03576
:102E3000A5F5A074012807D0022805D0032803D0E7
:102E4000042801D005280BD10221104601F0E2FC34
:102E500000EB4000E16A05EBC00050F8210060641F
:102E600070BD70B50122794C55022946204601F00B
:102E7000E9FC774E4021304601F0CCFC0128F9D026
:102E800040F2DC50FDF7F4FD01221102204601F072
:102E9000D9FC00222946204601F0D4FC6849694843
:102EA0008039CC38C96A50F82120521C40F82120C2
:102EB000BDE87040AEE72DE9F0412DED048BFFF742
:102EC000A9FF0221604801F0A5FC00279FED619A4F
:102ED0005FEDB58ADFED609A594E80361FEDBA8AF4
:102EE000574D0128A5F180044FF42F78A06A05D032
:102EF000032830687CDAC8287BDBDAE00328E86F37
:102F000064DAC8280CDB1CE0B0EE681AF0EE480A60
:102F10004620B0EE690AFFF7D0FB0A2004F0CDF896
:102F2000E86FF028F0DB11E0B0EE681AF0EE480A26
:102F30004620B0EE490AFFF7C0FB0A2004F0BDF8B6
:102F400001E09FED469AE86FF028EDDCA7610AE00A
:102F5000B0EE480A0222F021B3EE0E1AF0EE400A5B
:102F60004620FFF794FDA86FBE28F1DBA069401C46
:102F7000A0613228F7DBFEF7ACFCDFED398AB7EE53
:102F8000081A3220F0EE680AB0EE480AFFF795FB07
:102F90004FF47A7403E000BFFFF7D6F818B9FDF7D5
:102FA0004DFDA042F8DBB7EE081AF0EE680A3220B9
:102FB000B0EE480AFFF781FB04E000BFFFF7C4F85A
:102FC000002802D130687828F8DCB5E014280ADC43
:102FD0000CE000BFF0EE480A4620B0EE601AB0EEFA
:102FE000490AFFF76AFBE86F1E28F3DCA7610CE0D3
:102FF000A9E04DE0B0EE480A02221E21B3EE0E1AFF
:10300000F0EE400A4620FFF742FDA86FAA28F1DB48
:10301000A069401CA0613228F7DBFEF75AFCB0EE35
:10302000480A6420B0EE401AF0EE400AFFF745FB74
:1030300044461BE07CFCFFFF3EFEFFFFBAFAFFFFA9
:103040008000002004030020000402400008024029
:103050000010024000002F4400002FC400009643DF
:1030600000006144FFF770F8002803D1FDF7E6FC8B
:10307000A042F7DB9FE000BFB0EE681AF0EE480A0E
:103080004620B0EE490AFFF718FB0A2004F015F8B5
:103090003068F028F0DB11E0B0EE681AF0EE480A74
:1030A0004620B0EE490AFFF708FB0A2004F005F8B5
:1030B00001E09FEDFC9A3068F028EDDCA7610AE0A2
:1030C000B0EE480A0222F021B3EE0E1AF0EE400AEA
:1030D0004620FFF7DCFCA86FBE28F1DBA069401C8E
:1030E000A0613228F7DBFEF7F4FBB7EE081ADFED3C
:1030F000EE8A3220B0EE480AF0EE680AFFF7DDFAF9
:1031000040F2DC5403E000BFFFF71EF818B9FDF7EA
:1031100095FCA042F8DBB7EE081AF0EE680A322000
:10312000B0EE480AFFF7C9FA03E000BFFFF70CF85A
:1031300010B9E86F6428F9DCBDEC048B0020BDE811
:10314000F041FFF727BA142809DC0BE0F0EE480A3B
:103150004620B0EE601AB0EE690AFFF7AEFA3068AA
:103160001E28F3DCA7610AE0B0EE480A02221E2105
:10317000B3EE0E1AF0EE400A4620FFF788FCA86F67
:10318000AA28F1DBA069401CA0613228F7DBFEF71A
:10319000A0FBB0EE480A6420B0EE401AF0EE400A00
:1031A000FFF78BFA444602E0FEF7CEFF18B9FDF7B1
:1031B00045FCA042F8DB0020FFF7ECF9BDEC048BE6
:1031C000BDE8F041FEF785BB2DE9F05F2DED048BE6
:1031D000FFF720FEB54DE86AFFF726FE0020A87035
:1031E0000221B34801F016FB40F27E49DFF8C4A289
:1031F000C9F1000B4FF47A789FEDAF8ADFEDAF8A0B
:10320000AF4C4FF48046012810D0FEF762FBA86A4D
:1032100003287CDDB6EE001ADFEDAA0A32209FED0E
:10322000AA0AFFF74AFA4FF4FA6774E0FEF751FB77
:103230004FF42F7709E000BFF0EE480A3220B0EEDD
:10324000601AB0EE680AFFF738FAFDF7F7FBB842EC
:1032500005DA3146204601F0DDFA0128ECD04FF4C2
:10326000E1673146204601F0D5FA01280DD0FFF77D
:10327000D1FD8E4E696C8036F06F88424FF0280188
:1032800021DD4046FFF716FA07E014213846FFF724
:1032900011FAE6E7FEF758FF20B9686CF16F2830A5
:1032A0008142F7DC0A214846FFF704FA03E000BF39
:1032B000FEF74AFF28B92021204601F0ABFA012889
:1032C000F6D000201CE05046FFF7F4F903E000BF01
:1032D000FEF73AFF20B9686CF16F28388142F7DBBE
:1032E0000A215846FFF7E6F903E000BFFEF72CFF7E
:1032F00028B92021204601F08DFA0128F6D01420AB
:10330000BDEC048BBDE8F05FFFF744B900E006E0D8
:10331000FEF71AFF18B9FDF73FFBB842F6DBFEF7E0
:10332000D8FA474609E000BFF0EE480A4620B0EE62
:10333000601AB0EE680AFFF7C0F9FDF77FFBB842EC
:10334000F2DB9FED629A3146204601F063FA0128D4
:103350000CD0FFF75FFD5E4E696C306888424FF01D
:10336000280126DD5046FFF7A5F90CE0B0EE491A1A
:10337000F0EE480A1420B0EE680AFFF79EF9E2E783
:10338000FEF7E2FE20B9686C31682C308142F7DC30
:103390000A215846FFF78EF904E000BFFEF7D4FE7D
:1033A00000288ED12021204601F034FA0128F5D0E2
:1033B00087E73846FFF77EF903E000BFFEF7C4FE5B
:1033C00020B9686C31682C388142F7DB0A21484605
:1033D000FFF770F904E000BFFEF7B6FE0028E7D162
:1033E0002021204601F016FA0128F5D069E72DE9E1
:1033F000F04702212E4801F00DFA2C4CDFF8B48082
:1034000001282C4E2E4DE06AA8F196084FF47A79E7
:1034100040F27E4A0CD0FFF707FD60782C4F012860
:1034200062D0002873D128213046FFF743F97CE0B1
:10343000FFF7FAFC1D4F60788037012806D000287E
:1034400065D128214846FFF735F920E0282130468C
:10345000FFF730F903E000BFFEF776FE20B9606C9D
:10346000F96F2C388142F7DB0A214046FFF722F939
:1034700003E000BFFEF768FE98B92021284601F05E
:10348000C9F90128F6D064E0FEF75EFE20B9606C51
:10349000F96F2C308142F7DC0A215046FFF70AF918
:1034A0001BE03EE0000096C3000061C40000002065
:1034B0000004024018FCFFFF000000000000E1448F
:1034C000001002400000E1C3000096449A99993E22
:1034D00000010020FEF738FE18BB2021284601F02D
:1034E00099F90128F6D034E028214846FFF7E2F8A0
:1034F00003E000BFFEF728FE20B9606C39682C3865
:103500008142F7DB0A215046FFF7D4F803E025E0BB
:10351000FEF71AFE28B92021284601F07BF9012880
:10352000F6D016E0FEF710FE20B9606C39682C303A
:103530008142F7DC0A214046FFF7BCF803E000BFF8
:10354000FEF702FE28B92021284601F063F9012880
:10355000F6D0BDE8F0470020FFF71CB8BDE8F087C3
:103560002DE9F047FD4F0421384601F053F9FC4D99
:103570000126FC4C012809D00421384601F04AF903
:103580004FF000084FF0030910B10CE0AE7028E0D6
:103590000821384601F03EF928B94FF40041384679
:1035A00001F038F928B10421384601F033F918B197
:1035B00007E085F802800BE00821384601F02AF97F
:1035C00028B10421384601F025F928B10CE0AE708D
:1035D000E96A44F8219007E02068012815D085F8B1
:1035E0000280E86A44F8206060690128B6DB606800
:1035F0000128B3DBA0680128B0DBE0680128ADDB5F
:1036000020690128AADB2660A8E7E86A022144F8BD
:103610002010A863AE70E7E72DE9F041FFF7A0FFA7
:10362000D04E00271836CF4DCD4C84E02868E8BB3B
:10363000E76100E0B8B9E06A11E000BF55F820107A
:1036400061B9217F6170E062FFF7D1FEFFF788FF6B
:10365000A078012807D02868012804D0A069401C60
:10366000A0610628EADBE069012816D1E06A10E0D3
:1036700055F8201061B9217F6170E062FFF7B7FE55
:10368000FFF76EFFA078012815D02868012815D013
:10369000A069401EA0610028EADCA07801280AD0B9
:1036A000286801280AD0E069401C00E003E0E061DE
:1036B000022840DABEE7286801283CD1E76100E033
:1036C000B8B9E06A11E000BF56F8201055F8201094
:1036D000032909D0217F6170E062FFF788FEFFF7C0
:1036E0003FFFA078012804D0A069401CA0610628F3
:1036F000EADBE069012816D1E06A10E056F82010F4
:1037000055F82010032909D0217F6170E062FFF78E
:103710006EFEFFF725FFA078012810D0A069401E9B
:10372000A0610028EADCA078012808D0E069401CEC
:10373000E0610228C4DBA07800283FF477AFE06A9C
:103740002063BDE8F08110B5FEF7C3F8844C01207A
:10375000E062FFF739FDE06A206310BD10B5FEF7A7
:10376000B8F87F4C0220E062FFF72EFDE06A20638C
:1037700010BD10B5FEF7ADF8794C0320E062FFF7FD
:1037800023FDE06A206310BD10B5FEF7A2F8744C6B
:103790000420E062FFF718FDE06A206310BD10B559
:1037A000FEF797F86E4C0520E062FFF70DFDE06A2A
:1037B000206310BD2DE9F05F684C4FF480784146DE
:1037C000204601F027F8684E4FF400594FF4804A24
:1037D00078B10221204601F01DF850B1494630462B
:1037E00001F018F828B15146304601F013F80028CE
:1037F00039D15B4801270022C76340215B4801F0B3
:1038000021F85B4DFE20E874AF744FF4805B57469F
:103810005946204600F0FEFF0128F9D140212046FC
:1038200000F0F8FF0028F3D14146204600F0F2FFF7
:103830000128EDD10221204600F0ECFF0128E7D15C
:103840004946304600F0E6FF0128E1D139463046CE
:1038500000F0E0FF0128DBD141020022304600F0F9
:10386000F1FF0020E874BDE8F09F10B510213B483F
:1038700000F0D0FF3A49012802D00120486210BD73
:103880000020FBE72DE9F05F2DED068BFFF7C2FA74
:10389000334C00203649E0632064A070FE22CA74D5
:1038A0008874DFF8C48001225102404600F0CAFF4C
:1038B000DFF8B8B001224021584600F0C3FF274D81
:1038C000A06A2E159FED2B8ADFED2B9ADFED2B8A58
:1038D0009FED2B9A4FF4807904F180074FF47A7AA8
:1038E00003287ADAFEF716F8B0EE480A1420B0EE94
:1038F000401AF0EE400AFEF7E0FE02E0E06B01281D
:1039000006D01021284600F085FF012804D009E0E8
:103910000220FEF73FFE05E03146284600F07AFF20
:103920000028EBD00020FEF735FE4FF4A070FDF725
:103930009FF8E06B012840D0606A0128D2D1FDF7E2
:103940007DF82062FDF7C5FFF0EE480A4620B0EE94
:10395000601AB0EE690AFEF7B0FE13E000100240F4
:103960000000002020020020000802400004024065
:1039700004010020000000000000E144000061C4D8
:1039800000006144276AFDF759F807EBD771B0EBE7
:10399000610FE2DB0221584600F03CFF01281DD0F8
:1039A000FDF797FFF0EE480A3220B0EE601AB0EE55
:1039B000490AFEF782FE57462CE00020FEF7EAFD9A
:1039C000A06A401CA062FDF739F82062FDF781FF74
:1039D00045469FEDFEAA4F4630E0ACE0FDF779FF8B
:1039E000F0EE480A3220B0EE601AB0EE680AFEF738
:1039F00064FE574604E000BFFEF7A6FB00289DD1F9
:103A0000FDF71CF8B842BFF66DAFF5E7FEF79CFB7B
:103A1000002893D1FDF712F8B842F4DAF6E700BFB8
:103A2000B0EE4A1AF0EE480A1420B0EE690AFEF72A
:103A300044FE00223946284600F004FF266AFCF7BF
:103A4000FDFF06EBD671B0EB610FE9DB02215846B2
:103A500000F0E0FE9FEDDEAA40F6C41440F21455DB
:103A6000012834D0B0EE4A8AB0EE001AF0EE480ACF
:103A70003220B0EE680AFEF720FE4FF4C87100BF96
:103A8000FEF7EFFB8842FBDBFDF723FFB7EE001AE2
:103A9000F0EE480A32209FEDCF0AFEF70EFE00BF7F
:103AA000FCF77AFFA042FBDBFDF713FFB7EE001A2D
:103AB000F0EE490A3220B0EE680AFEF7FEFD00BFC4
:103AC000FCF7BCFFA842FBDBBDEC068BCBE69FED11
:103AD000C28AB0EE481ADFEDC19A1E20B0EE490A44
:103AE000F0EE690AFEF7E9FDBD4900BFFEF7B9FB3C
:103AF0008842FBDCFDF7EDFEB0EE481AF0EE690AF5
:103B00003220B0EE4A0AFEF7D8FD00BFFCF744FFB2
:103B1000A042FBDBFDF7DDFEB7EE001AF0EE680A0F
:103B20003220B0EE490AFEF7C8FD00BFFCF786FF61
:103B3000A842FBDBC8E7A06A401CA0620CE000BF03
:103B4000B0EE480A1420B0EE401AF0EE400AFEF73C
:103B5000B4FDE06B01280BD01021284600F05AFE7E
:103B6000012805D13146284600F054FE0028E7D050
:103B70000020FEF70FFD4FF4FA70FCF779FFE06BC1
:103B8000012808D0606A0128D5D1FCF757FF2062D0
:103B9000FDF79FFE19E000224C4649464546404647
:103BA00000F050FEBDEC068B214628460022BDE801
:103BB000F05F00F047BE00BFB6EE001AF0EE480A14
:103BC0001420B0EE690AFEF778FDFCF737FF216A92
:103BD0008842F1DB0221584600F01CFE012802D089
:103BE000FDF777FE1DE0FDF774FE0AE097ED0D0A84
:103BF000B7EE081A1E20F8EEC00AB0EE680AFEF70B
:103C00005CFDFCF71BFF504595DAEFE797ED0D0AD9
:103C1000B7EE081A1E20F8EEC00AB0EE490AFEF709
:103C20004CFDFCF70BFF504585DAEFE72DE9F0413D
:103C30002DED068BFFF7EEF802216A4800F0EAFD51
:103C40005FEDB3AA9FED689A684D00271FEDB78A14
:103C50005FEDB59A05F18006A5F1800401280BD02F
:103C6000B6EE001AF0EE490A96209FED610AFEF7C3
:103C700024FD40F6AC58A2E0F0EE480A9620B0EEE3
:103C8000601ADFED5C8AB0EE680AFEF716FD4FF4AD
:103C9000486802E0FEF758FA18B9FCF7CFFE404535
:103CA000F8DBF0EE480A4620B0EE601A9FED520AAB
:103CB000FEF703FD03E000BFFEF746FA10B9A86F58
:103CC0004628F9DC1FEDD3AAA7610AE000221E21D5
:103CD000B0EE491AF0EE480A6420B0EE4A0AFEF748
:103CE0000FFFE86FFA28F1DBA069401CA0613228C1
:103CF000F7DBA7614FF4B4770AE000221E21B0EE93
:103D0000491AF0EE480A3220B0EE4A0AFEF7F8FEF1
:103D1000E86FB842F1DBA069401CA0613228F7DBF4
:103D20000020FEF737FCFDF7D4FDF0EE480A9620A0
:103D3000B0EE601AB0EE6A0AFEF7BFFC4FF4AF6453
:103D400003E000BFFEF700FA18B9FCF777FEA042C7
:103D5000F8DB01221102294800F074FDFDF7B9FDDE
:103D6000B7EE001AF0EE680A3220B0EE690AFEF7EC
:103D7000A4FC40F6D86402E0FEF7E6F918B9FCF7B7
:103D80005DFEA042F8DBB7EE001AF0EE680A3220C2
:103D9000B0EE690AFEF791FC03E000BFFEF7D4F92C
:103DA00010B930685A28F9DCBDEC068B0020BDE85C
:103DB000F041FEF7EFBB00BFFEF7C6F918B9FCF7FC
:103DC0003DFE4045F8DB00201AE00000CDCC4C3E23
:103DD0000000E143008009C46666A63F00409CC421
:103DE0003EFEFFFF00040240000048C280000020A9
:103DF0000040DD440000E1C4008089C400080240A6
:103E0000FEF7C8FBB6EE001AF0EE480A46209FED1A
:103E1000FE0AFEF752FC02E0FEF796F910B9A86F11
:103E20005A28F9DCB6EE001AF0EE480A46209FED5B
:103E3000F70AFEF742FC02E0FEF786F910B9A86F18
:103E40003228F9DCDFEDF28AA7610AE000221E21A8
:103E5000B0EE681AF0EE480A6420B0EE690AFEF788
:103E60004FFE3068FA28F1DBA069401CA0613228BF
:103E7000F7DB4FF4AF75A7610AE000221E21B0EE18
:103E8000681AF0EE480A3C20B0EE690AFEF738FEE8
:103E90003068A842F1DBA069401CA0613228F7DB42
:103EA0001420FEF777FBC820FCF7E2FDFDF711FDBB
:103EB000F0EE480A6420B0EE601AB0EE6A0AFEF72F
:103EC000FCFB4FF4FA6403E0FEF73EF9002803D14F
:103ED000FCF7B4FDA042F7DBBDEC068B31E410B576
:103EE000CC4CA06B012801D1FFF72DFCA06B022860
:103EF00001D1FFF733FCA06B032801D1FFF739FC98
:103F0000A06B042801D1FFF73FFCA06B052802D16C
:103F1000BDE8104043E410BDBF4A30B41068BD494D
:103F2000012815D00120886152F820306BB3401C65
:103F30000628F9DB8861086B052828D0042829D0D9
:103F400003282AD002281DD0012829D130BC26E41C
:103F5000B14B052013F1180353F8204052F82040CC
:103F6000032C01D0C86203E0401E0128F4DAC86ABD
:103F70000528EBD004280AD003280BD002280CD047
:103F800001280DD130BCFFF7DEBB0863D2E730BC9F
:103F9000FFF7FABB30BCFFF7ECBB30BCFFF7DEBB72
:103FA00030BC7047FFF76EFC9A4CE06A012808D0DD
:103FB000022809D003280AD004280BD005280CD0E9
:103FC0000DE0FFF7C0FB0AE0FFF7C8FB07E0FFF7D3
:103FD000D0FB04E0FFF7D8FB01E0FFF7E0FBFFF7C1
:103FE000BFFA06E0FFF7BCFAA078012810D0FFF76F
:103FF000FEF9A0780028F5D00025A570FEF75BFF3C
:10400000FFF740FCA06B30B1FFF769FFA5630CE040
:10401000FEF727FFF0E7FFF77FFF06E0FFF7A0FAC4
:10402000A078012806D0FFF7E2F9A0780028F5D0A3
:10403000A570E5E7FEF715FFFEF73DFFF5E77549CB
:104040000120C8620221754800F0E4BB71490220DA
:10405000C86270476F490320C86270476D490420E9
:10406000C86270476B490520C86270472DE9F04768
:104070002DED048BFEF7CEFE0221684800F0CAFB4E
:10408000644D4FF4A578803500279FED658ADFEDFC
:10409000658A604CF0EE480A012805F18006B0EE12
:1040A000601A4FF0460004D09FED5F0AFEF705FB53
:1040B0008FE09FED5E0AFEF700FB02E0FEF744F89A
:1040C00010B9A86F3228F9DC1FEDB99ADFED589AC4
:1040D0004FF49679A7610AE000221E21B0EE491A3A
:1040E000F0EE480A6420B0EE690AFEF709FDE86FB9
:1040F0004845F1DBA069401CA0613228F7DBA761CD
:1041000047460AE000221E21B0EE491AF0EE480AA6
:104110003C20B0EE690AFEF7F3FCE86FB842F1DB31
:10412000A069401CA0613228F7DB1420FEF732FAA8
:104130004FF4FA70FCF79CFCFDF7CBFBB6EE001ACF
:10414000DFED3C0A96209FED3C0AFEF7B6FA4FF4ED
:10415000E16402E0FDF7F8FF18B9FCF76FFCA0423C
:10416000F8DB01221102354800F06CFBFDF7B1FBD2
:10417000B7EE001A1FEDE18A3220B0EE680AF0EEC9
:10418000480AFEF79AFA40F6D86402E0FDF7DCFF31
:1041900018B9FCF753FCA042F8DBB7EE001AF0EEBA
:1041A000480A3220B0EE680AFEF787FA03E000BF43
:1041B000FDF7CAFF10B930685A28F9DCBDEC048B52
:1041C0003220BDE8F047FEF7E5B900BFFDF7BCFFC0
:1041D00010B9A86F3228F9DC45469FED0D9AA7610A
:1041E0000AE000221E21B0EE491AF0EE480A6420CF
:1041F000B0EE680AFEF784FC3068A842F1DBA069E3
:10420000401CA06132281BE000C0C14400808944EA
:10421000000048420000002020020020000402406C
:10422000000000000000614400009644000096C4B5
:10423000000061C400008CC200C0DA4400080240E3
:10424000DADB4FF4AF75A7610AE000221E21B0EE61
:10425000491AF0EE480A3C20B0EE680AFEF750FC1E
:104260003068A842F1DBA069401CA0613228F7DB6E
:104270000220FEF78FF9BDEC048BC820BDE8F047A3
:10428000FCF7F6BBFFF7F2FEFFF7FCFAFFF77CFA4C
:10429000FFF7C2F9FEF7E5FDFEF70DFE0025534CD2
:1042A000FFF7F0FAA06B48B1FFF719FEFFF7B4F97A
:1042B000FEF7D7FDFEF7FFFDA56307E0FFF72CFE35
:1042C000FFF7AAF9FEF7CDFDFEF7F5FDA570E7E7CC
:1042D000ACE41120FDF764FE0F2002F0EEFEF8E7DB
:1042E000FEF775FD0A2002F0E8FEF9E73F4C00BF3B
:1042F000FEF70EFDFFF75EFAFFF7B7FA207808B970
:10430000FEF769FB012002F0D8FEF1E71FB5FCF7CC
:10431000BBFBFCF7ECFBFCF721FDFCF7C2FDFCF757
:104320007BFEFCF7EEFEFCF762FC4FF4E134204626
:10433000FCF7AAFF2046FDF729F82046FDF7ACF868
:10434000E000FDF7C8F9FDF7D1FAFDF7C2FA002445
:104350004FF4807500940194029423462A4624A1C8
:104360002848039402F0D2FC0094019402940023A4
:104370002A4625A12948039402F0C8FC1B4E0B25B0
:10438000274F06F5B8740DE0FEF7EEFB2078000726
:1043900003D47563FFF74AFC04E08021384600F03F
:1043A00039FA18B1A0797328FCD1EDE7FFF76AFF5D
:1043B0007FB500244FF48075009401940294234645
:1043C0002A4618A11A48039402F0A0FC0094019414
:1043D000029400232A4617A11948039402F096FC80
:1043E00002F0BAFF04B0002070BD00000000002001
:1043F0007461736B526F626F74416E616C79746932
:1044000063730000ED4200087461736B4469657565
:104410004B6869656E436F4361750000E1420008B7
:10442000001002407461736B4D61696E0000000002
:104430000D4300087461736B4779726F00000000D0
:10444000D34200080CB500205149019000900A6841
:1044500042F480320A604FF4A0630A6802F400322A
:104460000092019A521C0192009A12B9019A9A4242
:10447000F3D10A68920334D50120009044484030BB
:10448000026842F0805202604248026842F4804270
:1044900002603F48083002680260026842F400424D
:1044A0000260026842F4A0520260031F3A4A1A6096
:1044B0000A6842F080720A600A689201FCD5374AA5
:1044C00040F205611160016821F00301016001689B
:1044D00041F0020101600168C1F381010229FAD1B2
:1044E0000CBD00900CBD2A4810B5016841F00101D7
:1044F0000160274A0021083211600268284B1A40E7
:104500000260031D274A1A60026822F480220260BA
:104510001F480C300160FFF795FF23494FF0006002
:10452000086010BD70B51A4C083420681F4A10F09E
:104530000C011F4804D05510042903D0082903D0CA
:1045400002601BE0056019E01149091D0B68C3F307
:1045500080560B6803F03F0316B1B5FBF3F201E0A0
:10456000B2FBF3F20B680968C3F388135A43C1F333
:104570000141491C4900B2FBF1F1016021680C4A7C
:10458000C1F30311121D515C0268CA40026070BD84
:10459000003802400070004008544007003C0240D0
:1045A000FFFFF6FE1030002408ED00E00024F400C8
:1045B0008C0100200648804706480047FEE7FEE7DA
:1045C000FEE7FEE7FEE7FEE7FEE7FEE7FEE7FEE7C3
:1045D000E744000889010008284908432849086081
:1045E000704730B50F22C47801780123FCB1244C08
:1045F000246801F1E02104F4E064C4F5E064C4F34C
:104600000724C4F10405E2404478AC4085781540A5
:1046100025432A0181F80024007800F01F018B4017
:104620004009800000F1E020C0F8003130BD01F009
:104630001F0083404809800000F1E020C0F880316D
:1046400030BD104A114001430D48001F0160704702
:104650000B4A121D0029116801D0014300E081437B
:10466000116070474FF0E0210428086903D020F062
:1046700004000861704740F00400FAE70000FA0502
:104680000CED00E080FFFF1F7C4910B5884206D189
:104690000121084600F058FA002101204FE0784936
:1046A000884206D10121022000F04EFA00210220AA
:1046B00045E07449884206D10121042000F044FA03
:1046C000002104203BE07049884206D101210820E6
:1046D00000F03AFA0021082031E06C49884206D106
:1046E0000121102000F030FA0021102027E0684955
:1046F000884206D10121202000F026FA0021202046
:104700001DE06449884206D10121402000F01CFAD6
:104710000021402013E06049884206D10121802019
:1047200000F012FA0021802009E05C4988420AD199
:1047300084150121204600F007FA00212046BDE83B
:10474000104000F001BA10BDF0B50023012403278A
:104750000D6804FA03F21540954242D1D0F800C02A
:104760005E0007FA06F52CEA050CC0F800C091F8C7
:1047700004C0D0F800E00CFA06FC4CEA0E0CC0F8BD
:1047800000C091F804C0BCF1010F02D0BCF1020FCF
:104790001FD1D0F808C02CEA050CC0F808C091F869
:1047A00005C0D0F808E00CFA06FC4CEA0E0CC0F884
:1047B00008C0D0F804C02CEA020CC0F804C042685B
:1047C00091F806C00CFA03FC1FFA8CFC42EA0C02BA
:1047D0004260C268AA43C260CA79C568B2402A432F
:1047E000C2605B1C102BB3D3F0BD4FF6FF710160AC
:1047F0000021017141718171C171704708B541F4A7
:1048000080320092C261C1610099C161C169C06911
:10481000009008BD0246002012690A4200D0012023
:104820007047006980B270470246002052690A4210
:1048300000D001207047406980B270470183704703
:10484000418370470AB101837047418370474161DA
:10485000704742694A40426170474B07DB0E9A40FD
:10486000C90810B500EB8100016A0F249C40A143E8
:104870000162016A1143016210BD000000000240A4
:104880000004024000080240000C024000100240F8
:104890000014024000180240001C024000200240A8
:1048A000EA48016841F001010160E84A002108324C
:1048B00011600268E64B1A400260031DE54A1A6067
:1048C000026822F480220260E0480C3001607047E8
:1048D000DE490022891C0A700870704702460020D9
:1048E000510901290CD002290CD0D849743109682A
:1048F00002F01F02012393400B4200D001207047B9
:10490000D249F4E7D1497031F1E718B500204FF4EE
:10491000A06400903120FFF7E1FF0099491C00914D
:10492000A14201D00028F5D03120FFF7D7FF0028A1
:1049300000D0012018BDC5490A6822F0F80242EAF9
:10494000C00008607047C44908607047BF49002232
:1049500070310A700A70012802D0042801D10520A4
:1049600008707047BD490860704741EA82115A08D3
:1049700010B5BB4B029C03EB02421143014341EAD9
:104980000460B249091D086010BDB349086670474C
:10499000800140EA0170AD49843108607047AE493A
:1049A00088667047AC49C8647047A84A08321368E3
:1049B000084323F0EC63184310607047A34A0832A1
:1049C0001368084323F078431843106070479F4AE8
:1049D0000832116821F003010143116070479B48C0
:1049E0000830006800F00C007047984A08321168DF
:1049F00021F0F001014311607047944A08321168B8
:104A000021F4E051014311607047904908310A6870
:104A100022F4604242EAC0000860704770B58B4AD9
:104A2000083211688F4C11F00C0104D06610042973
:104A300003D0082903D004601BE0066019E0834915
:104A4000091D0B68C3F380550B6803F03F0315B1D4
:104A5000B6FBF3F301E0B4FBF3F30C680968C4F3AD
:104A600088146343C1F30141491C4900B3FBF1F1D0
:104A7000016011680F2303EA11117B4B5C5C016834
:104A8000E14041601468072505EA94241C5D21FA81
:104A900004F48460126805EA52329A5CD140C16025
:104AA00070BDC0F30121032908D1684A083211689A
:104AB00021F4F8136D4901401943116063497031C5
:104AC0000A68C0F30B0002430A6070476349443927
:104AD0000860704761494039086070475E49C1F815
:104AE0005C017047594A30320029116801D00143F6
:104AF00000E0814311607047544A34320029116844
:104B000001D0014300E08143116070474F4A3832C1
:104B10000029116801D0014300E081431160704712
:104B20004A4A40320029116801D0014300E0814324
:104B300011607047454A44320029116801D0014391
:104B400000E0814311607047404A1032002911682B
:104B500001D0014300E08143116070473B4A1432A9
:104B60000029116801D0014300E0814311607047C2
:104B7000364A18320029116801D0014300E0814310
:104B800011607047314A20320029116801D0014379
:104B900000E08143116070472C4A243200291168DB
:104BA00001D0014300E0814311607047274A503231
:104BB0000029116801D0014300E081431160704772
:104BC000224A54320029116801D0014300E0814398
:104BD000116070471D4A58320029116801D0014305
:104BE00000E0814311607047184A60320029116863
:104BF00001D0014300E0814311607047134A6432E1
:104C00000029116801D0014300E081431160704721
:104C10000E4A0D320029117801D0014300E0814392
:104C20001170704709487430016841F0807101606B
:104C300070470146054A00200C3212680A4200D033
:104C40000120704701490E3108707047003802405A
:104C5000FFFFF6FE1030002400004742800E47425E
:104C60000000FFFF0024F400A0010020FFFCFF0F64
:104C700010B501210C022046FFF78EFF2046BDE84B
:104C800010400021FFF788BF30B54268C84B0C794F
:104C90001A400B6842EA0422134343608268C54B02
:104CA0004D791A40D1E9034323438C6844EA450413
:104CB000234313438360C26A097D22F47002491EB4
:104CC000C9B242EA0151C16230BD002101600171E7
:104CD00041718160C1600161012101757047B64B6E
:104CE00010B5D3F80423B5490A40D0E90014214394
:104CF000D0E90240044321431143C3F8041310BD1B
:104D00000021016041608160C160704700298168B5
:104D100002D041F0010101E021F001018160704702
:104D20004268A74B1A400A43426070474162826260
:104D30007047426822F01F020A43426070479E4952
:104D40000028D1F8040302D040F4000001E020F470
:104D50000000C1F80403704797490028D1F8040304
:104D600002D040F4800001E020F48000C1F8040388
:104D7000704770B5072409290AD9C568A1F10A0648
:104D800006EB4606B440A543B3401D43C56007E0AB
:104D9000056901EB4106B440A543B3401D430561DD
:104DA0001F23072A09D2446B521E02EB8202934052
:104DB0009C4391400C43446370BD0D2A09D2046B9F
:104DC000D21F02EB820293409C4391400C43046348
:104DD00070BDC46A0D3A02EB820293409C4391403D
:104DE0000C43C46270BD816841F0804181607047AE
:104DF000014600208968490200D50120704700293A
:104E0000816802D041F4806101E021F48061816019
:104E100070470029816802D041F0020101E021F0D1
:104E20000201816070474268491E22F4604242EAF2
:104E30004131416070470029416802D041F400616E
:104E400001E021F4006141607047C06C80B270479E
:104E50005948D0F8080370470029816802D041F40E
:104E6000807101E021F480718160704700298168C0
:104E700002D041F4007101E021F4007181607047BB
:104E80004D490028D1F8040302D040F4005001E05D
:104E900020F40050C1F80403704770B507240929B5
:104EA0000AD9C568A1F10A0606EB4606B440A54337
:104EB000B3401D43C56007E0056901EB4106B440FE
:104EC000A543B3401D430561836BC3F30154121B1B
:104ED000921C02EB82041F22A2409343A1400B4389
:104EE000836370BD826B491E22F4401242EA015175
:104EF0008163704708B508440090026008BD82686D
:104F000022F470220A4382607047826822F44012C1
:104F10000A4382607047816841F480018160704774
:104F2000014600208968490200D501207047002908
:104F3000416802D041F4806101E021F48061416068
:104F400070470029416802D041F4805101E021F40A
:104F500080514160704708B50844283000900068CF
:104F600080B208BD01238B4041680AB1194300E0BB
:104F70009943416070470246002012680A4200D0FF
:104F800001207047C9430160704730B502460020D8
:104F900053680C0A01258D4011682B40214202D034
:104FA000002B00D0012030BD6FEA11210160704755
:104FB000FFFEFFFCFDF7FFC000200140E030FCFFDA
:104FC000FFFD3FFF2DE9F043016821F00101016081
:104FD0000021016041608160C16001612121416166
:104FE000B849B84A3D251039904202D18D60BDE8DC
:104FF000F083B44A4FF474661832904201D18E6047
:10500000F5E7B04A4FF474173032904201D18F6007
:10501000EDE7AC4A4FF0746C4832904202D1C1F8CF
:1050200008C0E4E7A74BA84A6033984201D1CA60A0
:10503000DDE7A44CA54B7834A04201D1CB60D6E784
:10504000DFF88082A24C08F19008404501D1CC6085
:10505000CDE7DFF870824FF03D5908F1A8084045D0
:1050600002D1C1F80C90C2E79A49DFF8688208398A
:10507000404501D10D60BAE7964D1835A84201D1DF
:105080000E60B4E7934D3035A84201D10F60AEE712
:10509000904D4835A84202D1C1F800C0A7E78D4D18
:1050A0008C496035091FA84201D10A609FE7894AEF
:1050B0007832904201D10B6099E7864A9032904253
:1050C00001D10C6093E7834AA83290428FD1C1F896
:1050D00000908CE730B503687F4ACC6813400A68BB
:1050E0002243D1E905452C432243CC6922430C6A73
:1050F00022434C6A22438C6A22434C6B22438C6BC2
:1051000022431A430260426922F00703D1E90B24CB
:1051100022431A4342610A6942604A688260896890
:10512000C16030BD0021016041608160C1600161EA
:1051300041618161C161016241628162C162016359
:105140004163816370470029016802D041F0010189
:1051500001E021F00101016070470029016802D0DF
:1051600041F4004101E021F4004101607047002951
:10517000016802D041F0200101E021F0200101602E
:10518000704741607047406880B27047002A0268EB
:1051900002D042F4002201E022F400220260016108
:1051A00070470029016802D041F4802101E021F418
:1051B0008021016070470AB101617047C16070478A
:1051C000014600200968090300D501207047014607
:1051D00000200968C90700D001207047406900F02D
:1051E0003800704702463B4B00209A4202D2354AB3
:1051F000103A01E0374A103A8B0001D5526800E0BE
:105200001268364B1A400A4200D001207047314ADA
:10521000904202D22B48103801E02E4810382F4A15
:105220008B0001EA020101D5C160704781607047BF
:105230000B0607D5436912B143F0800301E023F068
:1052400080034361802908D0002A026801F01E0112
:1052500001D00A4300E08A430260704730B51D4A1E
:105260000024904202D2174B103B01E0194B103B37
:105270001B4A114205D01E2202EAD12502682A40AB
:1052800002E0406900F08002880001D5586800E023
:105290001868124B1840084201D002B10124204680
:1052A00030BD0C4A904202D20648103801E009484D
:1052B00010380A4A8B0001EA020101D5C16070472B
:1052C00081607047106002403D000020400F0020C8
:1052D00000003D20106402403F801CF07D0F7D0FD8
:1052E0003C0F3C0F374900200860091D0860091D6C
:1052F0000860091D0860334933481431086070475D
:1053000030B530498379026853B30B6893430B601F
:105310000A1D13680468A343136002790A441368E2
:10532000046823431360274A083213680468A343C0
:105330001360131D1C680568AC431C604479102C75
:1053400005D021440A68006802430A6030BD116834
:10535000046821431160196800680143196030BD79
:105360000079084401689143016030BD002101606B
:1053700001710C22427181717047124910310A6823
:1053800002430A60704701460E4A00201432126838
:105390000A4200D0012070470A4914310860704762
:1053A000084A014600201268064B0A4014331B6865
:1053B0000B4202D0002A00D001207047014914316D
:1053C00008607047003C0140FFFF7F00FE4910B5B8
:1053D000884206D101210846FFF7DEFB00210120AB
:1053E0005BE0B0F1804F09D0F84988420DD101212E
:1053F0000220FFF7C7FB0021022070E001210846D0
:10540000FFF7C0FB0021012069E0F149884206D185
:1054100001210420FFF7B6FB002104205FE0ED49E5
:10542000884206D101210820FFF7ACFB00210820AB
:1054300055E0E949884206D101211020FFF7A2FB7F
:10544000002110204BE0E549884206D101212020AF
:10545000FFF798FB0021202041E0E149884206D176
:1054600001210220FFF798FB0021022015E0DD4911
:10547000884202D101210C040AE0DB49884202D1B2
:1054800001214C0404E0D94988420AD101218C044D
:105490002046FFF781FB00212046BDE81040FFF7C2
:1054A0007BBBD349884206D101214020FFF76AFB2C
:1054B0000021402013E0CF49884206D101218020FD
:1054C000FFF760FB0021802009E0CB4988420AD128
:1054D000841501212046FFF755FB00212046BDE839
:1054E0001040FFF74FBB10BD30B50288B64BBC4C27
:1054F00098420DD0A0420BD0B0F1804F08D0B34DF0
:10550000A84205D0B24DA84202D0B24DA84203D164
:1055100022F070054A882A43AF4DA84206D0AF4D0D
:10552000A84203D022F440750A892A4302804A68BF
:10553000C2620A880285984201D0A04201D1897ACC
:1055400001860121818230BD4FF0FF314160002191
:10555000018001814180817270470185828270479C
:10556000028822F070020A4302807047416270474D
:10557000C1627047406A7047008D704700290188FA
:1055800002D041F0020101E021F0020101807047E8
:105590000029018802D041F0040101E021F004015A
:1055A000018070470029018802D041F0800101E0AC
:1055B00021F0800101807047028822F008020280F9
:1055C00002880A4302807047028822F440720280F7
:1055D00002880A43028070470029018802D041F006
:1055E000010101E021F001010180704730B5028C1A
:1055F00022F001020284028C8388048B22F00202D2
:1056000024F073050C882C438D8915434A882A435E
:105610006D4DA84202D0724DA8420DD122F008056E
:10562000CA8923F440732A4322F004058A882A4356
:105630000D8A1D434B8A2B43838004838968416311
:10564000028430BD70B5028C22F010020284028CFC
:105650008488038B0D8823F4E6464FF6FF7303EA34
:10566000052535438E8922F0200203EA06161643EB
:105670004A8803EA02123243534EB04202D0584ED7
:10568000B04215D122F08006CA8924F4406403EAAE
:105690000212324322F040068A8803EA02123243A1
:1056A0000E8A03EA860626434C8A03EA84043443BE
:1056B0008480058389688163028470BD70B5028C23
:1056C00022F480720284028C8488838B0D8823F0FC
:1056D00073031D4322F400738E894FF6FF7202EAB2
:1056E00006261E434B8802EA03233343364EB0425C
:1056F00002D03B4EB04215D123F40066CB8924F48E
:10570000405402EA0323334323F480668B8802EA81
:10571000032333430E8A02EA061626434C8A02EA22
:1057200004143443848085838968C163038470BD15
:1057300070B5028C22F480520284048C8288838BA0
:105740000D8823F4E6464FF6FF7303EA052535433B
:1057500024F400568C8903EA043434434E8803EA67
:1057600006362643184CA04202D01D4CA04205D15B
:1057700022F480440A8A03EA8212224382808583CB
:1057800089680164068470BD0021018041808180A8
:1057900081608181C18101824182704730B50124DD
:1057A000058C00F118038C40A543058431B308290A
:1057B0002CD0091FC1F34E001844016848F6FF734E
:1057C0001940016001681AE0000001400004004037
:1057D00000080040000C0040001000400014004091
:1057E00000040140004001400044014000480140E5
:1057F00000180040001C00400020004006E04FF66A
:10580000FF7303EA02221143016030BD03EB510034
:1058100001684FF68F73194001600168F3E7416337
:10582000704781637047C163704701647047028BA2
:1058300022F070020A4302837047028B4FF6FF7317
:1058400022F4E04203EA0121114301837047828B75
:1058500022F070020A4382837047828B4FF6FF73F7
:1058600022F4E04203EA0121114381837047028B55
:1058700022F008020A4302837047028B4FF6FF733F
:1058800022F4006203EA0121114301837047828BF5
:1058900022F008020A4382837047828B4FF6FF731F
:1058A00022F4006203EA0121114381837047028BD5
:1058B00022F004020A4302837047028B4FF6FF7303
:1058C00022F4806203EA0121114301837047828B35
:1058D00022F004020A4382837047828B4FF6FF73E3
:1058E00022F4806203EA0121114381837047028B15
:1058F00022F080020A4302837047028B4FF6FF7347
:10590000C2F30E0203EA0121114301837047828B27
:1059100022F080020A4382837047828B4FF6FF7326
:10592000C2F30E0203EA0121114381837047028C06
:1059300022F002020A4302847047028C22F008021D
:105940000A4302847047028C4FF6FF7322F0200254
:1059500003EA0111114301847047028C4FF6FF7373
:1059600022F0800203EA0111114301847047028C86
:105970004FF6FF7322F4007203EA01211143018400
:105980007047028C4FF6FF7322F4006203EA012194
:10599000114301847047028C4FF6FF7322F40052CA
:1059A00003EA013111430184704710B50123048CCF
:1059B0008B409C430484038C8A401343038410BDB2
:1059C00010B50423048C8B409C430484038C8A40D0
:1059D0001343038410BD828B22F440628283828B46
:1059E0004FF6FF7303EA01210A4382837047828BDB
:1059F00022F00C028283828B0A4382837047028BDF
:105A000022F440620283028B4FF6FF7303EA012106
:105A10000A4302837047F0B5048C24F01004048418
:105A2000078B068C4FF6FF7404EA011527F47347C1
:105A300004EA0331394304EA02220A4326F0A001B2
:105A4000294341F0100102830184F0BD028B22F052
:105A50000C020283028B0A43028370472DE9F04156
:105A60000D460E884988AA882B8904460EB3042E59
:105A700026D0082E268C4FF6FF7028D026F48056AC
:105A80002684A78B268C00EA022200EA013127F443
:105A900073473A4300EA0330104326F420420A4396
:105AA00042F48051A0832184E9882046BDE8F0417A
:105AB00091E700F062F9E9882046BDE8F041C5E7CA
:105AC000FFF7A9FFE9882046BDE8F04197E726F4F3
:105AD00080762684A78B268C00EA012100EA031039
