:020000040800F2
:10000000903000209940000845020008470200088F
:10001000490200084B0200084D02000800000000E1
:100020000000000000000000000000009D0100082A
:100030004F02000800000000E1010008CF66000840
:10004000B3400008B3400008B3400008B3400008C4
:10005000B3400008B3400008B3400008B3400008B4
:100060001704000863040008B340000801030008F7
:10007000C30200084D030008B340000875020008E1
:10008000B34000087D020008B3400008B3400008F8
:10009000B3400008B3400008B3400008B340000874
:1000A000B34000087103000891030008B340000842
:1000B00093030008B3030008D3030008B34000080B
:1000C000B3400008B3400008B34000081304000820
:1000D000B340000855020008B3400008B3400008D0
:1000E000B3400008B3400008B3400008B340000824
:1000F000B3400008B3400008B340000823030008E1
:10010000B3400008B3400008F303000815040008DA
:10011000B3400008B3400008570300085F0300081D
:10012000B3400008B34000089F020008B340000835
:10013000B3400008B3400008B3400008B3400008D3
:10014000B3400008B3400008B3400008B3400008C3
:10015000B9020008B3400008B3400008B3400008EB
:10016000B3400008B3400008B3400008B3400008A3
:10017000B3400008B3400008B3400008B340000893
:10018000B3400008B3400008DFF80CD007F03CFB98
:1001900000480047913E000890300020234B19682A
:1001A0000868B0E8F04F80F309884FF0000080F352
:1001B000118870470000000003480068006880F361
:1001C000088862B600DF00BF08ED00E0DFF80C0031
:1001D000016841F470010160704700BF88ED00E0E4
:1001E000EFF30980114B1A681EF0100F08BF20EDC5
:1001F000108A20E9F04F106008B54FF0140080F32A
:10020000118806F03AFD4FF0000080F31188BDE838
:10021000084019680868B0E8F04F1EF0100F08BFDA
:10022000B0EC108A80F30988704700BFD801002025
:10023000EFF311804FF0140181F31188704780F3C0
:10024000118870477047FEE7FEE7FEE7FEE770475C
:100250007047704710B5834C40F22551204605F099
:1002600080FC002805D02046BDE81040202105F084
:1002700075BC10BD7C497D4804F085BD70B57B4DD3
:100280007B4C30352146284604F05AFD002805D025
:1002900021462846BDE8704004F075BD70BD10B51C
:1002A0007449754804F06FFD74484178007841EA5C
:1002B00000207349088010BD6F487249483004F02F
:1002C00062BD70B5694D704C483D2146284604F02A
:1002D00037FD002813D02146284604F054FD6B4812
:1002E00001F086FD00280AD1694C0021204605F066
:1002F00077FB2046BDE87040012105F071BB70BD61
:1003000070B55A4D634C603D2146284604F018FDF7
:10031000002805D021462846BDE8704004F033BDD2
:1003200070BD70B5514C5C4D48342946204604F0F0
:1003300007FD002809D00021204604F076FC29465C
:100340002046BDE8704004F01EBD70BD47484649D8
:10035000303804F018BD0121504805F0E0B910B55F
:1003600001214F4805F0DBF93E497A20888010BD15
:1003700010B54C4C0121204605F0D1F92088C1066A
:100380004948016801D5491E00E0491C016010BDC3
:10039000704710B501218C07204605F0C0F9208870
:1003A000C1064248016801D5491E00E0491C0160B0
:1003B00010BD10B53E4C0121204605F0B0F9208853
:1003C000C1063C48016801D5491E00E0491C016096
:1003D00010BD10B5384C0121204605F0A0F9208849
:1003E000C1063648016801D5491E00E0491C01607C
:1003F00010BD10B5324C0121204605F090F920883F
:10040000C1063048016801D5491E00E0491C016061
:1004100010BD7047704770B5042004F033FD00280C
:100420001ED02021284803F086FF284D04212846AD
:1004300003F062FF1A4C012805D00421284603F07E
:100440005BFF28B109E00021204604F001FE04E032
:10045000204604F001FE1E4908601E490420086081
:1004600070BD704700100140208000207060024085
:1004700000802020008020104064024010030020F3
:100480000800002000880020008800102E030020B3
:10049000004800402080001000800028001000402C
:1004A00000140040000001400C000020100000205B
:1004B0000004004014000020000800407C010020DF
:1004C000000C00408001002000000240000C0240AF
:1004D00084010020143C014070B50546002406F05C
:1004E000F9FEFE4902E02A5D0A55641C8442FADBEB
:1004F000BDE870400121FA4804F097BB70B5F94D92
:1005000006460024315D00290BD0284605F08EFAFE
:100510008021284605F01BFB0028F9D0641CE4B2BA
:10052000F0E770BD70B5EF4E05460024002D0DD0EC
:100530002946304605F07AFA8021304605F007FB5F
:100540000028F9D0641CE4B2032CEFD370BD73B55E
:100550000C460020FFF7E6FFE3A0FFF7CFFFDF48E0
:100560002246E2A1823807F09DF9DC488238FFF785
:10057000C5FFDFA0FFF7C2FFDFA0FFF7BFFFD7482F
:10058000DAA18238009A07F08DF9D44E0024D54DB7
:10059000823E2846315D05F049FA4021284605F0A3
:1005A000D6FA0028F9D0641C142CF2DBD2A0FFF795
:1005B000A5FFFF20FFF7B6FFFF20FFF7B3FFBDE861
:1005C0007C40FF20AEE770B505460C46C6A0FFF79D
:1005D00095FFC2482246C5A1823807F063F9BF489B
:1005E0008238FFF78BFFC5A0FFF788FF2846FFF78B
:1005F00085FFC1A0FFF782FFBDE87040FF2091E7B3
:1006000077B5BEA185B00646D1E90001CDE900016C
:10061000B9A0002200680390B3A0B04D0068283D47
:10062000A5F128030290AD4C1146A3F13200A95464
:1006300099548154A154521CD2B21E2AF7D30A21D4
:100640000170FF2444708470C470A448A7A150387E
:10065000079A07F027F9A14902A8503906F022FEAF
:100660009E4802A9823806F01DFE9C4869468238E1
:1006700006F018FE99483146823806F013FE974876
:100680009AA15038069A07F00DF994495039A1F112
:10069000320006F007FE914803A9823806F002FEF8
:1006A0008E492C706C702839AC70A1F15A0006F09C
:1006B000F9FD8A488238FFF70FFF08B070BD2DE9B9
:1006C000F74188468DA185B00646D1E90001CDE904
:1006D000000189A000220068039083A07F4D00687C
:1006E000283DA5F1280102901446A1F13200AC5436
:1006F0008C548454521CD2B20A2AF8D30A210170B5
:10070000FF2747708770C770744878A15038079AE0
:1007100007F0C8F8714902A8503906F0C3FD6F48C8
:1007200002A9823806F0BEFD6C486946823806F0A0
:10073000B9FD6A483146823806F0B4FD6748414643
:10074000823806F0AFFD654803A9823806F0AAFD9D
:100750002F706F706149AF70EC7028392C71A1F166
:100760005A0006F09FFD5D488238FFF7B5FE08B0DD
:10077000BDE8F08170B50020FFF7D4FE5AA0FFF766
:10078000BDFE56480D2259A1823807F08BF8534818
:100790008238FFF7B3FE59A0FFF7B0FE594C202175
:1007A000204603F0A9FD02464C4850A1823807F0CC
:1007B00079F84A488238FFF7A1FE1021204603F05D
:1007C0009BFD0246454849A1823807F06BF8434833
:1007D0008238FFF793FE4C4D8021284603F08CFDB4
:1007E00002463E4841A1823807F05CF83B48823817
:1007F000FFF784FE4021284603F07EFD024637487D
:100800003AA1823807F04EF834488238FFF776FE76
:100810004FF40041204603F06FFD02462F4833A1FC
:10082000823807F03FF82D488238FFF767FE4FF413
:100830008041204603F060FD024628482BA1823803
:1008400007F030F825488238FFF758FE4FF4005182
:10085000204603F051FD0246204824A1823807F0CB
:1008600021F81E488238FFF749FE4021274803F04F
:1008700043FD024619481DA1823807F013F81748B6
:100880008238FFF73BFE1CA0FFF738FEFF20FFF782
:1008900049FEFF20FFF746FEBDE87040FF2041E61D
:1008A000FEB51BA10646D1E90001CDE900011AA061
:1008B00000210A4D0068283DA5F1280202900C464F
:1008C000A2F132006C5454544454491CC9B2322928
:1008D000F8D30A210170FF2747701FE0CE020020E5
:1008E000B860024000500040740000002564000021
:1008F0002E7478743D000000220000002E7478747D
:100900003D220000000802400000024000100240AA
:100910002E76616C3D0000006A0000008770C77091
:100920000022AFF23801FE4806F0BCFFFC4902A8E5
:1009300006F0B8FCFA4802A9323806F0B3FCF848D1
:100940006946323806F0AEFC3246AFF26001F44838
:1009500006F0A8FFF249A1F1320006F0A3FC2F70C7
:100960006F70EF49AF70EC7028312C71A1F15A0013
:1009700006F098FCEA483238FFF7AEFDFEBD70B5D0
:100980000D46044606F058FC291B491C90FBF1F269
:1009900001FB1200204470BD2DE9FC414FF080475F
:1009A000384604F059FBDF4D2969642640EA0140CE
:1009B00090FBF6F000240190384604F04DFB2969C5
:1009C00040EA014090FBF6F001990090401A00D5F2
:1009D0004042322800DA641C00980190022CEBDBC4
:1009E0000098002800DA4042BDE8FC812DE9FC4176
:1009F000CD4F384604F030FBCA4D6969642640EAA1
:100A0000014090FBF6F000240190384604F024FBEE
:100A1000696940EA014090FBF6F001990090401AA4
:100A200000D54042322800DA641C00980190022C64
:100A3000EBDB00980028D7DA4042D5E710B5FFF786
:100A4000ABFF0446FFF7D2FF002C00DA6442002817
:100A500000DA4042204410BD01B581B0019800EB9E
:100A6000C00040000090002801D0401EFAE70CBDF5
:100A700001B581B044F250610198484300900028CC
:100A800001D0401EFAE70CBD2DE9FC4101211F20D9
:100A900003F09AFD01248DF8044000268DF80660CD
:100AA0004FF6FF758DF80740032700958DF8057008
:100AB00069469E4803F0BAFB8DF804408DF8066045
:100AC0008DF8074000958DF805706946984803F049
:100AD000ADFB8DF804408DF806608DF80740009559
:100AE0008DF805706946934803F0A0FB7CE77CB560
:100AF00001217E2003F068FD0024FC208DF80440D5
:100B0000012500908DF8075002268DF80560694692
:100B1000894803F08BFB48F206008DF804400090F2
:100B20008DF807508DF805606946804803F07EFB1C
:100B300046F6C4408DF8044000908DF807508DF8BB
:100B4000056069467A4803F071FB03208DF8044084
:100B500000908DF807508DF805606946754803F0E0
:100B600065FB4FF2FF508DF8044000908DF8075060
:100B70008DF805606946714803F058FB7CBD1FB5D0
:100B80004FF4E06003F09AFA36208DF80C00002450
:100B90008DF80D408DF80E4001208DF80F0003A850
:100BA00003F091FA0121102003F02CFD3220ADF862
:100BB0000000ADF80840ADF8024040F2E730604C6C
:100BC00001906946204604F001FA0121204604F014
:100BD000A6FD01221146204604F081FD0021204699
:100BE00004F036FA0121204604F068FA1FBD1FB553
:100BF0004FF4E06003F062FA37208DF80C00002417
:100C00008DF80D408DF80E4001208DF80F0003A8DF
:100C100003F059FA0121202003F0F4FC4FF4FA709C
:100C2000ADF80000ADF80840ADF8024040F2E73002
:100C3000444C01906946204604F0C8F90121204641
:100C400004F06DFD01221146204604F048FD00210C
:100C5000204604F0FDF90121204604F02FFA1FBDC3
:100C600070B58AB00121022003F0D6FC01210C20CE
:100C700003F0AAFC2E4E03220621304603F05FFB50
:100C800003220721304603F05AFB03220821304695
:100C900003F055FB03220921304603F050FB4FF4CB
:100CA0007070059002208DF8180003208DF819004F
:100CB00000248DF81A4001258DF81B5005A93046F7
:100CC00003F0B4FAA420ADF81C0028021E4E0890D0
:100CD000ADF82400ADF81E4007A9304604F076F9BF
:100CE0006020ADF80000ADF802500294ADF80C4061
:100CF0000121304604F0E2F90021304604F0A8F961
:100D00006946304604F0E4F96946304604F00CFACE
:100D10006946304604F044FA6946304616E0000061
:100D20007E02002000000020000400400004024079
:100D300000080240000C0240000002400010024087
:100D400000100040001400400004014004F062FA6A
:100D50000121304604F0A4FC0AB070BD70B58AB021
:100D60000121042003F04EFC01210D2003F02CFC96
:100D7000FF4E02220C21304603F0E1FA02220D213F
:100D8000304603F0DCFA02220E21304603F0D7FA97
:100D900002220F21304603F0D2FA4FF47040059042
:100DA00002208DF8180003208DF8190000248DF81A
:100DB0001A4001258DF81B5005A9304603F036FA7C
:100DC000A420ADF81C002802EA4E0890ADF82400DB
:100DD000ADF81E4007A9304604F0F8F87020ADF8D1
:100DE0000000ADF802500294ADF80C4001213046ED
:100DF00004F064F90021304604F02AF969463046CF
:100E000004F066F96946304604F08EF969463046CA
:100E100004F0C6F96946304604F0FCF99CE730B5A9
:100E2000012187B0080403F0F7FB0121084603F015
:100E3000CBFB00244FF6FF70CF4DADF80040019082
:100E4000ADF80840ADF802406946284604F0BEF807
:100E50000420ADF80C00C820ADF814000120ADF856
:100E60001000ADF80E4003A9284604F069FBC34CFE
:100E700000231A460321204604F0CBFC0121204622
:100E800004F04DFC01221146204604F028FC01210B
:100E9000284604F013F90021204604F0D9F807B0E1
:100EA00030BD2DE9F04701218AB0084603F0AAFBC6
:100EB0000121022003F0A6FB0121032003F084FBA3
:100EC000DFF8BC9201220F21484603F038FADFF820
:100ED000B48201220321404603F031FA02220421A8
:100EE000404603F02CFA02220521404603F027FA7F
:100EF00002268DF80460032738208DF80570002441
:100F000000908DF8064001258DF80750694640464F
:100F100003F08CF98DF80460E8038DF805700090FB
:100F20008DF806408DF807506946484603F07EF973
:100F30004FF6FF70ADF80C4004904FF08049ADF8CB
:100F40001440ADF80E4003A9484604F03FF8DFF81E
:100F500038A203A9504604F039F84FF004081420D1
:100F6000ADF81880ADF82000ADF81A60ADF81C504F
:100F700006A9484604F0E4FA06A9504604F0E0FA4F
:100F800002231A460321484604F043FC02231A4672
:100F90000321504604F03DFC0121484604F0BFFB0C
:100FA0000121504604F0BBFB01221146484604F0E3
:100FB00096FB01221146504604F091FB0121484660
:100FC00004F07CF80121504604F078F800214846EE
:100FD00004F03EF80021504604F03AF8780203F09D
:100FE0006DF81D208DF808008DF809708DF80A4005
:100FF0008DF80B5002A803F066F81C208DF808004D
:101000008DF809808DF80A408DF80B5002A803F086
:101010005AF80AB0BDE8F08770B501218AB00846D9
:1010200003F0FAFA0121102003F0CEFA4FF4206009
:10103000009002208DF8040003208DF805000024A4
:10104000524E8DF8064001258DF80750694630460E
:1010500003F0ECF801220921304603F070F9012277
:101060000B21304603F06BF94FF6FF70424EADF89E
:1010700008400390ADF81040ADF80A4002A9304690
:1010800003F0A4FF0420ADF814000A20ADF81C0002
:10109000ADF81640ADF8185005A9304604F050FAE6
:1010A00000231A460321304604F0B3FB01213046E9
:1010B00004F035FB01221146304604F010FB0121FB
:1010C000304604F02CFB01221146304604F007FBA9
:1010D0000121304603F0F2FF0021304603F0B8FF53
:1010E0004FF4C06002F0EAFF19208DF820008DF85F
:1010F00021508DF822408DF8235008A802F0E3FF1C
:101100002AE6F0B59BB00121214803F05DFA0121E8
:101110000D02284603F080FA1E480024CDE9004065
:101120001D4802A9082681E85100A800CDE9054024
:10113000400007908000CDE908050AA900010125BB
:1011400081E83100154F0D94694638460E9403F03E
:1011500033FD0121384603F068FD3C20199003203F
:101160008DF868008DF86B4019A90D481AE0000051
:10117000000C024000080040000001400040014017
:101180000000024000040240000400400010024041
:10119000050040004C200140000300201064024084
:1011A0000008024003F042F84FF44030CDE915400A
:1011B0004FF47060CDE9174015A803F002FB280634
:1011C0000F908DF840508DF8415011941294139463
:1011D0008DF850600FA9FE4C204603F0C7FA042397
:1011E00001220221204603F036FB042302220321C0
:1011F000204603F030FB042303221946204603F067
:101200002AFB04231A460521204603F024FB04236D
:1012100005220C21204603F01EFB042306220D218B
:10122000204603F018FB042307220E21204603F07A
:1012300012FB042308220F21204603F00CFB01219E
:10124000204603F085FB0121204603F077FB0121B6
:10125000204603F0CDFA204603F037FB1BB0F0BD6B
:1012600008B54FF4E06002F029FF25208DF800005A
:1012700000208DF801008DF8020001208DF8030098
:10128000684602F020FF08BD70B5054696B0012102
:10129000102003F0C1F90121084603F095F901215E
:1012A000880503F091F94FF4C060139002208DF887
:1012B000500000248DF852408DF85340C54E8DF8F3
:1012C000510013A9304602F0B1FF07220921304630
:1012D00003F035F807220A21304603F030F80F9565
:1012E000ADF844400C20BC4DADF84040ADF8460090
:1012F000ADF84240ADF848400FA9284604F0FFFA87
:101300000121284604F06CFB4FF4A06002F0D6FEE9
:101310003A208DF854008DF855408DF85640012044
:101320008DF8570015A802F0CEFEAC4E304603F003
:10133000BBFB4FF000600090A948CDE902040A20F1
:101340000490281D01900015CDE905408010CDE9DD
:10135000084040020A9004200B9007940320CDE936
:101360000C04694630460E9403F026FC012240210D
:10137000284604F0CCFB01221021304603F0CAFCC1
:101380000121304603F051FC16B070BDF0B50646A1
:10139000012197B0480503F017F901214D042846B3
:1013A00003F030F90121082003F00EF960201390BA
:1013B00002208DF8500000248DF852408DF85340E3
:1013C000884F8DF8510013A9384602F02FFF0722ED
:1013D0000521384602F0B3FF07220621384602F005
:1013E000AEFF0F96ADF844400C207F4EADF8404064
:1013F000ADF84600ADF84240ADF848400FA9304680
:1014000004F07DFA0121304604F0EAFA4FF4A060BE
:1014100002F054FE11208DF854008DF855408DF8DF
:10142000564001208DF8570015A802F04CFE6F4F72
:10143000384603F039FBA8020090402003906C4826
:1014400002903C200490301D01900015CDE905402C
:101450008010CDE908400420CDE90A50079403200C
:10146000CDE90C04694638460E9403F0A5FB012231
:101470008021304604F04BFB01228021304604F0ED
:1014800046FB01221021384603F044FC0121384676
:1014900003F0CBFB17B0F0BD70B50546012196B047
:1014A000880403F0AFF80121082003F08DF8012132
:1014B000480503F089F84FF44070139002208DF82E
:1014C000500000248DF852408DF85340454E8DF861
:1014D000510013A9304602F0A9FE07220821304628
:1014E00002F02DFF07220921304602F028FF0F9558
:1014F000404EADF84040ADF844400C25ADF84240B8
:10150000ADF84840ADF846500FA9304604F0F7F961
:101510000121304604F064FA4FF4A06002F0CEFDE1
:101520008DF854508DF855408DF8564001208DF8B7
:10153000570015A802F0C7FD2C4D783D284603F052
:10154000B3FA4FF000600090254869461E30CDE99F
:10155000020408200490301D01900015CDE90540DB
:101560008010CDE9084040020A9004200B900794B7
:101570000320CDE90C0428460E9403F01DFB012244
:101580004021304604F0C3FA01224021304604F0E5
:10159000BEFA01221021284603F0BCFB0121284697
:1015A00003F043FBF0E6F0B50646012197B0C8040E
:1015B00003F028F80121084603F006F80121480548
:1015C00003F002F80325022013958DF8500013E074
:1015D0000020014000000240001001404064024031
:1015E00010030020000C024000440040A0600240B4
:1015F000000100200048004000248DF852408DF882
:101600005340FA4F8DF8510013A9384602F00EFEF0
:1016100008220021384602F092FE082201213846B5
:1016200002F08DFE0F96ADF844400C20F04EADF860
:101630004040ADF84600ADF84240ADF848400FA933
:10164000304604F05CF90121304604F0C9F94FF44A
:10165000A06002F033FD0D208DF854008DF8554048
:101660008DF8564001208DF8570015A802F02BFD8B
:10167000E04F384603F018FA78050090DE48CDE9CF
:10168000020408200490301D01900015CDE90540AA
:101690008010CDE90840400207940A900420CDE96B
:1016A0000C540B90694638460E9403F085FA0122DB
:1016B0004021304604F02BFA01224021304604F04C
:1016C00026FA01221021384603F024FB0121384676
:1016D00003F0ABFADEE62DE9F0418046012196B039
:1016E000480502F071FF0121080502F08BFF01217E
:1016F0000C2002F069FF02258DF8405000248DF87F
:101700004240BE4F04268DF843400F968DF841505D
:101710000FA9384602F08AFD8DF840508DF84240FE
:101720008DF84340E8028DF84150B54D0F900FA958
:10173000284602F07BFD08220221384602F0FFFD18
:1017400008220C21284602F0FAFD4FF4A06002F0B6
:10175000B5FC2F208DF8540005208DF855008DF82C
:10176000560001208DF8570015A802F0ACFCADF82A
:101770004C400C20A34DADF84840ADF84E00CDF8DC
:101780004480ADF84A40ADF8504011A9284604F015
:10179000B6F80121284604F023F9964F78373846E9
:1017A00003F082F970060090402003909248694649
:1017B0005138029031200490281D01900015CDE988
:1017C00005408010CDE908404002CDE90A060794A3
:1017D0000320CDE90C0438460E9403F0EDF9012204
:1017E0008021284604F093F901221021384603F0A5
:1017F00091FA0121384603F018FA16B0BDE8F081DD
:1018000030B585B00121082002F0DEFE01218803F9
:1018100002F002FF00240C208DF8104001250390F7
:101820008DF8135003A9754802F000FD0221032032
:1018300004F0D7F9042000908DF8044010208DF8B2
:1018400005008DF80650684603F0CCFA08208DF8A4
:1018500008008DF809408DF80A408DF80B5002A859
:1018600002F031FC05B030BD10B5012810D00328BE
:1018700019D0042822D0052809D1624C204604F052
:10188000D5F84021204604F062F90028F9D010BDB7
:101890005D4C204604F0CAF84021204604F057F978
:1018A0000028F9D010BD594C204604F0BFF8402163
:1018B000204604F04CF90028F9D010BD4C4C2046CD
:1018C00004F0B4F84021204604F041F90028F9D092
:1018D00010BD4F49002048624E49C8604FF0804219
:1018E000506208614C4A10604861704770B5494DBC
:1018F00000202871044661210120FFF7B5FF322046
:10190000FFF7B6F8641C022CF5D3012028717A2069
:10191000E87070BD10B561210120FFF7A5FFBDE89B
:1019200010400A20FFF7A4B870B53A4D0020A87106
:10193000044661210320FFF797FF3220FFF798F854
:10194000641C022CF5D30120A8717A20687170BD47
:101950002DE9F14195B0002014908DF800008DF82C
:1019600028002C492B48264C8031DDF854C02B4EE2
:101970002715436A4FF4004501F1EC02BCF1120F48
:1019800033D2DFE80CF009282C777B7F83878B8F9D
:1019900093979B9FA3A7AFC00221304602F0ACFCF7
:1019A00060B101222946204602F0BEFC29462046AD
:1019B00002F0ACFC0146002219A090E0002229466A
:1019C000204602F0B1FC2946204602F09FFC014669
:1019D00000221AA083E00122896B20A07FE0FFF79C
:1019E0002DF8014602221FA079E07AE000000240B3
:1019F000004C0040406002401F030020000C0240E9
:101A00000008024000500040001001400048004023
:101A100000000140000000202404004000040240B7
:101A2000524F424F542044414E4720434841592091
:101A300053414E20444F3A2020200000524F424F45
:101A4000542044414E4720434841592053414E20A1
:101A500058414E483A20202000000000494D553A98
:101A600000000000454E434F4445525F544F4E47DF
:101A70003A0000000322C96FE7A030E00422896F1A
:101A8000E8A02CE00522496FE9A028E011780622A1
:101A9000EAA024E011790722EBA020E0816B082264
:101AA000ECA01CE0C16A0922EEA018E0816A0A22BB
:101AB000F1A014E081780B22F3A010E0C16B0C229E
:101AC000F6A00CE00D22C96FF8A008E00E2219461E
:101AD000FBA004E0FD480F2250F82310FCA0FEF705
:101AE0008FFD8AE63946FE4802F006FC0246FDA15B
:101AF000684605F0D7FE69460AA805F0D3FB102218
:101B00000AA9F9A0DAE02946304602F0FFFB0246B6
:101B1000F4A1684605F0C6FE69460AA805F0C2FBB6
:101B20004FF48041304602F0F1FB0246EDA16846D9
:101B300005F0B8FE69460AA805F0B4FB4FF4005161
:101B4000304602F0E3FB0246E6A1684605F0AAFE35
:101B500069460AA805F0A6FB4FF480584146304676
:101B600002F0D4FB0246DFA1684605F09BFE694601
:101B70000AA805F097FB4FF400652946304602F0AD
:101B8000C5FB0246D7A1684605F08CFE69460AA847
:101B900005F088FB3946304602F0B8FB0246D1A179
:101BA000684605F07FFE69460AA805F07BFBA91090
:101BB000204602F0ABFB0246CAA1684605F072FE61
:101BC00069460AA805F06EFBEF103946204602F080
:101BD0009DFB0246C3A1684605F064FE69460AA85B
:101BE00005F060FBC14C3946204602F08FFB0246EF
:101BF000BCA1684605F056FE69460AA805F052FBEE
:101C00000121204602F082FB0246B6A1684605F09B
:101C100049FE69460AA805F045FB0221204602F06C
:101C200075FB0246AFA1684605F03CFE69460AA86E
:101C300005F038FB0121304602F068FB0246A9A1FD
:101C4000684605F02FFE69460AA805F02BFB2946D9
:101C5000204602F05BFB0246A2A1684605F022FE88
:101C600069460AA805F01EFB4146204602F04EFBDD
:101C700002469CA1684605F015FE69460AA805F0D3
:101C800011FB8021304602F041FB024695A16846D7
:101C900005F008FE69460AA805F004FB402130461D
:101CA00002F034FB02468FA1684605F0FBFD694651
:101CB0000AA805F0F7FA11220AA98DA0FEF7FFFC89
:101CC0009BE501218B4802F0B0BF11B48A48016F37
:101CD000009A914201DD002101E0016F491C01677A
:101CE000006F18BC34E62DE9F0470025834E074607
:101CF00001244FF400594FF480484FF4805A0022D9
:101D00004146304602F010FB1020FEF7A5FE2742A8
:101D100001D0012200E000224946304602F004FBD7
:101D200001224146304602F0FFFA1020FEF794FEF1
:101D30005146304602F0E0FA00B12543600010F051
:101D4000FF04DCD12846BDE8F08770B56B4E4FF438
:101D5000004500222946304602F0E6FA1020FEF740
:101D60007BFE0120FFF7BFFF4220FFF7BCFFFF20F3
:101D7000FFF7B9FFFF20FFF7B6FF5F4CEC34207090
:101D8000FF20FFF7B0FF6070FF20FFF7ACFFA070EF
:101D9000FF20FFF7A8FFE070FF20FFF7A4FF2071EE
:101DA000FF20FFF7A0FF607129463046BDE8704074
:101DB000012202F0B9BA70B5504E4FF4004500222E
:101DC0002946304602F0B0FA1020FEF745FE012009
:101DD000FFF789FF4220FFF786FF044601222946CC
:101DE000304602F0A1FA1020FEF736FE204670BD04
:101DF000414A0021803A5164C2793F49EC310D2AB1
:101E00007ED0FF20087048708870C87008714871D3
:101E100088710020704773E06C617A652078616E8C
:101E2000680000006C617A6520646F3A0000000071
:101E30006C617A65207361750000000047414D4573
:101E4000205041443A0000004C4A4F595F4C523AEE
:101E5000000000006269656E20646F20626F6E672B
:101E60003A2000006269656E2064756E67206261C9
:101E70006E67207461693A0073696C6F5F76756193
:101E80005F636861793A20006269656E5F6E6861C0
:101E90006E5F626F6E673A20000000007472756FAB
:101EA0006E6720686F703A20000000006C617A65F0
:101EB000206E67616E672078616E683A20000000CE
:101EC00073696C6F5F736F3A20000000340200206A
:101ED0006269656E206461207468613A20000000C8
:101EE0000010024025640000493A00000000024052
:101EF0004F3A0000A060024080000020000C024029
:101F000002780A7042784A7082788A70C278CA7001
:101F100002790A7142794A7180798871012079E7E2
:101F2000FE48A0F5B6710278FF2A05D14278FF2A53
:101F300002D18278FF2A09D04A6C531C4B64C82A0C
:101F400003DDFF2101704170817063E70020486468
:101F500060E7F24880795DE7F0480078400601D4F8
:101F6000012057E7002055E7EC480078C00601D46F
:101F700001204FE700204DE701B59DF8000005283E
:101F800001D2002008BD9DF8000008BDF0B5E44E68
:101F900000271D4606F580744FF0010C002806D07E
:101FA00009DDC0B2FFF7E8FFE070A7700AE096F81D
:101FB0007000E07006E04042C0B2FFF7DDFFE07065
:101FC00084F802C0002907D00ADDC8B2FFF7D4FFA9
:101FD000E07184F806C009E096F87000E07105E051
:101FE0004842C0B2FFF7C8FFE071A771002A06D0CF
:101FF00009DDD0B2FFF7C0FFE072A7720AE096F8E1
:102000007000E07206E05042C0B2FFF7B5FFE07228
:1020100084F80AC0002D07D00ADDE8B2FFF7ACFF54
:10202000E07384F80EC0F0BD96F87000E073F0BD68
:102030006842C0B2FFF7A0FFE073A773F0BDB749D5
:102040006C39C870C871C872C873E3E6B44901201E
:1020500080314865DEE6B24880308069A0F5EA410B
:10206000303901D00120D5E60020D3E63EE4AC486B
:10207000B0F908004042CDE6A948B5EEC00AD0ED5F
:10208000130AF1EE10FA02D230EE600A01E030EEEF
:10209000200ABDEEC00A10EE100ABBE610B5041E01
:1020A0002DED068B9E4800F180009FED9EAB9FEDCD
:1020B0009F9B11D0406814DA05F09BFA41EC180B95
:1020C000204605F096FA53EC1A2B05F0B1F953ECC3
:1020D000192B05F0A7F913E09FED960ABDEC068BCE
:1020E00010BD05F086FA41EC180B204605F081FA88
:1020F00053EC1A2B05F09CF953EC192B05F0F1F871
:1021000053EC182B05F006FA05F097FA00EE100ACA
:10211000E4E7B5EEC00AF1EE10FA01DAB1EE400ADA
:1021200078E6002800DA404274E67D4991ED1A0A0B
:10213000D1ED1B1AF1EE400A80EEA11A00EE900AD2
:10214000F8EEE00A01EE200ABDEEC00A10EE100A19
:1021500060E6B0EE402A9FED780AB5EEC02AF1EEB7
:1021600010FA01D2B1EE422AF5EEC00AF1EE10FAF1
:1021700001D2F1EE600AB5EEC01AF1EE10FA01D20A
:10218000B1EE411AF5EEC01AF1EE10FA01D2F1EEFD
:10219000611AB4EEC02AF1EE10FA01DDB0EE420A87
:1021A000F4EEC00AF1EE10FA01DDB0EE600AB4EE12
:1021B000C01AF1EE10FA01DDB0EE410AF4EEC01AD9
:1021C000F1EE10FA01DDB0EE610A23E654488030EA
:1021D00040681FE652488030006B1BE670B5504CDB
:1021E0004F4D80342DED048BB0EE408AA069A0F5F0
:1021F000EA4130393FD0626AA16B95ED161A891A0F
:10220000401A00EE100AB8EEC00AC0EE010A95EDC1
:10221000170A30EE800AD5ED1E0A60EE208AB0EE75
:10222000680A05F00FFCB0EE009A20EE090A84ED72
:10223000140AB0EE680A05F05DFB60EE090AC4ED11
:10224000130A94ED141A94ED0B0A31EE001A30EED5
:10225000C00A84ED111A84ED120A00BFB5EEC08ADF
:10226000F1EE10FA7ED0206805287BD2DFE800F07E
:102270000E1F324166009FED2F0A84ED140A84ED93
:10228000130A84ED120A84ED110AE7E794ED110AAE
:1022900030EE080A84ED110A94ED120A30EE480A75
:1022A00084ED120A94ED130A30EE080A1EE094ED54
:1022B000120A30EE480A84ED120A94ED130A30EE49
:1022C000080A84ED130A94ED140AD5ED140A08EEF9
:1022D000600A20E094ED110A30EE080A84ED110A3C
:1022E00094ED130AD5ED140A08EE200A84ED130AC2
:1022F0000DE094ED110A30EE080A84ED110A94ED18
:10230000120AD5ED140A08EE600A84ED120A94ED63
:10231000140A30EE480A84ED140A23E06C01002010
:1023200000000020333333333333D33F9A999999E4
:102330009999B93F000000006F12833A94ED110A99
:10234000D5ED140A08EE200A84ED110A94ED120A64
:1023500030EE480A84ED120A94ED130A30EE080AB2
:1023600084ED130A04F1440090EC040AFFF7F1FE37
:10237000D5ED120AF8EEE00A80EE801ABDEEC10A31
:1023800010EE100AE0606168814200DD60600120AB
:10239000E867BDEC048B70BDF749002200288A6015
:1023A00008610FD14A601FED1D0A47F2305081EDE0
:1023B0000B0A8861C86181ED0A0A0A600A620A6331
:1023C0004A650BE726E5EC4890ED0A0AB5EEC00A2F
:1023D000F1EE10FA04D1016811B9016A002909D09F
:1023E00000211FED2C0A80ED0A0A01600162816B59
:1023F0004162F3E60EE5E0488038C0ED1A0A80ED50
:102400001B0A07E5DC4A9369834209D193688B4232
:1024100006D1D2ED0B0AF4EE400AF1EE10FA0ED01E
:102420009160516809B905215160916B516282ED4B
:102430000B0A90610020506192ED0A0ACEE6E9E4B1
:10244000CD4B30B41C6A844209D1D3ED0A0AF4EEB4
:10245000400AF1EE10FA02D11C688C4225D09D6929
:1024600047F23054A54218D19A6005225A60A04222
:1024700013DAB5EEC00A0122F1EE10FA1A6302DD9A
:102480009A6B824207DCB5EEC00AF1EE10FA04D274
:102490009A6B824201DAB1EE400A1960186283ED4C
:1024A0000A0A0020586130BC98E630BC70470A46E2
:1024B000014647F23050C3E71FED620AA2E770B54C
:1024C000AD4C05462DED028BF0EE608AD4ED070A87
:1024D000B0EE418AF8EEE00AF4EE400AF1EE10FAAE
:1024E0000BD1A068A84208D1D4ED080AF8EEE00AA2
:1024F000F4EE680AF1EE10FA4AD0FDEEC00AC4ED1F
:10250000070AD4ED0E0AF8EEE00A30EE600ABDEEDE
:10251000C00A10EE100A1FED790A2946FFF772FF74
:1025200094ED0E0AF8EEC00A78EEE00AFDEEE00A3D
:1025300010EE903A002B00DA5B42B8EEC00A642B32
:1025400019DDF4EEC08AF1EE10FA01DCB1EE488A32
:1025500018EE100A05F05EF805F06FF8FDEEE80AD7
:10256000BDEC028B2A46BDE8704000EE100A002147
:1025700010EE900A64E738EEC00A10EE100A05F07B
:1025800049F89FED7E1B53EC112B04F051FFE3E75C
:10259000BDEC028B70BD784910B5086B012826DDB3
:1025A0008A6B086A801AFFF7BCFD062809DA086BF7
:1025B000421C0A63B0F5FA7F19DDBDE81040002027
:1025C000EAE605200A6B8860FA2A486001DDFB20F4
:1025D00008630A6A886B904202DDBFEE000A01E0E0
:1025E000B7EE000A81ED0A0ABDE81040F6E510BD1D
:1025F00070B5614991ED0B0AB5EEC00AF1EE10FA23
:1026000073D14B68002B70D0086A47F23054A04257
:102610006BDA91ED0A0AB5EEC00AF1EE10FA7DD040
:102620008D69A1F18002A54260D1B5EEC00A1346C2
:10263000F1EE10FA5B6E03DD8D6BC41AAC4208DB61
:10264000B5EEC00AF1EE10FA17D28C6B0344A34228
:1026500013DD0B6B032B48DA8B6BC01AFFF761FDA0
:102660000A28086A0ADA4863002048601FEDCF0A8A
:10267000886081ED0A0A0220086379E091ED010A81
:10268000D1ED0A0A8B6BB8EEC00A984260EE200AC0
:1026900092ED190AB8EEC01A80EE810A0FDDFFF73D
:1026A00038FD8B6B086AC01AFFF73BFD00EE900AFD
:1026B000B8EEE01AD2ED150A40EE010A0EE0FFF77F
:1026C00028FD8B6B086AC01AFFF72BFD00EE900AFD
:1026D000B8EEE01AD2ED150A50EE410A91ED010A6A
:1026E000B8EEC01A80EE810A42E04DE0224AB5EE13
:1026F000C00A803AD2ED180AF1EE10FA18DD01EEA8
:10270000100AF8EEC11A01EE103AB8EEC11A41EE05
:10271000401AB8EEE01A71EEC11A00E032E091ED15
:102720000E1AB8EEC11AF4EEC11AF1EE10FA1BD36C
:10273000B5EEC00AF1EE10FA1AD201EE100AF8EE68
:10274000E00AF8EEC11A01EE103AB8EEC11A41EEF5
:10275000401A31EEA01AD1ED0E0AF8EEE00AB4EEFE
:10276000E01AF1EE10FA03DD896B401AFFF796FCD0
:10277000BDE8704032E50000800000207B14AE47C9
:10278000E17A743F486AEFE770BDFE49086B0228A2
:102790000CDA9FEDFD0A002281ED0B0A81ED0A0A99
:1027A00047F230500A608861C1E907024B69F54879
:1027B0005B1C80384B61426F006F934201DB4A61C2
:1027C000496D3CE4EF4A53695B1C5361834204DD6D
:1027D0005068084450600020506136E410B5FFF79F
:1027E00046FCE84CA063FFF7D6FEA26860684FF095
:1027F000FF31002A0BDD90420ED006DAE1688842F4
:102800000ADAFFF792FC022104E0206C02E00028C3
:102810003EDD2069FFF7D6FFD4E90E01814203D0E7
:10282000FFF7E6FEA06BE063D6488038C06F002853
:1028300031D094ED010AD4ED140AB8EEC00A20EEAE
:10284000200AFFF719FC94ED010AD4ED130A0346A0
:10285000B8EEC00A20EE200AFFF70EFC94ED010A44
:10286000D4ED120A0246B8EEC00A20EE200AFFF7A5
:1028700003FC94ED010AD4ED110A0146B8EEC00A3A
:1028800020EE200AFFF7F8FBBDE81040FFF77EBB03
:10289000BDE8104079E710BD70B50D462DED048BF5
:1028A00006461446F0EE418AB0EE609AB0EE408AD9
:1028B0000221B64801F020FD78EE281A38EE680AA9
:1028C0009FEDB31AAF4B012807D0D86F401BA04231
:1028D00017DD00BFB0EE610A05E0986FA0EB0500C0
:1028E000A042F7DC03DAF0EE490A304604E0F0EEED
:1028F000490A3046B0EE480ABDEC048BBDE8704092
:10290000DDE5F4DAEFE72DE9F05F9E49EC318878F8
:10291000401FF52801D8012500E000250879401F57
:10292000F52801D8012700E00027964A087802F12F
:10293000EC02C30652780DD543060BD5830609D5A4
:10294000030607D535B12FB1930603D5BDE8F05F77
:10295000022021E5530702D43226142403E0D207D3
:1029600017D01E260A248B46DFF81882C10647F2CC
:102970003059A8F1800A4FEA40610DD400294DDAA0
:1029800081064FEA006024D50028314627DA00206E
:102990002EE00A260724E6E700294FEA806109DBDA
:1029A00000294FEA00601CDA002831461FDA4FF494
:1029B000E1601DE000294FEA006005DB00282DDA08
:1029C00031464FF4617013E000281DDB3146714839
:1029D0000EE0002822DA31464FF4E17008E06E483C
:1029E00006E000281ADA314640F2465000E06B4813
:1029F000FFF762FD9BF80000C1060FD541060DD51B
:102A000081060BD5000609D54DB95FB1D8F818106D
:102A1000494507D00520FFF7BFFC03E015B1FFF7DC
:102A2000D2FC31E09BF8021001225846052912D24F
:102A30004378DB070FD0D8F81810494504D0314649
:102A40000020BFEE080A14E08AF800202346624204
:102A50001046194616E0FA291CD99BF80100C00758
:102A600018D0D8F81810494506D031460020B7EEE6
:102A7000080AFFF71CFD07E08AF80020634222469F
:102A800019461046FFF782FA00218AF80010BDE8C7
:102A9000F05F98E402231A4619461846F2E730B56B
:102AA00038483F4B1422856D691C81650146CC6D09
:102AB0000021142D03D2DD892C44C46504E0B4FB4D
:102AC000F2F481654467C165056E6C1C04662D4C8B
:102AD000142D646E03D29D892C44446604E0B4FB3B
:102AE000F2F4016684674166856E6C1C8466254C31
:102AF000142DE46E02D25989214403E0B4FBF2F2B2
:102B0000C2678166C16630BD70B51E4C1F4DEC3486
:102B10006078C00604D401224021284601F004FC5C
:102B20006078400615D4012211021E4801F0FCFB1A
:102B3000012294032146284601F0F6FB4FF4FA7077
:102B4000FDF796FF21462846BDE87040002201F0BF
:102B5000EBBB70BD36E435E470B50A484FF48071C4
:102B6000EC3042780F48530624D4012201F0DCFBFC
:102B70000122064D94032146284601F0D5FBC820CA
:102B800012E000008000002000000000000402406D
:102B9000CDCC4C3E7CFCFFFF3EFEFFFFBAFAFFFFB0
:102BA0000003002000080240FDF762FF00222146DA
:102BB000284602E0D20604D40022BDE8704001F0AD
:102BC000B3BB70BD16E410B5FEF7A4FEBDE810401F
:102BD000FEF77FBE10B504460221F74801F08CFBDA
:102BE000012810D0F548012CA0F59E7107D0022CC9
:102BF00005D0032C03D0042C01D0052C03D14A6A44
:102C000050F82200086410BD70B50122EC4C55024A
:102C10002946204601F088FBEA4E4021304601F06B
:102C20006BFB0128F9D040F2DC50FDF721FF0122B7
:102C30001102204601F078FB00222946204601F0CF
:102C400073FBE249E048496A50F82120521C40F8E1
:102C50002120BDE87040B6E72DE9F0472DED048B4B
:102C6000FEF737FED94D00270221D3482F6201F02D
:102C700043FB01281FED3C8AD54E286A05F18004EC
:102C80001AD003287ED09FEDD39ADFEDD39AAF619F
:102C9000E06FC82877DAF0EE498A606FAA2873DA05
:102CA000B0EE480A0222FA21B0EE681AF0EE400AAD
:102CB0003220FFF7F1FDF0E70328FDDADFF80483A7
:102CC0004021404601F018FBDFEDC48A47F230593D
:102CD0004FF4FA6701280CD04021404601F00CFB6C
:102CE00001283CD04021404601F006FB012871D06C
:102CF000A4E0F0EE480A4620B0EE601AB0EE680A92
:102D0000FFF7DDFBE06FEC28FDDBB0EE480A50205A
:102D1000B0EE401AF0EE400AFFF7D1FB606FC82812
:102D2000FDDB3220FDF7A4FEFEF7D3FDB0EE480A2E
:102D30001E20B0EE401AF0EE400AFFF7C0FB00BFC5
:102D4000FDF77CFEB842FBDB28220021BEEE000A24
:102D50004846FFF775FBA069B042FDDB6EE0F0EE80
:102D6000480A4620B0EE601AB0EE680AFFF7A7FBEB
:102D7000E06FEC28FDDBB0EE480AB0EE401AF0EE52
:102D8000400A02E062E06EE072E05020FFF797FB3D
:102D9000606FC828FDDB3220FDF76AFEFEF799FD63
:102DA000B0EE480A1E20B0EE401AF0EE400AFFF7DF
:102DB00086FB00BFFDF742FEB842FBDB2822002164
:102DC000BEEE000A4846FFF73BFBA069B042FDDBC0
:102DD00034E0FFE7F0EE480A4620B0EE601AB0EEAD
:102DE000680AFFF76CFBE06FEC28FDDBB0EE480AE9
:102DF0005020B0EE401AF0EE400AFFF760FB606F23
:102E0000C828FDDB3220FDF733FEFEF762FDB0EE91
:102E1000480A1E20B0EE401AF0EE400AFFF74FFBC2
:102E2000FDF70CFEB842FBDB28220021BEEE000AB3
:102E30004846FFF705FBA069B042FDDB286A03287E
:102E40005BD10220FFF7A8FAFEF743FD55E0B0EE94
:102E5000480A0222FA21B0EE681AF0EE400A322047
:102E6000FFF71AFD01E0F0EE698A606FAA28EEDB39
:102E7000A869401CA8613228FFF60AAFFEF729FDB9
:102E8000B0EE480A3220B0EE401AF0EE400AFFF7EA
:102E900016FB40F6F61402E0FFF75EF818B9FDF7EE
:102EA000CDFDA042F8DB0020FFF776FAC5F81870D8
:102EB000FFF7DDF8B04206DC10E032210020BEEE64
:102EC000000AFFF7F4FAFFF7D2F8B042F5DC09E0A8
:102ED00032210020B6EE000AFFF7E9FAFFF7C7F843
:102EE000B042F5DB0A2003F05AFE286A401C286233
:102EF000A869401CA8613228DADBBDEC048B642091
:102F0000BDE8F047FDF7B4BD2DE9F0472DED068B88
:102F1000FFF759FE2D4C606AFFF75CFE0027A77093
:102F20000221254801F0E8F9DFED2D8A9FED2DAA59
:102F3000DFED2D9A4FF480481FEDED8A5FEDECAA8E
:102F40009FED2A9A1F4E04F1800501280DD0FEF74F
:102F5000C0FCF0EE480A3220B0EE601AB0EE680A0B
:102F6000FFF7ADFA40F6B839C9E0FEF7B2FCF0EE73
:102F7000480AC820B0EE601AB0EE680AFFF79FFA60
:102F80004FF4FA6903E000BFFEF7EEFF18B9FDF752
:102F900055FD4845F8DBA761FFF769F8002806DC16
:102FA0002CE064210020BEEE000AFFF780FAFFF754
:102FB0005EF80028F5DC25E0000402403C0100201A
:102FC00000080240001002403402002000000020EF
:102FD0007CFCFFFF0000E1430000E1C3000061440E
:102FE0000000E144CDCC4CBE00007AC400007A441D
:102FF00064210020B6EE000AFFF759FAFFF737F810
:103000000028F5DB0A2003F0CAFDA069401CA0617E
:103010003228C1DB0020FFF7BFF9F0EE480A282074
:10302000B0EE601AB0EE680AFFF749FA474602E0D0
:10303000FEF792FF28B93946304601F05DF90128C4
:10304000F6D0E86F216C884227DDB0EE481AF0EE2A
:103050004A0A2820B0EE690AFFF731FA03E000BF00
:10306000FEF77AFF20B9206CE96F2D308142F7DC42
:10307000B6EE001AF0EE6A0A0A209FEDF60AFFF794
:103080001EFA02E0FEF768FF28B92021304601F061
:1030900033F90128F6D0002028E0F0EE480A282075
:1030A000B0EE601A1FED330AFFF709FA03E000BF24
:1030B000FEF752FF10B9E86F0628F9DC0220FFF78F
:1030C0006BF9F0EE480A0A20B0EE601AB0EE490A39
:1030D000FFF7F5F903E000BFFEF73EFF28B9202116
:1030E000304601F009F90128F6D00220BDEC068B2C
:1030F000BDE8F047FFF750B9FEF736FF18B9FDF706
:103100009DFC4845F8DB0020FFF746F96420FDF7F9
:10311000A3FCA761FEF7ABFF002806DC10E06421EA
:103120000020BEEE000AFFF7C2F9FEF7A0FF00285C
:10313000F5DC09E064210020B6EE000AFFF7B7F9DC
:10314000FEF795FF0028F5DB0A2003F028FDA069B3
:10315000401CA0613228DDDB0020FFF71DF9F0EEF6
:10316000480A1420B0EE601AB0EE680AFFF7A7F91B
:10317000474602E0FEF7F0FE28B93946304601F036
:10318000BBF80128F6D0FFF71EFDE86F216C8842DE
:103190002CDDF0EE488AB0EE4A8AB0EE681AF0EE06
:1031A000480A2820B0EE690AFFF789F903E000BF5A
:1031B000FEF7D2FE20B9206CE96F2C308142F7DC9B
:1031C000B0EE681AF0EE480A0A20B0EE690AFFF77E
:1031D00076F904E0FEF7C0FE00287FF45CAF202102
:1031E000304601F089F80128F4D054E7B0EE481ACF
:1031F000F0EE6A0A2820B0EE490AFFF760F902E013
:10320000FEF7AAFE20B9206CE96F2C388142F7DB6B
:10321000B0EE481AF0EE6A0A0A20B0EE490AFFF74B
:103220004EF903E0FEF798FE0028DED1202130465B
:1032300001F062F80128F5D02DE72DE9F0410221D7
:103240002DED028B844801F057F89FED848A854C60
:10325000002601270128824D606A0AD0FFF7BAFCD8
:103260002868DFF80482012866D0606A012876D0D9
:1032700084E0FFF7AFFC286801281FD1012100205E
:10328000FDF77DFBC1B26170606A012807D0052897
:1032900007D005EB80004268032A04D004E0677081
:1032A00016E066701DE021B150F8040C032802D02E
:1032B00004E0677002E0012900D16670606A0028AE
:1032C00001DD617869B1062822DA607801281FD112
:1032D000606A55F8200001281ED003281CD0606ABF
:1032E00026E055F82000012803D0032801D0606AA9
:1032F0000BE0F0EE480A1420B0EE601A9FED5B0A76
:10330000FFF7DDF8606A401E6062012800D1677037
:10331000BDEC028BBDE8F081F0EE480A1420B0EE5F
:10332000601A1FEDD20AFFF7CAF8606A401E606299
:103330000528EDD16670EBE701210020FDF71FFBAA
:10334000C1B26170606A012808D0052809D005EB78
:1033500080004268032A06D007E000E066706670CD
:1033600017E067701EE0012904D050F8040C032810
:1033700002D003E0667001E001B96770606A00285E
:1033800004DD617801290DD00628C1DA60780028B3
:10339000BED1606A55F82000012836D0032834D009
:1033A000606A53E055F82010032903D1401E606283
:1033B000FFF710FC606A55F82000012803D00328AD
:1033C00001D0606A1EE0BEEE001AFAEE040A142074
:1033D0009FED270AFFF773F8BEEE001AFAEE040A13
:1033E00005209FED240AFFF76AF84546202128466C
:1033F00000F082FF0128F9D00220FEF7CDFF606ABD
:10340000401E6062012895D082E7DFED1B8AB0EE96
:10341000481AF1EE080A1420B0EE680AFFF74FF8D8
:10342000B0EE481AF1EE080A0520B0EE680AFFF780
:1034300046F845462021284600F05EFF0128F9D0D5
:103440000220FEF7A9FF606A401C606205283FF475
:103450005EAF5DE70000AFC4000402400000000062
:103460001C0200200000002000100240000061C487
:10347000000070440080894400007AC42DE9F047C0
:10348000F74C0126606901280CD16068012809D138
:10349000A068012806D1E068012803D1206901282D
:1034A00000D12660EF4F0421384600F025FFEE4D95
:1034B000012809D00421384600F01EFF4FF0000813
:1034C0004FF0030910B10CE0AE7023E0082138463C
:1034D00000F012FF28B94FF40041384600F00CFF0D
:1034E00028B10421384600F007FF18B107E085F83D
:1034F000028015E00821384600F0FEFE78B1042174
:10350000384600F0F9FE002807D1206801280BD0CA
:1035100085F80280686A44F82060BDE8F087AE70E4
:10352000696A44F82190F8E7686A022144F820109B
:103530006863AE70F1E710B5FFF7A0FFCA48807866
:10354000012803D1BDE81040FFF75EBB10BD70B588
:10355000FFF794FF4FF47A74C34D06E0FFF76DFE5A
:103560002046FDF785FAFFF789FFA8780028F5D0F7
:1035700070BD10B5FEF7ADF9BB4C01206062FFF7DE
:10358000C3FCFFF7E4FF606AA06210BD10B5FEF750
:10359000A0F9B54C02206062FFF7B6FCFFF7D7FF39
:1035A000606AA06210BD10B5FEF793F9AE4C03201F
:1035B0006062FFF7A9FCFFF7CAFF606AA06210BD56
:1035C00010B5FEF786F9A84C04206062FFF79CFC5A
:1035D000FFF7BDFF606AA06210BD10B5FEF779F974
:1035E000A14C05206062FFF78FFCFFF7B0FF606A17
:1035F000A06210BD2DE9F05F9A4F4FF480713846FC
:1036000000F07AFE28B10221384600F075FE00284D
:103610004DD1954D0126002240219448AE6300F023
:1036200083FE05F58074FE20E074A6744FF4805983
:103630004946B846384600F05FFE00274FF4FA7A54
:103640004FF4007B20B94021404600F055FED0B138
:1036500049464646404600F04FFEB0B14021304654
:1036600000F04AFE28B34946304600F045FE0128E6
:103670001DD14021304600F03FFE012817D1042023
:10368000E86350460BE0EE63FBE70220E86340216D
:10369000304600F031FE0128F9D04FF42F70FDF7CD
:1036A000E7F900225946724800F03EFEE774BDE893
:1036B000F09F0320E8634FF49670F0E72DE9F041A6
:1036C0002DED028BFEF726F9642003F068FA664CB4
:1036D000002004F58071A063E063A070FE22CA742C
:1036E0008874634E01225102304600F01DFE012213
:1036F00040215E4800F018FE5A4D1FEDA88A1EE0DA
:10370000B0EE480A0A20B0EE401AF0EE400AFEF78A
:10371000D6FE4FF4806702E0A06B012805D0394641
:10372000284600F0E9FD0028F6D00220FEF734FE1E
:10373000A06B01280FD04FF4FA70FDF799F9102112
:10374000284600F0D9FD012805D14103284600F0A4
:10375000D3FD0128D4D0FDF771F99FED461AE06141
:10376000F0EE480A32209FED440AFEF7A8FE4FF41F
:10377000807707E000223946304600F0D5FDFEF79D
:10378000EBFB28B9FDF75AF9E169C8398842F1DC49
:103790000020FEF701FEA06B0128D0D1BDEC028B0A
:1037A000B8E570B5FFF78AFF2F4C00204FF4617524
:1037B000C4F81800FEF75BFCA84206DB10E06421A9
:1037C0000020B6EE000AFEF772FEFEF750FCA8429B
:1037D000F5DB09E064210020BEEE000AFEF767FE7B
:1037E000FEF745FCA842F5DC0A2003F0D8F9A069F1
:1037F000401CA0613228DDDBBDE870400020FEF7F0
:10380000CBBD2DE9F04101222DED068B11021848A8
:1038100000F08AFD0221154800F06EFD9FED17AA09
:103820009FED159ADFED138ADFED159A0D4E4FF4DB
:1038300080454FF47A671FEDF78A40F62E14012871
:1038400020D0FFF7C0F9B0EE681AFEEE000A96200D
:10385000B0EE490AFEF733FE40F69808FDE000009E
:103860001C02002000100240000000200004024062
:1038700000080240CDCC4C3E0000E144CDCC4CBE13
:1038800000C0DAC4FFF79FF9B0EE681AFEEE000A36
:103890009620B0EE490AFEF712FE4FF4FA6802E0F5
:1038A000FEF75AFB18B9FDF7C9F84045F8DBB0EE52
:1038B000681AF6EE000A7820B0EE490AFEF7FFFD1E
:1038C00003E000BFFEF748FB18B9FDF7B7F8B842B0
:1038D000F8DB46214FF4E160FEF7EEFD4FF496571A
:1038E00003E000BFFEF738FB18B9FDF7A7F8B842B0
:1038F000F8DBB0EE681AF6EE000A1420B0EE690AA2
:10390000FEF7DDFD03E000BFFEF726FB28B92946E0
:10391000304600F0F1FC0128F6D00220FEF73CFD15
:10392000FFF751F9B0EE4A1AF6EE000A32209FED89
:10393000FE0AFEF7C4FD40F6746502E0FEF70CFBDC
:1039400018B9FDF77BF8A842F8DB0220FEF724FD4A
:10395000FDF7BFFFF0EE480A3220B0EE601AB0EE7D
:10396000490AFEF7ACFD02E0FEF7F6FA18B9FDF7DA
:1039700065F8A042F8DB0220FEF70EFD41F2883028
:10398000FDF776F847F2305596220021B6EE000A90
:103990002846FEF755FD4FF4617402E0FEF7DCFAAD
:1039A00018B9FEF764FBA042F8DB14220021BEEE3A
:1039B000000A2846FEF744FD40F27A3603E000BFD5
:1039C000FEF7CAFA18B9FEF752FBB042F8DCFFF76F
:1039D000FAF8B0EE480A3220B0EE401AF0EE400A93
:1039E000FEF76DFD40F6B83703E000BFFEF7B4FA0E
:1039F00018B9FDF723F8B842F8DB0220FEF7CCFC3B
:103A0000C820FDF735F896220021B6EE000A2846B8
:103A1000FEF716FD03E000BFFEF79EFA18B9FEF7A9
:103A200026FBA042F8DB0A220021BEEE000A28464F
:103A3000FEF706FD03E000BFFEF78EFA18B9FEF7A9
:103A400016FBB042F8DCBDEC068B0220BDE8F0416D
:103A5000FEF7A2BCFEF780FA18B9FCF7EFFF40456D
:103A6000F8DBB0EE681AF6EE000A7820B0EE490AEC
:103A7000FEF725FD41F2301803E000BFFEF76CFAB7
:103A800018B9FCF7DBFF4045F8DBB0EE681AF6EE3C
:103A9000000A4620B0EE690AFEF711FD41F25048D7
:103AA00003E000BFFEF758FA18B9FCF7C7FF40451E
:103AB000F8DBB0EE681AF6EE000A1420B0EE690AE0
:103AC000FEF7FDFC03E000BFFEF746FA28B92946E1
:103AD000304600F011FC0128F6D00020FEF75CFC17
:103AE000FFF771F8B0EE4A1AF6EE000A32209FEDA9
:103AF0008F0AFEF7E4FC02E0FEF72EFA18B9FCF795
:103B00009DFFB842F8DB0220FEF746FCFDF7E1FE20
:103B1000F0EE480A3220B0EE601AB0EE490AFEF725
:103B2000CEFC02E0FEF718FA18B9FCF787FFA042B6
:103B3000F8DB0020FEF730FC7D4C00257D4EA561B2
:103B4000FEF795FAB04206DC10E032210020BEEE0E
:103B5000000AFEF7ACFCFEF78AFAB042F5DC09E099
:103B600032210020B6EE000AFEF7A1FCFEF77FFA34
:103B7000B042F5DB0A2003F012F8A069401CA061F6
:103B80003228DDDB0020FEF707FCFDF7A2FEF0EE99
:103B9000480A3220B0EE601A9FED670AFEF78FFCEC
:103BA00040F6863603E000BFFEF7D6F918B9FCF7F9
:103BB00045FFB042F8DB0020FEF7EEFBA5615F4D4C
:103BC000FEF755FAA84206DC10E032210020BEEED6
:103BD000000AFEF76CFCFEF74AFAA842F5DC09E0A1
:103BE00032210020B6EE000AFEF761FCFEF73FFA34
:103BF000A842F5DB0A2002F0D2FFA069401CA061B8
:103C00003228DDDBBDEC068BBDE8F041FEF7DBBB07
:103C100010B5474C606B012801D1FFF7AAFC606B1F
:103C2000022801D1FFF7B2FC606B032801D1FFF736
:103C3000BAFC606B042801D1FFF7C2FC606B052859
:103C400002D1BDE81040C8E410BD3D4A30B4106850
:103C5000374901280CD0886A052826D0042826D0A8
:103C6000032826D002281ED0012824D130BCB4E479
:103C7000334B052013F1180353F820402CB152F8B0
:103C80002040032C01D0486203E0401E0128F3DAF3
:103C9000486A0528EAD0042807D0032807D002285C
:103CA00007D0012807D130BC63E430BC88E430BCC5
:103CB00079E430BC6AE430BC7047FFF7FFFC1C4C71
:103CC000606A012808D0022809D003280AD00428F5
:103CD0000BD005280CD00DE0FFF74BFC0AE0FFF7F6
:103CE00055FC07E0FFF75FFC04E0FFF769FC01E02B
:103CF000FFF773FCFFF7C2FB07E000BFFFF7BEFB57
:103D0000A07801281ED0FFF798FAA0780028F5D0F7
:103D10000025A570FEF7A0FFFFF7D0FC606BA0B1F7
:103D2000FFF776FF65631AE000007AC40000614483
:103D3000000000207CFCFFFF000061C4F8F8FFFFDA
:103D40001C020020FEF760FFE2E7FFF77EFF06E0BF
:103D5000FFF794FBA078012806D0FFF76EFAA07851
:103D60000028F5D0A570D7E7FEF74EFFFEF774FFE9
:103D7000F5E75649012048620221554800F0BCBAD7
:103D800052490220486270475049032048627047F8
:103D90004E490420486270474C49052048627047EC
:103DA00010B5FFF72EFDFFF7FCFCFFF7EFFBFEF76A
:103DB0002BFFFEF751FFFFF7F4FCFFF7DAFBFEF7EE
:103DC00023FFBDE81040FEF747BF1120FDF77DFF40
:103DD0000F2002F0E4FEF8E7FEF7BEFE0A2002F034
:103DE000DEFEF9E7394C00BFFEF759FEFFF702FC93
:103DF000207808B9FEF7F2FC052002F0D0FEF3E7C8
:103E00001FB5FCF741FEFCF772FEFCF7A7FFFDF7BC
:103E100048F8FDF701F9FDF774F9FCF7E8FE4FF4F7
:103E2000E1342046FDF730FA2046FDF7AFFA204690
:103E3000FDF732FBE000FDF74EFCFDF757FDFDF707
:103E400048FD00244FF480750094019402942346A9
:103E50002A4620A12448039402F0CAFC009401944D
:103E6000029400232A4621A12548039402F0C0FCB5
:103E7000244C0B25154E07E0FEF745FD2078000782
:103E800002D43563FFF78CFFA0797328FCD1F3E7E8
:103E90007FB500244FF4807500940194029423466A
:103EA0002A4619A11B48039402F0A2FC0094019435
:103EB000029400232A4618A11A48039402F098FCA1
:103EC00002F0BCFF04B0002070BD00000000002024
:103ED000000402407461736B526F626F74416E61D3
:103EE0006C79746963730000E53D00087461736B5D
:103EF000446965754B6869656E436F436175000081
:103F0000D93D00086C0100207461736B4D61696ECE
:103F100000000000013E00087461736B4779726F06
:103F200000000000CB3D00080CB500205149019075
:103F300000900A6842F480320A604FF4A0630A6875
:103F400002F400320092019A521C0192009A12B9B6
:103F5000019A9A42F3D10A68920334D50120009065
:103F600044484030026842F0805202604248026891
:103F700042F4804202603F480830026802600268F2
:103F800042F400420260026842F4A0520260031F41
:103F90003A4A1A600A6842F080720A600A6892011E
:103FA000FCD5374A40F205611160016821F0030138
:103FB0000160016841F0020101600168C1F3810103
:103FC0000229FAD10CBD00900CBD2A4810B5016839
:103FD00041F001010160274A0021083211600268A6
:103FE000284B1A400260031D274A1A60026822F417
:103FF000802202601F480C300160FFF795FF2349C3
:104000004FF00060086010BD70B51A4C083420688D
:104010001F4A10F00C011F4804D05510042903D08A
:10402000082903D002601BE0056019E01149091D51
:104030000B68C3F380560B6803F03F0316B1B5FB62
:10404000F3F201E0B2FBF3F20B680968C3F38813E3
:104050005A43C1F30141491C4900B2FBF1F101602F
:1040600021680C4AC1F30311121D515C0268CA4059
:10407000026070BD003802400070004008544007E4
:10408000003C0240FFFFF6FE1030002408ED00E087
:104090000024F400880100200648804706480047B5
:1040A000FEE7FEE7FEE7FEE7FEE7FEE7FEE7FEE7E8
:1040B000FEE7FEE7CB3F00088901000828490843D6
:1040C00028490860704730B50F22C4780178012371
:1040D000FCB1244C246801F1E02104F4E064C4F54F
:1040E000E064C4F30724C4F10405E2404478AC4022
:1040F0008578154025432A0181F80024007800F0D6
:104100001F018B404009800000F1E020C0F8003121
:1041100030BD01F01F0083404809800000F1E0201D
:10412000C0F8803130BD104A114001430D48001FD6
:10413000016070470B4A121D0029116801D001432C
:1041400000E08143116070474FF0E02104280869C6
:1041500003D020F004000861704740F00400FAE743
:104160000000FA050CED00E080FFFF1F7C4910B550
:10417000884206D10121084600F058FA00210120AA
:104180004FE07849884206D10121022000F04EFA22
:104190000021022045E07449884206D10121042013
:1041A00000F044FA002104203BE07049884206D127
:1041B0000121082000F03AFA0021082031E06C4982
:1041C000884206D10121102000F030FA0021102091
:1041D00027E06849884206D10121202000F026FA14
:1041E000002120201DE06449884206D101214020A1
:1041F00000F01CFA0021402013E06049884206D1FB
:104200000121802000F012FA0021802009E05C49A1
:1042100088420AD184150121204600F007FA0021C6
:104220002046BDE8104000F001BA10BDF0B50023F3
:10423000012403270D6804FA03F21540954242D188
:10424000D0F800C05E0007FA06F52CEA050CC0F8AD
:1042500000C091F804C0D0F800E00CFA06FC4CEA6B
:104260000E0CC0F800C091F804C0BCF1010F02D0E0
:10427000BCF1020F1FD1D0F808C02CEA050CC0F821
:1042800008C091F805C0D0F808E00CFA06FC4CEA2A
:104290000E0CC0F808C0D0F804C02CEA020CC0F81C
:1042A00004C0426891F806C00CFA03FC1FFA8CFCAB
:1042B00042EA0C024260C268AA43C260CA79C56879
:1042C000B2402A43C2605B1C102BB3D3F0BD4FF643
:1042D000FF7101600021017141718171C1717047ED
:1042E00008B541F480320092C261C1610099C16198
:1042F000C169C069009008BD0246002012690A42E7
:1043000000D001207047006980B27047024600204B
:1043100052690A4200D001207047406980B270475C
:1043200001837047418370470AB10183704741831D
:1043300070474161704742694A40426170474B078C
:10434000DB0E9A40C90810B500EB8100016A0F240A
:104350009C40A1430162016A1143016210BD00004B
:10436000000002400004024000080240000C02402D
:10437000001002400014024000180240001C0240DD
:1043800000200240EA48016841F001010160E84A6A
:104390000021083211600268E64B1A400260031DDA
:1043A000E54A1A60026822F480220260E0480C307C
:1043B00001607047DE490022891C0A70087070474E
:1043C00002460020510901290CD002290CD0D849FD
:1043D0007431096802F01F02012393400B4200D0A0
:1043E00001207047D249F4E7D1497031F1E718B59F
:1043F00000204FF4A06400903120FFF7E1FF009906
:10440000491C0091A14201D00028F5D03120FFF7CE
:10441000D7FF002800D0012018BDC5490A6822F046
:10442000F80242EAC00008607047C449086070475B
:10443000BF49002270310A700A70012802D0042896
:1044400001D1052008707047BD490860704741EAF6
:1044500082115A0810B5BB4B029C03EB0242114378
:10446000014341EA0460B249091D086010BDB34927
:1044700008667047800140EA0170AD4984310860E8
:104480007047AE4988667047AC49C8647047A84A0F
:1044900008321368084323F0EC6318431060704738
:1044A000A34A08321368084323F078431843106086
:1044B00070479F4A0832116821F0030101431160DF
:1044C00070479B480830006800F00C007047984A1D
:1044D0000832116821F0F001014311607047944ADD
:1044E0000832116821F4E05101431160704790498E
:1044F00008310A6822F4604242EAC000086070474E
:1045000070B58B4A083211688F4C11F00C0104D041
:104510006610042903D0082903D004601BE006605C
:1045200019E08349091D0B68C3F380550B6803F03C
:104530003F0315B1B6FBF3F301E0B4FBF3F30C68F2
:104540000968C4F388146343C1F30141491C49005D
:10455000B3FBF1F1016011680F2303EA11117B4BEA
:104560005C5C0168E14041601468072505EA942419
:104570001C5D21FA04F48460126805EA52329A5CE8
:10458000D140C16070BDC0F30121032908D1684A40
:104590000832116821F4F8136D4901401943116084
:1045A000634970310A68C0F30B0002430A60704728
:1045B0006349443908607047614940390860704771
:1045C0005E49C1F85C017047594A303200291168D0
:1045D00001D0014300E0814311607047544A3432F6
:1045E0000029116801D0014300E081431160704748
:1045F0004F4A38320029116801D0014300E081435D
:10460000116070474A4A40320029116801D00143C5
:1046100000E0814311607047454A44320029116827
:1046200001D0014300E0814311607047404A1032DD
:104630000029116801D0014300E0814311607047F7
:104640003B4A14320029116801D0014300E0814344
:1046500011607047364A18320029116801D00143B1
:1046600000E0814311607047314A2032002911680F
:1046700001D0014300E08143116070472C4A24328D
:104680000029116801D0014300E0814311607047A7
:10469000274A50320029116801D0014300E08143CC
:1046A00011607047224A54320029116801D0014339
:1046B00000E08143116070471D4A5832002911689B
:1046C00001D0014300E0814311607047184A603215
:1046D0000029116801D0014300E081431160704757
:1046E000134A64320029116801D0014300E081437C
:1046F000116070470E4A0D320029117801D0014334
:1047000000E081431170704709487430016841F03E
:104710008071016070470146054A00200C32126822
:104720000A4200D00120704701490E3108707047DD
:1047300000380240FFFFF6FE103000240000474220
:10474000800E47420000FFFF0024F4009C0100207F
:10475000FFFCFF0F10B501210C022046FFF78EFF72
:104760002046BDE810400021FFF788BF30B5426801
:10477000C84B0C791A400B6842EA04221343436089
:104780008268C54B4D791A40D1E9034323438C68B5
:1047900044EA4504234313438360C26A097D22F43B
:1047A0007002491EC9B242EA0151C16230BD002106
:1047B0000160017141718160C16001610121017578
:1047C0007047B64B10B5D3F80423B5490A40D0E979
:1047D00000142143D0E90240044321431143C3F8AC
:1047E000041310BD0021016041608160C160704709
:1047F0000029816802D041F0010101E021F00101AE
:10480000816070474268A74B1A400A434260704774
:10481000416282627047426822F01F020A4342608E
:1048200070479E490028D1F8040302D040F40000EC
:1048300001E020F40000C1F8040370479749002804
:10484000D1F8040302D040F4800001E020F480009D
:10485000C1F80403704770B5072409290AD9C5684F
:10486000A1F10A0606EB4606B440A543B3401D433A
:10487000C56007E0056901EB4106B440A543B340BC
:104880001D4305611F23072A09D2446B521E02EB08
:10489000820293409C4391400C43446370BD0D2AB7
:1048A00009D2046BD21F02EB820293409C439140D9
:1048B0000C43046370BDC46A0D3A02EB820293405C
:1048C0009C4391400C43C46270BD816841F08041BB
:1048D00081607047014600208968490200D50120A7
:1048E00070470029816802D041F4806101E021F421
:1048F0008061816070470029816802D041F0020127
:1049000001E021F00201816070474268491E22F4F3
:10491000604242EA4131416070470029416802D05B
:1049200041F4006101E021F4006141607047C06C16
:1049300080B270475948D0F8080370470029816851
:1049400002D041F4807101E021F4807181607047F0
:104950000029816802D041F4007101E021F4007166
:10496000816070474D490028D1F8040302D040F41B
:10497000005001E020F40050C1F80403704770B506
:10498000072409290AD9C568A1F10A0606EB4606DB
:10499000B440A543B3401D43C56007E0056901EB82
:1049A0004106B440A543B3401D430561836BC3F387
:1049B0000154121B921C02EB82041F22A24093435B
:1049C000A1400B43836370BD826B491E22F44012E9
:1049D00042EA01518163704708B5084400900260C3
:1049E00008BD826822F470220A43826070478268A0
:1049F00022F440120A4382607047816841F48001CA
:104A000081607047014600208968490200D5012075
:104A100070470029416802D041F4806101E021F42F
:104A20008061416070470029416802D041F48051A3
:104A300001E021F480514160704708B508442830F6
:104A40000090006880B208BD01238B4041680AB124
:104A5000194300E099434160704702460020126804
:104A60000A4200D001207047C9430160704730B549
:104A70000246002053680C0A01258D4011682B4026
:104A8000214202D0002B00D0012030BD6FEA11215D
:104A900001607047FFFEFFFCFDF7FFC000200140F2
:104AA000E030FCFFFFFD3FFF2DE9F043016821F0FE
:104AB000010101600021016041608160C16001610C
:104AC00021214161B849B84A3D251039904202D1AF
:104AD0008D60BDE8F083B44A4FF47466183290429A
:104AE00001D18E60F5E7B04A4FF47417303290422E
:104AF00001D18F60EDE7AC4A4FF0746C48329042C0
:104B000002D1C1F808C0E4E7A74BA84A6033984235
:104B100001D1CA60DDE7A44CA54B7834A04201D195
:104B2000CB60D6E7DFF88082A24C08F190084045C0
:104B300001D1CC60CDE7DFF870824FF03D5908F12C
:104B4000A808404502D1C1F80C90C2E79A49DFF8A5
:104B500068820839404501D10D60BAE7964D183595
:104B6000A84201D10E60B4E7934D3035A84201D17F
:104B70000F60AEE7904D4835A84202D1C1F800C0A1
:104B8000A7E78D4D8C496035091FA84201D10A6005
:104B90009FE7894A7832904201D10B6099E7864AB3
:104BA0009032904201D10C6093E7834AA832904240
:104BB0008FD1C1F800908CE730B503687F4ACC688C
:104BC00013400A682243D1E905452C432243CC69AE
:104BD00022430C6A22434C6A22438C6A22434C6B68
:104BE00022438C6B22431A430260426922F007037E
:104BF000D1E90B2422431A4342610A6942604A68A0
:104C000082608968C16030BD0021016041608160BF
:104C1000C160016141618161C16101624162816282
:104C2000C16201634163816370470029016802D05A
:104C300041F0010101E021F001010160704700290C
:104C4000016802D041F4004101E021F4004101601B
:104C500070470029016802D041F0200101E021F0F5
:104C600020010160704741607047406880B2704722
:104C7000002A026802D042F4002201E022F400225D
:104C80000260016170470029016802D041F480216F
:104C900001E021F48021016070470AB10161704791
:104CA000C1607047014600200968090300D5012052
:104CB0007047014600200968C90700D001207047ED
:104CC000406900F03800704702463B4B00209A4292
:104CD00002D2354A103A01E0374A103A8B0001D52A
:104CE000526800E01268364B1A400A4200D0012098
:104CF0007047314A904202D22B48103801E02E48CA
:104D000010382F4A8B0001EA020101D5C1607047BB
:104D1000816070470B0607D5436912B143F08003E9
:104D200001E023F080034361802908D0002A026853
:104D300001F01E0101D00A4300E08A43026070477F
:104D400030B51D4A0024904202D2174B103B01E0BF
:104D5000194B103B1B4A114205D01E2202EAD125F5
:104D600002682A4002E0406900F08002880001D514
:104D7000586800E01868124B1840084201D002B190
:104D80000124204630BD0C4A904202D20648103819
:104D900001E0094810380A4A8B0001EA020101D5F6
:104DA000C160704781607047106002403D00002084
:104DB000400F002000003D20106402403F801CF0A6
:104DC0007D0F7D0F3C0F3C0F374900200860091D07
:104DD0000860091D0860091D086033493348143113
:104DE0000860704730B530498379026853B30B6867
:104DF00093430B600A1D13680468A3431360027990
:104E00000A441368046823431360274A083213686E
:104E10000468A3431360131D1C680568AC431C6041
:104E20004479102C05D021440A68006802430A60C6
:104E300030BD11680468214311601968006801439E
:104E4000196030BD0079084401689143016030BDAC
:104E50000021016001710C22427181717047124979
:104E600010310A6802430A60704701460E4A00206A
:104E7000143212680A4200D0012070470A491431E6
:104E800008607047084A014600201268064B0A4035
:104E900014331B680B4202D0002A00D00120704757
:104EA0000149143108607047003C0140FFFF7F005A
:104EB000FE4910B5884206D101210846FFF7DEFB06
:104EC000002101205BE0B0F1804F09D0F849884211
:104ED0000DD101210220FFF7C7FB0021022070E065
:104EE00001210846FFF7C0FB0021012069E0F149DC
:104EF000884206D101210420FFF7B6FB00210420DF
:104F00005FE0ED49884206D101210820FFF7ACFBA4
:104F10000021082055E0E949884206D101211020EE
:104F2000FFF7A2FB002110204BE0E549884206D1A3
:104F300001212020FFF798FB0021202041E0E149DA
:104F4000884206D101210220FFF798FB00210220B0
:104F500015E0DD49884202D101210C040AE0DB4959
:104F6000884202D101214C0404E0D94988420AD187
:104F700001218C042046FFF781FB00212046BDE87B
:104F80001040FFF77BBBD349884206D10121402066
:104F9000FFF76AFB0021402013E0CF49884206D189
:104FA00001218020FFF760FB0021802009E0CB4930
:104FB00088420AD1841501212046FFF755FB0021C4
:104FC0002046BDE81040FFF74FBB10BD30B502884A
:104FD000B64BBC4C98420DD0A0420BD0B0F1804FE4
:104FE00008D0B34DA84205D0B24DA84202D0B24D70
:104FF000A84203D122F070054A882A43AF4DA84247
:1050000006D0AF4DA84203D022F440750A892A4346
:1050100002804A68C2620A880285984201D0A04292
:1050200001D1897A01860121818230BD4FF0FF31A3
:1050300041600021018001814180817270470185BA
:1050400082827047028822F070020A430280704711
:1050500041627047C1627047406A7047008D704777
:105060000029018802D041F0020101E021F0020193
:10507000018070470029018802D041F0040101E05D
:1050800021F00401018070470029018802D041F01D
:10509000800101E021F0800101807047028822F048
:1050A0000802028002880A4302807047028822F4C4
:1050B0004072028002880A430280704700290188FA
:1050C00002D041F0010101E021F0010101807047AF
:1050D00030B5028C22F001020284028C8388048B9A
:1050E00022F0020224F073050C882C438D891543AD
:1050F0004A882A436D4DA84202D0724DA8420DD174
:1051000022F00805CA8923F440732A4322F00405DB
:105110008A882A430D8A1D434B8A2B43838004834C
:1051200089684163028430BD70B5028C22F01002A0
:105130000284028C8488038B0D8823F4E6464FF6A4
:10514000FF7303EA052535438E8922F0200203EA26
:10515000061616434A8803EA02123243534EB042FF
:1051600002D0584EB04215D122F08006CA8924F4EC
:10517000406403EA0212324322F040068A8803EABE
:10518000021232430E8A03EA860626434C8A03EA59
:10519000840434438480058389688163028470BDFC
:1051A00070B5028C22F480720284028C8488838B16
:1051B0000D8823F073031D4322F400738E894FF68C
:1051C000FF7202EA06261E434B8802EA032333439A
:1051D000364EB04202D03B4EB04215D123F40066A9
:1051E000CB8924F4405402EA0323334323F480663A
:1051F0008B8802EA032333430E8A02EA061626430B
:105200004C8A02EA04143443848085838968C1632C
:10521000038470BD70B5028C22F480520284048C29
:105220008288838B0D8823F4E6464FF6FF7303EAEA
:105230000525354324F400568C8903EA04343443AD
:105240004E8803EA06362643184CA04202D01D4C75
:10525000A04205D122F480440A8A03EA8212224342
:105260008280858389680164068470BD0021018085
:105270004180818081608181C1810182418270474A
:1052800030B50124058C00F118038C40A54305843A
:1052900031B308292CD0091FC1F34E00184401680E
:1052A00048F6FF731940016001681AE000000140F0
:1052B0000004004000080040000C004000100040C6
:1052C000001400400004014000400140004401403F
:1052D0000048014000180040001C00400020004031
:1052E00006E04FF6FF7303EA02221143016030BD6E
:1052F00003EB510001684FF68F731940016001689C
:10530000F3E74163704781637047C163704701648D
:105310007047028B22F070020A4302837047028BAF
:105320004FF6FF7322F4E04203EA012111430183A7
:105330007047828B22F070020A4382837047828B0F
:105340004FF6FF7322F4E04203EA01211143818307
:105350007047028B22F008020A4302837047028BD7
:105360004FF6FF7322F4006203EA01211143018327
:105370007047828B22F008020A4382837047828B37
:105380004FF6FF7322F4006203EA01211143818387
:105390007047028B22F004020A4302837047028B9B
:1053A0004FF6FF7322F4806203EA01211143018367
:1053B0007047828B22F004020A4382837047828BFB
:1053C0004FF6FF7322F4806203EA012111438183C7
:1053D0007047028B22F080020A4302837047028BDF
:1053E0004FF6FF73C2F30E0203EA0121114301835A
:1053F0007047828B22F080020A4382837047828B3F
:105400004FF6FF73C2F30E0203EA012111438183B9
:105410007047028C22F002020A4302847047028C19
:1054200022F008020A4302847047028C4FF6FF7391
:1054300022F0200203EA0111114301847047028C1B
:105440004FF6FF7322F0800203EA01111143018439
:105450007047028C4FF6FF7322F4007203EA0121B9
:10546000114301847047028C4FF6FF7322F40062EF
:1054700003EA0121114301847047028C4FF6FF7348
:1054800022F4005203EA013111430184704710B540
:105490000123048C8B409C430484038C8A40134377
:1054A000038410BD10B50423048C8B409C430484FA
:1054B000038C8A401343038410BD828B22F4406224
:1054C0008283828B4FF6FF7303EA01210A438283B2
:1054D0007047828B22F00C028283828B0A43828384
:1054E0007047028B22F440620283028B4FF6FF73F7
:1054F00003EA01210A4302837047F0B5048C24F0CB
:1055000010040484078B068C4FF6FF7404EA01151F
:1055100027F4734704EA0331394304EA02220A43B9
:1055200026F0A001294341F0100102830184F0BD5F
:10553000028B22F00C020283028B0A430283704723
:105540002DE9F0410D460E884988AA882B8904462A
:105550000EB3042E26D0082E268C4FF6FF7028D0CE
:1055600026F480562684A78B268C00EA022200EAC5
:10557000013127F473473A4300EA0330104326F41D
:1055800020420A4342F48051A0832184E9882046C6
:10559000BDE8F04191E700F062F9E9882046BDE8F6
:1055A000F041C5E7FFF7A9FFE9882046BDE8F041D3
:1055B00097E726F480762684A78B268C00EA0121C3
:1055C00000EA0310104327F0F307384326F4206263
:1055D0000A4342F48071A0832184E9882046BDE813
:1055E000F04176E700210180418001228280C18064
:1055F000018170472DE9F0410C4600264988074695
:10560000012501B90226A288012A00D1022520889D
:1056100023890028384610D0FFF76FFFE18838460D
:10562000FFF75FFF23892A463146384600F017F915
:10563000E1883846BDE8F0417AE700F010F9E188EA
:105640003846FFF775FF23892A4631463846FFF76B
:1056500054FFE1883846BDE8F04142E7406B7047AF
:10566000806B7047C06B7047006C704710B50A883C
:105670004B88CC881A438B8823431A430B891A43DF
:105680004B8989891A430A43A0F8442010BD0021A0
:10569000018041808180C180018141818181704789
:1056A000002930F8441F02D041F4004101E0C1F369
:1056B0000E01018070470029818802D041F0040169
:1056C00001E021F00401818070470029818802D027
:1056D00041F0010101E021F0010181807047002AC1
:1056E000828901D00A4300E08A4382817047818227
:1056F000704702460020128A0A4200D001207047FB
:10570000C9430182704702460020138A92890B42E6
:1057100002EA010202D0002A00D001207047C943EA
:10572000018270471143A0F848107047002A82890F
:1057300001D00A4300E08A438281704700298188B2
:1057400002D041F0080101E021F00801818070479A
:10575000018921F0070101817047028922F070025E
:105760000A430281704700B50346FFF7F6FF188928
:1057700040F00700188100BD70B516460D4660293F
:1057800004464FF0010231460AD000F068F829467D
:105790002046FFF7E2FF208940F00700208170BD1E
:1057A000FFF7ABFEF3E730B504894FF6FF7505EA66
:1057B00003231343E4B20B432343038130BD10B5ED
:1057C0000446FFF7F0FF208940F07700208110BDEC
:1057D00010B50446FFF7E7FF208940F480402081A0
:1057E00010BD828822F07002828082880A43828003
:1057F0007047028922F00702028102890A4302816E
:105800007047028922F08002028102890A430281E4
:10581000704770B50589048B068C25F007050D438C
:105820004FF6FC410C4040F201110C434FF6FF7162
:1058300001EA031126F02206114331430581048356
:10584000018470BD0029818802D041F0800101E00F
:1058500021F0800181807047A0F85010704770B52A
:10586000048C24F001040484058B048C4FF6FF762D
:1058700006EA0313134325F0F3052B4324F00A0231
:105880000A4342F001010383018470BDC74910B58A
:10589000884206D101211020FEF7F0FE00211020E1
:1058A00028E0C349884202D101214C0410E0C149DB
:1058B000884202D101218C040AE0BF49884202D10A
:1058C0000121CC0404E0BD4988420AD101210C0524
:1058D0002046FEF7C9FE2046BDE810400021FEF735
:1058E000C3BEB749884209D101212020FEF7C6FE78
:1058F00000212020BDE81040FEF7C0BE10BD7FB5DE
:105900000446008A0D4620F44051E888084320826E
:10591000A08941F20C618843A9882A8911436A89C8
:1059200002431143A181A08A20F44071A889084351
:10593000A0826846FEF7E4FD9C48844202D0A0485D
:10594000844201D1039800E00298A189090400EB88
:10595000C00101EB0010296801D5490000E0890071
:10596000B0FBF1F26420B2FBF0F109010B096FF01A
:1059700018056B4302EB8302A3891D044FF0320329
:1059800006D503EBC202B2FBF0F000F0070005E021
:1059900003EB0212B2FBF0F000F00F00084320818D
:1059A0007FBD4FF41651016000218180C1800181CB
:1059B0000C2242818181704710B5028A4C8822F402
:1059C00070630A8822438C88C9880C4322431A4397
:1059D000028210BD0021018041808180C18070471A
:1059E0000029818902D041F4005101E021F40051E5
:1059F00081817047028B02F47F420283028B0A434B
:105A0000028370470029818902D041F4004101E0FE
:105A1000C1F30E01818170470029818A02D041F4CF
:105A2000006101E021F4006181827047C1F3080147
:105A3000818070478088C0F308007047028A22F096
:105A40000F020282028A0A4302827047002981897A
:105A500002D041F0020101E021F002018181704792
:105A6000828922F40062828182890A43828170479E
:105A7000028A22F020020282028A0A4302827047CE
:105A80000029018A02D041F4804101E021F48041E3
:105A900001827047818941F00101818170470029AD
:105AA000818A02D041F0080101E021F008018182E1
:105AB0007047028BD2B20283028B42EA012101833A
:105AC00070470029818A02D041F0200101E021F0D5
:105AD0002001818270470029818A02D041F01001A3
