:020000040800F2
:10000000583000202939000845020008470200083E
:10001000490200084B0200084D02000800000000E1
:100020000000000000000000000000009D0100082A
:100030004F02000800000000E10100085F5F0008B7
:1000400043390008433900084339000843390008A0
:100050004339000843390008433900084339000890
:10006000170400086304000843390008010300086E
:10007000C30200084D030008433900087502000858
:10008000433900087D02000843390008433900085D
:100090004339000843390008433900084339000850
:1000A0004339000871030008910300084339000830
:1000B00093030008B3030008D30300084339000882
:1000C0004339000843390008433900081304000885
:1000D0004339000855020008433900084339000835
:1000E0004339000843390008433900084339000800
:1000F0004339000843390008433900082303000846
:100100004339000843390008F303000815040008C8
:100110004339000843390008570300085F0300080B
:1001200043390008433900089F020008433900089A
:1001300043390008433900084339000843390008AF
:10014000433900084339000843390008433900089F
:10015000B902000843390008433900084339000850
:10016000433900084339000843390008433900087F
:10017000433900084339000843390008433900086F
:100180004339000843390008DFF80CD006F084FF3B
:10019000004800471537000858300020234B1968E5
:1001A0000868B0E8F04F80F309884FF0000080F352
:1001B000118870470000000003480068006880F361
:1001C000088862B600DF00BF08ED00E0DFF80C0031
:1001D000016841F470010160704700BF88ED00E0E4
:1001E000EFF30980114B1A681EF0100F08BF20EDC5
:1001F000108A20E9F04F106008B54FF0140080F32A
:10020000118806F082F94FF0000080F31188BDE8F4
:10021000084019680868B0E8F04F1EF0100F08BFDA
:10022000B0EC108A80F30988704700BFA00100205D
:10023000EFF311804FF0140181F31188704780F3C0
:10024000118870477047FEE7FEE7FEE7FEE770475C
:100250007047704710B5834C40F22551204605F099
:10026000C8F8002805D02046BDE81040202105F040
:10027000BDB810BD7C497D4804F0CDB970B57B4D4B
:100280007B4C30352146284604F0A2F9002805D0E1
:1002900021462846BDE8704004F0BDB970BD10B5D8
:1002A0007449754804F0B7F974484178007841EA18
:1002B00000207349088010BD6F487249483004F02F
:1002C000AAB970B5694D704C483D2146284604F0E6
:1002D0007FF9002813D02146284604F09CF96B488A
:1002E00001F08BFD00280AD1694C0021204604F062
:1002F000BFFF2046BDE87040012104F0B9BF70BDCA
:1003000070B55A4D634C603D2146284604F060F9B3
:10031000002805D021462846BDE8704004F07BB98E
:1003200070BD70B5514C5C4D48342946204604F0F0
:100330004FF9002809D00021204604F0BEF82946D4
:100340002046BDE8704004F066B970BD4748464994
:10035000303804F060B90121504804F028BE10B5CF
:1003600001214F4804F023FE3E497A20888010BDC9
:1003700010B54C4C0121204604F019FE2088C1061E
:100380004948016801D5491E00E0491C016010BDC3
:10039000704710B501218C07204604F008FE208824
:1003A000C1064248016801D5491E00E0491C0160B0
:1003B00010BD10B53E4C0121204604F0F8FD208808
:1003C000C1063C48016801D5491E00E0491C016096
:1003D00010BD10B5384C0121204604F0E8FD2088FE
:1003E000C1063648016801D5491E00E0491C01607C
:1003F00010BD10B5324C0121204604F0D8FD2088F4
:10040000C1063048016801D5491E00E0491C016061
:1004100010BD7047704770B5042004F07BF90028C8
:100420001ED02021284803F0CEFB284D0421284669
:1004300003F0AAFB1A4C012805D00421284603F03A
:10044000A3FB28B109E00021204604F049FA04E0AA
:10045000204604F049FA1E4908601E49042008603D
:1004600070BD704700100140208000207060024085
:10047000008020200080201040640240D80200202C
:10048000080000200088002000880010F6020020EC
:10049000004800402080001000800028001000402C
:1004A00000140040000001400C000020100000205B
:1004B0000004004014000020000800404401002017
:1004C000000C00404801002000000240000C0240E7
:1004D0004C010020143C014070B50546002406F094
:1004E00041FBFE4902E02A5D0A55641C8442FADBA6
:1004F000BDE870400121FA4803F0DFBF70B5F94D47
:1005000006460024315D00290BD0284604F0D6FEB3
:100510008021284604F063FF0028F9D0641CE4B26F
:10052000F0E770BD70B5EF4E05460024002D0DD0EC
:100530002946304604F0C2FE8021304604F04FFFC9
:100540000028F9D0641CE4B2032CEFD370BD73B55E
:100550000C460020FFF7E6FFE3A0FFF7CFFFDF48E0
:100560002246E2A1823806F0E5FDDC488238FFF73A
:10057000C5FFDFA0FFF7C2FFDFA0FFF7BFFFD7482F
:10058000DAA18238009A06F0D5FDD44E0024D54D6C
:10059000823E2846315D04F091FE4021284604F059
:1005A0001EFF0028F9D0641C142CF2DBD2A0FFF748
:1005B000A5FFFF20FFF7B6FFFF20FFF7B3FFBDE861
:1005C0007C40FF20AEE770B505460C46C6A0FFF79D
:1005D00095FFC2482246C5A1823806F0ABFDBF4850
:1005E0008238FFF78BFFC5A0FFF788FF2846FFF78B
:1005F00085FFC1A0FFF782FFBDE87040FF2091E7B3
:1006000077B5BEA185B00646D1E90001CDE900016C
:10061000B9A0002200680390B3A0B04D0068283D47
:10062000A5F128030290AD4C1146A3F13200A95464
:1006300099548154A154521CD2B21E2AF7D30A21D4
:100640000170FF2444708470C470A448A7A150387E
:10065000079A06F06FFDA14902A8503906F06AFA20
:100660009E4802A9823806F065FA9C48694682389D
:1006700006F060FA99483146823806F05BFA9748EE
:100680009AA15038069A06F055FD94495039A1F1C7
:10069000320006F04FFA914803A9823806F04AFA70
:1006A0008E492C706C702839AC70A1F15A0006F09C
:1006B00041FA8A488238FFF70FFF08B070BD2DE974
:1006C000F74188468DA185B00646D1E90001CDE904
:1006D000000189A000220068039083A07F4D00687C
:1006E000283DA5F1280102901446A1F13200AC5436
:1006F0008C548454521CD2B20A2AF8D30A210170B5
:10070000FF2747708770C770744878A15038079AE0
:1007100006F010FD714902A8503906F00BFA6F4837
:1007200002A9823806F006FA6C486946823806F05B
:1007300001FA6A483146823806F0FCF967484146BA
:10074000823806F0F7F9654803A9823806F0F2F915
:100750002F706F706149AF70EC7028392C71A1F166
:100760005A0006F0E7F95D488238FFF7B5FE08B099
:10077000BDE8F08170B50020FFF7D4FE5AA0FFF766
:10078000BDFE56480D2259A1823806F0D3FC5348CD
:100790008238FFF7B3FE59A0FFF7B0FE594C202175
:1007A000204603F0F1F902464C4850A1823806F089
:1007B000C1FC4A488238FFF7A1FE1021204603F011
:1007C000E3F90246454849A1823806F0B3FC4348A4
:1007D0008238FFF793FE4C4D8021284603F0D4F970
:1007E00002463E4841A1823806F0A4FC3B488238CC
:1007F000FFF784FE4021284603F0C6F90246374839
:100800003AA1823806F096FC34488238FFF776FE2B
:100810004FF40041204603F0B7F902462F4833A1B8
:10082000823806F087FC2D488238FFF767FE4FF4C8
:100830008041204603F0A8F9024628482BA18238BF
:1008400006F078FC25488238FFF758FE4FF4005137
:10085000204603F099F90246204824A1823806F088
:1008600069FC1E488238FFF749FE4021274803F003
:100870008BF9024619481DA1823806F05BFC174827
:100880008238FFF73BFE1CA0FFF738FEFF20FFF782
:1008900049FEFF20FFF746FEBDE87040FF2041E61D
:1008A000FEB51BA10646D1E90001CDE900011AA061
:1008B00000210A4D0068283DA5F1280202900C464F
:1008C000A2F132006C5454544454491CC9B2322928
:1008D000F8D30A210170FF2747701FE0960200201D
:1008E000B860024000500040740000002564000021
:1008F0002E7478743D000000220000002E7478747D
:100900003D220000000802400000024000100240AA
:100910002E76616C3D0000006A0000008770C77091
:100920000022AFF23801FE4806F004FCFC4902A8A0
:1009300006F000F9FA4802A9323806F0FBF8F84848
:100940006946323806F0F6F83246AFF26001F448F4
:1009500006F0F0FBF249A1F1320006F0EBF82F703F
:100960006F70EF49AF70EC7028312C71A1F15A0013
:1009700006F0E0F8EA483238FFF7AEFDFEBD70B58C
:100980000D46044606F0A0F8291B491C90FBF1F225
:1009900001FB1200204470BD2DE9FC414FF080475F
:1009A000384603F0A1FFDF4D2969642640EA014083
:1009B00090FBF6F000240190384603F095FF29697A
:1009C00040EA014090FBF6F001990090401A00D5F2
:1009D0004042322800DA641C00980190022CEBDBC4
:1009E0000098002800DA4042BDE8FC812DE9FC4176
:1009F000CD4F384603F078FFCA4D6969642640EA56
:100A0000014090FBF6F000240190384603F06CFFA3
:100A1000696940EA014090FBF6F001990090401AA4
:100A200000D54042322800DA641C00980190022C64
:100A3000EBDB00980028D7DA4042D5E710B5FFF786
:100A4000ABFF0446FFF7D2FF002C00DA6442002817
:100A500000DA4042204410BD01B581B0019800EB9E
:100A6000C00040000090002801D0401EFAE70CBDF5
:100A700001B581B044F250610198484300900028CC
:100A800001D0401EFAE70CBD2DE9FC4101211F20D9
:100A900003F0E2F901248DF8044000268DF8066089
:100AA0004FF6FF758DF80740032700958DF8057008
:100AB00069469E4803F002F88DF804408DF8066000
:100AC0008DF8074000958DF805706946984802F04A
:100AD000F5FF8DF804408DF806608DF8074000950D
:100AE0008DF805706946934802F0E8FF7CE77CB515
:100AF00001217E2003F0B0F90024FC208DF8044091
:100B0000012500908DF8075002268DF80560694692
:100B1000894802F0D3FF48F206008DF804400090A7
:100B20008DF807508DF805606946804802F0C6FFD1
:100B300046F6C4408DF8044000908DF807508DF8BB
:100B4000056069467A4802F0B9FF03208DF8044039
:100B500000908DF807508DF805606946754802F0E1
:100B6000ADFF4FF2FF508DF8044000908DF8075014
:100B70008DF805606946714802F0A0FF7CBD1FB585
:100B80004FF4E06002F0E2FE36208DF80C00002405
:100B90008DF80D408DF80E4001208DF80F0003A850
:100BA00002F0D9FE0121102003F074F93220ADF8D3
:100BB0000000ADF80840ADF8024040F2E730604C6C
:100BC00001906946204603F049FE0121204604F0C9
:100BD000EEF901221146204604F0C9F90021204611
:100BE00003F07EFE0121204603F0B0FE1FBD1FB5BD
:100BF0004FF4E06002F0AAFE37208DF80C000024CC
:100C00008DF80D408DF80E4001208DF80F0003A8DF
:100C100002F0A1FE0121202003F03CF94FF4FA700C
:100C2000ADF80000ADF80840ADF8024040F2E73002
:100C3000444C01906946204603F010FE01212046F5
:100C400004F0B5F901221146204604F090F9002184
:100C5000204603F045FE0121204603F077FE1FBD2C
:100C600070B58AB00121022003F01EF901210C2089
:100C700003F0F2F82E4E03220621304602F0A7FFC1
:100C800003220721304602F0A2FF0322082130464A
:100C900002F09DFF03220921304602F098FF4FF435
:100CA0007070059002208DF8180003208DF819004F
:100CB00000248DF81A4001258DF81B5005A93046F7
:100CC00002F0FCFEA420ADF81C0028021E4E089085
:100CD000ADF82400ADF81E4007A9304603F0BEFD74
:100CE0006020ADF80000ADF802500294ADF80C4061
:100CF0000121304603F02AFE0021304603F0F0FDCA
:100D00006946304603F02CFE6946304603F054FE37
:100D10006946304603F08CFE6946304616E0000016
:100D200046020020000000200004004000040240B1
:100D300000080240000C0240000002400010024087
:100D400000100040001400400004014003F0AAFE1F
:100D50000121304604F0ECF80AB070BD70B58AB0DD
:100D60000121042003F096F801210D2003F074F80E
:100D7000FF4E02220C21304602F029FF02220D21F3
:100D8000304602F024FF02220E21304602F01FFFFF
:100D900002220F21304602F01AFF4FF470400590F6
:100DA00002208DF8180003208DF8190000248DF81A
:100DB0001A4001258DF81B5005A9304602F07EFE31
:100DC000A420ADF81C002802EA4E0890ADF82400DB
:100DD000ADF81E4007A9304603F040FD7020ADF885
:100DE0000000ADF802500294ADF80C4001213046ED
:100DF00003F0ACFD0021304603F072FD6946304639
:100E000003F0AEFD6946304603F0D6FD6946304634
:100E100003F00EFE6946304603F044FE9CE730B511
:100E2000012187B0080403F03FF80121084603F0D0
:100E300013F800244FF6FF70CF4DADF8004001903D
:100E4000ADF80840ADF802406946284603F006FDBB
:100E50000420ADF80C00C820ADF814000120ADF856
:100E60001000ADF80E4003A9284603F0B1FFC34CB3
:100E700000231A460321204604F013F901212046DD
:100E800004F095F801221146204604F070F8012183
:100E9000284603F05BFD0021204603F021FD07B04A
:100EA00030BD2DE9F04701218AB0084602F0F2FF7B
:100EB0000121022002F0EEFF0121032002F0CCFF0D
:100EC000DFF8BC9201220F21484602F080FEDFF8D5
:100ED000B48201220321404602F079FE022204215D
:100EE000404602F074FE02220521404602F06FFEE9
:100EF00002268DF80460032738208DF80570002441
:100F000000908DF8064001258DF80750694640464F
:100F100002F0D4FD8DF80460E8038DF805700090B0
:100F20008DF806408DF807506946484602F0C6FD28
:100F30004FF6FF70ADF80C4004904FF08049ADF8CB
:100F40001440ADF80E4003A9484603F087FCDFF8D3
:100F500038A203A9504603F081FC4FF00408142086
:100F6000ADF81880ADF82000ADF81A60ADF81C504F
:100F700006A9484603F02CFF06A9504603F028FFB7
:100F800002231A460321484604F08BF802231A462E
:100F90000321504604F085F80121484604F007F883
:100FA0000121504604F003F801221146484603F09F
:100FB000DEFF01221146504603F0D9FF01214846C9
:100FC00003F0C4FC0121504603F0C0FC0021484658
:100FD00003F086FC0021504603F082FC780202F008
:100FE000B5FC1D208DF808008DF809708DF80A40B9
:100FF0008DF80B5002A802F0AEFC1C208DF8080002
:101000008DF809808DF80A408DF80B5002A802F087
:10101000A2FC0AB0BDE8F08770B501218AB008468D
:1010200002F042FF0121102002F016FF4FF4206071
:10103000009002208DF8040003208DF805000024A4
:10104000524E8DF8064001258DF80750694630460E
:1010500002F034FD01220921304602F0B8FD0122E0
:101060000B21304602F0B3FD4FF6FF70424EADF853
:1010700008400390ADF81040ADF80A4002A9304690
:1010800003F0ECFB0420ADF814000A20ADF81C00BE
:10109000ADF81640ADF8185005A9304603F098FE9B
:1010A00000231A460321304603F0FBFF012130469E
:1010B00003F07DFF01221146304603F058FF012165
:1010C000304603F074FF01221146304603F04FFF13
:1010D0000121304603F03AFC0021304603F000FCC9
:1010E0004FF4C06002F032FC19208DF820008DF81A
:1010F00021508DF822408DF8235008A802F02BFCD7
:101100002AE6F0B59BB00121214802F0A5FE01219D
:101110000D02284602F0C8FE1E480024CDE900401A
:101120001D4802A9082681E85100A800CDE9054024
:10113000400007908000CDE908050AA900010125BB
:1011400081E83100154F0D94694638460E9403F03E
:101150007BF90121384603F0B0F93C2019900320B7
:101160008DF868008DF86B4019A90D481AE0000051
:10117000000C024000080040000001400040014017
:101180000000024000040240000400400010024041
:10119000050040004C200140C802002010640240BD
:1011A0000008024002F08AFC4FF44030CDE91540BF
:1011B0004FF47060CDE9174015A802F04AFF2806E9
:1011C0000F908DF840508DF8415011941294139463
:1011D0008DF850600FA9FE4C204602F00FFF04234B
:1011E00001220221204602F07EFF04230222032175
:1011F000204602F078FF042303221946204602F01D
:1012000072FF04231A460521204602F06CFF0423D6
:1012100005220C21204602F066FF042306220D2140
:10122000204602F060FF042307220E21204602F030
:101230005AFF042308220F21204602F054FF012107
:10124000204602F0CDFF0121204602F0BFFF012120
:10125000204602F015FF204602F07FFF1BB0F0BDD4
:1012600008B54FF4E06002F071FB25208DF8000016
:1012700000208DF801008DF8020001208DF8030098
:10128000684602F068FB08BD70B5054696B00121BE
:10129000102002F009FE0121084602F0DDFD0121C7
:1012A000880502F0D9FD4FF4C060139002208DF83C
:1012B000500000248DF852408DF85340C54E8DF8F3
:1012C000510013A9304602F0F9FB072209213046EC
:1012D00002F07DFC07220A21304602F078FC0F95CF
:1012E000ADF844400C20BC4DADF84040ADF8460090
:1012F000ADF84240ADF848400FA9284603F047FF3B
:101300000121284603F0B4FF4FF4A06002F01EFB59
:101310003A208DF854008DF855408DF85640012044
:101320008DF8570015A802F016FBAC4E304603F0BE
:1013300003F84FF000600090A948CDE902040A20AC
:101340000490281D01900015CDE905408010CDE9DD
:10135000084040020A9004200B9007940320CDE936
:101360000C04694630460E9403F06EF801224021C9
:10137000284604F014F801221021304603F012F937
:101380000121304603F099F816B070BDF0B506465D
:10139000012197B0480502F05FFD01214D04284668
:1013A00002F078FD0121082002F056FD6020139024
:1013B00002208DF8500000248DF852408DF85340E3
:1013C000884F8DF8510013A9384602F077FB0722A9
:1013D0000521384602F0FBFB07220621384602F0C1
:1013E000F6FB0F96ADF844400C207F4EADF8404020
:1013F000ADF84600ADF84240ADF848400FA9304680
:1014000003F0C5FE0121304603F032FF4FF4A06027
:1014100002F09CFA11208DF854008DF855408DF89B
:10142000564001208DF8570015A802F094FA6F4F2E
:10143000384602F081FFA8020090402003906C48DB
:1014400002903C200490301D01900015CDE905402C
:101450008010CDE908400420CDE90A50079403200C
:10146000CDE90C04694638460E9402F0EDFF0122E6
:101470008021304603F093FF01228021304603F0A3
:101480008EFF01221021384603F08CF801213846E6
:1014900003F013F817B0F0BD70B50546012196B002
:1014A000880402F0F7FC0121082002F0D5FC01219C
:1014B000480502F0D1FC4FF44070139002208DF8E3
:1014C000500000248DF852408DF85340454E8DF861
:1014D000510013A9304602F0F1FA072208213046E4
:1014E00002F075FB07220921304602F070FB0F95D0
:1014F000404EADF84040ADF844400C25ADF84240B8
:10150000ADF84840ADF846500FA9304603F03FFE15
:101510000121304603F0ACFE4FF4A06002F016FA51
:101520008DF854508DF855408DF8564001208DF8B7
:10153000570015A802F00FFA2C4D783D284602F00E
:10154000FBFE4FF000600090254869461E30CDE953
:10155000020408200490301D01900015CDE90540DB
:101560008010CDE9084040020A9004200B900794B7
:101570000320CDE90C0428460E9402F065FF0122F9
:101580004021304603F00BFF01224021304603F09A
:1015900006FF01221021284603F004F80121284605
:1015A00002F08BFFF0E6F0B50646012197B0C804C3
:1015B00002F070FC0121084602F04EFC01214805B2
:1015C00002F04AFC0325022013958DF8500013E029
:1015D0000020014000000240001001404064024031
:1015E000D8020020000C024000440040A0600240ED
:1015F000F80000200048004000248DF852408DF88B
:101600005340F84F8DF8510013A9384602F056FAAE
:1016100008220021384602F0DAFA08220121384671
:1016200002F0D5FA0F96ADF844400C20EE4EADF81E
:101630004040ADF84600ADF84240ADF848400FA933
:10164000304603F0A4FD0121304603F011FE4FF4B3
:10165000A06002F07BF90D208DF854008DF8554004
:101660008DF8564001208DF8570015A802F073F947
:10167000DE4F384602F060FE78050090DC48CDE988
:10168000020408200490301D01900015CDE90540AA
:101690008010CDE90840400207940A900420CDE96B
:1016A0000C540B90694638460E9402F0CDFE012290
:1016B0004021304603F073FE01224021304603F002
:1016C0006EFE01221021384602F06CFF01213846DF
:1016D00002F0F3FEDEE62DE9F0418046012196B0EE
:1016E000480502F0B9FB0121080502F0D3FB0121F6
:1016F0000C2002F0B1FB02258DF8405000248DF83B
:101700004240BC4F04268DF843400F968DF841505F
:101710000FA9384602F0D2F98DF840508DF84240BA
:101720008DF84340E8028DF84150B34D0F900FA95A
:10173000284602F0C3F908220221384602F047FA8F
:1017400008220C21284602F042FA4FF4A06002F071
:10175000FDF82F208DF8540005208DF855008DF8E8
:10176000560001208DF8570015A802F0F4F8ADF8E6
:101770004C400C20A14DADF84840ADF84E00CDF8DE
:101780004480ADF84A40ADF8504011A9284603F016
:10179000FEFC0121284603F06BFD944F7837384654
:1017A00002F0CAFD70060090402003909048694600
:1017B0005138029031200490281D01900015CDE988
:1017C00005408010CDE908404002CDE90A060794A3
:1017D0000320CDE90C0438460E9402F035FE0122B8
:1017E0008021284603F0DBFD01221021384602F05B
:1017F000D9FE0121384602F060FE16B0BDE8F08146
:1018000030B585B00121082002F026FB01218803B4
:1018100002F04AFB00240C208DF8104001250390B3
:101820008DF8135003A9734802F048F902210320F0
:1018300003F01FFE042000908DF8044010208DF866
:1018400005008DF80650684602F014FF08208DF858
:1018500008008DF809408DF80A408DF80B5002A859
:1018600002F079F805B030BD10B5012810D003287A
:1018700019D0042822D0052809D1604C204603F055
:101880001DFD4021204603F0AAFD0028F9D010BD1F
:101890005B4C204603F012FD4021204603F09FFDE3
:1018A0000028F9D010BD574C204603F007FD402119
:1018B000204603F094FD0028F9D010BD4A4C204684
:1018C00003F0FCFC4021204603F089FD0028F9D0FC
:1018D00010BD4D49002048624C49C8604FF080421D
:1018E000506208614A4A10604861704770B5474DC0
:1018F00000206871044661210120FFF7B5FF322006
:10190000FFF7B6F8641C022CF5D3012068717A2029
:10191000287170BD10B561210120FFF7A5FFBDE85A
:1019200010400A20FFF7A4B870B5384D0020E871C8
:10193000044661210320FFF797FF3220FFF798F854
:10194000641C022CF5D30120E8717A20A87170BDC7
:101950002DE9F14195B0002014908DF800008DF82C
:1019600028004FF40045159A2A4E234C2A4927484F
:10197000AF10122A35D2DFE802F009282E7B8187CA
:101980008C9094989CA0A4AAAAAAABCA0221304623
:1019900002F0FAF860B101222946204602F00CF963
:1019A0002946204602F0FAF8014600221BA08CE0EE
:1019B00000222946204602F0FFF82946204602F080
:1019C000EDF8014600221CA07FE010480122803083
:1019D000816A21A079E0FFF731F80146022220A0B8
:1019E00073E074E000000240004C004040600240A0
:1019F000E7020020000C02400008024000500040B6
:101A0000001001400048004000000140000000209C
:101A1000240400400004024034010020524F424F91
:101A2000542044414E4720434841592053414E20C1
:101A3000444F3A2020200000524F424F542044414E
:101A40004E4720434841592053414E2058414E486B
:101A50003A20202000000000494D553A00000000C7
:101A6000454E434F4445525F544F4E473A000000A5
:101A7000FEF7BCFF01460322F1A026E0FEF78CFF33
:101A800001460422EFA020E0EF48C17C0522EFA030
:101A90001BE009780622F0A017E009790722F1A0DF
:101AA00013E0C1690822F2A00FE0C1780922F3A077
:101AB0000BE0016A0A22F4A007E081780B22F6A06D
:101AC00003E0FA480C224169F9A0FEF799FD94E67B
:101AD000FD4C3946204602F057F80246FBA1684605
:101AE00005F028FB69460AA805F024F810212046D5
:101AF00002F04AF80246F5A1684605F01BFB69466C
:101B00000AA805F017F810220AA9F1A0DAE0294680
:101B1000304602F043F80246ECA1684605F00AFBA5
:101B200069460AA805F006F84FF48041304602F0F5
:101B300035F80246E5A1684605F0FCFA69460AA8B0
:101B400004F0F8FF3946304602F028F80246DFA1DB
:101B5000684605F0EFFA69460AA804F0EBFF4FF477
:101B600080584146304602F019F80246D7A168462F
:101B700005F0E0FA69460AA804F0DCFF4FF40065BE
:101B80002946304602F00AF80246D0A1684605F020
:101B9000D1FA69460AA804F0CDFF6910304601F079
:101BA000FDFF0246C9A1684605F0C4FA69460AA8C5
:101BB00004F0C0FFA9102746204601F0EFFF0246BF
:101BC000C2A1684605F0B6FA69460AA804F0B2FF59
:101BD000EC102146384601F0E1FF0246BBA1684601
:101BE00005F0A8FA69460AA804F0A4FF2146B94CFA
:101BF000204601F0D3FF0246B4A1684605F09AFAE8
:101C000069460AA804F096FF0121204601F0C6FFAC
:101C10000246AEA1684605F08DFA69460AA804F0AE
:101C200089FF0221204601F0B9FF0246A7A16846BC
:101C300005F080FA69460AA804F07CFF01213046CD
:101C400001F0ACFF0246A1A1684605F073FA6946AF
:101C50000AA804F06FFF2946204601F09FFF0246C4
:101C60009AA1684605F066FA69460AA804F062FF80
:101C70004146204601F092FF024694A1684605F0D5
:101C800059FA69460AA804F055FF8021304601F050
:101C900085FF02468DA1684605F04CFA69460AA800
:101CA00004F048FF4021304601F078FF024687A14A
:101CB000684605F03FFA69460AA804F03BFF112286
:101CC0000AA985A0FEF7FBFC97E50121834802F0F5
:101CD000F4BB11B45C487838C16E009A914201DDC2
:101CE000002101E0C16E491CC166C06E18BC2FE620
:101CF0002DE9F04700257A4E074601244FF400599C
:101D00004FF480484FF4805A00224146304601F09B
:101D100053FF1020FEF7A0FE274201D0012200E071
:101D200000224946304601F047FF01224146304635
:101D300001F042FF1020FEF78FFE5146304601F0C1
:101D400023FF00B12543600010F0FF04DCD12846DA
:101D5000BDE8F08770B5624E4FF400450022294679
:101D6000304601F029FF1020FEF776FE0120FFF734
:101D7000BFFF4220FFF7BCFFFF20FFF7B9FFFF20A6
:101D8000FFF7B6FF304C3C342070FF20FFF7B0FF68
:101D90006070FF20FFF7ACFFA070FF20FFF7A8FFE7
:101DA000E070FF20FFF7A4FF2071FF20FFF7A0FFE6
:101DB000607129463046BDE87040012201F0FCBE4A
:101DC00070B5474E4FF4004500222946304601F0D9
:101DD000F3FE1020FEF740FE0120FFF789FF4220AE
:101DE000FFF786FF044601222946304601F0E4FE53
:101DF0001020FEF731FE204670BD134A0021F83A4C
:101E00005163C27910493C310D2A09D0FF20087076
:101E100048708870C87008714871887100207047D8
:101E200002780A7042784A7082788A70C278CA70E2
:101E300002790A7142794A7180798871012070476C
:101E400046523A00464C3A00F80000204D6F725F4F
:101E500053696C6F0000000047414D4520504144DC
:101E60003A0000004C4A4F595F4C523A00000000C3
:101E700073696C6F5F736F3A00000000656E636F8B
:101E80006465723A0000000073696C6F5F7675617B
:101E90005F636861793A20006269656E5F6E6861B0
:101EA0006E5F626F6E673A2000000000E401002060
:101EB000626F6E675F74726F6E675F73696C6F5B82
:101EC000355D3A200000000000100240256400004B
:101ED000493A0000000002404F3A0000A060024072
:101EE000000C0240FC48A0F59A710278FF2A05D147
:101EF0004278FF2A02D18278FF2A09D04A6B531C0C
:101F00004B63C82A03DDFF21017041708170704767
:101F1000002048637047F04880797047EE480078A9
:101F2000400601D40120704700207047EA4800783D
:101F3000C00601D4012070470020704701B59DF80C
:101F40000000052801D2002008BD9DF8000008BD52
:101F5000F0B5E24E00271D4606F1F8044FF0010CE3
:101F6000002806D009DDC0B2FFF7E8FFE070A770D7
:101F70000AE096F86000E07006E04042C0B2FFF769
:101F8000DDFFE07084F802C0002907D00ADDC8B286
:101F9000FFF7D4FFE07184F806C009E096F860000E
:101FA000E07105E04842C0B2FFF7C8FFE071A771D9
:101FB000002A06D009DDD0B2FFF7C0FFE072A77299
:101FC0000AE096F86000E07206E05042C0B2FFF707
:101FD000B5FFE07284F80AC0002D07D00ADDE8B230
:101FE000FFF7ACFFE07384F80EC0F0BD96F8600018
:101FF000E073F0BD6842C0B2FFF7A0FFE073A773C3
:10200000F0BDB5493C39C870C871C872C873704713
:10201000B2490120803148647047B0488030806800
:10202000A0F5EA41303901D0012070470020704707
:102030005CE4AA48B0F9080040427047A748B5EEF2
:10204000C00AD0ED0F0AF1EE10FA02D230EE600AAB
:1020500001E030EE200ABDEEC00A10EE100A704713
:1020600010B5041E2DED068B9C489FED9DAB9FED9A
:102070009E9B406F10D014DA04F003FF41EC180B64
:10208000204604F0FEFE53EC1A2B04F019FE53EC2C
:10209000192B04F00FFE13E09FED950ABDEC068BA3
:1020A00010BD04F0EEFE41EC180B204604F0E9FEF2
:1020B00053EC1A2B04F004FE53EC192B04F059FDD9
:1020C00053EC182B04F06EFE04F0FFFE00EE100A35
:1020D000E4E7B5EEC00AF1EE10FA01DAB1EE400A1B
:1020E0007047002800DA404270477C4991ED160A9B
:1020F000D1ED171AF1EE400A80EEA11A00EE900A17
:10210000F8EEE00A01EE200ABDEEC00A10EE100A59
:102110007047B0EE402A9FED770AB5EEC02AF1EE87
:1021200010FA01D2B1EE422AF5EEC00AF1EE10FA31
:1021300001D2F1EE600AB5EEC01AF1EE10FA01D24A
:10214000B1EE411AF5EEC01AF1EE10FA01D2F1EE3D
:10215000611AB4EEC02AF1EE10FA01DDB0EE420AC7
:10216000F4EEC00AF1EE10FA01DDB0EE600AB4EE52
:10217000C01AF1EE10FA01DDB0EE410AF4EEC01A19
:10218000F1EE10FA01DDB0EE610A70475348406F7E
:10219000704752488030006A704770B54F4C4F4DC1
:1021A00080342DED048BB0EE408AA068A0F5EA41A2
:1021B00030393ED06269A16A95ED121A891A401A27
:1021C00000EE100AB8EEC00AC0EE010A95ED130A3F
:1021D00030EE800AD5ED1A0A60EE208AB0EE680A69
:1021E00005F078F8B0EE009A20EE090A84ED100AA6
:1021F000B0EE680A04F0C6FF60EE090AC4ED0F0AEB
:1022000094ED101A94ED070A31EE001A30EEC00A70
:1022100084ED0D1A84ED0E0AB5EEC08AF1EE10FAC7
:102220007ED0286F05287BD2DFE800F00E1F3241F8
:1022300066009FED2F0A84ED100A84ED0F0A84EDED
:102240000E0A84ED0D0AE7E794ED0D0A30EE080A58
:1022500084ED0D0A94ED0E0A30EE480A84ED0E0A64
:1022600094ED0F0A30EE080A1EE094ED0E0A30EEEF
:10227000480A84ED0E0A94ED0F0A30EE080A84ED48
:102280000F0A94ED100AD5ED100A08EE600A20E05E
:1022900094ED0D0A30EE080A84ED0D0A94ED0F0A54
:1022A000D5ED100A08EE200A84ED0F0A0DE094ED3A
:1022B0000D0A30EE080A84ED0D0A94ED0E0AD5EDF4
:1022C000100A08EE600A84ED0E0A94ED100A30EE52
:1022D000480A84ED100A23E03401002000000020A9
:1022E000333333333333D33F9A9999999999B93F1B
:1022F000000000006F12833A94ED0D0AD5ED100A2C
:1023000008EE200A84ED0D0A94ED0E0A30EE480A1C
:1023100084ED0E0A94ED0F0A30EE080A84ED0F0AE0
:10232000343494EC040AFFF7F4FED5ED0E0AF8EE0F
:10233000E00A80EE801ABDEEC10A10EE100AE867CE
:10234000696F814200DD68670120E866BDEC048B9F
:1023500070BDFE4B002203F180019A6708600028DF
:102360000FD15A671FED1E0A47F2305081ED070A60
:102370008860C86081ED060A1A670A610A624A64C9
:102380000BE77047F148F149803090ED060AB5EE51
:10239000C00AF1EE10FA04D10A6F12B90269002ADC
:1023A00009D000221FED2E0A80ED060A0A6702619D
:1023B000816A4161F1E67047E448C0ED160A80ED9C
:1023C000170A7047E14A30B48032E04B9468844287
:1023D00009D19C6F8C4206D1D2ED070AF4EE400A77
:1023E000F1EE10FA0FD09967596F09B905215967B5
:1023F000916A516182ED070A90600020506092ED71
:10240000060A30BCC9E630BC7047F0B4CF4BCF4CA5
:1024100080331D69854209D1D3ED060AF4EE400AE6
:10242000F1EE10FA02D1256F8D4225D09E6847F259
:102430003055AE4218D1A26705226267A84213DA6E
:10244000B5EEC00A0122F1EE10FA1A6202DD9A6AB4
:10245000824207DCB5EEC00AF1EE10FA04D29A6AA5
:10246000824201DAB1EE400A1861216783ED060A63
:1024700000205860F0BC90E6F0BC70470A46014668
:1024800047F23050C1E71FED660A9BE770B5AF4CCD
:1024900005462DED028B8034F0EE608AD4ED030A00
:1024A000B0EE418AF8EEE00AF4EE400AF1EE10FADE
:1024B0000CD1A648806FA84208D1D4ED040AF8EEEA
:1024C000E00AF4EE680AF1EE10FA4BD0FDEEC00A15
:1024D000C4ED030AD4ED0A0AF8EEE00A30EE600A11
:1024E000BDEEC00A10EE100A1FED7F0A2946FFF765
:1024F00069FF94ED0A0AF8EEC00A78EEE00AFDEEF4
:10250000E00A10EE903A002B00DA5B42B8EEC00A07
:10251000642B1ADDF4EEC08AF1EE10FA01DCB1EEA4
:10252000488A18EE100A04F0BDFC00BF04F0CDFC90
:10253000FDEEE80ABDEC028B2A46BDE8704000EED5
:10254000100A002110EE900A5FE738EEC00A10EE84
:10255000100A04F0A7FC9FED7E1B53EC112B04F036
:10256000AFFBE3E7BDEC028B70BD784910B580315D
:10257000086A012827DD8A6A0869801AFFF7B1FD19
:10258000062809DA086A421C0A62B0F5FA7F1ADDE9
:10259000BDE810400020DCE66C4A05200B6A90671D
:1025A000FA2B506701DDFB2008620A69886A9042B5
:1025B00002DDBFEE000A01E0B7EE000A81ED060A77
:1025C000BDE81040E9E510BD70B56049803191ED7E
:1025D000070AB5EEC00AF1EE10FA72D15B4A536FEA
:1025E000002B6ED0086947F23054A04269DA91EDB1
:1025F000060AB5EEC00AF1EE10FA7CD08D68A5424D
:1026000060D1B5EEC00A1346F1EE10FA5B6D03DD42
:102610008D6AC41AAC4208DBB5EEC00AF1EE10FABE
:1026200017D28C6A0344A34213DD0B6A032B48DAEA
:102630008B6AC01AFFF755FD0A2808690ADA486252
:10264000002050671FEDD60A906781ED060A022030
:10265000086278E092ED1D0AD1ED060A8B6AB8EEA9
:10266000C00A984260EE200A92ED150AB8EEC01A30
:1026700080EE810A0FDDFFF72CFD0869896A401A98
:10268000FFF72FFD00EE900AB8EEE01AD2ED110A26
:1026900040EE010A0EE0FFF71CFD0869896A401A46
:1026A000FFF71FFD00EE900AB8EEE01AD2ED110A16
:1026B00050EE410A92ED1D0AB8EEC01A80EE810A72
:1026C00041E04BE0214AB5EEC00AD2ED140AF1EE2A
:1026D00010FA18DD01EE100AF8EEC11A01EE103AF8
:1026E000B8EEC11A41EE401AB8EEE01A71EEC11A06
:1026F00091ED0A1A00E02FE0B8EEC11AF4EEC11A0B
:10270000F1EE10FA1BD3B5EEC00AF1EE10FA1AD2B0
:1027100001EE100AF8EEE00AF8EEC11A01EE103AE6
:10272000B8EEC11A41EE401A31EEA01AD1ED0A0AF4
:10273000F8EEE00AB4EEE01AF1EE10FA03DD896A71
:10274000401AFFF78DFCBDE8704026E50000002030
:102750007B14AE47E17A743F4869F0E770BDFE49EB
:10276000A1F180000A6A022A0CDA9FEDFC0A00231C
:1027700081ED070A81ED060A47F2305203678A604D
:10278000C1E903234B685B1C4B60426EF248803802
:102790009342006E01DB4A60496C32E4EE4A5368B2
:1027A0005B1C5360834206DDA2F18000436F194435
:1027B000416700205060704770B5FFF73AFCE64C67
:1027C000A062FFF7D2FEA4F180054FF0FF31AA6F9F
:1027D000686F002A0BDD90420ED006DAE96F88425E
:1027E0000ADAFFF782FC022104E0206B02E00028F5
:1027F0003CDD2068FFF7D2FFD4E90A01814203D013
:10280000FFF7E2FEA06AE062E86E002831D095EDA5
:102810001D0AD4ED100AB8EEC00A20EE200AFFF718
:102820000DFC95ED1D0AD4ED0F0A0346B8EEC00A63
:1028300020EE200AFFF702FC95ED1D0AD4ED0E0AEA
:102840000246B8EEC00A20EE200AFFF7F7FB95ED2E
:102850001D0AD4ED0D0A0146B8EEC00A20EE200A8A
:10286000FFF7ECFBBDE87040FFF772BBBDE87040BE
:1028700075E770BD2DE9F05FB749B4318878401F26
:10288000F52801D8012500E000250879401FF5282A
:1028900001D8012700E00027AF4A087802F1B4020E
:1028A000C30652780DD543060BD5830609D503061A
:1028B00007D535B12FB1930603D5BDE8F05F0220EF
:1028C00047E5530702D43226142403E0D20717D079
:1028D0001E260A248B46DFF88082C10647F2305953
:1028E000A8F1800A4FEA40610DD400294DDA810633
:1028F0004FEA006024D50028314627DA00202EE078
:102900000A260724E6E700294FEA806109DB00294F
:102910004FEA00601CDA002831461FDA4FF4E1600C
:102920001DE000294FEA006005DB00282DDA314662
:102930004FF4617013E000281DDB314688480EE03B
:10294000002822DA31464FF4E17008E0854806E0BD
:1029500000281ADA314640F2465000E08248FFF77C
:1029600092FD9BF80000C1060FD541060DD58106EA
:102970000BD5000609D54DB95FB1D8F80810494507
:1029800007D00520FFF7E5FC03E015B1FFF7FAFCDF
:1029900031E09BF8021001225846052912D24378F3
:1029A000DB070FD0D8F80810494504D03146002085
:1029B000BFEE080A14E08AF800202346624210465F
:1029C000194616E0FA291CD99BF80100C00718D057
:1029D000D8F80810494506D031460020B7EE080A5D
:1029E000FFF74CFD07E08AF80020634222461946B3
:1029F0001046FFF7ADFA00218AF80010BDE8F05F3D
:102A0000C0E402231A4619461846F2E730B5524888
:102A1000564D1424C36D591CC16501460A6E002130
:102A2000142B03D2AB891A44026604E0B2FBF4F221
:102A3000C16502670166436E5A1C4266464A142B02
:102A4000926E02D2E989114403E0B2FBF4F24267CC
:102A50004166816630BD70B53F4C454EB4344FF48D
:102A600080756078C00604D401222946304601F002
:102A7000A3F86078400616D400222946304601F0BB
:102A80009BF801223B4D94032146284601F094F81F
:102A90004FF4FA70FDF7ECFF21462846BDE8704080
:102AA000002201F089B870BD7047704770477047C9
:102AB00010B5FEF72FFFBDE81040FEF70ABF26490C
:102AC0000128A1F180020AD002280BD003280DD0E2
:102AD00004280ED0052808D191F8480004E091F8A8
:102AE000580001E091F85400D070704791F8500000
:102AF000FAE791F84C00F7E7704710B5FEF7E9FEEA
:102B000002211C4801F040F801280CD1FAEE040A19
:102B10009FED121A1E209FED180AFFF7B7FCBDE8C3
:102B20001040FEF7D6BE10BD2DE9F0410A4C2DED48
:102B3000048B803CE069FFF7C2FF074D0020A070C6
:102B4000A96A47F2305000294FF023024FF00001EC
:102B50001FDAB6EE000A11E080000020000000003D
:102B60007CFCFFFF3EFEFFFFBAFAFFFFC802002019
:102B7000000002400004024000001644FFF745FC3C
:102B800003E000BFFFF7D2F970B9A86A0028F9DDA9
:102B90000AE0BEEE000AFFF738FC02E0FFF7C6F9D4
:102BA00010B9A86A0028F9DA64205FED148AF0EE03
:102BB000680AB0EE601A9FEDFE0AFFF767FC00BFDF
:102BC000FDF73CFF6428FBDB0221FA4800F0DCFF44
:102BD0004FF4FA779FEDF89A9FEDF88AF84DF94E89
:102BE0000128B6EE001AF9EE080A4FF014004FD093
:102BF000DFEDF59AB0EE690AFFF748FC0220FFF717
:102C0000A8FB3846FDF734FFB6EE001AF9EE080AC5
:102C10000520B0EE690AFFF739FC0220FFF799FBA7
:102C2000FFF746FFB6EE001AF9EE080A0F209FEDF7
:102C3000E70AFFF72BFC3220FDF71AFFB6EE001A69
:102C4000F9EE080A0520B0EE490AFFF71FFC022042
:102C5000FFF77FFBFFF72CFFB0EE681AF9EE080ACA
:102C60001920B0EE480AFFF711FC00BFFDF7E6FEA1
:102C7000E1788842FADB0220FFF76BFBB0EE681ABE
:102C8000F9EE080A0520B0EE480AFFF7FFFB5EE008
:102C9000DFEDCF8AB0EE680AFFF7F8FB0220FFF7FE
:102CA00058FB3846FDF7E4FEB6EE001AF9EE080AC6
:102CB0000520B0EE680AFFF7E9FB0220FFF749FBA9
:102CC000FFF7F6FEB6EE001AF9EE080A0F209FEDA8
:102CD000C10AFFF7DBFB3220FDF7CAFEB6EE001A91
:102CE000F9EE080A0520B0EE490AFFF7CFFB0220F3
:102CF000FFF72FFBFFF7DCFEDFEDB78AF9EE080ADE
:102D00001920B0EE681A9FEDB50AFFF7BFFB00BFB0
:102D1000FDF794FEE1788842FADB0220FFF719FB09
:102D2000B0EE681AF9EE080A0520B0EE480AFFF77F
:102D3000ADFB02E0287800070FD52021304600F0D7
:102D400023FF0128F6D008E02878000705D52021C8
:102D5000304600F019FF0128F6D0BDEC048B0220AC
:102D6000BDE8F041FFF7F5BA2DE9F04102212DED64
:102D7000028B904800F008FF0026994D01271FEDB7
:102D8000898A984C0128E0690AD0FFF798FE2868E4
:102D9000DFF83082012876D0E069012872D093E014
:102DA000FFF78DFE286801281FD101210020FDF7C3
:102DB000E6FDC0B26070E169012907D0052907D09E
:102DC00005EB81014A68032A04D004E0677016E02D
:102DD00066701DE020B151F8041C032902D004E004
:102DE000677002E0012800D16670E069002801DD0B
:102DF000617869B1062829DA6078012826D1E0696E
:102E000055F82000012825D0032823D0E06934E0BC
:102E1000E06955F82000012803D0032801D0E069BB
:102E200011E0F0EE480A1420B0EE601A9FED660A39
:102E3000FFF72CFBFDF702FEE17814318842F9DB45
:102E4000E069401EE061012800D16770BDEC028B93
:102E5000BDE8F081F0EE480A1420B0EE601A9FED54
:102E60005C0AFFF713FB00BFFDF7E8FDE1781439BA
:102E70008842F9DBE069401EE0610528E6D1667012
:102E8000E4E700E011E001210020FDF778FDC1B288
:102E90006170E069012807D0052808D005EB8000A3
:102EA0004268032A05D006E06670667017E0677016
:102EB0001EE0012904D050F8040C032802D003E0DE
:102EC000667001E001B96770E069002804DD61788F
:102ED00001290DD00628B9DA60780028B6D1E0695A
:102EE00055F8200001283CD003283AD0E06980E062
:102EF00055F82010032903D1401EE061FFF7DFFDE4
:102F0000E06955F82000012803D0032801D0E069CA
:102F100024E0BEEE001AFAEE040A14209FED320AF5
:102F2000FFF7B4FAFDF78AFDE17814318842F9DB46
:102F3000BEEE001AFAEE040A05209FED2C0AFFF7F8
:102F4000A5FA45462021284600F01EFE0128F9D0AA
:102F50000220FFF7FEF9E069401EE06101288ED0F3
:102F600074E7DFED1E8AB0EE481AF1EE080A14206D
:102F7000B0EE680AFFF78AFAFDF760FDE1781439D0
:102F80008842F9DBB0EE481AF1EE080A0520B0EEEF
:102F9000680AFFF77BFA45462021284600F0F4FD39
:102FA0000128F9D00220FFF7D4F9E069401C1FE0A6
:102FB00000C0A844000402400000E14400007A443C
:102FC0003401002000100240000061C400C0DAC4D7
:102FD0000000614400C0DA449A99993E00007AC426
:102FE000E4010020000000200000704400808944BB
:102FF000E06105283FF429AF28E72DE9F047FE4DB1
:103000000126FE4C686901281DD1686801281AD183
:10301000A868012817D1E868012814D12869012877
:1030200011D12E6005F11801A661A06951F8202088
:103030002AB155F82020032A01D0E06103E0401CAA
:10304000A0610528F1DDEE4F0421384600F09CFD1B
:10305000012809D00421384600F096FD4FF0000900
:103060004FF0030810B10CE0A67023E008213846A9
:1030700000F08AFD28B94FF40041384600F084FD85
:1030800028B10421384600F07FFD18B107E084F82C
:10309000029015E00821384600F076FD78B1042151
:1030A000384600F071FD002807D1286801280BD0B0
:1030B00084F80290E06945F82060BDE8F087A670CA
:1030C000E16945F82180F8E7E069022145F8201020
:1030D000A062A670F1E790E770B5FFF78EFF4FF49E
:1030E0007A74C64D07E000BFFFF73EFE2046FDF7AD
:1030F000BFFCFFF782FFA8780028F5D070BD10B59F
:10310000FEF7E7FBBD4C0120E061FFF70DFDFFF787
:10311000E3FFE069206210BD10B5FEF7DAFBB74CA3
:103120000220E061FFF700FDFFF7D6FFE0692062B3
:1031300010BD10B5FEF7CDFBB04C0320E061FFF7EA
:10314000F3FCFFF7C9FFE069206210BD10B5FEF780
:10315000C0FBAA4C0420E061FFF7E6FCFFF7BCFFD0
:10316000E069206210BD10B5FEF7B3FBA34C05204B
:10317000E061FFF7D9FCFFF7AFFFE069206210BD07
:103180009E4910B50020C862FE220863F831CA7457
:103190008874012251029B4800F00EFD012240215B
:1031A000994800F009FDBDE810406420FDF760BCBF
:1031B00070B502212DED028B934800F0E5FC9FEDE8
:1031C000938A5FED838A8D4D47F230548035012814
:1031D0000BD0FFF76DFCF0EE480A6420B0EE601AE9
:1031E000B0EE680AFFF752F9B5E0FFF761FCF0EEC8
:1031F000480A6420B0EE601AB0EE680AFFF746F99C
:1032000003E000BFFEF792FE18B9FDF717FC502847
:10321000F8DB0220FFF79DF8F0EE480A0A20B0EE36
:10322000601AB0EE680AFFF731F902E0FEF77EFEA1
:1032300018B9FDF703FC6428F8DB0220FFF789F8D2
:10324000F0EE480A3720B0EE601A9FED710AFFF7E2
:103250001DF902E0FEF76AFE18B9FDF7EFFBB92889
:10326000F8DB0220FFF775F86420FDF701FCF0EEB3
:10327000480A3720B0EE601A1FEDAD0AFFF706F9D5
:1032800003E000BFFEF752FE18B9FDF7D7FBF228A6
:10329000F8DB0220FFF75DF86420FDF7E9FBFEF79D
:1032A00018FBF0EE480A5020B0EE601AB0EE680A43
:1032B000FFF7ECF803E000BFFEF738FE18B9FDF7A2
:1032C000BDFB3228F8DB0220FFF743F86420FDF74E
:1032D000CFFB96220021B6EE000A2046FFF795F8B4
:1032E0004FF4617603E000BFFEF720FE10B9A86A34
:1032F000B042F9DB0220FFF72CF814220021BEEEC9
:10330000000A2046FFF781F803E000BFFEF70EFE3B
:1033100010B9A86AB042F9DC0220FFF71AF8FFF7EB
:10332000C7FBB0EE480AF0EE680AB0EE401A28205B
:10333000FFF7ACF814220021B6EE000A2046FFF792
:1033400064F8A86A4FF4E1718842FDDBB5E000BF84
:10335000FEF7ECFD18B9FDF771FB5028F8DB0220F1
:10336000FEF7F7FFF0EE480A0A20B0EE601AB0EE62
:10337000680AFFF78BF802E0FEF7D8FD18B9FDF7F1
:103380005DFB6428F8DB0220FEF7E3FFF0EE480A5D
:103390003720B0EE601A9FED1F0AFFF777F802E0C2
:1033A000FEF7C4FD18B9FDF749FBB928F8DB022088
:1033B000FEF7CFFF6420FDF75BFB0220FEF7C9FF9D
:1033C000F0EE480A3720B0EE601A9FED130AFFF7BF
:1033D0005DF802E0FEF7AAFD18B9FDF72FFBF22811
:1033E000F8DB0220FEF7B5FF6420FDF741FBFEF796
:1033F00070FAF0EE480A11E0E4010020000000201D
:1034000000100240000802400004024000000000DA
:1034100000409CC400409C4400006144B0EE601A2F
:103420005020B0EE680AFFF731F802E0FEF77EFDAB
:1034300018B9FDF703FB3228F8DB0220FEF789FFFD
:103440006420FDF715FB96220021BEEE000A2046FF
:10345000FEF7DBFFBE4E02E0FEF768FD10B9A86A7A
:10346000B042F9DC0220FEF774FF14220021B6EE10
:10347000000A2046FEF7C9FF03E000BFFEF756FD35
:1034800010B9A86AB042F9DB0220FEF762FFFFF72D
:103490000FFBB0EE480AF0EE680AB0EE401A2820A2
:1034A000FEF7F4FF14220021BEEE000A2046FEF7CC
:1034B000ACFFA849A86A8842FDDC0220FEF749FF5C
:1034C000BDEC028B6420BDE87040FDF7D1BA10B5A9
:1034D000A14CA06A012801D1FFF711FEA06A0228C1
:1034E00001D1FFF719FEA06A032801D1FFF721FEE1
:1034F000A06A042801D1FFF729FEA06A052802D19D
:10350000BDE810402FE610BD9348006A052808D09A
:10351000042807D0032806D0022805D0012804D1AA
:1035200021E613E605E6F7E5E9E57047FFF728FE33
:10353000894CE069012808D0022809D003280AD064
:1035400004280BD005280CD00DE0FFF7D8FD0AE0C9
:10355000FFF7E2FD07E0FFF7ECFD04E0FFF7F6FD03
:1035600001E0FFF700FEFFF748FD06E0FFF745FD2D
:10357000A078012804D0FFF7F7FBA0780028F5D049
:103580000025A570FFF7B9FAFFF7FAFDA06A18B198
:10359000FFF79DFFA5620AE0FFF7B6FF07E000BF57
:1035A000FFF72BFDA078012806D0FFF7DDFBA07800
:1035B0000028F5D0A570E7E7FFF79FFAF7E766491F
:1035C0000120C8610221654800F0DEBA624902208C
:1035D000C861704760490320C86170475E49042094
:1035E000C86170475C490520C8617047FFF7E0FD7E
:1035F000FFF7B9FD584C5A4DE06955F82010491CA9
:1036000045F82010FFF7BCFDFFF7ADFD5FF00006A9
:10361000FFF7B6FDA06A28B1FFF759FFFFF76DFA73
:10362000A6620AE0FFF770FF07E000BFFFF7E5FCC6
:10363000A078012806D0FFF797FBA0780028F5D0E6
:10364000A670E5E7E06955F82010491C45F8201000
:10365000FFF753FAF1E71120FEF73BFB0F2002F0D2
:10366000E6FEF8E70A2002F0E2FEFBE73A4C00BF74
:10367000FFF7CCF9207808B9FFF79EF8052002F093
:10368000D6FEF5E71FB5FDF7FFF9FDF730FAFDF7B8
:1036900065FBFDF706FCFDF7BFFCFDF732FDFDF70E
:1036A000A6FA4FF4E1342046FDF7EEFD2046FDF783
:1036B0006DFE2046FDF7F0FEE000FEF70CF8FEF789
:1036C00015F9FEF706F900244FF480750094019473
:1036D000029423462A4623A12748039402F0D0FCF3
:1036E00000940194029400232A4624A128480394BC
:1036F00002F0C6FC274C0B25174E07E0FFF7BAF87F
:103700002078000702D47562FFF73AFDA07973288C
:10371000FCD1F3E77FB500244FF480750094019449
:10372000029423462A461CA11E48039402F0A8FCDA
:1037300000940194029400232A461BA11D4803947F
:1037400002F09EFC02F0C2FF04B0002070BD000039
:103750007CFCFFFF3EFEFFFF000000200004024053
:10376000FC0100207461736B526F626F74416E6173
:103770006C797469637300006D3600087461736B53
:10378000446965754B6869656E436F4361750000F8
:1037900065360008340100207461736B4D61696EF9
:1037A00000000000853600087461736B4779726F02
:1037B00000000000573600080CB500205149019068
:1037C00000900A6842F480320A604FF4A0630A68ED
:1037D00002F400320092019A521C0192009A12B92E
:1037E000019A9A42F3D10A68920334D501200090DD
:1037F00044484030026842F0805202604248026809
:1038000042F4804202603F48083002680260026869
:1038100042F400420260026842F4A0520260031FB8
:103820003A4A1A600A6842F080720A600A68920195
:10383000FCD5374A40F205611160016821F00301AF
:103840000160016841F0020101600168C1F381017A
:103850000229FAD10CBD00900CBD2A4810B50168B0
:1038600041F001010160274A00210832116002681D
:10387000284B1A400260031D274A1A60026822F48E
:10388000802202601F480C300160FFF795FF23493A
:103890004FF00060086010BD70B51A4C0834206805
:1038A0001F4A10F00C011F4804D05510042903D002
:1038B000082903D002601BE0056019E01149091DC9
:1038C0000B68C3F380560B6803F03F0316B1B5FBDA
:1038D000F3F201E0B2FBF3F20B680968C3F388135B
:1038E0005A43C1F30141491C4900B2FBF1F10160A7
:1038F00021680C4AC1F30311121D515C0268CA40D1
:10390000026070BD0038024000700040085440075B
:10391000003C0240FFFFF6FE1030002408ED00E0FE
:103920000024F40050010020064880470648004764
:10393000FEE7FEE7FEE7FEE7FEE7FEE7FEE7FEE75F
:10394000FEE7FEE75B3800088901000828490843C4
:1039500028490860704730B50F22C47801780123E8
:10396000FCB1244C246801F1E02104F4E064C4F5C6
:10397000E064C4F30724C4F10405E2404478AC4099
:103980008578154025432A0181F80024007800F04D
:103990001F018B404009800000F1E020C0F8003199
:1039A00030BD01F01F0083404809800000F1E02095
:1039B000C0F8803130BD104A114001430D48001F4E
:1039C000016070470B4A121D0029116801D00143A4
:1039D00000E08143116070474FF0E021042808693E
:1039E00003D020F004000861704740F00400FAE7BB
:1039F0000000FA050CED00E080FFFF1F7C4910B5C8
:103A0000884206D10121084600F058FA0021012021
:103A10004FE07849884206D10121022000F04EFA99
:103A20000021022045E07449884206D1012104208A
:103A300000F044FA002104203BE07049884206D19E
:103A40000121082000F03AFA0021082031E06C49F9
:103A5000884206D10121102000F030FA0021102008
:103A600027E06849884206D10121202000F026FA8B
:103A7000002120201DE06449884206D10121402018
:103A800000F01CFA0021402013E06049884206D172
:103A90000121802000F012FA0021802009E05C4919
:103AA00088420AD184150121204600F007FA00213E
:103AB0002046BDE8104000F001BA10BDF0B500236B
:103AC000012403270D6804FA03F21540954242D100
:103AD000D0F800C05E0007FA06F52CEA050CC0F825
:103AE00000C091F804C0D0F800E00CFA06FC4CEAE3
:103AF0000E0CC0F800C091F804C0BCF1010F02D058
:103B0000BCF1020F1FD1D0F808C02CEA050CC0F898
:103B100008C091F805C0D0F808E00CFA06FC4CEAA1
:103B20000E0CC0F808C0D0F804C02CEA020CC0F893
:103B300004C0426891F806C00CFA03FC1FFA8CFC22
:103B400042EA0C024260C268AA43C260CA79C568F0
:103B5000B2402A43C2605B1C102BB3D3F0BD4FF6BA
:103B6000FF7101600021017141718171C171704764
:103B700008B541F480320092C261C1610099C1610F
:103B8000C169C069009008BD0246002012690A425E
:103B900000D001207047006980B2704702460020C3
:103BA00052690A4200D001207047406980B27047D4
:103BB00001837047418370470AB101837047418395
:103BC00070474161704742694A40426170474B0704
:103BD000DB0E9A40C90810B500EB8100016A0F2482
:103BE0009C40A1430162016A1143016210BD0000C3
:103BF000000002400004024000080240000C0240A5
:103C0000001002400014024000180240001C024054
:103C100000200240EA48016841F001010160E84AE1
:103C20000021083211600268E64B1A400260031D51
:103C3000E54A1A60026822F480220260E0480C30F3
:103C400001607047DE490022891C0A7008707047C5
:103C500002460020510901290CD002290CD0D84974
:103C60007431096802F01F02012393400B4200D017
:103C700001207047D249F4E7D1497031F1E718B516
:103C800000204FF4A06400903120FFF7E1FF00997D
:103C9000491C0091A14201D00028F5D03120FFF746
:103CA000D7FF002800D0012018BDC5490A6822F0BE
:103CB000F80242EAC00008607047C44908607047D3
:103CC000BF49002270310A700A70012802D004280E
:103CD00001D1052008707047BD490860704741EA6E
:103CE00082115A0810B5BB4B029C03EB02421143F0
:103CF000014341EA0460B249091D086010BDB3499F
:103D000008667047800140EA0170AD49843108605F
:103D10007047AE4988667047AC49C8647047A84A86
:103D200008321368084323F0EC63184310607047AF
:103D3000A34A08321368084323F0784318431060FD
:103D400070479F4A0832116821F003010143116056
:103D500070479B480830006800F00C007047984A94
:103D60000832116821F0F001014311607047944A54
:103D70000832116821F4E051014311607047904905
:103D800008310A6822F4604242EAC00008607047C5
:103D900070B58B4A083211688F4C11F00C0104D0B9
:103DA0006610042903D0082903D004601BE00660D4
:103DB00019E08349091D0B68C3F380550B6803F0B4
:103DC0003F0315B1B6FBF3F301E0B4FBF3F30C686A
:103DD0000968C4F388146343C1F30141491C4900D5
:103DE000B3FBF1F1016011680F2303EA11117B4B62
:103DF0005C5C0168E14041601468072505EA942491
:103E00001C5D21FA04F48460126805EA52329A5C5F
:103E1000D140C16070BDC0F30121032908D1684AB7
:103E20000832116821F4F8136D49014019431160FB
:103E3000634970310A68C0F30B0002430A6070479F
:103E400063494439086070476149403908607047E8
:103E50005E49C1F85C017047594A30320029116847
:103E600001D0014300E0814311607047544A34326D
:103E70000029116801D0014300E0814311607047BF
:103E80004F4A38320029116801D0014300E08143D4
:103E9000116070474A4A40320029116801D001433D
:103EA00000E0814311607047454A4432002911689F
:103EB00001D0014300E0814311607047404A103255
:103EC0000029116801D0014300E08143116070476F
:103ED0003B4A14320029116801D0014300E08143BC
:103EE00011607047364A18320029116801D0014329
:103EF00000E0814311607047314A20320029116887
:103F000001D0014300E08143116070472C4A243204
:103F10000029116801D0014300E08143116070471E
:103F2000274A50320029116801D0014300E0814343
:103F300011607047224A54320029116801D00143B0
:103F400000E08143116070471D4A58320029116812
:103F500001D0014300E0814311607047184A60328C
:103F60000029116801D0014300E0814311607047CE
:103F7000134A64320029116801D0014300E08143F3
:103F8000116070470E4A0D320029117801D00143AB
:103F900000E081431170704709487430016841F0B6
:103FA0008071016070470146054A00200C3212689A
:103FB0000A4200D00120704701490E310870704755
:103FC00000380240FFFFF6FE103000240000474298
:103FD000800E47420000FFFF0024F400640100202F
:103FE000FFFCFF0F10B501210C022046FFF78EFFEA
:103FF0002046BDE810400021FFF788BF30B5426879
:10400000C84B0C791A400B6842EA04221343436000
:104010008268C54B4D791A40D1E9034323438C682C
:1040200044EA4504234313438360C26A097D22F4B2
:104030007002491EC9B242EA0151C16230BD00217D
:104040000160017141718160C160016101210175EF
:104050007047B64B10B5D3F80423B5490A40D0E9F0
:1040600000142143D0E90240044321431143C3F823
:10407000041310BD0021016041608160C160704780
:104080000029816802D041F0010101E021F0010125
:10409000816070474268A74B1A400A4342607047EC
:1040A000416282627047426822F01F020A43426006
:1040B00070479E490028D1F8040302D040F4000064
:1040C00001E020F40000C1F804037047974900287C
:1040D000D1F8040302D040F4800001E020F4800015
:1040E000C1F80403704770B5072409290AD9C568C7
:1040F000A1F10A0606EB4606B440A543B3401D43B2
:10410000C56007E0056901EB4106B440A543B34033
:104110001D4305611F23072A09D2446B521E02EB7F
:10412000820293409C4391400C43446370BD0D2A2E
:1041300009D2046BD21F02EB820293409C43914050
:104140000C43046370BDC46A0D3A02EB82029340D3
:104150009C4391400C43C46270BD816841F0804132
:1041600081607047014600208968490200D501201E
:1041700070470029816802D041F4806101E021F498
:104180008061816070470029816802D041F002019E
:1041900001E021F00201816070474268491E22F46B
:1041A000604242EA4131416070470029416802D0D3
:1041B00041F4006101E021F4006141607047C06C8E
:1041C00080B270475948D0F80803704700298168C9
:1041D00002D041F4807101E021F480718160704768
:1041E0000029816802D041F4007101E021F40071DE
:1041F000816070474D490028D1F8040302D040F493
:10420000005001E020F40050C1F80403704770B57D
:10421000072409290AD9C568A1F10A0606EB460652
:10422000B440A543B3401D43C56007E0056901EBF9
:104230004106B440A543B3401D430561836BC3F3FE
:104240000154121B921C02EB82041F22A2409343D2
:10425000A1400B43836370BD826B491E22F4401260
:1042600042EA01518163704708B50844009002603A
:1042700008BD826822F470220A4382607047826817
:1042800022F440120A4382607047816841F4800141
:1042900081607047014600208968490200D50120ED
:1042A00070470029416802D041F4806101E021F4A7
:1042B0008061416070470029416802D041F480511B
:1042C00001E021F480514160704708B5084428306E
:1042D0000090006880B208BD01238B4041680AB19C
:1042E000194300E09943416070470246002012687C
:1042F0000A4200D001207047C9430160704730B5C1
:104300000246002053680C0A01258D4011682B409D
:10431000214202D0002B00D0012030BD6FEA1121D4
:1043200001607047FFFEFFFCFDF7FFC00020014069
:10433000E030FCFFFFFD3FFF2DE9F043016821F075
:10434000010101600021016041608160C160016183
:1043500021214161B849B84A3D251039904202D126
:104360008D60BDE8F083B44A4FF474661832904211
:1043700001D18E60F5E7B04A4FF4741730329042A5
:1043800001D18F60EDE7AC4A4FF0746C4832904237
:1043900002D1C1F808C0E4E7A74BA84A60339842AD
:1043A00001D1CA60DDE7A44CA54B7834A04201D10D
:1043B000CB60D6E7DFF88082A24C08F19008404538
:1043C00001D1CC60CDE7DFF870824FF03D5908F1A4
:1043D000A808404502D1C1F80C90C2E79A49DFF81D
:1043E00068820839404501D10D60BAE7964D18350D
:1043F000A84201D10E60B4E7934D3035A84201D1F7
:104400000F60AEE7904D4835A84202D1C1F800C018
:10441000A7E78D4D8C496035091FA84201D10A607C
:104420009FE7894A7832904201D10B6099E7864A2A
:104430009032904201D10C6093E7834AA8329042B7
:104440008FD1C1F800908CE730B503687F4ACC6803
:1044500013400A682243D1E905452C432243CC6925
:1044600022430C6A22434C6A22438C6A22434C6BDF
:1044700022438C6B22431A430260426922F00703F5
:10448000D1E90B2422431A4342610A6942604A6817
:1044900082608968C16030BD002101604160816037
:1044A000C160016141618161C161016241628162FA
:1044B000C16201634163816370470029016802D0D2
:1044C00041F0010101E021F0010101607047002984
:1044D000016802D041F4004101E021F40041016093
:1044E00070470029016802D041F0200101E021F06D
:1044F00020010160704741607047406880B270479A
:10450000002A026802D042F4002201E022F40022D4
:104510000260016170470029016802D041F48021E6
:1045200001E021F48021016070470AB10161704708
:10453000C1607047014600200968090300D50120C9
:104540007047014600200968C90700D00120704764
:10455000406900F03800704702463B4B00209A4209
:1045600002D2354A103A01E0374A103A8B0001D5A1
:10457000526800E01268364B1A400A4200D001200F
:104580007047314A904202D22B48103801E02E4841
:1045900010382F4A8B0001EA020101D5C160704733
:1045A000816070470B0607D5436912B143F0800361
:1045B00001E023F080034361802908D0002A0268CB
:1045C00001F01E0101D00A4300E08A4302607047F7
:1045D00030B51D4A0024904202D2174B103B01E037
:1045E000194B103B1B4A114205D01E2202EAD1256D
:1045F00002682A4002E0406900F08002880001D58C
:10460000586800E01868124B1840084201D002B107
:104610000124204630BD0C4A904202D20648103890
:1046200001E0094810380A4A8B0001EA020101D56D
:10463000C160704781607047106002403D000020FB
:10464000400F002000003D20106402403F801CF01D
:104650007D0F7D0F3C0F3C0F374900200860091D7E
:104660000860091D0860091D08603349334814318A
:104670000860704730B530498379026853B30B68DE
:1046800093430B600A1D13680468A3431360027907
:104690000A441368046823431360274A08321368E6
:1046A0000468A3431360131D1C680568AC431C60B9
:1046B0004479102C05D021440A68006802430A603E
:1046C00030BD116804682143116019680068014316
:1046D000196030BD0079084401689143016030BD24
:1046E0000021016001710C224271817170471249F1
:1046F00010310A6802430A60704701460E4A0020E2
:10470000143212680A4200D0012070470A4914315D
:1047100008607047084A014600201268064B0A40AC
:1047200014331B680B4202D0002A00D001207047CE
:104730000149143108607047003C0140FFFF7F00D1
:10474000FE4910B5884206D101210846FFF7DEFB7D
:10475000002101205BE0B0F1804F09D0F849884288
:104760000DD101210220FFF7C7FB0021022070E0DC
:1047700001210846FFF7C0FB0021012069E0F14953
:10478000884206D101210420FFF7B6FB0021042056
:104790005FE0ED49884206D101210820FFF7ACFB1C
:1047A0000021082055E0E949884206D10121102066
:1047B000FFF7A2FB002110204BE0E549884206D11B
:1047C00001212020FFF798FB0021202041E0E14952
:1047D000884206D101210220FFF798FB0021022028
:1047E00015E0DD49884202D101210C040AE0DB49D1
:1047F000884202D101214C0404E0D94988420AD1FF
:1048000001218C042046FFF781FB00212046BDE8F2
:104810001040FFF77BBBD349884206D101214020DD
:10482000FFF76AFB0021402013E0CF49884206D100
:1048300001218020FFF760FB0021802009E0CB49A7
:1048400088420AD1841501212046FFF755FB00213B
:104850002046BDE81040FFF74FBB10BD30B50288C1
:10486000B64BBC4C98420DD0A0420BD0B0F1804F5B
:1048700008D0B34DA84205D0B24DA84202D0B24DE7
:10488000A84203D122F070054A882A43AF4DA842BE
:1048900006D0AF4DA84203D022F440750A892A43BE
:1048A00002804A68C2620A880285984201D0A0420A
:1048B00001D1897A01860121818230BD4FF0FF311B
:1048C0004160002101800181418081727047018532
:1048D00082827047028822F070020A430280704789
:1048E00041627047C1627047406A7047008D7047EF
:1048F0000029018802D041F0020101E021F002010B
:10490000018070470029018802D041F0040101E0D4
:1049100021F00401018070470029018802D041F094
:10492000800101E021F0800101807047028822F0BF
:104930000802028002880A4302807047028822F43B
:104940004072028002880A43028070470029018871
:1049500002D041F0010101E021F001010180704726
:1049600030B5028C22F001020284028C8388048B11
:1049700022F0020224F073050C882C438D89154324
:104980004A882A436D4DA84202D0724DA8420DD1EB
:1049900022F00805CA8923F440732A4322F0040553
:1049A0008A882A430D8A1D434B8A2B4383800483C4
:1049B00089684163028430BD70B5028C22F0100218
:1049C0000284028C8488038B0D8823F4E6464FF61C
:1049D000FF7303EA052535438E8922F0200203EA9E
:1049E000061616434A8803EA02123243534EB04277
:1049F00002D0584EB04215D122F08006CA8924F464
:104A0000406403EA0212324322F040068A8803EA35
:104A1000021232430E8A03EA860626434C8A03EAD0
:104A2000840434438480058389688163028470BD73
:104A300070B5028C22F480720284028C8488838B8D
:104A40000D8823F073031D4322F400738E894FF603
:104A5000FF7202EA06261E434B8802EA0323334311
:104A6000364EB04202D03B4EB04215D123F4006620
:104A7000CB8924F4405402EA0323334323F48066B1
:104A80008B8802EA032333430E8A02EA0616264382
:104A90004C8A02EA04143443848085838968C163A4
:104AA000038470BD70B5028C22F480520284048CA1
:104AB0008288838B0D8823F4E6464FF6FF7303EA62
:104AC0000525354324F400568C8903EA0434344325
:104AD0004E8803EA06362643184CA04202D01D4CED
:104AE000A04205D122F480440A8A03EA82122243BA
:104AF0008280858389680164068470BD00210180FD
:104B00004180818081608181C181018241827047C1
:104B100030B50124058C00F118038C40A5430584B1
:104B200031B308292CD0091FC1F34E001844016885
:104B300048F6FF731940016001681AE00000014067
:104B40000004004000080040000C0040001000403D
:104B500000140040000401400040014000440140B6
:104B60000048014000180040001C004000200040A8
:104B700006E04FF6FF7303EA02221143016030BDE5
:104B800003EB510001684FF68F7319400160016813
:104B9000F3E74163704781637047C1637047016405
:104BA0007047028B22F070020A4302837047028B27
:104BB0004FF6FF7322F4E04203EA0121114301831F
:104BC0007047828B22F070020A4382837047828B87
:104BD0004FF6FF7322F4E04203EA0121114381837F
:104BE0007047028B22F008020A4302837047028B4F
:104BF0004FF6FF7322F4006203EA0121114301839F
:104C00007047828B22F008020A4382837047828BAE
:104C10004FF6FF7322F4006203EA012111438183FE
:104C20007047028B22F004020A4302837047028B12
:104C30004FF6FF7322F4806203EA012111430183DE
:104C40007047828B22F004020A4382837047828B72
:104C50004FF6FF7322F4806203EA0121114381833E
:104C60007047028B22F080020A4302837047028B56
:104C70004FF6FF73C2F30E0203EA012111430183D1
:104C80007047828B22F080020A4382837047828BB6
:104C90004FF6FF73C2F30E0203EA01211143818331
:104CA0007047028C22F002020A4302847047028C91
:104CB00022F008020A4302847047028C4FF6FF7309
:104CC00022F0200203EA0111114301847047028C93
:104CD0004FF6FF7322F0800203EA011111430184B1
:104CE0007047028C4FF6FF7322F4007203EA012131
:104CF000114301847047028C4FF6FF7322F4006267
:104D000003EA0121114301847047028C4FF6FF73BF
:104D100022F4005203EA013111430184704710B5B7
:104D20000123048C8B409C430484038C8A401343EE
:104D3000038410BD10B50423048C8B409C43048471
:104D4000038C8A401343038410BD828B22F440629B
:104D50008283828B4FF6FF7303EA01210A43828329
:104D60007047828B22F00C028283828B0A438283FB
:104D70007047028B22F440620283028B4FF6FF736E
:104D800003EA01210A4302837047F0B5048C24F042
:104D900010040484078B068C4FF6FF7404EA011597
:104DA00027F4734704EA0331394304EA02220A4331
:104DB00026F0A001294341F0100102830184F0BDD7
:104DC000028B22F00C020283028B0A43028370479B
:104DD0002DE9F0410D460E884988AA882B890446A2
:104DE0000EB3042E26D0082E268C4FF6FF7028D046
:104DF00026F480562684A78B268C00EA022200EA3D
:104E0000013127F473473A4300EA0330104326F494
:104E100020420A4342F48051A0832184E98820463D
:104E2000BDE8F04191E700F062F9E9882046BDE86D
:104E3000F041C5E7FFF7A9FFE9882046BDE8F0414A
:104E400097E726F480762684A78B268C00EA01213A
:104E500000EA0310104327F0F307384326F42062DA
:104E60000A4342F48071A0832184E9882046BDE88A
:104E7000F04176E700210180418001228280C180DB
:104E8000018170472DE9F0410C460026498807460C
:104E9000012501B90226A288012A00D10225208815
:104EA00023890028384610D0FFF76FFFE188384685
:104EB000FFF75FFF23892A463146384600F017F98D
:104EC000E1883846BDE8F0417AE700F010F9E18862
:104ED0003846FFF775FF23892A4631463846FFF7E3
:104EE00054FFE1883846BDE8F04142E7406B704727
:104EF000806B7047C06B7047006C704710B50A88B4
:104F00004B88CC881A438B8823431A430B891A4356
:104F10004B8989891A430A43A0F8442010BD002117
:104F2000018041808180C180018141818181704700
:104F3000002930F8441F02D041F4004101E0C1F3E0
:104F40000E01018070470029818802D041F00401E0
:104F500001E021F00401818070470029818802D09E
:104F600041F0010101E021F0010181807047002A38
:104F7000828901D00A4300E08A438281704781829E
:104F8000704702460020128A0A4200D00120704772
:104F9000C9430182704702460020138A92890B425E
:104FA00002EA010202D0002A00D001207047C94362
:104FB000018270471143A0F848107047002A828987
:104FC00001D00A4300E08A4382817047002981882A
:104FD00002D041F0080101E021F008018180704712
:104FE000018921F0070101817047028922F07002D6
:104FF0000A430281704700B50346FFF7F6FF1889A0
:1050000040F00700188100BD70B516460D466029B6
:1050100004464FF0010231460AD000F068F82946F4
:105020002046FFF7E2FF208940F00700208170BD95
:10503000FFF7ABFEF3E730B504894FF6FF7505EADD
:1050400003231343E4B20B432343038130BD10B564
:105050000446FFF7F0FF208940F07700208110BD63
:1050600010B50446FFF7E7FF208940F48040208117
:1050700010BD828822F07002828082880A4382807A
:105080007047028922F00702028102890A430281E5
:105090007047028922F08002028102890A4302815C
:1050A000704770B50589048B068C25F007050D4304
:1050B0004FF6FC410C4040F201110C434FF6FF71DA
:1050C00001EA031126F022061143314305810483CE
:1050D000018470BD0029818802D041F0800101E087
:1050E00021F0800181807047A0F85010704770B5A2
:1050F000048C24F001040484058B048C4FF6FF76A5
:1051000006EA0313134325F0F3052B4324F00A02A8
:105110000A4342F001010383018470BDC74910B501
:10512000884206D101211020FEF7F0FE0021102058
:1051300028E0C349884202D101214C0410E0C14952
:10514000884202D101218C040AE0BF49884202D181
:105150000121CC0404E0BD4988420AD101210C059B
:105160002046FEF7C9FE2046BDE810400021FEF7AC
:10517000C3BEB749884209D101212020FEF7C6FEEF
:1051800000212020BDE81040FEF7C0BE10BD7FB555
:105190000446008A0D4620F44051E88808432082E6
:1051A000A08941F20C618843A9882A8911436A8940
:1051B00002431143A181A08A20F44071A8890843C9
:1051C000A0826846FEF7E4FD9C48844202D0A048D5
:1051D000844201D1039800E00298A189090400EB00
:1051E000C00101EB0010296801D5490000E08900E9
:1051F000B0FBF1F26420B2FBF0F109010B096FF092
:1052000018056B4302EB8302A3891D044FF03203A0
:1052100006D503EBC202B2FBF0F000F0070005E098
:1052200003EB0212B2FBF0F000F00F000843208104
:105230007FBD4FF41651016000218180C180018142
:105240000C2242818181704710B5028A4C8822F479
:1052500070630A8822438C88C9880C4322431A430E
:10526000028210BD0021018041808180C180704791
:105270000029818902D041F4005101E021F400515C
:1052800081817047028B02F47F420283028B0A43C2
:10529000028370470029818902D041F4004101E076
:1052A000C1F30E01818170470029818A02D041F447
:1052B000006101E021F4006181827047C1F30801BF
:1052C000818070478088C0F308007047028A22F00E
:1052D0000F020282028A0A430282704700298189F2
:1052E00002D041F0020101E021F00201818170470A
:1052F000828922F40062828182890A438281704716
:10530000028A22F020020282028A0A430282704745
:105310000029018A02D041F4804101E021F480415A
:1053200001827047818941F0010181817047002924
:10533000818A02D041F0080101E021F00801818258
:105340007047028BD2B20283028B42EA01210183B1
:1053500070470029818A02D041F0200101E021F04C
:105360002001818270470029818A02D041F010011A
:1053700001E021F0100181827047828A22F004024C
:105380008282828A0A43828270470029818A02D0FF
:1053900041F0020101E021F0020181827047002A00
:1053A000828A01D00A4300E08A438282704710B5A6
:1053B000C1F3421301F01F040121A140012B07D0CA
:1053C000022B07D01430002A026805D00A4304E0FB
:1053D0000C30F8E71030F6E78A43026010BD024651
:1053E000002012880A4200D001207047C943018082
:1053F000704730B501F01F0201240025C1F34213AC
:1054000004FA02F2012B0FD0022B0FD0838A4FEA4D
:1054100011210088134204FA01F400EA040001D0CB
:1054200000B10125284630BD8389F0E7038AEEE705
:105430000A0A01219140C9430180704700100140D0
:105440000044004000480040004C00400050004034
:105450000014014010B501218C032046FEF756FDD3
:105460002046BDE810400021FEF750BD13490860FA
:10547000704710B58A0721F003041149130F214426
:105480000F22D1F808489A409443C1F80848D1F84F
:10549000082898400243C1F8082810BD0949C1F8FE
:1054A000DC0070470849086070470449002020313B
:1054B0000968C90500D50120704700000038014087
:1054C00000300140000027420004274200F108019B
:1054D0004FF0FF32C0E90112C1600161002101609B
:1054E0007047002101617047426853684B60436810
:1054F0008B60536899605160416008610168491C84
:105500000160704710B50B685A1C02D000F1080208
:1055100002E0026904E05268546824689C42FAD9A7
:1055200053684B6099608A60516008610168491C4A
:10553000016010BDD0E901128A60D0E9011251600A
:1055400001694A68824201D182684A600022026190
:105550000868401E086008687047000070B50D4676
:1055600004001FD000F0EBFCD4E90F21206802FBFF
:10557000010363600023A363521EA06002FB0100CD
:10558000E060581E6064A06404F110006DB1FFF784
:105590009DFF04F12400FFF799FF00BF00F0D7FC46
:1055A000012070BDFAF744FEFEE721690029F5D01D
:1055B00001F07BF90128F1D100F0BBFCEEE72DE909
:1055C000F04117460E46050019D0502000F0DEFCD1
:1055D000040014D005FB06F0401C00F0D7FC20604E
:1055E00050B1C4E90F5601212046FFF7B7FF84F8F8
:1055F0004D702046BDE8F081204600F01CFDFAF712
:1056000017FEFEE770B5044600F099FC04F124058E
:105610000AE0606A58B1284601F047F908B101F084
:10562000BFF9A06C401EA064A06C0028F1DC4FF014
:10563000FF36A66400F08BFC00F081FC04F110053D
:105640000AE0206958B1284601F02FF908B101F0AD
:10565000A7F9606C401E6064606C0028F1DC666431
:10566000BDE8704000F073BC10B51346026C0446F0
:105670008AB1CBB1E06801F039FAE168206C091A0F
:10568000E1602268914202D26168081AE060A06B72
:10569000401CA06310BD20680028F8D1606801F0AC
:1056A000C7F900206060F2E7A06801F01FFA216CE2
:1056B000A0680844A06061688842E8D32068A060C0
:1056C000E5E72DE9FF4182B098460F4604004FF010
:1056D000000502D000261FB107E0FAF7A9FDFEE79A
:1056E000206C10B1FAF7A4FDFEE700F028FCA16BD6
:1056F000E06B814213D2424639462046FFF7B4FFA1
:10570000606A38B104F1240001F0CFF8012801D11A
:1057100000F00FFC00F01BFC012006B06AE70498C3
:1057200008B11DB106E000F012FC1DE0684601F072
:10573000E9F8012500F00BFC00F046FE00F0FFFB4D
:10574000606C401C00D16664A06C401C00D1A66453
:1057500000F0FDFB04A9684601F0DFF830B12046F7
:10576000FFF750FF00F0C2FD0020D6E700F0E7FB96
:10577000A06BE16B884210D100F0E9FB04F110004E
:10578000049901F061F82046FFF73CFF00F0AEFD00
:105790000028AAD100F0CDFBA7E700F0D8FB2046F7
:1057A000FFF730FF00F0A2FD9FE770B505465020DF
:1057B00000F0ECFB04001DD0002161602160A160BD
:1057C000E160A1630120C4E90F01801E6064A06450
:1057D00084F84D5004F11000FFF778FE04F1240026
:1057E000FFF774FE00231A4619462046FFF769FFAB
:1057F000204670BDFAF71CFDFEE710B5040009D085
:1058000001F0DAF8616888420FD1E068401EE0607C
:1058100003D008E0FAF70CFDFEE700231A4619460C
:105820002046FFF74EFF012010BD002010BD30B410
:1058300003680D46002B0CD0026CC1688C18C46044
:1058400041688C4200D3C360C168284630BC01F077
:105850004DB930BC70472DE9FF4383B01F468846E1
:1058600004004FF0000506D0002604F12409B8F129
:10587000000F03D007E0FAF7DBFCFEE7206C10B165
:10588000FAF7D6FCFEE700F05AFBA06B30B34146B6
:105890002046E568FFF7CBFF77B1E560606A28B185
:1058A000484601F002F808B100F043FB00F04FFB5E
:1058B000012007B0BDE8F083A06B401EA063206804
:1058C00010B901F079F8606020690028EED004F189
:1058D000100000F0EAFF0128E6D0E7E7059808B1DC
:1058E0001DB106E000F033FB1DE0684601F00AF848
:1058F000012500F02CFB00F067FD00F020FB606C40
:10590000401C00D16664A06C401C00D1A66400F06D
:105910001EFB05A9684601F000F830B12046FFF7EC
:1059200071FE00F0E3FC0020C3E700F008FBA06B71
:1059300038B100F00CFB2046FFF764FE00F0D6FC07
:10594000A1E700F004FB206830B900F0F8FA6068C5
:1059500001F040F800F0FBFA4846059900F074FFAA
:105960002046FFF74FFE00F0C1FC00288BD100F06D
:10597000E0FA88E770B50D46040009D001F01CF884
:105980006168884207D1E068401CE060012070BD7A
:10599000FAF74EFCFEE700232A4619462046FFF799
:1059A0005AFF0128F3D1E168491CE16070BD10B5D0
:1059B0000C4602220021FFF702FE08B1846310BDED
:1059C000FAF736FCFEE72DE9F041984615460F46FA
:1059D000040001D01FB107E0FAF72AFCFEE7206CB3
:1059E00010B1FAF725FCFEE7FAF722FC0646A06B99
:1059F000E16B88421AD2424639462046FFF734FE10
:105A0000A06C401C04D0A06C401CA06401240EE0DB
:105A1000606A0028FAD004F1240000F046FF002854
:105A2000F4D0002DF2D001202860EFE700243046AA
:105A3000FAF705FC2046DDE52DE9F04115460F4655
:105A4000040001D01FB107E0FAF7F2FBFEE7206C7B
:105A500010B1FAF7EDFBFEE7FAF7EAFB0646A06B9A
:105A6000E0B139462046FFF7E2FEA06B401EA0637E
:105A7000606C401C04D0606C401C606401240EE02B
:105A800020690028FAD004F1100000F00EFF002871
:105A9000F4D0002DF2D001202860EFE7002430463A
:105AA000FAF7CDFB2046A5E510B5040006D000F0BE
:105AB00046FAA46B00F04BFA204610BDFAF7B8FB8B
:105AC000FEE710B508B1806B10BDFAF7B1FBFEE739
:105AD00010B504000BD03348002100BF00EBC10219
