:020000040800F2
:1000000060300020694100084502000847020008EE
:10001000490200084B0200084D02000800000000E1
:100020000000000000000000000000009D0100082A
:100030004F02000800000000E10100089F6700086F
:100040008341000883410008834100088341000880
:100050008341000883410008834100088341000870
:100060001704000863040008834100080103000826
:10007000C30200084D030008834100087502000810
:10008000834100087D020008834100088341000885
:100090008341000883410008834100088341000830
:1000A00083410008710300089103000883410008A0
:1000B00093030008B3030008D3030008834100083A
:1000C00083410008834100088341000813040008AD
:1000D000834100085502000883410008834100085D
:1000E00083410008834100088341000883410008E0
:1000F000834100088341000883410008230300086E
:100100008341000883410008F30300081504000838
:100110008341000883410008570300085F0300087B
:1001200083410008834100089F02000883410008C2
:10013000834100088341000883410008834100088F
:10014000834100088341000883410008834100087F
:10015000B902000883410008834100088341000878
:10016000834100088341000883410008834100085F
:10017000834100088341000883410008834100084F
:100180008341000883410008DFF80CD007F0A4FB8E
:1001900000480047613F000860300020234B196889
:1001A0000868B0E8F04F80F309884FF0000080F352
:1001B000118870470000000003480068006880F361
:1001C000088862B600DF00BF08ED00E0DFF80C0031
:1001D000016841F470010160704700BF88ED00E0E4
:1001E000EFF30980114B1A681EF0100F08BF20EDC5
:1001F000108A20E9F04F106008B54FF0140080F32A
:10020000118806F0A2FD4FF0000080F31188BDE8D0
:10021000084019680868B0E8F04F1EF0100F08BFDA
:10022000B0EC108A80F30988704700BFA801002055
:10023000EFF311804FF0140181F31188704780F3C0
:10024000118870477047FEE7FEE7FEE7FEE770475C
:100250007047704710B5834C40F22551204605F099
:10026000E8FC002805D02046BDE81040202105F01C
:10027000DDBC10BD7C497D4804F0EDBD70B57B4D03
:100280007B4C30352146284604F0C2FD002805D0BD
:1002900021462846BDE8704004F0DDBD70BD10B5B4
:1002A0007449754804F0D7FD74484178007841EAF4
:1002B00000207349088010BD6F487249483004F02F
:1002C000CABD70B5694D704C483D2146284604F0C2
:1002D0009FFD002813D02146284604F0BCFD6B4842
:1002E00001F0F8FE00280AD1694C0021204605F0F3
:1002F000DFFB2046BDE87040012105F0D9BB70BD91
:1003000070B55A4D634C603D2146284604F080FD8F
:10031000002805D021462846BDE8704004F09BBD6A
:1003200070BD70B5514C5C4D48342946204604F0F0
:100330006FFD002809D00021204604F0DEFC29468C
:100340002046BDE8704004F086BD70BD4748464970
:10035000303804F080BD0121504805F048BA10B58E
:1003600001214F4805F043FA3E497A20888010BDAC
:1003700010B54C4C0121204605F039FA2088C10601
:100380004948016801D5491E00E0491C016010BDC3
:10039000704710B501218C07204605F028FA208807
:1003A000C1064248016801D5491E00E0491C0160B0
:1003B00010BD10B53E4C0121204605F018FA2088EA
:1003C000C1063C48016801D5491E00E0491C016096
:1003D00010BD10B5384C0121204605F008FA2088E0
:1003E000C1063648016801D5491E00E0491C01607C
:1003F00010BD10B5324C0121204605F0F8F92088D7
:10040000C1063048016801D5491E00E0491C016061
:1004100010BD7047704770B5042004F09BFD0028A4
:100420001ED02021284803F0EEFF284D0421284645
:1004300003F0CAFF1A4C012805D00421284603F016
:10044000C3FF28B109E00021204604F069FE04E062
:10045000204604F069FE1E4908601E490420086019
:1004600070BD704700100140208000207060024085
:10047000008020200080201040640240E002002024
:10048000080000200088002000880010FE020020E4
:10049000004800402080001000800028001000402C
:1004A00000140040000001400C000020100000205B
:1004B0000004004014000020000800404C0100200F
:1004C000000C00405001002000000240000C0240DF
:1004D00054010020143C014070B50546002406F08C
:1004E00061FFFE4902E02A5D0A55641C8442FADB82
:1004F000BDE870400121FA4804F0FFBB70B5F94D2A
:1005000006460024315D00290BD0284605F0F6FA96
:100510008021284605F083FB0028F9D0641CE4B252
:10052000F0E770BD70B5EF4E05460024002D0DD0EC
:100530002946304605F0E2FA8021304605F06FFB8F
:100540000028F9D0641CE4B2032CEFD370BD73B55E
:100550000C460020FFF7E6FFE3A0FFF7CFFFDF48E0
:100560002246E2A1823807F005FADC488238FFF71C
:10057000C5FFDFA0FFF7C2FFDFA0FFF7BFFFD7482F
:10058000DAA18238009A07F0F5F9D44E0024D54D4F
:10059000823E2846315D05F0B1FA4021284605F03B
:1005A0003EFB0028F9D0641C142CF2DBD2A0FFF72C
:1005B000A5FFFF20FFF7B6FFFF20FFF7B3FFBDE861
:1005C0007C40FF20AEE770B505460C46C6A0FFF79D
:1005D00095FFC2482246C5A1823807F0CBF9BF4833
:1005E0008238FFF78BFFC5A0FFF788FF2846FFF78B
:1005F00085FFC1A0FFF782FFBDE87040FF2091E7B3
:1006000077B5BEA185B00646D1E90001CDE900016C
:10061000B9A0002200680390B3A0B04D0068283D47
:10062000A5F128030290AD4C1146A3F13200A95464
:1006300099548154A154521CD2B21E2AF7D30A21D4
:100640000170FF2444708470C470A448A7A150387E
:10065000079A07F08FF9A14902A8503906F08AFEDF
:100660009E4802A9823806F085FE9C486946823879
:1006700006F080FE99483146823806F07BFE9748A6
:100680009AA15038069A07F075F994495039A1F1AA
:10069000320006F06FFE914803A9823806F06AFE28
:1006A0008E492C706C702839AC70A1F15A0006F09C
:1006B00061FE8A488238FFF70FFF08B070BD2DE950
:1006C000F74188468DA185B00646D1E90001CDE904
:1006D000000189A000220068039083A07F4D00687C
:1006E000283DA5F1280102901446A1F13200AC5436
:1006F0008C548454521CD2B20A2AF8D30A210170B5
:10070000FF2747708770C770744878A15038079AE0
:1007100007F030F9714902A8503906F02BFE6F48F6
:1007200002A9823806F026FE6C486946823806F037
:1007300021FE6A483146823806F01CFE6748414671
:10074000823806F017FE654803A9823806F012FECB
:100750002F706F706149AF70EC7028392C71A1F166
:100760005A0006F007FE5D488238FFF7B5FE08B074
:10077000BDE8F08170B50020FFF7D4FE5AA0FFF766
:10078000BDFE56480D2259A1823807F0F3F85348B0
:100790008238FFF7B3FE59A0FFF7B0FE594C202175
:1007A000204603F011FE02464C4850A1823807F063
:1007B000E1F84A488238FFF7A1FE1021204603F0F5
:1007C00003FE0246454849A1823807F0D3F8434862
:1007D0008238FFF793FE4C4D8021284603F0F4FD4C
:1007E00002463E4841A1823807F0C4F83B488238AF
:1007F000FFF784FE4021284603F0E6FD0246374815
:100800003AA1823807F0B6F834488238FFF776FE0E
:100810004FF40041204603F0D7FD02462F4833A194
:10082000823807F0A7F82D488238FFF767FE4FF4AB
:100830008041204603F0C8FD024628482BA182389B
:1008400007F098F825488238FFF758FE4FF400511A
:10085000204603F0B9FD0246204824A1823807F063
:1008600089F81E488238FFF749FE4021274803F0E7
:10087000ABFD024619481DA1823807F07BF81748E6
:100880008238FFF73BFE1CA0FFF738FEFF20FFF782
:1008900049FEFF20FFF746FEBDE87040FF2041E61D
:1008A000FEB51BA10646D1E90001CDE900011AA061
:1008B00000210A4D0068283DA5F1280202900C464F
:1008C000A2F132006C5454544454491CC9B2322928
:1008D000F8D30A210170FF2747701FE09E02002015
:1008E000B860024000500040740000002564000021
:1008F0002E7478743D000000220000002E7478747D
:100900003D220000000802400000024000100240AA
:100910002E76616C3D0000006A0000008770C77091
:100920000022AFF23801FE4807F024F8FC4902A883
:1009300006F020FDFA4802A9323806F01BFDF848FF
:100940006946323806F016FD3246AFF26001F448CF
:1009500007F010F8F249A1F1320006F00BFD2F70FC
:100960006F70EF49AF70EC7028312C71A1F15A0013
:1009700006F000FDEA483238FFF7AEFDFEBD70B567
:100980000D46044606F0C0FC291B491C90FBF1F201
:1009900001FB1200204470BD2DE9FC414FF080475F
:1009A000384604F0C1FBDF4D2969642640EA014066
:1009B00090FBF6F000240190384604F0B5FB29695D
:1009C00040EA014090FBF6F001990090401A00D5F2
:1009D0004042322800DA641C00980190022CEBDBC4
:1009E0000098002800DA4042BDE8FC812DE9FC4176
:1009F000CD4F384604F098FBCA4D6969642640EA39
:100A0000014090FBF6F000240190384604F08CFB86
:100A1000696940EA014090FBF6F001990090401AA4
:100A200000D54042322800DA641C00980190022C64
:100A3000EBDB00980028D7DA4042D5E710B5FFF786
:100A4000ABFF0446FFF7D2FF002C00DA6442002817
:100A500000DA4042204410BD01B581B0019800EB9E
:100A6000C00040000090002801D0401EFAE70CBDF5
:100A700001B581B044F250610198484300900028CC
:100A800001D0401EFAE70CBD2DE9FC4101211F20D9
:100A900003F002FE01248DF8044000268DF8066064
:100AA0004FF6FF758DF80740032700958DF8057008
:100AB00069469E4803F022FC8DF804408DF80660DC
:100AC0008DF8074000958DF805706946984803F049
:100AD00015FC8DF804408DF806608DF807400095F0
:100AE0008DF805706946934803F008FC7CE77CB5F7
:100AF00001217E2003F0D0FD0024FC208DF804406D
:100B0000012500908DF8075002268DF80560694692
:100B1000894803F0F3FB48F206008DF8044000908A
:100B20008DF807508DF805606946804803F0E6FBB4
:100B300046F6C4408DF8044000908DF807508DF8BB
:100B4000056069467A4803F0D9FB03208DF804401C
:100B500000908DF807508DF805606946754803F0E0
:100B6000CDFB4FF2FF508DF8044000908DF80750F8
:100B70008DF805606946714803F0C0FB7CBD1FB568
:100B80004FF4E06003F002FB36208DF80C000024E7
:100B90008DF80D408DF80E4001208DF80F0003A850
:100BA00003F0F9FA0121102003F094FD3220ADF892
:100BB0000000ADF80840ADF8024040F2E730604C6C
:100BC00001906946204604F069FA0121204604F0AC
:100BD0000EFE01221146204604F0E9FD00212046C8
:100BE00004F09EFA0121204604F0D0FA1FBD1FB583
:100BF0004FF4E06003F0CAFA37208DF80C000024AF
:100C00008DF80D408DF80E4001208DF80F0003A8DF
:100C100003F0C1FA0121202003F05CFD4FF4FA70CB
:100C2000ADF80000ADF80840ADF8024040F2E73002
:100C3000444C01906946204604F030FA01212046D8
:100C400004F0D5FD01221146204604F0B0FD00213C
:100C5000204604F065FA0121204604F097FA1FBDF2
:100C600070B58AB00121022003F03EFD01210C2065
:100C700003F012FD2E4E03220621304603F0C7FB7F
:100C800003220721304603F0C2FB0322082130462D
:100C900003F0BDFB03220921304603F0B8FB4FF4FB
:100CA0007070059002208DF8180003208DF819004F
:100CB00000248DF81A4001258DF81B5005A93046F7
:100CC00003F01CFBA420ADF81C0028021E4E089067
:100CD000ADF82400ADF81E4007A9304604F0DEF957
:100CE0006020ADF80000ADF802500294ADF80C4061
:100CF0000121304604F04AFA0021304604F010FA8F
:100D00006946304604F04CFA6946304604F074FAFD
:100D10006946304604F0ACFA6946304616E00000F9
:100D20004E020020000000200004004000040240A9
:100D300000080240000C0240000002400010024087
:100D400000100040001400400004014004F0CAFA02
:100D50000121304604F00CFD0AB070BD70B58AB0B8
:100D60000121042003F0B6FC01210D2003F094FCC6
:100D7000FF4E02220C21304603F049FB02220D21D6
:100D8000304603F044FB02220E21304603F03FFBC5
:100D900002220F21304603F03AFB4FF470400590D9
:100DA00002208DF8180003208DF8190000248DF81A
:100DB0001A4001258DF81B5005A9304603F09EFA14
:100DC000A420ADF81C002802EA4E0890ADF82400DB
:100DD000ADF81E4007A9304604F060F97020ADF868
:100DE0000000ADF802500294ADF80C4001213046ED
:100DF00004F0CCF90021304604F092F969463046FF
:100E000004F0CEF96946304604F0F6F969463046FA
:100E100004F02EFA6946304604F064FA9CE730B5D7
:100E2000012187B0080403F05FFC0121084603F0AC
:100E300033FC00244FF6FF70CF4DADF80040019019
:100E4000ADF80840ADF802406946284604F026F99E
:100E50000420ADF80C00C820ADF814000120ADF856
:100E60001000ADF80E4003A9284604F0D1FBC34C96
:100E700000231A460321204604F033FD01212046B9
:100E800004F0B5FC01221146204604F090FC01213B
:100E9000284604F07BF90021204604F041F907B010
:100EA00030BD2DE9F04701218AB0084603F012FC5D
:100EB0000121022003F00EFC0121032003F0ECFBD2
:100EC000DFF8BC9201220F21484603F0A0FADFF8B8
:100ED000B48201220321404603F099FA0222042140
:100EE000404603F094FA02220521404603F08FFAAF
:100EF00002268DF80460032738208DF80570002441
:100F000000908DF8064001258DF80750694640464F
:100F100003F0F4F98DF80460E8038DF80570009093
:100F20008DF806408DF807506946484603F0E6F90B
:100F30004FF6FF70ADF80C4004904FF08049ADF8CB
:100F40001440ADF80E4003A9484604F0A7F8DFF8B6
:100F500038A203A9504604F0A1F84FF00408142069
:100F6000ADF81880ADF82000ADF81A60ADF81C504F
:100F700006A9484604F04CFB06A9504604F048FB7D
:100F800002231A460321484604F0ABFC02231A460A
:100F90000321504604F0A5FC0121484604F027FC3B
:100FA0000121504604F023FC01221146484604F07A
:100FB000FEFB01221146504604F0F9FB0121484690
:100FC00004F0E4F80121504604F0E0F8002148461E
:100FD00004F0A6F80021504604F0A2F8780203F0CD
:100FE000D5F81D208DF808008DF809708DF80A409D
:100FF0008DF80B5002A803F0CEF81C208DF80800E5
:101000008DF809808DF80A408DF80B5002A803F086
:10101000C2F80AB0BDE8F08770B501218AB0084671
:1010200003F062FB0121102003F036FB4FF4206037
:10103000009002208DF8040003208DF805000024A4
:10104000524E8DF8064001258DF80750694630460E
:1010500003F054F901220921304603F0D8F90122A6
:101060000B21304603F0D3F94FF6FF70424EADF836
:1010700008400390ADF81040ADF80A4002A9304690
:1010800004F00CF80420ADF814000A20ADF81C00A0
:10109000ADF81640ADF8185005A9304604F0B8FA7E
:1010A00000231A460321304604F01BFC0121304680
:1010B00004F09DFB01221146304604F078FB01212B
:1010C000304604F094FB01221146304604F06FFBD9
:1010D0000121304604F05AF80021304604F020F88F
:1010E0004FF4C06003F052F819208DF820008DF8FD
:1010F00021508DF822408DF8235008A803F04BF8BA
:101100002AE6F0B59BB00121214803F0C5FA012180
:101110000D02284603F0E8FA1E480024CDE90040FD
:101120001D4802A9082681E85100A800CDE9054024
:10113000400007908000CDE908050AA900010125BB
:1011400081E83100154F0D94694638460E9403F03E
:101150009BFD0121384603F0D0FD3C20199003206F
:101160008DF868008DF86B4019A90D481AE0000051
:10117000000C024000080040000001400040014017
:101180000000024000040240000400400010024041
:10119000050040004C200140D002002010640240B5
:1011A0000008024003F0AAF84FF44030CDE91540A2
:1011B0004FF47060CDE9174015A803F06AFB2806CC
:1011C0000F908DF840508DF8415011941294139463
:1011D0008DF850600FA9FE4C204603F02FFB04232E
:1011E00001220221204603F09EFB04230222032158
:1011F000204603F098FB042303221946204603F0FF
:1012000092FB04231A460521204603F08CFB04239D
:1012100005220C21204603F086FB042306220D2123
:10122000204603F080FB042307220E21204603F012
:101230007AFB042308220F21204603F074FB0121CE
:10124000204603F0EDFB0121204603F0DFFB0121E6
:10125000204603F035FB204603F09FFB1BB0F0BD9A
:1012600008B54FF4E06002F091FF25208DF80000F2
:1012700000208DF801008DF8020001208DF8030098
:10128000684602F088FF08BD70B5054696B001219A
:10129000102003F029FA0121084603F0FDF901218D
:1012A000880503F0F9F94FF4C060139002208DF81F
:1012B000500000248DF852408DF85340C54E8DF8F3
:1012C000510013A9304603F019F8072209213046CE
:1012D00003F09DF807220A21304603F098F80F9595
:1012E000ADF844400C20BC4DADF84040ADF8460090
:1012F000ADF84240ADF848400FA9284604F067FB1E
:101300000121284604F0D4FB4FF4A06002F03EFF18
:101310003A208DF854008DF855408DF85640012044
:101320008DF8570015A802F036FFAC4E304603F09A
:1013300023FC4FF000600090A948CDE902040A2088
:101340000490281D01900015CDE905408010CDE9DD
:10135000084040020A9004200B9007940320CDE936
:101360000C04694630460E9403F08EFC01224021A5
:10137000284604F034FC01221021304603F032FDEF
:101380000121304603F0B9FC16B070BDF0B5064639
:10139000012197B0480503F07FF901214D0428464B
:1013A00003F098F90121082003F076F960201390EA
:1013B00002208DF8500000248DF852408DF85340E3
:1013C000884F8DF8510013A9384602F097FF072285
:1013D0000521384603F01BF807220621384603F0A2
:1013E00016F80F96ADF844400C207F4EADF8404003
:1013F000ADF84600ADF84240ADF848400FA9304680
:1014000004F0E5FA0121304604F052FB4FF4A060ED
:1014100002F0BCFE11208DF854008DF855408DF877
:10142000564001208DF8570015A802F0B4FE6F4F0A
:10143000384603F0A1FBA8020090402003906C48BE
:1014400002903C200490301D01900015CDE905402C
:101450008010CDE908400420CDE90A50079403200C
:10146000CDE90C04694638460E9403F00DFC0122C8
:101470008021304604F0B3FB01228021304604F085
:10148000AEFB01221021384603F0ACFC01213846A6
:1014900003F033FC17B0F0BD70B50546012196B0DE
:1014A000880403F017F90121082003F0F5F8012161
:1014B000480503F0F1F84FF44070139002208DF8C6
:1014C000500000248DF852408DF85340454E8DF861
:1014D000510013A9304602F011FF072208213046BF
:1014E00002F095FF07220921304602F090FF0F9588
:1014F000404EADF84040ADF844400C25ADF84240B8
:10150000ADF84840ADF846500FA9304604F05FFAF8
:101510000121304604F0CCFA4FF4A06002F036FE10
:101520008DF854508DF855408DF8564001208DF8B7
:10153000570015A802F02FFE2C4D783D284603F0E9
:101540001BFB4FF000600090254869461E30CDE936
:10155000020408200490301D01900015CDE90540DB
:101560008010CDE9084040020A9004200B900794B7
:101570000320CDE90C0428460E9403F085FB0122DC
:101580004021304604F02BFB01224021304604F07C
:1015900026FB01221021284603F024FC01212846C5
:1015A00003F0ABFBF0E6F0B50646012197B0C804A6
:1015B00003F090F80121084603F06EF80121480578
:1015C00003F06AF80325022013958DF8500013E00C
:1015D0000020014000000240001001404064024031
:1015E000E0020020000C024000440040A0600240E5
:1015F000000100200048004000248DF852408DF882
:101600005340FA4F8DF8510013A9384602F076FE88
:1016100008220021384602F0FAFE0822012138464D
:1016200002F0F5FE0F96ADF844400C20F04EADF8F8
:101630004040ADF84600ADF84240ADF848400FA933
:10164000304604F0C4F90121304604F031FA4FF479
:10165000A06002F09BFD0D208DF854008DF85540E0
:101660008DF8564001208DF8570015A802F093FD23
:10167000E04F384603F080FA78050090DE48CDE967
:10168000020408200490301D01900015CDE90540AA
:101690008010CDE90840400207940A900420CDE96B
:1016A0000C540B90694638460E9403F0EDFA012273
:1016B0004021304604F093FA01224021304604F0E4
:1016C0008EFA01221021384603F08CFB01213846A6
:1016D00003F013FBDEE62DE9F0418046012196B0D0
:1016E000480502F0D9FF0121080502F0F3FF0121AE
:1016F0000C2002F0D1FF02258DF8405000248DF817
:101700004240BE4F04268DF843400F968DF841505D
:101710000FA9384602F0F2FD8DF840508DF8424096
:101720008DF84340E8028DF84150B54D0F900FA958
:10173000284602F0E3FD08220221384602F067FE47
:1017400008220C21284602F062FE4FF4A06002F04D
:101750001DFD2F208DF8540005208DF855008DF8C3
:10176000560001208DF8570015A802F014FDADF8C1
:101770004C400C20A34DADF84840ADF84E00CDF8DC
:101780004480ADF84A40ADF8504011A9284604F015
:101790001EF90121284604F08BF9964F7837384618
:1017A00003F0EAF9700600904020039092486946E1
:1017B0005138029031200490281D01900015CDE988
:1017C00005408010CDE908404002CDE90A060794A3
:1017D0000320CDE90C0438460E9403F055FA01229B
:1017E0008021284604F0FBF901221021384603F03D
:1017F000F9FA0121384603F080FA16B0BDE8F0810D
:1018000030B585B00121082002F046FF0121880390
:1018100002F06AFF00240C208DF81040012503908F
:101820008DF8135003A9754802F068FD02210320CA
:1018300004F03FFA042000908DF8044010208DF849
:1018400005008DF80650684603F034FB08208DF83B
:1018500008008DF809408DF80A408DF80B5002A859
:1018600002F099FC05B030BD10B5012810D0032856
:1018700019D0042822D0052809D1624C204604F052
:101880003DF94021204604F0CAF90028F9D010BDE6
:101890005D4C204604F032F94021204604F0BFF9A7
:1018A0000028F9D010BD594C204604F027F94021FA
:1018B000204604F0B4F90028F9D010BD4C4C204665
:1018C00004F01CF94021204604F0A9F90028F9D0C1
:1018D00010BD4F49002048624E49C8604FF0804219
:1018E000506208614C4A10604861704770B5494DBC
:1018F00000206871044661210120FFF7B5FF322006
:10190000FFF7B6F8641C022CF5D3012068717A2029
:10191000287170BD10B561210120FFF7A5FFBDE85A
:1019200010400A20FFF7A4B870B53A4D0020E871C6
:10193000044661210320FFF797FF3220FFF798F854
:10194000641C022CF5D30120E8717A20A87170BDC7
:101950002DE9F14F96B0002014908DF800002D4B2A
:101960002F498DF82800264C8033DDF858C02B4FC6
:101970002848A61549694FF4004503F1BC024FF40D
:10198000806A4FF4005B4FF48059BCF1120F6BD2A8
:10199000DFE80CF009286B71777D82868A8E92963B
:1019A0009A9EA2A4ABFE0221384602F00DFD60B162
:1019B00001222946204602F01FFD2946204602F05A
:1019C0000DFD0146002217A08AE00022294620468C
:1019D00002F012FD2946204602F000FD01460022D9
:1019E00017A07DE001221EA0196B79E000000240E3
:1019F000004C004040600240EF020020000C02401A
:101A00000008024000500040001001400048004023
:101A100000000140000000202404004000040240B7
:101A2000EC010020524F424F542044414E47204386
:101A30004841592053414E20444F3A202020000075
:101A4000524F424F542044414E4720434841592071
:101A500053414E2058414E483A20202000000000BB
:101A6000494D553A000000003CE0FEF7E7FF014613
:101A70000222ECA034E0FEF7B9FF01460322EDA0FC
:101A80002EE0FEF789FF01460422EBA028E0EB4898
:101A9000C17C0522EAA023E011780622EBA01FE01A
:101AA00011790722ECA01BE0416B0822EDA017E0A2
:101AB000816A0922EFA013E0416A0A22F2A00FE036
:101AC00081780B22F4A00BE0816B0C22F7A007E0D9
:101AD0000D22FAA0D96F03E00E2200E00F22FCA035
:101AE000FEF78EFD17B0BDE8F08FFF4F802138461E
:101AF00002F06AFC0246FDA1684605F03BFF69461C
:101B00000AA805F037FC3146384602F05DFC024673
:101B1000F6A1684605F02EFF69460AA805F02AFCE2
:101B200056465146384602F04FFC0246EFA1684641
:101B300005F020FF69460AA805F01CFC802120461C
:101B400002F042FC0246E9A1684605F013FF69462F
:101B50000AA805F00FFC4021204602F035FC0246A1
:101B6000E2A1684605F006FF69460AA805F002FCF6
:101B70003146204602F028FC0246DCA1684605F00A
:101B8000F9FE69460AA805F0F5FB0121D84E00E0F0
:101B9000BAE0304602F018FC0246D4A1684605F0CF
:101BA000E9FE69460AA805F0E5FB0221304602F08D
:101BB0000BFC0246CDA1684605F0DCFE69460AA88A
:101BC00005F0D8FB2021384602F0FEFB0246C7A1F3
:101BD000684605F0CFFE69460AA805F0CBFB402118
:101BE000384602F0F1FB0246C0A1684605F0C2FE8D
:101BF00069460AA805F0BEFB5E465946384602F023
:101C0000E3FB0246B9A1684605F0B4FE69460AA89E
:101C100005F0B0FB4946384602F0D6FB0246B3A1B8
:101C2000684605F0A7FE69460AA805F0A3FB102147
:101C3000384602F0C9FB0246ACA1684605F09AFEA0
:101C400069460AA805F096FB2946384602F0BCFB17
:101C50000246A6A1684605F08DFE69460AA805F071
:101C600089FB0821384602F0AFFB02469FA1684677
:101C700005F080FE69460AA805F07CFB0421384681
:101C800002F0A2FB024699A1684605F073FE694680
:101C90000AA805F06FFB0121384602F095FB0246C9
:101CA00092A1684605F066FE69460AA805F062FB47
:101CB0000221384602F088FB02468CA1684605F0F6
:101CC00059FE69460AA805F055FB3146204602F048
:101CD0007BFB024685A1684605F04CFE69460AA8D2
:101CE00005F048FB4FF48041204602F06DFB0246B0
:101CF0007EA1684605F03EFE69460AA805F03AFB5B
:101D000010220AA97BA04BE12946384602F066FB67
:101D1000024676A1684605F02DFE69460AA805F040
:101D200029FB4FF48041384602F058FB02466FA170
:101D3000684605F01FFE69460AA805F01BFB5946D8
:101D4000384602F04BFB024668A1684605F012FED9
:101D500069460AA805F00EFB4D464946384602F092
:101D60003DFB024661A1684605F004FE69460AA8EB
:101D700005F000FB4FF400684146384602F02EFBA8
:101D800002465AA1684605F0F5FD69460AA805F025
:101D9000F1FA5146384602F021FB024653A168464B
:101DA00005F0E8FD69460AA805F0E4FA4FF4007171
:101DB000204602F013FB02464CA1684605F0DAFD0E
:101DC00069460AA805F0D6FA3146204602F006FB1D
:101DD000024646A1684605F0CDFD69460AA805F011
:101DE000C9FA454C3146204602F0F8FA02463FA1B6
:101DF000684605F0BFFD69460AA805F0BBFA012157
:101E0000204602F0EBFA024638A1684605F0B2FD22
:101E100069460AA805F0AEFA0221204602F0DEFA71
:101E200002466BE0454E434F4445525F544F4E4788
:101E30003A00000046523A00464C3A0000010020A9
:101E40004D6F725F53696C6F0000000047414D4554
:101E5000205041443A0000004C4A4F595F4C523ADE
:101E6000000000006269656E20646F20626F6E671B
:101E70003A2000006269656E2064756E67206261B9
:101E80006E67207461693A0073696C6F5F76756183
:101E90005F636861793A20006269656E5F6E6861B0
:101EA0006E5F626F6E673A20000000007472756F9B
:101EB0006E6720686F703A20000000006C617A65E0
:101EC000206E67616E672078616E683A20000000BE
:101ED000626F6E675F74726F6E675F73696C6F5B62
:101EE000355D3A200000000000100240256400002B
:101EF000000C0240493A000000000240AFF2140119
:101F0000684605F037FD69460AA805F033FA012155
:101F1000384602F063FA0246AFF23001684605F037
:101F200029FD69460AA805F025FA4146204602F037
:101F300055FA0246AFF24C01684605F01BFD6946B2
:101F40000AA805F017FA2946204602F047FA024689
:101F5000AFF26801684605F00DFD69460AA805F074
:101F600009FA8021384602F039FA0246AFF28401BC
:101F7000684605F0FFFC69460AA805F0FBF9402118
:101F8000384602F02BFA0246AFF2A001684605F08F
:101F9000F1FC69460AA805F0EDF911220AA9FEA094
:101FA000FEF78DFB9EE50121FC4802F0A6BE11B4B0
:101FB000FB48416F009A914201DD002101E0416F31
:101FC000491C4167406F18BCC2E42DE9F047002569
:101FD000F44E074601244FF400594FF480484FF463
:101FE000805A00224146304602F006FA1020FEF7E1
:101FF00033FD274201D0012200E00022494630464D
:1020000002F0FAF901224146304602F0F5F91020BB
:10201000FEF722FD5146304602F0D6F900B12543C5
:10202000600010F0FF04DCD12846BDE8F08770B5F1
:10203000DC4E4FF4004500222946304602F0DCF920
:102040001020FEF709FD0120FFF7BFFF4220FFF738
:10205000BCFFFF20FFF7B9FFFF20FFF7B6FFD04C12
:10206000BC342070FF20FFF7B0FF6070FF20FFF747
:10207000ACFFA070FF20FFF7A8FFE070FF20FFF784
:10208000A4FF2071FF20FFF7A0FF607129463046B2
:10209000BDE87040012202F0AFB970B5C14E4FF4F7
:1020A000004500222946304602F0A6F91020FEF72E
:1020B000D3FC0120FFF789FF4220FFF786FF04468B
:1020C00001222946304602F097F91020FEF7C4FCA1
:1020D000204670BDB24A0021803AD163C279B0492E
:1020E000BC310D2A09D0FF20087048708870C87074
:1020F0000871487188710020704702780A70427830
:102100004A7082788A70C278CA7002790A714279FC
:102110004A718079887101207047A148BC30A0F5D0
:102120009E710278FF2A05D14278FF2A02D1827877
:10213000FF2A09D0CA6B531CCB63C82A03DDFF21D9
:1021400001704170817070470020C86370479448E7
:10215000BC30807970479248BC300078400601D48A
:1021600001207047002070478D48BC300078C006C1
:1021700001D4012070470020704701B59DF8000090
:10218000052801D2002008BD9DF8000008BDF0B56B
:10219000834E0027803E1D4606F580744FF0010CEB
:1021A000002806D009DDC0B2FFF7E7FFE070A77096
:1021B0000AE096F86800E07006E04042C0B2FFF71F
:1021C000DCFFE07084F802C0002907D00ADDC8B245
:1021D000FFF7D3FFE07184F806C009E096F86800C5
:1021E000E07105E04842C0B2FFF7C7FFE071A77198
:1021F000002A06D009DDD0B2FFF7BFFFE072A77258
:102200000AE096F86800E07206E05042C0B2FFF7BC
:10221000B4FFE07284F80AC0002D07D00ADDE8B2EE
:10222000FFF7ABFFE07384F80EC0F0BD96F86800CE
:10223000E073F0BD6842C0B2FFF79FFFE073A77381
:10224000F0BD57498031C870C871C872C8737047F3
:1022500053490120C864704751480069A0F5EA411C
:10226000303901D00120704700207047FFF73EBB96
:102270004B488038B0F90800404270474848B5EEF6
:10228000C00A8038D0ED110AF1EE10FA02D230EE19
:10229000600A01E030EE200ABDEEC00A10EE100A1E
:1022A000704710B5041E2DED068B3D489FED3EABEB
:1022B000A0F180009FED3E9BC06F10D014DA05F0B6
:1022C00000FA41EC180B204605F0FBF953EC1A2BF1
:1022D00005F016F953EC192B05F00CF913E09FEDFE
:1022E000360ABDEC068B10BD05F0EBF941EC180B7E
:1022F000204605F0E6F953EC1A2B05F001F953ECF2
:10230000192B05F056F853EC182B05F06BF905F076
:10231000FCF900EE100AE4E7B5EEC00AF1EE10FA9F
:1023200001DAB1EE400A7047002800DA40427047F7
:102330001B49803991ED180AD1ED191AF1EE400AC6
:1023400080EEA11A00EE900AF8EEE00A01EE200AF3
:10235000BDEEC00A10EE100A7047B0EE402A9FEDA5
:10236000170AB5EEC02AF1EE10FA01D2B1EE422AF8
:10237000F5EEC00AF1EE10FA01D2F1EE600AB5EE08
:10238000C01AF1EE10FA01D2B1EE411AF5EEC01A00
:10239000F1EE10FA16D213E04F3A0000A0600240AE
:1023A00080000020000C0240333333333333D33FFB
:1023B0009A9999999999B93F000000006F12833A50
:1023C000F1EE611AB4EEC02AF1EE10FA01DDB0EEC2
:1023D000420AF4EEC00AF1EE10FA01DDB0EE600A36
:1023E000B4EEC01AF1EE10FA01DDB0EE410AF4EEDF
:1023F000C01AF1EE10FA01DDB0EE610A7047F9483B
:10240000C06F7047F7488030806A704770B5F54CF0
:10241000F44D80342DED048BB0EE408A2069A0F598
:10242000EA4130393FD0E269216B95ED141A891ADF
:10243000401A00EE100AB8EEC00AC0EE010A95ED8F
:10244000150A30EE800AD5ED1C0A60EE208AB0EE47
:10245000680A05F05FFBB0EE009A20EE090A84EDF1
:10246000120AB0EE680A05F0ADFA60EE090AC4ED92
:10247000110A94ED121A94ED090A31EE001A30EEA9
:10248000C00A84ED0F1A84ED100A00BFB5EEC08AB1
:10249000F1EE10FA6ED0A86F05286BD2DFE800F0DD
:1024A0000E1F324156001FED3C0A84ED120A84EDE6
:1024B000110A84ED100A84ED0F0AE7E794ED0F0A84
:1024C00030EE080A84ED0F0A94ED100A30EE480A47
:1024D00084ED100A94ED110A30EE080A1EE094ED26
:1024E000100A30EE480A84ED100A94ED110A30EE1D
:1024F000080A84ED110A94ED120AD5ED120A08EECD
:10250000600A20E094ED0F0A30EE080A84ED0F0A0D
:1025100094ED110AD5ED120A08EE200A84ED110A95
:102520000DE094ED0F0A30EE080A84ED0F0A94EDE9
:10253000100AD5ED120A08EE600A84ED100A94ED37
:10254000120A30EE480A84ED120A13E094ED0F0AE5
:10255000D5ED120A08EE200A84ED0F0A94ED100A58
:1025600030EE480A84ED100A94ED110A30EE080AA4
:1025700084ED110A04F13C0090EC040AFFF7EDFE33
:10258000D5ED100AF8EEE00A80EE801ABDEEC10A21
:1025900010EE100A6060E96F814200DDE8670120FB
:1025A0006867BDEC048B70BD8E4900228031002825
:1025B0000A60886010D18B481FED810A47F23053C2
:1025C000C26781ED090A0B614B6181ED080A8267E0
:1025D0008A618A62CA6419E77047824881498030FB
:1025E00090ED080AB5EEC00AF1EE10FA04D18A6F38
:1025F00012B98269002A09D01FED910A002280EDEC
:10260000080A8A678261016BC161FFE670477548FD
:10261000C0ED180A80ED190A7047724A80321369BA
:10262000834209D113688B4206D1D2ED090AF4EE38
:10263000400AF1EE10FA0FD011606A49CB6F0BB966
:102640000523CB67116BD16182ED090A106100206F
:10265000D06092ED080AD9E67047F0B4614B614C46
:1026600080339D69854209D1D3ED080AF4EE400A12
:10267000F1EE10FA02D1A56F8D4225D01E6947F206
:102680003055AE4218D11A600522E267A84213DA2B
:10269000B5EEC00A0122F1EE10FA9A6202DD1A6B61
:1026A000824207DCB5EEC00AF1EE10FA04D21A6BD2
:1026B000824201DAB1EE400A9861A16783ED080A0F
:1026C0000020D860F0BCA1E6F0BC70470A46014685
:1026D00047F23050C1E71FEDC80A9EE770B5414C84
:1026E00005462DED028B8034F0EE608AD4ED050AAC
:1026F000B0EE418AF8EEE00AF4EE400AF1EE10FA8C
:102700000BD12068A84208D1D4ED060AF8EEE00A01
:10271000F4EE680AF1EE10FA4AD0FDEEC00AC4EDFC
:10272000050AD4ED0C0AF8EEE00A30EE600ABDEEC0
:10273000C00A10EE100A1FEDE00A2946FFF76DFFF0
:1027400094ED0C0AF8EEC00A78EEE00AFDEEE00A1D
:1027500010EE903A002B00DA5B42B8EEC00A642B10
:1027600019DDF4EEC08AF1EE10FA01DCB1EE488A10
:1027700018EE100A04F0B6FF04F0C7FFFDEEE80AF9
:10278000BDEC028B2A46BDE8704000EE100A002125
:1027900010EE900A61E738EEC00A10EE100A04F05D
:1027A000A1FF9FED111B53EC112B04F0A9FEE3E7F1
:1027B000BDEC028B70BD0B4910B58031886A0128D1
:1027C0002DDD0A6B8869801AFFF7AEFD06280FDA47
:1027D000886A421C8A62B0F5FA7F20DDBDE81040AD
:1027E0000020E1E6000000207B14AE47E17A743F50
:1027F0000520F84A8B6A0860FA2BD06701DDFB20C0
:1028000088628A69086B904202DDBFEE000A01E02F
:10281000B7EE000A81ED080ABDE81040F6E510BDEC
:1028200070B5EC49803191ED090AB5EEC00AF1EEC0
:1028300010FA72D1E74AD36F002B6ED0886947F245
:102840003054A04269DA91ED080AB5EEC00AF1EE03
:1028500010FA7CD00D69A54260D1B5EEC00A1346CE
:10286000F1EE10FADB6D03DD0D6BC41AAC4208DB30
:10287000B5EEC00AF1EE10FA17D20C6B0344A34276
:1028800013DD8B6A032B48DA0B6BC01AFFF74CFD84
:102890000A2888690ADAC8620020D0679FEDCE0A4C
:1028A000086081ED080A0220886278E092ED1F0A34
:1028B000D1ED080A0B6BB8EEC00A984260EE200A10
:1028C00092ED170AB8EEC01A80EE810A0FDDFFF70D
:1028D00023FD8869096B401AFFF726FD00EE900A78
:1028E000B8EEE01AD2ED130A40EE010A0EE0FFF74F
:1028F00013FD8869096B401AFFF716FD00EE900A78
:10290000B8EEE01AD2ED130A50EE410A92ED1F0A1A
:10291000B8EEC01A80EE810A41E045E0AD4AB5EE5E
:10292000C00AD2ED160AF1EE10FA18DD01EE100A17
:10293000F8EEC11A01EE103AB8EEC11A41EE401A93
:10294000B8EEE01A71EEC11A91ED0C1A00E029E020
:10295000B8EEC11AF4EEC11AF1EE10FA1BD3B5EEBF
:10296000C00AF1EE10FA1AD201EE100AF8EEE00AEF
:10297000F8EEC11A01EE103AB8EEC11A41EE401A53
:1029800031EEA01AD1ED0C0AF8EEE00AB4EEE01A2E
:10299000F1EE10FA03DD096B401AFFF782FCBDE887
:1029A000704033E5C869F6E770BD8A4989488031CF
:1029B0008A6A022A0CDA9FED880A002381ED090A4F
:1029C00081ED080A47F2305283670A61C1E90523A5
:1029D000CB685B1CCB60C26E7E489342806E01DB8D
:1029E000CA60C96C2DE47B4A8032D3685B1CD3601B
:1029F000834205DD7748C36F1944C1670020D0606A
:102A0000704770B5FFF734FC724C80342063FFF7D9
:102A1000D2FE704D22684FF0FF31E86F002A0BDDC7
:102A200090420ED006DA616888420ADAFFF780FC2D
:102A3000022104E0A06B02E000283CDDA068FFF763
:102A4000D2FFD4E90C01814203D0FFF7E9FE206BED
:102A50006063686F002831D095ED1F0AD4ED120A2B
:102A6000B8EEC00A20EE200AFFF708FC95ED1F0A19
:102A7000D4ED110A0346B8EEC00A20EE200AFFF793
:102A8000FDFB95ED1F0AD4ED100A0246B8EEC00A10
:102A900020EE200AFFF7F2FB95ED1F0AD4ED0F0A96
:102AA0000146B8EEC00A20EE200AFFF7E7FBBDE8BA
:102AB0007040FFF76CBBBDE8704076E770BD2DE954
:102AC000F05F46498878401FF52801D8012500E0CD
:102AD00000250879401FF52801D8012700E00027CC
:102AE0003E4A08785278C3060DD543060BD58306B7
:102AF00009D5030607D535B12FB1930603D5BDE837
:102B0000F05F022050E5530702D43226142403E07C
:102B1000D20719D01E260A248B46DFF8B880C106DA
:102B2000DFF8B0A008F1800847F230594FEA406161
:102B30000DD400295ADA81064FEA006024D5002816
:102B4000314627DA00202EE00A260724E4E7002990
:102B50004FEA806109DB00294FEA00601CDA002897
:102B600031461FDA4FF4E1601DE000294FEA0060B2
:102B700005DB00283ADA31464FF4617013E0002893
:102B80001DDB314616480EE000282FDA31464FF49F
:102B9000E17008E0134806E0002827DA314640F2E9
:102BA000465000E01048FFF796FD9BF80000C10674
:102BB0001CD541061AD5810618D5000616D5B5B91B
:102BC000C7B1D8F81010494514D00520FFF7ECFC28
:102BD00010E0000000000020000000003C01002088
:102BE0007CFCFFFF3EFEFFFFBAFAFFFF15B1FFF7C7
:102BF000F4FC31E09BF8021001225846052912D25C
:102C00004378DB070FD0D8F81010494504D031467F
:102C10000020BFEE080A14E08AF800202346624232
:102C20001046194616E0FA291CD99BF80100C00786
:102C300018D0D8F81010494506D031460020B7EE1C
:102C4000080AFFF743FD07E08AF8002063422246A6
:102C500019461046FFF79BFA00218AF80010BDE8DC
:102C6000F05FBAE402231A4619461846F2E730B577
:102C7000FB48FC4D1424436E591C416601468A6E84
:102C80000021142B03D22B881A44826604E0B2FB85
:102C9000F4F2416682678166C36E5A1CC266F04ACE
:102CA000142B126F02D2E989114403E0B2FBF4F253
:102CB000C267C166016730BD70B5E94CEA4DBC34EE
:102CC0006078C00604D401224021284601F094FB1C
:102CD0006078400616D400224FF48071E34801F07A
:102CE0008BFB012294032146284601F085FB4FF41B
:102CF000FA70FDF7BDFE21462846BDE8704000226F
:102D000001F07ABB70BD7047704770B5D44CD74E98
:102D1000BC344FF480756078C10601D4002202E013
:102D2000400616D401222946304601F065FB607842
:102D3000C00604D401222946304601F05DFB6078CC
:102D4000400606D429463046BDE87040002201F016
:102D500053BB70BD704710B5FEF7DCFDBDE81040F9
:102D6000FEF7B7BDBE490128A1F180020AD00228B2
:102D70000BD003280DD004280ED0052808D191F8D7
:102D8000500004E091F8600001E091F85C00D07020
:102D9000704791F85800FAE791F85400F7E770B5DA
:102DA0000122B24D54022146284601F025FBB04EC7
:102DB0004021304601F008FB0128F9D000222146CD
:102DC000284601F019FBA649A6488039CC38096A83
:102DD00050F82120521C40F82120BDE87040BAE78D
:102DE00010B52DED028BFEF774FD02219E4801F017
:102DF000EBFA012827D01FED888A6420B0EE480A3C
:102E0000B0EE401AF0EE400AFFF768FC40F6B83426
:102E100003E000BFFFF7A8F918B9FDF70FFEA042C5
:102E2000F8DBFEF756FD1420FDF722FEF0EE480A0F
:102E30001E20B0EE601A9FED8F0AFFF74FFC884806
:102E4000C06F6428FDDCBDEC028B10BD70B52DEDAC
:102E5000028BFFF780FF824B803B186AFFF782FFEF
:102E6000002098700221804801F0AEFA4FF4FA7405
:102E70001FEDA78ADFED808A01282DD0FEF729FDFE
:102E8000F0EE480A0A20B0EE601AB0EE680AFFF7CA
:102E900025FC41F2883500BFFDF7D0FDA842FBDBE1
:102EA000FEF717FDF0EE480A1E20B0EE601AB0EEF5
:102EB000680AFFF713FC4FF4FA6500BFFDF7BEFD8B
:102EC000A842FBDB0220FFF76FFBBDEC028B204624
:102ED000BDE87040FDF7CCBDFEF7FBFCF0EE480A04
:102EE0000A20B0EE601AB0EE680AFFF7F7FB40F672
:102EF000B83500BFFDF7A2FDA842FBDBFEF7E9FCF9
:102F0000F0EE480A1E20B0EE601AB0EE680AFFF735
:102F1000E5FB5348C16FC829FDDBD3E72DE9F0413C
:102F200002212DED028B504801F04EFA4D4D002646
:102F30000127E43D1FEDD88A494C803C0128206AD6
:102F40000AD0FFF70FFF2868DFF82481012876D028
:102F5000206A012872D0A3E0FFF704FF2868012847
:102F60001FD101210020FDF70AFDC0B26070216A67
:102F7000012907D0052907D005EB81014A68032AFA
:102F800004D004E0677016E066701DE020B151F8CF
:102F9000041C032902D004E0677002E0012800D17C
:102FA0006670206A002801DD617869B1062829DA97
:102FB0006078012826D1206A55F82000012825D004
:102FC000032823D0206A34E0206A55F82000012825
:102FD00003D0032801D0206A11E0F0EE480A142043
:102FE000B0EE601A9FED230AFFF778FBFDF726FD90
:102FF000E17814318842F9DB206A401E2062012802
:1030000000D16770BDEC028BBDE8F081F0EE480A9C
:103010001420B0EE601A9FED190AFFF75FFB00BFA6
:10302000FDF70CFDE17814398842F9DB206A401E77
:1030300020620528E6D16670E4E700E021E0012186
:103040000020FDF79CFCC1B26170206A012817D0F6
:10305000052818D005EB80004268032A15D016E039
:1030600080000020D002002000040240000802403E
:1030700000100240000061C40000E144000061440F
:103080006670667017E067701EE0012904D050F882
:10309000040C032802D003E0667001E001B96770F8
:1030A000206A002804DD617801290DD00628A9DAFC
:1030B00060780028A6D1206A55F8200001283DD06C
:1030C00003283BD0206A61E055F82010032903D182
:1030D000401E2062FFF746FE206A55F820000128B6
:1030E00003D0032801D0206A24E0BEEE001AFAEED5
:1030F000040A14209FEDFB0AFFF7F0FAFDF79EFC8F
:10310000E17814318842F9DBBEEE001AFAEE040AC7
:1031100005209FEDF50AFFF7E1FA454620212846F4
:1031200001F052F90128F9D00220FFF73DFA206A98
:10313000401E206201283FF47EAF63E7B0EE481ADC
:10314000F1EE080A1420DFEDE98AB0EE680AFFF715
:10315000C5FA00BFFDF772FCE17814398842F9DB4B
:10316000B0EE481AF1EE080A0520B0EE680AFFF743
:10317000B5FA45462021284601F026F90128F9D064
:103180000220FFF711FA206A401C206205283FF454
:1031900038AF37E72DE9F047D54D0126D54C6869A2
:1031A00001281DD1686801281AD1A868012817D103
:1031B000E868012814D12869012811D12E6005F191
:1031C0001801A661A06951F820202AB155F82020E5
:1031D000032A01D0206203E0401CA0610528F1DD34
:1031E000C54F0421384601F0EFF8012809D0042129
:1031F000384601F0E9F84FF000094FF0030810B12C
:103200000CE0A67023E00821384601F0DDF828B96B
:103210004FF40041384601F0D7F828B10421384670
:1032200001F0D2F818B107E084F8029015E0082107
:10323000384601F0C9F878B10421384601F0C4F8E5
:10324000002807D1286801280BD084F80290206A52
:1032500045F82060BDE8F087A670216A45F8218016
:10326000F8E7206A022145F820102063A670F1E7F4
:1032700010B5FFF78FFF9F488078012802D1BDE885
:1032800010408CE510BD70B5FFF784FF4FF47A74E1
:10329000984D06E0FFF742FE2046FDF7E9FBFFF7F9
:1032A00079FFA8780028F5D070BD10B52DED028B00
:1032B000FEF70FFB8F4C01202062FFF7C7FD9FED4B
:1032C0008F8A1E20F0EE480AB0EE601A1FED970AB2
:1032D000FFF704FA04F180004FF4FA71C06F8842DE
:1032E000FDDCF0EE480A1420B0EE601A1FED9E0AD5
:1032F000FFF7F4F9FDF7A2FB6428FBDBFFF7C3FF40
:10330000206A60629FE510B52DED028BFEF7E1FAB1
:10331000784C02202062FFF799FD9FED788A1E20ED
:10332000F0EE480AB0EE601A1FEDAE0AFFF7D6F9CC
:1033300004F180004FF4C871C06F8842FDDCF0EEEC
:10334000480A1420B0EE601A1FEDB50AFFF7C6F95F
:10335000FDF774FB6428FBDBFFF795FF206A6062D2
:1033600071E510B52DED028BFEF7B3FA614C032029
:103370002062FFF76BFD9FED618A1E20F0EE480A88
:10338000B0EE601A1FEDC50AFFF7A8F904F180003E
:103390004FF49671C06F8842FDDCF0EE480A1420AD
:1033A000B0EE601A1FEDCC0AFFF798F9FDF746FB67
:1033B0006428FBDBFFF767FF206A606243E510B516
:1033C0002DED028BFEF785FA4A4C04202062FFF7B0
:1033D0003DFD9FED4A8A1E20F0EE480AB0EE601ACD
:1033E0001FEDDC0AFFF77AF904F18000C06FC828EE
:1033F000FDDCF0EE480A1420B0EE601A1FEDE20A80
:10340000FFF76CF9FDF71AFB6428FBDBFFF73BFFC6
:10341000206A606217E570B52DED028BFEF759FA50
:10342000344C05202062FFF711FD9FED348A1E20E9
:10343000F0EE480AB0EE601A1FEDF20AFFF74EF9FF
:103440004FF47A75FDF7FAFAA842FBDCFEF741FA71
:103450006420FDF70DFBF0EE480A1420B0EE601A70
:103460001FEDFB0AFFF73AF9234E4FF4804529463A
:10347000304600F0A9FF0128F9D0FFF704FF206AC9
:103480006062BDEC028B70BD70472DE9F05F2DEDE1
:10349000028BFFF760FC174F002607F580747E63F0
:1034A000BE63BE704FF0FE0884F81380A674DFF888
:1034B00050B001225102584600F09EFF01224021E7
:1034C000104800F099FF9FED0D8A0A20B0EE480ADF
:1034D000B0EE401AF0EE400AFFF700F94FF48079A1
:1034E000054D5AE0000070440080894400007AC411
:1034F000EC0100200000002000100240000000004D
:1035000000080240000402405046FDF7B1FA01E015
:1035100040F68C2A0221284600F056FF0128F3D0FD
:103520004946284600F050FF0128EDD084F813806A
:10353000A6744021284600F047FF0128F9D0002258
:103540004FF40071584600F057FF01224946584693
:1035500000F052FF84F813804FF0010C84F812C081
:103560006420FDF785FAE67487F802C03220FDF783
:103570007FFAFEF7AEF9F0EE480A0A20B0EE601AC4
:103580009FEDFA0AFFF7AAF84FF4FA7AFDF756FA18
:103590005045FBDB0220FFF707F81021284600F01A
:1035A00013FF012805D14103284600F00DFF012833
:1035B000AED0BDEC028BBDE8F09F2DED028BFFF786
:1035C000CAFBDFF8ACA34FF0000B0AF58071CAF814
:1035D00034B0CAF838B08AF802B0FE26CE7481F84A
:1035E00012B0DFF890834FF400790122494640463B
:1035F00000F002FF01224021DF4800F0FDFE1FED38
:10360000418A0A20B0EE480AB0EE401AF0EE400AB5
:10361000FFF764F80127D94C80E000BF4FF48075B4
:103620000221204600F0D0FE0128F9D0294620468C
:1036300000F0CAFE0128F3D00220FEF7B5FF0022F9
:103640004021CD4800F0D8FE01221102404600F092
:10365000D3FE4FF480552946204600F0B5FE0128E0
:10366000F9D0C74DEE74AF7400224946404600F0D1
:10367000C3FE01221102404600F0BEFE4FF4FA7074
:10368000FDF7F6F901224946404600F0B5FE85F8FF
:1036900013B04021204600F097FE0128F9D0002207
:1036A0004946404600F0A8FEEE74AF744FF49670A1
:1036B000FDF7DEF9F0EE480A3220B0EE601A9FED19
:1036C000AB0AFFF70BF8FDF7B9F95546CAF81C002D
:1036D00003E000BFFEF748FD28B9FDF7AFF9E9693F
:1036E00064398842F6DC0220FEF75EFF4FF4C870B2
:1036F000FDF7BEF964220021B6EE000A47F2305011
:10370000FEF7ABFF9A494FF46172803103E000BFCE
:10371000FEF72AFD10B9086B9042F9DB1021204614
:1037200000F052FE0128F9D14103204600F04CFE82
:103730000128F3D172E72DE9F05F2DED028BFFF741
:103740000AFB8B4C00268E4D6663A663A6704FF075
:10375000FE0985F81390AE74DFF818A20122510219
:10376000504600F049FE01224021834800F044FE0B
:103770001FED9E8A0A20B0EE480AB0EE401AF0EE25
:10378000400AFEF7ABFF7D4F1021384600F01CFECB
:1037900001287CD0ACE000BF4FF4807B594638460E
:1037A00000F012FE0128F9D00221384600F00CFE8C
:1037B0000128F3D04FF00108C4F8348085F8139045
:1037C00085F8128042465946504600F015FE002208
:1037D0004021694800F010FE0220FEF7E5FE4FF49C
:1037E00080594946384600F0EFFD20B9402138465F
:1037F00000F0EAFD88B1C8464946384600F0E4FDCD
:1038000080B14021384600F0DFFD80B141463846A6
:1038100000F0DAFD01280FD02CE04FF4FA60C4F874
:1038200038801EE00220A0634FF4966019E0032068
:10383000A0634FF42F7014E04021384600F0C4FD1F
:10384000012817D10420A06303E000BFFEF783FC2A
:1038500028B94146384600F0B7FD0128F6D04FF4AC
:103860004870FDF705F900224FF40071504600F052
:10387000C3FDEE74FDF7E2F8F0EE480AE061B0EE49
:10388000601A32209FED390AFEF728FF03E027E097
:10389000FEF76AFC28B9FDF7D1F8E169C83988421A
:1038A000F6DC0220FEF780FEC820FDF7E1F8FEF707
:1038B00010F864220021B6EE000A47F23050FEF7FD
:1038C000CCFE2B494FF46172803102E0FEF74CFCD4
:1038D00010B9086B9042F9DB0220FEF77EFE07E08C
:1038E0004FF40051384600F06FFD01283FF454AF0B
:1038F000606B012807D066630220BDEC028BBDE837
:10390000F05FFEF751BE54E62DE9F05F02212DED88
:10391000068B194800F058FD154C9FED1AAADFEDF3
:103920001AAADFED1A8ADFED119ADFF850909FEDA9
:10393000188A80344FF4FA6A4FF47A6B4FF4804659
:1039400040F62E1540F6B83847F23057012821D0FE
:10395000FFF701FAB0EE699AB0EE681AFEEE000ABF
:103960009620B0EE490AFEF7B9FEF6E00000E14409
:103970000000002000080240000402400010024045
:103980000001002000C0DAC4CDCC4CBECDCC4C3EF2
:1039900000000000FFF7DFF9B0EE689AF0EE698AE8
:1039A000B0EE491AFEEE000A9620B0EE680AFEF765
:1039B00095FE02E0FEF7CFFB18B9FDF73FF8504542
:1039C000F8DBB0EE491AF6EE000A7820B0EE680A8D
:1039D000FEF784FE03E000BFFEF7BDFB18B9FDF75C
:1039E0002DF85845F8DB46214FF4E160FEF773FEF1
:1039F0004FF4965A03E000BFFEF7ADFB18B9FDF790
:103A00001DF85045F8DBB0EE491AF6EE000A142016
:103A1000B0EE4A0AFEF762FEB2464E4603E000BF31
:103A2000FEF799FB28B95146304600F0CDFC01283D
:103A3000F6D00220FEF7B8FDFFF78DF9B0EE6A1A56
:103A4000F6EE000A32209FEDF80AFEF747FE40F638
:103A5000746602E0FEF77FFB18B9FCF7EFFFB04297
:103A6000F8DB0220FEF7A0FDFDF733FFF0EE480A79
:103A70003220B0EE601AB0EE680AFEF72FFE02E0C8
:103A8000FEF769FB18B9FCF7D9FFA842F8DB022062
:103A9000FEF78AFDC820FCF7EBFF96220021B6EE68
:103AA000000A3E463846FEF7D8FD4FF4617502E045
:103AB000FEF751FB10B9206BA842F9DB142200215C
:103AC000BEEE000AB1463046FEF7C7FD40F27A3638
:103AD00003E000BFFEF73FFB10B9206BB042F9DCFA
:103AE000FFF739F9B0EE480A3220B0EE401AF0EE96
:103AF000400AFEF7F3FD474603E000BFFEF72BFB4D
:103B000018B9FCF79BFFB842F8DB0220FEF74CFD2A
:103B1000C820FCF7ADFF96220021B6EE000A4F4602
:103B20004846FEF79AFD02E0FEF715FB10B9206B40
:103B3000A842F9DB14220021BEEE000A3846FEF747
:103B40008CFD03E0FEF707FB002802D1206BB0429A
:103B5000F8DCCDE0FEF7FFFA18B9FCF76FFF50452F
:103B6000F8DBB0EE681AF6EE000A7820B0EE490AEB
:103B7000FEF7B4FD03E000BFFEF7EDFA18B9FCF75D
:103B80005DFF5845F8DB46214FF4E160FEF7A3FDE9
:103B90004FF4965A03E000BFFEF7DDFA18B9FCF7C0
:103BA0004DFF5045F8DBB0EE681AF6EE000A14201F
:103BB000B0EE4A0AFEF792FDB2464E4603E000BF61
:103BC000FEF7C9FA28B95146304600F0FDFB01283E
:103BD000F6D00220FEF7E8FCFFF7BDF8B0EE6A1A57
:103BE000F6EE000A32209FED910AFEF777FD40F6CF
:103BF000746602E0FEF7AFFA18B9FCF71FFFB04297
:103C0000F8DB0220FEF7D0FCFDF763FEF0EE480A79
:103C10003220B0EE601AB0EE490AFEF75FFD02E016
:103C2000FEF799FA18B9FCF709FFA842F8DB022061
:103C3000FEF7BAFCC820FCF71BFF96220021BEEE5F
:103C4000000A3D463846FEF708FD794E03E000BF06
:103C5000FEF781FA10B9206BB042F9DC1422002182
:103C6000B6EE000AA9462846FEF7F7FC704D0A3565
:103C700003E000BFFEF76FFA10B9206BA842F9DB32
:103C8000FFF769F8B0EE480A3220B0EE401AF0EEC5
:103C9000400AFEF723FD474603E000BFFEF75BFA4C
:103CA00018B9FCF7CBFEB842F8DB0220FEF77CFC2B
:103CB000C820FCF7DDFE96220021BEEE000A4F462A
:103CC0004846FEF7CAFC02E0FEF745FA10B9206B41
:103CD000B042F9DC14220021B6EE000A3846FEF7A5
:103CE000BCFC02E0FEF737FA10B9206BA842F9DB02
:103CF0000220FEF759FCBDEC068B6420BDE8F05FA6
:103D0000FCF7B6BE10B54B4C206B012801D1FFF774
:103D1000CCFA206B022801D1FFF7F5FA206B0328BB
:103D200001D1FFF71EFB206B042801D1FFF747FBF1
:103D3000206B052803D1BDE81040FFF76CBB10BD18
:103D40003D4A30B410683B4901280DD0486A052827
:103D500029D004282AD003282BD0022820D00128DB
:103D60002AD130BCFFF757BB0120334B8861183391
:103D700053F820402CB152F82040032C01D00862A7
:103D800002E0401C0528F3DD8861086A0528E8D0B8
:103D9000042808D0032809D002280AD001280BD112
:103DA00030BCFFF782BA30BCFFF709BB30BCFFF76D
:103DB000D8BA30BCFFF7A7BA30BC7047FFF765FB35
:103DC0001C4C206A012808D0022809D003280AD0F8
:103DD00004280BD005280CD00DE0FFF766FA0AE0A6
:103DE000FFF791FA07E0FFF7BCFA04E0FFF7E7FA04
:103DF00001E0FFF710FBFFF7CDF906E0FFF7CAF986
:103E0000A07801281AD0FFF789F8A0780028F5D00B
:103E10000025A570FEF7E4FFFFF737FB206B80B1AC
:103E2000FFF770FF256316E000007AC400007A44B3
:103E30007CFCFFFF00000020EC010020FEF7AFFF3C
:103E4000E6E7FFF77DFF06E0FFF7A4F9A078012879
:103E500006D0FFF763F8A0780028F5D0A570DBE75F
:103E6000FEF79DFFFEF7BCFFF5E74C490120086215
:103E700002214B4800F0A8BA484902200862704766
:103E8000464903200862704744490420086270478D
:103E90004249052008627047FFF78FFB1120FEF7AB
:103EA00086F80F2002F0E3FEF8E700BFFEF72DFFD3
:103EB0000A2002F0DCFEF9E7384C00BFFEF7D7FE1F
:103EC000207808B9FEF79DFD052002F0D0FEF5E749
:103ED0001FB5FCF7D9FDFCF70AFEFCF73FFFFCF726
:103EE000E0FFFDF799F8FDF70CF9FCF780FE4FF4C1
:103EF000E1342046FDF7C8F92046FDF747FA204691
:103F0000FDF7CAFAE000FDF7E6FBFDF7EFFCFDF771
:103F1000E0FC00244FF48075009401940294234641
:103F20002A4620A12448039402F0CAFC009401947C
:103F3000029400232A4621A12548039402F0C0FCE4
:103F4000244C0B25154E07E0FEF7B9FD207800073D
:103F500002D4F562FFF7EFFBA0797328FCD1F3E7F9
:103F60007FB500244FF48075009401940294234699
:103F70002A4619A11B48039402F0A2FC0094019464
:103F8000029400232A4618A11A48039402F098FCD0
:103F900002F0BCFF04B0002070BD00000000002053
:103FA000000402407461736B526F626F74416E6102
:103FB0006C79746963730000B93E00087461736BB7
:103FC000446965754B6869656E436F4361750000B0
:103FD000AB3E00083C0100207461736B4D61696E5B
:103FE00000000000D13E00087461736B4779726F66
:103FF000000000009D3E00080CB5002051490190D2
:1040000000900A6842F480320A604FF4A0630A68A4
:1040100002F400320092019A521C0192009A12B9E5
:10402000019A9A42F3D10A68920334D50120009094
:1040300044484030026842F08052026042480268C0
:1040400042F4804202603F48083002680260026821
:1040500042F400420260026842F4A0520260031F70
:104060003A4A1A600A6842F080720A600A6892014D
:10407000FCD5374A40F205611160016821F0030167
:104080000160016841F0020101600168C1F3810132
:104090000229FAD10CBD00900CBD2A4810B5016868
:1040A00041F001010160274A0021083211600268D5
:1040B000284B1A400260031D274A1A60026822F446
:1040C000802202601F480C300160FFF795FF2349F2
:1040D0004FF00060086010BD70B51A4C08342068BD
:1040E0001F4A10F00C011F4804D05510042903D0BA
:1040F000082903D002601BE0056019E01149091D81
:104100000B68C3F380560B6803F03F0316B1B5FB91
:10411000F3F201E0B2FBF3F20B680968C3F3881312
:104120005A43C1F30141491C4900B2FBF1F101605E
:1041300021680C4AC1F30311121D515C0268CA4088
:10414000026070BD00380240007000400854400713
:10415000003C0240FFFFF6FE1030002408ED00E0B6
:104160000024F40058010020064880470648004714
:10417000FEE7FEE7FEE7FEE7FEE7FEE7FEE7FEE717
:10418000FEE7FEE79B400008890100082849084334
:1041900028490860704730B50F22C47801780123A0
:1041A000FCB1244C246801F1E02104F4E064C4F57E
:1041B000E064C4F30724C4F10405E2404478AC4051
:1041C0008578154025432A0181F80024007800F005
:1041D0001F018B404009800000F1E020C0F8003151
:1041E00030BD01F01F0083404809800000F1E0204D
:1041F000C0F8803130BD104A114001430D48001F06
:10420000016070470B4A121D0029116801D001435B
:1042100000E08143116070474FF0E02104280869F5
:1042200003D020F004000861704740F00400FAE772
:104230000000FA050CED00E080FFFF1F7C4910B57F
:10424000884206D10121084600F058FA00210120D9
:104250004FE07849884206D10121022000F04EFA51
:104260000021022045E07449884206D10121042042
:1042700000F044FA002104203BE07049884206D156
:104280000121082000F03AFA0021082031E06C49B1
:10429000884206D10121102000F030FA00211020C0
:1042A00027E06849884206D10121202000F026FA43
:1042B000002120201DE06449884206D101214020D0
:1042C00000F01CFA0021402013E06049884206D12A
:1042D0000121802000F012FA0021802009E05C49D1
:1042E00088420AD184150121204600F007FA0021F6
:1042F0002046BDE8104000F001BA10BDF0B5002323
:10430000012403270D6804FA03F21540954242D1B7
:10431000D0F800C05E0007FA06F52CEA050CC0F8DC
:1043200000C091F804C0D0F800E00CFA06FC4CEA9A
:104330000E0CC0F800C091F804C0BCF1010F02D00F
:10434000BCF1020F1FD1D0F808C02CEA050CC0F850
:1043500008C091F805C0D0F808E00CFA06FC4CEA59
:104360000E0CC0F808C0D0F804C02CEA020CC0F84B
:1043700004C0426891F806C00CFA03FC1FFA8CFCDA
:1043800042EA0C024260C268AA43C260CA79C568A8
:10439000B2402A43C2605B1C102BB3D3F0BD4FF672
:1043A000FF7101600021017141718171C17170471C
:1043B00008B541F480320092C261C1610099C161C7
:1043C000C169C069009008BD0246002012690A4216
:1043D00000D001207047006980B27047024600207B
:1043E00052690A4200D001207047406980B270478C
:1043F00001837047418370470AB10183704741834D
:1044000070474161704742694A40426170474B07BB
:10441000DB0E9A40C90810B500EB8100016A0F2439
:104420009C40A1430162016A1143016210BD00007A
:10443000000002400004024000080240000C02405C
:10444000001002400014024000180240001C02400C
:1044500000200240EA48016841F001010160E84A99
:104460000021083211600268E64B1A400260031D09
:10447000E54A1A60026822F480220260E0480C30AB
:1044800001607047DE490022891C0A70087070477D
:1044900002460020510901290CD002290CD0D8492C
:1044A0007431096802F01F02012393400B4200D0CF
:1044B00001207047D249F4E7D1497031F1E718B5CE
:1044C00000204FF4A06400903120FFF7E1FF009935
:1044D000491C0091A14201D00028F5D03120FFF7FE
:1044E000D7FF002800D0012018BDC5490A6822F076
:1044F000F80242EAC00008607047C449086070478B
:10450000BF49002270310A700A70012802D00428C5
:1045100001D1052008707047BD490860704741EA25
:1045200082115A0810B5BB4B029C03EB02421143A7
:10453000014341EA0460B249091D086010BDB34956
:1045400008667047800140EA0170AD498431086017
:104550007047AE4988667047AC49C8647047A84A3E
:1045600008321368084323F0EC6318431060704767
:10457000A34A08321368084323F0784318431060B5
:1045800070479F4A0832116821F00301014311600E
:1045900070479B480830006800F00C007047984A4C
:1045A0000832116821F0F001014311607047944A0C
:1045B0000832116821F4E0510143116070479049BD
:1045C00008310A6822F4604242EAC000086070477D
:1045D00070B58B4A083211688F4C11F00C0104D071
:1045E0006610042903D0082903D004601BE006608C
:1045F00019E08349091D0B68C3F380550B6803F06C
:104600003F0315B1B6FBF3F301E0B4FBF3F30C6821
:104610000968C4F388146343C1F30141491C49008C
:10462000B3FBF1F1016011680F2303EA11117B4B19
:104630005C5C0168E14041601468072505EA942448
:104640001C5D21FA04F48460126805EA52329A5C17
:10465000D140C16070BDC0F30121032908D1684A6F
:104660000832116821F4F8136D49014019431160B3
:10467000634970310A68C0F30B0002430A60704757
:1046800063494439086070476149403908607047A0
:104690005E49C1F85C017047594A303200291168FF
:1046A00001D0014300E0814311607047544A343225
:1046B0000029116801D0014300E081431160704777
:1046C0004F4A38320029116801D0014300E081438C
:1046D000116070474A4A40320029116801D00143F5
:1046E00000E0814311607047454A44320029116857
:1046F00001D0014300E0814311607047404A10320D
:104700000029116801D0014300E081431160704726
:104710003B4A14320029116801D0014300E0814373
:1047200011607047364A18320029116801D00143E0
:1047300000E0814311607047314A2032002911683E
:1047400001D0014300E08143116070472C4A2432BC
:104750000029116801D0014300E0814311607047D6
:10476000274A50320029116801D0014300E08143FB
:1047700011607047224A54320029116801D0014368
:1047800000E08143116070471D4A583200291168CA
:1047900001D0014300E0814311607047184A603244
:1047A0000029116801D0014300E081431160704786
:1047B000134A64320029116801D0014300E08143AB
:1047C000116070470E4A0D320029117801D0014363
:1047D00000E081431170704709487430016841F06E
:1047E0008071016070470146054A00200C32126852
:1047F0000A4200D00120704701490E31087070470D
:1048000000380240FFFFF6FE10300024000047424F
:10481000800E47420000FFFF0024F4006C010020DE
:10482000FFFCFF0F10B501210C022046FFF78EFFA1
:104830002046BDE810400021FFF788BF30B5426830
:10484000C84B0C791A400B6842EA042213434360B8
:104850008268C54B4D791A40D1E9034323438C68E4
:1048600044EA4504234313438360C26A097D22F46A
:104870007002491EC9B242EA0151C16230BD002135
:104880000160017141718160C160016101210175A7
:104890007047B64B10B5D3F80423B5490A40D0E9A8
:1048A00000142143D0E90240044321431143C3F8DB
:1048B000041310BD0021016041608160C160704738
:1048C0000029816802D041F0010101E021F00101DD
:1048D000816070474268A74B1A400A4342607047A4
:1048E000416282627047426822F01F020A434260BE
:1048F00070479E490028D1F8040302D040F400001C
:1049000001E020F40000C1F8040370479749002833
:10491000D1F8040302D040F4800001E020F48000CC
:10492000C1F80403704770B5072409290AD9C5687E
:10493000A1F10A0606EB4606B440A543B3401D4369
:10494000C56007E0056901EB4106B440A543B340EB
:104950001D4305611F23072A09D2446B521E02EB37
:10496000820293409C4391400C43446370BD0D2AE6
:1049700009D2046BD21F02EB820293409C43914008
:104980000C43046370BDC46A0D3A02EB820293408B
:104990009C4391400C43C46270BD816841F08041EA
:1049A00081607047014600208968490200D50120D6
:1049B00070470029816802D041F4806101E021F450
:1049C0008061816070470029816802D041F0020156
:1049D00001E021F00201816070474268491E22F423
:1049E000604242EA4131416070470029416802D08B
:1049F00041F4006101E021F4006141607047C06C46
:104A000080B270475948D0F8080370470029816880
:104A100002D041F4807101E021F48071816070471F
:104A20000029816802D041F4007101E021F4007195
:104A3000816070474D490028D1F8040302D040F44A
:104A4000005001E020F40050C1F80403704770B535
:104A5000072409290AD9C568A1F10A0606EB46060A
:104A6000B440A543B3401D43C56007E0056901EBB1
:104A70004106B440A543B3401D430561836BC3F3B6
:104A80000154121B921C02EB82041F22A24093438A
:104A9000A1400B43836370BD826B491E22F4401218
:104AA00042EA01518163704708B5084400900260F2
:104AB00008BD826822F470220A43826070478268CF
:104AC00022F440120A4382607047816841F48001F9
:104AD00081607047014600208968490200D50120A5
:104AE00070470029416802D041F4806101E021F45F
:104AF0008061416070470029416802D041F48051D3
:104B000001E021F480514160704708B50844283025
:104B10000090006880B208BD01238B4041680AB153
:104B2000194300E099434160704702460020126833
:104B30000A4200D001207047C9430160704730B578
:104B40000246002053680C0A01258D4011682B4055
:104B5000214202D0002B00D0012030BD6FEA11218C
:104B600001607047FFFEFFFCFDF7FFC00020014021
:104B7000E030FCFFFFFD3FFF2DE9F043016821F02D
:104B8000010101600021016041608160C16001613B
:104B900021214161B849B84A3D251039904202D1DE
:104BA0008D60BDE8F083B44A4FF4746618329042C9
:104BB00001D18E60F5E7B04A4FF47417303290425D
:104BC00001D18F60EDE7AC4A4FF0746C48329042EF
:104BD00002D1C1F808C0E4E7A74BA84A6033984265
:104BE00001D1CA60DDE7A44CA54B7834A04201D1C5
:104BF000CB60D6E7DFF88082A24C08F190084045F0
:104C000001D1CC60CDE7DFF870824FF03D5908F15B
:104C1000A808404502D1C1F80C90C2E79A49DFF8D4
:104C200068820839404501D10D60BAE7964D1835C4
:104C3000A84201D10E60B4E7934D3035A84201D1AE
:104C40000F60AEE7904D4835A84202D1C1F800C0D0
:104C5000A7E78D4D8C496035091FA84201D10A6034
:104C60009FE7894A7832904201D10B6099E7864AE2
:104C70009032904201D10C6093E7834AA83290426F
:104C80008FD1C1F800908CE730B503687F4ACC68BB
:104C900013400A682243D1E905452C432243CC69DD
:104CA00022430C6A22434C6A22438C6A22434C6B97
:104CB00022438C6B22431A430260426922F00703AD
:104CC000D1E90B2422431A4342610A6942604A68CF
:104CD00082608968C16030BD0021016041608160EF
:104CE000C160016141618161C161016241628162B2
:104CF000C16201634163816370470029016802D08A
:104D000041F0010101E021F001010160704700293B
:104D1000016802D041F4004101E021F4004101604A
:104D200070470029016802D041F0200101E021F024
:104D300020010160704741607047406880B2704751
:104D4000002A026802D042F4002201E022F400228C
:104D50000260016170470029016802D041F480219E
:104D600001E021F48021016070470AB101617047C0
:104D7000C1607047014600200968090300D5012081
:104D80007047014600200968C90700D0012070471C
:104D9000406900F03800704702463B4B00209A42C1
:104DA00002D2354A103A01E0374A103A8B0001D559
:104DB000526800E01268364B1A400A4200D00120C7
:104DC0007047314A904202D22B48103801E02E48F9
:104DD00010382F4A8B0001EA020101D5C1607047EB
:104DE000816070470B0607D5436912B143F0800319
:104DF00001E023F080034361802908D0002A026883
:104E000001F01E0101D00A4300E08A4302607047AE
:104E100030B51D4A0024904202D2174B103B01E0EE
:104E2000194B103B1B4A114205D01E2202EAD12524
:104E300002682A4002E0406900F08002880001D543
:104E4000586800E01868124B1840084201D002B1BF
:104E50000124204630BD0C4A904202D20648103848
:104E600001E0094810380A4A8B0001EA020101D525
:104E7000C160704781607047106002403D000020B3
:104E8000400F002000003D20106402403F801CF0D5
:104E90007D0F7D0F3C0F3C0F374900200860091D36
:104EA0000860091D0860091D086033493348143142
:104EB0000860704730B530498379026853B30B6896
:104EC00093430B600A1D13680468A34313600279BF
:104ED0000A441368046823431360274A083213689E
:104EE0000468A3431360131D1C680568AC431C6071
:104EF0004479102C05D021440A68006802430A60F6
:104F000030BD1168046821431160196800680143CD
:104F1000196030BD0079084401689143016030BDDB
:104F20000021016001710C224271817170471249A8
:104F300010310A6802430A60704701460E4A002099
:104F4000143212680A4200D0012070470A49143115
:104F500008607047084A014600201268064B0A4064
:104F600014331B680B4202D0002A00D00120704786
:104F70000149143108607047003C0140FFFF7F0089
:104F8000FE4910B5884206D101210846FFF7DEFB35
:104F9000002101205BE0B0F1804F09D0F849884240
:104FA0000DD101210220FFF7C7FB0021022070E094
:104FB00001210846FFF7C0FB0021012069E0F1490B
:104FC000884206D101210420FFF7B6FB002104200E
:104FD0005FE0ED49884206D101210820FFF7ACFBD4
:104FE0000021082055E0E949884206D1012110201E
:104FF000FFF7A2FB002110204BE0E549884206D1D3
:1050000001212020FFF798FB0021202041E0E14909
:10501000884206D101210220FFF798FB00210220DF
:1050200015E0DD49884202D101210C040AE0DB4988
:10503000884202D101214C0404E0D94988420AD1B6
:1050400001218C042046FFF781FB00212046BDE8AA
:105050001040FFF77BBBD349884206D10121402095
:10506000FFF76AFB0021402013E0CF49884206D1B8
:1050700001218020FFF760FB0021802009E0CB495F
:1050800088420AD1841501212046FFF755FB0021F3
:105090002046BDE81040FFF74FBB10BD30B5028879
:1050A000B64BBC4C98420DD0A0420BD0B0F1804F13
:1050B00008D0B34DA84205D0B24DA84202D0B24D9F
:1050C000A84203D122F070054A882A43AF4DA84276
:1050D00006D0AF4DA84203D022F440750A892A4376
:1050E00002804A68C2620A880285984201D0A042C2
:1050F00001D1897A01860121818230BD4FF0FF31D3
:1051000041600021018001814180817270470185E9
:1051100082827047028822F070020A430280704740
:1051200041627047C1627047406A7047008D7047A6
:105130000029018802D041F0020101E021F00201C2
:10514000018070470029018802D041F0040101E08C
:1051500021F00401018070470029018802D041F04C
:10516000800101E021F0800101807047028822F077
:105170000802028002880A4302807047028822F4F3
:105180004072028002880A43028070470029018829
:1051900002D041F0010101E021F0010101807047DE
:1051A00030B5028C22F001020284028C8388048BC9
:1051B00022F0020224F073050C882C438D891543DC
:1051C0004A882A436D4DA84202D0724DA8420DD1A3
:1051D00022F00805CA8923F440732A4322F004050B
:1051E0008A882A430D8A1D434B8A2B43838004837C
:1051F00089684163028430BD70B5028C22F01002D0
:105200000284028C8488038B0D8823F4E6464FF6D3
:10521000FF7303EA052535438E8922F0200203EA55
:10522000061616434A8803EA02123243534EB0422E
:1052300002D0584EB04215D122F08006CA8924F41B
:10524000406403EA0212324322F040068A8803EAED
:10525000021232430E8A03EA860626434C8A03EA88
:10526000840434438480058389688163028470BD2B
:1052700070B5028C22F480720284028C8488838B45
:105280000D8823F073031D4322F400738E894FF6BB
:10529000FF7202EA06261E434B8802EA03233343C9
:1052A000364EB04202D03B4EB04215D123F40066D8
:1052B000CB8924F4405402EA0323334323F4806669
:1052C0008B8802EA032333430E8A02EA061626433A
:1052D0004C8A02EA04143443848085838968C1635C
:1052E000038470BD70B5028C22F480520284048C59
:1052F0008288838B0D8823F4E6464FF6FF7303EA1A
:105300000525354324F400568C8903EA04343443DC
:105310004E8803EA06362643184CA04202D01D4CA4
:10532000A04205D122F480440A8A03EA8212224371
:105330008280858389680164068470BD00210180B4
:105340004180818081608181C18101824182704779
:1053500030B50124058C00F118038C40A543058469
:1053600031B308292CD0091FC1F34E00184401683D
:1053700048F6FF731940016001681AE0000001401F
:105380000004004000080040000C004000100040F5
:10539000001400400004014000400140004401406E
:1053A0000048014000180040001C00400020004060
:1053B00006E04FF6FF7303EA02221143016030BD9D
:1053C00003EB510001684FF68F73194001600168CB
:1053D000F3E74163704781637047C16370470164BD
:1053E0007047028B22F070020A4302837047028BDF
:1053F0004FF6FF7322F4E04203EA012111430183D7
:105400007047828B22F070020A4382837047828B3E
:105410004FF6FF7322F4E04203EA01211143818336
:105420007047028B22F008020A4302837047028B06
:105430004FF6FF7322F4006203EA01211143018356
:105440007047828B22F008020A4382837047828B66
:105450004FF6FF7322F4006203EA012111438183B6
:105460007047028B22F004020A4302837047028BCA
:105470004FF6FF7322F4806203EA01211143018396
:105480007047828B22F004020A4382837047828B2A
:105490004FF6FF7322F4806203EA012111438183F6
:1054A0007047028B22F080020A4302837047028B0E
:1054B0004FF6FF73C2F30E0203EA01211143018389
:1054C0007047828B22F080020A4382837047828B6E
:1054D0004FF6FF73C2F30E0203EA012111438183E9
:1054E0007047028C22F002020A4302847047028C49
:1054F00022F008020A4302847047028C4FF6FF73C1
:1055000022F0200203EA0111114301847047028C4A
:105510004FF6FF7322F0800203EA01111143018468
:105520007047028C4FF6FF7322F4007203EA0121E8
:10553000114301847047028C4FF6FF7322F400621E
:1055400003EA0121114301847047028C4FF6FF7377
:1055500022F4005203EA013111430184704710B56F
:105560000123048C8B409C430484038C8A401343A6
:10557000038410BD10B50423048C8B409C43048429
:10558000038C8A401343038410BD828B22F4406253
:105590008283828B4FF6FF7303EA01210A438283E1
:1055A0007047828B22F00C028283828B0A438283B3
:1055B0007047028B22F440620283028B4FF6FF7326
:1055C00003EA01210A4302837047F0B5048C24F0FA
:1055D00010040484078B068C4FF6FF7404EA01154F
:1055E00027F4734704EA0331394304EA02220A43E9
:1055F00026F0A001294341F0100102830184F0BD8F
:10560000028B22F00C020283028B0A430283704752
:105610002DE9F0410D460E884988AA882B89044659
:105620000EB3042E26D0082E268C4FF6FF7028D0FD
:1056300026F480562684A78B268C00EA022200EAF4
:10564000013127F473473A4300EA0330104326F44C
:1056500020420A4342F48051A0832184E9882046F5
:10566000BDE8F04191E700F062F9E9882046BDE825
:10567000F041C5E7FFF7A9FFE9882046BDE8F04102
:1056800097E726F480762684A78B268C00EA0121F2
:1056900000EA0310104327F0F307384326F4206292
:1056A0000A4342F48071A0832184E9882046BDE842
:1056B000F04176E700210180418001228280C18093
:1056C000018170472DE9F0410C46002649880746C4
:1056D000012501B90226A288012A00D102252088CD
:1056E00023890028384610D0FFF76FFFE18838463D
:1056F000FFF75FFF23892A463146384600F017F945
:10570000E1883846BDE8F0417AE700F010F9E18819
:105710003846FFF775FF23892A4631463846FFF79A
:1057200054FFE1883846BDE8F04142E7406B7047DE
:10573000806B7047C06B7047006C704710B50A886B
:105740004B88CC881A438B8823431A430B891A430E
:105750004B8989891A430A43A0F8442010BD0021CF
:10576000018041808180C1800181418181817047B8
:10577000002930F8441F02D041F4004101E0C1F398
:105780000E01018070470029818802D041F0040198
:1057900001E021F00401818070470029818802D056
:1057A00041F0010101E021F0010181807047002AF0
:1057B000828901D00A4300E08A4382817047818256
:1057C000704702460020128A0A4200D0012070472A
:1057D000C9430182704702460020138A92890B4216
:1057E00002EA010202D0002A00D001207047C9431A
:1057F000018270471143A0F848107047002A82893F
:1058000001D00A4300E08A438281704700298188E1
:1058100002D041F0080101E021F0080181807047C9
:10582000018921F0070101817047028922F070028D
:105830000A430281704700B50346FFF7F6FF188957
:1058400040F00700188100BD70B516460D4660296E
:1058500004464FF0010231460AD000F068F82946AC
:105860002046FFF7E2FF208940F00700208170BD4D
:10587000FFF7ABFEF3E730B504894FF6FF7505EA95
:1058800003231343E4B20B432343038130BD10B51C
:105890000446FFF7F0FF208940F07700208110BD1B
:1058A00010B50446FFF7E7FF208940F480402081CF
:1058B00010BD828822F07002828082880A43828032
:1058C0007047028922F00702028102890A4302819D
:1058D0007047028922F08002028102890A43028114
:1058E000704770B50589048B068C25F007050D43BC
:1058F0004FF6FC410C4040F201110C434FF6FF7192
:1059000001EA031126F02206114331430581048385
:10591000018470BD0029818802D041F0800101E03E
:1059200021F0800181807047A0F85010704770B559
:10593000048C24F001040484058B048C4FF6FF765C
:1059400006EA0313134325F0F3052B4324F00A0260
:105950000A4342F001010383018470BDC74910B5B9
:10596000884206D101211020FEF7F0FE0021102010
:1059700028E0C349884202D101214C0410E0C1490A
:10598000884202D101218C040AE0BF49884202D139
:105990000121CC0404E0BD4988420AD101210C0553
:1059A0002046FEF7C9FE2046BDE810400021FEF764
:1059B000C3BEB749884209D101212020FEF7C6FEA7
:1059C00000212020BDE81040FEF7C0BE10BD7FB50D
:1059D0000446008A0D4620F44051E888084320829E
:1059E000A08941F20C618843A9882A8911436A89F8
:1059F00002431143A181A08A20F44071A889084381
:105A0000A0826846FEF7E4FD9C48844202D0A0488C
:105A1000844201D1039800E00298A189090400EBB7
:105A2000C00101EB0010296801D5490000E08900A0
:105A3000B0FBF1F26420B2FBF0F109010B096FF049
:105A400018056B4302EB8302A3891D044FF0320358
:105A500006D503EBC202B2FBF0F000F0070005E050
:105A600003EB0212B2FBF0F000F00F0008432081BC
:105A70007FBD4FF41651016000218180C1800181FA
:105A80000C2242818181704710B5028A4C8822F431
:105A900070630A8822438C88C9880C4322431A43C6
:105AA000028210BD0021018041808180C180704749
:105AB0000029818902D041F4005101E021F4005114
:105AC00081817047028B02F47F420283028B0A437A
:105AD000028370470029818902D041F4004101E02E
