:020000040800F2
:10000000B0300020B1550008450200084702000842
:10001000490200084B0200084D02000800000000E1
:100020000000000000000000000000009D0100082A
:100030004F02000800000000E1010008E77B000813
:10004000CB550008CB550008CB550008CB55000810
:10005000CB550008CB550008CB550008CB55000800
:100060001704000863040008CB55000801030008CA
:10007000C30200084D030008CB55000875020008B4
:10008000CB5500087D020008CB550008CB55000871
:10009000CB550008CB550008CB550008CB550008C0
:1000A000CB5500087103000891030008CB550008E8
:1000B00093030008B3030008D3030008CB550008DE
:1000C000CB550008CB550008CB5500081304000899
:1000D000CB55000855020008CB550008CB55000849
:1000E000CB550008CB550008CB550008CB55000870
:1000F000CB550008CB550008CB550008230300085A
:10010000CB550008CB550008F30300081504000880
:10011000CB550008CB550008570300085F030008C3
:10012000CB550008CB5500089F020008CB550008AE
:10013000CB550008CB550008CB550008CB5500081F
:10014000CB550008CB550008CB550008CB5500080F
:10015000B9020008CB550008CB550008CB55000864
:10016000CB550008CB550008CB550008CB550008EF
:10017000CB550008CB550008CB550008CB550008DF
:10018000CB550008CB550008DFF80CD008F0C8FDAF
:100190000048004775530008B0300020234B196811
:1001A0000868B0E8F04F80F309884FF0000080F352
:1001B000118870470000000003480068006880F361
:1001C000088862B600DF00BF08ED00E0DFF80C0031
:1001D000016841F470010160704700BF88ED00E0E4
:1001E000EFF30980114B1A681EF0100F08BF20EDC5
:1001F000108A20E9F04F106008B54FF0140080F32A
:10020000118807F0C6FF4FF0000080F31188BDE8A9
:10021000084019680868B0E8F04F1EF0100F08BFDA
:10022000B0EC108A80F30988704700BF0C020020F0
:10023000EFF311804FF0140181F31188704780F3C0
:10024000118870477047FEE7FEE7FEE7FEE770475C
:100250007047704710B5834C40F22551204606F098
:100260000CFF002805D02046BDE81040202106F0F4
:1002700001BF10BD7C497D4806F011B870B57B4DBB
:100280007B4C30352146284605F0E6FF002805D096
:1002900021462846BDE8704006F001B870BD10B593
:1002A0007449754805F0FBFF74484178007841EACD
:1002B00000207349088010BD6F487249483005F02E
:1002C000EEBF70B5694D704C483D2146284605F09B
:1002D000C3FF002813D02146284605F0E0FF6B48F5
:1002E00001F074FF00280AD1694C0021204606F075
:1002F00003FE2046BDE87040012106F0FDBD70BD43
:1003000070B55A4D634C603D2146284605F0A4FF68
:10031000002805D021462846BDE8704005F0BFBF43
:1003200070BD70B5514C5C4D48342946204605F0EF
:1003300093FF002809D00021204605F002FF29463E
:100340002046BDE8704005F0AABF70BD4748464949
:10035000303805F0A4BF0121504806F06CBC10B540
:1003600001214F4806F067FC3E497A20888010BD85
:1003700010B54C4C0121204606F05DFC2088C106DA
:100380004948016801D5491E00E0491C016010BDC3
:10039000704710B501218C07204606F04CFC2088E0
:1003A000C1064248016801D5491E00E0491C0160B0
:1003B00010BD10B53E4C0121204606F03CFC2088C3
:1003C000C1063C48016801D5491E00E0491C016096
:1003D00010BD10B5384C0121204606F02CFC2088B9
:1003E000C1063648016801D5491E00E0491C01607C
:1003F00010BD10B5324C0121204606F01CFC2088AF
:10040000C1063048016801D5491E00E0491C016061
:1004100010BD7047704770B5042005F0BFFF00287D
:100420001ED02021284805F012FA284D0421284624
:1004300005F0EEF91A4C012805D00421284605F0F4
:10044000E7F928B109E00021204606F08DF804E024
:10045000204606F08DF81E4908601E4904200860F9
:1004600070BD704700100140208000207060024085
:100470000080202000802010406402402C030020D7
:100480000C00002000880020008800104A03002093
:10049000004800402080001000800028001000402C
:1004A0000014004000000140100000201400002053
:1004B000000400401800002000080040B0010020A7
:1004C000000C0040B401002000000240000C02407B
:1004D000B8010020143C014070B50546002408F026
:1004E00085F9FE4902E02A5D0A55641C8442FADB64
:1004F000BDE870400121FA4805F023BE70B5F94D02
:1005000006460024315D00290BD0284606F01AFD6E
:100510008021284606F0A7FD0028F9D0641CE4B22B
:10052000F0E770BD70B5EF4E05460024002D0DD0EC
:100530002946304606F006FD8021304606F093FD40
:100540000028F9D0641CE4B2032CEFD370BD73B55E
:100550000C460020FFF7E6FFE3A0FFF7CFFFDF48E0
:100560002246E2A1823808F055FCDC488238FFF7C9
:10057000C5FFDFA0FFF7C2FFDFA0FFF7BFFFD7482F
:10058000DAA18238009A08F045FCD44E0024D54DFB
:10059000823E2846315D06F0D5FC4021284606F013
:1005A00062FD0028F9D0641C142CF2DBD2A0FFF706
:1005B000A5FFFF20FFF7B6FFFF20FFF7B3FFBDE861
:1005C0007C40FF20AEE770B505460C46C6A0FFF79D
:1005D00095FFC2482246C5A1823808F01BFCBF48DF
:1005E0008238FFF78BFFC5A0FFF788FF2846FFF78B
:1005F00085FFC1A0FFF782FFBDE87040FF2091E7B3
:1006000077B5BEA185B00646D1E90001CDE900016C
:10061000B9A0002200680390B3A0B04D0068283D47
:10062000A5F128030290AD4C1146A3F13200A95464
:1006300099548154A154521CD2B21E2AF7D30A21D4
:100640000170FF2444708470C470A448A7A150387E
:10065000079A08F0DFFBA14902A8503908F0AEF86C
:100660009E4802A9823808F0A9F89C486946823859
:1006700008F0A4F899483146823808F09FF8974866
:100680009AA15038069A08F0C5FB94495039A1F157
:10069000320008F093F8914803A9823808F08EF8E8
:1006A0008E492C706C702839AC70A1F15A0008F09A
:1006B00085F88A488238FFF70FFF08B070BD2DE932
:1006C000F74188468DA185B00646D1E90001CDE904
:1006D000000189A000220068039083A07F4D00687C
:1006E000283DA5F1280102901446A1F13200AC5436
:1006F0008C548454521CD2B20A2AF8D30A210170B5
:10070000FF2747708770C770744878A15038079AE0
:1007100008F080FB714902A8503908F04FF86F4883
:1007200002A9823808F04AF86C486946823808F015
:1007300045F86A483146823808F040F86748414633
:10074000823808F03BF8654803A9823808F036F88B
:100750002F706F706149AF70EC7028392C71A1F166
:100760005A0008F02BF85D488238FFF7B5FE08B054
:10077000BDE8F08170B50020FFF7D4FE5AA0FFF766
:10078000BDFE56480D2259A1823808F043FB53485C
:100790008238FFF7B3FE59A0FFF7B0FE594C202175
:1007A000204605F035F802464C4850A1823808F042
:1007B00031FB4A488238FFF7A1FE1021204605F0A0
:1007C00027F80246454849A1823808F023FB4348F0
:1007D0008238FFF793FE4C4D8021284605F018F82B
:1007E00002463E4841A1823808F014FB3B4882385B
:1007F000FFF784FE4021284605F00AF802463748F4
:100800003AA1823808F006FB34488238FFF776FEBA
:100810004FF40041204604F0FBFF02462F4833A16D
:10082000823808F0F7FA2D488238FFF767FE4FF458
:100830008041204604F0ECFF024628482BA1823874
:1008400008F0E8FA25488238FFF758FE4FF40051C7
:10085000204604F0DDFF0246204824A1823808F03B
:10086000D9FA1E488238FFF749FE4021274804F094
:10087000CFFF024619481DA1823808F0CBFA17486D
:100880008238FFF73BFE1CA0FFF738FEFF20FFF782
:1008900049FEFF20FFF746FEBDE87040FF2041E61D
:1008A000FEB51BA10646D1E90001CDE900011AA061
:1008B00000210A4D0068283DA5F1280202900C464F
:1008C000A2F132006C5454544454491CC9B2322928
:1008D000F8D30A210170FF2747701FE0EA020020C9
:1008E000B860024000500040740000002564000021
:1008F0002E7478743D000000220000002E7478747D
:100900003D220000000802400000024000100240AA
:100910002E76616C3D0000006A0000008770C77091
:100920000022AFF23801FE4808F074FAFC4902A830
:1009300007F044FFFA4802A9323807F03FFFF848B1
:100940006946323807F03AFF3246AFF26001F448A8
:1009500008F060FAF249A1F1320007F02FFF2F7082
:100960006F70EF49AF70EC7028312C71A1F15A0013
:1009700007F024FFEA483238FFF7AEFDFEBD70B540
:100980000D46044607F0E4FE291B491C90FBF1F2DA
:1009900001FB1200204470BD2DE9FC41E14F3846B7
:1009A00005F0E6FDE04DA969642640EA014090FBB0
:1009B000F6F000240190384605F0DAFDA96940EA16
:1009C000014090FBF6F001990090401A00D540429A
:1009D000322800DA641C00980190022CEBDB0098AE
:1009E000002800DA4042BDE8FC812DE9FC41CF4FF0
:1009F000384605F0BDFDCC4D2969642640EA01402A
:100A000090FBF6F000240190384605F0B1FD29690D
:100A100040EA014090FBF6F001990090401A00D5A1
:100A20004042322800DA641C00980190022CEBDB73
:100A300000980028D7DA4042D5E72DE9FC414FF075
:100A40008047384605F094FDB74D6969642640EA51
:100A5000014090FBF6F000240190384605F088FD37
:100A6000696940EA014090FBF6F001990090401A54
:100A700000D54042322800DA641C00980190022C14
:100A8000EBDB00980028AEDA4042ACE770B5FFF728
:100A900083FF0546FFF7D1FF0446FFF7A6FF002DB1
:100AA00000DA6D42002800DA40422844002C00DAC7
:100AB0006442204470BD01B581B0019800EBC000D4
:100AC00040000090002801D0401EFAE70CBD01B59F
:100AD00081B044F25061019848430090002801D051
:100AE000401EFAE70CBD2DE9FC4101211F2004F056
:100AF000F7FF01248DF8044000268DF806604FF6BC
:100B0000FF758DF80740032700958DF8057069463D
:100B1000874804F017FE8DF804408DF806608DF8C4
:100B2000074000958DF805706946824804F00AFE7A
:100B30008DF804408DF806608DF8074000958DF81B
:100B4000057069467C4804F0FDFD4CE77CB5012149
:100B50007E2004F0C5FF0024FC208DF80440012510
:100B600000908DF8075002268DF80560694673489D
:100B700004F0E8FD48F206008DF8044000908DF87E
:100B800007508DF805606946694804F0DBFD46F6BC
:100B9000C4408DF8044000908DF807508DF8056032
:100BA0006946644804F0CEFD03208DF804400090AF
:100BB0008DF807508DF8056069465F4804F0C2FD66
:100BC0004FF2FF508DF8044000908DF807508DF8DB
:100BD000056069465A4804F0B5FD7CBD1FB54FF469
:100BE000E06004F0F7FC36208DF80C0000248DF84E
:100BF0000D408DF80E4001208DF80F0003A804F081
:100C0000EEFC0121102004F089FF3220ADF8000035
:100C1000ADF80840ADF8024040F2E730494C019091
:100C20006946204605F05EFC0121204606F003F8E7
:100C300001221146204605F0DEFF0021204605F086
:100C400093FC0121204605F0C5FC1FBD1FB54FF4E4
:100C5000E06004F0BFFC37208DF80C0000248DF814
:100C60000D408DF80E4001208DF80F0003A804F010
:100C7000B6FC0121202004F051FF4FF4FA70ADF8CA
:100C80000000ADF80840ADF8024040F2E7302E4CCD
:100C900001906946204605F025FC0121204605F01B
:100CA000CAFF01221146204605F0A5FF002120467B
:100CB00005F05AFC0121204605F08CFC1FBD70B5E3
:100CC0008AB00121022004F033FF01210C2004F03E
:100CD00007FF184E03220621304604F0BCFD032214
:100CE0000721304604F0B7FD03220821304604F006
:100CF000B2FD03220921304604F0ADFD4FF47070BF
:100D0000059002208DF8180003208DF819000024AA
:100D10008DF81A4001258DF81B5005A9304615E0C5
:100D20009A02002000040040000000200000014062
:100D30000004024000080240000C02400000024093
:100D400000100240001000400014004004F0FAFCC3
:100D5000A420ADF81C0028020890ADF82400ADF8DE
:100D60001E4007A9FE4E304605F0BCFB6020ADF8E2
:100D70000000ADF802500294ADF80C40012130465D
:100D800005F028FC0021304605F0EEFB69463046B0
:100D900005F02AFC6946304605F052FC69463046AB
:100DA00005F08AFC6946304605F0C0FC012130465A
:100DB00005F002FF0AB070BD70B58AB001210420B1
:100DC00004F0ACFE01210D2004F08AFEE54E022263
:100DD0000C21304604F03FFD02220D21304604F084
:100DE0003AFD02220E21304604F035FD02220F2189
:100DF000304604F030FD4FF47040059002208DF82D
:100E0000180003208DF8190000248DF81A400125E0
:100E10008DF81B5005A9304604F094FCA420ADF8D1
:100E20001C002802D04E0890ADF82400ADF81E40FA
:100E300007A9304605F056FB7020ADF80000ADF86C
:100E400002500294ADF80C400121304605F0C2FB7F
:100E50000021304605F088FB6946304605F0C4FBAA
:100E60006946304605F0ECFB6946304605F024FC47
:100E70006946304605F05AFC9CE730B5012187B041
:100E8000080404F055FE0121084604F029FE002460
:100E90004FF6FF70B54DADF800400190ADF8084039
:100EA000ADF802406946284605F01CFB0420ADF869
:100EB0000C00C820ADF814000120ADF81000ADF80A
:100EC0000E4003A9284605F0C7FDA94C00231A4689
:100ED0000321204605F029FF0121204605F0ABFE45
:100EE00001221146204605F086FE0121284605F024
:100EF00071FB0021204605F037FB07B030BD2DE91E
:100F0000F04701218AB0084604F008FE01210220C2
:100F100004F004FE0121032004F0E2FDDFF8549206
:100F200001220F21484604F096FCDFF84C82012292
:100F30000321404604F08FFC02220421404604F0C5
:100F40008AFC02220521404604F085FC02268DF829
:100F50000460032738208DF80570002400908DF878
:100F6000064001258DF807506946404604F0EAFB2B
:100F70008DF80460E8038DF8057000908DF8064048
:100F80008DF807506946484604F0DCFB4FF6FF70C9
:100F9000ADF80C4004904FF08049ADF81440ADF826
:100FA0000E4003A9484605F09DFADFF8D0A103A939
:100FB000504605F097FA4FF004081420ADF8188059
:100FC000ADF82000ADF81A60ADF81C5006A94846EF
:100FD00005F042FD06A9504605F03EFD02231A46E3
:100FE0000321484605F0A1FE02231A46032150467C
:100FF00005F09BFE0121484605F01DFE01215046EB
:1010000005F019FE01221146484605F0F4FD0122C3
:101010001146504605F0EFFD0121484605F0DAFA89
:101020000121504605F0D6FA0021484605F09CFA09
:101030000021504605F098FA780204F0CBFA1D2002
:101040008DF808008DF809708DF80A408DF80B5066
:1010500002A804F0C4FA1C208DF808008DF809805D
:101060008DF80A408DF80B5002A804F0B8FA0AB0C7
:10107000BDE8F08770B501218AB0084604F058FD3C
:101080000121102004F02CFD4FF42060009002207C
:101090008DF8040003208DF805000024384E8DF8EB
:1010A000064001258DF807506946304604F04AFB9A
:1010B00001220921304604F0CEFB01220B213046EB
:1010C00004F0C9FB4FF6FF70284EADF808400390BE
:1010D000ADF81040ADF80A4002A9304605F002FA1A
:1010E0000420ADF814000A20ADF81C00ADF816403D
:1010F000ADF8185005A9304605F0AEFC00231A469D
:101100000321304605F011FE0121304605F093FD24
:1011100001221146304605F06EFD0121304605F0F2
:101120008AFD01221146304605F065FD0121304659
:1011300005F050FA0021304605F016FA4FF4C06071
:1011400004F048FA19208DF820008DF821508DF810
:1011500022408DF8235008A804F041FA2AE6000046
:1011600000040140000C0240000800400000014063
:101170000040014000000240000402400004004022
:1011800000100240F0B59BB00121FE4804F0A8FC1D
:1011900001210D02284604F0CBFCFB480024CDE9D8
:1011A0000040FA4802A9082681E85100A800CDE9CC
:1011B0000540400007908000CDE908050AA900011C
:1011C000012581E83100F24F0D94694638460E94AE
:1011D00004F07EFF0121384604F0B3FF3C20199053
:1011E00003208DF868008DF86B4019A9E94804F0D8
:1011F000A9FA4FF44030CDE915404FF47060CDE9C5
:10120000174015A804F069FD119412941394280650
:10121000DD4C0F908DF840504C3C8DF841508DF8CE
:1012200050600FA9204604F02DFD04230122022165
:10123000204604F09CFD042302220321204604F0F2
:1012400096FD042303221946204604F090FD042352
:101250001A460521204604F08AFD042305220C21AC
:10126000204604F084FD042306220D21204604F0CC
:101270007EFD042307220E21204604F078FD04237E
:1012800008220F21204604F072FD0121204604F0BF
:10129000EBFD0121204604F0DDFD0121204604F094
:1012A00033FD204604F09DFD1BB0F0BD08B54FF4A2
:1012B000E06004F08FF925208DF8000000208DF803
:1012C00001008DF8020001208DF80300684604F04B
:1012D00086F908BD70B5054696B00121102004F0CE
:1012E00027FC0121084604F0FBFB0121880504F0DE
:1012F000F7FB4FF4C060139002208DF850000024DB
:101300008DF852408DF85340A34E8DF8510013A92B
:10131000304604F017FA07220921304604F09BFA00
:1013200007220A21304604F096FA0F95ADF84440A2
:101330000C209A4DADF84040ADF84600ADF8424063
:10134000ADF848400FA9284605F065FD0121284663
:1013500005F0D2FD4FF4A06004F03CF93A208DF87E
:1013600054008DF855408DF8564001208DF85700F7
:1013700015A804F034F9864E3036304604F020FECD
:101380004FF000600090814869461030CDE90204BA
:101390000A200490281D01900015CDE90540801019
:1013A000CDE9084040020A9004200B9007940320E6
:1013B000CDE90C0430460E9404F08AFE012240214F
:1013C000284605F030FE01221021304604F02EFFA1
:1013D0000121304604F0B5FE16B070BDF0B50646EA
:1013E000012197B0480504F07BFB01214D042846FC
:1013F00004F094FB0121082004F072FB602013909C
:1014000002208DF8500000248DF852408DF8534092
:10141000634F8DF8510013A9384604F093F9072261
:101420000521384604F017FA07220621384604F051
:1014300012FA0F96ADF844400C205A4EADF84040D9
:10144000ADF84600ADF84240ADF848400FA930462F
:1014500005F0E1FC0121304605F04EFD4FF4A0609F
:1014600004F0B8F811208DF854008DF855408DF82F
:10147000564001208DF8570015A804F0B0F84A4FE7
:10148000384604F09DFDA802009040200390474894
:1014900002903C200490301D01900015CDE90540DC
:1014A0008010CDE908400420CDE90A5007940320BC
:1014B000CDE90C04694638460E9404F009FE012279
:1014C0008021304605F0AFFD01228021304605F035
:1014D000AAFD01221021384604F0A8FE0121384659
:1014E00004F02FFE17B0F0BD70B50546012196B08F
:1014F000880404F013FB0121082004F0F1FA012113
:10150000480504F0EDFA4FF44070139002208DF876
:10151000500000248DF852408DF85340204E8DF835
:10152000510013A9304604F00DF907220821304676
:1015300004F091F907220921304604F08CF90F9547
:101540001B4EADF84040ADF844400C25ADF842408C
:10155000ADF84840ADF846500FA9304605F05BFCA9
:101560000121304605F0C8FC4FF4A06004F032F8C9
:101570008DF854508DF855408DF8564001208DF867
:10158000570017E0050040004C2001401C030020DC
:1015900010640240000802400000024000100140B8
:1015A000000C024000440040A060024008010020FE
:1015B0000048004015A804F012F8FB4D284604F03E
:1015C000FFFC4FF000600090F848CDE902040820CD
:1015D0000490301D01900015CDE905408010CDE943
:1015E000084040020A9004200B9007940320CDE9A4
:1015F0000C04694628460E9404F06AFD012240213D
:10160000304605F010FD01224021304605F00BFD6B
:1016100001221021284604F009FE0121284604F089
:1016200090FDD9E6F0B50646012197B0C80404F054
:1016300075FA0121084604F053FA0121480504F027
:101640004FFA02208DF8500000248DF852408DF89A
:101650005340D74F03258DF85100139513A93846F1
:1016600004F070F808220021384604F0F4F808224B
:101670000121384604F0EFF80F96ADF844400C20F5
:10168000CC4EADF84040ADF84600ADF84240ADF864
:1016900048400FA9304605F0BEFB0121304605F059
:1016A0002BFC4FF4A06003F095FF0D208DF8540043
:1016B0008DF855408DF8564001208DF8570015A83B
:1016C00003F08DFFB84F1837384604F079FC7805E1
:1016D0000090B64869460F38CDE90204082004900E
:1016E000301D01900015CDE905408010CDE908407E
:1016F000400207940A900420CDE90C540B90384620
:101700000E9404F0E5FC01224021304605F08BFCEC
:1017100001224021304605F086FC01221021384686
:1017200004F084FD0121384604F00BFDDAE62DE9D2
:10173000F0418046012196B0480504F0D1F901211D
:10174000080504F0EBF901210C2004F0C9F9022589
:101750008DF8405000248DF84240974F04268DF8B4
:1017600043400F968DF841500FA9384603F0EAFF29
:101770008DF840508DF842408DF84340E8028DF8D6
:1017800041508E4D0F900FA9284603F0DBFF082231
:101790000221384604F05FF808220C21284604F0A4
:1017A0005AF84FF4A06003F015FF2F208DF8540075
:1017B00005208DF855008DF8560001208DF8570052
:1017C00015A803F00CFFADF84C400C207C4DADF893
:1017D0004840ADF84E00CDF84480ADF84A40ADF831
:1017E000504011A9284605F016FB0121284605F0B6
:1017F00083FB6D4F9037384604F0E2FB7006009093
:101800004020039069486946603802903120049076
:10181000281D01900015CDE905408010CDE9084054
:101820004002CDE90A0607940320CDE90C043846AE
:101830000E9404F04DFC01228021284605F0F3FBB4
:1018400001221021384604F0F1FC0121384604F051
:1018500078FC16B0BDE8F08130B585B001210820D4
:1018600004F03EF90121880304F062F900240C2001
:101870008DF81040012503908DF8135003A94E48B0
:1018800003F060FF0221032005F037FC04200090E4
:101890008DF8044010208DF805008DF8065068463C
:1018A00004F02CFD08208DF808008DF809408DF813
:1018B0000A408DF80B5002A803F091FE05B030BD30
:1018C00010B5012810D0032819D0042822D00528EB
:1018D00009D13B4C204605F035FB4021204605F060
:1018E000C2FB0028F9D010BD364C204605F02AFB7B
:1018F0004021204605F0B7FB0028F9D010BD324C3E
:10190000204605F01FFB4021204605F0ACFB0028D7
:10191000F9D010BD274C204605F014FB402120468D
:1019200005F0A1FB0028F9D010BD2849002048622D
:10193000274908614FF0804250624861254A106093
:101940008861704770B5224D0020E871044661211E
:101950000120FFF7B5FF3220FFF7B9F8641C022C15
:10196000F5D30120E8717A20A87170BD10B561210E
:101970000120FFF7A5FFBDE810400A20FFF7A7B838
:1019800070B5134D00206872044661210320FFF7F3
:1019900097FF3220FFF79BF8641C022CF5D301203F
:1019A00068727A20287270BD286002404A030020C5
:1019B00000000240004C0040000C024000080240C1
:1019C000005000400010014000480040000001406D
:1019D00000000020240400402DE9F14F96B0FB4E9A
:1019E000002014908DF800008DF8280006F1800486
:1019F000334604F5907504F1C401D3F8448032797C
:101A0000DFF8CCA3F348DB6A6F78D1F800C092B15D
:101A1000012A6ED0022A37D11698132834D2DFE873
:101A200000F0FDFCFBFAF9F8F7F6F5F4F3F2F1F04B
:101A3000EFEEEDECEB00169ADFF89C934FF4004BC1
:101A4000132A21D2DFE802F00A32363C4045494DE4
:101A5000565C62666A6E737C839FA50002215046C5
:101A600003F0D6FE98B101225D4659464C464846E1
:101A700003F0E6FE2946204603F0D4FE014600228C
:101A8000D6A000BFFEF7BCFD17B0BDE8F08F002266
:101A90005D4659464C46484603F0D2FE294620464C
:101AA00003F0C0FE01460022D3A0EBE70122DAA03A
:101AB000616CE7E7FEF7EAFF01460222D8A0E1E702
:101AC0000322DBA0A16FDDE7DC4804220168DCA073
:101AD000D8E70522DDA0E16FD4E706224146DDA06C
:101AE000D0E74FF4805103F093FE01460722DCA0BB
:101AF000C8E744E1FEF750FF01460822DCA0C1E739
:101B0000FEF773FF01460922DBA0BBE70A22DCA037
:101B1000B16AB7E70B223946DDA0B3E70C22614674
:101B2000DEA0AFE751F823100D22E2A0AAE74FF4A0
:101B30000051484603F06CFE01460E22E3A0A1E7E7
:101B4000022103F065FE01460F22E2A09AE702217E
:101B500003F05EFE0246E1A1684607F05BF96946C4
:101B60000AA806F02BFE4FF40051484603F050FE41
:101B70000246DAA1684607F04DF969460AA806F060
:101B80001DFE102230E2D648112250F82310D5A0B5
:101B900078E780215446504603F044FE0246CFA128
:101BA000684607F037F969460AA806F007FE4FF4C1
:101BB000807529464E46484603F034FE0246C7A1CA
:101BC000684607F027F969460AA806F0F7FD4021A4
:101BD000204603F027FE0246C0A1684607F01AF926
:101BE00069460AA806F0EAFD6900304603F01AFECD
:101BF0000246BAA1684612E0E7E0A9E1A9E143E2A2
:101C00003FE23BE237E233E22FE22BE227E223E23C
:101C10001FE21BE217E213E210E20CE208E207F017
:101C2000F9F869460AA806F0C9FDDFF8C8922E0146
:101C30003146484603F0F6FD0246A8A1684607F083
:101C4000E9F869460AA806F0B9FDAF003946204612
:101C500003F0E8FD0246A1A1684607F0DBF86946FB
:101C60000AA806F0ABFD4FF400684146484603F071
:101C7000D9FD024699A1684607F0CCF869460AA842
:101C800006F09CFD4146204603F0CCFD024693A1A0
:101C9000684607F0BFF869460AA806F08FFD394686
:101CA000954F384603F0BEFD02468CA1684607F00A
:101CB000B1F869460AA806F081FD3146204603F0D6
:101CC000B1FD024685A1684607F0A4F869460AA856
:101CD00006F074FD4146384603F0A4FD02467FA19C
:101CE000684607F097F869460AA806F067FD69019B
:101CF000204603F097FD024678A1684607F08AF86F
:101D000069460AA806F05AFDAE013146384603F08E
:101D100089FD024671A1684607F07CF869460AA869
:101D200006F04CFD3146204603F07CFD02466BA1D7
:101D3000684607F06FF869460AA806F03FFD294695
:101D4000484603F06FFD024664A1684607F062F85A
:101D500069460AA806F032FD5946204603F062FDA6
:101D600002465EA1684607F055F869460AA806F0E3
:101D700025FD12220AA961A0FEF7A1FC84E6169AAD
:101D8000132AFBD2DFE802F00B0E12161A1EF1F531
:101D9000ECEBEAE9E8E70AE6E5E4210074E6002175
:101DA00057A042E1012259A0616C6BE602225CA0BF
:101DB000F16B67E6032219465DA063E649680422D9
:101DC0005EA05FE689680522CDE066E100000020A4
:101DD000000402400010024000080240524F424FEF
:101DE000542044414E4720434841592053414E20FE
:101DF000444F3A2020200000524F424F542044418B
:101E00004E4720434841592053414E2058414E48A7
:101E10003A20202000000000494D553A0000000003
:101E2000454E434F4445525F544F4E473A000000E1
:101E30006C617A652030683A2000000000010020C3
:101E40006C617A652038683A000000006C617A6540
:101E500020346800646F206C617A653A00000000ED
:101E60004342545F4C41595F42414E483A000000A2
:101E700030683A200000000034683A20000000007A
:101E80006269656E2076652078703A200000000057
:101E90006C6563685F626F6E673A2000626F6E67A1
:101EA0002074726F6E672073696C6F5B305D3A20CF
:101EB00000000000626F6E672074726F6E6720739F
:101EC000696C6F5F736F3A20000000007068616991
:101ED0003A200000747261693A2000002564000015
:101EE000500200206269656E206461207468612080
:101EF000313A200000000240000C02404F3A00003E
:101F00004D414E2048494E48203221005F726F6299
:101F10006F74494D55416E676C653A2000000000B2
:101F20006269656E5F646F5F626F6E673A20000082
:101F300073696C6F5F736F3A20000000626F6E67A9
:101F40005F74726F6E675F73696C6F20313A200047
:101F5000A0E09CE067E062E059E054E04FE04AE036
:101F600045E006E001E0F3A08CE5C9680622F6A092
:101F700088E54021054603F04BFC0246AFF2A40180
:101F8000684606F047FF69460AA806F017FC4FF4BA
:101F90008071284603F03CFC0246AFF2C00168465F
:101FA00006F038FF69460AA806F008FC4FF4806185
:101FB000284603F02DFC0246AFF2E001684606F029
:101FC00029FF69460AA806F0F9FB8021284603F09C
:101FD0001FFC0246AFF2FC01684606F01BFF694693
:101FE0000AA806F0EBFB07220AA9DCA0C4E60969EF
:101FF0000822DBA046E549690922DEA042E50A2263
:102000006146E1A03EE50B224146E4A03AE502210B
:10201000504603F0FDFB01460C22E4A032E50D2200
:102020003946E5A02EE50F21E7A0FEF7CCFA2BE517
:102030000021E6A0F9E70121E7A0F6E7022100E090
:102040000321E6A0F1E70421E5A0EEE70521E5A0E4
:10205000EBE70621E4A0E8E70721E4A0E5E7082193
:10206000E3A0E2E70921E3A0DFE70A21E2A0DCE741
:102070000B21E2A0D9E70C21E1A0D6E70D21E1A0D8
:10208000D3E70E21E0A0D0E70F21E0A0CDE710219B
:10209000DFA0CAE71121DFA0C7E71221DEA0C4E755
:1020A0000121DE4804F04DB811B4DD48416F009ABB
:1020B000914201DD002101E0416F491C4167406F01
:1020C00018BC89E42DE9F0470025D64E07460124C7
:1020D0004FF400594FF480484FF4805A0022414693
:1020E000304603F0ADFB1020FEF7E5FC274201D09F
:1020F000012200E000224946304603F0A1FB012204
:102100004146304603F09CFB1020FEF7D4FC5146BC
:10211000304603F07DFB00B12543600010F0FF0462
:10212000DCD12846BDE8F08770B5BE4E4FF40045BF
:1021300000222946304603F083FB1020FEF7BBFC4B
:102140000120FFF7BFFF4220FFF7BCFFFF20FFF792
:10215000B9FFFF20FFF7B6FFB34C2070FF20FFF759
:10216000B1FF6070FF20FFF7ADFFA070FF20FFF709
:10217000A9FFE070FF20FFF7A5FF2071FF20FFF708
:10218000A1FF607129463046BDE87040012203F08E
:1021900057BB70B5A34E4FF4004500222946304688
:1021A00003F04EFB1020FEF786FC0120FFF78AFFAC
:1021B0004220FFF787FF044601222946304603F0FC
:1021C0003FFB1020FEF777FC204670BD944A0021AB
:1021D000803A9164C27994490D2A09D0FF20087091
:1021E00048708870C8700871487188710020704705
:1021F00002780A7042784A7082788A70C278CA700F
:1022000002790A7142794A71807988710120704798
:102210008548A0F5D0710278FF2A05D14278FF2ABF
:1022200002D18278FF2A09D08A6C531C8B64C82A99
:1022300003DDFF21017041708170704700208864C8
:10224000704779488079704777480078400601D414
:10225000012070470020704773480078C00601D401
:10226000012070470020704770B56D4B0125803B01
:10227000002693F87C4003F58473002803D004DD26
:10228000D8709D7005E0DC7003E0C0F10000D870EC
:102290009E70002903D004DDD9719D7105E0DC71C9
:1022A00003E0C1F10000D8719E71002A03D004DD63
:1022B000DA729D7270BDDC7270BDC2F10000D8721E
:1022C0009E7270BD56498831C870C871C872704717
:1022D0005349012080398867704751488830C17858
:1022E000032907D2C179032904D2C07A032801D275
:1022F00001207047002070474948406AA0F5EA4134
:10230000303901D00120704700207047FFF71ABB19
:1023100043488038B0F90C00404270474048B5EE61
:10232000C00A8038D0ED140AF1EE10FA7FD230EEF8
:10233000600A7EE0626F6E675F74726F6E675F73D4
:10234000696C6F20323A2000626F6E675F74726F43
:102350006E675F73696C6F20333A2000493A000062
:10236000626F6E675F74726F6E675F73696C6F2008
:10237000343A2000626F6E675F74726F6E675F73CE
:10238000696C6F20353A2000626F6E675F74726F00
:102390006E675F73696C6F20303A2000646F5F6C0A
:1023A000617A655F73696C6F3A2000004D6175203A
:1023B00053616E3A2000000076695F7472695F6C49
:1023C00065636820793A20004D6175004D414E20CB
:1023D00048494E48203321003100000032000000FF
:1023E0003400000035000000360000003700000017
:1023F00038000000390000003130000031310000A9
:10240000313200003133000031340000313500003A
:10241000313600003137000031380000A060024042
:1024200080000020000C0240A0010020FFE730EEF9
:10243000200ABDEEC00A10EE100A704710B5041E47
:102440002DED068BF5489FEDF6AB9FEDF79B11D078
:10245000006914DA06F059FB41EC180B204606F02F
:1024600054FB53EC1A2B06F06FFA53EC192B06F0C1
:1024700065FA13E09FEDEE0ABDEC068B10BD06F089
:1024800044FB41EC180B204606F03FFB53EC1A2BA3
:1024900006F05AFA53EC192B06F0AFF953EC182B4F
:1024A00006F0C4FA06F055FB00EE100AE4E7B5EEBC
:1024B000C00AF1EE10FA01DAB1EE400A70470028C6
:1024C00000DA40427047D549803991ED1C0AD1EDC0
:1024D0001D1AF1EE400A80EEA11A00EE900AF8EE05
:1024E000E00A01EE200ABDEEC00A10EE100A7047A5
:1024F000F0EE401A9FEDCF0AF5EEC01AF1EE10FA99
:1025000001D2F1EE611AF5EEC00AF1EE10FA01D235
:10251000F1EE600AB5EEC01AF1EE10FA01D2B1EE9A
:10252000411AF4EEC01AF1EE10FA01DDB0EE610AC4
:10253000F4EEC00AF1EE10FA01DDB0EE600AB4EE7E
:10254000C01AF1EE10FA01DDB0EE410A7047B3484F
:1025500000697047B148C06B704770B5AF4C2DED46
:10256000068BB0EE408AA4F18005606AA0F5EA41CE
:1025700030397ED0226B616CD4ED0D0A891A401A75
:1025800000EE100A95ED171AA06BB8EEC00A00EE27
:10259000C10AD5ED160AC0EE208A06F0C7FA94EDFE
:1025A000010A41EC190B20EE280A10EE100A06F081
:1025B000BDFA41EC100B06F05BFC9FED9FAB51ECBC
:1025C000100B53EC1A2B06F0BFF953EC192B06F045
:1025D000B5F906F0BEFA2065A06B06F0A7FA95EDF6
:1025E000180AD4ED010A41EC190B38EE800A20EEEE
:1025F000200A10EE100A06F099FA41EC100B06F0D2
:1026000037FC9FED8F1B51EC100B53EC112B06F098
:102610009BF953EC192B06F091F906F09AFA6065D4
:1026200095ED190AD4ED010A38EE800A20EE200A51
:1026300010EE100A06F07AFA41EC100B06F018FCC6
:1026400053EC1A2B51EC100B06F07EF906F081FAD0
:10265000C4F85800B5EEC08AF1EE10FA38D0E06840
:1026600080B1012814D0022819D0032830D123E0EA
:10267000FFE79FED6F0A84ED160A84ED150A84EDDD
:10268000140AE7E794ED140A30EE480A84ED140AC0
:1026900094ED150A30EE480A84ED150A05E094ED34
:1026A000140A30EE480A84ED140A94ED160A30EE4E
:1026B000480A84ED160A0BE094ED140A30EE480A3D
:1026C00084ED140A94ED150A30EE480A84ED150ADB
:1026D00004F1500090EC030AFFF70AFFD5ED130A4E
:1026E000F8EEE00A80EE801ABDEEC10A10EE100A84
:1026F000A0612169814200DD20610120A060BDEC64
:10270000068B70BD4549002200284A61C86111D17D
:102710009FED470A0A6181ED0E0A47F23050486288
:10272000886281ED0D0ACA60CA62A1F18000CA63A5
:10273000826712E77047394890ED0D0AB5EEC00A7E
:10274000F1EE10FA04D1C16811B9C16A002909D0AB
:1027500000219FED370A80ED0D0AC160C162416C16
:102760000163FAE670472D488038C0ED1C0A80ED01
:102770001D0A7047294A536A834209D153698B4223
:1027800006D1D2ED0E0AF4EE400AF1EE10FA0ED0A8
:102790005161116909B905211161516C116382ED13
:1027A0000E0A50620020106292ED0D0AD5E67047C5
:1027B0001A4A30B4D36A834209D1D2ED0D0AF4EE3D
:1027C000400AF1EE10FA02D1D3688B423CD0546A31
:1027D00047F230539C4219D13224546105241461CC
:1027E000984213DAB5EEC00A0123F1EE10FAD36372
:1027F00002DD536C834207DCB5EEC00AF1EE10FA3D
:1028000004D2536C834201DAB1EE400AD160D06247
:1028100082ED0D0A0020106230BC9EE68000002090
:10282000333333333333D33F9A9999999999B93FD5
:10283000000000006F12833A00000000000000C09A
:10284000000000000000004030BC7047014647F225
:102850003050ADE71FED0A0A8CE710B5FA4C2DEDAC
:10286000028BF0EE608AD4ED0A0AB0EE418AF8EEEF
:10287000E00AF4EE400AF1EE10FA0BD161698142F0
:1028800008D1D4ED0B0AF8EEE00AF4EE680AF1EE96
:1028900010FA4AD0FDEEC00A0146C4ED0A0AD4ED92
:1028A000110AF8EEE00A30EE600ABDEEC00A10EE42
:1028B000102A1FED210A1046FFF75CFF94ED110A64
:1028C000F8EEC00A78EEE00AFDEEE00A10EE900A9B
:1028D000002800DA4042B8EEC00A642818DDF4EEA1
:1028E000C08AF1EE10FA01DCB1EE488A18EE100A47
:1028F00006F01CF906F02DF9FDEEE80ABDEC028B9E
:1029000000EE100ABDE81040002110EE900A4FE7DB
:1029100038EEC00A10EE100A06F008F99FEDCB1B46
:1029200053EC112B06F010F8E4E7BDEC028B10BD60
:1029300010B5C54CE06B01282FDD616CE06A401AD0
:10294000FFF7BDFD062812DA002020611FED480ABE
:10295000606184ED0D0AFFF700FEE06B411CE1634E
:10296000B0F5FA7F19DDBDE810400020CAE6052069
:10297000E16B6061FA29206101DDFB20E063E16A1F
:10298000606C884202DDBFEE000A01E0B7EE000A8B
:1029900084ED0D0ABDE81040DFE510BD70B5AA4911
:1029A00091ED0E0AB5EEC00AF1EE10FA73D10B6983
:1029B000002B70D0C86A47F23054A0426BDA91ED18
:1029C0000D0AB5EEC00AF1EE10FA7DD04D6AA1F104
:1029D0008002A54260D1B5EEC00A1346F1EE10FAAE
:1029E000DB6E03DD4D6CC41AAC4208DBB5EEC00AE9
:1029F000F1EE10FA17D24C6C0344A34213DDCB6BFB
:102A0000032B48DA4B6CC01AFFF759FD0A28C86A35
:102A10000ADA0864002008611FED7B0A486181ED35
:102A20000D0A0220C86379E091ED040AD1ED0D0A88
:102A30004B6CB8EEC00A984260EE200A92ED1B0A79
:102A4000B8EEC01A80EE810A0FDDFFF730FD4B6C47
:102A5000C86AC01AFFF733FD00EE900AB8EEE01A1C
:102A6000D2ED150A40EE010A0EE0FFF720FD4B6C97
:102A7000C86AC01AFFF723FD00EE900AB8EEE01A0C
:102A8000D2ED150A50EE410A91ED040AB8EEC01AD3
:102A900080EE810A42E046E06B4AB5EEC00A803A19
:102AA000D2ED1A0AF1EE10FA18DD01EE100AF8EE76
:102AB000C11A01EE103AB8EEC11A41EE401AB8EE52
:102AC000E01A71EEC11A00E02BE091ED111AB8EE98
:102AD000C11AF4EEC11AF1EE10FA1BD3B5EEC00A1A
:102AE000F1EE10FA1AD201EE100AF8EEE00AF8EE52
:102AF000C11A01EE103AB8EEC11A41EE401A31EE99
:102B0000A01AD1ED110AF8EEE00AB4EEE01AF1EEE7
:102B100010FA03DD496C401AFFF790FCBDE87040E5
:102B20001BE5086BF6E770BD474910B4C86B022877
:102B30000CDA1FEDC10A002281ED0E0A81ED0D0AAB
:102B400047F23050CA604862C1E90A020C6A3E4A44
:102B5000641C0C62803A0B68D06F9C4202DB0B62F3
:102B6000916F11B110BCFFF7ADBB0020FAE7364AF8
:102B7000136A5B1C1362834204DD10690844106110
:102B800000201062704710B5FFF7C2FB2E4C606446
:102B9000FFF7CEFE626920694FF0FF31002A0BDD9E
:102BA00090420ED006DAA16988420ADAFFF78BFC60
:102BB000012104E0E06C02E0002831DDE069FFF76C
:102BC000D6FFD4E91101814203D0FFF7E7FE606C24
:102BD000A064A068002826D094ED040AD4ED160A5B
:102BE000B8EEC00A20EE200AFFF798FB94ED040A25
:102BF000D4ED150A0246B8EEC00A20EE200AFFF70F
:102C00008DFB94ED040AD4ED140A0146B8EEC00A17
:102C100020EE200AFFF782FBBDE81040FFF724BB3F
:102C2000BDE8104080E710BD2DE9F047094A9078D3
:102C3000401FF52801D8012500E000251079401F2C
:102C4000F52809D8012608E0800000207B14AE4753
:102C5000E17A743FA00100200026FA4910784978F3
:102C6000C3060DD543060BD5830609D5030607D544
:102C700035B12EB18B0603D5BDE8F047022041E502
:102C80004B0702D43221142403E0C90715D01E21BA
:102C90000A249246EC4FC20647F23058A7F1800949
:102CA0004FEA40620CD4002A46DA82064FEA0060FE
:102CB00020D5002823DA002029E00A210724E8E7AC
:102CC000002A4FEA806208DB002A4FEA006018DA27
:102CD00000281BDA4FF4E16019E0002A4FEA006097
:102CE00004DB002828DA4FF4617010E000281ADBBA
:102CF000D6480CE000281FDA4FF4E17007E0D44812
:102D000005E0002818DA40F2465000E0D148FFF70D
:102D1000A1FD9AF80000C1060ED541060CD581062A
:102D20000AD5000608D545B956B1796A414507D09C
:102D30000520FFF7E7FC03E015B1FFF7FCFC2BE0F3
:102D40009AF802100122504605290FD24378DB077A
:102D50000CD0796A414503D00020BFEE080A11E08B
:102D600089F8002022461146084613E0FA2919D9AD
:102D70009AF80100C00715D0796A414505D00020B6
:102D8000B7EE080AFFF762FD06E089F8002062420C
:102D900010461146FFF768FA002189F80010BDE8D7
:102DA000F047C8E4022211461046F3E730B5A648C2
:102DB000A94A9623C56D691CC16501460C6E0021A8
:102DC000962D03D295892C44046604E0B4FBF3F4F9
:102DD000C16584670166456E6C1C44669A4C962DED
:102DE000A46E03D2D5892C44846604E0B4FBF3F4CA
:102DF0004166C4678166C56E6C1CC466924C962D94
:102E0000246F02D25189214405E0B4FBF3F28E4BCA
:102E100080331A60C166016730BD70B58A49894C3C
:102E20008039FE20C86160788C4DC0064FF4806602
:102E300004D401223146284602F002FD60784006A3
:102E400004D400223146284602F0FAFC60784FF4A0
:102E50000066800604D400223146284602F0F0FCC9
:102E60006078000604D401223146284602F0E8FCCE
:102E700060787B4E40074FF4807504D401222946C8
:102E8000304602F0DDFC6078C00706D129463046A6
:102E9000BDE87040002202F0D3BC70BD704770B531
:102EA000684C6E4E4FF400656078C00604D4012271
:102EB0002946304602F0C4FC6078400606D4294614
:102EC0003046BDE87040002202F0BABC70BD7047C9
:102ED00030B45D4C803C012B03D0022B04D0626BDC
:102EE00007E0594DED6F02E0574D80352D68521BBC
:102EF000626302EB820505EBC20262638A4202DC76
:102F000049428A4200DA61635649012B0AD0022BFA
:102F10003AD1B5EEC00AF1EE10FA28D1616B002962
:102F200018DC20E0B5EEC00AF1EE10FA0BD1616BAF
:102F3000002906DD01EE901AF8EEE11A30EE610A82
:102F400020E01CDB1EE010EE102A8A421CD1616BCF
:102F5000002906DD01EE901AF8EEE11A31EE800A42
:102F600010E001DB0EE00DDAC1F10001E2E710EE46
:102F7000102A8A4208D1616B0029DBDC02DAC1F138
:102F80000001E7E730BC68E45EE45B1A01D419464F
:102F900000E0594201EB4101890002EE101AB8EE3F
:102FA000C22AB4EEE12AF1EE10FA03DDFDEEE11AD9
:102FB00011EE901A934206DD01EE901AF8EEE11A36
:102FC00030EE210A06E005DA01EE901AF8EEE11A79
:102FD00030EE610A41E41C4880384189224803F000
:102FE000B1BF30B4184CE46FA41A01D4224600E0FB
:102FF0006242C2EB02124FF41675AA4200DD2A4665
:103000009FED1A1A9C4206DD00EE101AF8EEC00A77
:1030100000EE102A08E000EE101AF8EEC00A06DAF8
:10302000C2F1000100EE101AB8EEC00A01E09FEDF7
:10303000100A30BC11E430B4034CE46FA41A19D464
:10304000224618E0A0010020800000207CFCFFFF49
:103050003EFEFFFFBAFAFFFF1C03002000040240FF
:10306000000802400000E14400480040CDCCCC3DC7
:10307000000000006242C2EB02124FF41675AA4231
:1030800000DD2A461FED071A9C420ADDC2F5E16207
:1030900000EE102A00EE901AB8EEC00AF8EEE00A30
:1030A0000DE000EE101AF8EEC00A06DA02F5E16251
:1030B00000EE102AB8EEC00A01E09FEDFE0A30BC17
:1030C000FFF7CBBB30B4FC4C2468A41A01D42246D1
:1030D00000E06242C2EB02124FF41675AA4200DD14
:1030E0002A461FED1E1A9C4208DD00EE101AC2F19E
:1030F0000001F8EEC00A00EE101A06E000EE101A09
:10310000F8EEC00A04DA00EE102AB8EEC00A01E0B8
:103110001FED290A30BCFFF7A0BB30B4E64C246891
:10312000A41A01D4224600E06242C2EB02124FF41C
:103130001675AA4200DD2A461FED341A9C4208DDAE
:1031400000EE101AA2F5E162F8EEC00A00EE102AB5
:103150000AE000EE101AF8EEC00A08DA02F5E162A1
:10316000C2F1000100EE101AB8EEC00A01E09FEDB6
:10317000D10A30BCFFF771BB10B5FEF7E3FBFEF7D9
:10318000D4FBBDE810400A2004F095BF70B5CA4DCD
:10319000CA4A5C35A5F5AE74012807D0022805D0CF
:1031A000032803D0042801D005280BD102211046A2
:1031B00002F02EFB00EB4000E16A05EBC00050F886
:1031C0002100606470BD10B5BB4C96200834E073DC
:1031D000C000FDF77CFC0020E074E073A4F584716E
:1031E000B748CA6A50F822305B1C40F822300120F0
:1031F000086410BD10B52DED048B1FED638AB14C32
:103200009FEDB19ADFEDB18A1DE0C0B20B2808D165
:10321000B0EE001AF0EE480A0A20B0EE490AFFF7B5
:103220001CFBA078212808D1B0EE001AF0EE480A65
:103230000A20B0EE680AFFF710FBA0781628E4D148
:103240000020FFF75FFAA0781628DED1BDEC048BD2
:1032500010BD2DE9F0472DED028BFFF78DFF6F209C
:1032600004F029FF954F00224FF40061384602F028
:10327000E7FA01228021384602F0E2FA02213846BC
:1032800002F0C6FA0246DFF848A200214FF4807926
:103290004FF4E1705FED8A8A9FED868A864C40F696
:1032A000B836A4F18005012A804661600FD031E074
:1032B000022396224146B0EE001AF0EE680A322050
:1032C000B0EE480AFFF704FEFEF7BEFF30B9E86F24
:1032D000E628EDDCFDF7DAFBB042E9DB6068401C74
:1032E00060603228F3DBFFF785FF01224946504634
:1032F00002F0A6FA3FE00123FA224146B0EE001A9E
:10330000F0EE680A3220B0EE480AFFF7E1FDFEF762
:103310009BFF30B92068E628EDDCFDF7B7FBB04233
:10332000E9DB6068401C60603228F3DBFEF7FDFAE1
:10333000B0EE001AF0EE680A3220B0EE480AFFF74D
:103340008CFA41F2941402E0FEF77EFF18B9FDF703
:103350009DFBA042F8DB0020FFF7D4F90021B7EE77
:10336000000A5C48FFF724FA02E0012004F0A3FE03
:10337000E86B0028F9D10020FFF7C4F90122494683
:10338000504602F05DFABDEC028B3846BDE8F047CE
:103390000022802102F054BA70B54FF400564C4D13
:1033A0004D4C36E00221204602F032FA20B9314677
:1033B000284602F02DFA30B10221204602F028FA08
:1033C000012804D008E00020FFF79CF921E03146F5
:1033D000284602F01DFA28B10221204602F018FA10
:1033E00020B109E00020B7EE000A22E0314628466D
:1033F00002F00EFA012819D0FFF79DF92E48803807
:10340000806F401FC11700EB917081100020FFF703
:1034100021FA3146284602F0FBF90128C2D00221E8
:10342000204602F0F5F90128BCD070BD0020BFEEA7
:10343000000AFFF70BFAECE72DE9F05F214C2DEDC8
:10344000048BE06AFFF7A2FE002767713846FFF79A
:1034500059F91A4D01229102284602F0F1F9022190
:10346000284602F0D5F9DFED1D8A9FED1D9A9FEDEC
:103470001D8A40F25238DFF860A04FF4AF7504F1B6
:10348000800BC8F1000901284ED00B4E2946306848
:1034900088420EDAB0EE480A0123AF22B0EE001ADD
:1034A000F0EE400A3220FFF713FDFEF7CDFE0028B4
:1034B000ECD019E00000E1440001002000040240CB
:1034C0005002002000000020000061C400006144A0
:1034D000000802407CFCFFFF0010024000002FC4E7
:1034E00000002F4400000000DBF87C00616C5D46AA
:1034F0008842B0EE001AF0EE480A4FF0320079DD53
:10350000B0EE490AFFF7A9F98BE0B0EE480A0223B2
:10351000AF22B0EE001AF0EE400A3220FFF7D8FCDE
:10352000FEF792FE08B104E05E462946F06F88423D
:10353000EBDBFA4D616CB0EE001A2868F0EE480A39
:1035400088424FF032000EDDB0EE680AFFF785F9D1
:1035500003E000BFFEF778FE90B9606C2968283060
:103560008142F7DC0CE0B0EE490AFFF776F902E0A1
:10357000FEF76AFE20B9606C296828388142F7DBC3
:103580006F60B06F0A3800EBD0704010FEF797FF05
:10359000B0EE480A626C02236421B0EE001AF0EE2D
:1035A000400A521FFFF794FCFEF74EFE10B9B06FB1
:1035B0002828E6DC6868401C68606428E1DBB0EE1F
:1035C000480AB0EE001AF0EE400A0A20FFF745F96B
:1035D00003E000BFFEF738FE10B9B06F1928F9DC20
:1035E000FFF7DAFE0020FFF78DF8FFF7C5FD4E4626
:1035F00057460BE01BE02868616C88424FF00A01D7
:1036000001DD304600E04046FFF724F9402138460E
:1036100002F0FEF80128EED061E000BFFEF714FED4
:1036200090B9606CE96F1E308142F7DC0CE0B0EEBF
:10363000680AFFF712F902E0FEF706FE20B9606C97
:10364000E96F1E388142F7DB7760A86F0A3800EB1C
:10365000D0704010FEF733FFB0EE480A626C0223D0
:103660006421B0EE001AF0EE400A521FFFF730FC62
:10367000FEF7EAFD10B9A86F2828E6DC7068401C48
:1036800070606428E1DBB0EE480AB0EE001AF0EE9C
:10369000400A0A20FFF7E1F803E000BFFEF7D4FD7F
:1036A00010B9A86F1628F9DCFFF776FE0020FFF7A7
:1036B00029F8FFF761FD4E4657460AE0E86F616C56
:1036C00088424FF00A0101DD404600E03046FFF736
:1036D000C1F84021384602F09BF80128EED0BDEC3D
:1036E000048B0020BDE8F05FFFF70CB82DE9F04730
:1036F0008B4CE06AFFF74AFD02218A4802F088F805
:1037000040F252377D420128874E60780CD004F198
:103710008008012859D0002836D11921B9463846E9
:10372000FFF798F847467AE0DFF8F081012808D0E3
:10373000002829D11921A9462846FFF78BF84546CC
:1037400027E01921B9463846FFF784F8474602E0DA
:10375000FEF77AFD20B9606C396814388142F7DBD6
:10376000FFF71AFE0AE03868616C88424FF00501E5
:1037700001DD284600E04846FFF76CF8402130465E
:1037800002F046F80128EED0BDE8F087FEF75CFDB8
:1037900020B9606C296814308142F7DCFFF7FCFD2A
:1037A000B8464F460AE02868616C88424FF0050130
:1037B00001DD384600E04046FFF74CF84021304636
:1037C00002F026F80128EED0DEE71921A9462846A6
:1037D000FFF740F8454602E0FEF736FD20B9606C81
:1037E000E96F14388142F7DBFFF7D6FDB8464F4644
:1037F0000AE0E86F616C88424FF0050101DD404648
:1038000000E03846FFF726F84021304602F000F885
:103810000128EED0B8E700BFFEF716FD20B9606CB6
:10382000F96F14308142F7DCFFF7B6FD0AE0F86F5C
:10383000616C88424FF0050101DD484600E02846F2
:10384000FFF708F84021304601F0E2FF0128EED0F2
:103850009AE72DE9F047344F4FF4807A51463846C5
:1038600001F0D6FF2E4C012604F5A27501281BD0CD
:103870008021B946384601F0CBFF00274FF00308FE
:10388000A0B1B102484601F0C3FF88B15146484695
:1038900001F0BEFF002806D1286801280DD067710D
:1038A000E06A45F820606FE76671F9E7677100E04C
:1038B0006671E16A45F8218066E7E06A022145F811
:1038C0002010A06366715FE72DE9F041FFF7C1FFAB
:1038D000124D0027154E4435114C87E0286838BB3F
:1038E000677000E0A8B9E06A0FE000BF55F820104B
:1038F00051B9E062FFF7FAFEFFF7ABFF60790128EC
:1039000007D02868012804D0206B401C20630628BB
:10391000ECDB6078012820D1E06A1AE00001002089
:10392000000000200004024000100240500200206D
:1039300020E000BF55F8201051B9E062FFF7D6FE35
:10394000FFF787FF6079012814D02868012814D078
:10395000206B401E20630028ECDC6079012809D030
:103960002868012809D06078401CC0B26070022825
:103970003CD2B7E72868012838D1677000E0A0B9C9
:10398000E06A0EE056F8201055F82010032907D001
:10399000E062FFF7ABFEFFF75CFF6079012804D01F
:1039A000206B401C20630628ECDB6078012814D1D2
:1039B000E06A0EE056F8201055F82010032907D0D1
:1039C000E062FFF793FEFFF744FF6079012811D012
:1039D000206B401E20630028ECDC6079012809D0B0
:1039E0006078401CC0B260700228C8D3607900289B
:1039F0003FF474AFBDE8F08110B5FDF796FFFF49C5
:103A00000120C862BDE8104016E510B5FDF78DFF36
:103A1000FA490220C862BDE810400DE510B5FDF777
:103A200084FFF6490320C862BDE8104004E510B5E4
:103A3000FDF77BFFF1490420C862BDE81040FBE4BC
:103A400010B5FDF772FFED490520C862BDE81040D2
:103A5000F2E42DE9F047EA4D0421284601F0D8FEB2
:103A6000DFF8A0834FF4804728B13946404601F083
:103A7000CFFE002838D1E1490120DFF88C93C863DC
:103A8000002280214C46484601F0DAFE0122D10294
:103A9000204601F0D5FEDD4C0026E674E6754FF4B5
:103AA000FA70FDF714F8FE20E074BA464746042188
:103AB000284601F0ADFE0028F9D05146384601F005
:103AC000A7FE0028F3D04FF400473946284601F0FE
:103AD0009FFE0028F9D0E674E6734846BDE8F0473B
:103AE0000122910201F0ACBE4EE62DE9F05FC34C1D
:103AF0000026DFF80C83A06ADFF808B301254FF435
:103B0000FA794FF4807A1E301ED00821404601F029
:103B10007FFE01283AD048466562FCF7D8FF00BF17
:103B2000FCF7B4FF40F6AC51884204DD0022514658
:103B3000584601F085FEFCF7A9FF41F2B3518842D7
:103B400000DD6562BDE8F09FE06B0028FAD1FCF76C
:103B50009DFF4FF4FA67B84204DC0821404601F0AB
:103B600057FE48B9C4E9095600225146584601F0AB
:103B700067FE4846FCF7ABFFFCF788FFB842E1DD83
:103B800000225146584601F05BFEDBE76662C7E75C
:103B90002DE9F05F2DED028BFDF7C7FE974C4FF03E
:103BA00000099A48C4F83C9084F80590C822C27570
:103BB000FE22C273C2744FF0010B80F816B080F879
:103BC00012B080F80E90DFF838824FF0050A9FEDB2
:103BD000908A8D4F14214FF4E160FEF73BFE45467D
:103BE0004FF4805603E000BFFEF72EFB78B90821A2
:103BF000284601F00DFE012809D13146284601F082
:103C000007FE20B9606A10B960790028ECD0002066
:103C1000FEF778FD4FF4C870FCF759FFE06B012800
:103C200019D0606A0128D5D10020FEF76BFDFCF7A2
:103C30002DFF2062FDF779FE0221384601F0E8FDF4
:103C4000012847D0714D083DDFED728AA5F180064D
:103C5000C5F80490BCE00020FEF754FDFCF716FF09
:103C60002062FDF762FEB8464FF4006955464FF4F6
:103C70008076644F0DE01E210020FEF7EBFD002250
:103C80004946404601F0DCFD00223146384601F04D
:103C9000D7FDFCF7FBFE216A91FBF5F18842EADBD8
:103CA000B7EE001A9FED5C0A1E20F0EE400AFEF708
:103CB000D4FD06E0FEF7C8FA002808D1012004F080
:103CC000FAF9FEF725FBFEF7FAFB0228F2DCBDEC61
:103CD000028B37E74D4E5546083EC6F804900BE080
:103CE000B0EE480AB0EE001AF0EE400A3220FEF7BD
:103CF000B4FDFEF7A9FA38B9FCF7C8FE216A8900BD
:103D000091FBF5F18842EBDB7068401C7060322853
:103D1000F2DB206C032190FBF1F201FB120151B1A7
:103D2000401C2064FDF701FE14213C48FEF792FD83
:103D30004FF47A752FE0FDF7F8FD304DDFED388A4E
:103D40008035C6F804900EE0E86F1E38FEF7B7FB2A
:103D5000B0EE001AF0EE480AB0EE680AFEF77DFDFC
:103D6000FEF772FA38B9E86F2328EDDCFCF78EFE17
:103D7000B0F5967FE8DB7068401C70603228F2DB9B
:103D800001229102384601F05BFDC4F840B006E024
:103D9000FEF75AFA18B9FCF779FEA842F8DB0122BF
:103DA0001102184801F04CFDFDF7BFFD12E7643821
:103DB00000EBD0704010FEF782FBB0EE680AB0EE68
:103DC000001AF0EE400AFEF748FDFEF73DFA10B982
:103DD000B06F6428EBDC6868401C68603228F7DB51
:103DE000206C032190FBF1F201FB1201E9B1401CB0
:103DF0002064FDF79AFD4FF4617613E00000002087
:103E000000100240000802400004024008010020A7
:103E100000006144000061C4000000007CFCFFFF62
:103E20000000E144C5F8049037E00020FEF76AFC8A
:103E30000021B7EE000AFE48FEF7BAFC02E00120BE
:103E400004F039F9F06B0028F9D1FEF75BFCF84E6D
:103E5000C5F804900BE000BFC0F1280000EBD07063
:103E60004010FEF72CFB01463046FEF7F3FC2868B5
:103E70002828F1DC6868401C68603228F7DBC4F849
:103E800040B0A7E664380F2801DA0A2001E0FEF707
:103E900016FB01463046FEF7DDFC28686428F1DB9E
:103EA0006868401C68603228F7DB93E62DE9F05F14
:103EB0002DED048BFFF760F96F2004F0FCF8DFF8BC
:103EC00074B30221584601F0A3FC1FED2D8ADFF8E0
:103ED00068831FED2D9AB0EE480A01284FF47A67E7
:103EE00041F64C564FF000094FF4617A4FF4967545
:103EF00008F18004B7EE001AF0EE400A4FF03200ED
:103F000002D0FEF7AAFC0CE1FEF7A7FC03E000BF1D
:103F1000FEF79AF918B9FCF7B9FDA842F8DBB0EE44
:103F2000480AB7EE001AF0EE400A7820FEF795FC3A
:103F30003D4602E0FEF788F918B9FCF7A7FDA84254
:103F4000F8DBB7EE001AF0EE480A5020B3EE0E0A86
:103F5000FEF783FC03E000BFFEF776F918B9FCF723
:103F600095FDB042F8DBB7EE001AF0EE480A3220B9
:103F70009FEDB20AFEF771FC03E000BFFEF764F9A3
:103F800010B9A06F5028F9DC0020FEF7BBFB4D46AE
:103F9000DFEDAB9A5FED628AAA4E4FF4BB77C8F8AB
:103FA0001C9000221E21F0EE691AB0EE001AF0EE0D
:103FB000480A3220B0EE680AA36FFEF7E6FF05E07C
:103FC000FEF742F928B9012004F075F83068B842CC
:103FD000F6DDD8F81C00401CC8F81C006428E0DBA3
:103FE0000020FEF78FFBFDF7A0FCB0EE480AB0EE14
:103FF000001AF0EE400A4620FEF72FFC4FF49656CA
:1040000003E000BFFEF720F918B9FCF73FFDB0420E
:10401000F8DB0020FEF776FBB0EE680AB7EE001A78
:10402000F0EE400A1E20FEF718FC564606E000BFE0
:10403000FEF70AF940B9012004F03DF8FEF768F9EF
:10404000FEF73DFAB042F3DB14210020FEF702FC3C
:1040500003E000BFFEF7F8F810B9A06F1928F9DCEB
:10406000FDF763FC05210020FEF7F4FB03E000BF31
:10407000FEF7EAF818B9FCF709FD6428F8DB002020
:10408000FEF740FB00224FF400615E46584601F007
:10409000D7FB01228021304601F0D2FB6949FE2086
:1040A0000831C873C874C8750120887588748D7309
:1040B000FFF762F86F2003F0FEFFB0EE001AF0EE9B
:1040C000480A3220B0EE490AFEF7C7FB41F69025B8
:1040D00003E000BFFEF7B8F818B9FCF7D7FCA84218
:1040E000F8DB0020FEF70EFB0021B0EE000A4FF4D3
:1040F000E170FEF75DFB02E0012003F0DCFFE06B06
:104100000028F9D1FEF7FEFA012211024E4801F013
:1041100097FB00228021304619E100BFFEF794F89A
:1041200018B9FCF7B3FCA842F8DBB0EE480AB7EECA
:10413000001AF0EE400A7820FEF78FFB03E000BF84
:10414000FEF782F818B9FCF7A1FCB842F8DBB7EE2D
:10415000001AF0EE480A5020B3EE040AFEF77DFB89
:1041600003E000BFFEF770F818B9FCF78FFCB0420F
:10417000F8DBB7EE001AF0EE480A32209FED330A62
:10418000FEF76BFB03E000BFFEF75EF810B9A06F0F
:104190005028F9DC0020FEF7B5FADFED2D8A4F46F6
:1041A0005FEDE49A4FF4AF76C8F81C90002223210B
:1041B000F0EE681AB0EE001AF0EE480A3220B0EEC7
:1041C000690AA36FFEF7E1FE06E000BFFEF73CF8C8
:1041D00028B9012003F06FFFE06FB042F6DBD8F89A
:1041E0001C00401CC8F81C006428DFDB0020FEF720
:1041F00089FAFDF79AFBB0EE480AB0EE001AF0EE2D
:10420000400A4620FEF729FB41F2941603E000BF66
:10421000FEF71AF818B9FCF739FCB042F8DBB0EE3B
:10422000480A1E20B0EE401AF0EE400A12E00000EC
:104230007CFCFFFF00040240000000200000484317
:10424000000048C20001002000080240000048C3EE
:1042500000004842FEF701FB03E000BFFDF7F4FF5A
:1042600010B9A06FA842F9DC0020FEF74BFAB0EEBF
:10427000690AB0EE001AF0EE400A1E20FEF7EDFAD1
:10428000564605E0FDF7E0FF40B9012003F013FFBB
:10429000FEF73EF8FEF713F9B042F3DB14210020DD
:1042A000FEF7D8FA03E000BFFDF7CEFF10B9A06F0C
:1042B0001E28F9DCFDF739FB05210020FEF7CAFABC
:1042C00003E000BFFDF7C0FF18B9FCF7DFFBA84211
:1042D000F8DB0020FEF716FA0122D102584601F061
:1042E000AFFAFEF749FF6F2003F0E5FE41F65835BF
:1042F000C8F81C70B0EE001AF0EE480A3220B0EE9A
:10430000490AFEF7AAFA02E0FDF79EFF18B9FCF78A
:10431000BDFBA842F8DBD8F81C00401CC8F81C0004
:104320003228E7DB0020FEF7EDF90021B0EE000AAD
:10433000FE48FEF73DFA02E0012003F0BCFEE06B10
:104340000028F9D1FEF7DEF90122F9481102BDEC8F
:10435000048BBDE8F05F01F073BA10B5F54CA06BAB
:10436000012801D1FFF748FBA06B022801D1FFF71C
:104370004CFBA06B032801D1FFF750FBA06B042876
:1043800001D1FFF754FBA06B052803D1BDE8104015
:10439000FFF756BB10BDE84A30B413680121E54869
:1043A000012B16D0C0F8301052F82130EBB3491C65
:1043B0000629F9DB0163C06A042838D0032839D004
:1043C00002283AD001282DD0052839D130BCFFF77A
:1043D00037BBC478D94B022C08D0016353F8214075
:1043E00052F82140032C0ED0C16210E00521016378
:1043F00053F8214052F82140032CF5D1491E0163A6
:104400000129F5DA03E0491C01630529E6DDC06AEC
:104410000528DBD004280AD003280BD002280CD0B2
:1044200001280DD130BCFFF7E7BAC162C2E730BC4A
:10443000FFF7FDBA30BCFFF7F1BA30BCFFF7E5BAC1
:1044400030BC7047FFF7A4FBBA4CE06A012808D0E3
:10445000022809D003280AD004280BD005280CD044
:104460000DE0FFF7C9FA0AE0FFF7CFFA07E0FFF720
:10447000D5FA04E0FFF7DBFA01E0FFF7E1FAFFF716
:10448000E8F906E0FFF7E5F96079012810D0FFF7B9
:104490002DF960790028F5D000256571FEF7D9FE69
:1044A000FFF776FBA06B30B1FFF757FFA5630CE079
:1044B000FEF789FEF0E7FFF76EFF06E0FFF7C9F9A8
:1044C0006079012806D0FFF711F960790028F5D04E
:1044D0006571E5E7FEF777FEFEF7BBFEF5E72DE930
:1044E000F05F2DED068BFEF747FE6F2003F0E3FD36
:1044F000934F0221384601F08BF9DFED92AA9FED30
:1045000092AA00265FEDAE8ADFED909A894D4FF4B6
:10451000C07A4FF4E1699FED8E8A05F180044FF473
:10452000947B0128B6EE001A09D0B0EE489A142008
:10453000F0EE490A1FEDBB0AFEF78FF9BDE0F0EE81
:10454000480A14201FEDC30AFEF787F903E000BFF5
:10455000FDF77AFE10B9A06F2828F9DC0020FEF7DD
:10456000D1F89FED7C9ADFF8D081EE61A8F1440884
:104570000DE000221E21F0EE681AB7EE001AF0EEF0
:10458000480A2820B0EE490AA36FFEF7FEFCD8F8CF
:104590000000FA28EDDBE869401CE8613228F6DB10
:1045A000EE610DE01E210022F0EE681AB7EE001A4F
:1045B000F0EE480A0846B0EE490AA36FFEF7E5FCA4
:1045C000D8F800005045EDDDE869401CE86132286C
:1045D000F6DB0020FEF796F8FDF7A7F9B0EE480AE3
:1045E000B0EE6A1AF0EE400A3C20FEF736F94D466E
:1045F00003E000BFFDF728FE18B9FCF747FAA84210
:10460000F8DBB0EE480A1E20B0EE401AF0EE400A89
:10461000FEF723F9594602E0FDF716FE10B9A06F28
:104620008842F9DA0122D102384601F009F9012263
:104630009102384601F004F9012211023C4801F0D0
:10464000FFF8FDF772F9B0EE4A1AF0EE480A322090
:10465000B0EE690AFEF701F94FF4FA6603E000BF15
:10466000FDF7F2FD18B9FCF711FAB042F8DB0020B3
:10467000FEF748F80021B7EE080A2846FEF798F83A
:10468000E06B0028FDD1F0EE480A1E20B0EE601A63
:10469000B0EE690AFEF7E1F804E000BFFDF7D4FDD3
:1046A000002803D1D8F800005028F7DCBDEC068BB9
:1046B000BDE8F09FFDF7C8FD10B9A06F2828F9DC10
:1046C0000020FEF71FF8B0EE688AF0EE698AEE610E
:1046D0000DE000221E21F0EE481AB7EE001AF0EEAF
:1046E000490A2820B0EE680AA36FFEF74EFCE06F7F
:1046F000FA28EEDBE869401CE8613228F7DBF0EECF
:10470000489AEE615646B0EE498A0DE01E2100221D
:10471000F0EE691AB7EE001AF0EE480A0846B0EE5D
:10472000680AA36FFEF731FCE06F15E03EFEFFFF65
:104730000008024000000020440100205002002038
:1047400000040240CDCC4C3ECDCC4C3F000061C4B7
:104750000000000000006144B042D7DDE869401C61
:10476000E8613228E0DB0020FDF7CCFFFDF7DDF843
:10477000B0EE480AB0EE6A1AF0EE400A3C20FEF7AE
:104780006CF84D4603E000BFFDF75EFD18B9FCF77D
:104790007DF9A842F8DBB0EE480A1E20B0EE401AC0
:1047A000F0EE400AFEF759F8594602E0FDF74CFDDD
:1047B00010B9A06F8842F9DA0122D102384601F01F
:1047C0003FF801229102384601F03AF80122110225
:1047D000FE4801F035F8FDF7A8F8B0EE4A1ADFED13
:1047E000FC0A5FED248A3220B0EE680AFEF735F845
:1047F00040F2FE6103E000BFFDF726FD18B9FDF7AA
:1048000087FD8842F8DBF0EE480A1E20B0EE601A01
:10481000B0EE680AFEF721F8EE4904E0FDF714FD5A
:1048200000287FF443AF08685F28F7DC3EE7FFF716
:1048300056FEFFF7ADF9FFF703F9FFF745F8FEF76E
:10484000C2FCFEF706FDE44C002500BFFFF7A0F90F
:10485000A06B48B1FFF781FDFFF736F8FEF7B3FC18
:10486000FEF7F7FCA56307E0FFF795FDFFF72CF8CF
:10487000FEF7A9FCFEF7EDFC6571E7E70021B0EE5D
:10488000000A4FF4E170FDF793FFD24C803C02E048
:10489000012003F010FCE06B0028F9D1FDF732FF96
:1048A00001221102C94800F0CBFFCC4C00224FF48A
:1048B0000061204600F0C4FF01228021204600F064
:1048C000BFFF40F2DC50FCF702F9002280212046B5
:1048D00000F0B6FFFFF75CF9FFF7B2F8FEF7F4FF60
:1048E000FEF771FCFEF7B5FC0025BB4CFFF750F955
:1048F000A06B48B1FFF731FDFEF7E6FFFEF763FC62
:10490000FEF7A7FCA56307E0FFF745FDFEF7DCFF18
:10491000FEF759FCFEF79DFC6571E7E7AE4C012000
:1049200004F5A27500262063FFF732F9206B0128F9
:1049300001D1FFF761F8206B022801D1FFF765F87C
:10494000206B032801D1FFF769F8FEF73CFCE06A11
:1049500055F82010491C45F82010FEF77AFC206B12
:10496000401C20630428DFDBFFF712F9A06B48B17D
:10497000FFF7F3FCFEF7A8FFFEF725FCFEF769FC46
:10498000A66307E0FFF707FDFEF79EFFFEF71BFC9F
:10499000FEF75FFC6671E7E70021B0EE000A4FF416
:1049A000E170FDF705FF8B4C803C02E0012003F035
:1049B00082FBE06B0028F9D1FDF7A4FE0122110271
:1049C000824800F03DFF854C00224FF400612046F4
:1049D00000F036FF01228021204600F031FF4FF425
:1049E0009660FCF774F800228021204600F028FF32
:1049F000794C012504F5A27600272563FFF7C8F856
:104A0000A562206B012801D1FFF708F8206B02286E
:104A100001D1FFF70CF8206B032801D1FFF710F844
:104A2000FEF7D1FBE06A56F82010491C46F820102A
:104A3000FEF70FFC206B401C20630428DEDB00BF68
:104A4000FFF7A6F8A06B48B1FFF787FCFEF73CFF25
:104A5000FEF7B9FBFEF7FDFBA76307E0FFF79BFC42
:104A6000FEF732FFFEF7AFFBFEF7F3FB6771E7E7F8
:104A7000FEF7EFBB57484430416803290CD18168E9
:104A8000032909D1C168032906D10169032903D18A
:104A90004169032900D1016070472DE9F05F2DEDD8
:104AA000048BFEF769FBB6EE001A1FEDD78A2820AB
:104AB000F0EE480A9FED4A0AFDF7CFFE464C00256E
:104AC000444EE56102E0012003F0F5FA3068372832
:104AD000F9DCE069401CE0613228F7DBB0EE480AFF
:104AE000B6EE001AF0EE400A3C20FDF7B6FEFCF7E9
:104AF0001CFF40F63C77E56102E0012003F0DBFAA1
:104B0000FBF7C4FFB842F8DBE069401CE0613228E3
:104B1000F6DBB0EE480AB6EE001AF0EE400A1420BA
:104B2000FDF79BFE2B4FE561803F02E0012003F083
:104B3000C2FAB86F9928F9DCE069401CE0613228BC
:104B4000F7DBFCF7F2FEDFED278AB6EE001AF0EE97
:104B5000480A3C20B0EE680AFDF77FFE41F2A868E3
:104B6000E56102E0012003F0A6FAFBF78FFF404564
:104B7000F8DBE069401CE0613228F6DBB6EE001A93
:104B8000F0EE480A2820B0EE680AFDF766FEE561FF
:104B900002E0012003F08FFA3068AF28F9DCE06909
:104BA000401CE0613228F7DBFCF7BFFE9FED0E9A58
:104BB000B6EE001AF0EE480A2820B0EE490AFDF7DA
:104BC0004CFE4FF480684FF47A790FE00008024001
:104BD0000000E14400010020000000200004024029
:104BE0000000E1C3000061C40000E1C4DFF808B4C4
:104BF000DFF808A44FF4FA66E56102E0012003F053
:104C00005AFAFBF743FFB042F8DBE069401CE06171
:104C10003228F6DBDFEDFA9A5E46D3467078162826
:104C200023D0212802D00B2808D010E0BEEE001AB5
:104C3000F0EE480A1420B0EE680A06E0B6EE001A5C
:104C4000F0EE480A1420B0EE690AFDF706FEF86F90
:104C5000322801DA012200E000224146584600F0E5
:104C6000EFFD484603F027FAD8E70020FDF74AFD9C
:104C7000BEEE001AF0EE480A1420B0EE490AFDF725
:104C8000ECFDDD4E65714FF00109DFF878A3983E29
:104C90004FF0FE08DC4F65623EE0012211025046F3
:104CA00000F0CEFD00224FF40061584600F0C8FD30
:104CB000BEEE001AF0EE480A1420B0EE490AFDF7E5
:104CC000CCFDC820F07586F80F8086F8138086F832
:104CD000169086F81290B5730421384600F098FDBE
:104CE00028B14FF48041504600F092FD50B984F84D
:104CF0000590F574F5751AE00020FDF703FD0A2014
:104D000003F0D9F94FF48051384600F081FD0128B5
:104D1000F2D0012003F0CFF90821384600F078FDE9
:104D2000012804D1606A10B960790028B5D000204C
:104D3000FDF7E8FC4FF4FA70FBF7C9FE6079012833
:104D40001ED101020022504600F07AFD0122D1025C
:104D5000584600F075FD444686F80F8086F81380AB
:104D60004FF4004804E0F473F474012003F0A3F955
:104D70004146384600F04CFD0028F4D0F573F57438
:104D8000C820FBF7A4FEBDEC048B0020BDE8F05F5B
:104D9000FDF7B8BC2DED068B0425FEF7EDF9DFED30
:104DA000989A5FED708ADFF850B2ABF1980B9FEDE7
:104DB000978A1FED739AABF5847A00BF944E4FF03B
:104DC0000109F06F322806DA012291028B4800F0C7
:104DD00037FD002206E000224FF48061874800F092
:104DE0002FFD01224FF48071864800F029FD4FF419
:104DF0007A7003F060F900275446DFF8FC81CAF8A6
:104E00001C7043E0212804D00B2805D02C280BD09F
:104E10001AE0BEEE001A25E0B6EE001AF0EE480ADF
:104E20001E20B0EE690A0DE0F06F322816DDB9F1F0
:104E3000000FF1D1B6EE001AF0EE480A5FF0140050
:104E4000B0EE680AFDF709FDF06F32280EDA012294
:104E500091026A4800F0F4FC00220EE04FF00009D5
:104E6000B6EE001AF0EE480A1E20E9E700224FF4E1
:104E70008061624800F0E4FC01224FF480716148D7
:104E800000F0DEFC4FF47A7003F015F998F8010099
:104E90001628B7D1E069401CE0619628F6DB0020B7
:104EA000FDF730FCBEEE001AF0EE480A1E20B0EE10
:104EB000490AFDF7D2FC6771A04667624F4CB946BC
:104EC00000224FF40061204600F0BAFC012280214C
:104ED000204600F0B5FC4FF4FA70FBF7F8FD002215
:104EE0008021204600F0ACFC474C2DE0BEEE001ABD
:104EF000F0EE480A1420B0EE490AFDF7AEFCC821D6
:104F00008BF81710FE218BF80F108BF8131001216E
:104F10008BF816108BF812108BF80E900421204697
:104F200000F076FCB8B14FF48041364800F070FCD8
:104F300088B14FF480573946204600F069FC0128BB
:104F40001BD0012003F0B7F80821204600F060FCD8
:104F500001281FD025E0012088F805000246C10283
:104F6000264800F06DFC4F46DC468BF81790642015
:104F7000FBF7ADFD8CF8137013E00821204600F01C
:104F800047FC0028DDD00020FDF7BCFB0A2003F021
:104F900092F8D0E7D8F8241019B998F8050000283D
:104FA000A4D00020FDF7AEFB4FF4FA70FBF78FFDA5
:104FB0004FF4004707E0FE218BF80F108BF8131019
:104FC000012003F078F83946204600F021FC002843
:104FD000F1D000218BF80F108BF81310B0EE480AB7
:104FE000BEEE001AF0EE400A3C20FDF736FC084FFA
:104FF0004FF4C87980374DE0A00100200004024042
:10500000000061440008024000100240000000005F
:105010008000002098F80500012811D0FCF785FCDD
:10502000B0EE480ABEEE001AF0EE400A2820FDF766
:1050300014FC0020444640F6B836C8F81C0036E0A0
:1050400000224FF48071DA4800F0FAFBD94C0122BB
:10505000D102204600F0F4FB01229102204600F02C
:10506000EFFBFE205C468BF80F008BF813004FF42B
:105070000041D14800F0CCFB18B10020E073E0748F
:1050800005E0FE20E073E074012003F014F8012035
:1050900003F011F838684845BCDB00274446DFF8C8
:1050A0001C93C8F81C7019E0012003F004F8FBF70A
:1050B000EDFCB042F8DBE069401CE0613228F6DB31
:1050C0007CE60A3800D54042C11700EB917059F8D0
:1050D0002520801002230021FDF783FFB06F1E28DA
:1050E000EFDCE069401CE0613228F7DB0020FDF7CF
:1050F00009FBA0464E46B24CC8F81C700EE08A422E
:10510000B6EE001AF0EE480A4FF0140002DAB0EEE4
:10511000690A01E0B0EE680AFDF79FFB56F825200A
:10512000E16F881A00D540420F28E8DCD8F81C004F
:10513000401CC8F81C003228F0DB0020FDF7E2FA22
:10514000FEF72AF9FCF712FC3220FBF7C0FCDFED7A
:105150009DAA9FED9DAAC8F81C700EE09142B6EE84
:10516000001AF0EE480A4FF0080002DAB0EE6A0AC0
:1051700001E0B0EE4A0AFDF770FB56F82510E26F29
:10518000501A00D540420128E8DCD8F81C00401C29
:10519000C8F81C003228F0DB0020FDF7B3FA8021AC
:1051A000854800F035FBA8B10020FDF7ABFA64207C
:1051B000FBF78DFCDC205E468BF80F0040F21450AC
:1051C000FBF785FCF7730020FDF79CFA4646C8F80C
:1051D0001C7007E06D1E8DE70223BE2200213C20DB
:1051E000FDF729FFA06FD428F6DBF069401CF061C1
:1051F0003228F7DBFCF799FBBEEE001AF0EE480A06
:105200001E20B0EE490AFDF728FB4FF4AF64F761AA
:1052100002E0012002F04FFFFBF738FCA042F8DB70
:10522000F069401CF0613228F6DB0020FDF76AFAD5
:10523000C820FBF74CFCC1E51220FCF735FF0F201E
:1052400002F039FFF8E700BFFDF7B0FD0A2002F0D9
:1052500032FFF9E74FF47A74FDF7BDFE2046FBF705
:1052600036FCF9E7FDF78FFC0A2002F024FFF9E78E
:105270001FB5FBF738FCFBF769FCFBF79DFDFBF75F
:105280003EFEFBF7F7FEFBF77DFFFBF7DFFC4FF47D
:10529000E1342046FCF71EF82046FCF79FF8204634
:1052A000FCF722F92046FCF7BDF9E000FCF73FFAD5
:1052B000FCF748FBFCF739FB3E4D0122D1022846A2
:1052C00000F0BEFA0024AE15009401940294234627
:1052D00032463EA14248039402F016FD0094019428
:1052E0000294002332463FA14348039402F00CFD90
:1052F0000094019402940023324640A1474803944D
:1053000002F002FD2E4CA846DFF8A4A002270126D9
:10531000294D4FF40049803C4FF4005B494650460C
:1053200000F076FA01280BD066812021284600F093
:105330006FFA38B15946284600F06AFA28B10BE0F6
:105340006781F2E7E670FFF7E9FA0221404600F0D4
:105350005FFA68B1FFF7A1FB1021284600F058FA68
:105360000028DBD1FEF718F80020FDF7CBF9D5E7D0
:10537000FFF710FD7FB500244FF480750094019471
:10538000029423462A4626A12848039402F0BCFC36
:1053900000940194029400232A4625A127480394EF
:1053A00002F0B2FC02F0D6FF04B0002070BD000095
:1053B0000008024000040240001002408C0100205E
:1053C0008000002000805444008054C47461736BDA
:1053D000526F626F74416E616C797469637300001F
:1053E000655200087461736B446965754B68696543
:1053F0006E436F4361750000475200087461736B20
:10540000526F626F74416E616C79746963735F751A
:105410006172745F73656E6400000000555200088D
:105420007461736B4D61696E000000007152000879
:105430007461736B4779726F000000003952000885
:105440000CB500205149019000900A6842F4803266
:105450000A604FF4A0630A6802F400320092019AD5
:10546000521C0192009A12B9019A9A42F3D10A6829
:10547000920334D50120009044484030026842F045
:10548000805202604248026842F4804202603F4813
:10549000083002680260026842F40042026002685A
:1054A00042F4A0520260031F3A4A1A600A6842F0AE
:1054B00080720A600A689201FCD5374A40F20561A1
:1054C0001160016821F003010160016841F00201EF
:1054D00001600168C1F381010229FAD10CBD00907D
:1054E0000CBD2A4810B5016841F001010160274A4E
:1054F0000021083211600268284B1A400260031D27
:10550000274A1A60026822F4802202601F480C3089
:105510000160FFF795FF23494FF00060086010BD60
:1055200070B51A4C083420681F4A10F00C011F484F
:1055300004D05510042903D0082903D002601BE0D1
:10554000056019E01149091D0B68C3F380560B680B
:1055500003F03F0316B1B5FBF3F201E0B2FBF3F247
:105560000B680968C3F388135A43C1F30141491C0E
:105570004900B2FBF1F1016021680C4AC1F303114B
:10558000121D515C0268CA40026070BD00380240C2
:105590000070004008544007003C0240FFFFF6FE48
:1055A0001030002408ED00E00024F400BC010020CD
:1055B0000648804706480047FEE7FEE7FEE7FEE7AD
:1055C000FEE7FEE7FEE7FEE7FEE7FEE7E35400083E
:1055D000890100082849084328490860704730B508
:1055E0000F22C47801780123FCB1244C246801F116
:1055F000E02104F4E064C4F5E064C4F30724C4F1DA
:105600000405E2404478AC408578154025432A01E2
:1056100081F80024007800F01F018B4040098000D1
:1056200000F1E020C0F8003130BD01F01F008340E0
:105630004809800000F1E020C0F8803130BD104AF8
:10564000114001430D48001F016070470B4A121DB5
:105650000029116801D0014300E0814311607047C7
:105660004FF0E0210428086903D020F0040008610D
:10567000704740F00400FAE70000FA050CED00E086
:1056800080FFFF1F7C4910B5884206D101210846E2
:1056900000F058FA002101204FE07849884206D1F5
:1056A0000121022000F04EFA0021022045E0744959
:1056B000884206D10121042000F044FA0021042090
:1056C0003BE07049884206D10121082000F03AFAF7
:1056D0000021082031E06C49884206D101211020C8
:1056E00000F030FA0021102027E06849884206D1F6
:1056F0000121202000F026FA002120201DE064492D
:10570000884206D10121402000F01CFA00214020EF
:1057100013E06049884206D10121802000F012FA8E
:105720000021802009E05C4988420AD184150121CA
:10573000204600F007FA00212046BDE8104000F0A6
:1057400001BA10BDF0B50023012403270D6804FA47
:1057500003F21540954242D1D0F800C05E0007FA2E
:1057600006F52CEA050CC0F800C091F804C0D0F88A
:1057700000E00CFA06FC4CEA0E0CC0F800C091F8F0
:1057800004C0BCF1010F02D0BCF1020F1FD1D0F850
:1057900008C02CEA050CC0F808C091F805C0D0F884
:1057A00008E00CFA06FC4CEA0E0CC0F808C0D0F871
:1057B00004C02CEA020CC0F804C0426891F806C08C
:1057C0000CFA03FC1FFA8CFC42EA0C024260C2682D
:1057D000AA43C260CA79C568B2402A43C2605B1C52
:1057E000102BB3D3F0BD4FF6FF71016000210171A2
:1057F00041718171C171704708B541F480320092E6
:10580000C261C1610099C161C169C069009008BDF0
:105810000246002012690A4200D001207047006948
:1058200080B270470246002052690A4200D001202F
:105830007047406980B27047018370474183704769
:105840000AB10183704741837047416170474269E3
:105850004A40426170474B07DB0E9A40C90810B5B9
:1058600000EB8100016A0F249C40A1430162016AA0
:105870001143016210BD000000000240000402401C
:1058800000080240000C02400010024000140240D8
:1058900000180240001C024000200240EA48016853
:1058A00041F001010160E84A0021083211600268FC
:1058B000E64B1A400260031DE54A1A60026822F4B2
:1058C00080220260E0480C3001607047DE4900220F
:1058D000891C0A700870704702460020510901298E
:1058E0000CD002290CD0D8497431096802F01F028B
:1058F000012393400B4200D001207047D249F4E7C6
:10590000D1497031F1E718B500204FF4A064009040
:105910003120FFF7E1FF0099491C0091A14201D01D
:105920000028F5D03120FFF7D7FF002800D0012054
:1059300018BDC5490A6822F0F80242EAC0000860B2
:105940007047C44908607047BF49002270310A702F
:105950000A70012802D0042801D105200870704780
:10596000BD490860704741EA82115A0810B5BB4B27
:10597000029C03EB02421143014341EA0460B24935
:10598000091D086010BDB34908667047800140EAF0
:105990000170AD49843108607047AE498866704730
:1059A000AC49C8647047A84A08321368084323F01A
:1059B000EC63184310607047A34A08321368084329
:1059C00023F078431843106070479F4A08321168EB
:1059D00021F003010143116070479B4808300068C3
:1059E00000F00C007047984A0832116821F0F0016D
:1059F000014311607047944A0832116821F4E05164
:105A0000014311607047904908310A6822F46042EE
:105A100042EAC0000860704770B58B4A08321168CE
:105A20008F4C11F00C0104D06610042903D0082912
:105A300003D004601BE0066019E08349091D0B6870
:105A4000C3F380550B6803F03F0315B1B6FBF3F3C6
:105A500001E0B4FBF3F30C680968C4F388146343F2
:105A6000C1F30141491C4900B3FBF1F10160116828
:105A70000F2303EA11117B4B5C5C0168E14041603C
:105A80001468072505EA94241C5D21FA04F4846057
:105A9000126805EA52329A5CD140C16070BDC0F311
:105AA0000121032908D1684A0832116821F4F8134A
:105AB0006D49014019431160634970310A68C0F3B0
:105AC0000B0002430A60704763494439086070471D
:105AD00061494039086070475E49C1F85C01704710
