:020000040800F2
:1000000090300020B945000845020008470200086A
:10001000490200084B0200084D02000800000000E1
:100020000000000000000000000000009D0100082A
:100030004F02000800000000E1010008EF6B00081B
:10004000D3450008D3450008D3450008D345000830
:10005000D3450008D3450008D3450008D345000820
:100060001704000863040008D345000801030008D2
:10007000C30200084D030008D345000875020008BC
:10008000D34500087D020008D3450008D345000889
:10009000D3450008D3450008D3450008D3450008E0
:1000A000D34500087103000891030008D3450008F8
:1000B00093030008B3030008D3030008D3450008E6
:1000C000D3450008D3450008D345000813040008B1
:1000D000D345000855020008D3450008D345000861
:1000E000D3450008D3450008D3450008D345000890
:1000F000D3450008D3450008D34500082303000872
:10010000D3450008D3450008F30300081504000890
:10011000D3450008D3450008570300085F030008D3
:10012000D3450008D34500089F020008D3450008C6
:10013000D3450008D3450008D3450008D34500083F
:10014000D3450008D3450008D3450008D34500082F
:10015000B9020008D3450008D3450008D34500087C
:10016000D3450008D3450008D3450008D34500080F
:10017000D3450008D3450008D3450008D3450008FF
:10018000D3450008D3450008DFF80CD007F0CCFDBC
:1001900000480047A943000890300020234B19680D
:1001A0000868B0E8F04F80F309884FF0000080F352
:1001B000118870470000000003480068006880F361
:1001C000088862B600DF00BF08ED00E0DFF80C0031
:1001D000016841F470010160704700BF88ED00E0E4
:1001E000EFF30980114B1A681EF0100F08BF20EDC5
:1001F000108A20E9F04F106008B54FF0140080F32A
:10020000118806F0CAFF4FF0000080F31188BDE8A6
:10021000084019680868B0E8F04F1EF0100F08BFDA
:10022000B0EC108A80F30988704700BFD801002025
:10023000EFF311804FF0140181F31188704780F3C0
:10024000118870477047FEE7FEE7FEE7FEE770475C
:100250007047704710B5834C40F22551204605F099
:1002600010FF002805D02046BDE81040202105F0F1
:1002700005BF10BD7C497D4805F015B870B57B4DB4
:100280007B4C30352146284604F0EAFF002805D093
:1002900021462846BDE8704005F005B870BD10B590
:1002A0007449754804F0FFFF74484178007841EACA
:1002B00000207349088010BD6F487249483004F02F
:1002C000F2BF70B5694D704C483D2146284604F098
:1002D000C7FF002813D02146284604F0E4FF6B48EE
:1002E00001F0DBFE00280AD1694C0021204605F010
:1002F00007FE2046BDE87040012105F001BE70BD3B
:1003000070B55A4D634C603D2146284604F0A8FF65
:10031000002805D021462846BDE8704004F0C3BF40
:1003200070BD70B5514C5C4D48342946204604F0F0
:1003300097FF002809D00021204604F006FF294637
:100340002046BDE8704004F0AEBF70BD4748464946
:10035000303804F0A8BF0121504805F070BC10B53A
:1003600001214F4805F06BFC3E497A20888010BD82
:1003700010B54C4C0121204605F061FC2088C106D7
:100380004948016801D5491E00E0491C016010BDC3
:10039000704710B501218C07204605F050FC2088DD
:1003A000C1064248016801D5491E00E0491C0160B0
:1003B00010BD10B53E4C0121204605F040FC2088C0
:1003C000C1063C48016801D5491E00E0491C016096
:1003D00010BD10B5384C0121204605F030FC2088B6
:1003E000C1063648016801D5491E00E0491C01607C
:1003F00010BD10B5324C0121204605F020FC2088AC
:10040000C1063048016801D5491E00E0491C016061
:1004100010BD7047704770B5042004F0C3FF00287A
:100420001ED02021284804F016FA284D0421284621
:1004300004F0F2F91A4C012805D00421284604F0F2
:10044000EBF928B109E00021204605F091F804E01D
:10045000204605F091F81E4908601E4904200860F6
:1004600070BD704700100140208000207060024085
:1004700000802020008020104064024010030020F3
:100480000800002000880020008800102E030020B3
:10049000004800402080001000800028001000402C
:1004A00000140040000001400C000020100000205B
:1004B0000004004014000020000800407C010020DF
:1004C000000C00408001002000000240000C0240AF
:1004D00084010020143C014070B50546002407F05B
:1004E00089F9FE4902E02A5D0A55641C8442FADB60
:1004F000BDE870400121FA4804F027BE70B5F94DFF
:1005000006460024315D00290BD0284605F01EFD6B
:100510008021284605F0ABFD0028F9D0641CE4B228
:10052000F0E770BD70B5EF4E05460024002D0DD0EC
:100530002946304605F00AFD8021304605F097FD3A
:100540000028F9D0641CE4B2032CEFD370BD73B55E
:100550000C460020FFF7E6FFE3A0FFF7CFFFDF48E0
:100560002246E2A1823807F059FCDC488238FFF7C6
:10057000C5FFDFA0FFF7C2FFDFA0FFF7BFFFD7482F
:10058000DAA18238009A07F049FCD44E0024D54DF8
:10059000823E2846315D05F0D9FC4021284605F011
:1005A00066FD0028F9D0641C142CF2DBD2A0FFF702
:1005B000A5FFFF20FFF7B6FFFF20FFF7B3FFBDE861
:1005C0007C40FF20AEE770B505460C46C6A0FFF79D
:1005D00095FFC2482246C5A1823807F01FFCBF48DC
:1005E0008238FFF78BFFC5A0FFF788FF2846FFF78B
:1005F00085FFC1A0FFF782FFBDE87040FF2091E7B3
:1006000077B5BEA185B00646D1E90001CDE900016C
:10061000B9A0002200680390B3A0B04D0068283D47
:10062000A5F128030290AD4C1146A3F13200A95464
:1006300099548154A154521CD2B21E2AF7D30A21D4
:100640000170FF2444708470C470A448A7A150387E
:10065000079A07F0E3FBA14902A8503907F0B2F866
:100660009E4802A9823807F0ADF89C486946823856
:1006700007F0A8F899483146823807F0A3F8974860
:100680009AA15038069A07F0C9FB94495039A1F154
:10069000320007F097F8914803A9823807F092F8E2
:1006A0008E492C706C702839AC70A1F15A0007F09B
:1006B00089F88A488238FFF70FFF08B070BD2DE92E
:1006C000F74188468DA185B00646D1E90001CDE904
:1006D000000189A000220068039083A07F4D00687C
:1006E000283DA5F1280102901446A1F13200AC5436
:1006F0008C548454521CD2B20A2AF8D30A210170B5
:10070000FF2747708770C770744878A15038079AE0
:1007100007F084FB714902A8503907F053F86F487D
:1007200002A9823807F04EF86C486946823807F013
:1007300049F86A483146823807F044F8674841462C
:10074000823807F03FF8654803A9823807F03AF885
:100750002F706F706149AF70EC7028392C71A1F166
:100760005A0007F02FF85D488238FFF7B5FE08B051
:10077000BDE8F08170B50020FFF7D4FE5AA0FFF766
:10078000BDFE56480D2259A1823807F047FB534859
:100790008238FFF7B3FE59A0FFF7B0FE594C202175
:1007A000204604F039F802464C4850A1823807F040
:1007B00035FB4A488238FFF7A1FE1021204604F09D
:1007C0002BF80246454849A1823807F027FB4348E9
:1007D0008238FFF793FE4C4D8021284604F01CF828
:1007E00002463E4841A1823807F018FB3B48823858
:1007F000FFF784FE4021284604F00EF802463748F1
:100800003AA1823807F00AFB34488238FFF776FEB7
:100810004FF40041204603F0FFFF02462F4833A16A
:10082000823807F0FBFA2D488238FFF767FE4FF455
:100830008041204603F0F0FF024628482BA1823871
:1008400007F0ECFA25488238FFF758FE4FF40051C4
:10085000204603F0E1FF0246204824A1823807F039
:10086000DDFA1E488238FFF749FE4021274803F091
:10087000D3FF024619481DA1823807F0CFFA174866
:100880008238FFF73BFE1CA0FFF738FEFF20FFF782
:1008900049FEFF20FFF746FEBDE87040FF2041E61D
:1008A000FEB51BA10646D1E90001CDE900011AA061
:1008B00000210A4D0068283DA5F1280202900C464F
:1008C000A2F132006C5454544454491CC9B2322928
:1008D000F8D30A210170FF2747701FE0CE020020E5
:1008E000B860024000500040740000002564000021
:1008F0002E7478743D000000220000002E7478747D
:100900003D220000000802400000024000100240AA
:100910002E76616C3D0000006A0000008770C77091
:100920000022AFF23801FE4807F078FAFC4902A82D
:1009300006F048FFFA4802A9323806F043FFF848AB
:100940006946323806F03EFF3246AFF26001F448A5
:1009500007F064FAF249A1F1320006F033FF2F707C
:100960006F70EF49AF70EC7028312C71A1F15A0013
:1009700006F028FFEA483238FFF7AEFDFEBD70B53D
:100980000D46044606F0E8FE291B491C90FBF1F2D7
:1009900001FB1200204470BD2DE9FC41E14F3846B7
:1009A00004F0EAFDE04D6969642640EA014090FBED
:1009B000F6F000240190384604F0DEFD696940EA53
:1009C000014090FBF6F001990090401A00D540429A
:1009D000322800DA641C00980190022CEBDB0098AE
:1009E000002800DA4042BDE8FC812DE9FC41CF4FF0
:1009F000384604F0C1FDCC4DE968642640EA014068
:100A000090FBF6F000240190384604F0B5FDE9684B
:100A100040EA014090FBF6F001990090401A00D5A1
:100A20004042322800DA641C00980190022CEBDB73
:100A300000980028D7DA4042D5E72DE9FC414FF075
:100A40008047384604F098FDB74D2969642640EA8E
:100A5000014090FBF6F000240190384604F08CFD34
:100A6000296940EA014090FBF6F001990090401A94
:100A700000D54042322800DA641C00980190022C14
:100A8000EBDB00980028AEDA4042ACE770B5FFF728
:100A900083FF0546FFF7D1FF0446FFF7A6FF002DB1
:100AA00000DA6D42002800DA40422844002C00DAC7
:100AB0006442204470BD01B581B0019800EBC000D4
:100AC00040000090002801D0401EFAE70CBD01B59F
:100AD00081B044F25061019848430090002801D051
:100AE000401EFAE70CBD2DE9FC4101211F2003F057
:100AF000FBFF01248DF8044000268DF806604FF6B8
:100B0000FF758DF80740032700958DF8057069463D
:100B1000874803F01BFE8DF804408DF806608DF8C1
:100B2000074000958DF805706946824803F00EFE77
:100B30008DF804408DF806608DF8074000958DF81B
:100B4000057069467C4803F001FE4CE77CB5012145
:100B50007E2003F0C9FF0024FC208DF8044001250D
:100B600000908DF8075002268DF80560694673489D
:100B700003F0ECFD48F206008DF8044000908DF87B
:100B800007508DF805606946694803F0DFFD46F6B9
:100B9000C4408DF8044000908DF807508DF8056032
:100BA0006946644803F0D2FD03208DF804400090AC
:100BB0008DF807508DF8056069465F4803F0C6FD63
:100BC0004FF2FF508DF8044000908DF807508DF8DB
:100BD000056069465A4803F0B9FD7CBD1FB54FF466
:100BE000E06003F0FBFC36208DF80C0000248DF84B
:100BF0000D408DF80E4001208DF80F0003A803F082
:100C0000F2FC0121102003F08DFF3220ADF800002E
:100C1000ADF80840ADF8024040F2E730494C019091
:100C20006946204604F062FC0121204605F007F8E1
:100C300001221146204604F0E2FF0021204604F084
:100C400097FC0121204604F0C9FC1FBD1FB54FF4DD
:100C5000E06003F0C3FC37208DF80C0000248DF811
:100C60000D408DF80E4001208DF80F0003A803F011
:100C7000BAFC0121202003F055FF4FF4FA70ADF8C3
:100C80000000ADF80840ADF8024040F2E7302E4CCD
:100C900001906946204604F029FC0121204604F019
:100CA000CEFF01221146204604F0A9FF0021204674
:100CB00004F05EFC0121204604F090FC1FBD70B5DD
:100CC0008AB00121022003F037FF01210C2003F03C
:100CD0000BFF184E03220621304603F0C0FD03220D
:100CE0000721304603F0BBFD03220821304603F004
:100CF000B6FD03220921304603F0B1FD4FF47070B8
:100D0000059002208DF8180003208DF819000024AA
:100D10008DF81A4001258DF81B5005A9304615E0C5
:100D20007E0200200004004000000020000001407E
:100D30000004024000080240000C02400000024093
:100D400000100240001000400014004003F0FEFCC0
:100D5000A420ADF81C0028020890ADF82400ADF8DE
:100D60001E4007A9FE4E304604F0C0FB6020ADF8DF
:100D70000000ADF802500294ADF80C40012130465D
:100D800004F02CFC0021304604F0F2FB69463046AA
:100D900004F02EFC6946304604F056FC69463046A5
:100DA00004F08EFC6946304604F0C4FC0121304654
:100DB00004F006FF0AB070BD70B58AB001210420AE
:100DC00003F0B0FE01210D2003F08EFEE54E02225D
:100DD0000C21304603F043FD02220D21304603F082
:100DE0003EFD02220E21304603F039FD02220F2182
:100DF000304603F034FD4FF47040059002208DF82A
:100E0000180003208DF8190000248DF81A400125E0
:100E10008DF81B5005A9304603F098FCA420ADF8CE
:100E20001C002802D04E0890ADF82400ADF81E40FA
:100E300007A9304604F05AFB7020ADF80000ADF869
:100E400002500294ADF80C400121304604F0C6FB7C
:100E50000021304604F08CFB6946304604F0C8FBA4
:100E60006946304604F0F0FB6946304604F028FC41
:100E70006946304604F05EFC9CE730B5012187B03E
:100E8000080403F059FE0121084603F02DFE00245A
:100E90004FF6FF70B54DADF800400190ADF8084039
:100EA000ADF802406946284604F020FB0420ADF866
:100EB0000C00C820ADF814000120ADF81000ADF80A
:100EC0000E4003A9284604F0CBFDA94C00231A4686
:100ED0000321204604F02DFF0121204604F0AFFE3F
:100EE00001221146204604F08AFE0121284604F022
:100EF00075FB0021204604F03BFB07B030BD2DE917
:100F0000F04701218AB0084603F00CFE01210220BF
:100F100003F008FE0121032003F0E6FDDFF8549200
:100F200001220F21484603F09AFCDFF84C8201228F
:100F30000321404603F093FC02220421404603F0C3
:100F40008EFC02220521404603F089FC02268DF822
:100F50000460032738208DF80570002400908DF878
:100F6000064001258DF807506946404603F0EEFB28
:100F70008DF80460E8038DF8057000908DF8064048
:100F80008DF807506946484603F0E0FB4FF6FF70C6
:100F9000ADF80C4004904FF08049ADF81440ADF826
:100FA0000E4003A9484604F0A1FADFF8D0A103A936
:100FB000504604F09BFA4FF004081420ADF8188056
:100FC000ADF82000ADF81A60ADF81C5006A94846EF
:100FD00004F046FD06A9504604F042FD02231A46DD
:100FE0000321484604F0A5FE02231A460321504679
:100FF00004F09FFE0121484604F021FE01215046E5
:1010000004F01DFE01221146484604F0F8FD0122BD
:101010001146504604F0F3FD0121484604F0DEFA83
:101020000121504604F0DAFA0021484604F0A0FA03
:101030000021504604F09CFA780203F0CFFA1D20FC
:101040008DF808008DF809708DF80A408DF80B5066
:1010500002A803F0C8FA1C208DF808008DF809805A
:101060008DF80A408DF80B5002A803F0BCFA0AB0C4
:10107000BDE8F08770B501218AB0084603F05CFD39
:101080000121102003F030FD4FF420600090022079
:101090008DF8040003208DF805000024384E8DF8EB
:1010A000064001258DF807506946304603F04EFB97
:1010B00001220921304603F0D2FB01220B213046E8
:1010C00003F0CDFB4FF6FF70284EADF808400390BB
:1010D000ADF81040ADF80A4002A9304604F006FA17
:1010E0000420ADF814000A20ADF81C00ADF816403D
:1010F000ADF8185005A9304604F0B2FC00231A469A
:101100000321304604F015FE0121304604F097FD1E
:1011100001221146304604F072FD0121304604F0F0
:101120008EFD01221146304604F069FD0121304652
:1011300004F054FA0021304604F01AFA4FF4C0606B
:1011400003F04CFA19208DF820008DF821508DF80D
:1011500022408DF8235008A803F045FA2AE6000043
:1011600000040140000C0240000800400000014063
:101170000040014000000240000402400004004022
:1011800000100240F0B59BB00121FE4803F0ACFC1A
:1011900001210D02284603F0CFFCFB480024CDE9D5
:1011A0000040FA4802A9082681E85100A800CDE9CC
:1011B0000540400007908000CDE908050AA900011C
:1011C000012581E83100F24F0D94694638460E94AE
:1011D00003F082FF0121384603F0B7FF3C2019904D
:1011E00003208DF868008DF86B4019A9E94803F0D9
:1011F000ADFA4FF44030CDE915404FF47060CDE9C1
:10120000174015A803F06DFD11941294139428064D
:10121000DD4C0F908DF840504C3C8DF841508DF8CE
:1012200050600FA9204603F031FD04230122022162
:10123000204603F0A0FD042302220321204603F0F0
:101240009AFD042303221946204603F094FD04234B
:101250001A460521204603F08EFD042305220C21A9
:10126000204603F088FD042306220D21204603F0CA
:1012700082FD042307220E21204603F07CFD042377
:1012800008220F21204603F076FD0121204603F0BD
:10129000EFFD0121204603F0E1FD0121204603F08E
:1012A00037FD204603F0A1FD1BB0F0BD08B54FF49B
:1012B000E06003F093F925208DF8000000208DF800
:1012C00001008DF8020001208DF80300684603F04C
:1012D0008AF908BD70B5054696B00121102003F0CB
:1012E0002BFC0121084603F0FFFB0121880503F0D8
:1012F000FBFB4FF4C060139002208DF850000024D7
:101300008DF852408DF85340A34E8DF8510013A92B
:10131000304603F01BFA07220921304603F09FFAFA
:1013200007220A21304603F09AFA0F95ADF844409F
:101330000C209A4DADF84040ADF84600ADF8424063
:10134000ADF848400FA9284604F069FD0121284660
:1013500004F0D6FD4FF4A06003F040F93A208DF878
:1013600054008DF855408DF8564001208DF85700F7
:1013700015A803F038F9864E3036304603F024FEC7
:101380004FF000600090814869461030CDE90204BA
:101390000A200490281D01900015CDE90540801019
:1013A000CDE9084040020A9004200B9007940320E6
:1013B000CDE90C0430460E9403F08EFE012240214C
:1013C000284604F034FE01221021304603F032FF9B
:1013D0000121304603F0B9FE16B070BDF0B50646E7
:1013E000012197B0480503F07FFB01214D042846F9
:1013F00003F098FB0121082003F076FB6020139096
:1014000002208DF8500000248DF852408DF8534092
:10141000634F8DF8510013A9384603F097F907225E
:101420000521384603F01BFA07220621384603F04F
:1014300016FA0F96ADF844400C205A4EADF84040D5
:10144000ADF84600ADF84240ADF848400FA930462F
:1014500004F0E5FC0121304604F052FD4FF4A06099
:1014600003F0BCF811208DF854008DF855408DF82C
:10147000564001208DF8570015A803F0B4F84A4FE4
:10148000384603F0A1FDA802009040200390474891
:1014900002903C200490301D01900015CDE90540DC
:1014A0008010CDE908400420CDE90A5007940320BC
:1014B000CDE90C04694638460E9403F00DFE012276
:1014C0008021304604F0B3FD01228021304604F033
:1014D000AEFD01221021384603F0ACFE0121384652
:1014E00003F033FE17B0F0BD70B50546012196B08C
:1014F000880403F017FB0121082003F0F5FA01210D
:10150000480503F0F1FA4FF44070139002208DF873
:10151000500000248DF852408DF85340204E8DF835
:10152000510013A9304603F011F907220821304673
:1015300003F095F907220921304603F090F90F9541
:101540001B4EADF84040ADF844400C25ADF842408C
:10155000ADF84840ADF846500FA9304604F05FFCA6
:101560000121304604F0CCFC4FF4A06003F036F8C3
:101570008DF854508DF855408DF8564001208DF867
:10158000570017E0050040004C20014000030020F8
:1015900010640240000802400000024000100140B8
:1015A000000C024000440040A06002400001002006
:1015B0000048004015A803F016F8FB4D284603F03C
:1015C00003FD4FF000600090F848CDE902040820C8
:1015D0000490301D01900015CDE905408010CDE943
:1015E000084040020A9004200B9007940320CDE9A4
:1015F0000C04694628460E9403F06EFD012240213A
:10160000304604F014FD01224021304604F00FFD65
:1016100001221021284603F00DFE0121284603F087
:1016200094FDD9E6F0B50646012197B0C80403F051
:1016300079FA0121084603F057FA0121480503F021
:1016400053FA02208DF8500000248DF852408DF896
:101650005340D74F03258DF85100139513A93846F1
:1016600003F074F808220021384603F0F8F8082245
:101670000121384603F0F3F80F96ADF844400C20F2
:10168000CC4EADF84040ADF84600ADF84240ADF864
:1016900048400FA9304604F0C2FB0121304604F057
:1016A0002FFC4FF4A06002F099FF0D208DF854003C
:1016B0008DF855408DF8564001208DF8570015A83B
:1016C00002F091FFB84F1837384603F07DFC7805DB
:1016D0000090B64869460F38CDE90204082004900E
:1016E000301D01900015CDE905408010CDE908407E
:1016F000400207940A900420CDE90C540B90384620
:101700000E9403F0E9FC01224021304604F08FFCE6
:1017100001224021304604F08AFC01221021384683
:1017200003F088FD0121384603F00FFDDAE62DE9CC
:10173000F0418046012196B0480503F0D5F901211A
:10174000080503F0EFF901210C2003F0CDF9022583
:101750008DF8405000248DF84240974F04268DF8B4
:1017600043400F968DF841500FA9384602F0EEFF26
:101770008DF840508DF842408DF84340E8028DF8D6
:1017800041508E4D0F900FA9284602F0DFFF08222E
:101790000221384603F063F808220C21284603F0A2
:1017A0005EF84FF4A06002F019FF2F208DF854006E
:1017B00005208DF855008DF8560001208DF8570052
:1017C00015A802F010FFADF84C400C207C4DADF890
:1017D0004840ADF84E00CDF84480ADF84A40ADF831
:1017E000504011A9284604F01AFB0121284604F0B4
:1017F00087FB6D4F9037384603F0E6FB700600908C
:101800004020039069486946603802903120049076
:10181000281D01900015CDE905408010CDE9084054
:101820004002CDE90A0607940320CDE90C043846AE
:101830000E9403F051FC01228021284604F0F7FBAE
:1018400001221021384603F0F5FC0121384603F04F
:101850007CFC16B0BDE8F08130B585B001210820D0
:1018600003F042F90121880303F066F900240C20FB
:101870008DF81040012503908DF8135003A94E48B0
:1018800002F064FF0221032004F03BFC04200090DE
:101890008DF8044010208DF805008DF8065068463C
:1018A00003F030FD08208DF808008DF809408DF810
:1018B0000A408DF80B5002A802F095FE05B030BD2D
:1018C00010B5012810D0032819D0042822D00528EB
:1018D00009D13B4C204604F039FB4021204604F05E
:1018E000C6FB0028F9D010BD364C204604F02EFB74
:1018F0004021204604F0BBFB0028F9D010BD324C3B
:10190000204604F023FB4021204604F0B0FB0028D1
:10191000F9D010BD274C204604F018FB402120468A
:1019200004F0A5FB0028F9D010BD2849002048622A
:101930002749C8604FF0804250620861254A106014
:101940004861704770B5224D0020687104466121DE
:101950000120FFF7B5FF3220FFF7B9F8641C022C15
:10196000F5D3012068717A20287170BD10B561210E
:101970000120FFF7A5FFBDE810400A20FFF7A7B838
:1019800070B5134D0020E871044661210320FFF774
:1019900097FF3220FFF79BF8641C022CF5D301203F
:1019A000E8717A20A87170BD286002402E030020E3
:1019B00000000240004C0040000C024000080240C1
:1019C000005000400010014000480040000001406D
:1019D00000000020240400402DE9F14195B00020D2
:1019E0001490F94B8DF800008DF82800987890B18C
:1019F000012872D002283DD1159813283AD2DFE889
:101A000000F0FDFCFBFAF9F8F7F6F5F4F3F2F1F06B
:101A1000EFEEEDECEB00EC49EB48EE4ADDF854C09C
:101A2000EA4EEB4C8030C96A4FF4004502F11807CA
:101A3000BCF1130F1ED2DFE80CF00A2B2F35393D15
:101A400041454A51575B6064696C7182870002218D
:101A5000304602F0E1FE70B101222946204602F034
:101A6000F3FE2946204602F0E1FE01460022DAA0FC
:101A7000FEF7C6FDEDE600222946204602F0E4FE10
:101A80002946204602F0D2FE01460022D9A0EFE707
:101A9000016C0122DFA0EBE7FEF7F8FF014602220E
:101AA000DEA0E5E7416F0322E0A0E1E7C16F042279
:101AB000E1A0DDE7816F0522E2A0D9E70622E3A0DD
:101AC000196CD5E7E44807220179E4A0D0E7FEF7D6
:101AD00063FF01460822E4A0CAE728E1FEF785FF7C
:101AE00001460922E2A0C3E70A22E3A0996ABFE700
:101AF00052F821100B22E4A0BAE711680C22E8A0EA
:101B0000B6E752F821100D22EBA0B1E70E22F0A0AB
:101B1000AEE757F821100F22F0A0A9E72946F348B5
:101B200002F07AFE0246F2A1684606F077F96946AD
:101B30000AA805F047FE10220AA9EEA0F4E057F823
:101B400021101122ECA093E72946304602F06EFEE8
:101B50000246E7A1684606F061F969460AA805F061
:101B600031FE4FF48041304602F060FE0246E0A1B3
:101B7000684606F053F969460AA805F023FE4FF4BB
:101B80000051304602F052FE0246D9A1684606F0E6
:101B900045F969460AA805F015FE4FF480584146FC
:101BA000304602F043FE0246D1A1684606F036F9FF
:101BB00069460AA805F006FE4FF40065294630463E
:101BC00002F034FE0246CAA1684606F027F96946CB
:101BD0000AA805F0F7FD12E0F2E0EEE0EAE0E6E048
:101BE000E2E0DEE0DAE0D6E0D2E0CEE0CAE0C6E055
:101BF000C2E0BEE0BAE0AEE0ABE0B4E0B0E0691055
:101C0000304602F013FE0246B9A1684606F006F916
:101C100069460AA805F0D6FDA9102746204602F01D
:101C200005FE0246B2A1684606F0F8F869460AA821
:101C300005F0C8FDEC102146384602F0F7FD0246DB
:101C4000ABA1684606F0EAF869460AA805F0BAFDB5
:101C50002146AD4C204602F0E9FD0246A4A16846AB
:101C600006F0DCF869460AA805F0ACFD0121204623
:101C700002F0DCFD02469EA1684606F0CFF86946F8
:101C80000AA805F09FFD0221204602F0CFFD024682
:101C900097A1684606F0C2F869460AA805F092FDC9
:101CA0000121304602F0C2FD024691A1684606F0CD
:101CB000B5F869460AA805F085FD2946204602F0D8
:101CC000B5FD02468AA1684606F0A8F869460AA84A
:101CD00005F078FD4146204602F0A8FD024684A1A9
:101CE000684606F09BF869460AA805F06BFD80215E
:101CF000304602F09BFD02467DA1684606F08EF854
:101D000069460AA805F05EFD4021304602F08EFDCE
:101D1000024677A1684606F081F869460AA805F0F0
:101D200051FD12220AA979A0FEF7C9FC91E5159888
:101D30001328FBD2DFE800F00A170D0F1A1D20232D
:101D400026292C2F3235383B3E414400002170A01B
:101D500003E0022100E0032170A0FEF734FC78E5E7
:101D600000216FA0F9E7012170A0F6E7042170A01F
:101D7000F3E705216FA0F0E706216FA0EDE707214B
:101D80006EA0EAE708216EA0E7E709216DA0E4E76D
:101D90000A216DA0E1E70B216CA0DEE70C216CA00D
:101DA000DBE70D216BA0D8E70E216BA0D5E70F2153
:101DB0006AA0D2E710216AA0CFE7112169A0CCE781
:101DC000122169A0C9E700000000002000040240C1
:101DD000000802401C020020524F424F5420444150
:101DE0004E4720434841592053414E20444F3A200A
:101DF00020200000524F424F542044414E47204380
:101E00004841592053414E2058414E483A20202005
:101E100000000000494D553A00000000454E434F78
:101E20004445525F544F4E473A0000006C617A655A
:101E30002030683A200000006C617A652038683AEA
:101E4000000000006C617A6520346800646F206CCB
:101E5000617A653A000000006C0100204C4A4F593D
:101E60005F4C523A0000000030683A200000000049
:101E700034683A20000000006269656E20766520B3
:101E800078703A2000000000626F6E672074726FF5
:101E90006E672073696C6F20736F3A20000000003A
:101EA000626F6E672074726F6E672073696C6F5B10
:101EB000305D3A2000000000626F6E672074726F20
:101EC0006E672073696C6F5F736F3A2000000000CB
:101ED00073696C6F5F736F3A200000006269656E12
:101EE000206461207468613A200000000010024004
:101EF00025640000493A00006269656E2064612033
:101F000074686120313A2000000002404F3A00001E
:101F10004D414E2048494E482032210032000000F9
:101F20004D414E2048494E482033210031000000E9
:101F300034000000350000003600000037000000CB
:101F4000380000003900000031300000313100005D
:101F500031320000313300003134000031350000EF
:101F60003136000031370000313800000121FE48D1
:101F700003F0EBB811B4FD48016F009A914201DD06
:101F8000002101E0016F491C0167006F18BC23E5C7
:101F90002DE9F0470025F64E074601244FF400597D
:101FA0004FF480484FF4805A00224146304602F0F8
:101FB0004BFC1020FEF77FFD274201D0012200E0FC
:101FC00000224946304602F03FFC0122414630469D
:101FD00002F03AFC1020FEF76EFD5146304602F04A
:101FE0001BFC00B12543600010F0FF04DCD1284643
:101FF000BDE8F08770B5DE4E4FF40045002229465B
:10200000304602F021FC1020FEF755FD0120FFF7BD
:10201000BFFF4220FFF7BCFFFF20FFF7B9FFFF2003
:10202000FFF7B6FFD14CEC342070FF20FFF7B0FF74
:102030006070FF20FFF7ACFFA070FF20FFF7A8FF44
:10204000E070FF20FFF7A4FF2071FF20FFF7A0FF43
:10205000607129463046BDE87040012202F0F4BBB1
:1020600070B5C34E4FF4004500222946304602F0B9
:10207000EBFB1020FEF71FFD0120FFF789FF422038
:10208000FFF786FF044601222946304602F0DCFBBA
:102090001020FEF710FD204685E4B44A0021803A66
:1020A0005164C279B149EC310D2A09D0FF20087082
:1020B00048708870C8700871487188710020704736
:1020C00002780A7042784A7082788A70C278CA7040
:1020D00002790A7142794A718079887101207047CA
:1020E000A248EC30A0F5B6710278FF2A05D14278FB
:1020F000FF2A02D18278FF2A09D04A6C531C4B6414
:10210000C82A03DDFF2101704170817070470020F3
:10211000486470479548EC30807970479348EC30BC
:102120000078400601D401207047002070478F4896
:10213000EC300078C00601D40120704700207047C1
:1021400070B58A4B0125803B002693F8784003F553
:102150008073002803D004DDD8709D7005E0DC702A
:1021600003E0C0F10000D8709E70002903D004DDA8
:10217000D9719D7105E0DC7103E0C1F10000D871F7
:102180009E71002A03D004DDDA729D720BE4DC72CA
:1021900009E4C2F10000D8729E7204E473498031F0
:1021A000C870C871C872704770490120803948678B
:1021B00070476E488030C178032907D2C17903295E
:1021C00004D2C07A032801D2012070470020704752
:1021D0006648006AA0F5EA41303901D00120704715
:1021E00000207047FFF7AEBB60488038B0F90800A8
:1021F000404270475D48B5EEC00A8038D0ED130A02
:10220000F1EE10FA02D230EE600A01E030EE200A60
:10221000BDEEC00A10EE100A704710B5041E2DED79
:10222000068B52489FED53AB9FED549B11D0C06875
:1022300014DA05F06EFC41EC180B204605F069FC41
:1022400053EC1A2B05F084FB53EC192B05F07AFBA9
:1022500013E09FED4C0ABDEC068B10BD05F059FC58
:1022600041EC180B204605F054FC53EC1A2B05F0FA
:102270006FFB53EC192B05F0C4FA53EC182B05F047
:10228000D9FB05F06AFC00EE100AE4E7B5EEC00ADF
:10229000F1EE10FA01DAB1EE400A7047002800DAD8
:1022A000404270473149803991ED1B0AD1ED1C1A2B
:1022B000F1EE400A80EEA11A00EE900AF8EEE00A74
:1022C00001EE200ABDEEC00A10EE100A7047F0EED3
:1022D000401A9FED2D0AF5EEC01AF1EE10FA01D268
:1022E000F1EE611AF5EEC00AF1EE10FA01D2F1EE4C
:1022F000600AB5EEC01AF1EE10FA01D2B1EE411A41
:10230000F4EEC01AF1EE10FA01DDB0EE610AF4EE5F
:10231000C00AF1EE10FA01DDB0EE600AB4EEC01AA8
:10232000F1EE10FA01DDB0EE410A70470F48C068C7
:1023300070470E48806B704770B50C4C2DED068BC6
:10234000B0EE408AA4F18005206AA0F5EA41303958
:102350007DD0E26A216CD4ED0C0A891A401A00EE95
:10236000100AB8EEC00A11E0A06002408000002010
:10237000000C0240333333333333D33F9A99999966
:102380009999B93F000000006F12833A95ED161A33
:10239000606B00EEC10AD5ED150AC0EE208A05F08B
:1023A000C9FB94ED000A41EC190B20EE280A10EE4F
:1023B000100A05F0BFFB41EC100B05F05DFD9FED31
:1023C000FEAB51EC100B53EC1A2B05F0C1FA53EC99
:1023D000192B05F0B7FA05F0C0FBE064606B05F05F
:1023E000A9FB95ED170AD4ED000A41EC190B38EE64
:1023F000800A20EE200A10EE100A05F09BFB41EC4B
:10240000100B05F039FD9FEDEE1B51EC100B53EC5A
:10241000112B05F09DFA53EC192B05F093FA05F0FA
:102420009CFB206595ED180AD4ED000A38EE800A71
:1024300020EE200A10EE100A05F07CFB41EC100B98
:1024400005F01AFD53EC1A2B51EC100B00E013E0D1
:1024500005F07EFA05F081FBC4F85400B5EEC08AA1
:10246000F1EE10FA37D0A06878B1012813D0022815
:1024700018D003282FD122E01FED3E0A84ED150A63
:1024800084ED140A84ED130AE8E794ED130A30EEA4
:10249000480A84ED130A94ED140A30EE480A84EDDC
:1024A000140A05E094ED130A30EE480A84ED130A8D
:1024B00094ED150A30EE480A84ED150A0BE094ED10
:1024C000130A30EE480A84ED130A94ED140A30EE34
:1024D000480A84ED140A04F14C0090EC030AFFF75B
:1024E000F6FED5ED120AF8EEE00A80EE801ABDEE97
:1024F000C10A10EE100A6061E168814200DDE0600F
:1025000001206060BDEC068BC6E5AF4900220028C3
:102510000A61886111D11FED650ACA6081ED0D0A5B
:1025200047F230500862486281ED0C0A8A608A6284
:10253000A1F180008A634267FEE67047A24890EDF1
:102540000C0AB5EEC00AF1EE10FA04D1816811B997
:10255000816A002909D01FED750A002180ED0C0A5F
:1025600081608162016CC162E6E6704796488038FE
:10257000C0ED1B0A80ED1C0A7047934A136A834220
:1025800009D113698B4206D1D2ED0D0AF4EE400A4F
:10259000F1EE10FA0ED01161D16809B90521D160B0
:1025A000116CD16282ED0D0A10620020D06192EDB3
:1025B0000C0AC1E67047844A30B4936A834209D159
:1025C000D2ED0C0AF4EE400AF1EE10FA02D1936853
:1025D0008B4226D0146A47F230539C4219D13224E0
:1025E00014610524D460984213DAB5EEC00A0123C1
:1025F000F1EE10FA936302DD136C834207DCB5EE53
:10260000C00AF1EE10FA04D2136C834201DAB1EE83
:10261000400A9160906282ED0C0A0020D06130BCCB
:102620008AE630BC7047014647F23050C3E71FEDE1
:10263000AB0AA2E710B5644C2DED028BF0EE608A78
:10264000D4ED090AB0EE418AF8EEE00AF4EE400A51
:10265000F1EE10FA0BD12169814208D1D4ED0A0ABA
:10266000F8EEE00AF4EE680AF1EE10FA4BD0FDEE57
:10267000C00AC4ED090AD4ED100AF8EEE00A30EE03
:10268000600ABDEEC00A10EE102A1FEDC20A014614
:102690001046FFF772FF94ED100AF8EEC00A78EECC
:1026A000E00AFDEEE00A10EE900A002800DA40424F
:1026B000B8EEC00A642819DDF4EEC08AF1EE10FA13
:1026C00001DCB1EE488A18EE100A05F033FA00BFBB
:1026D00005F043FAFDEEE80ABDEC028B00EE100AAD
:1026E000BDE81040002110EE900A64E738EEC00A01
:1026F00010EE100A05F01EFA9FED341B53EC112B5F
:1027000005F026F9E4E7BDEC028B10BD10B52E4CA8
:10271000A06B01282FDD216CA06A401AFFF7BEFDD7
:10272000062812DA0020E0601FEDEA0A206184ED3D
:102730000C0AFFF701FEA06B411CA163B0F5FA7F04
:1027400019DDBDE810400020DFE60520A16B206107
:10275000FA29E06001DDFB20A063A16A206C8842B9
:1027600002DDBFEE000A01E0B7EE000A84ED0C0ABC
:10277000BDE81040E0E510BD70B5134991ED0D0ABC
:10278000B5EEC00AF1EE10FA7ED1CB68002B7BD0FB
:10279000886A47F23054A04276DA91ED0C0AB5EE21
:1027A000C00AF1EE10FA70D00D6AA1F18002A542C4
:1027B00072D113469B6E0DE000000000000000C0C7
:1027C0000000000000000040800000207B14AE47A5
:1027D000E17A743FB5EEC00AF1EE10FA03DD0D6C3C
:1027E000C41AAC4208DBB5EEC00AF1EE10FA17D2FB
:1027F0000C6C0344A34213DD8B6B032B44DA0B6C8C
:10280000C01AFFF74BFD0A28886A0ADAC86300205D
:10281000C8609FEDFC0A086181ED0C0A0220886304
:1028200079E091ED030AD1ED0C0A0B6CB8EEC00A09
:10283000984260EE200A92ED1A0AB8EEC01A80EEB5
:10284000810A0FDDFFF722FD0B6C886AC01AFFF7C3
:1028500025FD00EE900AB8EEE01AD2ED140A40EE23
:10286000010A0EE0FFF712FD0B6C886AC01AFFF731
:1028700015FD00EE900AB8EEE01AD2ED140A50EE03
:10288000410A91ED030A02E04AE047E004E0B8EEB5
:10289000C01A80EE810A3EE0DB4AB5EEC00AD2EDF6
:1028A000190AF1EE10FA16DD01EE100AF8EEC11A5F
:1028B00001EE103AB8EEC11A41EE401AB8EEE01A35
:1028C00071EEC11A91ED101AB8EEC11AF4EEC11AE8
:1028D000F1EE10FA1BD3B5EEC00AF1EE10FA1AD2DF
:1028E00001EE100AF8EEE00AF8EEC11A01EE103A15
:1028F000B8EEC11A41EE401A31EEA01AD1ED100A1D
:10290000F8EEE00AB4EEE01AF1EE10FA03DD096C1D
:10291000401AFFF782FCBDE870400DE5C86AF6E793
:1029200034E4B94910B48031886B02280CDA9FED89
:10293000B50A002281ED0D0A81ED0C0A47F23050F4
:102940008A600862C1E90902CC69AF4B641CCC61A2
:102950001846DA6F806F944202DBCA61596F09B181
:1029600010BC1BE40020FBE7A74A8032D3695B1C44
:10297000D361834204DDD0680844D0600020D06178
:10298000704710B5FFF730FC9F4C80342064FFF790
:10299000BDFE2269E0684FF0FF31002A0BDD904256
:1029A0000ED006DA616988420ADAFFF77BFC012162
:1029B00004E0A06C02E0002831DDA069FFF7D4FF3D
:1029C000D4E91001814203D0FFF7D6FE206C606489
:1029D0006068002826D094ED030AD4ED150AB8EEFD
:1029E000C00A20EE200AFFF705FC94ED030AD4ED9F
:1029F000140A0246B8EEC00A20EE200AFFF7FAFBDE
:102A000094ED030AD4ED130A0146B8EEC00A20EE95
:102A1000200AFFF7EFFBBDE81040FFF791BBBDE8D0
:102A200010407EE710BD2DE9F047784A9078401FAE
:102A3000F52801D8012500E000251079401FF52870
:102A400001D8012600E00026704910784978C306B5
:102A50000DD543060BD5830609D5030607D535B139
:102A60002EB18B0603D5BDE8F04702204DE54B079C
:102A700002D43221142403E0C90717D01E210A24EE
:102A80009246614FC206DFF8809107F1800747F256
:102A900030584FEA40620CD4002A46DA82064FEAE8
:102AA000006020D5002823DA002029E00A2107242D
:102AB000E6E7002A4FEA806208DB002A4FEA00605E
:102AC00018DA00281BDA4FF4E16019E0002A4FEA17
:102AD000006004DB002828DA4FF4617010E0002861
:102AE0001ADB4B480CE000281FDA4FF4E17007E0D6
:102AF000484805E0002818DA40F2465000E0464811
:102B0000FFF795FD9AF80000C1060ED541060CD5D9
:102B100081060AD5000608D545B956B1396A41453E
:102B200007D00520FFF7F1FC03E015B1FFF706FD24
:102B30002BE09AF802100122504605290FD2437863
:102B4000DB070CD0396A414503D00020BFEE080AEC
:102B500011E089F8002022461146084613E0FA29C0
:102B600019D99AF80100C00715D0396A414505D036
:102B70000020B7EE080AFFF756FD06E089F80020AE
:102B8000624210461146FFF7DBFA002189F8001077
:102B9000BDE8F047D2E4022211461046F3E71A4896
:102BA00030B580301424856D1C4A691C816501464E
:102BB000CB6D0021142D03D295892B44C36504E00D
:102BC000B3FBF4F381654367C165056E6B1C036657
:102BD0000D4B8033642D5B6E03D2D5892B44436645
:102BE00005E06425B3FBF5F3016683674166856EF6
:102BF0006B1C8366044B8033142DDB6E10D251891D
:102C0000194411E000000000000000206C010020C9
:102C10007CFCFFFF3EFEFFFFBAFAFFFF000300202F
:102C2000B3FBF4F2C2678166C16630BD70B5FF497F
:102C3000FE2001F5B67488616078FD4DC0064FF442
:102C4000806604D401223146284601F0FDFD6078FB
:102C5000400604D400223146284601F0F5FD607894
:102C60004FF40066800604D400223146284601F065
:102C7000EBFD6078000604D401223146284601F0BD
:102C8000E3FD6078EB4E40074FF4807504D40122D9
:102C90002946304601F0D8FD6078C00706D12946A4
:102CA0003046BDE87040002201F0CEBD38E67047E6
:102CB000704710B52021E04801F0AEFD00280CD18E
:102CC000DA498878022806D0401C8870BDE8104098
:102CD000C820FDF7FCBE0020F7E710BD70B50D461B
:102CE0002DED048B06461446F0EE618AB0EE419A53
:102CF000F0EE609AB0EE408A0221CD4801F08CFDE2
:102D0000CA4B38EE280A78EE681A8033012804D0BE
:102D1000D86F401BA04205DC18E0986FA0EB0500BF
:102D2000A04205DDB0EE491AF0EE690A304608E02F
:102D30000DDB00BFB0EE491AF0EE690A3046B0EE86
:102D4000480ABDEC048BBDE8704073E4F2DAB0EEE3
:102D5000610AE7E770B50D462DED048B0646144673
:102D6000F0EE618AB0EE419AF0EE609AB0EE408AE1
:102D70000221AF4801F050FDAC4B38EE680A8033B9
:102D8000012878EE281A586FA0EB050002D0A04267
:102D900002DC15E0A04205DDB0EE491AF0EE690A4A
:102DA000304608E00DDB00BFB0EE491AF0EE690ACC
:102DB0003046B0EE480ABDEC048BBDE8704039E403
:102DC000F2DAB0EE610AE7E7704710B5FEF7BAFD38
:102DD000FEF7ABFDBDE810400A2004F070B970B5F5
:102DE000934A964D914C012807D0022805D003281C
:102DF00003D0042801D005280BD10221104601F090
:102E00000BFD00EB4000E16A05EBC00050F821002B
:102E1000206485E510B5894CFE203C3CE073E074ED
:102E20004FF47A70FDF753FE0020E074E0737F49A1
:102E30008348C96A50F82120521C40F8212010BD57
:102E400070B52DED048BFFF7C0FF6F2004F037F94C
:102E5000774C0122D102204601F0F6FC0022211518
:102E6000204601F0F1FC0221204601F0D5FC0026AD
:102E7000DFED749A9FED749A1FED9E8ADFED738AE1
:102E80006A4D6A4C8035012812D0A86FF0286BDAA1
:102E9000B6EE001AF0EE480A1E20B0EE690AFFF7FF
:102EA000C9FB0A2004F00BF9A86FF028F0DB5EE004
:102EB000A06A03287EDAE86FF0281BDAB6EE001A63
:102EC000F0EE480A1E20B0EE490AFFF7B3FB0A20D5
:102ED00004F0F5F8E86FF028F0DB0EE0B6EE001A2B
:102EE000F0EE480A1E20B0EE690AFFF7A3FB0A20A5
:102EF00004F0E5F8E86FF028F0DCA6610CE00222AF
:102F0000F021F3EE0E1AB7EE001AF0EE480A1E207A
:102F1000B0EE680AFFF7E2FE686FBE28EFDBA0693B
:102F2000401CA0613228F7DBFEF7FFFCB6EE001A6A
:102F3000F0EE480A1E20B0EE680AFFF77BFB4FF464
:102F4000FA6400BFFDF7A2FDA042FBDB48E000BF32
:102F5000B6EE001AF0EE480A1E20B0EE490AFFF75E
:102F600069FB0A2004F0ABF8A86FFA28F0DCA66130
:102F70004FF487760CE002223146F3EE0E1AB7EEDC
:102F8000001AF0EE480A1E20B0EE680AFFF7A6FE0F
:102F9000686FBE28EFDBA069401CA0613228F7DB18
:102FA000FEF7C3FCB0EE001AF0EE480A3220B0EE95
:102FB000680A00E01BE0FFF73DFB40F6B83400BFB5
:102FC000FDF764FDA042FBDB0020FFF79EFA002125
:102FD000BFEE080A1E48FFF7EEFAA86B0028FDD1E5
:102FE000BDEC048B0020BDE87040FFF78EBABDEC4D
:102FF000048B95E42DE9F0410C4C2DED028BE06A39
:10300000FFF7EDFE4FF0000884F803804046FFF71D
:103010007CFA6F2004F053F80221054801F0FCFB14
:103020000B4F9FED0C0A323716E000000000002025
:103030000004024000080240001002403C01002051
:103040003402002000409CC400409C440000E14445
:103050007CFCFFFF00000000FF4E04F1800501280A
:103060000ED0B0EE408AC4F8188000BFB0EE480A17
:10307000B0EE001AF0EE400A2820FFF7DBFA54E029
:10308000B0EE001AF0EE400A2820FFF7D3FA02E073
:10309000FFF744F810B9686F2828F9DCE86F216C55
:1030A00088421EDD14213846FFF7C1FA03E000BF55
:1030B000FFF734F820B9206CE96F28308142F7DC43
:1030C0000A213846FFF7B3FA04E000BFFFF726F8FD
:1030D000002805D14021304601F09EFB0128F5D0A3
:1030E00093E040F2523728213846FFF7A0FA02E079
:1030F000FFF714F820B9206CE96F28388142F7DB1C
:103100000A213846FFF793FA04E000BFFFF706F8FC
:1031100000287AD14021304601F07EFB0128F5D00D
:1031200073E000BFFEF7FAFF18B9686F47388128CF
:10313000F8D3A069401CA061322897DBFEF7F5FBAD
:10314000B0EE480AB0EE001AF0EE400A1E20FFF77B
:1031500071FA4FF4FA6802E0FEF7E0FF18B9FDF7E4
:1031600095FC4045F8DBFEF7E0FBB0EE480AB0EE18
:10317000001AF0EE400A1920FFF75CFA03E000BFE6
:10318000FEF7CCFF10B9686F2828F9DCA86F216C16
:1031900088424FF019011DDD4FF457773846FFF78D
:1031A00046FA02E0FEF7BAFF20B9206CA96F28307A
:1031B0008142F7DC0A213846FFF739FA03E000BF05
:1031C000FEF7ACFF08BB4021304601F025FB01288B
:1031D000F6D01AE03846FFF72AFA02E0FEF79EFF23
:1031E00020B9206CA96F28388142F7DB0A213846C4
:1031F000FFF71DFA03E000BFFEF790FF28B940215A
:10320000304601F009FB0128F6D0BDEC028B00200E
:10321000BDE8F041FFF779B92DE9F04102218F486F
:1032200001F0FAFA8E4C012840F252388A4EE06AD8
:10323000C8F1000704F180050BD0FFF7D0FD6078DE
:10324000012849D0002872D119214801FFF7EFF970
:1032500063E0FFF7C4FD6078012806D0002875D12F
:1032600028213846FFF7E3F921E028214746404668
:10327000FFF7DDF903E000BFFEF750FF20B9206C37
:10328000A96F2C388142F7DB0A213846FFF7CFF9C6
:1032900003E000BFFEF742FF88BB4021304601F04B
:1032A000BBFA0128F6D04CE0FEF738FF20B9206CBD
:1032B000A96F2C308142F7DC0A213846FFF7B7F9B5
:1032C00003E000BFFEF72AFFC8B94021304601F0F5
:1032D000A3FA0128F6D034E019213846FFF7A7F900
:1032E00003E000BFFEF71AFF20B9206CA96F2C384D
:1032F0008142F7DB0A213846FFF799F903E020E025
:10330000FEF70CFFE8B94021304601F085FA0128AC
:10331000F6D016E0FEF702FF20B9206CA96F2C3022
:103320008142F7DC0A214046FFF781F903E00DE016
:10333000FEF7F4FE28B94021304601F06DFA01286D
:10334000F6D0BDE8F0410020FFF7DFB8BDE8F0811E
:103350002DE9F05FDFF800814FF480773946404671
:1033600001F05AFA3E4D01263E4C01280DD0BA46D6
:1033700039464746404601F04FFA4FF000084FF0FB
:1033800003094FF4806B10B10BE0EE7027E0594653
:10339000384601F041FA20B98021384601F03CFA64
:1033A00028B15146384601F037FA18B107E085F8E0
:1033B00003800BE05946384601F02EFA28B15146F9
:1033C000384601F029FA28B10CE0EE70E96A44F8B9
:1033D000219007E02068012816D085F80380E86A6C
:1033E00044F82060606901280CDB6068012809DB73
:1033F000A068012806DBE068012803DB20690128BA
:1034000000DB2660BDE8F09FE86A022144F8201046
:103410006863EE70E6E72DE9F041FFF799FF114E82
:10342000002718360F4D0E4C8DE02868F0BBE76181
:1034300000E0F8B9E06A19E055F82010A9B9217F39
:103440006170E062FFF7E8FEFFF782FFE078012895
:1034500010D02868012807E0001002400004024054
:10346000000000201C02002004D0A069401CA061C4
:103470000628E1DBE069012817D1E06A11E000BF0E
:1034800055F8201061B9217F6170E062FFF7C4FE3A
:10349000FFF75EFFE078012815D02868012815D0D5
:1034A000A069401EA0610028EADC00E00BE0E078A3
:1034B000012808D02868012808D0E069401CE06194
:1034C000022840DAB5E7286801283CD1E76100E02E
:1034D000B8B9E06A11E000BF56F8201055F8201086
:1034E000032909D0217F6170E062FFF795FEFFF7A5
:1034F0002FFFE078012804D0A069401CA0610628B5
:10350000EADBE069012816D1E06A10E056F82010E5
:1035100055F82010032909D0217F6170E062FFF780
:103520007BFEFFF715FFE078012810D0A069401E50
:10353000A0610028EADCE078012808D0E069401C9E
:10354000E0610228C4DBE07800283FF46EAFE06A57
:103550002063FBE610B5FEF7E8F9FB4C0120E062C2
:10356000FFF748FDE06A206310BD10B5FEF7DDF9F6
:10357000F54C0220E062FFF73DFDE06A206310BDDC
:1035800010B5FEF7D2F9F04C0320E062FFF732FDF0
:10359000E06A206310BD10B5FEF7C7F9EA4C0420BD
:1035A000E062FFF727FDE06A206310BD10B5FEF76B
:1035B000BCF9E54C0520E062FFF71CFDE06A2063E2
:1035C00010BD2DE9F041E14C0221204601F024F923
:1035D000DF4D30B14FF40051284601F01DF90028AD
:1035E00022D1D949012000228863C102D94801F0C3
:1035F0002BF9D9490020C8754FF4804677000CE0BC
:103600000421204601F008F938B13146284601F07E
:1036100003F910B1012003F052FD3946204601F0B4
:10362000FBF80128F9D1EBE790E62DE9F041C64C13
:103630000025C64FA06A01261E3008D00821384652
:1036400001F0EAF801280FD0304660627EE6A06BF8
:103650000028FBD1FDF71AFAB0F5FA6F06DC082155
:10366000384601F0D9F808B12846EEE700224FF4B9
:103670008071B748A56201F0E7F8666266E62DE959
:10368000F05F2DED028BFEF750F9AF4C00210122C7
:10369000C4E90E12B048E170FE23C373C374C3754E
:1036A000827582748173DFF8A4924FF480589FED85
:1036B000AB8AA74EDFF89CB24FF4807A4FF4FA67DA
:1036C00014214FF4E160FEF7B2FF55460EE0A06B07
:1036D000012828D0606A012825D0FDF7D7F9B84223
:1036E00004DD00222946304601F0AEF84146484646
:1036F00001F092F80028EAD00020FEF706FF4FF410
:10370000C870FDF7E4F9A06B012810D0606A0128A9
:10371000D6D1FDF7BBF92062FEF707F91E21002084
:10372000FEF785FF15E00220FEF7EFFEE4E700203C
:10373000FEF7EBFEFDF7AAF92062FEF7F6F8A946C0
:10374000B0465D464FF4006A05265EE0FEF7E6FCF3
:1037500050B9206A00EB4005FDF798F9E91705EB31
:103760009171B0EBA10FF1DB0221584601F054F842
:1037700001280BD0B0EE001AF0EE480A1E209FED93
:10378000780AFEF757FF4FF461751DE0FEF7CDF89C
:10379000DFED740A1E20B0EE480AB0EE601AFEF7A4
:1037A00049FF4FF4FA7503E0FEF7B8FC002887D113
:1037B000FDF76CF9A84283DAF6E700BFFEF7AEFC2E
:1037C00040B9012003F07BFCFEF70EFDFEF766FD1D
:1037D000A842F3DBFEF7A9F81E216348FEF727FF96
:1037E0004FF41675FDF752F9A842FBDB68E71E217E
:1037F0000020FEF71CFF00225146284601F024F865
:1038000000224946404601F01FF8FDF73FF9216AC2
:10381000490091FBF6F18842E9DB0020FEF775FED6
:10382000FEF783F80221284600F0F6FF464C4FF0E1
:10383000000180340128B7EE080A03D00020FEF70B
:10384000BAFE1CE04848FEF7B6FEA06B0028FDD18A
:10385000FEF76BF8B0EE480AB7EE001AF0EE400A39
:103860002320FEF7E7FE00BFFDF710F9B842FBDBAF
:10387000BDEC028BC6E500BFFEF750FC10B9A06B93
:103880000028F9D1BDEC028B0020BDE8F05FFEF707
:103890003CBE2DE9F05F2DED048BFFF796FA6F200B
:1038A00003F00DFCDFF8ACA00221504600F0B4FF9D
:1038B000254DDFED2A8A9FED2B8A4FF4006B4FF0E8
:1038C00000084FF47A694FF4967741F6641605F1D3
:1038D0008004012809D0B0EE480AB7EE001AF0EED5
:1038E000400A3220FEF7A6FE09E1B0EE480AB6EE25
:1038F000001AF0EE400A3220FEF79CFE03E000BF03
:10390000FEF70CFC18B9FDF7C1F8B842F8DBB0EED1
:10391000480AB6EE001AF0EE400A6420FEF78AFE6E
:103920004F4602E0FEF7FAFB18B9FDF7AFF8B842D0
:10393000F8DBB0EE480AB6EE001AF0EE400A50206E
:10394000FEF778FE15E000000000002000100240A5
:10395000000802400004024000010020000061C491
:103960000000E144000000007CFCFFFFFEF7D6FBF6
:1039700018B9FDF78BF8B042F8DBB6EE001AF0EE9E
:10398000480A3C209FEDF70AFEF754FE03E000BF13
:10399000FEF7C4FB10B9606F4628F9DC0020FEF783
:1039A000B4FD4646DFEDF09A9FEDF09A4FF4A27712
:1039B000C5F818800CE000221E21F0EE691AB7EE5F
:1039C000001AF0EE480A2820B0EE490AFFF7C2F9C3
:1039D000E06FB842EFDDA869401CA8613228F7DB30
:1039E000AE614FF4C0760CE01E210022F0EE691AA1
:1039F000B7EE001AF0EE480A0846B0EE490AFFF7A3
:103A0000A9F9E06FB042EFDDA869401CA861322837
:103A1000F7DB0020FEF779FDFDF787FF9FEDD41A55
:103A2000B0EE480A3C20F0EE400AFEF703FE4FF4E9
:103A3000E16502E0FEF772FB18B9FDF727F8A8422E
:103A4000F8DBB0EE480A1E20B0EE401AF0EE400A55
:103A5000FEF7F0FD4FF4947103E000BFFEF75EFB4C
:103A600010B9606F8842F9DA01225946564650462D
:103A700000F0EAFE01229102304600F0E5FE01224C
:103A80001102BC4800F0E0FEFDF74FFF9FEDBA1AAF
:103A9000F0EE480A3220B0EE680AFEF7CBFD4FF494
:103AA000FA5602E0FEF73AFB18B9FCF7EFFFB04216
:103AB000F8DB0020FEF729FD0021B0EE040A2846BD
:103AC000FEF779FDA06B0028FDD1FEF71EFDF0EE9C
:103AD000480A1E20B0EE601AB0EE680AFEF7AAFD92
:103AE00004E000BFFEF71AFB002802D1E06F502867
:103AF000F8DCBDEC048B85E4FEF710FB18B9FCF78D
:103B0000C5FFB842F8DBB0EE480AB7EE001AF0EE97
:103B1000400A7820FEF78EFD03E000BFFEF7FEFAB4
:103B200018B9FCF7B3FF4845F8DBB0EE480AB7EE2A
:103B3000001AF0EE400A6420FEF77CFD41F64C5975
:103B400003E000BFFEF7EAFA18B9FCF79FFF48450B
:103B5000F8DBB7EE001AF0EE480A50209FED870A16
:103B6000FEF768FD03E000BFFEF7D8FA10B9606FFA
:103B70006428F9DC0020FEF7C8FC00222321DFEDD9
:103B8000801AB0EE001AF0EE480A3220B0EE680A51
:103B9000FFF7E0F84FF4AF7103E000BFFEF7BEFAA5
:103BA00010B9A06F8842F9DB0020FEF7AEFCFDF7EC
:103BB000BCFEB0EE480AB0EE001AF0EE400A9620C5
:103BC000FEF738FD40F6C41903E000BFFEF7A6FA81
:103BD00018B9FCF75BFF4845F8DBB0EE480A1E2039
:103BE000B0EE401AF0EE400AFEF724FD03E000BFFD
:103BF000FEF794FA10B9606FB842F9DC0020FEF7C6
:103C000084FCB0EE680AB0EE001AF0EE400A1E2006
:103C1000FEF710FD4FF4617706E000BFFEF77EFA75
:103C200040B9012003F04BFAFEF7DEFAFEF736FB4F
:103C3000B842F3DB1E210020FEF7F9FC03E000BFD1
:103C4000FEF76CFA10B9606F1E28F9DCFDF76DFE07
:103C50000A210020FEF7EBFC03E000BFFEF75EFA4E
:103C600018B9FCF713FFC828F8DB0020FEF74DFC5D
:103C7000012211023F4800F0E7FD0122594650465B
:103C800000F0E2FDFFF7A1F86F2003F018FA5FEDF6
:103C9000CC8AC5F8188000BFB0EE001AF0EE480AD2
:103CA0003220B0EE680AFEF7C5FC02E0FEF736FAF5
:103CB00018B9FCF7EBFEB042F8DBA869401CA8611C
:103CC0003228E9DB0020FEF720FC0021BFEE000ACD
:103CD0002C48FEF770FC02E0FEF720FA10B9A06B4A
:103CE0000028F9D1BDEC048B0020BDE8F05FFEF7A1
:103CF0000CBC10B5244C606B012801D1FFF72AFCE5
:103D0000606B022801D1FFF730FC606B032801D102
:103D1000FFF736FC606B042801D1FFF73CFC606BB9
:103D2000052802D1BDE8104040E410BD174A30B468
:103D30001068154901282BD00120886152F82030E5
:103D400083B3401C0628F9DB8861C86A04283DD08B
:103D500003283ED002283FD0012832D005283ED18A
:103D600030BC23E4000048430000484200006144A6
:103D7000CDCC4C3E00080240CDCC4C3F000048C3A7
:103D8000000048C23EFEFFFF000000201C02002091
:103D9000F74B052053F8204052F82040032C02D066
:103DA000C86204E010E0401E0128F3DAC86A052862
:103DB000D6D004280AD003280BD002280CD0012822
:103DC0000DD130BCFFF7C6BBC862BDE730BCFFF702
:103DD000E2BB30BCFFF7D4BB30BCFFF7C6BB30BC86
:103DE0007047FFF74CFCE34CE06A012808D002283A
:103DF00009D003280AD004280BD005280CD00DE0E8
:103E0000FFF7A8FB0AE0FFF7B0FB07E0FFF7B8FBFE
:103E100004E0FFF7C0FB01E0FFF7C8FBFFF798FAEB
:103E200007E000BFFFF794FAE078012810D0FFF711
:103E3000F3F9E0780028F5D00025E570FFF700F8E9
:103E4000FFF71DFC606B30B1FFF753FF65630CE0BB
:103E5000FEF7E0FFF0E7FFF769FF06E0FFF778FA0B
:103E6000E078012806D0FFF7D7F9E0780028F5D0F0
:103E7000E570E5E7FEF7CEFFFEF7E2FFF5E72DE997
:103E8000F05F2DED068BFEF7A0FFBB4F02213846F9
:103E900000F0C2FC5FED4AAA1FED49AA00265FEDC3
:103EA0004E9A9FEDB69AB34C4FF4C0794FF4E16847
:103EB0009FEDB38A4FF4947A5FED548A0128B6EEF1
:103EC000001AF0EE480A4FF0140006D01FED550A14
:103ED000FEF7B0FB04F18005B3E01FED5E0AFEF7CC
:103EE000A9FBA44D803502E0FEF718F910B9686F00
:103EF0004628F9DC0020FEF708FB4FF4A27BA66100
:103F00000CE000221E21F0EE691AB7EE001AF0EE66
:103F1000480A2820B0EE680AFEF71CFFE86F5845F3
:103F2000EFDDA069401CA0613228F7DBA6614E4698
:103F30000CE01E210022F0EE691AB7EE001AF0EE36
:103F4000480A0846B0EE680AFEF704FFE86FB04280
:103F5000EFDDA069401CA0613228F7DB0020FEF7EE
:103F6000D4FAFDF7E2FCB0EE480AB0EE6A1AF0EEC1
:103F7000400A3C20FEF75EFB444602E0FEF7CEF826
:103F800018B9FCF783FDA042F8DBB0EE480A1E200A
:103F9000B0EE401AF0EE400AFEF74CFB514602E04C
:103FA000FEF7BCF810B9686F8842F9DA0122D10235
:103FB000384600F049FC01229102384600F044FCEA
:103FC000012211026F4800F03FFCFDF7AEFCB0EE9D
:103FD0004A1AF0EE480A3220B0EE490AFEF72AFBF0
:103FE0004FF4FA6603E000BFFEF798F818B9FCF743
:103FF0004DFDB042F8DB0020FEF787FA0021B7EE56
:10400000080A2046FEF7D7FAA86B0028FDD1F0EE8B
:10401000480A1E20B0EE601AB0EE490AFEF70AFB0D
:1040200004E000BFFEF77AF8002802D1E86F5028BC
:10403000F8DCBDEC068BBDE8F09F00BFFEF76EF824
:1040400010B9686F2828F9DC0020FEF75EFAA66137
:104050000CE000221E21F0EE691AB7EE001AF0EE15
:10406000480A2820B0EE490AFEF774FEA86FFA2825
:10407000EFDBA069401CA0613228F7DBA6614E4649
:104080000CE01E210022F0EE691AB7EE001AF0EEE5
:10409000480A0846B0EE490AFEF75CFEA86FB04237
:1040A000EFDDA069401CA0613228F7DB0020FEF79D
:1040B0002CFAFDF73AFCB0EE480AB0EE6A1AF0EEC0
:1040C000400A3C20FEF7B6FA444602E0FEF726F826
:1040D00018B9FCF7DBFCA042F8DBB0EE480A1E2062
:1040E000B0EE401AF0EE400AFEF7A4FA514602E0A4
:1040F000FEF714F810B9686F8842F9DA0122D1028C
:10410000384600F0A1FB01229102384600F09CFBEA
:10411000012211021B4800F097FBFDF706FCB0EEF0
:104120004A1ADFED190A3220B0EE680AFEF782FA69
:1041300040F2FE6103E000BFFDF7F0FF18B9FEF7A3
:1041400053F88842F8DBF0EE480A1E20B0EE601A01
:10415000B0EE680AFEF76EFA05E000BFFDF7DEFF7D
:1041600000287FF466AFE86F5028F7DC61E70000B5
:10417000340200200000002000040240000061C45E
:1041800000000000000802400000E144FFF777FE55
:10419000FFF775FAFFF70AFAFFF73DF9FEF73AFE67
:1041A000FEF74EFE00258F4CFFF769FA606B48B1B1
:1041B000FFF79FFDFFF72FF9FEF72CFEFEF740FEFD
:1041C000656307E0FFF7B2FDFFF725F9FEF722FE72
:1041D000FEF736FEE570E7E7FFF75BFBFFF74FFA08
:1041E000FFF7E4F9FFF717F9FEF714FEFEF728FED4
:1041F00000257C4CFFF743FA606B48B1FFF779FD6F
:10420000FFF709F9FEF706FEFEF71AFE656307E001
:10421000FFF78CFDFFF7FFF8FEF7FCFDFEF710FE41
:10422000E570E7E770B5FFF734FB6E4C0025A5613C
:10423000FFF725FAFFF78EF9FEF7ECFDFEF700FE1B
:10424000A069401CA0610328F2DBA561FFF717FA03
:10425000FFF78BF9FEF7DEFDFEF7F2FDA069401CCB
:10426000A0610328F2DBA561FFF709FAFFF788F9DF
:10427000FEF7D0FDFEF7E4FDA069401CA061032815
:10428000F2DB70BD10B54FF46174FDF74EFBB0EE7C
:10429000001ADFED550A1E201FED480AFEF7CAF985
:1042A00007E000BFFDF73AFF002808D1012002F027
:1042B00006FFFDF799FFFDF7F1FFA042F2DB10BD0D
:1042C0001420FDF757FE0F2002F0F9FEF8E700BFBB
:1042D000FEF7EFFC0A2002F0F2FEF9E7414C00BFC6
:1042E000FEF75DFCFFF76DF9FFF79FF9207808B93D
:1042F000FEF747FB012002F0E2FEF1E71FB5FCF7F5
:10430000F2FBFCF723FCFCF757FDFCF7F8FDFCF78C
:10431000B1FEFCF737FFFCF799FC4FF4E13420467F
:10432000FCF7D8FF2046FDF759F82046FDF7DCF8EA
:10433000E000FDF7FCF9FDF705FBFDF7F6FA0024B8
:104340004FF4807500940194029423462A4627A1D5
:104350002B48039402F0DCFC0094019402940023A7
:104360002A4628A12C48039402F0D2FCEF00DFF883
:10437000AC802B4E2B4C6D0101223946404600F09B
:1043800063FA0BE0FEF74FFB2078000701D4FFF73C
:1043900023FF2946304600F03FFA18B1A079732870
:1043A000EAD1EFE7FFF7F2FE7FB500244FF4807506
:1043B00000940194029423462A461BA11D480394AD
:1043C00002F0A6FC00940194029400232A461AA14C
:1043D0001C48039402F09CFC02F0C0FF04B00020D3
:1043E00070BD000000000020000061447461736B28
:1043F000526F626F74416E616C797469637300000F
:10440000DD4200087461736B446965754B686965CA
:104410006E436F4361750000CF4200080004024004
:10442000001002406C0100207461736B4D61696E75
:1044300000000000FD4200087461736B4779726FE1
:1044400000000000C14200080CB500205149019055
:1044500000900A6842F480320A604FF4A0630A6850
:1044600002F400320092019A521C0192009A12B991
:10447000019A9A42F3D10A68920334D50120009040
:1044800044484030026842F080520260424802686C
:1044900042F4804202603F480830026802600268CD
:1044A00042F400420260026842F4A0520260031F1C
:1044B0003A4A1A600A6842F080720A600A689201F9
:1044C000FCD5374A40F205611160016821F0030113
:1044D0000160016841F0020101600168C1F38101DE
:1044E0000229FAD10CBD00900CBD2A4810B5016814
:1044F00041F001010160274A002108321160026881
:10450000284B1A400260031D274A1A60026822F4F1
:10451000802202601F480C300160FFF795FF23499D
:104520004FF00060086010BD70B51A4C0834206868
:104530001F4A10F00C011F4804D05510042903D065
:10454000082903D002601BE0056019E01149091D2C
:104550000B68C3F380560B6803F03F0316B1B5FB3D
:10456000F3F201E0B2FBF3F20B680968C3F38813BE
:104570005A43C1F30141491C4900B2FBF1F101600A
:1045800021680C4AC1F30311121D515C0268CA4034
:10459000026070BD003802400070004008544007BF
:1045A000003C0240FFFFF6FE1030002408ED00E062
:1045B0000024F40088010020064880470648004790
:1045C000FEE7FEE7FEE7FEE7FEE7FEE7FEE7FEE7C3
:1045D000FEE7FEE7EB44000889010008284908438C
:1045E00028490860704730B50F22C478017801234C
:1045F000FCB1244C246801F1E02104F4E064C4F52A
:10460000E064C4F30724C4F10405E2404478AC40FC
:104610008578154025432A0181F80024007800F0B0
:104620001F018B404009800000F1E020C0F80031FC
:1046300030BD01F01F0083404809800000F1E020F8
:10464000C0F8803130BD104A114001430D48001FB1
:10465000016070470B4A121D0029116801D0014307
:1046600000E08143116070474FF0E02104280869A1
:1046700003D020F004000861704740F00400FAE71E
:104680000000FA050CED00E080FFFF1F7C4910B52B
:10469000884206D10121084600F058FA0021012085
:1046A0004FE07849884206D10121022000F04EFAFD
:1046B0000021022045E07449884206D101210420EE
:1046C00000F044FA002104203BE07049884206D102
:1046D0000121082000F03AFA0021082031E06C495D
:1046E000884206D10121102000F030FA002110206C
:1046F00027E06849884206D10121202000F026FAEF
:10470000002120201DE06449884206D1012140207B
:1047100000F01CFA0021402013E06049884206D1D5
:104720000121802000F012FA0021802009E05C497C
:1047300088420AD184150121204600F007FA0021A1
:104740002046BDE8104000F001BA10BDF0B50023CE
:10475000012403270D6804FA03F21540954242D163
:10476000D0F800C05E0007FA06F52CEA050CC0F888
:1047700000C091F804C0D0F800E00CFA06FC4CEA46
:104780000E0CC0F800C091F804C0BCF1010F02D0BB
:10479000BCF1020F1FD1D0F808C02CEA050CC0F8FC
:1047A00008C091F805C0D0F808E00CFA06FC4CEA05
:1047B0000E0CC0F808C0D0F804C02CEA020CC0F8F7
:1047C00004C0426891F806C00CFA03FC1FFA8CFC86
:1047D00042EA0C024260C268AA43C260CA79C56854
:1047E000B2402A43C2605B1C102BB3D3F0BD4FF61E
:1047F000FF7101600021017141718171C1717047C8
:1048000008B541F480320092C261C1610099C16172
:10481000C169C069009008BD0246002012690A42C1
:1048200000D001207047006980B270470246002026
:1048300052690A4200D001207047406980B2704737
:1048400001837047418370470AB1018370474183F8
:1048500070474161704742694A40426170474B0767
:10486000DB0E9A40C90810B500EB8100016A0F24E5
:104870009C40A1430162016A1143016210BD000026
:10488000000002400004024000080240000C024008
:10489000001002400014024000180240001C0240B8
:1048A00000200240EA48016841F001010160E84A45
:1048B0000021083211600268E64B1A400260031DB5
:1048C000E54A1A60026822F480220260E0480C3057
:1048D00001607047DE490022891C0A700870704729
:1048E00002460020510901290CD002290CD0D849D8
:1048F0007431096802F01F02012393400B4200D07B
:1049000001207047D249F4E7D1497031F1E718B579
:1049100000204FF4A06400903120FFF7E1FF0099E0
:10492000491C0091A14201D00028F5D03120FFF7A9
:10493000D7FF002800D0012018BDC5490A6822F021
:10494000F80242EAC00008607047C4490860704736
:10495000BF49002270310A700A70012802D0042871
:1049600001D1052008707047BD490860704741EAD1
:1049700082115A0810B5BB4B029C03EB0242114353
:10498000014341EA0460B249091D086010BDB34902
:1049900008667047800140EA0170AD4984310860C3
:1049A0007047AE4988667047AC49C8647047A84AEA
:1049B00008321368084323F0EC6318431060704713
:1049C000A34A08321368084323F078431843106061
:1049D00070479F4A0832116821F0030101431160BA
:1049E00070479B480830006800F00C007047984AF8
:1049F0000832116821F0F001014311607047944AB8
:104A00000832116821F4E051014311607047904968
:104A100008310A6822F4604242EAC0000860704728
:104A200070B58B4A083211688F4C11F00C0104D01C
:104A30006610042903D0082903D004601BE0066037
:104A400019E08349091D0B68C3F380550B6803F017
:104A50003F0315B1B6FBF3F301E0B4FBF3F30C68CD
:104A60000968C4F388146343C1F30141491C490038
:104A7000B3FBF1F1016011680F2303EA11117B4BC5
:104A80005C5C0168E14041601468072505EA9424F4
:104A90001C5D21FA04F48460126805EA52329A5CC3
:104AA000D140C16070BDC0F30121032908D1684A1B
:104AB0000832116821F4F8136D490140194311605F
:104AC000634970310A68C0F30B0002430A60704703
:104AD000634944390860704761494039086070474C
:104AE0005E49C1F85C017047594A303200291168AB
:104AF00001D0014300E0814311607047544A3432D1
:104B00000029116801D0014300E081431160704722
:104B10004F4A38320029116801D0014300E0814337
:104B2000116070474A4A40320029116801D00143A0
:104B300000E0814311607047454A44320029116802
:104B400001D0014300E0814311607047404A1032B8
:104B50000029116801D0014300E0814311607047D2
:104B60003B4A14320029116801D0014300E081431F
:104B700011607047364A18320029116801D001438C
:104B800000E0814311607047314A203200291168EA
:104B900001D0014300E08143116070472C4A243268
:104BA0000029116801D0014300E081431160704782
:104BB000274A50320029116801D0014300E08143A7
:104BC00011607047224A54320029116801D0014314
:104BD00000E08143116070471D4A58320029116876
:104BE00001D0014300E0814311607047184A6032F0
:104BF0000029116801D0014300E081431160704732
:104C0000134A64320029116801D0014300E0814356
:104C1000116070470E4A0D320029117801D001430E
:104C200000E081431170704709487430016841F019
:104C30008071016070470146054A00200C321268FD
:104C40000A4200D00120704701490E3108707047B8
:104C500000380240FFFFF6FE1030002400004742FB
:104C6000800E47420000FFFF0024F4009C0100205A
:104C7000FFFCFF0F10B501210C022046FFF78EFF4D
:104C80002046BDE810400021FFF788BF30B54268DC
:104C9000C84B0C791A400B6842EA04221343436064
:104CA0008268C54B4D791A40D1E9034323438C6890
:104CB00044EA4504234313438360C26A097D22F416
:104CC0007002491EC9B242EA0151C16230BD0021E1
:104CD0000160017141718160C16001610121017553
:104CE0007047B64B10B5D3F80423B5490A40D0E954
:104CF00000142143D0E90240044321431143C3F887
:104D0000041310BD0021016041608160C1607047E3
:104D10000029816802D041F0010101E021F0010188
:104D2000816070474268A74B1A400A43426070474F
:104D3000416282627047426822F01F020A43426069
:104D400070479E490028D1F8040302D040F40000C7
:104D500001E020F40000C1F80403704797490028DF
:104D6000D1F8040302D040F4800001E020F4800078
:104D7000C1F80403704770B5072409290AD9C5682A
:104D8000A1F10A0606EB4606B440A543B3401D4315
:104D9000C56007E0056901EB4106B440A543B34097
:104DA0001D4305611F23072A09D2446B521E02EBE3
:104DB000820293409C4391400C43446370BD0D2A92
:104DC00009D2046BD21F02EB820293409C439140B4
:104DD0000C43046370BDC46A0D3A02EB8202934037
:104DE0009C4391400C43C46270BD816841F0804196
:104DF00081607047014600208968490200D5012082
:104E000070470029816802D041F4806101E021F4FB
:104E10008061816070470029816802D041F0020101
:104E200001E021F00201816070474268491E22F4CE
:104E3000604242EA4131416070470029416802D036
:104E400041F4006101E021F4006141607047C06CF1
:104E500080B270475948D0F808037047002981682C
:104E600002D041F4807101E021F4807181607047CB
:104E70000029816802D041F4007101E021F4007141
:104E8000816070474D490028D1F8040302D040F4F6
:104E9000005001E020F40050C1F80403704770B5E1
:104EA000072409290AD9C568A1F10A0606EB4606B6
:104EB000B440A543B3401D43C56007E0056901EB5D
:104EC0004106B440A543B3401D430561836BC3F362
:104ED0000154121B921C02EB82041F22A240934336
:104EE000A1400B43836370BD826B491E22F44012C4
:104EF00042EA01518163704708B50844009002609E
:104F000008BD826822F470220A438260704782687A
:104F100022F440120A4382607047816841F48001A4
:104F200081607047014600208968490200D5012050
:104F300070470029416802D041F4806101E021F40A
:104F40008061416070470029416802D041F480517E
:104F500001E021F480514160704708B508442830D1
:104F60000090006880B208BD01238B4041680AB1FF
:104F7000194300E0994341607047024600201268DF
:104F80000A4200D001207047C9430160704730B524
:104F90000246002053680C0A01258D4011682B4001
:104FA000214202D0002B00D0012030BD6FEA112138
:104FB00001607047FFFEFFFCFDF7FFC000200140CD
:104FC000E030FCFFFFFD3FFF2DE9F043016821F0D9
:104FD000010101600021016041608160C1600161E7
:104FE00021214161B849B84A3D251039904202D18A
:104FF0008D60BDE8F083B44A4FF474661832904275
:1050000001D18E60F5E7B04A4FF474173032904208
:1050100001D18F60EDE7AC4A4FF0746C483290429A
:1050200002D1C1F808C0E4E7A74BA84A6033984210
:1050300001D1CA60DDE7A44CA54B7834A04201D170
:10504000CB60D6E7DFF88082A24C08F1900840459B
:1050500001D1CC60CDE7DFF870824FF03D5908F107
:10506000A808404502D1C1F80C90C2E79A49DFF880
:1050700068820839404501D10D60BAE7964D183570
:10508000A84201D10E60B4E7934D3035A84201D15A
:105090000F60AEE7904D4835A84202D1C1F800C07C
:1050A000A7E78D4D8C496035091FA84201D10A60E0
:1050B0009FE7894A7832904201D10B6099E7864A8E
:1050C0009032904201D10C6093E7834AA83290421B
:1050D0008FD1C1F800908CE730B503687F4ACC6867
:1050E00013400A682243D1E905452C432243CC6989
:1050F00022430C6A22434C6A22438C6A22434C6B43
:1051000022438C6B22431A430260426922F0070358
:10511000D1E90B2422431A4342610A6942604A687A
:1051200082608968C16030BD00210160416081609A
:10513000C160016141618161C1610162416281625D
:10514000C16201634163816370470029016802D035
:1051500041F0010101E021F00101016070470029E7
:10516000016802D041F4004101E021F400410160F6
:1051700070470029016802D041F0200101E021F0D0
:1051800020010160704741607047406880B27047FD
:10519000002A026802D042F4002201E022F4002238
:1051A0000260016170470029016802D041F480214A
:1051B00001E021F48021016070470AB1016170476C
:1051C000C1607047014600200968090300D501202D
:1051D0007047014600200968C90700D001207047C8
:1051E000406900F03800704702463B4B00209A426D
:1051F00002D2354A103A01E0374A103A8B0001D505
:10520000526800E01268364B1A400A4200D0012072
:105210007047314A904202D22B48103801E02E48A4
:1052200010382F4A8B0001EA020101D5C160704796
:10523000816070470B0607D5436912B143F08003C4
:1052400001E023F080034361802908D0002A02682E
:1052500001F01E0101D00A4300E08A43026070475A
:1052600030B51D4A0024904202D2174B103B01E09A
:10527000194B103B1B4A114205D01E2202EAD125D0
:1052800002682A4002E0406900F08002880001D5EF
:10529000586800E01868124B1840084201D002B16B
:1052A0000124204630BD0C4A904202D206481038F4
:1052B00001E0094810380A4A8B0001EA020101D5D1
:1052C000C160704781607047106002403D0000205F
:1052D000400F002000003D20106402403F801CF081
:1052E0007D0F7D0F3C0F3C0F374900200860091DE2
:1052F0000860091D0860091D0860334933481431EE
:105300000860704730B530498379026853B30B6841
:1053100093430B600A1D13680468A343136002796A
:105320000A441368046823431360274A0832136849
:105330000468A3431360131D1C680568AC431C601C
:105340004479102C05D021440A68006802430A60A1
:1053500030BD116804682143116019680068014379
:10536000196030BD0079084401689143016030BD87
:105370000021016001710C22427181717047124954
:1053800010310A6802430A60704701460E4A002045
:10539000143212680A4200D0012070470A491431C1
:1053A00008607047084A014600201268064B0A4010
:1053B00014331B680B4202D0002A00D00120704732
:1053C0000149143108607047003C0140FFFF7F0035
:1053D000FE4910B5884206D101210846FFF7DEFBE1
:1053E000002101205BE0B0F1804F09D0F8498842EC
:1053F0000DD101210220FFF7C7FB0021022070E040
:1054000001210846FFF7C0FB0021012069E0F149B6
:10541000884206D101210420FFF7B6FB00210420B9
:105420005FE0ED49884206D101210820FFF7ACFB7F
:105430000021082055E0E949884206D101211020C9
:10544000FFF7A2FB002110204BE0E549884206D17E
:1054500001212020FFF798FB0021202041E0E149B5
:10546000884206D101210220FFF798FB002102208B
:1054700015E0DD49884202D101210C040AE0DB4934
:10548000884202D101214C0404E0D94988420AD162
:1054900001218C042046FFF781FB00212046BDE856
:1054A0001040FFF77BBBD349884206D10121402041
:1054B000FFF76AFB0021402013E0CF49884206D164
:1054C00001218020FFF760FB0021802009E0CB490B
:1054D00088420AD1841501212046FFF755FB00219F
:1054E0002046BDE81040FFF74FBB10BD30B5028825
:1054F000B64BBC4C98420DD0A0420BD0B0F1804FBF
:1055000008D0B34DA84205D0B24DA84202D0B24D4A
:10551000A84203D122F070054A882A43AF4DA84221
:1055200006D0AF4DA84203D022F440750A892A4321
:1055300002804A68C2620A880285984201D0A0426D
:1055400001D1897A01860121818230BD4FF0FF317E
:105550004160002101800181418081727047018595
:1055600082827047028822F070020A4302807047EC
:1055700041627047C1627047406A7047008D704752
:105580000029018802D041F0020101E021F002016E
:10559000018070470029018802D041F0040101E038
:1055A00021F00401018070470029018802D041F0F8
:1055B000800101E021F0800101807047028822F023
:1055C0000802028002880A4302807047028822F49F
:1055D0004072028002880A430280704700290188D5
:1055E00002D041F0010101E021F00101018070478A
:1055F00030B5028C22F001020284028C8388048B75
:1056000022F0020224F073050C882C438D89154387
:105610004A882A436D4DA84202D0724DA8420DD14E
:1056200022F00805CA8923F440732A4322F00405B6
:105630008A882A430D8A1D434B8A2B438380048327
:1056400089684163028430BD70B5028C22F010027B
:105650000284028C8488038B0D8823F4E6464FF67F
:10566000FF7303EA052535438E8922F0200203EA01
:10567000061616434A8803EA02123243534EB042DA
:1056800002D0584EB04215D122F08006CA8924F4C7
:10569000406403EA0212324322F040068A8803EA99
:1056A000021232430E8A03EA860626434C8A03EA34
:1056B000840434438480058389688163028470BDD7
:1056C00070B5028C22F480720284028C8488838BF1
:1056D0000D8823F073031D4322F400738E894FF667
:1056E000FF7202EA06261E434B8802EA0323334375
:1056F000364EB04202D03B4EB04215D123F4006684
:10570000CB8924F4405402EA0323334323F4806614
:105710008B8802EA032333430E8A02EA06162643E5
:105720004C8A02EA04143443848085838968C16307
:10573000038470BD70B5028C22F480520284048C04
:105740008288838B0D8823F4E6464FF6FF7303EAC5
:105750000525354324F400568C8903EA0434344388
:105760004E8803EA06362643184CA04202D01D4C50
:10577000A04205D122F480440A8A03EA821222431D
:105780008280858389680164068470BD0021018060
:105790004180818081608181C18101824182704725
:1057A00030B50124058C00F118038C40A543058415
:1057B00031B308292CD0091FC1F34E0018440168E9
:1057C00048F6FF731940016001681AE000000140CB
:1057D0000004004000080040000C004000100040A1
:1057E000001400400004014000400140004401401A
:1057F0000048014000180040001C0040002000400C
:1058000006E04FF6FF7303EA02221143016030BD48
:1058100003EB510001684FF68F7319400160016876
:10582000F3E74163704781637047C1637047016468
:105830007047028B22F070020A4302837047028B8A
:105840004FF6FF7322F4E04203EA01211143018382
:105850007047828B22F070020A4382837047828BEA
:105860004FF6FF7322F4E04203EA012111438183E2
:105870007047028B22F008020A4302837047028BB2
:105880004FF6FF7322F4006203EA01211143018302
:105890007047828B22F008020A4382837047828B12
:1058A0004FF6FF7322F4006203EA01211143818362
:1058B0007047028B22F004020A4302837047028B76
:1058C0004FF6FF7322F4806203EA01211143018342
:1058D0007047828B22F004020A4382837047828BD6
:1058E0004FF6FF7322F4806203EA012111438183A2
:1058F0007047028B22F080020A4302837047028BBA
:105900004FF6FF73C2F30E0203EA01211143018334
:105910007047828B22F080020A4382837047828B19
:105920004FF6FF73C2F30E0203EA01211143818394
:105930007047028C22F002020A4302847047028CF4
:1059400022F008020A4302847047028C4FF6FF736C
:1059500022F0200203EA0111114301847047028CF6
:105960004FF6FF7322F0800203EA01111143018414
:105970007047028C4FF6FF7322F4007203EA012194
:10598000114301847047028C4FF6FF7322F40062CA
:1059900003EA0121114301847047028C4FF6FF7323
:1059A00022F4005203EA013111430184704710B51B
:1059B0000123048C8B409C430484038C8A40134352
:1059C000038410BD10B50423048C8B409C430484D5
:1059D000038C8A401343038410BD828B22F44062FF
:1059E0008283828B4FF6FF7303EA01210A4382838D
:1059F0007047828B22F00C028283828B0A4382835F
:105A00007047028B22F440620283028B4FF6FF73D1
:105A100003EA01210A4302837047F0B5048C24F0A5
:105A200010040484078B068C4FF6FF7404EA0115FA
:105A300027F4734704EA0331394304EA02220A4394
:105A400026F0A001294341F0100102830184F0BD3A
:105A5000028B22F00C020283028B0A4302837047FE
:105A60002DE9F0410D460E884988AA882B89044605
:105A70000EB3042E26D0082E268C4FF6FF7028D0A9
:105A800026F480562684A78B268C00EA022200EAA0
:105A9000013127F473473A4300EA0330104326F4F8
:105AA00020420A4342F48051A0832184E9882046A1
:105AB000BDE8F04191E700F062F9E9882046BDE8D1
:105AC000F041C5E7FFF7A9FFE9882046BDE8F041AE
:105AD00097E726F480762684A78B268C00EA01219E
