:020000040800F2
:10000000583000201140000845020008470200084F
:10001000490200084B0200084D02000800000000E1
:100020000000000000000000000000009D0100082A
:100030004F02000800000000E101000847660008C8
:100040002B4000082B4000082B4000082B400008E4
:100050002B4000082B4000082B4000082B400008D4
:1000600017040008630400082B400008010300087F
:10007000C30200084D0300082B4000087502000869
:100080002B4000087D0200082B4000082B40000890
:100090002B4000082B4000082B4000082B40000894
:1000A0002B40000871030008910300082B40000852
:1000B00093030008B3030008D30300082B40000893
:1000C0002B4000082B4000082B40000813040008B8
:1000D0002B400008550200082B4000082B40000868
:1000E0002B4000082B4000082B4000082B40000844
:1000F0002B4000082B4000082B4000082303000879
:100100002B4000082B400008F303000815040008EA
:100110002B4000082B400008570300085F0300082D
:100120002B4000082B4000089F0200082B400008CD
:100130002B4000082B4000082B4000082B400008F3
:100140002B4000082B4000082B4000082B400008E3
:10015000B90200082B4000082B4000082B40000883
:100160002B4000082B4000082B4000082B400008C3
:100170002B4000082B4000082B4000082B400008B3
:100180002B4000082B400008DFF80CD007F0F8FAED
:1001900000480047033E000858300020234B1968F0
:1001A0000868B0E8F04F80F309884FF0000080F352
:1001B000118870470000000003480068006880F361
:1001C000088862B600DF00BF08ED00E0DFF80C0031
:1001D000016841F470010160704700BF88ED00E0E4
:1001E000EFF30980114B1A681EF0100F08BF20EDC5
:1001F000108A20E9F04F106008B54FF0140080F32A
:10020000118806F0F6FC4FF0000080F31188BDE87D
:10021000084019680868B0E8F04F1EF0100F08BFDA
:10022000B0EC108A80F30988704700BF9C01002061
:10023000EFF311804FF0140181F31188704780F3C0
:10024000118870477047FEE7FEE7FEE7FEE770475C
:100250007047704710B5834C40F22551204605F099
:100260003CFC002805D02046BDE81040202105F0C8
:1002700031BC10BD7C497D4804F041BD70B57B4D5B
:100280007B4C30352146284604F016FD002805D069
:1002900021462846BDE8704004F031BD70BD10B560
:1002A0007449754804F02BFD74484178007841EAA0
:1002B00000207349088010BD6F487249483004F02F
:1002C0001EBD70B5694D704C483D2146284604F06E
:1002D000F3FC002813D02146284604F010FD6B489B
:1002E00001F066FE00280AD1694C0021204605F085
:1002F00033FB2046BDE87040012105F02DBB70BDE9
:1003000070B55A4D634C603D2146284604F0D4FC3C
:10031000002805D021462846BDE8704004F0EFBC17
:1003200070BD70B5514C5C4D48342946204604F0F0
:10033000C3FC002809D00021204604F032FC2946E5
:100340002046BDE8704004F0DABC70BD474846491D
:10035000303804F0D4BC0121504805F09CB910B5E8
:1003600001214F4805F097F93E497A20888010BD59
:1003700010B54C4C0121204605F08DF92088C106AE
:100380004948016801D5491E00E0491C016010BDC3
:10039000704710B501218C07204605F07CF92088B4
:1003A000C1064248016801D5491E00E0491C0160B0
:1003B00010BD10B53E4C0121204605F06CF9208897
:1003C000C1063C48016801D5491E00E0491C016096
:1003D00010BD10B5384C0121204605F05CF920888D
:1003E000C1063648016801D5491E00E0491C01607C
:1003F00010BD10B5324C0121204605F04CF9208883
:10040000C1063048016801D5491E00E0491C016061
:1004100010BD7047704770B5042004F0EFFC002851
:100420001ED02021284803F042FF284D04212846F1
:1004300003F01EFF1A4C012805D00421284603F0C2
:1004400017FF28B109E00021204604F0BDFD04E0BB
:10045000204604F0BDFD1E4908601E4904200860C6
:1004600070BD704700100140208000207060024085
:10047000008020200080201040640240D402002030
:10048000080000200088002000880010F2020020F0
:10049000004800402080001000800028001000402C
:1004A00000140040000001400C000020100000205B
:1004B000000400401400002000080040400100201B
:1004C000000C00404401002000000240000C0240EB
:1004D00048010020143C014070B50546002406F098
:1004E000B5FEFE4902E02A5D0A55641C8442FADB2F
:1004F000BDE870400121FA4804F053BB70B5F94DD6
:1005000006460024315D00290BD0284605F04AFA42
:100510008021284605F0D7FA0028F9D0641CE4B2FF
:10052000F0E770BD70B5EF4E05460024002D0DD0EC
:100530002946304605F036FA8021304605F0C3FAE8
:100540000028F9D0641CE4B2032CEFD370BD73B55E
:100550000C460020FFF7E6FFE3A0FFF7CFFFDF48E0
:100560002246E2A1823807F059F9DC488238FFF7C9
:10057000C5FFDFA0FFF7C2FFDFA0FFF7BFFFD7482F
:10058000DAA18238009A07F049F9D44E0024D54DFB
:10059000823E2846315D05F005FA4021284605F0E7
:1005A00092FA0028F9D0641C142CF2DBD2A0FFF7D9
:1005B000A5FFFF20FFF7B6FFFF20FFF7B3FFBDE861
:1005C0007C40FF20AEE770B505460C46C6A0FFF79D
:1005D00095FFC2482246C5A1823807F01FF9BF48DF
:1005E0008238FFF78BFFC5A0FFF788FF2846FFF78B
:1005F00085FFC1A0FFF782FFBDE87040FF2091E7B3
:1006000077B5BEA185B00646D1E90001CDE900016C
:10061000B9A0002200680390B3A0B04D0068283D47
:10062000A5F128030290AD4C1146A3F13200A95464
:1006300099548154A154521CD2B21E2AF7D30A21D4
:100640000170FF2444708470C470A448A7A150387E
:10065000079A07F0E3F8A14902A8503906F0DEFD39
:100660009E4802A9823806F0D9FD9C486946823826
:1006700006F0D4FD99483146823806F0CFFD974800
:100680009AA15038069A07F0C9F894495039A1F157
:10069000320006F0C3FD914803A9823806F0BEFD82
:1006A0008E492C706C702839AC70A1F15A0006F09C
:1006B000B5FD8A488238FFF70FFF08B070BD2DE9FD
:1006C000F74188468DA185B00646D1E90001CDE904
:1006D000000189A000220068039083A07F4D00687C
:1006E000283DA5F1280102901446A1F13200AC5436
:1006F0008C548454521CD2B20A2AF8D30A210170B5
:10070000FF2747708770C770744878A15038079AE0
:1007100007F084F8714902A8503906F07FFD6F4850
:1007200002A9823806F07AFD6C486946823806F0E4
:1007300075FD6A483146823806F070FD67484146CB
:10074000823806F06BFD654803A9823806F066FD25
:100750002F706F706149AF70EC7028392C71A1F166
:100760005A0006F05BFD5D488238FFF7B5FE08B021
:10077000BDE8F08170B50020FFF7D4FE5AA0FFF766
:10078000BDFE56480D2259A1823807F047F853485C
:100790008238FFF7B3FE59A0FFF7B0FE594C202175
:1007A000204603F065FD02464C4850A1823807F010
:1007B00035F84A488238FFF7A1FE1021204603F0A1
:1007C00057FD0246454849A1823807F027F84348BB
:1007D0008238FFF793FE4C4D8021284603F048FDF8
:1007E00002463E4841A1823807F018F83B4882385B
:1007F000FFF784FE4021284603F03AFD02463748C1
:100800003AA1823807F00AF834488238FFF776FEBA
:100810004FF40041204603F02BFD02462F4833A140
:10082000823806F0FBFF2D488238FFF767FE4FF451
:100830008041204603F01CFD024628482BA1823847
:1008400006F0ECFF25488238FFF758FE4FF40051C0
:10085000204603F00DFD0246204824A1823806F010
:10086000DDFF1E488238FFF749FE4021274803F08C
:10087000FFFC024619481DA1823806F0CFFF174839
:100880008238FFF73BFE1CA0FFF738FEFF20FFF782
:1008900049FEFF20FFF746FEBDE87040FF2041E61D
:1008A000FEB51BA10646D1E90001CDE900011AA061
:1008B00000210A4D0068283DA5F1280202900C464F
:1008C000A2F132006C5454544454491CC9B2322928
:1008D000F8D30A210170FF2747701FE09202002021
:1008E000B860024000500040740000002564000021
:1008F0002E7478743D000000220000002E7478747D
:100900003D220000000802400000024000100240AA
:100910002E76616C3D0000006A0000008770C77091
:100920000022AFF23801FE4806F078FFFC4902A829
:1009300006F074FCFA4802A9323806F06FFCF84859
:100940006946323806F06AFC3246AFF26001F4487C
:1009500006F064FFF249A1F1320006F05FFC2F704F
:100960006F70EF49AF70EC7028312C71A1F15A0013
:1009700006F054FCEA483238FFF7AEFDFEBD70B514
:100980000D46044606F014FC291B491C90FBF1F2AD
:1009900001FB1200204470BD2DE9FC414FF080475F
:1009A000384604F015FBDF4D2969642640EA014012
:1009B00090FBF6F000240190384604F009FB296909
:1009C00040EA014090FBF6F001990090401A00D5F2
:1009D0004042322800DA641C00980190022CEBDBC4
:1009E0000098002800DA4042BDE8FC812DE9FC4176
:1009F000CD4F384604F0ECFACA4D6969642640EAE6
:100A0000014090FBF6F000240190384604F0E0FA33
:100A1000696940EA014090FBF6F001990090401AA4
:100A200000D54042322800DA641C00980190022C64
:100A3000EBDB00980028D7DA4042D5E710B5FFF786
:100A4000ABFF0446FFF7D2FF002C00DA6442002817
:100A500000DA4042204410BD01B581B0019800EB9E
:100A6000C00040000090002801D0401EFAE70CBDF5
:100A700001B581B044F250610198484300900028CC
:100A800001D0401EFAE70CBD2DE9FC4101211F20D9
:100A900003F056FD01248DF8044000268DF8066011
:100AA0004FF6FF758DF80740032700958DF8057008
:100AB00069469E4803F076FB8DF804408DF8066089
:100AC0008DF8074000958DF805706946984803F049
:100AD00069FB8DF804408DF806608DF8074000959D
:100AE0008DF805706946934803F05CFB8DF804406F
:100AF0008DF806608DF8074000958DF80570694601
:100B00008D4803F04FFB6FE77CB501217E2003F099
:100B100017FD0024FC208DF80440012500908DF87D
:100B2000075002268DF805606946804803F03AFBBD
:100B300048F206008DF8044000908DF807508DF8BB
:100B4000056069467A4803F02DFB46F6C4408DF8EF
:100B5000044000908DF807508DF80560694675488F
:100B600003F020FB03208DF8044000908DF807501F
:100B70008DF805606946704803F014FB4FF2FF5092
:100B80008DF8044000908DF807508DF80560694697
:100B90006A4803F007FB7CBD1FB54FF4E06003F02B
:100BA00049FA36208DF80C0000248DF80D408DF8A0
:100BB0000E4001208DF80F0003A803F040FA012138
:100BC000102003F0DBFC3220ADF80000ADF8084047
:100BD000ADF8024040F2E730594C0190694620469A
:100BE00004F0B0F90121204604F055FD0122114620
:100BF000204604F030FD0021204604F0E5F90121F3
:100C0000204604F017FA1FBD1FB54FF4E06003F053
:100C100011FA37208DF80C0000248DF80D408DF866
:100C20000E4001208DF80F0003A803F008FA0121FF
:100C3000202003F0A3FC4FF4FA70ADF80000ADF8EB
:100C40000840ADF8024040F2E7303E4C0190694662
:100C5000204604F077F90121204604F01CFD012212
:100C60001146204604F0F7FC0021204604F0ACF9C0
:100C70000121204604F0DEF91FBD70B58AB00121C4
:100C8000022003F085FC01210C2003F059FC294EC1
:100C900003220621304603F00EFB032207213046D3
:100CA00003F009FB03220821304603F004FB032272
:100CB0000921304603F0FFFA4FF4707005900220CE
:100CC0008DF8180003208DF8190000248DF81A40C3
:100CD00001258DF81B5005A9304603F063FAA420C6
:100CE000ADF81C002802184E0890ADF82400ADF8AD
:100CF0001E4007A9304604F025F96020ADF8000039
:100D0000ADF802500294ADF80C400121304604F0D9
:100D100091F90021304604F057F96946304615E054
:100D200042020020000000200004004000000240B9
:100D30000004024000080240000C02400010024083
:100D400000100040001400400004014004F07CF951
:100D50006946304604F0A4F96946304604F0DCF9EF
:100D60006946304604F012FA0121304604F054FC82
:100D70000AB070BD70B58AB00121042003F0FEFBFB
:100D800001210D2003F0DCFBFF4E02220C21304636
:100D900003F091FA02220D21304603F08CFA022270
:100DA0000E21304603F087FA02220F21304603F06D
:100DB00082FA4FF47040059002208DF8180003204D
:100DC0008DF8190000248DF81A4001258DF81B506C
:100DD00005A9304603F0E6F9A420ADF81C0028026E
:100DE000EA4E0890ADF82400ADF81E4007A9304641
:100DF00004F0A8F87020ADF80000ADF8025002949D
:100E0000ADF80C400121304604F014F900213046C1
:100E100004F0DAF86946304604F016F969463046BF
:100E200004F03EF96946304604F076F969463046EA
:100E300004F0ACF99CE730B5012187B0080403F059
:100E4000A7FB0121084603F07BFB00244FF6FF704F
:100E5000CF4DADF800400190ADF80840ADF802402C
:100E60006946284604F06EF80420ADF80C00C8204E
:100E7000ADF814000120ADF81000ADF80E4003A944
:100E8000284604F019FBC34C00231A4603212046D0
:100E900004F07BFC0121204604F0FDFB01221146F9
:100EA000204604F0D8FB0121284604F0C3F80021B5
:100EB000204604F089F807B030BD2DE9F047012144
:100EC0008AB0084603F05AFB0121022003F056FBCA
:100ED0000121032003F034FBDFF8BC9201220F2133
:100EE000484603F0E8F9DFF8B482012203214046C6
:100EF00003F0E1F902220421404603F0DCF902226A
:100F00000521404603F0D7F902268DF80460032737
:100F100038208DF80570002400908DF806400125DA
:100F20008DF807506946404603F03CF98DF804609F
:100F3000E8038DF8057000908DF806408DF8075095
:100F40006946484603F02EF94FF6FF70ADF80C40A5
:100F500004904FF08049ADF81440ADF80E4003A95D
:100F6000484603F0EFFFDFF838A203A9504603F02C
:100F7000E9FF4FF004081420ADF81880ADF8200008
:100F8000ADF81A60ADF81C5006A9484604F094FA72
:100F900006A9504604F090FA02231A460321484657
:100FA00004F0F3FB02231A460321504604F0EDFB44
:100FB0000121484604F06FFB0121504604F06BFB11
:100FC00001221146484604F046FB012211465046D4
:100FD00004F041FB0121484604F02CF80121504661
:100FE00004F028F80021484603F0EEFF00215046A7
:100FF00003F0EAFF780203F01DF81D208DF80800C9
:101000008DF809708DF80A408DF80B5002A803F096
:1010100016F81C208DF808008DF809808DF80A401C
:101020008DF80B5002A803F00AF80AB0BDE8F0876B
:1010300070B501218AB0084603F0AAFA01211020F8
:1010400003F07EFA4FF42060009002208DF8040037
:1010500003208DF805000024524E8DF8064001252E
:101060008DF807506946304603F09CF801220921AB
:10107000304603F020F901220B21304603F01BF922
:101080004FF6FF70424EADF808400390ADF81040A7
:10109000ADF80A4002A9304603F054FF0420ADF831
:1010A00014000A20ADF81C00ADF81640ADF8185039
:1010B00005A9304604F000FA00231A460321304601
:1010C00004F063FB0121304604F0E5FA01221146E9
:1010D000304604F0C0FA0121304604F0DCFA012267
:1010E0001146304604F0B7FA0121304603F0A2FF62
:1010F0000021304603F068FF4FF4C06002F09AFF11
:1011000019208DF820008DF821508DF822408DF89F
:10111000235008A802F093FF2AE6F0B59BB0012106
:10112000214803F00DFA01210D02284603F030FAA0
:101130001E480024CDE900401D4802A9082681E888
:101140005100A800CDE90540400007908000CDE99E
:1011500008050AA90001012581E83100154F0D9409
:10116000694638460E9403F0E3FC0121384603F04B
:1011700018FD3C20199003208DF868008DF86B4015
:1011800019A90D481AE00000000C024000080040B8
:101190000000014000400140000002400004024005
:1011A0000004004000100240050040004C200140B7
:1011B000C4020020106402400008024002F0F2FF66
:1011C0004FF44030CDE915404FF47060CDE9174041
:1011D00015A803F0B2FA28060F908DF840508DF84C
:1011E00041501194129413948DF850600FA9FE4C45
:1011F000204603F077FA042301220221204603F05F
:10120000E6FA042302220321204603F0E0FA042335
:1012100003221946204603F0DAFA04231A46052170
:10122000204603F0D4FA042305220C21204603F0C3
:10123000CEFA042306220D21204603F0C8FA042327
:1012400007220E21204603F0C2FA042308220F21B0
:10125000204603F0BCFA0121204603F035FB0121B2
:10126000204603F027FB0121204603F07DFA2046AB
:1012700003F0E7FA1BB0F0BD08B54FF4E06002F0F0
:10128000D9FE25208DF8000000208DF801008DF892
:10129000020001208DF80300684602F0D0FE08BD70
:1012A00070B5054696B00121102003F071F90121B7
:1012B000084603F045F90121880503F041F94FF490
:1012C000C060139002208DF8500000248DF8524029
:1012D0008DF85340C54E8DF8510013A9304602F0E9
:1012E00061FF07220921304602F0E5FF07220A21AB
:1012F000304602F0E0FF0F95ADF844400C20BC4DA5
:10130000ADF84040ADF84600ADF84240ADF8484079
:101310000FA9284604F0AFFA0121284604F01CFB6F
:101320004FF4A06002F086FE3A208DF854008DF84C
:1013300055408DF8564001208DF8570015A802F051
:101340007EFEAC4E304603F06BFB4FF00060009029
:10135000A948CDE902040A200490281D0190001537
:10136000CDE905408010CDE9084040020A900420F4
:101370000B9007940320CDE90C04694630460E9487
:1013800003F0D6FB01224021284604F07CFB012219
:101390001021304603F07AFC0121304603F001FCB5
:1013A00016B070BDF0B50646012197B0480503F0B0
:1013B000C7F801214D04284603F0E0F80121082078
:1013C00003F0BEF86020139002208DF85000002436
:1013D0008DF852408DF85340884F8DF8510013A975
:1013E000384602F0DFFE07220521384602F063FF8F
:1013F00007220621384602F05EFF0F96ADF8444002
:101400000C207F4EADF84040ADF84600ADF84240AC
:10141000ADF848400FA9304604F02DFA01213046BE
:1014200004F09AFA4FF4A06002F004FE11208DF847
:1014300054008DF855408DF8564001208DF8570026
:1014400015A802F0FCFD6F4F384603F0E9FAA80238
:101450000090402003906C4802903C200490301D86
:1014600001900015CDE905408010CDE90840042029
:10147000CDE90A5007940320CDE90C0469463846AB
:101480000E9403F055FB01228021304604F0FBFA54
:1014900001228021304604F0F6FA0122102138465C
:1014A00003F0F4FB0121384603F07BFB17B0F0BDDD
:1014B00070B50546012196B0880403F05FF801215C
:1014C000082003F03DF80121480503F039F84FF4F6
:1014D0004070139002208DF8500000248DF8524087
:1014E0008DF85340454E8DF8510013A9304602F057
:1014F00059FE07220821304602F0DDFE07220921AD
:10150000304602F0D8FE0F95404EADF84040ADF8A1
:1015100044400C25ADF84240ADF84840ADF8465087
:101520000FA9304604F0A7F90121304604F014FA5F
:101530004FF4A06002F07EFD8DF854508DF85540B8
:101540008DF8564001208DF8570015A802F077FD60
:101550002C4D783D284603F063FA4FF00060009070
:10156000254869461E30CDE9020408200490301D4C
:1015700001900015CDE905408010CDE908404002FA
:101580000A9004200B9007940320CDE90C04284610
:101590000E9403F0CDFA01224021304604F073FA94
:1015A00001224021304604F06EFA01221021284623
:1015B00003F06CFB0121284603F0F3FAF0E6F0B5E6
:1015C0000646012197B0C80402F0D8FF0121084661
:1015D00002F0B6FF0121480502F0B2FF0325022008
:1015E00013958DF8500013E00020014000000240E8
:1015F0000010014040640240D4020020000C024070
:1016000000440040A0600240F40000200048004078
:1016100000248DF852408DF85340FA4F8DF8510058
:1016200013A9384602F0BEFD08220021384602F018
:1016300042FE08220121384602F03DFE0F96ADF829
:1016400044400C20F04EADF84040ADF84600ADF8F7
:101650004240ADF848400FA9304604F00CF9012192
:10166000304604F079F94FF4A06002F0E3FC0D205D
:101670008DF854008DF855408DF8564001208DF8B6
:10168000570015A802F0DBFCE04F384603F0C8F91C
:1016900078050090DE48CDE9020408200490301D52
:1016A00001900015CDE905408010CDE908404002C9
:1016B00007940A900420CDE90C540B9069463846F3
:1016C0000E9403F035FA01224021304604F0DBF994
:1016D00001224021304604F0D6F90122102138467B
:1016E00003F0D4FA0121384603F05BFADEE62DE977
:1016F000F0418046012196B0480502F021FF01210A
:10170000080502F03BFF01210C2002F019FF022521
:101710008DF8405000248DF84240BE4F04268DF8CD
:1017200043400F968DF841500FA9384602F03AFD1C
:101730008DF840508DF842408DF84340E8028DF816
:101740004150B54D0F900FA9284602F02BFD0822FD
:101750000221384602F0AFFD08220C21284602F093
:10176000AAFD4FF4A06002F065FC2F208DF8540014
:1017700005208DF855008DF8560001208DF8570092
:1017800015A802F05CFCADF84C400C20A34DADF860
:101790004840ADF84E00CDF84480ADF84A40ADF871
:1017A000504011A9284604F066F80121284604F0AB
:1017B000D3F8964F7837384603F032F97006009028
:1017C000402003909248694651380290312004909D
:1017D000281D01900015CDE905408010CDE9084095
:1017E0004002CDE90A0607940320CDE90C043846EF
:1017F0000E9403F09DF901228021284604F043F95C
:1018000001221021384603F041FA0121384603F045
:10181000C8F916B0BDE8F08130B585B001210820C7
:1018200002F08EFE0121880302F0B2FE00240C209B
:101830008DF81040012503908DF8135003A97548C9
:1018400002F0B0FC0221032004F087F9042000908C
:101850008DF8044010208DF805008DF8065068467C
:1018600003F07CFA08208DF808008DF809408DF807
:101870000A408DF80B5002A802F0E1FB05B030BD24
:1018800010B5012810D0032819D0042822D005282B
:1018900009D1624C204604F085F84021204604F02E
:1018A00012F90028F9D010BD5D4C204604F07AF8FA
:1018B0004021204604F007F90028F9D010BD594C0A
:1018C000204604F06FF84021204604F0FCF8002880
:1018D000F9D010BD4C4C204604F064F8402120465D
:1018E00004F0F1F80028F9D010BD4F4900204862FB
:1018F0004E49C8604FF08042506208614C4A106007
:101900004861704770B5494D0020687104466121F7
:101910000120FFF7B5FF3220FFF7AAF8641C022C64
:10192000F5D3012068717A20287170BD10B561214E
:101930000120FFF7A5FFBDE810400A20FFF798B887
:1019400070B53A4D0020E871044661210320FFF78D
:1019500097FF3220FFF78CF8641C022CF5D301208E
:10196000E8717A20A87170BD2DE9F14795B000208B
:101970001490304A8DF800008DF82800159B264CF5
:101980002D492A48961597144FF400454FF4806A64
:101990004FF40068122B7BD2DFE803F009282E7B7E
:1019A00081878C9094989CA0A4AAAAAAADFD02213C
:1019B000104602F05DFC60B101222946204602F08B
:1019C0006FFC2946204602F05DFC014600221BA068
:1019D0008CE000222946204602F062FC294620467F
:1019E00002F050FC014600221BA07FE00F480122BC
:1019F0008030416A20A079E0FFF720F801460222FA
:101A00001FA073E000000240004C00404060024014
:101A1000E3020020000C0240000802400050004099
:101A2000001001400048004000000140000000207C
:101A3000240400400004024030010020524F424F75
:101A4000542044414E4720434841592053414E20A1
:101A5000444F3A2020200000524F424F542044412E
:101A60004E4720434841592053414E2058414E484B
:101A70003A20202000000000494D553A00000000A7
:101A8000454E434F4445525F544F4E473A00000085
:101A90002EE0FEF7ABFF01460322F3A026E0FEF79F
:101AA0007BFF01460422F1A020E0F148C17C052221
:101AB000F0A01BE009780622F1A017E009790722BF
:101AC000F2A013E0C1690822F3A00FE0C178092257
:101AD000F4A00BE0016A0A22F5A007E081780B224E
:101AE000F7A003E0FB480C224169FBA0FEF788FD4C
:101AF00016B0BDE8F087DFF8F8932021484602F0E1
:101B0000B7FB0246FBA1684605F088FE69460AA8B5
:101B100005F084FB8021484602F0AAFB0246F5A1AD
:101B2000684605F07BFE69460AA805F077FB31465A
:101B3000484602F09DFB0246EEA1684605F06EFEA7
:101B400069460AA805F06AFB55465146484602F028
:101B50008FFB0246E7A1684605F060FE69460AA8C9
:101B600005F05CFB3946484602F082FB0246E1A1E3
:101B7000684605F053FE69460AA805F04FFB802130
:101B8000204602F075FB0246DAA1684605F046FEE3
:101B900069460AA800E047E005F040FB40212046E6
:101BA00002F066FB0246D3A1684605F037FE69469F
:101BB0000AA805F033FB2946204602F059FB0246ED
:101BC000CCA1684605F02AFE69460AA805F026FB66
:101BD0004146204602F04CFB0246C6A1684605F08D
:101BE0001DFE69460AA805F019FBC34C01212046D9
:101BF00002F03EFB0246BFA1684605F00FFE6946B3
:101C00000AA805F00BFB0221204602F031FB024638
:101C1000B8A1684605F002FE69460AA805F0FEFA7A
:101C200010220AA9B5A0D8E029469146104602F034
:101C300029FB0246AFA1684605F0F0FD69460AA8F7
:101C400005F0ECFA4FF48041484602F01BFB0246D7
:101C5000A8A1684605F0E2FD69460AA805F0DEFA8B
:101C60004FF40051484602F00DFB0246A1A1684620
:101C700005F0D4FD69460AA805F0D0FA3946484671
:101C800002F000FB02469BA1684605F0C7FD6946CD
:101C90000AA805F0C3FA45464146484602F0F2FA62
:101CA000024694A1684605F0B9FD69460AA805F008
:101CB000B5FA5146484602F0E5FA02468DA168465B
:101CC00005F0ACFD69460AA805F0A8FA4FF40071CA
:101CD000204602F0D7FA024686A1684605F09EFD2E
:101CE00069460AA805F09AFA3146204602F0CAFA77
:101CF000024680A1684605F091FD69460AA805F0F4
:101D00008DFA7F4C3146204602F0BCFA024679A19A
:101D1000684605F083FD69460AA805F07FFA0121AF
:101D2000204602F0AFFA024672A1684605F076FD41
:101D300069460AA805F072FA0221204602F0A2FACA
:101D400002466CA1684605F069FD69460AA805F0DF
:101D500065FA0121484602F095FA024665A16846F7
:101D600005F05CFD69460AA805F058FA29462046A8
:101D700002F088FA02465FA1684605F04FFD694609
:101D80000AA805F04BFA3946204602F07BFA0246D3
:101D900058A1684605F042FD69460AA805F03EFADA
:101DA0008021484602F06EFA024652A1684605F0CC
:101DB00035FD69460AA805F031FA4021484602F08F
:101DC00061FA02464BA1684605F028FD69460AA85B
:101DD00005F024FA11220AA94AA0FEF770FC87E652
:101DE0000121494802F0DDBE11B421487438816EEA
:101DF000009A914201DD002101E0816E491C81665B
:101E0000806E18BCB0E52DE9F04700253A4E074634
:101E100001244FF400594FF480484FF4805A0022B7
:101E20004146304602F03CFA1020FEF715FE2742EC
:101E300001D0012200E000224946304602F030FA8B
:101E400001224146304602F02BFA1020FEF704FE34
:101E50005146304602F00CFA00B12543600010F004
:101E6000FF04DCD1284644E646523A00464C3A008C
:101E7000F40000204D6F725F53696C6F000000002A
:101E800047414D45205041443A0000004C4A4F59CB
:101E90005F4C523A0000000073696C6F5F736F3AD9
:101EA00000000000656E636F6465723A0000000018
:101EB00073696C6F5F7675615F636861793A200062
:101EC0006269656E5F6E68616E5F626F6E673A2011
:101ED00000000000E0010020626F6E675F74726FA7
:101EE0006E675F73696C6F5B355D3A2000000000C0
:101EF0000010024025640000000C0240493A000036
:101F0000000002404F3A0000A060024070B54FF45C
:101F1000004500222946FE4E304602F0C1F910204D
:101F2000FEF79AFD0120FFF76EFF4220FFF76BFFDF
:101F3000FF20FFF768FFFF20FFF765FFF54C2070DB
:101F4000FF20FFF760FF6070FF20FFF75CFFA070CD
:101F5000FF20FFF758FFE070FF20FFF754FF2071CC
:101F6000FF20FFF750FF607129463046BDE8704002
:101F7000012202F095B970B5E54E4FF400450022FC
:101F80002946304602F08CF91020FEF765FD01204D
:101F9000FFF739FF4220FFF736FF044601222946AA
:101FA000304602F07DF91020FEF756FD204670BD48
:101FB000D94A00211163C279D6490D2A09D0FF20E0
:101FC000087048708870C870087148718871002066
:101FD000704702780A7042784A7082788A70C278B4
:101FE000CA7002790A7142794A7180798871012038
:101FF0007047C848C8490278FF2A05D14278FF2AAD
:1020000002D18278FF2A09D00A6B531C0B63C82ABD
:1020100003DDFF210170417081707047002008636B
:102020007047BC4880797047BA480078400601D4B0
:102030000120704700207047B6480078C00601D4E0
:10204000012070470020704701B59DF80000052869
:1020500001D2002008BD9DF8000008BDF0B5AE4ECD
:1020600000271D4606F1F4044FF0010C002806D0AD
:1020700009DDC0B2FFF7E8FFE070A7700AE096F84C
:102080005C00E07006E04042C0B2FFF7DDFFE070A8
:1020900084F802C0002907D00ADDC8B2FFF7D4FFD8
:1020A000E07184F806C009E096F85C00E07105E094
:1020B0004842C0B2FFF7C8FFE071A771002A06D0FE
:1020C00009DDD0B2FFF7C0FFE072A7720AE096F810
:1020D0005C00E07206E05042C0B2FFF7B5FFE0726C
:1020E00084F80AC0002D07D00ADDE8B2FFF7ACFF84
:1020F000E07384F80EC0F0BD96F85C00E073F0BDAC
:102100006842C0B2FFF7A0FFE073A773F0BD81493A
:102110003C39C870C871C872C87370477E490120C5
:102120008031086470477C4880304068A0F5EA41FF
:10213000303901D00120704700207047FFF7E2BB23
:102140007548B0F90800404270477348B5EEC00AC0
:10215000D0ED0E0AF1EE10FA02D230EE600A01E084
:1021600030EE200ABDEEC00A10EE100A704710B51E
:10217000041E2DED068B68489FED68AB9FED699BB3
:10218000006F10D014DA05F0F0F941EC180B20467E
:1021900005F0EBF953EC1A2B05F006F953EC192B6B
:1021A00005F0FCF813E09FED610ABDEC068B10BD55
:1021B00005F0DBF941EC180B204605F0D6F953EC9D
:1021C0001A2B05F0F1F853EC192B05F046F853ECF7
:1021D000182B05F05BF905F0ECF900EE100AE4E7C6
:1021E000B5EEC00AF1EE10FA01DAB1EE400A70471E
:1021F000002800DA40427047474991ED150AD1EDB9
:10220000161AF1EE400A80EEA11A00EE900AF8EEDE
:10221000E00A01EE200ABDEEC00A10EE100A704777
:10222000B0EE402A9FED420AB5EEC02AF1EE10FA58
:1022300001D2B1EE422AF5EEC00AF1EE10FA01D257
:10224000F1EE600AB5EEC01AF1EE10FA01D2B1EE6D
:10225000411AF5EEC01AF1EE10FA01D2F1EE611A50
:10226000B4EEC02AF1EE10FA01DDB0EE420AF4EE4F
:10227000C00AF1EE10FA01DDB0EE600AB4EEC01A49
:10228000F1EE10FA01DDB0EE410AF4EEC01AF1EE03
:1022900010FA01DDB0EE610A70471F48006F704709
:1022A0001D488030C069704770B51B4C1A4D803492
:1022B0002DED048BB0EE408A6068A0F5EA4130391C
:1022C00051D02269616A95ED111A891A401A00EEFF
:1022D000100AB8EEC00AC0EE010A95ED120A30EEFF
:1022E000800AD5ED190A60EE208AB0EE680A05F082
:1022F00065FBB0EE009A20EE090A84ED0F0AB0EEFD
:10230000680A05F0B3FA60EE090AC4ED0E0A11E09E
:10231000000C024030010020000000203333333332
:102320003333D33F9A9999999999B93F00000000A6
:102330006F12833A94ED0F1A94ED060A31EE001AEB
:1023400030EEC00A84ED0C1A84ED0D0AB5EEC08A99
:10235000F1EE10FA6ED0E86E05286BD2DFE800F0DF
:102360000E1F324156001FED0F0A84ED0F0A84ED57
:102370000E0A84ED0D0A84ED0C0AE7E794ED0C0AD1
:1023800030EE080A84ED0C0A94ED0D0A30EE480A8E
:1023900084ED0D0A94ED0E0A30EE080A1EE094ED6D
:1023A0000D0A30EE480A84ED0D0A94ED0E0A30EE67
:1023B000080A84ED0E0A94ED0F0AD5ED0F0A08EE17
:1023C000600A20E094ED0C0A30EE080A84ED0C0A55
:1023D00094ED0E0AD5ED0F0A08EE200A84ED0E0AE0
:1023E0000DE094ED0C0A30EE080A84ED0C0A94ED31
:1023F0000D0AD5ED0F0A08EE600A84ED0D0A94ED82
:102400000F0A30EE480A84ED0F0A13E094ED0C0A2F
:10241000D5ED0F0A08EE200A84ED0C0A94ED0D0AA2
:1024200030EE480A84ED0D0A94ED0E0A30EE080AEB
:1024300084ED0E0A303494EC040AFFF7F1FED5ED7A
:102440000D0AF8EEE00A80EE801ABDEEC10A10EE29
:10245000100AA867296F814200DD28670120A8665D
:10246000BDEC048B70BDFE4A002100285167D06787
:1024700011D11FED520A02F18000116780ED060AAA
:1024800047F230534360836080ED050AD166C16036
:10249000C161016408E77047F148F149803090ED6F
:1024A000050AB5EEC00AF1EE10FA04D1CA6E12B9EF
:1024B000C268002A09D01FED630A002280ED050AD8
:1024C000CA66C260416A0161EEE67047E448C0ED49
:1024D000150A80ED160A7047E14A30B48032E04BAD
:1024E0005468844209D15C6F8C4206D1D2ED060A51
:1024F000F4EE400AF1EE10FA0FD05967196F09B9DE
:1025000005211967516A116182ED060A50600020A9
:10251000106092ED050A30BCC6E630BC7047F0B4DE
:10252000CF4BCF4C8033DD68854209D1D3ED050A0E
:10253000F4EE400AF1EE10FA02D1E56E8D4225D09C
:102540005E6847F23055AE4218D1626705222267B5
:10255000A84213DAB5EEC00A0122F1EE10FADA61F0
:1025600002DD5A6A824207DCB5EEC00AF1EE10FACB
:1025700004D25A6A824201DAB1EE400AD860E166BA
:1025800083ED050A00201860F0BC8DE6F0BC7047B2
:102590000A46014647F23050C1E71FED9C0A9BE70F
:1025A00070B5AF4C05462DED028B8034F0EE608A9D
:1025B000D4ED020AB0EE418AF8EEE00AF4EE400AE9
:1025C000F1EE10FA0CD1A648406FA84208D1D4ED24
:1025D000030AF8EEE00AF4EE680AF1EE10FA4BD0C6
:1025E000FDEEC00AC4ED020AD4ED090AF8EEE00AD5
:1025F00030EE600ABDEEC00A10EE100A1FEDB50AFB
:102600002946FFF769FF94ED090AF8EEC00A78EE53
:10261000E00AFDEEE00A10EE903A002B00DA5B4291
:10262000B8EEC00A642B1ADDF4EEC08AF1EE10FA9F
:1026300001DCB1EE488A18EE100A04F0A7FF00BFD3
:1026400004F0B7FFFDEEE80ABDEC028B2A46BDE8B8
:10265000704000EE100A002110EE900A5FE738EE9D
:10266000C00A10EE100A04F091FF9FED7E1B53ECA0
:10267000112B04F099FEE3E7BDEC028B70BD7849A5
:1026800010B58031C869012827DD4A6AC868801AF8
:10269000FFF7AEFD062809DAC869421CCA61B0F529
:1026A000FA7F1ADDBDE810400020DCE66C4A052008
:1026B000CB695067FA2B106701DDFB20C861CA683F
:1026C000486A904202DDBFEE000A01E0B7EE000A60
:1026D00081ED050ABDE81040E6E510BD70B5604922
:1026E000803191ED060AB5EEC00AF1EE10FA72D112
:1026F0005B4A136F002B6ED0C86847F23054A0427B
:1027000069DA91ED050AB5EEC00AF1EE10FA7CD057
:102710004D68A54260D1B5EEC00A1346F1EE10FA3D
:102720001B6D03DD4D6AC41AAC4208DBB5EEC00A6E
:10273000F1EE10FA17D24C6A0344A34213DDCB69C1
:10274000032B48DA4B6AC01AFFF752FD0A28C86803
:102750000ADA0862002010679FED440A506781ED95
:10276000050A0220C86178E092ED1C0AD1ED050A45
:102770004B6AB8EEC00A984260EE200A92ED140A45
:10278000B8EEC01A80EE810A0FDDFFF729FDC86898
:10279000496A401AFFF72CFD00EE900AB8EEE01AE5
:1027A000D2ED100A40EE010A0EE0FFF719FDC868ED
:1027B000496A401AFFF71CFD00EE900AB8EEE01AD5
:1027C000D2ED100A50EE410A92ED1C0AB8EEC01A82
:1027D00080EE810A41E04DE0214AB5EEC00AD2ED1B
:1027E000130AF1EE10FA18DD01EE100AF8EEC11A24
:1027F00001EE103AB8EEC11A41EE401AB8EEE01AF6
:1028000071EEC11A91ED091A00E031E0B8EEC11A7B
:10281000F4EEC11AF1EE10FA1BD3B5EEC00AF1EED8
:1028200010FA1AD201EE100AF8EEE00AF8EEC11A18
:1028300001EE103AB8EEC11A41EE401A31EEA01A7C
:10284000D1ED090AF8EEE00AB4EEE01AF1EE10FA62
:1028500003DD496A401AFFF78AFCBDE8704023E5B2
:10286000000000207B14AE47E17A743F00000000B6
:102870000869EEE770BDF849A1F18000CA69022A33
:102880000CDA00231FED070A47F2305281ED060AE9
:1028900081ED050AC3664A60C1E902230B685B1C2F
:1028A0000B60026EEC4880389342C06D01DB0A6019
:1028B000096C2CE4E84A13685B1C1360834206DD54
:1028C000A2F18000036F1944016700201060704777
:1028D00070B5FFF735FCE04C6062FFF7D0FEA4F165
:1028E00080054FF0FF316A6F286F002A0BDD9042A0
:1028F0000ED006DAA96F88420ADAFFF77DFC0221C2
:1029000004E0E06A02E000283CDDE86FFFF7D2FF58
:10291000D4E90901814203D0FFF7E0FE606AA062BA
:10292000A86E002831D095ED1C0AD4ED0F0AB8EE40
:10293000C00A20EE200AFFF708FC95ED1C0AD4ED32
:102940000E0A0346B8EEC00A20EE200AFFF7FDFB90
:1029500095ED1C0AD4ED0D0A0246B8EEC00A20EE31
:10296000200AFFF7F2FB95ED1C0AD4ED0C0A014694
:10297000B8EEC00A20EE200AFFF7E7FBBDE8704082
:10298000FFF76CBBBDE8704075E770BD2DE9F05FE7
:10299000B149B0318878401FF52801D8012500E001
:1029A00000250879401FF52801D8012700E00027FD
:1029B000A94A087802F1B002C30652780DD5430641
:1029C0000BD5830609D5030607D535B12FB193067C
:1029D00003D5BDE8F05F022045E5530702D4322657
:1029E000142403E0D20717D01E260A248B46DFF8F2
:1029F0006882C10647F23059A8F1800A4FEA406167
:102A00000DD400294DDA81064FEA006024D5002854
:102A1000314627DA00202EE00A260724E6E70029BF
:102A20004FEA806109DB00294FEA00601CDA0028C8
:102A300031461FDA4FF4E1601DE000294FEA0060E3
:102A400005DB00282DDA31464FF4617013E00028D1
:102A50001DDB314681480EE0002822DA31464FF472
:102A6000E17008E07E4806E000281ADA314640F2BC
:102A7000465000E07B48FFF790FD9BF80000C10640
:102A80000FD541060DD581060BD5000609D54DB9E8
:102A90005FB1D8F80410494507D00520FFF7E3FCE3
:102AA00003E015B1FFF7F8FC31E09BF802100122BA
:102AB0005846052912D24378DB070FD0D8F8041006
:102AC000494504D031460020BFEE080A14E08AF8D8
:102AD0000020234662421046194616E0FA291CD906
:102AE0009BF80100C00718D0D8F80410494506D05B
:102AF00031460020B7EE080AFFF74AFD07E08AF8E2
:102B000000206342224619461046FFF7A7FA00212B
:102B10008AF80010BDE8F05FBEE402231A461946A9
:102B20001846F2E730B54C484F4D1424836D591CBC
:102B300081650146CA6D0021142B03D2AB891A446A
:102B4000C26504E0B2FBF4F28165C266C165036E42
:102B50005A1C0266404A142B526E02D2E989114473
:102B600003E0B2FBF4F202670166416630BD3A4809
:102B70004FF48041B03042783C48130601D4012222
:102B800002E0920602D4002201F08ABB704732486C
:102B90004FF0FE01B0304278A0F13C00D30603D4E0
:102BA000C17401218174704753064FF0000202D4B2
:102BB000C17482747047C2747047274830B580383A
:102BC0003221816100F598704FF0000204784FF0D7
:102BD0000103E506A0F13C0008D4C1708270C17108
:102BE0008371C1728272C173837330BD640608D46D
:102BF000C1708370C1718271C1728372C17382733B
:102C000030BD0221C171C170C172C17330BD70B5D8
:102C100011493220803901F5987488616078144E2A
:102C2000C0064FF4807504D400222946304601F0D6
:102C300037FB6078400606D429463046BDE8704030
:102C4000012201F02DBB70BD10B5FEF76FFEBDE88F
:102C50001040FEF74ABE0000800000207CFCFFFF11
:102C60003EFEFFFFBAFAFFFFC4020020000402404C
:102C700000000240F8490128A1F180020AD0022890
:102C80000BD003280DD004280ED0052808D191F8C8
:102C9000440004E091F8540001E091F85000D07035
:102CA000704791F84C00FAE791F84800F7E72DE9F2
:102CB000F041E949E9488039E74CC9699625E84E71
:102CC00050F82120521C743440F82120012701E0E3
:102CD000E574A7744021304601F0CAFA0128F7D004
:102CE0004FF4FA773846FDF7C3FE00224FF48041D7
:102CF000DC4801F0D5FA3846FDF7BAFEE574002746
:102D0000A7744FF4805801E0E574A774414630463B
:102D100001F0AEFA0128F7D0BDE8F08110B5FEF75A
:102D2000E4FD0221CF4801F0A3FA9FEDCF1ACC4C6D
:102D30000128FAEE040A4FF01E000FD09FEDCB0AD7
:102D4000FFF72EFC4FF40051204601F091FAFEF7F8
:102D5000CCFDBDE810400220FFF785BB9FEDC40A03
:102D6000FFF71EFC1021204601F082FABDE810405A
:102D7000FEF7BBBD2DE9F041B74D2DED048B803D35
:102D8000E869FFF777FFB44C0020A870616A47F24A
:102D9000305000294FF023024FF000010BDAB6EE5D
:102DA000000AFFF7BCFB02E0FFF746F970B9606A62
:102DB0000028F9DD0AE0BEEE000AFFF7B0FB02E0F2
:102DC000FFF73AF910B9606A0028F9DA9FEDA68A90
:102DD0006420F0EE480AB0EE601A9FEDA60AFFF7F5
:102DE000DFFB00BFFDF72AFE6428FBDB02219D48C4
:102DF00001F03EFA4FF4FA789FED9F9ADFED9F8A3B
:102E0000954E974CB0360128B6EE001AF9EE080A36
:102E10004FF0140068D0DFED9A9AB0EE690AFFF720
:102E2000BFFB4FF400573946204601F021FA012834
:102E3000F9D00220FFF717FB4046FDF719FEB6EE6A
:102E4000001AF9EE080A0520B0EE690AFFF7A8FBA0
:102E50003946204601F00CFA0128F9D00220FFF78C
:102E600002FBFFF7F1FEB6EE001AF9EE080A0F209A
:102E70009FED840AFFF794FB2021204601F0F8F92A
:102E80000128F9D03220FDF7F3FDB6EE001AF9EE75
:102E9000080A0520B0EE490AFFF782FB20212046F0
:102EA00001F0E6F90128F9D00220FFF7DCFAFFF77C
:102EB000CBFEB0EE481AF9EE080A1920B0EE680A07
:102EC000FFF76EFBFDF7BAFDE9788842FADB0220D6
:102ED000FFF7C9FAB0EE481AF9EE080A0520B0EE7D
:102EE000680AFFF75DFB76E09FED678AB0EE480A5F
:102EF000FFF756FB1021204601F0BAF90128F9D05E
:102F00000220FFF7B0FA4046FDF7B2FDB6EE001A18
:102F1000F9EE080A0520B0EE480AFFF741FB102140
:102F2000204601F0A5F90128F9D00220FFF79BFA0D
:102F3000FFF78AFEB6EE001AF9EE080A0F209FEDA1
:102F4000530AFFF72DFB2021204601F091F90128BB
:102F5000F9D03220FDF78CFDB6EE001AF9EE080A22
:102F60000520B0EE490AFFF71BFB2021204601F0A7
:102F70007FF90128F9D00220FFF775FAFFF764FE08
:102F80009FED438AF9EE080A1920B0EE481A9FED2A
:102F9000410AFFF705FB00BFFDF750FDE9788842C5
:102FA000FADB0220FFF75FFAB0EE481AF9EE080AE2
:102FB0000520B0EE680AFFF7F3FA02E03078000768
:102FC0000FD50821204601F053F90128F6D008E07A
:102FD0003078000705D50821204601F049F901287D
:102FE000F6D0BDEC048B0220BDE8F041FFF73BBA00
:102FF0002DE9F04102212DED028B1A4801F038F93C
:10300000164D154C00260127183D803C01289FEDE8
:10301000168AE0690AD0FFF72DFE2868DFF84080A5
:1030200001287CD0E06901287AD0B1E0FFF722FEC8
:10303000286801283FD101210020FDF7A0FCC0B283
:103040006070E169012927D0052927D005EB8101AE
:103050004A68032A24D024E080000020F8010020E0
:10306000001002400004024000000000000016C4EE
:103070000000164400C0A8440000E14400007A4467
:10308000000061C400C0DAC40000614400C0DA443A
:103090009A99993E00007AC4677016E066701DE048
:1030A00020B151F8041C032902D004E0677002E04B
:1030B000012800D16670E069002801DD617869B1FE
:1030C000062829DA6078012826D1E06955F8200021
:1030D000012826D0032824D0E06934E0E06955F8BF
:1030E0002000012803D0032801D0E06911E0F0EEB0
:1030F000480A1420B0EE601A1FED1F0AFFF750FABD
:10310000FDF79CFCE17814318842F9DBE069401E50
:10311000E061012800D16770BDEC028BFCE516E090
:1031200027E0F0EE480A1420B0EE601A1FED2A0ADC
:10313000FFF736FAFDF782FCE17814398842F9DBB3
:10314000E069401EE0610528E6D16670E4E70121F0
:103150000020FDF714FCC1B26170E069012807D0BE
:10316000052808D005EB80004268032A05D006E058
:103170006670667017E067701EE0012904D050F891
:10318000040C032802D003E0667001E001B9677007
:10319000E069002804DD617801290DD00628BBDA3A
:1031A00060780028B8D1E06955F8200001283CD0AB
:1031B00003283AD0E0695FE055F82010032903D1D5
:1031C000401EE061FFF756FDE06955F82000012838
:1031D00003D0032801D0E06924E0BEEE001AFAEE25
:1031E000040A14209FEDFD0AFFF7DAF9FDF726FC2B
:1031F000E17814318842F9DBBEEE001AFAEE040AD7
:1032000005209FEDF70AFFF7CBF945460821284630
:1032100001F02EF80128F9D00220FFF724F9E06927
:10322000401EE061012890D076E7B0EE481AF1EE3A
:10323000080A14205FED698AB0EE680AFFF7B0F95A
:10324000FDF7FCFBE17814398842F9DBB0EE481A4F
:10325000F1EE080A0520B0EE680AFFF7A1F945462D
:103260000821284601F004F80128F9D00220FFF7D0
:10327000FAF8E069401CE06105283FF44CAF4BE7E9
:103280002DE9F05FD74D0126D74C686901281DD183
:10329000686801281AD1A868012817D1E8680128B0
:1032A00014D12869012811D12E6005F11801A661F9
:1032B000A06951F820202AB155F82020032A01D016
:1032C000E06103E0401CA0610528F1DDDFF81C93FC
:1032D0004FF400473946484600F0CAFF01280BD09A
:1032E000BA463946484600F0C3FFDFF804B300276A
:1032F0004FF0030810B10CE0A67021E00121584600
:1033000000F0B6FF28B94FF48041484600F0B0FF06
:1033100028B15146484600F0ABFF10B106E0A77057
:1033200014E00121584600F0A3FF70B15146484611
:1033300000F09EFF002806D1286801280AD0A77057
:10334000E06945F82060BDE8F09FA670E16945F8A6
:103350002180F8E7E069022145F820106062A6703C
:10336000F1E710B5FFF78CFF9F488078012802D164
:10337000BDE810409BE410BD70B5FFF781FF4FF42E
:103380007A74994D07E000BFFFF732FE2046FDF743
:103390006FFBFFF775FFA8780028F5D070BD10B55A
:1033A000FEF7A3FA904C0120E061FFF7E3FCFFF782
:1033B000E3FFE069206210BD10B5FEF796FA8A4C73
:1033C0000220E061FFF7D6FCFFF7D6FFE06920623C
:1033D00010BD10B5FEF789FA834C0320E061FFF7BA
:1033E000C9FCFFF7C9FFE069206210BD10B5FEF708
:1033F0007CFA7D4C0420E061FFF7BCFCFFF7BCFFCA
:10340000E069206210BD10B5FEF76FFA764C05201A
:10341000E061FFF7AFFCFFF7AFFFE069206210BD8E
:103420002DE9F05F704C00202DED048B04F1800835
:103430004FF48049DFF8BCB16F4DDFF8C0A1A06246
:103440004FF4FA775FEDF48A1FEDF19A1FEDFA8AD7
:103450005FEDF59AE06202215E46584600F008FFF3
:10346000B0EE480A0128B0EE401AF0EE400A4FF0E4
:10347000140004D0FFF794F8B34656469DE0FFF7DA
:103480008FF8B346564629E0A06A012826D198ED68
:10349000090AF0EE480A0520B0EE601AB8EEC00A3C
:1034A000FFF77EF88021284600F0E2FE0128F9D0DF
:1034B0000220FEF7D8FFC820FDF7DAFA01224946BC
:1034C000584600F0EDFE3846FDF7D2FA4FF40061A1
:1034D000284600F0CDFE68B1FFF7E9FB0121304638
:1034E00000F0C6FE012805D10221304600F0C0FEE2
:1034F0000128C9D0A06A01286FD0FEF7F6F9F0EED6
:10350000480A3220B0EE601AB0EE680AFFF748F8B9
:10351000FDF794FA6428FBDBE16A032091FBF0F2EB
:1035200000FB1210F0EE480A0028B0EE601A4FF0CF
:1035300014000ED0B0EE490AFFF732F82B4E1021DE
:10354000304600F095FE0128F9D00220FEF78BFFEF
:1035500081E7B0EE690AFFF723F800BFFDF76EFAC6
:10356000FA28FBDB80E0A06A012826D198ED090A41
:10357000F0EE480A0520B0EE601AB8EEC00AFFF778
:103580000FF88021284600F073FE0128F9D00220B0
:10359000FEF769FFC820FDF76BFA0122494658463D
:1035A00000F07EFE3846FDF763FA4FF4806128464E
:1035B00000F05EFE68B1FFF77AFB0121304600F0B3
:1035C00057FE012805D10221304600F051FE0128A6
:1035D000C9D0A06A01284BD012E049E00000704435
:1035E00000808944E001002000000020001002401B
:1035F000000002400004024000080240000C0240AB
:10360000FEF773F9F0EE480A3220B0EE601AB0EE21
:10361000680AFEF7C5FF00BFFDF710FA6428FBDB60
:10362000E16A032091FBF0F200FB1210F0EE480A71
:103630000028B0EE601A4FF014000DD0B0EE690A09
:10364000FEF7AEFFFE4E00BF4FF40051304600F0D3
:103650000FFE0128F8D078E7B0EE490AFEF7A0FF88
:10366000FDF7ECF9FA28FBDBE06A401CE0626CE74E
:10367000BDEC048B6420BDE8F05FFDF7F9B970B5CF
:1036800002212DED028BEF4800F0F2FD9FEDEE8A56
:10369000DFEDEE8AEE4D47F2305401280BD0FFF7F4
:1036A000D3FAF0EE480A6420B0EE601AB0EE680A71
:1036B000FEF776FFB5E0FFF7C7FAF0EE480A6420A0
:1036C000B0EE601AB0EE680AFEF76AFF03E000BFD2
:1036D000FEF7B2FC18B9FDF7B1F95028F8DB02206B
:1036E000FEF7C1FEF0EE480A0A20B0EE601AB0EE16
:1036F000680AFEF755FF02E0FEF79EFC18B9FDF7D9
:103700009DF96428F8DB0220FEF7ADFEF0EE480AD2
:103710003720B0EE601A9FEDCF0AFEF741FF02E0BE
:10372000FEF78AFC18B9FDF789F9B928F8DB022001
:10373000FEF799FE6420FDF79BF9F0EE480A37206A
:10374000B0EE601A9FEDC40AFEF72AFF03E000BF47
:10375000FEF772FC18B9FDF771F9F228F8DB0220C8
:10376000FEF781FE6420FDF783F9FEF7BEF8F0EE68
:10377000480A5020B0EE601AB0EE680AFEF710FF5B
:1037800003E000BFFEF758FC18B9FDF757F93228DF
:10379000F8DB0220FEF767FE6420FDF769F9962248
:1037A0000021B6EE000A2046FEF7B9FE4FF461761E
:1037B00003E000BFFEF740FC10B9686AB042F9DBD5
:1037C0000220FEF750FE14220021BEEE000A204621
:1037D000FEF7A5FE03E000BFFEF72EFC10B9686AF5
:1037E000B042F9DC0220FEF73EFEFFF72DFAB0EE04
:1037F000480AF0EE680AB0EE401A2820FEF7D0FE24
:1038000014220021B6EE000A2046FEF788FE686A00
:103810004FF4E1718842FDDBA3E000BFFEF70CFC32
:1038200018B9FDF70BF95028F8DB0220FEF71BFE54
:10383000F0EE480A0A20B0EE601AB0EE680AFEF711
:10384000AFFE02E0FEF7F8FB18B9FDF7F7F86428C1
:10385000F8DB0220FEF707FEF0EE480A3720B0EE54
:10386000601A9FED7E0AFEF79BFE02E0FEF7E4FB86
:1038700018B9FDF7E3F8B928F8DB0220FEF7F3FDED
:103880006420FDF7F5F80220FEF7EDFDF0EE480AA2
:103890003720B0EE601A9FED720AFEF781FE02E05B
:1038A000FEF7CAFB18B9FDF7C9F8F228F8DB0220C9
:1038B000FEF7D9FD6420FDF7DBF8FEF716F8F0EE11
:1038C000480A5020B0EE601AB0EE680AFEF768FEB3
:1038D00003E000BFFEF7B0FB18B9FDF7AFF83228E0
:1038E000F8DB0220FEF7BFFD6420FDF7C1F8962249
:1038F0000021BEEE000A2046FEF711FE594E02E0FE
:10390000FEF79AFB10B9686AB042F9DC0220FEF7B4
:10391000AAFD14220021B6EE000A2046FEF7FFFDA4
:1039200003E000BFFEF788FB10B9686AB042F9DB1C
:103930000220FEF798FDFFF787F9B0EE480AF0EE97
:10394000680AB0EE401A2820FEF72AFE1422002151
:10395000BEEE000A2046FEF7E2FD4349686A88424F
:10396000FDDC0220FEF77FFDBDEC028B6420BDE88C
:103970007040FDF77DB810B5354C803C606A012879
:1039800001D1FFF70CFD606A022801D1FFF714FD99
:10399000606A032801D1FFF71CFD606A042801D189
:1039A000FFF724FD606A052802D1BDE810402AE532
:1039B00010BD27488038006A052808D0042807D0A1
:1039C000032806D0022805D0012804D11BE50DE507
:1039D000FFE4F1E4E3E47047FFF722FD1C4C803C78
:1039E000E069012808D0022809D003280AD0042859
:1039F0000BD005280CD00DE0FFF7D1FC0AE0FFF753
:103A0000DBFC07E0FFF7E5FC04E0FFF7EFFC01E07B
:103A1000FFF7F9FCFFF734FC07E000BFFFF730FCCD
:103A2000A078012827D0FFF7E3FAA0780028F5D086
:103A30000025A570FFF772F9FFF7F2FC606A15E048
:103A40000010024000040240000000000000E144B9
:103A50008000002000409CC4000061C400409C44E1
:103A6000000061447CFCFFFF3EFEFFFF30B1FFF72A
:103A700082FF65620DE0FFF71AF9D9E7FFF799FFBA
:103A800007E000BFFFF7FCFBA078012806D0FFF796
:103A9000AFFAA0780028F5D0A570CDE7FFF707F9B9
:103AA000FFF73CF9F5E7E54901202DED048BC861EE
:103AB0000221E34800F0DCFB5FED1C8AE14D9FED45
:103AC000E29A1FED1F8ADD4C47F230568034F0EE4B
:103AD000480A01284FF4FA77B0EE601A4FF00F0051
:103AE000B0EE680A15D0FEF75BFD2021284600F0F5
:103AF000BFFB0128F9D0FDF7F8FE5FED279AB0EE85
:103B0000481AF0EE490A3220B0EE690AFEF748FD85
:103B100083E0FEF745FD2021284600F0A9FB01289F
:103B2000F9D0FDF7E2FE5FED349AB0EE481AF0EE00
:103B3000490A3220B0EE690AFEF732FD03E000BF09
:103B4000FEF77AFA18B9FCF779FF5028F8DBB0EEE7
:103B5000481AF0EE490A1420B0EE690AFEF720FD7B
:103B600003E000BFFEF768FA18B9FCF767FF712899
:103B7000F8DB0220FEF777FCFDF7B7FEF0EE480A0F
:103B80005020B0EE601AB0EE680AFEF709FD02E0C0
:103B9000FEF752FA18B9FCF751FF4628F8DB642209
:103BA0000021B6EE000A35463046FEF7B8FC4FF469
:103BB000617602E0FEF740FA10B9606AB042F9DBC4
:103BC00014220021BEEE000A2846FEF7A8FC02E0FF
:103BD000FEF732FA10B9606AB042F9DC0220FEF753
:103BE00042FC3846FCF744FFFFF72EF8B0EE480AD7
:103BF0002820B0EE401AF0EE400AFEF7D1FC03E0B8
:103C0000FEF71AFA002870D1FCF718FF0F28F7DB2F
:103C10006BE000BFFEF710FA18B9FCF70FFF502851
:103C2000F8DBB0EE481AF0EE490A1420B0EE690A4B
:103C3000FEF7B6FC03E000BFFEF7FEF918B9FCF78B
:103C4000FDFE7128F8DBFDF750FEF0EE480A50202B
:103C5000B0EE601AB0EE680AFEF7A2FC03E000BF07
:103C6000FEF7EAF918B9FCF7E9FE4628F8DB64220A
:103C70000021BEEE000A35463046FEF750FC734E7A
:103C800003E000BFFEF7D8F910B9606AB042F9DC72
:103C90000220FEF7E8FB3846FCF7EAFE142200217A
:103CA000B6EE000A2846FEF73AFC02E0FEF7C4F939
:103CB00010B9606AB042F9DB0220FEF7D4FB384647
:103CC000FCF7D6FEFEF7C0FFB0EE480A2820B0EEA3
:103CD000401AF0EE400AFEF763FC02E0FEF7ACF992
:103CE00018B9FCF7ABFE0F28F8DBFFF775FE534958
:103CF0000220C861704751490320C86170474F498D
:103D00000420C86170474D490520C8617047FFF71E
:103D1000B6FCFFF785FBFFF776FBFEF7C8FFFEF763
:103D2000FDFF464C002500BFFFF77AFB606A38B103
:103D3000FFF721FEFEF7BBFFFEF7F0FF65620AE02A
:103D4000FFF737FE07E000BFFFF79AFAA0780128D7
:103D500006D0FFF74DF9A0780028F5D0A570E3E76D
:103D6000FEF7A5FFFEF7DAFFF5E71120FEF73CF8B6
:103D70000F2002F0D0FEF8E7FEF749FF0A2002F01C
:103D8000CAFEF9E7FEF7CEFE052002F0C4FEF9E711
:103D90001FB5FCF779FEFCF7B7FEFCF7EBFFFDF76C
:103DA0008CF8FDF745F9FDF7B8F9FCF72DFF4FF456
:103DB000E1342046FDF774FA2046FDF7F3FA204679
:103DC000FDF776FBE000FDF792FCFDF79BFDFDF7AC
:103DD0008CFD00244FF480750094019402942346D6
:103DE0002A461BA11F48039402F0BEFC00940194D4
:103DF000029400232A461CA12048039402F0B4FC3C
:103E0000FEE77FB500244FF480750094019402947E
:103E100023462A461AA11D48039402F0A5FC0094EB
:103E20000194029400232A4619A11C48039402F02D
:103E30009BFC02F0BFFF04B0002070BD000000201A
:103E40000004024000100240008054447CFCFFFF4C
:103E50007461736B526F626F74416E616C797469D7
:103E600063730000853D00087461736B4469657578
:103E70004B6869656E436F4361750000793D0008CA
:103E80007461736B4D61696E00000000913D000824
:103E90007461736B4779726F000000006B3D00081E
:103EA0000CB500205149019000900A6842F480321C
:103EB0000A604FF4A0630A6802F400320092019A8B
:103EC000521C0192009A12B9019A9A42F3D10A68DF
:103ED000920334D50120009044484030026842F0FB
:103EE000805202604248026842F4804202603F48C9
:103EF000083002680260026842F400420260026810
:103F000042F4A0520260031F3A4A1A600A6842F063
:103F100080720A600A689201FCD5374A40F2056156
:103F20001160016821F003010160016841F00201A4
:103F300001600168C1F381010229FAD10CBD009032
:103F40000CBD2A4810B5016841F001010160274A03
:103F50000021083211600268284B1A400260031DDC
:103F6000274A1A60026822F4802202601F480C303F
:103F70000160FFF795FF23494FF00060086010BD16
:103F800070B51A4C083420681F4A10F00C011F4805
:103F900004D05510042903D0082903D002601BE087
:103FA000056019E01149091D0B68C3F380560B68C1
:103FB00003F03F0316B1B5FBF3F201E0B2FBF3F2FD
:103FC0000B680968C3F388135A43C1F30141491CC4
:103FD0004900B2FBF1F1016021680C4AC1F3031101
:103FE000121D515C0268CA40026070BD0038024078
:103FF0000070004008544007003C0240FFFFF6FEFE
:104000001030002408ED00E00024F4004C010020F2
:104010000648804706480047FEE7FEE7FEE7FEE762
:10402000FEE7FEE7FEE7FEE7FEE7FEE7433F0008A8
:10403000890100082849084328490860704730B5BD
:104040000F22C47801780123FCB1244C246801F1CB
:10405000E02104F4E064C4F5E064C4F30724C4F18F
:104060000405E2404478AC408578154025432A0198
:1040700081F80024007800F01F018B404009800087
:1040800000F1E020C0F8003130BD01F01F00834096
:104090004809800000F1E020C0F8803130BD104AAE
:1040A000114001430D48001F016070470B4A121D6B
:1040B0000029116801D0014300E08143116070477D
:1040C0004FF0E0210428086903D020F004000861C3
:1040D000704740F00400FAE70000FA050CED00E03C
:1040E00080FFFF1F7C4910B5884206D10121084698
:1040F00000F058FA002101204FE07849884206D1AB
:104100000121022000F04EFA0021022045E074490E
:10411000884206D10121042000F044FA0021042045
:104120003BE07049884206D10121082000F03AFAAC
:104130000021082031E06C49884206D1012110207D
:1041400000F030FA0021102027E06849884206D1AB
:104150000121202000F026FA002120201DE06449E2
:10416000884206D10121402000F01CFA00214020A5
:1041700013E06049884206D10121802000F012FA44
:104180000021802009E05C4988420AD18415012180
:10419000204600F007FA00212046BDE8104000F05C
:1041A00001BA10BDF0B50023012403270D6804FAFD
:1041B00003F21540954242D1D0F800C05E0007FAE4
:1041C00006F52CEA050CC0F800C091F804C0D0F840
:1041D00000E00CFA06FC4CEA0E0CC0F800C091F8A6
:1041E00004C0BCF1010F02D0BCF1020F1FD1D0F806
:1041F00008C02CEA050CC0F808C091F805C0D0F83A
:1042000008E00CFA06FC4CEA0E0CC0F808C0D0F826
:1042100004C02CEA020CC0F804C0426891F806C041
:104220000CFA03FC1FFA8CFC42EA0C024260C268E2
:10423000AA43C260CA79C568B2402A43C2605B1C07
:10424000102BB3D3F0BD4FF6FF7101600021017157
:1042500041718171C171704708B541F4803200929B
:10426000C261C1610099C161C169C069009008BDA6
:104270000246002012690A4200D0012070470069FE
:1042800080B270470246002052690A4200D00120E5
:104290007047406980B2704701837047418370471F
:1042A0000AB1018370474183704741617047426999
:1042B0004A40426170474B07DB0E9A40C90810B56F
:1042C00000EB8100016A0F249C40A1430162016A56
:1042D0001143016210BD00000000024000040240D2
:1042E00000080240000C024000100240001402408E
:1042F00000180240001C024000200240EA48016809
:1043000041F001010160E84A0021083211600268B1
:10431000E64B1A400260031DE54A1A60026822F467
:1043200080220260E0480C3001607047DE490022C4
:10433000891C0A7008707047024600205109012943
:104340000CD002290CD0D8497431096802F01F0240
:10435000012393400B4200D001207047D249F4E77B
:10436000D1497031F1E718B500204FF4A0640090F6
:104370003120FFF7E1FF0099491C0091A14201D0D3
:104380000028F5D03120FFF7D7FF002800D001200A
:1043900018BDC5490A6822F0F80242EAC000086068
:1043A0007047C44908607047BF49002270310A70E5
:1043B0000A70012802D0042801D105200870704736
:1043C000BD490860704741EA82115A0810B5BB4BDD
:1043D000029C03EB02421143014341EA0460B249EB
:1043E000091D086010BDB34908667047800140EAA6
:1043F0000170AD49843108607047AE4988667047E6
:10440000AC49C8647047A84A08321368084323F0CF
:10441000EC63184310607047A34A083213680843DE
:1044200023F078431843106070479F4A08321168A0
:1044300021F003010143116070479B480830006878
:1044400000F00C007047984A0832116821F0F00122
:10445000014311607047944A0832116821F4E05119
:10446000014311607047904908310A6822F46042A4
:1044700042EAC0000860704770B58B4A0832116884
:104480008F4C11F00C0104D06610042903D00829C8
:1044900003D004601BE0066019E08349091D0B6826
:1044A000C3F380550B6803F03F0315B1B6FBF3F37C
:1044B00001E0B4FBF3F30C680968C4F388146343A8
:1044C000C1F30141491C4900B3FBF1F101601168DE
:1044D0000F2303EA11117B4B5C5C0168E1404160F2
:1044E0001468072505EA94241C5D21FA04F484600D
:1044F000126805EA52329A5CD140C16070BDC0F3C7
:104500000121032908D1684A0832116821F4F813FF
:104510006D49014019431160634970310A68C0F365
:104520000B0002430A6070476349443908607047D2
:1045300061494039086070475E49C1F85C017047C5
:10454000594A30320029116801D0014300E081430B
:1045500011607047544A34320029116801D0014378
:1045600000E08143116070474F4A383200291168DA
:1045700001D0014300E08143116070474A4A403254
:104580000029116801D0014300E0814311607047A8
:10459000454A44320029116801D0014300E08143BB
:1045A00011607047404A10320029116801D0014360
:1045B00000E08143116070473B4A143200291168C2
:1045C00001D0014300E0814311607047364A183240
:1045D0000029116801D0014300E081431160704758
:1045E000314A20320029116801D0014300E08143A3
:1045F000116070472C4A24320029116801D0014310
:1046000000E0814311607047274A50320029116849
:1046100001D0014300E0814311607047224A5432C7
:104620000029116801D0014300E081431160704707
:104630001D4A58320029116801D0014300E081432E
:1046400011607047184A60320029116801D0014397
:1046500000E0814311607047134A643200291168F9
:1046600001D0014300E08143116070470E4A0D32D2
:104670000029117801D0014300E081431170704797
:1046800009487430016841F080710160704701464B
:10469000054A00200C3212680A4200D001207047FF
:1046A00001490E310870704700380240FFFFF6FEE6
:1046B0001030002400004742800E47420000FFFFF8
:1046C0000024F40060010020FFFCFF0F10B5012161
:1046D0000C022046FFF78EFF2046BDE81040002167
:1046E000FFF788BF30B54268C84B0C791A400B6899
:1046F00042EA0422134343608268C54B4D791A4055
:10470000D1E9034323438C6844EA4504234313431C
:104710008360C26A097D22F47002491EC9B242EA6E
:104720000151C16230BD00210160017141718160A0
:10473000C1600161012101757047B64B10B5D3F816
:104740000423B5490A40D0E900142143D0E90240CE
:10475000044321431143C3F8041310BD0021016039
:1047600041608160C16070470029816802D041F0DA
:10477000010101E021F00101816070474268A74B0F
:104780001A400A4342607047416282627047426841
:1047900022F01F020A43426070479E490028D1F868
:1047A000040302D040F4000001E020F40000C1F84E
:1047B0000403704797490028D1F8040302D040F45D
:1047C000800001E020F48000C1F80403704770B558
:1047D000072409290AD9C568A1F10A0606EB46068D
:1047E000B440A543B3401D43C56007E0056901EB34
:1047F0004106B440A543B3401D4305611F23072A6A
:1048000009D2446B521E02EB820293409C439140BA
:104810000C43446370BD0D2A09D2046BD21F02EB16
:10482000820293409C4391400C43046370BDC46A70
:104830000D3A02EB820293409C4391400C43C462C8
:1048400070BD816841F08041816070470146002061
:104850008968490200D5012070470029816802D08B
:1048600041F4806101E021F480618160704700299A
:10487000816802D041F0020101E021F00201816073
:1048800070474268491E22F4604242EA4131416069
:1048900070470029416802D041F4006101E021F431
:1048A000006141607047C06C80B270475948D0F8D1
:1048B000080370470029816802D041F4807101E04B
:1048C00021F48071816070470029816802D041F431
:1048D000007101E021F40071816070474D490028AA
:1048E000D1F8040302D040F4005001E020F400505D
:1048F000C1F80403704770B5072409290AD9C568AF
:10490000A1F10A0606EB4606B440A543B3401D4399
:10491000C56007E0056901EB4106B440A543B3401B
:104920001D430561836BC3F30154121B921C02EB00
:1049300082041F22A2409343A1400B43836370BDB6
:10494000826B491E22F4401242EA01518163704792
:1049500008B508440090026008BD826822F4702205
:104960000A4382607047826822F440120A438260E0
:104970007047816841F480018160704701460020E2
:104980008968490200D5012070470029416802D09A
:1049900041F4806101E021F48061416070470029A9
:1049A000416802D041F4805101E021F4805141601E
:1049B000704708B5084428300090006880B208BDF0
:1049C00001238B4041680AB1194300E099434160DB
:1049D00070470246002012680A4200D0012070474A
:1049E000C9430160704730B50246002053680C0A85
:1049F00001258D4011682B40214202D0002B00D0B0
:104A0000012030BD6FEA112101607047FFFEFFFCFD
:104A1000FDF7FFC000200140E030FCFFFFFD3FFF3D
:104A20002DE9F043016821F00101016000210160DE
:104A300041608160C160016121214161B849B84A8A
:104A40003D251039904202D18D60BDE8F083B44A13
:104A50004FF474661832904201D18E60F5E7B04A87
:104A60004FF474173032904201D18F60EDE7AC4AB9
:104A70004FF0746C4832904202D1C1F808C0E4E7AC
:104A8000A74BA84A6033984201D1CA60DDE7A44C25
:104A9000A54B7834A04201D1CB60D6E7DFF8808205
:104AA000A24C08F19008404501D1CC60CDE7DFF879
:104AB00070824FF03D5908F1A808404502D1C1F875
:104AC0000C90C2E79A49DFF868820839404501D165
:104AD0000D60BAE7964D1835A84201D10E60B4E7D3
:104AE000934D3035A84201D10F60AEE7904D483567
:104AF000A84202D1C1F800C0A7E78D4D8C496035AE
:104B0000091FA84201D10A609FE7894A7832904282
:104B100001D10B6099E7864A9032904201D10C6036
:104B200093E7834AA83290428FD1C1F800908CE776
:104B300030B503687F4ACC6813400A682243D1E944
:104B400005452C432243CC6922430C6A22434C6A1C
:104B500022438C6A22434C6B22438C6B22431A43C0
:104B60000260426922F00703D1E90B2422431A4371
:104B700042610A6942604A6882608968C16030BDEA
:104B80000021016041608160C1600161416181611A
:104B9000C161016241628162C162016341638163FB
:104BA00070470029016802D041F0010101E021F0C5
:104BB0000101016070470029016802D041F4004101
:104BC00001E021F40041016070470029016802D032
:104BD00041F0200101E021F02001016070474160B7
:104BE0007047406880B27047002A026802D042F4E1
:104BF000002201E022F400220260016170470029D6
:104C0000016802D041F4802101E021F4802101609B
:104C100070470AB101617047C160704701460020CA
:104C20000968090300D50120704701460020096882
:104C3000C90700D001207047406900F03800704774
:104C400002463B4B00209A4202D2354A103A01E01C
:104C5000374A103A8B0001D5526800E01268364B93
:104C60001A400A4200D001207047314A904202D2D5
:104C70002B48103801E02E4810382F4A8B0001EAEB
:104C8000020101D5C1607047816070470B0607D5EE
:104C9000436912B143F0800301E023F080034361D4
:104CA000802908D0002A026801F01E0101D00A43C1
:104CB00000E08A430260704730B51D4A00249042EC
:104CC00002D2174B103B01E0194B103B1B4A11421B
:104CD00005D01E2202EAD12502682A4002E040697E
:104CE00000F08002880001D5586800E01868124B77
:104CF0001840084201D002B10124204630BD0C4AC0
:104D0000904202D20648103801E0094810380A4A99
:104D10008B0001EA020101D5C160704781607047D4
:104D2000106002403D000020400F002000003D20A8
:104D3000106402403F801CF07D0F7D0F3C0F3C0F44
:104D4000374900200860091D0860091D0860091D19
:104D500008603349334814310860704730B5304932
:104D60008379026853B30B6893430B600A1D136881
:104D70000468A343136002790A4413680468234358
:104D80001360274A083213680468A3431360131D95
:104D90001C680568AC431C604479102C05D0214484
:104DA0000A68006802430A6030BD11680468214344
:104DB0001160196800680143196030BD007908442A
:104DC00001689143016030BD0021016001710C2236
:104DD000427181717047124910310A6802430A60BA
:104DE000704701460E4A0020143212680A4200D071
:104DF000012070470A49143108607047084A01468B
:104E000000201268064B0A4014331B680B4202D084
:104E1000002A00D001207047014914310860704712
:104E2000003C0140FFFF7F00FE4910B5884206D1DB
:104E300001210846FFF7DEFB002101205BE0B0F115
:104E4000804F09D0F84988420DD101210220FFF797
:104E5000C7FB0021022070E001210846FFF7C0FBDC
:104E60000021012069E0F149884206D10121042096
:104E7000FFF7B6FB002104205FE0ED49884206D130
:104E800001210820FFF7ACFB0021082055E0E9498B
:104E9000884206D101211020FFF7A2FB002110203B
:104EA0004BE0E549884206D101212020FFF798FB1D
:104EB0000021202041E0E149884206D10121022061
:104EC000FFF798FB0021022015E0DD49884202D15E
:104ED00001210C040AE0DB49884202D101214C0483
:104EE00004E0D94988420AD101218C042046FFF709
:104EF00081FB00212046BDE81040FFF77BBBD34972
:104F0000884206D101214020FFF76AFB00214020A2
:104F100013E0CF49884206D101218020FFF760FBD2
:104F20000021802009E0CB4988420AD18415012163
:104F30002046FFF755FB00212046BDE81040FFF753
:104F40004FBB10BD30B50288B64BBC4C98420DD05B
:104F5000A0420BD0B0F1804F08D0B34DA84205D08D
:104F6000B24DA84202D0B24DA84203D122F0700542
:104F70004A882A43AF4DA84206D0AF4DA84203D07D
:104F800022F440750A892A4302804A68C2620A886C
:104F90000285984201D0A04201D1897A018601217F
:104FA000818230BD4FF0FF314160002101800181DD
:104FB000418081727047018582827047028822F0A9
:104FC00070020A430280704741627047C1627047B5
:104FD000406A7047008D70470029018802D041F077
:104FE000020101E021F002010180704700290188DF
:104FF00002D041F0040101E021F00401018070477A
:105000000029018802D041F0800101E021F08001F7
:1050100001807047028822F00802028002880A4359
:1050200002807047028822F44072028002880A439C
:10503000028070470029018802D041F0010101E09F
:1050400021F001010180704730B5028C22F001028D
:105050000284028C8388048B22F0020224F0730500
:105060000C882C438D8915434A882A436D4DA842EC
:1050700002D0724DA8420DD122F00805CA8923F44E
:1050800040732A4322F004058A882A430D8A1D436F
:105090004B8A2B438380048389684163028430BD3B
:1050A00070B5028C22F010020284028C8488038B7B
:1050B0000D8823F4E6464FF6FF7303EA05253543D2
:1050C0008E8922F0200203EA061616434A8803EA74
:1050D00002123243534EB04202D0584EB04215D164
:1050E00022F08006CA8924F4406403EA02123243A3
:1050F00022F040068A8803EA021232430E8A03EA4B
:10510000860626434C8A03EA84043443848005835C
:1051100089688163028470BD70B5028C22F480724C
:105120000284028C8488838B0D8823F073031D43D3
:1051300022F400738E894FF6FF7202EA06261E43A0
:105140004B8802EA03233343364EB04202D03B4E33
:10515000B04215D123F40066CB8924F4405402EA0E
:105160000323334323F480668B8802EA032333430B
:105170000E8A02EA061626434C8A02EA04143443D5
:10518000848085838968C163038470BD70B5028C97
:1051900022F480520284048C8288838B0D8823F44D
:1051A000E6464FF6FF7303EA0525354324F400561F
:1051B0008C8903EA043434434E8803EA06362643D6
:1051C000184CA04202D01D4CA04205D122F48044CC
:1051D0000A8A03EA821222438280858389680164F5
:1051E000068470BD002101804180818081608181C1
:1051F000C18101824182704730B50124058C00F1E4
:1052000018038C40A543058431B308292CD0091F0D
:10521000C1F34E001844016848F6FF73194001605D
:1052200001681AE00000014000040040000800404E
:10523000000C004000100040001400400004014039
:105240000040014000440140004801400018004077
:10525000001C00400020004006E04FF6FF7303EA08
:1052600002221143016030BD03EB510001684FF68B
:105270008F73194001600168F3E7416370478163F0
:105280007047C163704701647047028B22F070025F
:105290000A4302837047028B4FF6FF7322F4E04209
:1052A00003EA0121114301837047828B22F07002CF
:1052B0000A4382837047828B4FF6FF7322F4E042E9
:1052C00003EA0121114381837047028B22F0080217
:1052D0000A4302837047028B4FF6FF7322F4006289
:1052E00003EA0121114301837047828B22F00802F7
:1052F0000A4382837047828B4FF6FF7322F4006269
:1053000003EA0121114381837047028B22F00402DA
:105310000A4302837047028B4FF6FF7322F48062C8
:1053200003EA0121114301837047828B22F00402BA
:105330000A4382837047828B4FF6FF7322F48062A8
:1053400003EA0121114381837047028B22F080021E
:105350000A4302837047028B4FF6FF73C2F30E02BB
:1053600003EA0121114301837047828B22F08002FE
:105370000A4382837047828B4FF6FF73C2F30E029B
:1053800003EA0121114381837047028C22F002025B
:105390000A4302847047028C22F008020A43028406
:1053A0007047028C4FF6FF7322F0200203EA0111CE
:1053B000114301847047028C4FF6FF7322F0800284
:1053C00003EA0111114301847047028C4FF6FF7309
:1053D00022F4007203EA0121114301847047028C18
:1053E0004FF6FF7322F4006203EA012111430184A6
:1053F0007047028C4FF6FF7322F4005203EA01312A
:1054000011430184704710B50123048C8B409C43E9
:105410000484038C8A401343038410BD10B5042315
:10542000048C8B409C430484038C8A401343038484
:1054300010BD828B22F440628283828B4FF6FF7311
:1054400003EA01210A4382837047828B22F00C0217
:105450008283828B0A4382837047028B22F44062EC
:105460000283028B4FF6FF7303EA01210A43028392
:105470007047F0B5048C24F010040484078B068C6C
:105480004FF6FF7404EA011527F4734704EA033169
:10549000394304EA02220A4326F0A001294341F0DD
:1054A000100102830184F0BD028B22F00C02028302
:1054B000028B0A43028370472DE9F0410D460E88A6
:1054C0004988AA882B8904460EB3042E26D0082EBC
:1054D000268C4FF6FF7028D026F480562684A78BA2
:1054E000268C00EA022200EA013127F473473A438E
:1054F00000EA0330104326F420420A4342F480516C
:10550000A0832184E9882046BDE8F04191E700F0BE
:1055100062F9E9882046BDE8F041C5E7FFF7A9FF39
:10552000E9882046BDE8F04197E726F48076268496
:10553000A78B268C00EA012100EA0310104327F014
:10554000F307384326F420620A4342F48071A083B3
:105550002184E9882046BDE8F04176E700210180FA
:10556000418001228280C180018170472DE9F04194
:105570000C46002649880746012501B90226A28863
:10558000012A00D10225208823890028384610D01E
:10559000FFF76FFFE1883846FFF75FFF23892A4650
:1055A0003146384600F017F9E1883846BDE8F04149
:1055B0007AE700F010F9E1883846FFF775FF238994
:1055C0002A4631463846FFF754FFE1883846BDE8A1
:1055D000F04142E7406B7047806B7047C06B70478B
:1055E000006C704710B50A884B88CC881A438B88AA
:1055F00023431A430B891A434B8989891A430A4367
:10560000A0F8442010BD0021018041808180C1802C
:105610000181418181817047002930F8441F02D007
:1056200041F4004101E0C1F30E01018070470029FF
:10563000818802D041F0040101E021F00401818061
:1056400070470029818802D041F0010101E021F07A
:10565000010181807047002A828901D00A4300E05D
:105660008A43828170478182704702460020128AF5
:105670000A4200D001207047C943018270470246A8
:105680000020138A92890B4202EA010202D0002A0A
:1056900000D001207047C943018270471143A0F830
:1056A00048107047002A828901D00A4300E08A43EB
:1056B000828170470029818802D041F0080101E011
:1056C00021F0080181807047018921F007010181E3
:1056D0007047028922F070020A430281704700B5C8
:1056E0000346FFF7F6FF188940F00700188100BD58
:1056F00070B516460D46602904464FF0010231464A
:105700000AD000F068F829462046FFF7E2FF20891A
:1057100040F00700208170BDFFF7ABFEF3E730B526
:1057200004894FF6FF7505EA03231343E4B20B43E4
:105730002343038130BD10B50446FFF7F0FF2089F5
:1057400040F07700208110BD10B50446FFF7E7FF59
:10575000208940F48040208110BD828822F07002B0
:10576000828082880A4382807047028922F0070281
:10577000028102890A4302817047028922F0800275
:10578000028102890A430281704770B50589048B42
:10579000068C25F007050D434FF6FC410C4040F206
:1057A00001110C434FF6FF7101EA031126F02206A6
:1057B0001143314305810483018470BD0029818830
:1057C00002D041F0800101E021F08001818070472A
:1057D000A0F85010704770B5048C24F001040484C4
:1057E000058B048C4FF6FF7606EA0313134325F06E
:1057F000F3052B4324F00A020A4342F0010103831C
:10580000018470BDC74910B5884206D1012110201E
:10581000FEF7F0FE0021102028E0C349884202D1A3
:1058200001214C0410E0C149884202D101218C04BD
:105830000AE0BF49884202D10121CC0404E0BD49FD
:1058400088420AD101210C052046FEF7C9FE2046F8
:10585000BDE810400021FEF7C3BEB749884209D118
:1058600001212020FEF7C6FE00212020BDE81040C7
:10587000FEF7C0BE10BD7FB50446008A0D4620F479
:105880004051E88808432082A08941F20C61884396
:10589000A9882A8911436A8902431143A181A08AF8
:1058A00020F44071A8890843A0826846FEF7E4FD11
:1058B0009C48844202D0A048844201D1039800E071
:1058C0000298A189090400EBC00101EB00102968CE
:1058D00001D5490000E08900B0FBF1F26420B2FB81
:1058E000F0F109010B096FF018056B4302EB83021D
:1058F000A3891D044FF0320306D503EBC202B2FBAD
:10590000F0F000F0070005E003EB0212B2FBF0F04C
:1059100000F00F00084320817FBD4FF41651016055
:1059200000218180C18001810C22428181817047E8
:1059300010B5028A4C8822F470630A8822438C884E
:10594000C9880C4322431A43028210BD0021018002
:1059500041808180C18070470029818902D041F453
:10596000005101E021F4005181817047028B02F463
:105970007F420283028B0A43028370470029818998
:1059800002D041F4004101E0C1F30E018181704772
:105990000029818A02D041F4006101E021F4006114
:1059A00081827047C1F30801818070478088C0F30D
:1059B00008007047028A22F00F020282028A0A431C
:1059C000028270470029818902D041F0020101E082
:1059D00021F0020181817047828922F40062828174
:1059E00082890A4382817047028A22F02002028261
:1059F000028A0A43028270470029018A02D041F4D8
:105A0000804101E021F4804101827047818941F0A9
:105A10000101818170470029818A02D041F008018B
:105A200001E021F0080181827047028BD2B202832B
:105A3000028B42EA0121018370470029818A02D04A
:105A400041F0200101E021F020018182704700290E
:105A5000818A02D041F0100101E021F01001818221
:105A60007047828A22F004028282828A0A438282FA
:105A700070470029818A02D041F0020101E021F043
:105A8000020181827047002A828A01D00A4300E025
:105A90008A438282704710B5C1F3421301F01F049C
:105AA0000121A140012B07D0022B07D01430002A7E
:105AB000026805D00A4304E00C30F8E71030F6E73E
:105AC0008A43026010BD0246002012880A4200D0BC
:105AD00001207047C9430180704730B501F01F02B3
