:020000040800F2
:1000000080320020214B000845020008470200080A
:10001000490200084B0200084D02000800000000E1
:100020000000000000000000000000009D0100082A
:100030004F02000800000000E101000857710008AD
:100040003B4B00083B4B00083B4B00083B4B000878
:100050003B4B00083B4B00083B4B00083B4B000868
:10006000010400084D0400083B4B00080B03000886
:10007000CD020008570300083B4B0008750200083A
:100080003B4B00087D0200083B4B00083B4B00083F
:100090003B4B00083B4B00083B4B00083B4B000828
:1000A0003B4B00087B0300089B0300083B4B000808
:1000B0009D030008BD0300083B4B00083B4B0008B4
:1000C0003B4B00083B4B00083B4B0008FD0300087E
:1000D0003B4B0008550200083B4B00083B4B000817
:1000E0003B4B00083B4B00083B4B00083B4B0008D8
:1000F0003B4B00083B4B00083B4B00082D0300081E
:100100003B4B00083B4B0008DD030008FF030008E1
:100110003B4B00083B4B00086103000869030008E3
:100120003B4B00089F020008A70200083B4B000859
:100130003B4B00083B4B00083B4B00083B4B000887
:100140003B4B00083B4B00083B4B00083B4B000877
:10015000C30200083B4B00083B4B00083B4B000828
:100160003B4B00083B4B00083B4B00083B4B000857
:100170003B4B00083B4B00083B4B00083B4B000847
:100180003B4B00083B4B0008DFF80CD008F06EF842
:10019000004800471D49000880320020234B1968A1
:1001A0000868B0E8F04F80F309884FF0000080F352
:1001B000118870470000000003480068006880F361
:1001C000088862B600DF00BF08ED00E0DFF80C0031
:1001D000016841F470010160704700BF88ED00E0E4
:1001E000EFF30980114B1A681EF0100F08BF20EDC5
:1001F000108A20E9F04F106008B54FF0140080F32A
:10020000118807F07EFA4FF0000080F31188BDE8F6
:10021000084019680868B0E8F04F1EF0100F08BFDA
:10022000B0EC108A80F30988704700BFC803002033
:10023000EFF311804FF0140181F31188704780F3C0
:10024000118870477047FEE7FEE7FEE7FEE770475C
:100250007047704710B57E4C40F22551204606F09D
:10026000C4F9002805D02046BDE81040202106F042
:10027000B9B910BD7749784805F0C9BA70B5764D5F
:10028000764C30352146284605F09EFA002805D0E8
:1002900021462846BDE8704005F0B9BA70BD7049E6
:1002A000704805F0B4BA6F4810B56F49183005F0C2
:1002B000AEFA6E484178007841EA00206C49088027
:1002C00010BD68486B49603005F0A1BA70B5624D49
:1002D000634C483D2146284605F076FA002813D0A5
:1002E0002146284605F093FA634801F059FF00289B
:1002F0000AD1624C0021204606F0B6F82046BDE83F
:100300007040012106F0B0B870BD70B5524D5C4C24
:10031000603D2146284605F057FA002805D02146C1
:100320002846BDE8704005F072BA70BD70B54A4C01
:10033000544D48342946204605F046FA002809D095
:100340000021204605F0B5F929462046BDE8704059
:1003500005F05DBA70BD40483E49303805F057BAE7
:100360000121494805F01FBF10B50121474805F09C
:100370001AFF37497A20888010BD10B5444C0121FE
:10038000204605F010FF2088C1064248016801D5CB
:10039000491E00E0491C016010BD704710B50121E5
:1003A0008C07204605F0FFFE2088C1063A48016808
:1003B00001D5491E00E0491C016010BD10B5374C45
:1003C0000121204605F0EFFE2088C106344801686F
:1003D00001D5491E00E0491C016010BD10B5314C2B
:1003E0000121204605F0DFFE2088C1062E48016865
:1003F00001D5491E00E0491C016010BD70477047DF
:1004000070B5042005F082FA00281ED0202127486C
:1004100004F0D5FC264D0421284604F0B1FC1B4C09
:10042000012805D00421284604F0AAFC28B109E0DF
:100430000021204605F050FB04E0204605F050FB6B
:100440001C4908601C490420086070BD704700000A
:1004500000100140208000207060024000802020B9
:10046000008800102864024000802010FC04002056
:100470000E000020008800201A05002000480040DF
:100480002080001000800028001000400014004070
:100490000000014010000020140000200004004073
:1004A0006C030020000C004070030020000002409C
:1004B000000C024074030020143C014070B5054656
:1004C000002407F039FCFE4902E02A5D0A55641C4D
:1004D0008442FADBBDE870400121FA4805F0E9B832
:1004E00070B5F94D06460024315D00290BD0284631
:1004F00005F0E0FF8021284606F06DF80028F9D0CD
:10050000641CE4B2F0E770BD70B5EF4E0546002400
:10051000002D0DD02946304605F0CCFF8021304615
:1005200006F059F80028F9D0641CE4B2032CEFD38C
:1005300070BD73B50C460020FFF7E6FFE3A0FFF7A0
:10054000CFFFDF482246E2A1823807F0DDFEDC481B
:100550008238FFF7C5FFDFA0FFF7C2FFDFA0FFF77C
:10056000BFFFD748DAA18238009A07F0CDFED44EFB
:100570000024D54D823E2846315D05F09BFF402189
:10058000284606F028F80028F9D0641C142CF2DB69
:10059000D2A0FFF7A5FFFF20FFF7B6FFFF20FFF770
:1005A000B3FFBDE87C40FF20AEE770B505460C46C2
:1005B000C6A0FFF795FFC2482246C5A1823807F0C2
:1005C000A3FEBF488238FFF78BFFC5A0FFF788FF67
:1005D0002846FFF785FFC1A0FFF782FFBDE8704006
:1005E000FF2091E777B5BEA185B00646D1E90001AD
:1005F000CDE90001B9A0002200680390B3A0B04D7E
:100600000068283DA5F128030290AD4C1146A3F1E6
:100610003200A95499548154A154521CD2B21E2ABA
:10062000F7D30A210170FF2444708470C470A44879
:10063000A7A15038079A07F067FEA14902A85039D0
:1006400007F062FB9E4802A9823807F05DFB9C48D8
:100650006946823807F058FB99483146823807F0DE
:1006600053FB97489AA15038069A07F04DFE9449DB
:100670005039A1F1320007F047FB914803A98238B5
:1006800007F042FB8E492C706C702839AC70A1F1D8
:100690005A0007F039FB8A488238FFF70FFF08B08D
:1006A00070BD2DE9F74188468DA185B00646D1E998
:1006B0000001CDE9000189A000220068039083A019
:1006C0007F4D0068283DA5F1280102901446A1F154
:1006D0003200AC548C548454521CD2B20A2AF8D33F
:1006E0000A210170FF2747708770C770744878A18E
:1006F0005038079A07F008FE714902A8503907F0F0
:1007000003FB6F4802A9823807F0FEFA6C4869467D
:10071000823807F0F9FA6A483146823807F0F4FA6D
:1007200067484146823807F0EFFA654803A98238E6
:1007300007F0EAFA2F706F706149AF70EC702839DA
:100740002C71A1F15A0007F0DFFA5D488238FFF7FB
:10075000B5FE08B0BDE8F08170B50020FFF7D4FE0B
:100760005AA0FFF7BDFE56480D2259A1823807F066
:10077000CBFD53488238FFF7B3FE59A0FFF7B0FE18
:10078000594C2021204604F0FBFA02464C4850A167
:10079000823807F0B9FD4A488238FFF7A1FE1021E0
:1007A000204604F0EDFA0246454849A1823807F098
:1007B000ABFD43488238FFF793FE4C4D802128461D
:1007C00004F0DEFA02463E4841A1823807F09CFD63
:1007D0003B488238FFF784FE4021284604F0D0FAD7
:1007E000024637483AA1823807F08EFD34488238F5
:1007F000FFF776FE4FF40041204604F0C1FA0246AE
:100800002F4833A1823807F07FFD2D488238FFF74B
:1008100067FE4FF48041204604F0B2FA02462848B1
:100820002BA1823807F070FD25488238FFF758FE6B
:100830004FF40051204604F0A3FA0246204824A1B8
:10084000823807F061FD1E488238FFF749FE4021DB
:10085000274804F095FA024619481DA1823807F08E
:1008600053FD17488238FFF73BFE1CA0FFF738FE08
:10087000FF20FFF749FEFF20FFF746FEBDE870406E
:10088000FF2041E6FEB51BA10646D1E90001CDE9F6
:1008900000011AA000210A4D0068283DA5F1280298
:1008A00002900C46A2F132006C5454544454491C3A
:1008B000C9B23229F8D30A210170FF2747701FE01F
:1008C000BA040020B86002400050004074000000EC
:1008D000256400002E7478743D00000022000000A2
:1008E0002E7478743D22000000080240000002408F
:1008F000001002402E76616C3D0000006A0000008E
:100900008770C7700022AFF23801FE4807F0FCFC88
:10091000FC4902A807F0F8F9FA4802A9323807F0B2
:10092000F3F9F8486946323807F0EEF93246AFF28B
:100930006001F44807F0E8FCF249A1F1320007F049
:10094000E3F92F706F70EF49AF70EC7028312C71A4
:10095000A1F15A0007F0D8F9EA483238FFF7AEFDA6
:10096000FEBD2DE9FC414FF08047384605F0B8F850
:10097000E54D6969642640EA014090FBF6F00024E9
:100980000190384605F0ACF8696940EA014090FBF7
:10099000F6F001990090401A00D54042322800DA62
:1009A000641C00980190022CEBDB0098002800DA10
:1009B0004042BDE8FC812DE9FC41D44F384605F0AA
:1009C0008FF8D14D2969642640EA014090FBF6F08A
:1009D00000240190384605F083F8296940EA014077
:1009E00090FBF6F001990090401A00D54042322861
:1009F00000DA641C00980190022CEBDB00980028C0
:100A0000D7DA4042D5E710B5FFF7ABFF0446FFF752
:100A1000D2FF002C00DA6442002800DA4042204471
:100A200010BD01B581B0019800EBC00040000090FE
:100A3000002801D0401EFAE70CBD01B581B044F298
:100A40005061019848430090002801D0401EFAE709
:100A50000CBD2DE9FC4101211F2004F0F9FA01240D
:100A60008DF8044000268DF806604FF6FF758DF86E
:100A70000740032700958DF805706946A44804F0E7
:100A800019F98DF804408DF806608DF8074000953F
:100A90008DF8057069469F4804F00CF98DF8044004
:100AA0008DF806608DF8074000958DF80570694651
:100AB000994804F0FFF87CE77CB501217E2004F022
:100AC000C7FA0024C0208DF80440012500908DF85D
:100AD000075002268DF805606946904804F0EAF850
:100AE00048F206008DF8044000908DF807508DF80C
:100AF00005606946864804F0DDF804208DF804405E
:100B000000908DF807508DF805606946814804F023
:100B1000D1F87CBD1FB54FF4E06004F013F8362027
:100B20008DF80C0000248DF80D408DF80E4001204A
:100B30008DF80F0003A804F00AF80121102004F03A
:100B4000A5FA3220ADF80000ADF80840ADF802403B
:100B500040F2E730724C01906946204604F07AFF7B
:100B60000121204605F01FFB01221146204605F019
:100B7000FAFA0021204604F0AFFF0121204604F0DC
:100B8000E1FF1FBD1FB54FF4E06003F0DBFF37202E
:100B90008DF80C0000248DF80D408DF80E400120DA
:100BA0008DF80F0003A803F0D2FF0121202004F0EC
:100BB0006DFA4FF4FA70ADF80000ADF80840ADF8EA
:100BC000024040F2E730574C01906946204604F05D
:100BD00041FF0121204605F0E6FA01221146204698
:100BE00005F0C1FA0021204604F076FF01212046DD
:100BF00004F0A8FF1FBD70B58AB00121022004F0E7
:100C00004FFA01210C2004F023FA424E0322062160
:100C1000304604F0D8F803220721304604F0D3F818
:100C200003220821304604F0CEF803220921304681
:100C300004F0C9F84FF47070059002208DF8180088
:100C400003208DF8190000248DF81A4001258DF835
:100C50001B5005A9304604F02DF8A420ADF81C0067
:100C60002802314E0890ADF82400ADF81E4007A9C7
:100C7000304604F0EFFE6020ADF80000ADF8025001
:100C80000294ADF80C400121304604F05BFF0021D6
:100C9000304604F021FF6946304604F05DFF6946A6
:100CA000304604F085FF6946304604F0BDFF6946D2
:100CB000304604F0F3FF0121304605F035FA0AB062
:100CC00070BD70B58AB00121042004F0DFF9012164
:100CD0000D2004F0BDF9104E02220C21304604F024
:100CE00072F802220D21304604F06DF802220E2126
:100CF000304604F068F802220F21304604F063F811
:100D000014E000006A040020000000200000014000
:100D10000004024000080240000C024000000240B3
:100D20000010004000140040000401404FF47040E7
:100D3000059002208DF8180003208DF8190000247A
:100D40008DF81A4001258DF81B5005A9304603F097
:100D5000B1FFA420ADF81C0028020890ADF82400D3
:100D6000ADF81E4007A9FE4E304604F073FE702019
:100D7000ADF80000ADF802500294ADF80C4001212E
:100D8000304604F0DFFE0021304604F0A5FE69463F
:100D9000304604F0E1FE6946304604F009FF69463A
:100DA000304604F041FF6946304604F077FF86E79D
:100DB00070B5012188B0080404F072F901210846D9
:100DC00004F046F9E74E03221146304603F0FBFFDC
:100DD00003220221304603F0F6FF0C20009002208F
:100DE0008DF8040003208DF8050000248DF80640DE
:100DF00001258DF807506946304603F05BFF4FF63A
:100E0000FF70D94EADF808400390ADF81040ADF832
:100E10000A4002A9304604F01DFE0420ADF814007B
:100E2000C820ADF81C00ADF81640ADF8185005A963
:100E3000304605F0C9F8CD4C00231A460321204660
:100E400005F02BFA0121204605F0ADF901221146EB
:100E5000204605F088F90121304604F073FE002198
:100E6000204604F039FE1AE42DE9F04701218AB04A
:100E7000084604F00BF90121022004F007F90121D2
:100E8000032004F0E5F8DFF8DC9201220F21484648
:100E900003F099FFDFF8D88201220321404603F0D6
:100EA00092FF02220421404603F08DFF0222052119
:100EB000404603F088FF02268DF80460032738209F
:100EC0008DF80570002400908DF8064001258DF8FE
:100ED00007506946404603F0EDFE8DF80460E803D4
:100EE0008DF8057000908DF806408DF80750694622
:100EF000484603F0DFFE4FF6FF70ADF80C4004905B
:100F00004FF08049ADF81440ADF80E4003A94846B3
:100F100004F0A0FDDFF85CA203A9504604F09AFD9E
:100F20004FF004081420ADF81880ADF82000ADF89B
:100F30001A60ADF81C5006A9484605F045F806A908
:100F4000504605F041F802231A460321484605F0B1
:100F5000A4F902231A460321504605F09EF9012107
:100F6000484605F020F90121504605F01CF9012200
:100F70001146484605F0F7F801221146504605F0A3
:100F8000F2F80121484604F0DDFD0121504604F04D
:100F9000D9FD0021484604F09FFD0021504604F091
:100FA0009BFD780203F0CEFD1D208DF808008DF822
:100FB00009708DF80A408DF80B5002A803F0C7FDA8
:100FC0001C208DF808008DF809808DF80A408DF8F6
:100FD0000B5002A803F0BBFD0AB0BDE8F08770B566
:100FE00001218AB0084604F05BF80121102004F0CA
:100FF0002FF84FF42060009002208DF804000320A9
:101000008DF8050000245C4E8DF8064001258DF812
:1010100007506946304603F04DFE01220921304653
:1010200003F0D1FE01220B21304603F0CCFE4FF637
:10103000FF704D4EADF808400390ADF81040ADF88C
:101040000A4002A9304604F005FD0420ADF8140062
:101050000A20ADF81C00ADF81640ADF8185005A9EF
:10106000304604F0B1FF00231A460321304605F054
:1010700014F90121304605F096F801221146304658
:1010800005F071F80121304605F08DF80122114676
:10109000304605F068F80121304604F053FD002188
:1010A000304604F019FD4FF4C06003F04BFD1920E9
:1010B0008DF820008DF821508DF822408DF82350B6
:1010C00008A803F044FDFAE5F0B59BB001212B48D8
:1010D00003F0BEFF01210D02284603F0E1FF28487E
:1010E0000024CDE90040274802A9082681E85100E4
:1010F000A800CDE90540400007908000CDE9080533
:101100000AA90001012581E831001F4F0D946946AD
:1011100038460E9404F094FA0121384604F0C9FAD6
:101120007C20032715908DF858708DF85B4015A929
:101130000C4803F0BFFD3C2015908DF858708DF8D9
:101140005B4015A9114803F0B5FD3804CDE91740FF
:101150004FF47060CDE9194017A804F076F817E055
:101160000008004000000240000001400040014033
:10117000000402400004004000100240050040004E
:101180004C200140EC0400201064024000080240A2
:1011900028060F908DF840508DF84150119412940C
:1011A00013948DF850600FA9FE4C204604F022F8ED
:1011B000042301220221204604F091F80423022294
:1011C0000321204604F08BF804230322194620460D
:1011D00004F085F804231A460521204604F07FF820
:1011E000042305220C21204604F079F8042306226A
:1011F0000D21204604F073F8042307220E21204617
:1012000004F06DF8042308220F21204604F067F84B
:101210000121204604F0E0F80121204604F0D2F834
:101220000121204604F028F8204604F092F81BB073
:10123000F0BD08B54FF4E06003F084FC25208DF884
:10124000000000208DF801008DF8020001208DF8CB
:101250000300684603F07BFC08BD70B5054696B0F8
:101260000121102003F01CFF0121084603F0F0FECD
:101270000121880503F0ECFE4FF4C06013900220BA
:101280008DF8500000248DF852408DF85340C64E22
:101290008DF8510013A9304603F00CFD07220921F7
:1012A000304603F090FD07220A21304603F08BFD03
:1012B0000F95ADF844400C20BC4DADF84040ADF862
:1012C0004600ADF84240ADF848400FA9284605F069
:1012D0005AF80121284605F0C7F84FF4A06003F042
:1012E00031FC3A208DF854008DF855408DF8564069
:1012F00001208DF8570015A803F029FCAC4E3046AC
:1013000004F016F94FF000600090AA48CDE90204FD
:101310000A200490281D01900015CDE90540801099
:10132000CDE9084040020A9004200B900794032066
:10133000CDE90C04694630460E9404F081F901228F
:101340004021284605F027F901221021304604F0FB
:1013500025FA0121304604F0ACF916B070BDF0B5A5
:101360000646012197B0480503F072FE01214D04A5
:10137000284603F08BFE0121082003F069FE60205F
:10138000139002208DF8500000248DF852408DF803
:101390005340894F8DF8510013A9384603F08AFC59
:1013A00007220521384603F00EFD072206213846A4
:1013B00003F009FD0F96ADF844400C207F4EADF8C8
:1013C0004040ADF84600ADF84240ADF848400FA9A6
:1013D000304604F0D8FF0121304605F045F84FF4BF
:1013E000A06003F0AFFB11208DF854008DF855403C
:1013F0008DF8564001208DF8570015A803F0A7FB83
:101400006F4F384604F094F8A802009040200390F3
:101410006C4802903C200490301D01900015CDE9ED
:1014200005408010CDE908400420CDE90A5007941A
:101430000320CDE90C04694638460E9404F000F907
:1014400001228021304605F0A6F801228021304695
:1014500005F0A1F801221021384604F09FF901217E
:10146000384604F026F917B0F0BD70B505460121E5
:1014700096B0880403F00AFE0121082003F0E8FD7D
:101480000121480503F0E4FD4FF440701390022061
:101490008DF8500000248DF852408DF85340464E90
:1014A0008DF8510013A9304603F004FC07220821EF
:1014B000304603F088FC07220921304603F083FC04
:1014C0000F95414EADF84040ADF844400C25ADF8C5
:1014D0004240ADF84840ADF846500FA9304604F000
:1014E00052FF0121304604F0BFFF4FF4A06003F02B
:1014F00029FB8DF854508DF855408DF85640012049
:101500008DF8570015A803F022FB2D4D783D284695
:1015100004F00EF84FF000600090264869461E3037
:10152000CDE9020408200490301D01900015CDE99A
:1015300005408010CDE9084040020A9004200B903D
:1015400007940320CDE90C0428460E9404F078F8A3
:1015500001224021304605F01EF80122402130468C
:1015600005F019F801221021284604F017F901218D
:10157000284604F09EF8F0E6F0B50646012197B043
:10158000C80403F083FD0121084603F061FD012139
:10159000480503F05DFD0325022013958DF85000EA
:1015A000002413E000200140000002400010014030
:1015B00040640240FC040020000C02400044004053
:1015C000A060024030010020004800408DF85240E9
:1015D0008DF85340F94F8DF8510013A9384603F0A8
:1015E00069FB08220021384603F0EDFB08220121A7
:1015F000384603F0E8FB0F96ADF844400C20F04E5F
:10160000ADF84040ADF84600ADF84240ADF8484076
:101610000FA9304604F0B7FE0121304604F024FF44
:101620004FF4A06003F08EFA0D208DF854008DF871
:1016300055408DF8564001208DF8570015A803F04D
:1016400086FAE04F384603F073FF78050090DE48D5
:10165000CDE9020408200490301D01900015CDE969
:1016600005408010CDE90840400207940A9004200C
:10167000CDE90C540B90694638460E9403F0E0FF18
:1016800001224021304604F086FF012240213046ED
:1016900004F081FF01221021384604F07FF8012177
:1016A000384604F006F8DEE62DE9F04180460121D7
:1016B00096B0480503F0CCFC0121080503F0E6FCD8
:1016C00001210C2003F0C4FC02258DF840500024B9
:1016D0008DF84240BD4F04268DF843400F968DF89B
:1016E00041500FA9384603F0E5FA8DF840508DF8C7
:1016F00042408DF84340E8028DF84150B44D0F90C0
:101700000FA9284603F0D6FA08220221384603F032
:101710005AFB08220C21284603F055FB4FF4A06029
:1017200003F010FA2F208DF8540005208DF8550095
:101730008DF8560001208DF8570015A803F007FA20
:10174000ADF84C400C20A34DADF84840ADF84E002C
:10175000CDF84480ADF84A40ADF8504011A9284674
:1017600004F011FE0121284604F07EFE954F7837E3
:10177000384603F0DDFE700600904020039092484A
:1017800069465138029031200490281D01900015BF
:10179000CDE905408010CDE908404002CDE90A06B8
:1017A00007940320CDE90C0438460E9403F048FF5B
:1017B00001228021284604F0EEFE01221021384645
:1017C00003F0ECFF0121384603F073FF16B0BDE8CB
:1017D000F0812DE9F041054696B00121202003F06B
:1017E0005FFC0121042003F033FC0121880503F094
:1017F0002FFCC020139002208DF8500000248DF89B
:1018000052408DF85340724E8DF8510013A9304666
:1018100003F050FA08220621304603F0D4FA0822D9
:101820000721304603F0CFFAADF844400C20DFF832
:10183000A881ADF84040ADF846000F95ADF84240A4
:10184000ADF848400FA9404604F09DFD01214046F7
:1018500004F00AFE4FF4A06003F074F939208DF80B
:10186000540003268DF8556001258DF856508DF8EB
:10187000575015A803F06BF9584F384603F058FE3F
:10188000B8050090564802A981E8310008F104002B
:1018900001900015CDE905408010CDE908404002D7
:1018A00007940A900420CDE90C640B9069463846F1
:1018B0000E9403F0C5FE01224021404604F06BFE69
:1018C00001221021384603F069FF0121384603F058
:1018D000F0FE7BE730B585B00121082003F0B8FBAE
:1018E0000121880303F0DCFB00240C208DF810405C
:1018F000012503908DF8135003A9344803F0DAF959
:101900000221032004F0B1FE042000908DF8044071
:1019100010208DF805008DF80650684603F0A6FFEC
:1019200008208DF808008DF809408DF80A408DF8E0
:101930000B5002A803F00BF905B030BD10B501281B
:1019400010D0032819D0042822D0052809D1214C11
:10195000204604F0AFFD4021204604F03CFE002864
:10196000F9D010BD1F4C204604F0A4FD40212046B4
:1019700004F031FE0028F9D010BD1B4C204604F0C5
:1019800099FD4021204604F026FE0028F9D010BD24
:101990000B4C204604F08EFD4021204604F01BFE37
:1019A0000028F9D010BD1149002048620C49C91F18
:1019B00008614FF080425062486170470000024069
:1019C000004C0040406002400B050020000C02402B
:1019D000000802400050004000140140286402400A
:1019E00007000020001001400048004000000140B6
:1019F00070B5FF4D00202871044661210120FFF7DA
:101A00009DFF3220FFF719F8641C022CF5D301204A
:101A100028717A20E87070BD10B561210120FFF7B0
:101A20008DFFBDE810403220FFF707B870B5F04DCC
:101A30000020A871044661210320FFF77FFF3220B8
:101A4000FEF7FBFF641C022CF5D30120A8717A205D
:101A5000687170BD2DE9F14F96B0002014908DF89B
:101A600000008DF828004FF40045E148169BE14A3C
:101A7000E14CAE106F1000F580714FF4807A4FF496
:101A800080684FF48059122B7AD2DFE803F00928DE
:101A90002E32363C4248878B8F93979B9FA3ABFD9A
:101AA0000221104603F06CF960B10122294620465C
:101AB00003F07EF92946204603F06CF90146002226
:101AC000CEA08AE000222946204603F071F929467B
:101AD000204603F05FF901460022CFA07DE0C44814
:101AE00001228030016CD4A077E0C16B0222D4A027
:101AF00073E0C1690322D5A06FE0FEF732FF014613
:101B00000422D5A069E0FEF756FF01460522D4A0C5
:101B100063E0FEF778FF01460622D3A05DE0B44CF7
:101B2000E41D2078C00601D4012200E00022D1A1EA
:101B3000684606F0E9FB69460AA806F0E5F8207851
:101B4000800601D4012200E00022CAA1684606F006
:101B5000DBFB69460AA806F0D7F82078400601D4D6
:101B6000012200E00022C3A1684606F0CDFB6946D1
:101B70000AA806F0C9F82078000602D4012201E084
:101B80002DE00022BBA1684606F0BEFB69460AA80C
:101B900006F0BAF807220AA9B7A068E2016B08228A
:101BA000B8A01AE0416A0922B9A016E0016A0A2227
:101BB000BAA012E0816A0B22BCA00EE041780C2290
:101BC000BDA00AE00D22C968BFA006E00E22496848
:101BD000C1A002E00F228968C3A0FEF703FD17B081
:101BE000BDE8F08FDFF80CB30121584603F0C8F8C8
:101BF0000246A0A1684606F087FB69460AA806F0DF
:101C000083F80221584603F0BBF8024699A16846C2
:101C100006F07AFB69460AA806F076F804215846D1
:101C200003F0AEF8024693A1684606F06DFB6946E4
:101C30000AA806F069F80821584603F0A1F8024600
:101C40008CA1684606F060FB69460AA806F05CF8BD
:101C50001021584603F094F8024686A1684606F023
:101C600053FB69460AA806F04FF82021584603F0B6
:101C700087F802467FA1684606F046FB69460AA837
:101C800006F042F8402100E084E0584603F078F87E
:101C9000024678A1684606F037FB69460AA806F0B6
:101CA00033F88021584603F06BF8024671A168466C
:101CB00006F02AFB69460AA806F026F8514658465F
:101CC00003F05EF802466BA1684606F01DFB69460C
:101CD0000AA806F019F84146584603F051F80246A2
:101CE00064A1684606F010FB69460AA806F00CF8E5
:101CF0004946584603F044F802465EA1684606F09D
:101D000003FB69460AA805F0FFFF3146584603F079
:101D100037F8024657A1684606F0F6FA69460AA85F
:101D200005F0F2FF3946584603F02AF8024651A161
:101D3000684606F0E9FA69460AA805F0E5FF294673
:101D4000584603F01DF802464AA1684606F0DCFA40
:101D500069460AA805F0D8FF3146204603F010F87E
:101D6000024644A1684606F0CFFA69460AA805F083
:101D7000CBFF3946204603F003F802463DA16846F2
:101D800006F0C2FA69460AA805F0BEFF10220AA9A9
:101D90003BA06CE180219346104602F0FBFF024617
:101DA00034A1684606F0B0FA69460AA805F0ACFF0F
:101DB0005146A246204602F0EDFF02462DA168469C
:101DC00006F0A2FA69460AA805F09EFF4FF40071DA
:101DD000504602F0DFFF024626A1684606F094FA5C
:101DE00069460AA805F090FF44464146584683E0FC
:101DF000000000200004024000080240524F424F01
:101E0000542044414E4720434841592053414E20DD
:101E1000444F3A2020200000524F424F542044416A
:101E20004E4720434841592053414E2058414E4887
:101E30003A20202000000000494D553A00000000E3
:101E400047582074686F633A0000000042545F589E
:101E50006F61793A00000000454E5F524C3A000035
:101E6000454E5F46523A0000454E5F544F4E473A4A
:101E700000000000256400004C494E4520504841B8
:101E8000493A000068616E672074726F6E673A00AD
:101E90006C617A6520646F633A0000006C617A655A
:101EA000206E67616E673A20000000006C617A6501
:101EB0002076653A20000000766920747269206CF3
:101EC000617A653A000000004C415A455220584161
:101ED0004E483A20000000004C415A4552205452CE
:101EE000554F433A000000004C415A455220444FA0
:101EF0003A0000000010024002F04CFF0246AFF230
:101F00008C01684606F000FA69460AA805F0FCFE56
:101F10004FF400684146584602F03CFF0246AFF2DB
:101F2000AC01684606F0F0F969460AA805F0ECFE37
:101F30004946584602F02EFF0246AFF2C8016846F5
:101F400006F0E2F969460AA805F0DEFE3146584679
:101F500002F020FF0246AFF2E401684606F0D4F931
:101F600069460AA805F0D0FE3946584602F012FF2D
:101F70000246AFF20011684606F0C6F969460AA8A3
:101F800005F0C2FE2946584602F004FF0246AFF2B1
:101F90001C11684606F0B8F969460AA805F0B4FEB7
:101FA0002146FE4C204602F0F5FE0246AFF23C11FF
:101FB000684606F0A9F969460AA805F0A5FE394663
:101FC000204602F0E7FE0246AFF25811684606F0DE
:101FD0009BF969460AA805F097FE4146204602F0A3
:101FE000D9FE0246AFF27411684606F08DF96946D3
:101FF0000AA805F089FE3146504602F0CBFE0246A3
:10200000AFF29011684606F07FF969460AA805F01C
:102010007BFEE34C4146204602F0BCFE0246AFF296
:10202000AC11684606F070F969460AA805F06CFE26
:102030004946204602F0AEFE0246AFF2C81168469D
:1020400006F062F969460AA805F05EFE402158468E
:1020500002F0A0FE0246AFF2E411684606F054F921
:1020600069460AA805F050FE11220AA9CDA0FEF784
:1020700018FBB4E50121CC4803F01BBB11B4CB48DD
:102080000168009A914201DD002101E00168491CCC
:102090000160006818BCDDE42DE9F0470025BF4E63
:1020A000074601244FF400594FF480484FF4805AFA
:1020B00000224146304602F07BFE1020FEF7B1FCC4
:1020C000274201D0012200E000224946304602F0BA
:1020D0006FFE01224146304602F06AFE1020FEF7F4
:1020E000A0FC5146304602F04BFE00B12543600093
:1020F00010F0FF04DCD12846BDE8F08770B5A74E8C
:102100004FF4004500222946304602F051FE1020CF
:10211000FEF787FC0120FFF7BFFF4220FFF7BCFF5F
:10212000FF20FFF7B9FFFF20FFF7B6FFA04C20709C
:10213000FF20FFF7B1FF6070FF20FFF7ADFFA07039
:10214000FF20FFF7A9FFE070FF20FFF7A5FF207138
:10215000FF20FFF7A1FF607129463046BDE87040BF
:10216000012202F025BE70B58C4E4FF400450022CE
:102170002946304602F01CFE1020FEF752FC0120DA
:10218000FFF78AFF4220FFF787FF04460122294616
:10219000304602F00DFE1020FEF743FC204670BDD5
:1021A000844A0021D164C27981490D2A09D0FF20D7
:1021B000087048708870C870087148718871002074
:1021C000704702780A7042784A7082788A70C278C2
:1021D000CA7002790A7142794A7180798871012046
:1021E0007047734873490278FF2A05D14278FF2A65
:1021F00002D18278FF2A09D0CA6C531CCB64C82A4A
:1022000003DDFF2101704170817070470020C864B8
:10221000704767488079704765480078400601D468
:10222000012070470020704761480078C00601D443
:10223000012070470020704701B59DF80000052877
:1022400001D2002008BD9DF8000008BDF0B5594E30
:1022500000271D4606F598744FF0010C002806D0A3
:1022600009DDC0B2FFF7E8FFE070A7700AE096F85A
:102270007800E07006E04042C0B2FFF7DDFFE0709A
:1022800084F802C0002907D00ADDC8B2FFF7D4FFE6
:10229000E07184F806C009E096F87800E07105E086
:1022A0004842C0B2FFF7C8FFE071A771002A06D00C
:1022B00009DDD0B2FFF7C0FFE072A7720AE096F81E
:1022C0007800E07206E05042C0B2FFF7B5FFE0725E
:1022D00084F80AC0002D07D00ADDE8B2FFF7ACFF92
:1022E000E07384F80EC0F0BD96F87800E073F0BD9E
:1022F0006842C0B2FFF7A0FFE073A773F0BD2B499F
:102300003031C870C871C872C8737047274901203E
:102310008039C865704725488038006AA0F5EA41D1
:10232000303901D00120704700207047FFF760BBB3
:102330002048B0F90E00404270471E48B5EEC00A72
:10234000D0ED150AF1EE10FA02D230EE600A01E08B
:1023500030EE200ABDEEC00A10EE100A704710B52C
:10236000041E2DED068B11489FED13AB9FED149BC2
:10237000A0F1800028D0C0682BDA05F06CFE41EC9B
:10238000180B204605F067FE53EC1A2B05F082FD72
:1023900053EC192B05F078FD2AE00000000C0240F8
:1023A000000002404F3A0000A060024000010020FF
:1023B0005C03002000000020333333333333D33F3A
:1023C0009A9999999999B93F9FEDFE0ABDEC068BB0
:1023D00010BD05F040FE41EC180B204605F03BFE19
:1023E00053EC1A2B05F056FD53EC192B05F0ABFC02
:1023F00053EC182B05F0C0FD05F051FE00EE100A5D
:10240000E4E7B5EEC00AF1EE10FA01DAB1EE400AE7
:102410007047002800DA40427047EB4991ED1C0AF2
:10242000D1ED1D1AF1EE400A80EEA11A00EE900ADD
:10243000F8EEE00A01EE200ABDEEC00A10EE100A26
:102440007047B0EE402A9FEDE10AB5EEC02AF1EEEA
:1024500010FA01D2B1EE422AF5EEC00AF1EE10FAFE
:1024600001D2F1EE600AB5EEC01AF1EE10FA01D217
:10247000B1EE411AF5EEC01AF1EE10FA01D2F1EE0A
:10248000611AB4EEC02AF1EE10FA01DDB0EE420A94
:10249000F4EEC00AF1EE10FA01DDB0EE600AB4EE1F
:1024A000C01AF1EE10FA01DDB0EE410AF4EEC01AE6
:1024B000F1EE10FA01DDB0EE610A7047C2488030DB
:1024C000C0687047C0488030806B704770B5BE4CA4
:1024D000BD4D80342DED048BB0EE408A206AA0F50E
:1024E000EA4130393FD0E26A216C95ED181A891A19
:1024F000401A00EE100AB8EEC00AC0EE010A95EDCF
:10250000190A30EE800AD4ED000A60EE208AB0EE9F
:10251000680A05F0C9FFB0EE009A20EE090A84EDC2
:10252000160AB0EE680A05F017FF60EE090AC4ED5E
:10253000150A94ED161A94ED0D0A31EE001A30EEDC
:10254000C00A84ED131A84ED140A00BFB5EEC08AE8
:10255000F1EE10FA6ED0A06805286BD2DFE800F02B
:102560000E1F324156009FED970A84ED160A84ED46
:10257000150A84ED140A84ED130AE7E794ED130AB3
:1025800030EE080A84ED130A94ED140A30EE480A7E
:1025900084ED140A94ED150A30EE080A1EE094ED5D
:1025A000140A30EE480A84ED140A94ED150A30EE50
:1025B000080A84ED150A94ED160AD5ED160A08EE00
:1025C000600A20E094ED130A30EE080A84ED130A45
:1025D00094ED150AD5ED160A08EE200A84ED150AC9
:1025E0000DE094ED130A30EE080A84ED130A94ED21
:1025F000140AD5ED160A08EE600A84ED140A94ED6B
:10260000160A30EE480A84ED160A13E094ED130A18
:10261000D5ED160A08EE200A84ED130A94ED140A8B
:1026200030EE480A84ED140A94ED150A30EE080ADB
:1026300084ED150A04F14C0090EC040AFFF701FF49
:10264000D5ED140AF8EEE00A80EE801ABDEEC10A5C
:1026500010EE100A6061E168814200DDE060012057
:102660006060BDEC048B70BD5749002280310028AA
:102670000A6188610FD19FED530ACA6081ED0D0A8E
:1026800047F230500862486281ED0C0A8A608A6223
:102690008A63CA651AE770474B48803090ED0C0A90
:1026A000B5EEC00AF1EE10FA04D1816811B9816A61
:1026B000002909D09FED430A002180ED0C0A8160BA
:1026C0008162016CC16201E770473F48C0ED1C0A9E
:1026D00080ED1D0A70473C4A8032136A834209D15B
:1026E00013698B4206D1D2ED0D0AF4EE400AF1EEE9
:1026F00010FA0ED01161D16809B90521D160116CB1
:10270000D16282ED0D0A10620020D06192ED0C0AB8
:10271000DCE670472C4A30B48032936A834209D198
:10272000D2ED0C0AF4EE400AF1EE10FA02D19368F1
:102730008B4226D0146A47F230539C4219D163244D
:1027400014610524D460984213DAB5EEC00A01235F
:10275000F1EE10FA936302DD136C834207DCB5EEF1
:10276000C00AF1EE10FA04D2136C834201DAB1EE22
:10277000400A9160906282ED0C0A0020D06130BC6A
:10278000A4E630BC7047014647F23050C2E79FEDE7
:102790000D0AA0E710B50C4C2DED028B8034F0EE45
:1027A000608AD4ED090AB0EE418AF8EEE00AF4EE50
:1027B000400AF1EE10FA12D1216981420FD1D4ED15
:1027C0000A0A05E000000000000000206F12833AB2
:1027D000F8EEE00AF4EE680AF1EE10FA4BD0FDEEE6
:1027E000C00A0146C4ED090AD4ED100AF8EEE00A69
:1027F00030EE600ABDEEC00A10EE102A1FED0F0A7F
:102800001046FFF768FF94ED100AF8EEC00A78EE64
:10281000E00AFDEEE00A10EE900A002800DA4042DD
:10282000B8EEC00A642819DDF4EEC08AF1EE10FAA1
:1028300001DCB1EE488A18EE100A05F01DFC00BF5D
:1028400005F02DFCFDEEE80ABDEC028B00EE100A4F
:10285000BDE81040002110EE900A5BE738EEC00A98
:1028600010EE100A05F008FC9FEDFE1B53EC112B37
:1028700005F010FBE4E7BDEC028B10BD70B50D4612
:102880002DED048B06461446F0EE418AB0EE609AB8
:10289000B0EE408A0221F54802F072FA78EE281A6A
:1028A00038EE680AF24B012807D0D868401BA042D6
:1028B0001BDD00BFB0EE610A05E09868A0EB0500E3
:1028C000A042F7DC05DAB7EE001AF0EE490A30460E
:1028D00006E0B7EE001AF0EE490A3046B0EE480ABC
:1028E000BDEC048BBDE8704054E7F2DAEBE7E04B57
:1028F0005B68591ADFEDDF1A914202DD30EE410AC2
:1029000002E001DA30EE010AB0EE611A42E7D8497E
:1029100010B58039886B012826DD0A6C886A801A18
:10292000FFF777FD062809DA886B421C8A63B0F549
:10293000FA7F19DDBDE81040002095E605208A6B7E
:102940000861FA2AC86001DDFB2088638A6A086C86
:10295000904202DDBFEE000A01E0B7EE000A81ED11
:102960000C0ABDE81040B1E510BD70B5C049803912
:1029700091ED0D0AB5EEC00AF1EE10FA73D1CB68F5
:10298000002B70D0886A47F23054A0426BDA91ED88
:102990000C0AB5EEC00AF1EE10FA7CD00D6AA1F176
:1029A0008002A54260D1B5EEC00A1346F1EE10FADE
:1029B000DB6E03DD0D6CC41AAC4208DBB5EEC00A59
:1029C000F1EE10FA17D20C6C0344A34213DD8B6BAB
:1029D000032B48DA0B6CC01AFFF71BFD0A28886A24
:1029E0000ADAC8630020C8601FED8A0A086181ED19
:1029F0000C0A0220886378E091ED030AD1ED0C0AFD
:102A00000B6CB8EEC00A984260EE200A92ED1B0AE9
:102A1000B8EEC01A80EE810A0FDDFFF7F2FC0B6CF6
:102A2000886AC01AFFF7F5FC00EE900AB8EEE01ACB
:102A3000D2ED170A40EE010A0EE0FFF7E2FC0B6C44
:102A4000886AC01AFFF7E5FC00EE900AB8EEE01ABB
:102A5000D2ED170A50EE410A91ED030AB8EEC01A02
:102A600080EE810A41E045E0834AB5EEC00AD2ED2E
:102A70001A0AF1EE10FA18DD01EE100AF8EEC11A8A
:102A800001EE103AB8EEC11A41EE401AB8EEE01A63
:102A900071EEC11A00E02BE091ED101AB8EEC11AE8
:102AA000F4EEC11AF1EE10FA1BD3B5EEC00AF1EE46
:102AB00010FA1AD201EE100AF8EEE00AF8EEC11A86
:102AC00001EE103AB8EEC11A41EE401A31EEA01AEA
:102AD000D1ED100AF8EEE00AB4EEE01AF1EE10FAC9
:102AE00003DD096C401AFFF73AFCBDE87040EDE4E5
:102AF000C86AF6E770BD5E498039886B02280CDA37
:102B00001FEDD00A002281ED0D0A81ED0C0A47F27B
:102B100030508A600862C1E90902CB6956485B1CE3
:102B2000CB61C26F806F934201DBCA61C96DFFF751
:102B3000E6BB4F4A803AD3695B1CD361834204DD14
:102B4000D0680844D0600020D061704710B5FFF70E
:102B5000EFFB474C803C2064FFF7D9FE2269E06818
:102B60004FF0FF31002A0BDD90420ED006DA61698A
:102B700088420ADAFFF751FC022104E0A06C02E06F
:102B800000283CDDA069FFF7D4FFD4E910018142A1
:102B900003D0FFF7EAFE206C60646068002831D043
:102BA00094ED030AD4ED160AB8EEC00A20EE200A0E
:102BB000FFF7C3FB94ED030AD4ED150A0346B8EE04
:102BC000C00A20EE200AFFF7B8FB94ED030AD4ED0B
:102BD000140A0246B8EEC00A20EE200AFFF7ADFB49
:102BE00094ED030AD4ED130A0146B8EEC00A20EEB4
:102BF000200AFFF7A2FBBDE81040FFF727BBBDE8A6
:102C0000104078E710BD2DE9F05F19488038006C5E
:102C1000002800DA4042184C40F28A21174DDFF8B4
:102C200050B0DFF8488004F51F7604F53B77884202
:102C30007EDD04F50071DBF804008A68824229DD3C
:102C40004B68834226DA28686063A869A063022182
:102C5000404602F095F8C0EBC00006EB8000022170
:102C6000C06B0DE07B14AE47E17A743F0004024074
:102C700000010020CDCC4C3E000000201C020020B2
:102C8000E063404602F07CF8C0EBC00007EB800038
:102C9000C06B1BE0CB6883421BDD824219DA686897
:102CA0006063E869A0630221404602F069F8C0EB66
:102CB000C00006EB80000221006CE063404602F099
:102CC0005FF8C0EBC00007EB8000006C2064BDE83B
:102CD000F09F0A69824219DD834217DAA8686063AF
:102CE000286AA0630221404602F04AF8C0EBC00007
:102CF00006EB80000221406CE063404602F040F8A1
:102D0000C0EBC00007EB8000406CDFE74B698342FB
:102D10001BDD824219DAE8686063686AA0630221F9
:102D2000404602F02DF8C0EBC00006EB800000E04A
:102D300042E0806CE0630221404602F021F8C0EBE3
:102D4000C00007EB8000806CC0E78969814219DD13
:102D5000834217DA28696063A86AA06302214046AB
:102D600002F00EF8C0EBC00006EB80000221C06C40
:102D7000E063404602F004F8C0EBC00007EB8000BF
:102D8000C06CA3E78142A2DA68696063E86AA06365
:102D90000221404601F0F4FFC0EBC00006EB8000CA
:102DA0000221006DE063404601F0EAFFC0EBC00085
:102DB00007EB8000006D89E70221C146404601F023
:102DC000DFFFDFF8F48301284FF002013CD0FB481D
:102DD00001F0D6FFC0EBC001A8F1840A0AEB810024
:102DE000D9468168DBF80C0081427DDADFF8CCB38C
:102DF0000221584601F0C4FFC0EBC0010AEB81007C
:102E00004168D9F80C0081426EDD28686063A869CA
:102E1000A06302215D46584601F0B2FFC0EBC0003E
:102E200006EB800002214068E063284601F0A8FF1D
:102E3000C0EBC00007EB800040682064D8F80010A9
:102E40006164D8F818003BE1CA46484601F098FF93
:102E5000DFF86493C0EBC001A9F1840909EB81009C
:102E60004169DBF80C00814225DA0221504601F06D
:102E700087FFC0EBC00109EB81008169DBF80C0022
:102E8000814218DD06206070A869A06302215546C2
:102E9000504601F075FFC0EBC00006EB8000022138
:102EA0008069E063284601F06BFFC0EBC00007EBD0
:102EB00080008069C1E70221504601F061FFC0EB4C
:102EC000C00109EB81000169DBF80C00814229DABD
:102ED0000221504601F054FFC0EBC00109EB810014
:102EE0004169DBF80C0000E0ECE081421ADD0520CE
:102EF000607068686063E869A063022155465046C7
:102F000001F03EFFC0EBC00006EB800002214069EB
:102F1000E063284601F034FFC0EBC00007EB8000FF
:102F2000406904E10221A54801F02AFFC0EBC0017D
:102F300009EB8100CA46C168DBF80C00D946814222
:102F400029DADFF878B20221584601F019FFC0EB08
:102F5000C0010AEB81000169D9F80C0081421ADD39
:102F600004206070A8686063286AA06302215D463F
:102F7000584601F005FFC0EBC00006EB80000221BF
:102F80000069E063284601F0FBFEC0EBC00007EBE0
:102F90008000006908E1DFF824B20221584601F000
:102FA000EFFEC0EBC0010AEB81008168D9F80C008C
:102FB000814227DA0221584601F0E2FEC0EBC0014F
:102FC0000AEB8100C168D9F80C0081421ADD0320A8
:102FD0006070E8686063686AA06302215D465846D5
:102FE00001F0CEFEC0EBC00006EB80000221C068FD
:102FF000E063284601F0C4FEC0EBC00007EB800090
:10300000C06811E10221584601F0BAFEC0EBC001D0
:103010000AEB81004168D9F80C00814227DA0221CD
:10302000584601F0ADFEC0EBC0010AEB810081689B
:10303000D9F80C0081421ADD0220607028696063B3
:10304000A86AA06302215D46584601F099FEC0EBD4
:10305000C00006EB800002218068E063284601F092
:103060008FFEC0EBC00007EB8000806815E10221F5
:10307000584601F085FEC0EBC0010AEB81004168B3
:10308000D9F80C0081427FF722AE01206070686998
:103090006063E86AA06302215D46584601F070FE55
:1030A000C0EBC00006EB800002214068E0632846C8
:1030B00001F066FEC0EBC00007EB8000406819E13C
:1030C000A06404E602213D4801F05AFEC0EBC001B5
:1030D0000AEB8100CB46C168D9F80C0081422DDA99
:1030E000DFF8D8900221484601F04AFEC0EBC0014B
:1030F0000AEB81008168DBF80C0081421EDD686804
:103100006063E869A06302214D46484601F038FE3D
:10311000C0EBC00006EB800002218068E063284617
:1031200001F02EFEC0EBC00007EB80008068206439
:10313000D8F804106164D8F81C00C1E702211F48C8
:1031400001F01EFEC0EBC0010AEB8100D14601690F
:10315000DBF80C00DA46814232DADFF860B0022197
:10316000584601F00DFEC0EBC00109EB8100C168BB
:10317000DAF80C00814223DDA8686063286AA06346
:1031800002215D46584601F0FBFDC0EBC00006EB96
:1031900080000221C068E063284601F0F1FDC0EB29
:1031A000C00007EB8000C0682064D8F80810616494
:1031B000D8F8200084E700004C0200200004024000
:1031C000DFF838B50221584601F0DAFDC0EBC00146
:1031D00009EB81004169DAF80C0081422BDA022107
:1031E000584601F0CDFDC0EBC00109EB810001693B
:1031F000DAF80C0081421EDDE8686063686AA0634B
:1032000002215D46584601F0BBFDC0EBC00006EB55
:10321000800002210069E063284601F0B1FDC0EBA7
:10322000C00007EB800000692064D8F80C106164CE
:10323000D8F8240044E70221584601F0A1FDC0EB74
:10324000C00109EB81008169DAF80C0081422BDAB8
:103250000221584601F094FDC0EBC00109EB81004A
:103260004169DAF80C0081421EDD28696063A86AB2
:10327000A06302215D46584601F082FDC0EBC0000C
:1032800006EB800002214069E063284601F078FDEA
:10329000C0EBC00007EB800040692064D8F8101034
:1032A0006164D8F828000BE70221584601F068FD58
:1032B000C0EBC00109EB81008169DAF80C008142A2
:1032C0007FF7FFAE68696063E86AA06302215D462C
:1032D000584601F055FDC0EBC00006EB800002210E
:1032E0008069E063284601F04BFDC0EBC00007EBAE
:1032F000800080692064D8F814106164D8F82C002C
:10330000DEE630B5FE4A64204FF4E1749061D56981
:10331000002302F59871A5420ADDC87481F81230C5
:10332000FEF77AFF10B9D069A042F9DCCB7430BD4A
:10333000A542FBDAC874012081F81200FEF76CFF89
:103340000028F3D1D069A042F8DBEFE7704770B5F1
:10335000EC4CEB4D2078C00708D1287BC043287384
:10336000012004F060F92078C007F9D02A7BE648F4
:10337000002132B1FE22C27601238376C2758175A7
:1033800070BDC175C17670BD2DE9F047DD4A9078FA
:10339000401FF52801D8012500E000251079401FC5
:1033A000F52801D8012600E00026D6491078497892
:1033B000C3060ED543060CD583060AD5030608D5E9
:1033C0003DB136B18B0604D5BDE8F0470220FFF7CA
:1033D0004BB94B0702D43221142403E0C90717D09C
:1033E0001E210A249246C64FC206DFF8149307F145
:1033F000800747F230584FEA40620CD4002A46DA80
:1034000082064FEA006020D5002823DA002029E058
:103410000A210724E6E7002A4FEA806208DB002A37
:103420004FEA006018DA00281BDA4FF4E16019E077
:10343000002A4FEA006004DB002828DA4FF46170AC
:1034400010E000281ADBB1480CE000281FDA4FF426
:10345000E17007E0AE4805E0002818DA40F2465077
:1034600000E0AC48FFF793F99AF80000C1060ED5CA
:1034700041060CD581060AD5000608D545B956B1D6
:10348000396A414507D00520FFF7EEF803E015B192
:10349000FFF702F92DE09AF80210012250460529A3
:1034A00010D24378DB070DD0396A414503D00020A4
:1034B000BFEE080A12E089F8002023466242104657
:1034C000194614E0FA291BD99AF80100C00717D051
:1034D000396A414505D00020B7EE080AFFF753F9D5
:1034E00007E089F800206342224619461046FEF79D
:1034F000ADFE002189F80010BDE8F047FFF7CCB819
:1035000002231A4619461846F1E72DE9F0477D498E
:103510008878401FF52801D8012500E000250879AA
:10352000401FF52801D8012600E00026754A0878DA
:103530005278C3060ED543060CD583060AD503067A
:1035400008D53DB136B1930604D5BDE8F047022059
:10355000FFF78AB8530702D43222142403E0D207BB
:1035600017D01E220A248A46654FC106DFF89091C3
:1035700007F1800747F230584FEA40610CD4002928
:1035800038DA810636D5000634D511464FF4E160AD
:103590001BE00A220724E6E700294FEA806106DBE8
:1035A000002927DA000625D5114600200DE0002964
:1035B0004FEA006004DB00281CDA1146534804E09F
:1035C00000280EDB11464FF46170FFF7E0F89AF81F
:1035D0000000C1060ED541060CD581060AD50006AD
:1035E00008D545B956B1396A414507D00520FFF7DE
:1035F0003BF803E015B1FFF74FF82DE09AF80220F1
:1036000001215046052A10D24378DB070DD03A6AD3
:10361000424503D00020BFEE080A12E089F80010EE
:10362000234662421046194614E0FA2A1BD99AF83A
:103630000100C00717D03A6A424505D00020B7EE16
:10364000080AFFF7A0F807E089F800106342224655
:1036500019461046FEF7FAFD002189F80010BDE872
:10366000F047FFF719B802231A4619461846F1E742
:1036700070B52348284A803000F18003056E691C2C
:10368000016601464C6E0021642D03D2D5892C447D
:10369000446605E06425B4FBF5F45C6001664166B0
:1036A000866E741C8466164C8034E56E3224322E8D
:1036B00003D296893544C56604E0B5FBF4F59D60F8
:1036C0008166C166866F751C85670D4D8035322E0B
:1036D000ED6F03D213892B44C36704E0B5FBF4F507
:1036E000DD608167C167036F5D1C0567044D803530
:1036F000322B6D6F12D2D188294414E000040240AD
:10370000000000205C030020300100207CFCFFFF53
:103710003EFEFFFFBAFAFFFFEC040020B5FBF4F217
:10372000FE4BDA610167416770BD704770B5FC4CB4
:10373000FA4D607841070CD4C0060AD4287AC043F9
:103740002872012003F06FFF6078410701D4C006A2
:10375000F7D5287AF34EE8B301228021304601F0F4
:1037600027FB607841070CD480060AD4687AC043EE
:103770006872012003F057FF6078410701D480068A
:10378000F7D5687A4FF4806128B30122304601F002
:103790000FFB607841070CD400060AD4A87AC04316
:1037A000A872012003F03FFF6078410701D40006B2
:1037B000F7D5A87A4FF4805110B30122304601F0BA
:1037C000F7FA607841070FD440060DD4287BC04338
:1037D000287301E010E011E0012003F024FF60787D
:1037E000410701D44006F4D52A7BCF4800214AB1D5
:1037F0009622C275817570BD0022AEE70022C5E732
:103800000022DBE7C175C17670BD2DE9F047C44CDD
:10381000DFF81893C14D6078C10739D1C14FC00698
:103820004FF400664FF480780CD4012231463846BC
:1038300001F0BEFA01224146484601F0B9FA60782B
:10384000C00725D16078000607D4002231463846EB
:1038500001F0AEFA6078C0071AD16078800607D40C
:1038600000224146484601F0A3FA6078C0070FD114
:10387000607840060CD4E87AC043E87205E0012085
:1038800003F0D1FE6078C00702D160780006F6D55B
:10389000E87A4FF4007128B100224846BDE8F047AD
:1038A00001F086BA0122F8E79C4810B564218161D5
:1038B0009B484FF0000342789B4854070AD5940672
:1038C00002D4C174837410BD120603D4C1740121E3
:1038D000817410BDC37410BD704710B50122402122
:1038E000904801F065FA0122BDE8104051028F486E
:1038F00001F05EBA2DE9F05F884D6420A861FFF702
:1039000082F9874C607841077ED4864FC00611D477
:1039100001228021384601F04BFA002279158348B4
:1039200001F046FA00224021384601F041FA607861
:10393000400769D4A04660787B4C00064FF001092F
:103940004FF4806A4FF4805B4FF0000657D4012299
:103950005146384601F02CFA01225946384601F00A
:1039600027FA00228021384601F022FA95F8440017
:10397000E077494684F81E9095F83420E275A675E4
:10398000E27684F81A90EA6BE86990420DDD287EB1
:10399000E074A67403E000BFFEF73EFC90B9E86B4C
:1039A000E96916308142F7DC0CE00BDA287EE0741E
:1039B000A17402E0FEF730FC20B9E86BE969163823
:1039C0008142F7DBE6744FF47A70FDF736F8002297
:1039D0005146384601F0ECF900225946384601F0CC
:1039E000E7F901228021384601F0E2F9E677E67630
:1039F000E675FFF786FC98F80100400758D498F860
:103A00000100800654D400E052E0012251463846BD
:103A100001F0CEF901225946384601F0C9F90022D9
:103A20008021384601F0C4F995F84800E077A67780
:103A300095F83800E075A675E076484684F81A9047
:103A40002A6CE96991420CDD287EE074A67402E0DC
:103A5000FEF7E2FB90B9286CE96916308142F7DC89
:103A60000CE00BDA297EE174A07402E0FEF7D4FBCF
:103A700020B9286CE96916388142F7DBE6744FF407
:103A80007A70FCF7DAFF00225146384601F090F9CF
:103A900000225946384601F08BF901228021384630
:103AA00001F086F9E677E676E675BDE8F05F28E492
:103AB000BDE8F09F2DE9F04118488030006C0028E7
:103AC00000DA4042164C4FF4E1656E10774261789F
:103AD000B0F5487F4FEA41704CDD002848DAC8064F
:103AE0000DD4FDF760FF14212846FEF750FE00BFFD
:103AF000FCF789FF3228FBDB6078400738D5607817
:103B0000400617D4FDF74FFF14210020FEF73FFEBB
:103B1000FCF779FF3228FBDB607809E00000002029
:103B20005C03002000040240300100200008024035
:103B300040071DD5607800060DD4FDF734FF142131
:103B40003046FEF724FE00BFFCF75DFF3228FBDBAA
:103B5000607840070CD56078800609D4FDF723FF14
:103B600014213846FEF713FEFCF74DFF3228FBDB2D
:103B7000BDE8F0810028FBDAC8060CD4FDF713FF7E
:103B800014210020FEF703FEFCF73DFF3228FBDB8B
:103B900060784007ECD5607840060CD4FDF703FF51
:103BA00014212846FEF7F3FDFCF72DFF3228FBDB3E
:103BB00060784007DCD5607800060CD4FDF7F3FE92
:103BC00014213846FEF7E3FDFCF71DFF3228FBDB2E
:103BD00060784007CCD560788006C9D4FDF7E3FE55
:103BE00014213046FEF7D3FDFCF70DFF3228FBDB36
:103BF000BEE710B5FFF758FEBDE810407AE6FB4B74
:103C000010B518784FF00001C40603F1F9004FF029
:103C1000010201D4016100E002611C78A40601D414
:103C2000416100E042611C78640601D4816100E0DA
:103C300082611C78240601D4C16100E0C2611C7855
:103C4000E40705D002621C78A40703D4416202E0B5
:103C50000162F8E742621C78640701D4816200E0E7
:103C600082621B781B0701D4C16210BDC26210BD05
:103C700010B5FDF7D1FEBDE81040FDF794BE2DE96B
:103C8000F041DA4CDA4FE41F04F5DC78A07804F553
:103C9000B67604F5D27501281BD1206B01281CD003
:103CA00002285DD10221384601F06AF8C0EBC0005D
:103CB00006EB8000022180682062206B55F820000E
:103CC0006062384601F05CF858F83000A06228695C
:103CD000E062A078022810D02CE00221384601F0E2
:103CE0004FF8C0EBC00006EB800040682062206BFC
:103CF00055F820006062E868EAE7206B012830D0C0
:103D000002282DD10221384601F03AF8C0EBC0005C
:103D100006EB8000022100692062206B55F820002C
:103D20006062384601F02CF808EBC0004068A062E1
:103D30002869E062A078032812D1206B012820D0E6
:103D400002280DD10221384601F01AF8C0EBC0005C
:103D500006EB800080692062206B55F820006062CD
:103D600006E70221384601F00BF8C0EBC00006EB75
:103D70008000C0682062206B55F820006062E8680F
:103D8000D7E70221384600F0FBFFC0EBC00006EB8E
:103D9000800040692062206B55F820006062E8686E
:103DA000E062E5E62DE9F05FDFF84482022140465B
:103DB00000F0E6FF8F4DDFF840B2904FA5F1C80646
:103DC0004FF001094FF0020AA5F5E474012825D04F
:103DD0000020A0610221404600F0D2FFC0EBC000ED
:103DE000A16905EB800000EB8100F1684068884222
:103DF0007EDA0221404600F0C3FFC0EBC000A1699B
:103E000005EB800050F82100F16888427EDD4FF418
:103E10008061584600F0B4FFF0B356E00620A06180
:103E20000221404600F0ACFFC0EBC000A16905EBE9
:103E3000800000EB8100F16850F8040C88423BDA06
:103E40000221404600F09CFFC0EBC000A16905EBD9
:103E5000800050F82110F06881422DDD4FF4806120
:103E6000584600F08DFF20B9A16907EB810141F8A8
:103E7000049C4FF40061584600F082FF20B9A1690C
:103E800007EB810141F804AC4FF48051584600F033
:103E900077FF30B9A16900E014E007EB8101C1F8B8
:103EA00014904FF40051584600F06AFF20B9A16900
:103EB00007EB8101C1F814A0A069401EA061002891
:103EC000AEDCF5E5A16947F821904FF40061584652
:103ED00000F056FF10B9A16947F821A04FF48051B6
:103EE000584600F04DFF30B9A16907EB810100E0B1
:103EF0000CE0C1F818904FF40051584600F040FF14
:103F000020B9A16907EB8101C1F818A0A069401E82
:103F1000A0610628FFF65EAFCAE52DE9F0412DED60
:103F2000088BFDF740FD0221314800F029FF9FED8D
:103F3000388A304D0027C83DB0EE480ADFED30AA80
:103F40009FED30BADFED308ADFED309A2A4E01283E
:103F50004FF49B78A5F58074B0EE401AF0EE400A5D
:103F60004FF0140002D0FEF715FCB1E0FEF712FC92
:103F700006E000BFFEF750F930B9012003F053FB13
:103F8000FCF741FD0628F5DBF0EE480AB0EE6AAA20
:103F9000B0EE601A1920B0EE4A0AFEF7FBFB05E00E
:103FA000FEF73AF930B9012003F03DFBA868A16A99
:103FB0008842F5DCB0EE699AA7610AE00222B0EE11
:103FC000681AF0EE480A5020B0EE490AA16AFEF7DE
:103FD00055FCE06A696814388142EFDBA069401C37
:103FE000A0613228F5DBA76147461EE007000020EC
:103FF00000040240C8010020001002400804002014
:1040000000006144000061C4000048C20000E144B7
:10401000000000000222B0EE681AF0EE480A1420F8
:10402000B0EE490AA16AFEF729FC6868B842F1DBE4
:10403000A069401CA0613228F7DBA868A16A884209
:104040001CDAF0EE480A0A20B0EE601AB0EE4B0A15
:10405000FEF7A0FB06E000BFFEF7DEF870B9012016
:1040600003F0E1FA0221304600F08AFE0128F3D085
:104070000121304600F084FE0128EDD0A868A16A35
:1040800088421CDDF0EE480A0A20B0EE601AB0EE5D
:104090004A0AFEF77FFB06E0FEF7BEF800280ED1C5
:1040A000012003F0C0FA0221304600F069FE012829
:1040B000F2D00121304600F063FE0128ECD0BDECC7
:1040C000088B55E5FEF7A8F830B9012003F0ABFAEC
:1040D000FCF799FC0628F5DBB0EE489AB0EE4BAA47
:1040E000F0EE490A1920B0EE601AB0EE4A0AFEF767
:1040F00051FB05E0FEF790F830B9012003F093FA88
:10410000E868A16A8842F5DCB0EE688AF0EE698A58
:10411000A7610AE00222B0EE481AF0EE490A5020E8
:10412000B0EE680AA16AFEF7A9FBE06A6968143874
:104130008142EFDBA069401CA0613228F5DBA7615A
:1041400047460AE00222B0EE481AF0EE490A14206F
:10415000B0EE680AA16AFEF791FB6868B842F1DB2D
:10416000A069401CA0613228F7DBE868A16A884298
:104170001CDAF0EE490A0A20B0EE601AB0EE6A0AC4
:10418000FEF708FB06E000BFFEF746F870B9012015
:1041900003F049FA0221304600F0F2FD0128F3D085
:1041A0000121304600F0ECFD0128EDD0E868A16A5D
:1041B000884284DDF0EE490A0A20B0EE601AB0EEC3
:1041C0004A0AFEF7E7FA07E0FEF726F800287FF430
:1041D00076AF012003F027FA0221304600F0D0FD2F
:1041E0000128F1D00121304600F0CAFD0128EBD0B2
:1041F00065E72DE9F0412DED028BFFF740FDFFF75C
:1042000037FD6420FCF719FCFD4C0122D102204649
:1042100000F0CEFDFB4F01221102384600F0C8FD30
:104220006420FCF70AFC4FF400780022414638462F
:1042300000F0BEFD4FF4C870FCF7FFFB02212046E2
:1042400000F09EFD00261FED8E8AEF4D0128A5F59A
:104250008074A66102D0DFEDED8A3AE0DFEDEC8AF2
:104260000AE0B0EE480A0222B0EE681AF0EE400A08
:104270005020216AFEF702FBE06A69681E30814225
:10428000EFDCA069401CA0613228F5DBA6610AE0E2
:10429000B0EE480A0222B0EE681AF0EE400A192089
:1042A000216AFEF7EBFA606A696819308142EFDC37
:1042B000A069401CA0613228F5DB2BE0B0EE480A73
:1042C0000222B0EE681AF0EE400A5020216AFEF792
:1042D000D5FAE06A69681E308142EFDCA069401CB3
:1042E000A0613228F5DBA6610AE0B0EE480A02229E
:1042F000B0EE681AF0EE400A1920216AFEF7BEFA05
:10430000606A696819308142EFDCA069401CA061D5
:104310003228F5DB1420FEF7A7F9BDEC028B4146ED
:104320003846BDE8F041012200F042BD70B52DEDE8
:10433000028BFFF7A4FC0221B14800F021FD00210F
:104340001FEDCD8AB04D0128A5F58074A16102D082
:10435000DFEDB08A23E0DFEDB08A0AE0B0EE480A74
:104360000222B0EE681AF0EE400A1420216AFEF72D
:1043700085FA606A6968C01D8142EFDCA069401C53
:10438000A0613228F5DB14E0B0EE480A0022B0EE5E
:10439000681AF0EE400A1420216AFEF76FFA606A8C
:1043A0006968401D8142EFDCA069401CA061322891
:1043B000F5DBBDEC028B0020BDE87040FEF754B980
:1043C0002DE9F05F8E4D0221284600F0D9FC934C78
:1043D000022601270128DFF82C92206B4FF4006899
:1043E0004FF4807A4FF4007B0AD002282AD00022B2
:1043F0005146484600F0DCFC2663BDE8F05F95E7D7
:10440000012812D0FFF73BFC002251464E46484699
:1044100000F0CEFCA07803280BD000BFFFF77DFD95
:10442000A078401CA07027634BE500224146284637
:10443000E0E701228021284600F0BAFC002259461C
:10444000304611E0FFF71BFC00224146284600F0F1
:10445000AFFCA0780328E1D101228021284600F09A
:10446000A7FC00225946484600F0A2FC2846BDE8B9
:10447000F05F0022402100F09BBC70B5FFF7F8FB15
:10448000664D02202863FFF7FAFB02215C4800F02A
:1044900077FCDFED630A634C0128B0EE601A4FF041
:1044A0000F0004D09FED600AFEF774F91EE09FED47
:1044B0005F0AFEF76FF905E0FDF7AEFE10BB0120C5
:1044C00003F0B1F80221204600F05AFC0128F3D095
:1044D0000121204600F054FC0128EDD012E000BF7D
:1044E000FDF79AFE70B9012003F09DF802212046E5
:1044F00000F046FC0128F3D00121204600F040FCEA
:104500000128EDD0A878401CA8700120286370BD58
:104510002DE9F0472DED068BFFF7AAFB0221384865
:1045200000F02EFC9FED429ADFED3F8A3B4E9FED5F
:104530003C8A354C3B4D4FF48A794FF496770128ED
:104540000BD0B6EE001ADFED3B9AF0EE480A3220AF
:10455000B0EE690AFEF71EF9C8E0DFED379A9FED6D
:104560002EAAB0EE481AF0EE690A3220B0EE4A0ADE
:10457000FEF710F906E000BFFDF74EFE30B901204E
:1045800003F051F8FCF7EDF9B842F5DBB0EE481A4C
:10459000F0EE690A3220B0EE4A0AFEF7FBF84FF45B
:1045A0009C7705E0FDF738FE28B9012003F03BF8C1
:1045B0006068B842F6DCFFF790F9DFED1C9AF0EE88
:1045C000480A1920B0EE601AB0EE690AFEF7E2F868
:1045D0004FF48B7806E000BFFDF71EFE28B90120DE
:1045E00003F021F8A0684045F6DAF0EE480A0D2005
:1045F000B0EE601AB0EE490AFEF7CCF824E00000F5
:104600000004024000080240000100200000C8C26F
:104610000000C8420000C8C30000E14300000020C1
:104620000000000000100240000061C4000061446E
:104630000000E1440000E1C300802244FDF7ECFDEE
:1046400028B9012002F0EFFF6068B842F6DBA068ED
:10465000B0F5867F1DDAF0EE480A0A20B0EE601A47
:10466000B0EE680AFEF796F806E000BFFDF7D4FD4D
:1046700070BB012002F0D7FF0221284600F080FB2A
:104680000128F3D00121284600F07AFB0128EDD063
:104690001EE048451CDBF0EE480A0A20B0EE601A26
:1046A000B0EE690AFEF776F806E000BFFDF7B4FD4C
:1046B00070B9012002F0B7FF0221284600F060FB2C
:1046C0000128F3D00121284600F05AFB0128EDD043
:1046D000B078401CB070BDEC068BBDE8F08700BF21
:1046E000FDF79AFD30B9012002F09DFFFCF763F958
:1046F000B842F5DBB6EE001AF0EE480A3220B0EE12
:10470000690AFEF747F84FF49D7705E0FDF784FD51
:1047100028B9012002F087FF6068B842F6DAFFF797
:10472000DCF8B6EE001AF0EE480A1420B0EE680A83
:10473000FEF730F84FF48F7806E000BFFDF76CFD10
:1047400028B9012002F06FFFE0684045F6DAB6EEC6
:10475000001AF0EE480A0F20B0EE490AFEF71AF8E8
:1047600006E000BFFDF758FD28B9012002F05BFF0D
:104770006068B842F6DDE068484519DA0A2140F27F
:10478000B630FEF704F806E0FDF746FD00289FD19D
:10479000012002F048FF0221284600F0F1FA01282A
:1047A000F2D00121284600F0EBFA0128ECD08FE787
:1047B000B0F58D7F8CDB0A216748FDF7E8FF06E046
:1047C000FDF72AFD002883D1012002F02CFF0221F1
:1047D000284600F0D5FA0128F2D00121284600F041
:1047E000CFFA0128ECD073E7FFF792FE4FF4FA748A
:1047F0005A4D0BE0FFF7FDFC2046FCF71EF9FFF7D2
:10480000DFFD2046FCF719F9FFF7DAFDA878032849
:10481000F0D1FEE71120FDF731FC0F2002F003FF7D
:10482000F8E700BFFFF7E5F90A2002F0FCFEF9E720
:104830004A4C00BFFEF71CFFFFF7E1F9207808B9EA
:10484000FEF784F9052002F0EEFEF3E71FB5FCF752
:1048500000F9FCF731F9FCF734FAFCF705FBFCF73B
:10486000BEFBFCF731FCFCF78DF94FF4E134204638
:10487000FCF7F3FC2046FCF772FD2046FCF7F5FD43
:104880002046FCF779FEE000FCF70EFFFDF7B0F8DC
:10489000FDF789F800244FF4807500940194029488
:1048A00023462A462EA13348039402F0E5FC0094E7
:1048B0000194029400232A462FA13448039402F065
:1048C000DBFC264D05F5577424E000BFFEF75CFDC8
:1048D0002078C00701D1FFF7D0FD2178A87801F03A
:1048E0000802024308D009070ED4012807D0022885
:1048F00005D0032803D007E0FFF70AFE04E0286B89
:10490000012801D1FFF775FC607810F0480F01D144
:10491000FFF756FDA0797328FCD1D7E77FB50024B7
:104920004FF4807500940194029423462A4618A1FE
:104930001A48039402F0A0FC00940194029400230E
:104940002A4617A11948039402F096FC02F0BAFF18
:1049500004B0002070BD00004AFCFFFF00000020F2
:104960007461736B526F626F74416E616C797469BC
:1049700063730000314800087461736B44696575A6
:104980004B6869656E436F436175000023480008FA
:104990007461736B4D61696E000000004D48000842
:1049A0007461736B4779726F00000000154800084E
:1049B0000CB500205149019000900A6842F4803201
:1049C0000A604FF4A0630A6802F400320092019A70
:1049D000521C0192009A12B9019A9A42F3D10A68C4
:1049E000920334D50120009044484030026842F0E0
:1049F000805202604248026842F4804202603F48AE
:104A0000083002680260026842F4004202600268F4
:104A100042F4A0520260031F3A4A1A600A6842F048
:104A200080720A600A689201FCD5374A40F205613B
:104A30001160016821F003010160016841F0020189
:104A400001600168C1F381010229FAD10CBD009017
:104A50000CBD2A4810B5016841F001010160274AE8
:104A60000021083211600268284B1A400260031DC1
:104A7000274A1A60026822F4802202601F480C3024
:104A80000160FFF795FF23494FF00060086010BDFB
:104A900070B51A4C083420681F4A10F00C011F48EA
:104AA00004D05510042903D0082903D002601BE06C
:104AB000056019E01149091D0B68C3F380560B68A6
:104AC00003F03F0316B1B5FBF3F201E0B2FBF3F2E2
:104AD0000B680968C3F388135A43C1F30141491CA9
:104AE0004900B2FBF1F1016021680C4AC1F30311E6
:104AF000121D515C0268CA40026070BD003802405D
:104B00000070004008544007003C0240FFFFF6FEE2
:104B10001030002408ED00E00024F40078030020A9
:104B20000648804706480047FEE7FEE7FEE7FEE747
:104B3000FEE7FEE7FEE7FEE7FEE7FEE7534A000872
:104B4000890100082849084328490860704730B5A2
:104B50000F22C47801780123FCB1244C246801F1B0
:104B6000E02104F4E064C4F5E064C4F30724C4F174
:104B70000405E2404478AC408578154025432A017D
:104B800081F80024007800F01F018B40400980006C
:104B900000F1E020C0F8003130BD01F01F0083407B
:104BA0004809800000F1E020C0F8803130BD104A93
:104BB000114001430D48001F016070470B4A121D50
:104BC0000029116801D0014300E081431160704762
:104BD0004FF0E0210428086903D020F004000861A8
:104BE000704740F00400FAE70000FA050CED00E021
:104BF00080FFFF1F7C4910B5884206D1012108467D
:104C000000F058FA002101204FE07849884206D18F
:104C10000121022000F04EFA0021022045E07449F3
:104C2000884206D10121042000F044FA002104202A
:104C30003BE07049884206D10121082000F03AFA91
:104C40000021082031E06C49884206D10121102062
:104C500000F030FA0021102027E06849884206D190
:104C60000121202000F026FA002120201DE06449C7
:104C7000884206D10121402000F01CFA002140208A
:104C800013E06049884206D10121802000F012FA29
:104C90000021802009E05C4988420AD18415012165
:104CA000204600F007FA00212046BDE8104000F041
:104CB00001BA10BDF0B50023012403270D6804FAE2
:104CC00003F21540954242D1D0F800C05E0007FAC9
:104CD00006F52CEA050CC0F800C091F804C0D0F825
:104CE00000E00CFA06FC4CEA0E0CC0F800C091F88B
:104CF00004C0BCF1010F02D0BCF1020F1FD1D0F8EB
:104D000008C02CEA050CC0F808C091F805C0D0F81E
:104D100008E00CFA06FC4CEA0E0CC0F808C0D0F80B
:104D200004C02CEA020CC0F804C0426891F806C026
:104D30000CFA03FC1FFA8CFC42EA0C024260C268C7
:104D4000AA43C260CA79C568B2402A43C2605B1CEC
:104D5000102BB3D3F0BD4FF6FF710160002101713C
:104D600041718171C171704708B541F48032009280
:104D7000C261C1610099C161C169C069009008BD8B
:104D80000246002012690A4200D0012070470069E3
:104D900080B270470246002052690A4200D00120CA
:104DA0007047406980B27047018370474183704704
:104DB0000AB101837047418370474161704742697E
:104DC0004A40426170474B07DB0E9A40C90810B554
:104DD00000EB8100016A0F249C40A1430162016A3B
:104DE0001143016210BD00000000024000040240B7
:104DF00000080240000C0240001002400014024073
:104E000000180240001C024000200240EA480168ED
:104E100041F001010160E84A002108321160026896
:104E2000E64B1A400260031DE54A1A60026822F44C
:104E300080220260E0480C3001607047DE490022A9
:104E4000891C0A7008707047024600205109012928
:104E50000CD002290CD0D8497431096802F01F0225
:104E6000012393400B4200D001207047D249F4E760
:104E7000D1497031F1E718B500204FF4A0640090DB
:104E80003120FFF7E1FF0099491C0091A14201D0B8
:104E90000028F5D03120FFF7D7FF002800D00120EF
:104EA00018BDC5490A6822F0F80242EAC00008604D
:104EB0007047C44908607047BF49002270310A70CA
:104EC0000A70012802D0042801D10520087070471B
:104ED000BD490860704741EA82115A0810B5BB4BC2
:104EE000029C03EB02421143014341EA0460B249D0
:104EF000091D086010BDB34908667047800140EA8B
:104F00000170AD49843108607047AE4988667047CA
:104F1000AC49C8647047A84A08321368084323F0B4
:104F2000EC63184310607047A34A083213680843C3
:104F300023F078431843106070479F4A0832116885
:104F400021F003010143116070479B48083000685D
:104F500000F00C007047984A0832116821F0F00107
:104F6000014311607047944A0832116821F4E051FE
:104F7000014311607047904908310A6822F4604289
:104F800042EAC0000860704770B58B4A0832116869
:104F90008F4C11F00C0104D06610042903D00829AD
:104FA00003D004601BE0066019E08349091D0B680B
:104FB000C3F380550B6803F03F0315B1B6FBF3F361
:104FC00001E0B4FBF3F30C680968C4F3881463438D
:104FD000C1F30141491C4900B3FBF1F101601168C3
:104FE0000F2303EA11117B4B5C5C0168E1404160D7
:104FF0001468072505EA94241C5D21FA04F48460F2
:10500000126805EA52329A5CD140C16070BDC0F3AB
:105010000121032908D1684A0832116821F4F813E4
:105020006D49014019431160634970310A68C0F34A
:105030000B0002430A6070476349443908607047B7
:1050400061494039086070475E49C1F85C017047AA
:10505000594A30320029116801D0014300E08143F0
:1050600011607047544A34320029116801D001435D
:1050700000E08143116070474F4A383200291168BF
:1050800001D0014300E08143116070474A4A403239
:105090000029116801D0014300E08143116070478D
:1050A000454A44320029116801D0014300E08143A0
:1050B00011607047404A10320029116801D0014345
:1050C00000E08143116070473B4A143200291168A7
:1050D00001D0014300E0814311607047364A183225
:1050E0000029116801D0014300E08143116070473D
:1050F000314A20320029116801D0014300E0814388
:10510000116070472C4A24320029116801D00143F4
:1051100000E0814311607047274A5032002911682E
:1051200001D0014300E0814311607047224A5432AC
:105130000029116801D0014300E0814311607047EC
:105140001D4A58320029116801D0014300E0814313
:1051500011607047184A60320029116801D001437C
:1051600000E0814311607047134A643200291168DE
:1051700001D0014300E08143116070470E4A0D32B7
:105180000029117801D0014300E08143117070477C
:1051900009487430016841F0807101607047014630
:1051A000054A00200C3212680A4200D001207047E4
:1051B00001490E310870704700380240FFFFF6FECB
:1051C0001030002400004742800E47420000FFFFDD
:1051D0000024F4008C030020FFFCFF0F10B5012118
:1051E0000C022046FFF78EFF2046BDE8104000214C
:1051F000FFF788BF30B54268C84B0C791A400B687E
:1052000042EA0422134343608268C54B4D791A4039
:10521000D1E9034323438C6844EA45042343134301
:105220008360C26A097D22F47002491EC9B242EA53
:105230000151C16230BD0021016001714171816085
:10524000C1600161012101757047B64B10B5D3F8FB
:105250000423B5490A40D0E900142143D0E90240B3
:10526000044321431143C3F8041310BD002101601E
:1052700041608160C16070470029816802D041F0BF
:10528000010101E021F00101816070474268A74BF4
:105290001A400A4342607047416282627047426826
:1052A00022F01F020A43426070479E490028D1F84D
:1052B000040302D040F4000001E020F40000C1F833
:1052C0000403704797490028D1F8040302D040F442
:1052D000800001E020F48000C1F80403704770B53D
:1052E000072409290AD9C568A1F10A0606EB460672
:1052F000B440A543B3401D43C56007E0056901EB19
:105300004106B440A543B3401D4305611F23072A4E
:1053100009D2446B521E02EB820293409C4391409F
:105320000C43446370BD0D2A09D2046BD21F02EBFB
:10533000820293409C4391400C43046370BDC46A55
:105340000D3A02EB820293409C4391400C43C462AD
:1053500070BD816841F08041816070470146002046
:105360008968490200D5012070470029816802D070
:1053700041F4806101E021F480618160704700297F
:10538000816802D041F0020101E021F00201816058
:1053900070474268491E22F4604242EA413141604E
:1053A00070470029416802D041F4006101E021F416
:1053B000006141607047C06C80B270475948D0F8B6
:1053C000080370470029816802D041F4807101E030
:1053D00021F48071816070470029816802D041F416
:1053E000007101E021F40071816070474D4900288F
:1053F000D1F8040302D040F4005001E020F4005042
:10540000C1F80403704770B5072409290AD9C56893
:10541000A1F10A0606EB4606B440A543B3401D437E
:10542000C56007E0056901EB4106B440A543B34000
:105430001D430561836BC3F30154121B921C02EBE5
:1054400082041F22A2409343A1400B43836370BD9B
:10545000826B491E22F4401242EA01518163704777
:1054600008B508440090026008BD826822F47022EA
:105470000A4382607047826822F440120A438260C5
:105480007047816841F480018160704701460020C7
:105490008968490200D5012070470029416802D07F
:1054A00041F4806101E021F480614160704700298E
:1054B000416802D041F4805101E021F48051416003
:1054C000704708B5084428300090006880B208BDD5
:1054D00001238B4041680AB1194300E099434160C0
:1054E00070470246002012680A4200D0012070472F
:1054F000C9430160704730B50246002053680C0A6A
:1055000001258D4011682B40214202D0002B00D094
:10551000012030BD6FEA112101607047FFFEFFFCE2
:10552000FDF7FFC000200140E030FCFFFFFD3FFF22
:105530002DE9F043016821F00101016000210160C3
:1055400041608160C160016121214161B849B84A6F
:105550003D251039904202D18D60BDE8F083B44AF8
:105560004FF474661832904201D18E60F5E7B04A6C
:105570004FF474173032904201D18F60EDE7AC4A9E
:105580004FF0746C4832904202D1C1F808C0E4E791
:10559000A74BA84A6033984201D1CA60DDE7A44C0A
:1055A000A54B7834A04201D1CB60D6E7DFF88082EA
:1055B000A24C08F19008404501D1CC60CDE7DFF85E
:1055C00070824FF03D5908F1A808404502D1C1F85A
:1055D0000C90C2E79A49DFF868820839404501D14A
:1055E0000D60BAE7964D1835A84201D10E60B4E7B8
:1055F000934D3035A84201D10F60AEE7904D48354C
:10560000A84202D1C1F800C0A7E78D4D8C49603592
:10561000091FA84201D10A609FE7894A7832904267
:1056200001D10B6099E7864A9032904201D10C601B
:1056300093E7834AA83290428FD1C1F800908CE75B
:1056400030B503687F4ACC6813400A682243D1E929
:1056500005452C432243CC6922430C6A22434C6A01
:1056600022438C6A22434C6B22438C6B22431A43A5
:105670000260426922F00703D1E90B2422431A4356
:1056800042610A6942604A6882608968C16030BDCF
:105690000021016041608160C160016141618161FF
:1056A000C161016241628162C162016341638163E0
:1056B00070470029016802D041F0010101E021F0AA
:1056C0000101016070470029016802D041F40041E6
:1056D00001E021F40041016070470029016802D017
:1056E00041F0200101E021F020010160704741609C
:1056F0007047406880B27047002A026802D042F4C6
:10570000002201E022F400220260016170470029BA
:10571000016802D041F4802101E021F48021016080
:1057200070470AB101617047C160704701460020AF
:105730000968090300D50120704701460020096867
:10574000C90700D001207047406900F03800704759
:1057500002463B4B00209A4202D2354A103A01E001
:10576000374A103A8B0001D5526800E01268364B78
:105770001A400A4200D001207047314A904202D2BA
:105780002B48103801E02E4810382F4A8B0001EAD0
:10579000020101D5C1607047816070470B0607D5D3
:1057A000436912B143F0800301E023F080034361B9
:1057B000802908D0002A026801F01E0101D00A43A6
:1057C00000E08A430260704730B51D4A00249042D1
:1057D00002D2174B103B01E0194B103B1B4A114200
:1057E00005D01E2202EAD12502682A4002E0406963
:1057F00000F08002880001D5586800E01868124B5C
:105800001840084201D002B10124204630BD0C4AA4
:10581000904202D20648103801E0094810380A4A7E
:105820008B0001EA020101D5C160704781607047B9
:10583000106002403D000020400F002000003D208D
:10584000106402403F801CF07D0F7D0F3C0F3C0F29
:10585000374900200860091D0860091D0860091DFE
:1058600008603349334814310860704730B5304917
:105870008379026853B30B6893430B600A1D136866
:105880000468A343136002790A441368046823433D
:105890001360274A083213680468A3431360131D7A
:1058A0001C680568AC431C604479102C05D0214469
:1058B0000A68006802430A6030BD11680468214329
:1058C0001160196800680143196030BD007908440F
:1058D00001689143016030BD0021016001710C221B
:1058E000427181717047124910310A6802430A609F
:1058F000704701460E4A0020143212680A4200D056
:10590000012070470A49143108607047084A01466F
:1059100000201268064B0A4014331B680B4202D069
:10592000002A00D0012070470149143108607047F7
:10593000003C0140FFFF7F00FE4910B5884206D1C0
:1059400001210846FFF7DEFB002101205BE0B0F1FA
:10595000804F09D0F84988420DD101210220FFF77C
:10596000C7FB0021022070E001210846FFF7C0FBC1
:105970000021012069E0F149884206D1012104207B
:10598000FFF7B6FB002104205FE0ED49884206D115
:1059900001210820FFF7ACFB0021082055E0E94970
:1059A000884206D101211020FFF7A2FB0021102020
:1059B0004BE0E549884206D101212020FFF798FB02
:1059C0000021202041E0E149884206D10121022046
:1059D000FFF798FB0021022015E0DD49884202D143
:1059E00001210C040AE0DB49884202D101214C0468
:1059F00004E0D94988420AD101218C042046FFF7EE
:105A000081FB00212046BDE81040FFF77BBBD34956
:105A1000884206D101214020FFF76AFB0021402087
:105A200013E0CF49884206D101218020FFF760FBB7
:105A30000021802009E0CB4988420AD18415012148
:105A40002046FFF755FB00212046BDE81040FFF738
:105A50004FBB10BD30B50288B64BBC4C98420DD040
:105A6000A0420BD0B0F1804F08D0B34DA84205D072
:105A7000B24DA84202D0B24DA84203D122F0700527
:105A80004A882A43AF4DA84206D0AF4DA84203D062
:105A900022F440750A892A4302804A68C2620A8851
:105AA0000285984201D0A04201D1897A0186012164
:105AB000818230BD4FF0FF314160002101800181C2
:105AC000418081727047018582827047028822F08E
:105AD00070020A430280704741627047C16270479A
