:020000040800F2
:10000000F831002055470008450200084702000863
:10001000490200084B0200084D02000800000000E1
:100020000000000000000000000000009D0100082A
:100030004F02000800000000E10100088B6D00087D
:100040006F4700086F4700086F4700086F470008B8
:100050006F4700086F4700086F4700086F470008A8
:10006000F7030008430400086F4700080103000875
:10007000C30200084D0300086F470008750200081E
:100080006F4700087D0200086F4700086F470008AF
:100090006F4700086F4700086F4700086F47000868
:1000A0006F47000871030008910300086F470008BC
:1000B00093030008B30300086F4700086F47000868
:1000C0006F4700086F4700086F470008F3030008F8
:1000D0006F470008550200086F4700086F47000887
:1000E0006F4700086F4700086F4700086F47000818
:1000F0006F4700086F4700086F4700082303000898
:100100006F4700086F470008D3030008F503000895
:100110006F4700086F470008570300085F03000897
:100120006F4700086F4700089F0200086F470008EC
:100130006F4700086F4700086F4700086F470008C7
:100140006F4700086F4700086F4700086F470008B7
:10015000B90200086F4700086F4700086F470008A2
:100160006F4700086F4700086F4700086F47000897
:100170006F4700086F4700086F4700086F47000887
:100180006F4700086F470008DFF80CD007F088FEC3
:100190000048004787450008F8310020234B1968C4
:1001A0000868B0E8F04F80F309884FF0000080F352
:1001B000118870470000000003480068006880F361
:1001C000088862B600DF00BF08ED00E0DFF80C0031
:1001D000016841F470010160704700BF88ED00E0E4
:1001E000EFF30980114B1A681EF0100F08BF20EDC5
:1001F000108A20E9F04F106008B54FF0140080F32A
:10020000118807F098F84FF0000080F31188BDE8DE
:10021000084019680868B0E8F04F1EF0100F08BFDA
:10022000B0EC108A80F30988704700BF700300208B
:10023000EFF311804FF0140181F31188704780F3C0
:10024000118870477047FEE7FEE7FEE7FEE770475C
:100250007047704710B57B4C40F22551204605F0A1
:10026000DEFF002805D02046BDE81040202105F023
:10027000D3BF10BD7449754805F0E3B870B5734D30
:10028000734C30352146284605F0B8F8002805D0D3
:1002900021462846BDE8704005F0D3B870BD10B5C2
:1002A0006C496D4805F0CDF86C484178007841EA1A
:1002B00000206B49088010BD67486A49483005F046
:1002C000C0B870B5614D684C483D2146284605F0E0
:1002D00095F8002813D02146284605F0B2F8634867
:1002E00001F08FFE00280AD1614C0021204605F064
:1002F000D5FE2046BDE87040012105F0CFBE70BD9F
:1003000070B5524D5B4C603D2146284605F076F8AD
:10031000002805D021462846BDE8704005F091B878
:1003200070BD70B5494C544D48342946204605F0FF
:1003300065F8002809D00021204604F0D4FF2946A2
:100340002046BDE8704005F07CB870BD3F483E498E
:10035000303805F076B80121484805F03EBD10B5AB
:100360000121474805F039FD36497A20888010BDC3
:1003700010B5444C0121204605F02FFD2088C10610
:100380004148016801D5491E00E0491C016010BDCB
:10039000704710B501218C07204605F01EFD20880E
:1003A000C1063A48016801D5491E00E0491C0160B8
:1003B00010BD10B5364C0121204605F00EFD2088F9
:1003C000C1063448016801D5491E00E0491C01609E
:1003D00010BD10B5304C0121204605F0FEFC2088F0
:1003E000C1062E48016801D5491E00E0491C016084
:1003F00010BD7047704770B5042005F0A1F80028C3
:100400001ED02021264804F0F4FA264D0421284667
:1004100004F0D0FA1A4C012805D00421284604F033
:10042000C9FA28B109E00021204605F06FF904E07F
:10043000204605F06FF91C4908601C49042008603B
:1004400070BD7047001001402080002070600240A5
:1004500000802020008020104064024074040020AE
:100460000C0000200088002000880010920400206A
:10047000004800402080001000800028001000404C
:100480000014004000000140100000201400002073
:100490000004004014030020000C0040180300205A
:1004A00000000240000C02401C030020143C0140EC
:1004B00070B50546002407F059FAFE4902E02A5DAE
:1004C0000A55641C8442FADBBDE870400121FA48F9
:1004D00004F009BF70B5F94D06460024315D0029CE
:1004E0000BD0284605F000FE8021284605F08DFE41
:1004F0000028F9D0641CE4B2F0E770BD70B5EF4E8F
:1005000005460024002D0DD02946304605F0ECFDAF
:100510008021304605F079FE0028F9D0641CE4B251
:10052000032CEFD370BD73B50C460020FFF7E6FF38
:10053000E3A0FFF7CFFFDF482246E2A1823807F0B1
:10054000FDFCDC488238FFF7C5FFDFA0FFF7C2FFE4
:10055000DFA0FFF7BFFFD748DAA18238009A07F083
:10056000EDFCD44E0024D54D823E2846315D05F089
:10057000BBFD4021284605F048FE0028F9D0641C48
:10058000142CF2DBD2A0FFF7A5FFFF20FFF7B6FF88
:10059000FF20FFF7B3FFBDE87C40FF20AEE770B55A
:1005A00005460C46C6A0FFF795FFC2482246C5A1E6
:1005B000823807F0C3FCBF488238FFF78BFFC5A025
:1005C000FFF788FF2846FFF785FFC1A0FFF782FFEE
:1005D000BDE87040FF2091E777B5BEA185B0064623
:1005E000D1E90001CDE90001B9A000220068039023
:1005F000B3A0B04D0068283DA5F128030290AD4C92
:100600001146A3F13200A95499548154A154521CAB
:10061000D2B21E2AF7D30A210170FF2444708470DD
:10062000C470A448A7A15038079A07F087FCA149D5
:1006300002A8503907F082F99E4802A9823807F0D3
:100640007DF99C486946823807F078F99948314627
:10065000823807F073F997489AA15038069A07F044
:100660006DFC94495039A1F1320007F067F99148C7
:1006700003A9823807F062F98E492C706C70283912
:10068000AC70A1F15A0007F059F98A488238FFF797
:100690000FFF08B070BD2DE9F74188468DA185B0E8
:1006A0000646D1E90001CDE9000189A000220068D9
:1006B000039083A07F4D0068283DA5F1280102909A
:1006C0001446A1F13200AC548C548454521CD2B262
:1006D0000A2AF8D30A210170FF2747708770C77074
:1006E000744878A15038079A07F028FC714902A88D
:1006F000503907F023F96F4802A9823807F01EF934
:100700006C486946823807F019F96A4831468238E0
:1007100007F014F967484146823807F00FF9654839
:1007200003A9823807F00AF92F706F706149AF7022
:10073000EC7028392C71A1F15A0007F0FFF85D48E0
:100740008238FFF7B5FE08B0BDE8F08170B5002033
:10075000FFF7D4FE5AA0FFF7BDFE56480D2259A15F
:10076000823807F0EBFB53488238FFF7B3FE59A0FD
:10077000FFF7B0FE594C2021204604F01BF9024639
:100780004C4850A1823807F0D9FB4A488238FFF71D
:10079000A1FE1021204604F00DF90246454849A16A
:1007A000823807F0CBFB43488238FFF793FE4C4D6D
:1007B0008021284604F0FEF802463E4841A18238D6
:1007C00007F0BCFB3B488238FFF784FE40212846F7
:1007D00004F0F0F8024637483AA1823807F0AEFB41
:1007E00034488238FFF776FE4FF40041204604F08B
:1007F000E1F802462F4833A1823807F09FFB2D48CD
:100800008238FFF767FE4FF48041204604F0D2F8AB
:10081000024628482BA1823807F090FB25488238F1
:10082000FFF758FE4FF40051204604F0C3F802468B
:10083000204824A1823807F081FB1E488238FFF748
:1008400049FE4021274804F0B5F8024619481DA189
:10085000823807F073FB17488238FFF73BFE1CA075
:10086000FFF738FEFF20FFF749FEFF20FFF746FEA7
:10087000BDE87040FF2041E6FEB51BA10646D1E968
:100880000001CDE900011AA000210A4D0068283DB1
:10089000A5F1280202900C46A2F132006C54545487
:1008A0004454491CC9B23229F8D30A210170FF27E8
:1008B00047701FE032040020B86002400050004042
:1008C00074000000256400002E7478743D00000060
:1008D000220000002E7478743D22000000080240BF
:1008E00000000240001002402E76616C3D000000C6
:1008F0006A0000008770C7700022AFF23801FE481E
:1009000007F01CFBFC4902A807F018F8FA4802A9F6
:10091000323807F013F8F8486946323807F00EF815
:100920003246AFF26001F44807F008FBF249A1F14A
:10093000320007F003F82F706F70EF49AF70EC7062
:1009400028312C71A1F15A0006F0F8FFEA4832383C
:10095000FFF7AEFDFEBD2DE9FC414FF08047384664
:1009600004F0D8FEE54D6969642640EA014090FB39
:10097000F6F000240190384604F0CCFE696940EAA4
:10098000014090FBF6F001990090401A00D54042DA
:10099000322800DA641C00980190022CEBDB0098EE
:1009A000002800DA4042BDE8FC812DE9FC41D44F2B
:1009B000384604F0AFFED14D2969642640EA014073
:1009C00090FBF6F000240190384604F0A3FE29695C
:1009D00040EA014090FBF6F001990090401A00D5E2
:1009E0004042322800DA641C00980190022CEBDBB4
:1009F00000980028D7DA4042D5E710B5FFF7ABFFE3
:100A00000446FFF7D2FF002C00DA6442002800DA27
:100A10004042204410BD01B581B0019800EBC000F8
:100A200040000090002801D0401EFAE70CBD01B53F
:100A300081B044F25061019848430090002801D0F1
:100A4000401EFAE70CBD2DE9FC4101211F2004F0F6
:100A500019F901248DF8044000268DF806604FF640
:100A6000FF758DF80740032700958DF805706946DE
:100A7000A44803F039FF8DF804408DF806608DF826
:100A8000074000958DF8057069469F4803F02CFFDC
:100A90008DF804408DF806608DF8074000958DF8BC
:100AA00005706946994803F01FFF7CE77CB501217A
:100AB0007E2004F0E7F80024C0208DF804400125D2
:100AC00000908DF8075002268DF805606946904821
:100AD00003F00AFF48F206008DF8044000908DF8FC
:100AE00007508DF805606946864803F0FDFE042036
:100AF0008DF8044000908DF807508DF80560694628
:100B0000814803F0F1FE7CBD1FB54FF4E06003F0B7
:100B100033FE36208DF80C0000248DF80D408DF842
:100B20000E4001208DF80F0003A803F02AFE0121DA
:100B3000102004F0C5F83220ADF80000ADF80840F0
:100B4000ADF8024040F2E730724C01906946204611
:100B500004F09AFD0121204605F03FF901221146DB
:100B6000204605F01AF90021204604F0CFFD0121AE
:100B7000204604F001FE1FBD1FB54FF4E06003F0F6
:100B8000FBFD37208DF80C0000248DF80D408DF80A
:100B90000E4001208DF80F0003A803F0F2FD0121A3
:100BA000202004F08DF84FF4FA70ADF80000ADF895
:100BB0000840ADF8024040F2E730574C01906946DA
:100BC000204604F061FD0121204605F006F90122CE
:100BD0001146204605F0E1F80021204604F096FD7C
:100BE0000121204604F0C8FD1FBD70B58AB0012167
:100BF000022004F06FF801210C2004F043F8424E6B
:100C000003220621304603F0F8FE03220721304676
:100C100003F0F3FE03220821304603F0EEFE032228
:100C20000921304603F0E9FE4FF470700590022070
:100C30008DF8180003208DF8190000248DF81A4053
:100C400001258DF81B5005A9304603F04DFEA42068
:100C5000ADF81C002802314E0890ADF82400ADF824
:100C60001E4007A9304604F00FFD6020ADF80000DB
:100C7000ADF802500294ADF80C400121304604F06A
:100C80007BFD0021304604F041FD6946304604F00A
:100C90007DFD6946304604F0A5FD6946304604F006
:100CA000DDFD6946304604F013FE0121304605F0B3
:100CB00055F80AB070BD70B58AB00121042003F068
:100CC000FFFF01210D2003F0DDFF104E02220C2159
:100CD000304603F092FE02220D21304603F08DFED5
:100CE00002220E21304603F088FE02220F213046F8
:100CF00003F083FE14E00000E20300200000002067
:100D0000000001400004024000080240000C0240C4
:100D100000000240001000400014004000040140A8
:100D20004FF47040059002208DF8180003208DF8D4
:100D3000190000248DF81A4001258DF81B5005A9D3
:100D4000304603F0D1FDA420ADF81C002802089025
:100D5000ADF82400ADF81E4007A9FE4E304604F061
:100D600093FC7020ADF80000ADF802500294ADF88D
:100D70000C400121304604F0FFFC0021304604F015
:100D8000C5FC6946304604F001FD6946304604F072
:100D900029FD6946304604F061FD6946304604F09D
:100DA00097FD86E770B5012188B0080403F092FF33
:100DB0000121084603F066FFE74E03221146304644
:100DC00003F01BFE03220221304603F016FE0C2026
:100DD000009002208DF8040003208DF80500002407
:100DE0008DF8064001258DF807506946304603F01E
:100DF0007BFD4FF6FF70D94EADF808400390ADF87B
:100E00001040ADF80A4002A9304604F03DFC042031
:100E1000ADF81400C820ADF81C00ADF81640ADF8D0
:100E2000185005A9304604F0E9FECD4C00231A46BF
:100E30000321204605F04BF80121204604F0CDFFA8
:100E400001221146204604F0A8FF0121304604F09B
:100E500093FC0021204604F059FC1AE42DE9F047E8
:100E600001218AB0084603F02BFF0121022003F084
:100E700027FF0121032003F005FFDFF8DC920122A8
:100E80000F21484603F0B9FDDFF8D8820122032183
:100E9000404603F0B2FD02220421404603F0ADFDBE
:100EA00002220521404603F0A8FD02268DF80460C9
:100EB000032738208DF80570002400908DF8064037
:100EC00001258DF807506946404603F00DFD8DF869
:100ED0000460E8038DF8057000908DF806408DF8E9
:100EE00007506946484603F0FFFC4FF6FF70ADF827
:100EF0000C4004904FF08049ADF81440ADF80E401E
:100F000003A9484604F0C0FBDFF85CA203A95046E1
:100F100004F0BAFB4FF004081420ADF81880ADF8C7
:100F20002000ADF81A60ADF81C5006A9484604F040
:100F300065FE06A9504604F061FE02231A4603210D
:100F4000484604F0C4FF02231A460321504604F029
:100F5000BEFF0121484604F040FF0121504604F045
:100F60003CFF01221146484604F017FF01221146BA
:100F7000504604F012FF0121484604F0FDFB012118
:100F8000504604F0F9FB0021484604F0BFFB002165
:100F9000504604F0BBFB780203F0EEFB1D208DF8F9
:100FA00008008DF809708DF80A408DF80B5002A8E2
:100FB00003F0E7FB1C208DF808008DF809808DF800
:100FC0000A408DF80B5002A803F0DBFB0AB0BDE825
:100FD000F08770B501218AB0084603F07BFE01213D
:100FE000102003F04FFE4FF42060009002208DF897
:100FF000040003208DF8050000245C4E8DF80640A7
:1010000001258DF807506946304603F06DFC01223A
:101010000921304603F0F1FC01220B21304603F098
:10102000ECFC4FF6FF704D4EADF808400390ADF864
:101030001040ADF80A4002A9304604F025FB042018
:10104000ADF814000A20ADF81C00ADF81640ADF85C
:10105000185005A9304604F0D1FD00231A4603219B
:10106000304604F034FF0121304604F0B6FE012280
:101070001146304604F091FE0121304604F0ADFEE9
:1010800001221146304604F088FE0121304604F06A
:1010900073FB0021304604F039FB4FF4C06003F0CD
:1010A0006BFB19208DF820008DF821508DF822401F
:1010B0008DF8235008A803F064FBFAE5F0B59BB067
:1010C00001212B4803F0DEFD01210D02284603F02B
:1010D00001FE28480024CDE90040274802A908263F
:1010E00081E85100A800CDE905404000079080004C
:1010F000CDE908050AA90001012581E831001F4F4B
:101100000D94694638460E9404F0B4F8012138462F
:1011100004F0E9F87C20032715908DF858708DF8BD
:101120005B4015A90C4803F0DFFB3C2015908DF8BF
:1011300058708DF85B4015A9114803F0D5FB3804B1
:10114000CDE917404FF47060CDE9194017A803F0BE
:1011500096FE17E000080040000002400000014039
:101160000040014000040240000400400010024022
:10117000050040004C20014064040020106402403F
:101180000008024028060F908DF840508DF841501D
:101190001194129413948DF850600FA9FE4C2046C0
:1011A00003F042FE042301220221204603F0B1FE97
:1011B000042302220321204603F0ABFE0423032272
:1011C0001946204603F0A5FE04231A4605212046B1
:1011D00003F09FFE042305220C21204603F099FE14
:1011E000042306220D21204603F093FE0423072248
:1011F0000E21204603F08DFE042308220F212046F5
:1012000003F087FE0121204603F000FF0121204664
:1012100003F0F2FE0121204603F048FE204603F0D1
:10122000B2FE1BB0F0BD08B54FF4E06003F0A4FAC5
:1012300025208DF8000000208DF801008DF80200B7
:1012400001208DF80300684603F09BFA08BD70B5D5
:10125000054696B00121102003F03CFD012108460F
:1012600003F010FD0121880503F00CFD4FF4C06070
:10127000139002208DF8500000248DF852408DF814
:101280005340C64E8DF8510013A9304603F02CFB95
:1012900007220921304603F0B0FB07220A2130461D
:1012A00003F0ABFB0F95ADF844400C20BC4DADF8FE
:1012B0004040ADF84600ADF84240ADF848400FA9B7
:1012C000284604F07AFE0121284604F0E7FE4FF498
:1012D000A06003F051FA3A208DF854008DF8554083
:1012E0008DF8564001208DF8570015A803F049FAF3
:1012F000AC4E304603F036FF4FF000600090AA4835
:10130000CDE902040A200490281D01900015CDE9C2
:1013100005408010CDE9084040020A9004200B905F
:1013200007940320CDE90C04694630460E9403F07F
:10133000A1FF01224021284604F047FF012210218D
:10134000304604F045F80121304603F0CCFF16B0DA
:1013500070BDF0B50646012197B0480503F092FC38
:1013600001214D04284603F0ABFC0121082003F0C5
:1013700089FC6020139002208DF8500000248DF825
:1013800052408DF85340894F8DF8510013A93846CB
:1013900003F0AAFA07220521384603F02EFB0722A4
:1013A0000621384603F029FB0F96ADF844400C2087
:1013B0007F4EADF84040ADF84600ADF84240ADF884
:1013C00048400FA9304604F0F8FD0121304604F0F2
:1013D00065FE4FF4A06003F0CFF911208DF85400A2
:1013E0008DF855408DF8564001208DF8570015A80E
:1013F00003F0C7F96F4F384603F0B4FEA80200901F
:10140000402003906C4802903C200490301D0190D5
:101410000015CDE905408010CDE908400420CDE954
:101420000A5007940320CDE90C04694638460E940F
:1014300003F020FF01228021304604F0C6FE012285
:101440008021304604F0C1FE01221021384603F00D
:10145000BFFF0121384603F046FF17B0F0BD70B55D
:101460000546012196B0880403F02AFC01210820DA
:1014700003F008FC0121480503F004FC4FF4407020
:10148000139002208DF8500000248DF852408DF802
:101490005340464E8DF8510013A9304603F024FA0C
:1014A00007220821304603F0A8FA07220921304616
:1014B00003F0A3FA0F95414EADF84040ADF844401B
:1014C0000C25ADF84240ADF84840ADF846500FA9A4
:1014D000304604F072FD0121304604F0DFFD4FF488
:1014E000A06003F049F98DF854508DF855408DF8FF
:1014F000564001208DF8570015A803F042F92D4DF4
:10150000783D284603F02EFE4FF0006000902648FC
:1015100069461E30CDE9020408200490301D019078
:101520000015CDE905408010CDE9084040020A9041
:1015300004200B9007940320CDE90C0428460E9458
:1015400003F098FE01224021304604F03EFE0122C5
:101550004021304604F039FE01221021284603F0D4
:1015600037FF0121284603F0BEFEF0E6F0B506463F
:10157000012197B0C80403F0A3FB0121084603F042
:1015800081FB0121480503F07DFB03250220139513
:101590008DF85000002413E00020014000000240BC
:1015A000001001404064024074040020000C02401E
:1015B00000440040A06002400801002000480040B4
:1015C0008DF852408DF85340F94F8DF8510013A912
:1015D000384603F089F908220021384603F00DFA55
:1015E00008220121384603F008FA0F96ADF844406E
:1015F0000C20F04EADF84040ADF84600ADF842404A
:10160000ADF848400FA9304604F0D7FC0121304620
:1016100004F044FD4FF4A06003F0AEF80D208DF807
:1016200054008DF855408DF8564001208DF8570034
:1016300015A803F0A6F8E04F384603F093FD7805AF
:101640000090DE48CDE9020408200490301D01908E
:101650000015CDE905408010CDE90840400207940F
:101660000A900420CDE90C540B90694638460E943C
:1016700003F000FE01224021304604F0A6FD0122C5
:101680004021304604F0A1FD01221021384603F02C
:101690009FFE0121384603F026FEDEE62DE9F041EB
:1016A0008046012196B0480503F0ECFA01210805B7
:1016B00003F006FB01210C2003F0E4FA02258DF86B
:1016C000405000248DF84240BD4F04268DF8434021
:1016D0000F968DF841500FA9384603F005F98DF8A3
:1016E00040508DF842408DF84340E8028DF841505B
:1016F000B44D0F900FA9284603F0F6F808220221F6
:10170000384603F07AF908220C21284603F075F9CF
:101710004FF4A06003F030F82F208DF8540005201E
:101720008DF855008DF8560001208DF8570015A84A
:1017300003F027F8ADF84C400C20A34DADF848401D
:10174000ADF84E00CDF84480ADF84A40ADF85040B9
:1017500011A9284604F031FC0121284604F09EFC22
:10176000954F7837384603F0FDFC70060090402016
:101770000390924869465138029031200490281D08
:1017800001900015CDE905408010CDE908404002E8
:10179000CDE90A0607940320CDE90C0438460E94DF
:1017A00003F068FD01228021284604F00EFD01228D
:1017B0001021384603F00CFE0121384603F093FD5A
:1017C00016B0BDE8F08130B585B00121082003F0E6
:1017D00059FA0121880303F07DFA00240C208DF8CA
:1017E0001040012503908DF8135003A9744803F0AD
:1017F0007BF80221032004F052FD042000908DF8B4
:10180000044010208DF805008DF80650684603F05E
:1018100047FE08208DF808008DF809408DF80A4031
:101820008DF80B5002A802F0ACFF05B030BD10B52A
:10183000012810D0032819D0042822D0052809D166
:10184000614C204604F050FC4021204604F0DDFCB1
:101850000028F9D010BD5D4C204604F045FC402125
:10186000204604F0D2FC0028F9D010BD584C204688
:1018700004F03AFC4021204604F0C7FC0028F9D0CF
:1018800010BD4C4C204604F02FFC4021204604F0B3
:10189000BCFC0028F9D010BD4E49002048624E49DA
:1018A00008614FF0804250624861704770B54A4D00
:1018B0000020E870044661210120FFF7B8FF3220C4
:1018C000FFF7B5F8641C022CF5D30120E8707A20EC
:1018D000A87070BD10B561210120FFF7A8FFBDE819
:1018E00010403220FFF7A3B870B53B4D002068715F
:1018F000044661210320FFF79AFF3220FFF797F893
:10190000641C022CF5D3012068717A20287170BD07
:101910002DE9F14F96B0002014908DF800008DF85D
:1019200028004FF400452C4B2B48DDF858C02B4ABB
:10193000244C8033AE106F1000F580714FF4806935
:101940004FF4805ABCF1120F31D2DFE80CF00928B5
:101950002C71757B81878B8F93979BA0A4A8B0FD7A
:101960000221104603F026F860B1012229462046E4
:1019700003F038F82946204603F026F801460022F5
:1019800017A08FE000222946204603F02BF82946B5
:10199000204603F019F80146002218A082E0012237
:1019A0001EA0996B7EE0C16B02221EA07AE07BE054
:1019B00000000240004C00404060024083040020D0
:1019C000000C02400008024000500040001001409E
:1019D00000480040000001400000002000040240D8
:1019E000524F424F542044414E47204348415920D2
:1019F00053414E20444F3A2020200000524F424F86
:101A0000542044414E4720434841592053414E20E1
:101A100058414E483A20202000000000494D553AD8
:101A20000000000047582074686F633A000000000F
:101A3000C1690322F3A035E0FEF78DFF01460422C1
:101A4000F3A02FE0FEF7B1FF01460522F2A029E046
:101A5000FEF7D3FF01460622F1A023E041780722DA
:101A6000F2A01FE0016B0822F3A01BE0416A0922EB
:101A7000F4A017E0016A0A22F5A013E0816A0B22A4
:101A8000F7A00FE0F948C17F0C22F9A00AE00D226F
:101A90004968FAA006E00E22FCA0D96F02E00F22EE
:101AA0000968FEA0FEF798FD17B0BDE8F08FDFF8DB
:101AB000F8830121404602F07DFF0246FBA1684603
:101AC00006F03CFA69460AA805F038FF02214046B4
:101AD00002F070FF0246F5A1684606F02FFA69464B
:101AE0000AA805F02BFF0421404602F063FF0246DE
:101AF000EEA1684606F022FA69460AA805F01EFF24
:101B00000821404602F056FF0246E8A1684606F06A
:101B100015FA69460AA805F011FF1021404602F0A7
:101B200049FF0246E1A1684606F008FA69460AA89C
:101B300005F004FF2021404602F03CFF0246DBA1F5
:101B4000684606F0FBF900E08AE069460AA805F05D
:101B5000F5FE4021404602F02DFF0246D3A1684623
:101B600006F0ECF969460AA805F0E8FE8021404637
:101B700002F020FF0246CDA1684606F0DFF9694673
:101B80000AA805F0DBFE4FF48071404602F012FF18
:101B90000246C6A1684606F0D1F969460AA805F0D2
:101BA000CDFE4946404602F005FF0246BFA1684609
:101BB00006F0C4F969460AA805F0C0FE5146404641
:101BC00002F0F8FE0246B9A1684606F0B7F9694688
:101BD0000AA805F0B3FE3146404602F0EBFE02468D
:101BE000B2A1684606F0AAF969460AA805F0A6FE61
:101BF0003946404602F0DEFE0246ACA1684606F0D9
:101C00009DF969460AA805F099FE2946404602F06A
:101C1000D1FE0246A5A1684606F090F969460AA8D9
:101C200005F08CFE3146204602F0C4FE02469FA11C
:101C3000684606F083F969460AA805F07FFE394632
:101C4000204602F0B7FE024698A1684606F076F9F3
:101C500069460AA805F072FE10220AA994A037E18D
:101C600080219346104602F0AFFE02468FA16846DF
:101C700006F064F969460AA805F060FE4FF4807129
:101C8000A046204602F0A0FE024688A1684606F063
:101C900055F969460AA805F051FE4FF40071404617
:101CA00002F092FE024681A1684606F047F96946B5
:101CB0000AA805F043FE4946584602F085FE024652
:101CC0007AA1684606F03AF969460AA805F036FE98
:101CD0004FF40061584602F077FE024673A1684651
:101CE00006F02CF969460AA805F028FE544651462C
:101CF000584602F069FE02466CA1684606F01EF9DD
:101D000069460AA805F01AFE3146584602F05CFE04
:101D1000024666A1684606F011F969460AA805F070
:101D20000DFE3946584602F04FFE02465FA1684656
:101D300006F004F969460AA805F000FE294658464F
:101D400002F042FE024659A1684606F0F7F86946DD
:101D50000AA805F0F3FD574D4946284602F034FE27
:101D6000024652A1684606F0E9F869460AA805F05D
:101D7000E5FD3946284602F027FE02464BA168469B
:101D800006F0DCF869460AA805F0D8FDE9142846F3
:101D900002F01AFE024645A1684606F0CFF86946F1
:101DA0000AA805F0CBFD3146404602F00DFE024682
:101DB0003EA1684606F0C2F869460AA805F0BEFDD5
:101DC000E9143D4D284602F0FFFD024637A1684662
:101DD00006F0B4F869460AA805F0B0FD2146284689
:101DE00002F0F2FD024631A1684606F0A7F8694606
:101DF0000AA805F0A3FD4021584602F0E5FD024681
:101E00002AA15BE042545F586F61793A00000000FC
:101E1000454E5F524C3A0000454E5F46523A000034
:101E2000454E5F544F4E473A000000006C616E20F3
:101E300074726F6E673A000068616E672074726F2B
:101E40006E673A006C617A6520646F633A00000047
:101E50006C617A65206E67616E673A200000000051
:101E60006C617A652076653A200000000801002048
:101E70006769616D2061703A000000004C415A456D
:101E8000522058414E483A20000000004C415A452B
:101E900052205452554F433A000000004C415A45DD
:101EA0005220444F3A000000001002402564000018
:101EB000493A0000000C024000000240684606F06B
:101EC0003DF869460AA805F039FD11220AA9FEA0CD
:101ED000FEF7E1FBE8E50121FC4803F004BA11B488
:101EE000FB48816F009A914201DD002101E0816F82
:101EF000491C8167806F18BC0AE52DE9F047002571
:101F0000F44E074601244FF400594FF480484FF433
:101F1000805A00224146304602F064FD1020FEF750
:101F20007AFD274201D0012200E0002249463046D6
:101F300002F058FD01224146304602F053FD1020C8
:101F4000FEF769FD5146304602F034FD00B12543ED
:101F5000600010F0FF04DCD12846BDE8F08770B5C2
:101F6000DC4E4FF4004500222946304602F03AFD8F
:101F70001020FEF750FD0120FFF7BFFF4220FFF7C2
:101F8000BCFFFF20FFF7B9FFFF20FFF7B6FFD24CE1
:101F90002070FF20FFF7B1FF6070FF20FFF7ADFF5B
:101FA000A070FF20FFF7A9FFE070FF20FFF7A5FF5B
:101FB0002071FF20FFF7A1FF607129463046BDE880
:101FC0007040012202F00EBD70B5C24E4FF40045C4
:101FD00000222946304602F005FD1020FEF71BFDC9
:101FE0000120FFF78AFF4220FFF787FF0446012206
:101FF0002946304602F0F6FC1020FEF70CFD204684
:1020000070BDB34A0021803A5164C279B2490D2AA9
:1020100009D0FF20087048708870C8700871487136
:1020200088710020704702780A7042784A7082787E
:102030008A70C278CA7002790A7142794A718079CD
:10204000887101207047A448A0F541710278FF2AE9
:1020500005D14278FF2A02D18278FF2A09D04A6C42
:10206000531C4B64C82A03DDFF210170417081704D
:1020700070470020486470479748807970479648B9
:102080000078400601D40120704700207047924834
:102090000078C00601D4012070470020704701B5C8
:1020A0009DF80000052801D2002008BD9DF8000021
:1020B00008BDF0B5864E0027803E1D4606F58474A7
:1020C0004FF0010C002806D009DDC0B2FFF7E7FF92
:1020D000E070A7700AE096F87000E07006E04042F9
:1020E000C0B2FFF7DCFFE07084F802C0002907D01F
:1020F0000ADDC8B2FFF7D3FFE07184F806C009E03B
:1021000096F87000E07105E04842C0B2FFF7C7FFE3
:10211000E071A771002A06D009DDD0B2FFF7BFFF3A
:10212000E072A7720AE096F87000E07206E0504292
:10213000C0B2FFF7B4FFE07284F80AC0002D07D0E8
:102140000ADDE8B2FFF7ABFFE07384F80EC0F0BD24
:1021500096F87000E073F0BD6842C0B2FFF79FFFD1
:10216000E073A773F0BD5A498831C870C871C8724E
:10217000C8737047564901204865704754488069C4
:10218000A0F5EA41303901D00120704700207047A6
:10219000FFF78CBB4E488038B0F90C0040427047C6
:1021A0004B48B5EEC00A8038D0ED130AF1EE10FAB4
:1021B00002D230EE600A01E030EE200ABDEEC00A25
:1021C00010EE100A704710B5041E2DED068B404826
:1021D0009FED42AB9FED439B11D0406814DA05F0B0
:1021E00054FD41EC180B204605F04FFD53EC1A2B23
:1021F00005F06AFC53EC192B05F060FC13E09FED31
:102200003B0ABDEC068B10BD05F03FFD41EC180B01
:10221000204605F03AFD53EC1A2B05F055FC53EC23
:10222000192B05F0AAFB53EC182B05F0BFFC05F0A9
:1022300050FD00EE100AE4E7B5EEC00AF1EE10FA28
:1022400001DAB1EE400A7047002800DA40427047D8
:102250001F49803991ED1A0AD1ED1B1AF1EE400A9F
:1022600080EEA11A00EE900AF8EEE00A01EE200AD4
:10227000BDEEC00A10EE100A7047B0EE402A9FED86
:102280001C0AB5EEC02AF1EE10FA01D2B1EE422AD4
:10229000F5EEC00AF1EE10FA01D2F1EE600AB5EEE9
:1022A000C01AF1EE10FA01D2B1EE411AF5EEC01AE1
:1022B000F1EE10FA01D2F1EE611AB4EEC02AF1EE9D
:1022C00010FA19DD16E000004F3A0000A06002404D
:1022D00080000020000C024004030020333333331D
:1022E0003333D33F9A9999999999B93F00000000E7
:1022F0006F12833AB0EE420AF4EEC00AF1EE10FA21
:1023000001DDB0EE600AB4EEC01AF1EE10FA01DDA4
:10231000B0EE410AF4EEC01AF1EE10FA01DDB0EEB3
:10232000610A7047FA4840687047F948006B704787
:1023300070B5F74C2DED048BB0EE408AA4F180050A
:10234000A069A0F5EA4130393FD0626AA16B95EDF2
:10235000161A891A401A00EE100AB8EEC00AC0EE2A
:10236000010A95ED170A30EE800AD5ED1E0A60EEDF
:10237000208AB0EE680A05F0B1FEB0EE009A20EEB9
:10238000090A84ED140AB0EE680A05F0FFFD60EE5C
:10239000090AC4ED130A94ED141A94ED0B0A31EEF8
:1023A000001A30EEC00A84ED111A84ED120A00BF43
:1023B000B5EEC08AF1EE10FA6ED0206805286BD217
:1023C000DFE800F00E1F324156001FED380A84EDA1
:1023D000140A84ED130A84ED120A84ED110AE7E76A
:1023E00094ED110A30EE080A84ED110A94ED120AF8
:1023F00030EE480A84ED120A94ED130A30EE080A12
:102400001EE094ED120A30EE480A84ED120A94EDB3
:10241000130A30EE080A84ED130A94ED140AD5ED80
:10242000140A08EE600A20E094ED110A30EE080A62
:1024300084ED110A94ED130AD5ED140A08EE200A72
:1024400084ED130A0DE094ED110A30EE080A84EDD4
:10245000110A94ED120AD5ED140A08EE600A84ED13
:10246000120A94ED140A30EE480A84ED140A13E0BF
:1024700094ED110AD5ED140A08EE200A84ED110A34
:1024800094ED120A30EE480A84ED120A94ED130A14
:1024900030EE080A84ED130A04F1440090EC040ABB
:1024A000FFF7EBFED5ED120AF8EEE00A80EE801A97
:1024B000BDEEC10A10EE100AE0606168814200DDE5
:1024C00060600120E867BDEC048B70BD904900227C
:1024D00000288A6008610FD11FED7C0A4A6081EDF7
:1024E0000B0A47F230508861C86181ED0A0A0A6020
:1024F0000A620A634A651BE77047854890ED0A0A3D
:10250000B5EEC00AF1EE10FA04D1016811B9016A02
:10251000002909D01FED8B0A002180ED0A0A016015
:102520000162816B416203E7704779488038C0EDF2
:102530001A0A80ED1B0A7047754A9369834209D1D4
:1025400093688B4206D1D2ED0B0AF4EE400AF1EE0D
:1025500010FA0ED09160516809B905215160916B54
:10256000516282ED0B0A90610020506192ED0A0ADF
:10257000DEE67047664B30B41C6A844209D1D3ED65
:102580000A0AF4EE400AF1EE10FA02D11C688C42FD
:1025900025D09D6947F23054A54218D19A60052292
:1025A0005A60A04213DAB5EEC00A0122F1EE10FA29
:1025B0001A6302DD9A6B824207DCB5EEC00AF1EEC7
:1025C00010FA04D29A6B824201DAB1EE400A196025
:1025D000186283ED0A0A0020586130BCA8E630BCBE
:1025E00070470A46014647F23050C3E71FEDC10A63
:1025F000A2E770B5464C05462DED028BF0EE608AE1
:10260000D4ED070AB0EE418AF8EEE00AF4EE400A93
:10261000F1EE10FA0BD1A068A84208D1D4ED080A57
:10262000F8EEE00AF4EE680AF1EE10FA4AD0FDEE98
:10263000C00AC4ED070AD4ED0E0AF8EEE00A30EE47
:10264000600ABDEEC00A10EE100A1FEDD80A294636
:10265000FFF772FF94ED0E0AF8EEC00A78EEE00A7A
:10266000FDEEE00A10EE903A002B00DA5B42B8EE85
:10267000C00A642B19DDF4EEC08AF1EE10FA01DC19
:10268000B1EE488A18EE100A05F010FB05F021FBA8
:10269000FDEEE80ABDEC028B2A46BDE8704000EE74
:1026A000100A002110EE900A64E738EEC00A10EE1E
:1026B000100A05F0FBFA9FED171B53EC112B05F0E8
:1026C00003FAE3E7BDEC028B70BD70B50D462DED4E
:1026D000048B06461446F0EE418AB0EE609AB0EEE6
:1026E000408A02210D4802F065F9094B78EE281A5C
:1026F00038EE680A9FED0A1A8033012812D0586814
:10270000401BA04222DD00BFB0EE610A10E00000D5
:10271000800000207B14AE47E17A743F0004024041
:10272000CDCC4C3E1868A0EB0500A042ECDC03DAEF
:10273000F0EE490A304604E0F0EE490A3046B0EEC9
:10274000480ABDEC048BBDE8704052E7F4DAEFE7CD
:10275000FD4B5FED0D1ADB6F591A914202DD30EE31
:10276000410A02E001DA30EE010AB0EE611A40E7F8
:10277000F54910B5086B012826DD8A6B086A801AB6
:10278000FFF762FD062809DA086B421C0A63B0F500
:10279000FA7F19DDBDE81040002097E605200A6B9E
:1027A0008860FA2A486001DDFB2008630A6A886BAA
:1027B000904202DDBFEE000A01E0B7EE000A81EDB3
:1027C0000A0ABDE81040B3E510BD70B5DE4991EDD1
:1027D0000B0AB5EEC00AF1EE10FA73D14B68002B6C
:1027E00070D0086A47F23054A0426BDA91ED0A0AC1
:1027F000B5EEC00AF1EE10FA7DD08D69A1F180022C
:10280000A54260D1B5EEC00A1346F1EE10FA5B6E38
:1028100003DD8D6BC41AAC4208DBB5EEC00AF1EEE5
:1028200010FA17D28C6B0344A34213DD0B6B032BFE
:1028300048DA8B6BC01AFFF707FD0A28086A0ADA24
:102840004863002048609FEDC10A886081ED0A0A54
:102850000220086379E091ED010AD1ED0A0A8B6B41
:10286000B8EEC00A984260EE200A92ED190AB8EE5E
:10287000C01A80EE810A0FDDFFF7DEFC8B6B086A61
:10288000C01AFFF7E1FC00EE900AB8EEE01AD2EDB4
:10289000150A40EE010A0EE0FFF7CEFC8B6B086ACA
:1028A000C01AFFF7D1FC00EE900AB8EEE01AD2EDA4
:1028B000150A50EE410A91ED010AB8EEC01A80EEF9
:1028C000810A42E046E0A04AB5EEC00A803AD2ED65
:1028D000180AF1EE10FA18DD01EE100AF8EEC11A2E
:1028E00001EE103AB8EEC11A41EE401AB8EEE01A05
:1028F00071EEC11A00E02BE091ED0E1AB8EEC11A8C
:10290000F4EEC11AF1EE10FA1BD3B5EEC00AF1EEE7
:1029100010FA1AD201EE100AF8EEE00AF8EEC11A27
:1029200001EE103AB8EEC11A41EE401A31EEA01A8B
:10293000D1ED0E0AF8EEE00AB4EEE01AF1EE10FA6C
:1029400003DD896B401AFFF73EFCBDE87040EFE401
:10295000486AF6E770BD7C49086B02280CDA9FEDE7
:102960007B0A002281ED0B0A81ED0A0A47F2305002
:102970000A608861C1E907024B6973485B1C8038B3
:102980004B61426F006F934201DB4A61496DFFF773
:10299000EABB6D4A53695B1C5361834204DD506896
:1029A0000844506000205061704710B5FFF7F2FBFB
:1029B000654CA063FFF7DCFEA26860684FF0FF3152
:1029C000002A0BDD90420ED006DAE16888420ADA6E
:1029D000FFF73EFC022104E0206C02E000283EDD0F
:1029E0002069FFF7D6FFD4E90E01814203D0FFF73B
:1029F000ECFEA06BE06354488038C06F002831D0F3
:102A000094ED010AD4ED140AB8EEC00A20EE200AB3
:102A1000FFF7C6FB94ED010AD4ED130A0346B8EEA6
:102A2000C00A20EE200AFFF7BBFB94ED010AD4EDAB
:102A3000120A0246B8EEC00A20EE200AFFF7B0FBE9
:102A400094ED010AD4ED110A0146B8EEC00A20EE59
:102A5000200AFFF7A5FBBDE81040FFF72ABBBDE841
:102A6000104078E710BD2DE9F05F374A906B0028E1
:102A700000DA4042364DDFF8DC80A5F5FA7404F543
:102A8000097604F52577B0F5487F5CDD04F5EC7137
:102A9000D06F8B6883421ADD4A68824217DA286851
:102AA0006063A869A0630221404601F083FFC0EB88
:102AB000C00006EB80000221C06BE063404601F0DD
:102AC00079FFC0EBC00007EB8000C06B1BE0CA6859
:102AD00082421BDD834219DA68686063E869A0639B
:102AE0000221404601F066FFC0EBC00006EB80000B
:102AF0000221006CE063404601F05CFFC0EBC000C7
:102B000007EB8000006C2064BDE8F09F0B698342F6
:102B100022DD824220DAA8686063286AA06302216D
:102B2000404601F047FFC0EBC00006EB80000221E9
:102B3000406CE063404601F03DFFC0EBC00007EB96
:102B40008000406CDFE75BE08000002000000000B8
:102B5000F4010020000402404A69824219DD8342E8
:102B600017DAE8686063686AA0630221404601F0F2
:102B700021FFC0EBC00006EB80000221806CE06307
:102B8000404601F017FFC0EBC00007EB8000806CEF
:102B9000B9E78969814219DD824217DA28696063E1
:102BA000A86AA0630221404601F004FFC0EBC00008
:102BB00006EB80000221C06CE063404601F0FAFEA3
:102BC000C0EBC00007EB8000C06C9CE781429BDA41
:102BD00068696063E86AA0630221404601F0EAFE8A
:102BE000C0EBC00006EB80000221006DE0634046B0
:102BF00001F0E0FEC0EBC00007EB8000006D82E753
:102C00000221404601F0D6FEDFF8C8970128A9F15D
:102C1000A00A4FF00201C346404632D001F0CAFE7E
:102C2000C0EBC00109EB8100C8468168DAF80400F6
:102C3000D14681427EDA0221584601F0BBFEC0EB4C
:102C4000C00108EB81004168D9F80400814271DDC0
:102C500028686063A869A06302215D46584601F0B8
:102C6000A9FEC0EBC00006EB800002214068E063D3
:102C7000284601F09FFEC0EBC00007EB80004068D3
:102C800041E701F097FEC0EBC00109EB8100C846A7
:102C90008168DAF80000D14681420CDA02215846F8
:102CA00001F088FEC0EBC00108EB81004168D9F853
:102CB00000008142CCDC0221584601F07BFEC0EBD3
:102CC000C00108EB8100CA46C168D9F80000814202
:102CD0000CDA0221584601F06DFEC0EBC00108EB92
:102CE00081008168DAF80000814278DC02215846D0
:102CF00001F060FEC0EBC00108EB8100C146016934
:102D0000DAF80000D04681420CDA0221584601F080
:102D100051FEC0EBC00109EB8100C168D8F800008A
:102D200081427DDC0221DA46584601F043FEC0EBC9
:102D3000C00100E054E009EB81004169D8F80000CF
:102D4000814214DA0221504601F034FEC0EBC0018A
:102D500009EB81000169D8F80000814207DDE868CD
:102D60006063686AA063022155465046C5E00221AF
:102D7000504601F01FFEC0EBC00109EB81008169E4
:102D8000D8F80000814214DA0221504601F012FE08
:102D9000C0EBC00109EB81004169D8F80000814215
:102DA00007DD28696063A86AA06302215546504682
:102DB000D8E00221504601F0FDFDC0EBC00109EB57
:102DC00081008169D8F8000081427FF79DAE686973
:102DD0006063E86AA063022155465046E9E01AE0C4
:102DE0000221584601F0E6FDC0EBC00108EB81006E
:102DF000CA46C168D9F80400814227DA0221584640
:102E000001F0D8FDC0EBC00108EB81008168DAF861
:102E1000040081421ADD68686063E869022100E00D
:102E200030E0A0635D46584601F0C4FDC0EBC00031
:102E300006EB800002218068E063284601F0BAFDBD
:102E4000C0EBC00007EB800080685CE602215846BA
:102E500001F0B0FDC0EBC00108EB8100C146016983
:102E6000DAF80400D046814225DA0221584601F002
:102E7000A1FDC0EBC00109EB8100C168D8F80400D6
:102E8000814218DDA8686063286AA06302215D465C
:102E9000584601F08FFDC0EBC00006EB8000022118
:102EA000C068E063284601F085FDC0EBC00007EB79
:102EB0008000C06827E60221584601F07BFDC0EB88
:102EC000C00109EB8100C2464169D8F80400814283
:102ED00025DA0221584601F06DFDC0EBC00109EB77
:102EE00081000169DAF80400814218DDE868606356
:102EF000686AA06302215D46584601F05BFDC0EBA5
:102F0000C00006EB800002210069E063284601F062
:102F100051FDC0EBC00007EB80000069F3E5022122
:102F2000584601F047FDC0EBC00109EB8100C846DF
:102F30008169DAF80400D146814225DA0221584637
:102F400001F038FDC0EBC00108EB81004169D9F800
:102F50000400814218DD28696063A86AA063022129
:102F60005D46584601F026FDC0EBC00006EB800030
:102F700002214069E063284601F01CFDC0EBC0005F
:102F800007EB80004069BEE50221584601F012FDC2
:102F9000C0EBC00108EB81008169D9F804008142CF
:102FA0007FF7B2AD68696063E86AA06302215D469D
:102FB000584601F0FFFCC0EBC00006EB8000022188
:102FC0008069E063284601F0F5FCC0EBC00007EB28
:102FD0008000806997E57047704770B5FE4CA4F596
:102FE00041752078C00708D1A87AC043A872012093
:102FF00004F033F92078C007F9D0F648AA7A002106
:10300000983832B1FE22C27601238376C27581756B
:1030100070BDC175C17670BD2DE9F05FEE4988784D
:10302000401FF52801D8012500E000250879401F40
:10303000F52801D8012700E00027E74A08785278F0
:10304000C3060ED543060CD583060AD5030608D55C
:103050003DB137B1930604D5BDE8F05F0220FFF71C
:1030600035BA530702D43226142403E0D20717D00E
:103070001E260A248B46DFF86483C10647F23059C6
:10308000A8F1800A4FEA40610DD400294DDA81068B
:103090004FEA006024D50028314627DA00202EE0D0
:1030A0000A260724E6E700294FEA806109DB0029A8
:1030B0004FEA00601CDA002831461FDA4FF4E16065
:1030C0001DE000294FEA006005DB00282DDA3146BB
:1030D0004FF4617013E000281DDB3146C0480EE05C
:1030E000002822DA31464FF4E17008E0BD4806E0DE
:1030F00000281ADA314640F2465000E0BA48FFF79D
:1031000075FA9BF80000C1060FD541060DD5810662
:103110000BD5000609D54DB95FB1D8F8181049454F
:1031200007D00520FFF7D2F903E015B1FFF7E5F965
:1031300031E09BF8021001225846052912D243784B
:10314000DB070FD0D8F81810494504D031460020CD
:10315000BFEE080A14E08AF80020234662421046B7
:10316000194616E0FA291DD99BF80100C00719D0AD
:10317000D8F81810494506D031460020B7EE080AA5
:10318000FFF72FFA07E08AF800206342224619462B
:103190001046FEF78EFF00218AF80010BDE8F05FB0
:1031A000FFF7ABB902231A4619461846F1E72DE995
:1031B000F05F89498878401FF52801D8012500E093
:1031C00000250879401FF52801D8012700E00027D5
:1031D000814A08785278C3060ED543060CD583067B
:1031E0000AD5030608D53DB137B1930604D5BDE82D
:1031F000F05F0220FFF76AB9530702D43226142485
:1032000003E0D20716D01E260A248B46DFF8CC81B5
:10321000C10647F23059A8F1800A4FEA40610CD448
:10322000002939DA810637D5000635D531464FF405
:10323000E1601BE00A260724E7E700294FEA8061E6
:1032400006DB002928DA000626D5314600200DE0ED
:1032500000294FEA006004DB00281DDA314660488F
:1032600004E000280EDB31464FF46170FFF7BEF931
:103270009BF80000C1060FD541060DD581060BD580
:10328000000609D54DB95FB1D8F81810494507D0E7
:103290000520FFF71BF903E015B1FFF72EF931E028
:1032A0009BF8022001215846052A12D24378DB07F9
:1032B0000FD0D8F818204A4504D031460020BFEE80
:1032C000080A14E08AF800102346624210461946A4
:1032D00016E0FA2A1DD99BF80100C00719D0D8F8CA
:1032E00018204A4506D031460020B7EE080AFFF7FD
:1032F00078F907E08AF80010634222461946104622
:10330000FEF7D7FE00218AF80010BDE8F05FFFF756
:10331000F4B802231A4619461846F1E770B52F494A
:10332000324A8C6D601C88650846C36D0020642C91
:1033300003D2D4892344CB6505E06424B3FBF4F3C2
:103340008865CB67C8650D6E6B1C0B66234B03F15C
:1033500080065C6E3223322D03D295892C444C6654
:1033600004E0B4FBF3F43460086648660D6F6C1C2F
:103370000C671A4C322D646F03D215892C444C67AC
:1033800004E0B4FBF3F47460086748678C6E651C56
:103390008D66124D322CED6E02D2D088284405E0A5
:1033A000B5FBF3F20D4B803BDA618866C86670BDF1
:1033B000704770B5084CA4F54175607841071BD47F
:1033C000C00619D4A879C043A871012003F045FFB5
:1033D00060780DE0A00100200403002080000020A0
:1033E0007CFCFFFF3EFEFFFFBAFAFFFF64040020F3
:1033F000410701D4C006E8D5A879FB4EF0B30122FD
:103400008021304601F0EEFA607841070CD4800646
:103410000AD4E879C043E871012003F01EFF607808
:10342000410701D48006F7D5E8794FF4806130B3C5
:103430000122304601F0D6FA607841070CD400062C
:103440000AD4287AC0432872012003F006FF60786E
:10345000410701D40006F7D5287A4FF4805110B304
:103460000122304601F0BEFA607841070FD44006D1
:103470000DD4A87AC043A872012001E00FE010E04B
:1034800003F0EBFE6078410701D44006F4D5AA7A38
:10349000D64800214AB19622C275817570BD0022BE
:1034A000AEE70022C5E70022DBE7C175C17670BD3B
:1034B0002DE9F047CE4CDFF83C93A4F541756078D8
:1034C000C10739D1C84FC0064FF400664FF4807869
:1034D0000CD401223146384601F084FA01224146DB
:1034E000484601F07FFA6078C00725D16078000671
:1034F00007D400223146384601F074FA6078C007DC
:103500001AD16078800607D400224146484601F06F
:1035100069FA6078C0070FD1607840060CD4687AE9
:10352000C043687205E0012003F097FE6078C00791
:1035300002D160780006F6D5687A4FF4007128B1A0
:1035400000224846BDE8F04701F04CBA0122F8E7F6
:10355000A94810B564218161A5484FF00003427865
:10356000A24854070AD5940602D4C174837410BDCE
:10357000120603D4C1740121817410BDC37410BD3F
:10358000704710B501224021974801F02BFA012223
:10359000BDE810405102974801F024BA2DE9F05FD0
:1035A000954D6420A861FFF75EFA914C6078410761
:1035B0007ED4DFF83492C00613D4012280214E4617
:1035C000484601F00FFA00224FF40071894801F0DB
:1035D00009FA00224021304601F004FA60784007E1
:1035E00066D4A0466078814C00064FF4806A4FF4A0
:1035F000805B4FF001074FF000064FD40122514687
:10360000484601F0EFF901225946484601F0EAF92F
:1036100000228021484601F0E5F93220E077E96B8D
:10362000E86988420CDD287EE074A67403E000BFE0
:10363000FEF725FD88B9E96BE8698842F8DC0CE003
:103640000BDA287EE074A77403E000BFFEF717FDD5
:1036500018B9E96BE8698842F8DBE67495F834003C
:10366000E075A675E076A7764FF4E160FDF7DFF927
:1036700000225146484601F0B5F900225946484615
:1036800001F0B0F901228021484601F0ABF9E6775C
:10369000E676E67598F8010040074FD498F80100E7
:1036A00080064BD401225146484601F09BF900E0C8
:1036B00044E001225946484601F094F90022802155
:1036C000484601F08FF9296CE86988420CDD287EB4
:1036D000E074A67403E000BFFEF7D1FC88B9296C42
:1036E000E8698842F8DC0CE00BDA287EE074A77405
:1036F00003E000BFFEF7C3FC18B9296CE8698842F3
:10370000F8DBE67495F83800E075A675E076A776E4
:103710004FF4E160FDF78BF9002251464D464846D3
:1037200001F060F900225946284601F05BF90122B8
:103730008021284601F056F9E676E675BDE8F09F4F
:103740002DE9F0412C488030806B002800DA40429F
:10375000274C4FF4E1656E1077426178B0F5487FF1
:103760004FEA41704ADD00283CDAC8060DD4FEF766
:1037700093F814212846FEF739FF00BFFDF73DF905
:103780003228FBDB607840072CD5607840060CD4EB
:10379000FEF782F814210020FEF728FFFDF72DF92F
:1037A0003228FBDB607840071CD5607800060CD41B
:1037B000FEF772F814213046FEF718FFFDF71DF9E9
:1037C0003228FBDB607840070CD56078800609D48E
:1037D000FEF762F814213846FEF708FFFDF70DF9F1
:1037E0003228FBDBBDE8F081000402400801002024
:1037F0000403002000080240000000200028F1DA45
:10380000C8060CD4FEF748F814210020FEF7EEFE9F
:10381000FDF7F3F83228FBDB60784007E2D56078EB
:1038200040060CD4FEF738F814212846FEF7DEFED9
:10383000FDF7E3F83228FBDB60784007D2D56078EB
:1038400000060CD4FEF728F814213846FEF7CEFE09
:10385000FDF7D3F83228FBDB60784007C2D56078EB
:103860008006BFD4FEF718F814213046FEF7BEFEDE
:10387000FDF7C3F83228FBDBB4E710B5FFF768FEAD
:10388000FFF78CFEFD484078C106FD4804D4322184
:10389000C1770121817710BD0021C17710BD10B51E
:1038A000FEF718F8BDE81040FDF7F6BF2DE9F0412E
:1038B000F44CF54F04F5C878607804F5A27604F569
:1038C000BE7501281BD1206B01281CD0022889D18C
:1038D0000221384601F06EF8C0EBC00006EB800014
:1038E000022180682062206B55F820006062384613
:1038F00001F060F858F83000A0622869E062607852
:10390000022810D02CE00221384601F053F8C0EB19
:10391000C00006EB800040682062206B55F8200054
:103920006062E868EAE7206B012830D002282DD1D8
:103930000221384601F03EF8C0EBC00006EB8000E3
:10394000022100692062206B55F820006062384631
:1039500001F030F808EBC0004068A0622869E0621E
:103960006078032812D1206B012820D002280DD1C5
:103970000221384601F01EF8C0EBC00006EB8000C3
:1039800080692062206B55F8200060622AE70221DE
:10399000384601F00FF8C0EBC00006EB8000C068AD
:1039A0002062206B55F820006062E868D7E70221AA
:1039B000384600F0FFFFC0EBC00006EB8000406916
:1039C0002062206B55F820006062E868E06209E739
:1039D0002DE9F0472DED068BFDF75EFF0221AA4889
:1039E00000F0E8FF9FEDA9AADFEDA99A00279FED5F
:1039F000A99ADFEDA98ADFF88C92A24C09F180091F
:103A00004FF49B7A09F180059FEDA48AA44E01280A
:103A1000B0EE480A4FF01400B0EE401AF0EE400A43
:103A200002D0FEF7E6FD9DE0FEF7E3FD06E000BFF5
:103A3000FEF725FB30B9012003F00FFCFCF7DDFF9A
:103A40000628F5DBF0EE480A1920B0EE601AB0EE59
:103A50004A0AFEF7CEFD05E0FEF711FB30B9012062
:103A600003F0FBFB2868A16A8842F5DCB846A76131
:103A70004F460AE00222B0EE491AF0EE480A502002
:103A8000B0EE680AA16AFEF720FEE06AF96F14380A
:103A90008142EFDBA069401CA0613228F5DBC4F84D
:103AA00018800AE00222B0EE491AF0EE480A14200B
:103AB000B0EE680AA16AFEF708FEF86F5045F1DB28
:103AC000A069401CA0613228F7DB2868A16A8842FF
:103AD0001CDAF0EE480A0A20B0EE601AB0EE690A6D
:103AE000FEF787FD06E000BFFEF7C9FA70B90120B6
:103AF00003F0B3FB0221304600F05CFF0128F3D055
:103B00000121304600F056FF0128EDD02868A16A57
:103B100088421CDDF0EE480A0A20B0EE601AB0EED2
:103B20004A0AFEF766FD06E0FEF7A9FA00280ED164
:103B3000012003F092FB0221304600F03BFF0128F8
:103B4000F2D00121304600F035FF0128ECD0BDEC69
:103B5000068BBDE8F08700BFFEF791FA30B901206F
:103B600003F07BFBFCF749FF0628F5DBF0EE480A83
:103B70001920B0EE601AB0EE690AFEF73AFD05E0D2
:103B8000FEF77DFA30B9012003F067FB6868A16A8F
:103B90008842F5DCB846A7614F460AE00222B0EE43
:103BA000491AF0EE480A5020B0EE680AA16AFEF702
:103BB0008CFDE06AF96F14388142EFDBA069401C8C
:103BC000A0613228F5DBC4F818800AE00222B0EECA
:103BD000491AF0EE480A1420B0EE680AA16AFEF70E
:103BE00074FDF86F5045F1DBA069401CA0613228DC
:103BF000F7DB6868A16A88421CDAF0EE480A0A20FE
:103C0000B0EE601AB0EE4A0AFEF7F3FC06E000BF21
:103C1000FEF735FA70B9012003F01FFB0221304690
:103C200000F0C8FE0128F3D00121304600F0C2FEAA
:103C30000128EDD06868A16A884288DDF0EE480A64
:103C40000A20B0EE601AB0EE690AFEF7D2FC07E077
:103C5000FEF715FA00287FF47AAF012003F0FDFA91
:103C60000221304600F0A6FE0128F1D001213046A5
:103C700000F0A0FE0128EBD069E70000040300205B
:103C80000801002000000020000402400000614400
:103C9000000061C4000048C20000E14400000000D0
:103CA000001002402DE9F0472DED028BFFF7FEFDDD
:103CB000FFF7F5FDFC4D0122D102284600F092FEEF
:103CC000DFF8E893012211024C46484600F08AFED4
:103CD0006420FCF7ACFE4FF4007A002251462046E7
:103CE00000F080FE4FF4C870FCF7A1FE02212846C8
:103CF00000F060FEEE4C00261FED188A4FF4FA77B4
:103D000047F2305804F180050128A66102D0DFEDAA
:103D1000E98A70E0DFEDE88A0AE0B0EE480A0222A4
:103D2000B0EE681AF0EE400A5020216AFEF7CDFC92
:103D3000E06AE96F19308142EFDCA069401CA061A4
:103D40003228F5DBA6610AE0B0EE480A0222B0EEA6
:103D5000681AF0EE400A1920216AFEF7B6FC606A84
:103D6000E96F14308142EFDCA069401CA061322869
:103D7000F5DB0220FEF7AAFB01225146484600F07F
:103D800031FE444618E03846FCF751FEA86B4FF070
:103D9000140200284FF0000114DAB6EE000A2046A3
:103DA000FEF7E8FB03E000BFFEF771F910B9A86B5E
:103DB0000028F9DBFEF7A1FBA86B0028E3D1BDECDE
:103DC000028BC6E6BEEE000A2046FEF7D3FB03E0F8
:103DD000FEF755F90028EDD1A86B0028F8DCE9E7DB
:103DE000B0EE480A0022B0EE681AF0EE400A502009
:103DF000216AFEF76AFCE06AE96F1E308142EFDC5F
:103E0000A069401CA0613228F5DBA6610AE0B0EE93
:103E1000480A0022B0EE681AF0EE400A1920216A22
:103E2000FEF753FC606AE96F19308142EFDCA0694C
:103E3000401CA0613228F5DB0220FEF747FB01227F
:103E40005146484600F0CEFD444617E03846FCF7A0
:103E5000EEFDA86B4FF0140200284FF0000111DABC
:103E6000B6EE000A2046FEF785FB02E0FEF70FF9EA
:103E700010B9A86B0028F9DBFEF73FFBA86B002800
:103E8000E4D19CE7BEEE000A2046FEF773FB03E098
:103E9000FEF7F5F80028EFD1A86B0028F8DCEBE777
:103EA0002DE9F0412DED028BFFF700FD02217E4848
:103EB00000F080FD00211FED878A7D4D4FF4FA76DA
:103EC00047F2305705F180040128A96102D0DFEDE7
:103ED0007B8A52E0DFED7A8A0AE0B0EE480A0222DD
:103EE000B0EE681AF0EE400A1420296AFEF7EDFBE6
:103EF000E06F696A8842F0DCA869401CA86132283A
:103F0000F6DB0220FEF7E2FA18E03046FCF78FFD00
:103F1000A06B4FF0140200284FF0000114DAB6EE47
:103F2000000A3846FEF726FB03E000BFFEF7AFF8B5
:103F300010B9A06B0028F9DBFEF7DFFAA06B0028B0
:103F4000E3D1BDEC028B4DE4BEEE000A3846FEF72D
:103F500011FB03E0FEF793F80028EDD1A06B0028D9
:103F6000F8DCE9E7B0EE480A0022B0EE681AF0EE9D
:103F7000400A1420296AFEF7A8FB686AE16F001D59
:103F80008142EFDCA869401CA8613228F5DB0220E1
:103F9000FEF79CFA18E03046FCF749FDA06B4FF0A5
:103FA0000A0200284FF0000112DAB6EE000A384685
:103FB000FEF7E0FA03E000BFFEF769F810B9A06B66
:103FC0000028F9DBFEF799FAA06B0028E3D1B8E7E7
:103FD000BEEE000A3846FEF7CDFA03E0FEF74FF8D2
:103FE0000028EFD1A06B0028F8DCEBE72DE9F05FAB
:103FF0002D4D0221284600F0DDFC2D4C0226012724
:104000000128DFF8A890206B4FF400684FF4807A05
:104010004FF4007B0AD002282BD00022514648469C
:1040200000F0E0FC2663BDE8F05F39E7012813D01B
:10403000FFF73CFC002251464E46484600F0D2FCB9
:10404000607803280CD000BFFFF7C2FC6078401CEA
:1040500060702763BDE8F09F002241462846DFE7F5
:1040600001228021284600F0BDFC0022594630463E
:1040700011E0FFF71BFC00224146284600F0B2FC8D
:1040800060780328E0D101228021284600F0AAFCB4
:1040900000225946484600F0A5FC2846BDE8F05FDE
:1040A0000022402100F09EBC0004024000080240B3
:1040B000000000200000C8C20000C8420000C8C3C1
:1040C0000000E14370B5FFF7EAFBFF4D02202863D3
:1040D000FFF7ECFB0221FD4800F06CFCDFEDFC0A71
:1040E000FC4C0128B0EE601A4FF00F0004D09FED99
:1040F000FA0AFEF77EFA1FE09FEDF80AFEF779FA5A
:1041000006E000BFFDF7BBFF10BB012003F0A5F8E0
:104110000221204600F04EFC0128F3D00121204668
:1041200000F048FC0128EDD012E000BFFDF7A7FF2A
:1041300070B9012003F091F80221204600F03AFC0A
:104140000128F3D00121204600F034FC0128EDD0F5
:104150006878401C68700120286370BD2DE9F04725
:104160002DED068BFFF79BFB0221D84800F022FCC7
:10417000DFEDDB9ADFF850934FF48A7A9FEDD79A00
:104180004FF49676DFEDD48A9FEDD18A09F1800550
:10419000D04C05F180070128B0EE481A0BD09FEDF6
:1041A000D1AA3220F0EE4A0ADFEDCFAAB0EE6A0AB9
:1041B000FEF71FFAA8E09FEDCDAA5FED3FAA3220DF
:1041C000F0EE4A0AB0EE6A0AFEF713FA06E000BF04
:1041D000FDF755FF30B9012003F03FF8FCF7BBFBBA
:1041E000B042F5DBB0EE481AF0EE4A0A3220B0EEEB
:1041F0006A0AFEF7FEF94FF49C7605E0FDF73FFFF3
:1042000028B9012003F029F8E86FB042F6DCFFF787
:10421000B8F9F0EE480A1920B0EE601AB0EE490A7B
:10422000FEF7E7F94FF48B7806E000BFFDF727FFB4
:1042300028B9012003F011F838684045F6DAF0EEAD
:10424000480A0D20B0EE601AB0EE690AFEF7D1F907
:1042500006E000BFFDF713FF28B9012002F0FDFFC3
:10426000E86FB042F6DB3868B0F5867F1DDAF0EE15
:10427000480A0A20B0EE601AB0EE680AFEF7B9F9F3
:1042800006E000BFFDF7FBFE70BB012002F0E5FF7A
:104290000221204600F08EFB0128F3D001212046A8
:1042A00000F088FB0128EDD01EE050451CDBF0EE4D
:1042B000480A0A20B0EE601AB0EE490AFEF799F9F2
:1042C00006E000BFFDF7DBFE70B9012002F0C5FF7C
:1042D0000221204600F06EFB0128F3D00121204688
:1042E00000F068FB0128EDD099F801104846491C00
:1042F00089F80110BDEC068B2BE400BFFDF7BFFE73
:1043000030B9012002F0A9FFFCF74FFBB042F5DB0A
:10431000B0EE481AF0EE4A0A3220B0EE6A0AFEF712
:1043200068F94FF49D7605E0FDF7A9FE28B9012054
:1043300002F093FFE86FB042F6DAFFF722F9F0EEF1
:10434000480A1420B0EE601AB0EE680AFEF751F980
:104350004FF48D7806E000BFFDF791FE28B90120EB
:1043600002F07BFF78684045F6DCF0EE480A0F204B
:10437000B0EE601AB0EE690AFEF73BF906E000BF46
:10438000FDF77DFE28B9012002F067FFE86FB0421B
:10439000F6DD786850451DDAF0EE480A0A20B0EEE6
:1043A000601AB0EE490AFEF724F906E0FDF767FE51
:1043B000002899D1012002F050FF0221204600F090
:1043C000F9FA0128F2D00121204600F0F3FA012881
:1043D000ECD089E7404587DBF0EE480A0A20B0EED2
:1043E000601AB0EE680AFEF704F906E0FDF747FE32
:1043F0000028EED1012002F030FF0221204600F01B
:10440000D9FA0128F2D00121204600F0D3FA012880
:10441000ECD069E71120FDF762FD0F2002F01DFFCF
:10442000F8E700BFFFF729FA0A2002F016FFF9E7C4
:10443000254C00BFFEF772FF207808B9FEF7B5FAE9
:10444000052002F00AFFF5E71FB5FCF7FCFAFCF7C0
:104450002DFBFCF730FCFCF701FDFCF7BAFDFCF787
:104460002DFEFCF789FB4FF4E1342046FCF7EFFE0C
:104470002046FCF76EFF2046FCF7F1FF2046FDF7D3
:1044800075F8E000FDF70AF9FDF710FAFDF704FAF8
:1044900000244FF4807500940194029423462A4628
:1044A00013A11848039402F001FD009401940294B2
:1044B00000232A4614A11948039402F0F7FC024D88
:1044C00005F541745BE0000000000020000402409C
:1044D0000000000000100240000061C400006144C0
:1044E0000000E144008022C40000E1C300802244B7
:1044F0007461736B526F626F74416E616C79746931
:1045000063730000314400087461736B446965751E
:104510004B6869656E436F43617500002344000872
:104520002748806B002800DA4042B0F52F7F02DD7B
:10453000FEF73DFE23E0FEF76FFD2078C00701D1B6
:10454000FFF7C0FD2178687801F00802024308D027
:1045500009070ED4012807D0022805D0032803D06C
:1045600007E0FFF7FBFD04E0286B012801D1FFF70E
:1045700099FB607810F0480F01D1FFF737FDA07963
:104580007328FCD1CCE77FB500244FF480750094EC
:104590000194029423462A460AA10D48039402F08E
:1045A00085FC00940194029400232A4609A10C483A
:1045B000039402F07BFC02F09FFF04B0002070BD6A
:1045C000800000207461736B4D61696E0000000013
:1045D000494400087461736B4779726F00000000F2
:1045E000154400080CB500205149019000900A685C
:1045F00042F480320A604FF4A0630A6802F4003289
:104600000092019A521C0192009A12B9019A9A42A0
:10461000F3D10A68920334D5012000904448403019
:10462000026842F0805202604248026842F48042CE
:1046300002603F48083002680260026842F40042AB
:104640000260026842F4A0520260031F3A4A1A60F4
:104650000A6842F080720A600A689201FCD5374A03
:1046600040F205611160016821F0030101600168F9
:1046700041F0020101600168C1F381010229FAD110
:104680000CBD00900CBD2A4810B5016841F0010135
:104690000160274A0021083211600268284B1A4045
:1046A0000260031D274A1A60026822F48022026019
:1046B0001F480C300160FFF795FF23494FF0006061
:1046C000086010BD70B51A4C083420681F4A10F0FD
:1046D0000C011F4804D05510042903D0082903D029
:1046E00002601BE0056019E01149091D0B68C3F366
:1046F00080560B6803F03F0316B1B5FBF3F201E0FF
:10470000B2FBF3F20B680968C3F388135A43C1F391
:104710000141491C4900B2FBF1F1016021680C4ADA
:10472000C1F30311121D515C0268CA40026070BDE2
:10473000003802400070004008544007003C02402E
:10474000FFFFF6FE1030002408ED00E00024F40026
:10475000200300200648804706480047FEE7FEE7A2
:10476000FEE7FEE7FEE7FEE7FEE7FEE7FEE7FEE721
:10477000874600088901000828490843284908603D
:10478000704730B50F22C47801780123FCB1244C66
:10479000246801F1E02104F4E064C4F5E064C4F3AA
:1047A0000724C4F10405E2404478AC408578154004
:1047B00025432A0181F80024007800F01F018B4076
:1047C0004009800000F1E020C0F8003130BD01F068
:1047D0001F0083404809800000F1E020C0F88031CC
:1047E00030BD104A114001430D48001F0160704761
:1047F0000B4A121D0029116801D0014300E08143DA
:10480000116070474FF0E0210428086903D020F0C0
:1048100004000861704740F00400FAE70000FA0560
:104820000CED00E080FFFF1F7C4910B5884206D1E7
:104830000121084600F058FA002101204FE0784994
:10484000884206D10121022000F04EFA0021022008
:1048500045E07449884206D10121042000F044FA61
:10486000002104203BE07049884206D10121082044
:1048700000F03AFA0021082031E06C49884206D164
:104880000121102000F030FA0021102027E06849B3
:10489000884206D10121202000F026FA00212020A4
:1048A0001DE06449884206D10121402000F01CFA35
:1048B0000021402013E06049884206D10121802078
:1048C00000F012FA0021802009E05C4988420AD1F8
:1048D00084150121204600F007FA00212046BDE89A
:1048E000104000F001BA10BDF0B5002301240327E9
:1048F0000D6804FA03F21540954242D1D0F800C089
:104900005E0007FA06F52CEA050CC0F800C091F825
:1049100004C0D0F800E00CFA06FC4CEA0E0CC0F81B
:1049200000C091F804C0BCF1010F02D0BCF1020F2D
:104930001FD1D0F808C02CEA050CC0F808C091F8C7
:1049400005C0D0F808E00CFA06FC4CEA0E0CC0F8E2
:1049500008C0D0F804C02CEA020CC0F804C04268B9
:1049600091F806C00CFA03FC1FFA8CFC42EA0C0218
:104970004260C268AA43C260CA79C568B2402A438D
:10498000C2605B1C102BB3D3F0BD4FF6FF7101600A
:104990000021017141718171C171704708B541F405
:1049A00080320092C261C1610099C161C169C06970
:1049B000009008BD0246002012690A4200D0012082
:1049C0007047006980B270470246002052690A426F
:1049D00000D001207047406980B270470183704762
:1049E000418370470AB10183704741837047416139
:1049F000704742694A40426170474B07DB0E9A405C
:104A0000C90810B500EB8100016A0F249C40A14346
:104A10000162016A1143016210BD00000000024002
:104A20000004024000080240000C02400010024056
:104A30000014024000180240001C02400020024006
:104A4000EA48016841F001010160E84A00210832AA
:104A500011600268E64B1A400260031DE54A1A60C5
:104A6000026822F480220260E0480C300160704746
:104A7000DE490022891C0A70087070470246002037
:104A8000510901290CD002290CD0D8497431096888
:104A900002F01F02012393400B4200D00120704717
:104AA000D249F4E7D1497031F1E718B500204FF44D
:104AB000A06400903120FFF7E1FF0099491C0091AC
:104AC000A14201D00028F5D03120FFF7D7FF002800
:104AD00000D0012018BDC5490A6822F0F80242EA58
:104AE000C00008607047C44908607047BF49002291
:104AF00070310A700A70012802D0042801D1052003
:104B000008707047BD490860704741EA82115A0831
:104B100010B5BB4B029C03EB02421143014341EA37
:104B20000460B249091D086010BDB34908667047AA
:104B3000800140EA0170AD49843108607047AE4998
:104B400088667047AC49C8647047A84A0832136841
:104B5000084323F0EC63184310607047A34A0832FF
:104B60001368084323F078431843106070479F4A46
:104B70000832116821F003010143116070479B481E
:104B80000830006800F00C007047984A083211683D
:104B900021F0F001014311607047944A0832116816
:104BA00021F4E051014311607047904908310A68CF
:104BB00022F4604242EAC0000860704770B58B4A38
:104BC000083211688F4C11F00C0104D066100429D2
:104BD00003D0082903D004601BE0066019E0834974
:104BE000091D0B68C3F380550B6803F03F0315B133
:104BF000B6FBF3F301E0B4FBF3F30C680968C4F30C
:104C000088146343C1F30141491C4900B3FBF1F12E
:104C1000016011680F2303EA11117B4B5C5C016892
:104C2000E14041601468072505EA94241C5D21FADF
:104C300004F48460126805EA52329A5CD140C16083
:104C400070BDC0F30121032908D1684A08321168F8
:104C500021F4F8136D490140194311606349703123
:104C60000A68C0F30B0002430A6070476349443985
:104C70000860704761494039086070475E49C1F873
:104C80005C017047594A30320029116801D0014354
:104C900000E0814311607047544A343200291168A2
:104CA00001D0014300E08143116070474F4A383220
:104CB0000029116801D0014300E081431160704771
:104CC0004A4A40320029116801D0014300E0814383
:104CD00011607047454A44320029116801D00143F0
:104CE00000E0814311607047404A1032002911688A
:104CF00001D0014300E08143116070473B4A143208
:104D00000029116801D0014300E081431160704720
:104D1000364A18320029116801D0014300E081436E
:104D200011607047314A20320029116801D00143D7
:104D300000E08143116070472C4A24320029116839
:104D400001D0014300E0814311607047274A50328F
:104D50000029116801D0014300E0814311607047D0
:104D6000224A54320029116801D0014300E08143F6
:104D7000116070471D4A58320029116801D0014363
:104D800000E0814311607047184A603200291168C1
:104D900001D0014300E0814311607047134A64323F
:104DA0000029116801D0014300E081431160704780
:104DB0000E4A0D320029117801D0014300E08143F1
:104DC0001170704709487430016841F080710160CA
:104DD00070470146054A00200C3212680A4200D092
:104DE0000120704701490E310870704700380240B9
:104DF000FFFFF6FE1030002400004742800E4742BD
:104E00000000FFFF0024F40034030020FFFCFF0F2C
:104E100010B501210C022046FFF78EFF2046BDE8A9
:104E200010400021FFF788BF30B54268C84B0C79AD
:104E30001A400B6842EA0422134343608268C54B60
:104E40004D791A40D1E9034323438C6844EA450471
:104E5000234313438360C26A097D22F47002491E12
:104E6000C9B242EA0151C16230BD00210160017145
:104E700041718160C1600161012101757047B64BCC
:104E800010B5D3F80423B5490A40D0E900142143F2
:104E9000D0E90240044321431143C3F8041310BD79
:104EA0000021016041608160C16070470029816814
:104EB00002D041F0010101E021F001018160704761
:104EC0004268A74B1A400A434260704741628262BF
:104ED0007047426822F01F020A43426070479E49B1
:104EE0000028D1F8040302D040F4000001E020F4CF
:104EF0000000C1F80403704797490028D1F8040363
:104F000002D040F4800001E020F48000C1F80403E6
:104F1000704770B5072409290AD9C568A1F10A06A6
:104F200006EB4606B440A543B3401D43C56007E009
:104F3000056901EB4106B440A543B3401D4305613B
:104F40001F23072A09D2446B521E02EB82029340B0
:104F50009C4391400C43446370BD0D2A09D2046BFD
:104F6000D21F02EB820293409C4391400C430463A6
:104F700070BDC46A0D3A02EB820293409C4391409B
:104F80000C43C46270BD816841F08041816070470C
:104F9000014600208968490200D501207047002998
:104FA000816802D041F4806101E021F48061816078
:104FB00070470029816802D041F0020101E021F030
:104FC0000201816070474268491E22F4604242EA51
:104FD0004131416070470029416802D041F40061CD
:104FE00001E021F4006141607047C06C80B27047FD
:104FF0005948D0F8080370470029816802D041F46D
:10500000807101E021F4807181607047002981681E
:1050100002D041F4007101E021F400718160704719
:105020004D490028D1F8040302D040F4005001E0BB
:1050300020F40050C1F80403704770B50724092913
:105040000AD9C568A1F10A0606EB4606B440A54395
:10505000B3401D43C56007E0056901EB4106B4405C
:10506000A543B3401D430561836BC3F30154121B79
:10507000921C02EB82041F22A2409343A1400B43E7
:10508000836370BD826B491E22F4401242EA0151D3
:105090008163704708B508440090026008BD8268CB
:1050A00022F470220A4382607047826822F4401220
:1050B0000A4382607047816841F4800181607047D3
:1050C000014600208968490200D501207047002967
:1050D000416802D041F4806101E021F480614160C7
:1050E00070470029416802D041F4805101E021F469
:1050F00080514160704708B508442830009000682E
:1051000080B208BD01238B4041680AB1194300E019
:105110009943416070470246002012680A4200D05D
:1051200001207047C9430160704730B50246002036
:1051300053680C0A01258D4011682B40214202D092
:10514000002B00D0012030BD6FEA112101607047B3
:10515000FFFEFFFCFDF7FFC000200140E030FCFF38
:10516000FFFD3FFF2DE9F043016821F001010160DF
:105170000021016041608160C160016121214161C4
:10518000B849B84A3D251039904202D18D60BDE83A
:10519000F083B44A4FF474661832904201D18E60A5
:1051A000F5E7B04A4FF474173032904201D18F6066
:1051B000EDE7AC4A4FF0746C4832904202D1C1F82E
:1051C00008C0E4E7A74BA84A6033984201D1CA60FF
:1051D000DDE7A44CA54B7834A04201D1CB60D6E7E3
:1051E000DFF88082A24C08F19008404501D1CC60E4
:1051F000CDE7DFF870824FF03D5908F1A80840452F
:1052000002D1C1F80C90C2E79A49DFF868820839E8
:10521000404501D10D60BAE7964D1835A84201D13D
:105220000E60B4E7934D3035A84201D10F60AEE770
:10523000904D4835A84202D1C1F800C0A7E78D4D76
:105240008C496035091FA84201D10A609FE7894A4D
:105250007832904201D10B6099E7864A90329042B1
:1052600001D10C6093E7834AA83290428FD1C1F8F4
:1052700000908CE730B503687F4ACC6813400A6819
:105280002243D1E905452C432243CC6922430C6AD1
:1052900022434C6A22438C6A22434C6B22438C6B20
:1052A00022431A430260426922F00703D1E90B242A
:1052B00022431A4342610A6942604A6882608968EF
:1052C000C16030BD0021016041608160C160016149
:1052D00041618161C161016241628162C1620163B8
:1052E0004163816370470029016802D041F00101E8
:1052F00001E021F00101016070470029016802D03E
:1053000041F4004101E021F40041016070470029AF
:10531000016802D041F0200101E021F0200101608C
:10532000704741607047406880B27047002A026849
:1053300002D042F4002201E022F400220260016166
:1053400070470029016802D041F4802101E021F476
:105350008021016070470AB101617047C1607047E8
:10536000014600200968090300D501207047014665
:1053700000200968C90700D001207047406900F08B
:105380003800704702463B4B00209A4202D2354A11
:10539000103A01E0374A103A8B0001D5526800E01C
:1053A0001268364B1A400A4200D001207047314A39
:1053B000904202D22B48103801E02E4810382F4A74
:1053C0008B0001EA020101D5C1607047816070471E
:1053D0000B0607D5436912B143F0800301E023F0C7
:1053E00080034361802908D0002A026801F01E0171
:1053F00001D00A4300E08A430260704730B51D4A7D
:105400000024904202D2174B103B01E0194B103B95
:105410001B4A114205D01E2202EAD12502682A4009
:1054200002E0406900F08002880001D5586800E081
:105430001868124B1840084201D002B101242046DE
:1054400030BD0C4A904202D20648103801E00948AB
:1054500010380A4A8B0001EA020101D5C160704789
:1054600081607047106002403D000020400F002026
:1054700000003D20106402403F801CF07D0F7D0F36
:105480003C0F3C0F374900200860091D0860091DCA
:105490000860091D086033493348143108607047BB
:1054A00030B530498379026853B30B6893430B607E
:1054B0000A1D13680468A343136002790A44136841
:1054C000046823431360274A083213680468A3431F
:1054D0001360131D1C680568AC431C604479102CD4
:1054E00005D021440A68006802430A6030BD116893
:1054F000046821431160196800680143196030BDD8
:105500000079084401689143016030BD00210160C9
:1055100001710C22427181717047124910310A6881
:1055200002430A60704701460E4A00201432126896
:105530000A4200D0012070470A49143108607047C0
:10554000084A014600201268064B0A4014331B68C3
:105550000B4202D0002A00D00120704701491431CB
:1055600008607047003C0140FFFF7F00FE4910B516
:10557000884206D101210846FFF7DEFB0021012009
:105580005BE0B0F1804F09D0F84988420DD101218C
:105590000220FFF7C7FB0021022070E0012108462E
:1055A000FFF7C0FB0021012069E0F149884206D1E4
:1055B00001210420FFF7B6FB002104205FE0ED4944
:1055C000884206D101210820FFF7ACFB002108200A
:1055D00055E0E949884206D101211020FFF7A2FBDE
:1055E000002110204BE0E549884206D1012120200E
:1055F000FFF798FB0021202041E0E149884206D1D5
:1056000001210220FFF798FB0021022015E0DD496F
:10561000884202D101210C040AE0DB49884202D110
:1056200001214C0404E0D94988420AD101218C04AB
:105630002046FFF781FB00212046BDE81040FFF720
:105640007BBBD349884206D101214020FFF76AFB8A
:105650000021402013E0CF49884206D1012180205B
:10566000FFF760FB0021802009E0CB4988420AD186
:10567000841501212046FFF755FB00212046BDE897
:105680001040FFF74FBB10BD30B50288B64BBC4C85
:1056900098420DD0A0420BD0B0F1804F08D0B34D4E
:1056A000A84205D0B24DA84202D0B24DA84203D1C3
:1056B00022F070054A882A43AF4DA84206D0AF4D6C
:1056C000A84203D022F440750A892A4302804A681E
:1056D000C2620A880285984201D0A04201D1897A2B
:1056E00001860121818230BD4FF0FF3141600021F0
:1056F00001800181418081727047018582827047FB
:10570000028822F070020A430280704741627047AB
:10571000C1627047406A7047008D70470029018858
:1057200002D041F0020101E021F002010180704746
:105730000029018802D041F0040101E021F00401B8
:10574000018070470029018802D041F0800101E00A
:1057500021F0800101807047028822F00802028057
:1057600002880A4302807047028822F44072028055
:1057700002880A43028070470029018802D041F064
:10578000010101E021F001010180704730B5028C78
:1057900022F001020284028C8388048B22F0020230
:1057A00024F073050C882C438D8915434A882A43BD
:1057B0006D4DA84202D0724DA8420DD122F00805CD
:1057C000CA8923F440732A4322F004058A882A43B5
:1057D0000D8A1D434B8A2B43838004838968416370
:1057E000028430BD70B5028C22F010020284028C5B
:1057F0008488038B0D8823F4E6464FF6FF7303EA93
:10580000052535438E8922F0200203EA0616164349
:105810004A8803EA02123243534EB04202D0584E35
:10582000B04215D122F08006CA8924F4406403EA0C
:105830000212324322F040068A8803EA02123243FF
:105840000E8A03EA860626434C8A03EA840434431C
:105850008480058389688163028470BD70B5028C81
:1058600022F480720284028C8488838B0D8823F05A
:1058700073031D4322F400738E894FF6FF7202EA10
:1058800006261E434B8802EA03233343364EB042BA
:1058900002D03B4EB04215D123F40066CB8924F4EC
:1058A000405402EA0323334323F480668B8802EAE0
:1058B000032333430E8A02EA061626434C8A02EA81
:1058C00004143443848085838968C163038470BD74
:1058D00070B5028C22F480520284048C8288838BFF
:1058E0000D8823F4E6464FF6FF7303EA052535439A
:1058F00024F400568C8903EA043434434E8803EAC6
:1059000006362643184CA04202D01D4CA04205D1B9
:1059100022F480440A8A03EA821222438280858329
:1059200089680164068470BD002101804180818006
:1059300081608181C18101824182704730B501243B
:10594000058C00F118038C40A543058431B3082968
:105950002CD0091FC1F34E001844016848F6FF73AC
:105960001940016001681AE0000001400004004095
:1059700000080040000C00400010004000140040EF
:105980000004014000400140004401400048014043
:1059900000180040001C00400020004006E04FF6C8
:1059A000FF7303EA02221143016030BD03EB510093
:1059B00001684FF68F73194001600168F3E7416396
:1059C000704781637047C163704701647047028B01
:1059D00022F070020A4302837047028B4FF6FF7376
:1059E00022F4E04203EA0121114301837047828BD4
:1059F00022F070020A4382837047828B4FF6FF7356
:105A000022F4E04203EA0121114381837047028BB3
:105A100022F008020A4302837047028B4FF6FF739D
:105A200022F4006203EA0121114301837047828B53
:105A300022F008020A4382837047828B4FF6FF737D
:105A400022F4006203EA0121114381837047028B33
:105A500022F004020A4302837047028B4FF6FF7361
:105A600022F4806203EA0121114301837047828B93
:105A700022F004020A4382837047828B4FF6FF7341
:105A800022F4806203EA0121114381837047028B73
:105A900022F080020A4302837047028B4FF6FF73A5
:105AA000C2F30E0203EA0121114301837047828B86
:105AB00022F080020A4382837047828B4FF6FF7385
:105AC000C2F30E0203EA0121114381837047028C65
:105AD00022F002020A4302847047028C22F008027C
