:020000040800F2
:100000008032002005490008450200084702000828
:10001000490200084B0200084D02000800000000E1
:100020000000000000000000000000009D0100082A
:100030004F02000800000000E10100083B6F0008CB
:100040001F4900081F4900081F4900081F490008F0
:100050001F4900081F4900081F4900081F490008E0
:10006000010400084D0400081F4900080B030008A4
:10007000CD020008570300081F4900087502000858
:100080001F4900087D0200081F4900081F49000899
:100090001F4900081F4900081F4900081F490008A0
:1000A0001F4900087B0300089B0300081F49000844
:1000B0009D030008BD0300081F4900081F490008F0
:1000C0001F4900081F4900081F490008FD030008D8
:1000D0001F490008550200081F4900081F49000871
:1000E0001F4900081F4900081F4900081F49000850
:1000F0001F4900081F4900081F4900082D03000878
:100100001F4900081F490008DD030008FF0300081D
:100110001F4900081F49000861030008690300081F
:100120001F4900089F020008A70200081F49000895
:100130001F4900081F4900081F4900081F490008FF
:100140001F4900081F4900081F4900081F490008EF
:10015000C30200081F4900081F4900081F49000882
:100160001F4900081F4900081F4900081F490008CF
:100170001F4900081F4900081F4900081F490008BF
:100180001F4900081F490008DFF80CD007F060FF86
:1001900000480047FD46000880320020234B1968C4
:1001A0000868B0E8F04F80F309884FF0000080F352
:1001B000118870470000000003480068006880F361
:1001C000088862B600DF00BF08ED00E0DFF80C0031
:1001D000016841F470010160704700BF88ED00E0E4
:1001E000EFF30980114B1A681EF0100F08BF20EDC5
:1001F000108A20E9F04F106008B54FF0140080F32A
:10020000118807F070F94FF0000080F31188BDE805
:10021000084019680868B0E8F04F1EF0100F08BFDA
:10022000B0EC108A80F30988704700BFCC0300202F
:10023000EFF311804FF0140181F31188704780F3C0
:10024000118870477047FEE7FEE7FEE7FEE770475C
:100250007047704710B57E4C40F22551204606F09D
:10026000B6F8002805D02046BDE81040202106F051
:10027000ABB810BD7749784805F0BBB970B5764D7D
:10028000764C30352146284605F090F9002805D0F7
:1002900021462846BDE8704005F0ABB970BD7049F5
:1002A000704805F0A6B96F4810B56F49183005F0D1
:1002B000A0F96E484178007841EA00206C49088036
:1002C00010BD68486B49603005F093B970B5624D58
:1002D000634C483D2146284605F068F9002813D0B4
:1002E0002146284605F085F9634801F059FF0028AA
:1002F0000AD1624C0021204605F0A8FF2046BDE847
:100300007040012105F0A2BF70BD70B5524D5C4C2C
:10031000603D2146284605F049F9002805D02146D0
:100320002846BDE8704005F064B970BD70B54A4C10
:10033000544D48342946204605F038F9002809D0A4
:100340000021204605F0A7F829462046BDE8704068
:1003500005F04FB970BD40483E49303805F049B905
:100360000121494805F011BE10B50121474805F0AB
:100370000CFE37497A20888010BD10B5444C01210D
:10038000204605F002FE2088C1064248016801D5DA
:10039000491E00E0491C016010BD704710B50121E5
:1003A0008C07204605F0F1FD2088C1063A48016817
:1003B00001D5491E00E0491C016010BD10B5374C45
:1003C0000121204605F0E1FD2088C106344801687E
:1003D00001D5491E00E0491C016010BD10B5314C2B
:1003E0000121204605F0D1FD2088C1062E48016874
:1003F00001D5491E00E0491C016010BD70477047DF
:1004000070B5042005F074F900281ED0202127487B
:1004100004F0C7FB264D0421284604F0A3FB1B4C27
:10042000012805D00421284604F09CFB28B109E0EE
:100430000021204605F042FA04E0204605F042FA89
:100440001C4908601C490420086070BD704700000A
:1004500000100140208000207060024000802020B9
:100460000088001028640240008020100005002051
:100470000E000020008800201E05002000480040DB
:100480002080001000800028001000400014004070
:100490000000014010000020140000200004004073
:1004A00070030020000C0040740300200000024094
:1004B000000C024078030020143C014070B5054652
:1004C000002407F02BFBFE4902E02A5D0A55641C5C
:1004D0008442FADBBDE870400121FA4804F0DBBF3A
:1004E00070B5F94D06460024315D00290BD0284631
:1004F00005F0D2FE8021284605F05FFF0028F9D0E4
:10050000641CE4B2F0E770BD70B5EF4E0546002400
:10051000002D0DD02946304605F0BEFE8021304624
:1005200005F04BFF0028F9D0641CE4B2032CEFD394
:1005300070BD73B50C460020FFF7E6FFE3A0FFF7A0
:10054000CFFFDF482246E2A1823807F0CFFDDC482A
:100550008238FFF7C5FFDFA0FFF7C2FFDFA0FFF77C
:10056000BFFFD748DAA18238009A07F0BFFDD44E0A
:100570000024D54D823E2846315D05F08DFE402198
:10058000284605F01AFF0028F9D0641C142CF2DB71
:10059000D2A0FFF7A5FFFF20FFF7B6FFFF20FFF770
:1005A000B3FFBDE87C40FF20AEE770B505460C46C2
:1005B000C6A0FFF795FFC2482246C5A1823807F0C2
:1005C00095FDBF488238FFF78BFFC5A0FFF788FF76
:1005D0002846FFF785FFC1A0FFF782FFBDE8704006
:1005E000FF2091E777B5BEA185B00646D1E90001AD
:1005F000CDE90001B9A0002200680390B3A0B04D7E
:100600000068283DA5F128030290AD4C1146A3F1E6
:100610003200A95499548154A154521CD2B21E2ABA
:10062000F7D30A210170FF2444708470C470A44879
:10063000A7A15038079A07F059FDA14902A85039DF
:1006400007F054FA9E4802A9823807F04FFA9C48F6
:100650006946823807F04AFA99483146823807F0ED
:1006600045FA97489AA15038069A07F03FFD9449F9
:100670005039A1F1320007F039FA914803A98238C4
:1006800007F034FA8E492C706C702839AC70A1F1E7
:100690005A0007F02BFA8A488238FFF70FFF08B09C
:1006A00070BD2DE9F74188468DA185B00646D1E998
:1006B0000001CDE9000189A000220068039083A019
:1006C0007F4D0068283DA5F1280102901446A1F154
:1006D0003200AC548C548454521CD2B20A2AF8D33F
:1006E0000A210170FF2747708770C770744878A18E
:1006F0005038079A07F0FAFC714902A8503907F000
:10070000F5F96F4802A9823807F0F0F96C4869469C
:10071000823807F0EBF96A483146823807F0E6F98B
:1007200067484146823807F0E1F9654803A98238F5
:1007300007F0DCF92F706F706149AF70EC702839E9
:100740002C71A1F15A0007F0D1F95D488238FFF70A
:10075000B5FE08B0BDE8F08170B50020FFF7D4FE0B
:100760005AA0FFF7BDFE56480D2259A1823807F066
:10077000BDFC53488238FFF7B3FE59A0FFF7B0FE27
:10078000594C2021204604F0EDF902464C4850A176
:10079000823807F0ABFC4A488238FFF7A1FE1021EF
:1007A000204604F0DFF90246454849A1823807F0A7
:1007B0009DFC43488238FFF793FE4C4D802128462C
:1007C00004F0D0F902463E4841A1823807F08EFC81
:1007D0003B488238FFF784FE4021284604F0C2F9E6
:1007E000024637483AA1823807F080FC3448823804
:1007F000FFF776FE4FF40041204604F0B3F90246BD
:100800002F4833A1823807F071FC2D488238FFF75A
:1008100067FE4FF48041204604F0A4F902462848C0
:100820002BA1823807F062FC25488238FFF758FE7A
:100830004FF40051204604F095F90246204824A1C7
:10084000823807F053FC1E488238FFF749FE4021EA
:10085000274804F087F9024619481DA1823807F09D
:1008600045FC17488238FFF73BFE1CA0FFF738FE17
:10087000FF20FFF749FEFF20FFF746FEBDE870406E
:10088000FF2041E6FEB51BA10646D1E90001CDE9F6
:1008900000011AA000210A4D0068283DA5F1280298
:1008A00002900C46A2F132006C5454544454491C3A
:1008B000C9B23229F8D30A210170FF2747701FE01F
:1008C000BE040020B86002400050004074000000E8
:1008D000256400002E7478743D00000022000000A2
:1008E0002E7478743D22000000080240000002408F
:1008F000001002402E76616C3D0000006A0000008E
:100900008770C7700022AFF23801FE4807F0EEFB97
:10091000FC4902A807F0EAF8FA4802A9323807F0C1
:10092000E5F8F8486946323807F0E0F83246AFF2A9
:100930006001F44807F0DAFBF249A1F1320007F058
:10094000D5F82F706F70EF49AF70EC7028312C71B3
:10095000A1F15A0007F0CAF8EA483238FFF7AEFDB5
:10096000FEBD2DE9FC414FF08047384604F0AAFF58
:10097000E54D6969642640EA014090FBF6F00024E9
:100980000190384604F09EFF696940EA014090FBFF
:10099000F6F001990090401A00D54042322800DA62
:1009A000641C00980190022CEBDB0098002800DA10
:1009B0004042BDE8FC812DE9FC41D44F384604F0AB
:1009C00081FFD14D2969642640EA014090FBF6F091
:1009D00000240190384604F075FF296940EA01407F
:1009E00090FBF6F001990090401A00D54042322861
:1009F00000DA641C00980190022CEBDB00980028C0
:100A0000D7DA4042D5E710B5FFF7ABFF0446FFF752
:100A1000D2FF002C00DA6442002800DA4042204471
:100A200010BD01B581B0019800EBC00040000090FE
:100A3000002801D0401EFAE70CBD01B581B044F298
:100A40005061019848430090002801D0401EFAE709
:100A50000CBD2DE9FC4101211F2004F0EBF901241C
:100A60008DF8044000268DF806604FF6FF758DF86E
:100A70000740032700958DF805706946A44804F0E7
:100A80000BF88DF804408DF806608DF8074000954E
:100A90008DF8057069469F4803F0FEFF8DF804400D
:100AA0008DF806608DF8074000958DF80570694651
:100AB000994803F0F1FF7CE77CB501217E2004F02A
:100AC000B9F90024C0208DF80440012500908DF86C
:100AD000075002268DF805606946904803F0DCFF58
:100AE00048F206008DF8044000908DF807508DF80C
:100AF00005606946864803F0CFFF04208DF8044066
:100B000000908DF807508DF805606946814803F024
:100B1000C3FF7CBD1FB54FF4E06003F005FF362036
:100B20008DF80C0000248DF80D408DF80E4001204A
:100B30008DF80F0003A803F0FCFE0121102004F043
:100B400097F93220ADF80000ADF80840ADF802404A
:100B500040F2E730724C01906946204604F06CFE8A
:100B60000121204605F011FA01221146204605F028
:100B7000ECF90021204604F0A1FE0121204604F0FA
:100B8000D3FE1FBD1FB54FF4E06003F0CDFE37204C
:100B90008DF80C0000248DF80D408DF80E400120DA
:100BA0008DF80F0003A803F0C4FE0121202004F0FB
:100BB0005FF94FF4FA70ADF80000ADF80840ADF8F9
:100BC000024040F2E730574C01906946204604F05D
:100BD00033FE0121204605F0D8F9012211462046B6
:100BE00005F0B3F90021204604F068FE01212046FB
:100BF00004F09AFE1FBD70B58AB00121022004F0F6
:100C000041F901210C2004F015F9424E032206217E
:100C1000304603F0CAFF03220721304603F0C5FF28
:100C200003220821304603F0C0FF03220921304689
:100C300003F0BBFF4FF47070059002208DF8180090
:100C400003208DF8190000248DF81A4001258DF835
:100C50001B5005A9304603F01FFFA420ADF81C006F
:100C60002802314E0890ADF82400ADF81E4007A9C7
:100C7000304604F0E1FD6020ADF80000ADF8025010
:100C80000294ADF80C400121304604F04DFE0021E5
:100C9000304604F013FE6946304604F04FFE6946C4
:100CA000304604F077FE6946304604F0AFFE6946F0
:100CB000304604F0E5FE0121304605F027F90AB080
:100CC00070BD70B58AB00121042004F0D1F8012173
:100CD0000D2004F0AFF8104E02220C21304603F034
:100CE00064FF02220D21304603F05FFF02220E2135
:100CF000304603F05AFF02220F21304603F055FF21
:100D000014E000006E0400200000002000000140FC
:100D10000004024000080240000C024000000240B3
:100D20000010004000140040000401404FF47040E7
:100D3000059002208DF8180003208DF8190000247A
:100D40008DF81A4001258DF81B5005A9304603F097
:100D5000A3FEA420ADF81C0028020890ADF82400E2
:100D6000ADF81E4007A9FE4E304604F065FD702028
:100D7000ADF80000ADF802500294ADF80C4001212E
:100D8000304604F0D1FD0021304604F097FD69465D
:100D9000304604F0D3FD6946304604F0FBFD694659
:100DA000304604F033FE6946304604F069FE86E7BB
:100DB00070B5012188B0080404F064F801210846E8
:100DC00004F038F8E74E03221146304603F0EDFEFA
:100DD00003220221304603F0E8FE0C20009002209E
:100DE0008DF8040003208DF8050000248DF80640DE
:100DF00001258DF807506946304603F04DFE4FF649
:100E0000FF70D94EADF808400390ADF81040ADF832
:100E10000A4002A9304604F00FFD0420ADF814008A
:100E2000C820ADF81C00ADF81640ADF8185005A963
:100E3000304604F0BBFFCD4C00231A460321204668
:100E400005F01DF90121204605F09FF80122114609
:100E5000204605F07AF80121304604F065FD0021B6
:100E6000204604F02BFD1AE42DE9F04701218AB059
:100E7000084603F0FDFF0121022003F0F9FF0121E4
:100E8000032003F0D7FFDFF8DC9201220F21484650
:100E900003F08BFEDFF8D88201220321404603F0E5
:100EA00084FE02220421404603F07FFE0222052137
:100EB000404603F07AFE02268DF8046003273820AE
:100EC0008DF80570002400908DF8064001258DF8FE
:100ED00007506946404603F0DFFD8DF80460E803E3
:100EE0008DF8057000908DF806408DF80750694622
:100EF000484603F0D1FD4FF6FF70ADF80C4004906A
:100F00004FF08049ADF81440ADF80E4003A94846B3
:100F100004F092FCDFF85CA203A9504604F08CFCBC
:100F20004FF004081420ADF81880ADF82000ADF89B
:100F30001A60ADF81C5006A9484604F037FF06A910
:100F4000504604F033FF02231A460321484605F0B9
:100F500096F802231A460321504605F090F8012125
:100F6000484605F012F80121504605F00EF801221E
:100F70001146484604F0E9FF01221146504604F0AC
:100F8000E4FF0121484604F0CFFC0121504604F063
:100F9000CBFC0021484604F091FC0021504604F0AF
:100FA0008DFC780203F0C0FC1D208DF808008DF840
:100FB00009708DF80A408DF80B5002A803F0B9FCB7
:100FC0001C208DF808008DF809808DF80A408DF8F6
:100FD0000B5002A803F0ADFC0AB0BDE8F08770B575
:100FE00001218AB0084603F04DFF0121102003F0D3
:100FF00021FF4FF42060009002208DF804000320B0
:101000008DF8050000245C4E8DF8064001258DF812
:1010100007506946304603F03FFD01220921304662
:1010200003F0C3FD01220B21304603F0BEFD4FF655
:10103000FF704D4EADF808400390ADF81040ADF88C
:101040000A4002A9304604F0F7FB0420ADF8140072
:101050000A20ADF81C00ADF81640ADF8185005A9EF
:10106000304604F0A3FE00231A460321304605F063
:1010700006F80121304604F088FF0122114630466F
:1010800004F063FF0121304604F07FFF0122114686
:10109000304604F05AFF0121304604F045FC00219F
:1010A000304604F00BFC4FF4C06003F03DFC192007
:1010B0008DF820008DF821508DF822408DF82350B6
:1010C00008A803F036FCFAE5F0B59BB001212B48E7
:1010D00003F0B0FE01210D02284603F0D3FE28489C
:1010E0000024CDE90040274802A9082681E85100E4
:1010F000A800CDE90540400007908000CDE9080533
:101100000AA90001012581E831001F4F0D946946AD
:1011100038460E9404F086F90121384604F0BBF9F4
:101120007C20032715908DF858708DF85B4015A929
:101130000C4803F0B1FC3C2015908DF858708DF8E8
:101140005B4015A9114803F0A7FC3804CDE917400E
:101150004FF47060CDE9194017A803F068FF17E05D
:101160000008004000000240000001400040014033
:10117000000402400004004000100240050040004E
:101180004C200140F004002010640240000802409E
:1011900028060F908DF840508DF84150119412940C
:1011A00013948DF850600FA9FE4C204603F014FFF5
:1011B000042301220221204603F083FF042302229C
:1011C0000321204603F07DFF042303221946204615
:1011D00003F077FF04231A460521204603F071FF30
:1011E000042305220C21204603F06BFF0423062272
:1011F0000D21204603F065FF042307220E2120461F
:1012000003F05FFF042308220F21204603F059FF5B
:101210000121204603F0D2FF0121204603F0C4FF44
:101220000121204603F01AFF204603F084FF1BB083
:10123000F0BD08B54FF4E06003F076FB25208DF893
:10124000000000208DF801008DF8020001208DF8CB
:101250000300684603F06DFB08BD70B5054696B007
:101260000121102003F00EFE0121084603F0E2FDEB
:101270000121880503F0DEFD4FF4C06013900220C9
:101280008DF8500000248DF852408DF85340C64E22
:101290008DF8510013A9304603F0FEFB0722092107
:1012A000304603F082FC07220A21304603F07DFC21
:1012B0000F95ADF844400C20BC4DADF84040ADF862
:1012C0004600ADF84240ADF848400FA9284604F06A
:1012D0004CFF0121284604F0B9FF4FF4A06003F051
:1012E00023FB3A208DF854008DF855408DF8564078
:1012F00001208DF8570015A803F01BFBAC4E3046BB
:1013000004F008F84FF000600090AA48CDE902040C
:101310000A200490281D01900015CDE90540801099
:10132000CDE9084040020A9004200B900794032066
:10133000CDE90C04694630460E9404F073F801229E
:101340004021284605F019F801221021304604F00A
:1013500017F90121304604F09EF816B070BDF0B5C3
:101360000646012197B0480503F064FD01214D04B4
:10137000284603F07DFD0121082003F05BFD60207D
:10138000139002208DF8500000248DF852408DF803
:101390005340894F8DF8510013A9384603F07CFB68
:1013A00007220521384603F000FC072206213846B3
:1013B00003F0FBFB0F96ADF844400C207F4EADF8D8
:1013C0004040ADF84600ADF84240ADF848400FA9A6
:1013D000304604F0CAFE0121304604F037FF4FF4D6
:1013E000A06003F0A1FA11208DF854008DF855404B
:1013F0008DF8564001208DF8570015A803F099FA92
:101400006F4F384603F086FFA802009040200390FB
:101410006C4802903C200490301D01900015CDE9ED
:1014200005408010CDE908400420CDE90A5007941A
:101430000320CDE90C04694638460E9403F0F2FF10
:1014400001228021304604F098FF0122802130469D
:1014500004F093FF01221021384604F091F8012195
:10146000384604F018F817B0F0BD70B505460121F4
:1014700096B0880403F0FCFC0121082003F0DAFC9C
:101480000121480503F0D6FC4FF440701390022070
:101490008DF8500000248DF852408DF85340464E90
:1014A0008DF8510013A9304603F0F6FA07220821FF
:1014B000304603F07AFB07220921304603F075FB22
:1014C0000F95414EADF84040ADF844400C25ADF8C5
:1014D0004240ADF84840ADF846500FA9304604F000
:1014E00044FE0121304604F0B1FE4FF4A06003F049
:1014F0001BFA8DF854508DF855408DF85640012058
:101500008DF8570015A803F014FA2D4D783D2846A4
:1015100003F000FF4FF000600090264869461E303F
:10152000CDE9020408200490301D01900015CDE99A
:1015300005408010CDE9084040020A9004200B903D
:1015400007940320CDE90C0428460E9403F06AFFAB
:1015500001224021304604F010FF01224021304694
:1015600004F00BFF01221021284604F009F80121A4
:10157000284603F090FFF0E6F0B50646012197B04B
:10158000C80403F075FC0121084603F053FC012157
:10159000480503F04FFC0325022013958DF85000F9
:1015A000002413E000200140000002400010014030
:1015B0004064024000050020000C0240004400404E
:1015C000A060024034010020004800408DF85240E5
:1015D0008DF85340F94F8DF8510013A9384603F0A8
:1015E0005BFA08220021384603F0DFFA08220121C5
:1015F000384603F0DAFA0F96ADF844400C20F04E6E
:10160000ADF84040ADF84600ADF84240ADF8484076
:101610000FA9304604F0A9FD0121304604F016FE62
:101620004FF4A06003F080F90D208DF854008DF880
:1016300055408DF8564001208DF8570015A803F04D
:1016400078F9E04F384603F065FE78050090DE48F3
:10165000CDE9020408200490301D01900015CDE969
:1016600005408010CDE90840400207940A9004200C
:10167000CDE90C540B90694638460E9403F0D2FE27
:1016800001224021304604F078FE012240213046FC
:1016900004F073FE01221021384603F071FF01218E
:1016A000384603F0F8FEDEE62DE9F04180460121E0
:1016B00096B0480503F0BEFB0121080503F0D8FBF6
:1016C00001210C2003F0B6FB02258DF840500024C8
:1016D0008DF84240BD4F04268DF843400F968DF89B
:1016E00041500FA9384603F0D7F98DF840508DF8D6
:1016F00042408DF84340E8028DF84150B44D0F90C0
:101700000FA9284603F0C8F908220221384603F041
:101710004CFA08220C21284603F047FA4FF4A06047
:1017200003F002F92F208DF8540005208DF85500A4
:101730008DF8560001208DF8570015A803F0F9F830
:10174000ADF84C400C20A34DADF84840ADF84E002C
:10175000CDF84480ADF84A40ADF8504011A9284674
:1017600004F003FD0121284604F070FD954F783701
:10177000384603F0CFFD7006009040200390924859
:1017800069465138029031200490281D01900015BF
:10179000CDE905408010CDE908404002CDE90A06B8
:1017A00007940320CDE90C0438460E9403F03AFE6A
:1017B00001228021284604F0E0FD01221021384654
:1017C00003F0DEFE0121384603F065FE16B0BDE8E9
:1017D000F0812DE9F041054696B00121202003F06B
:1017E00051FB0121042003F025FB0121880503F0B2
:1017F00021FBC020139002208DF8500000248DF8AA
:1018000052408DF85340724E8DF8510013A9304666
:1018100003F042F908220621304603F0C6F90822F7
:101820000721304603F0C1F9ADF844400C20DFF841
:10183000A881ADF84040ADF846000F95ADF84240A4
:10184000ADF848400FA9404604F08FFC0121404606
:1018500004F0FCFC4FF4A06003F066F839208DF82A
:10186000540003268DF8556001258DF856508DF8EB
:10187000575015A803F05DF8584F384603F04AFD5D
:10188000B8050090564802A981E8310008F104002B
:1018900001900015CDE905408010CDE908404002D7
:1018A00007940A900420CDE90C640B9069463846F1
:1018B0000E9403F0B7FD01224021404604F05DFD87
:1018C00001221021384603F05BFE0121384603F067
:1018D000E2FD7BE730B585B00121082003F0AAFACC
:1018E0000121880303F0CEFA00240C208DF810406B
:1018F000012503908DF8135003A9344803F0CCF868
:101900000221032004F0A3FD042000908DF8044080
:1019100010208DF805008DF80650684603F098FEFB
:1019200008208DF808008DF809408DF80A408DF8E0
:101930000B5002A802F0FDFF05B030BD10B5012824
:1019400010D0032819D0042822D0052809D1214C11
:10195000204604F0A1FC4021204604F02EFD002882
:10196000F9D010BD1F4C204604F096FC40212046C3
:1019700004F023FD0028F9D010BD1B4C204604F0D4
:101980008BFC4021204604F018FD0028F9D010BD42
:101990000B4C204604F080FC4021204604F00DFD55
:1019A0000028F9D010BD1149002048620C49C91F18
:1019B00008614FF080425062486170470000024069
:1019C000004C0040406002400F050020000C024027
:1019D000000802400050004000140140286402400A
:1019E00007000020001001400048004000000140B6
:1019F00070B5FF4D00202871044661210120FFF7DA
:101A00009DFF3220FFF719F8641C022CF5D301204A
:101A100028717A20E87070BD10B561210120FFF7B0
:101A20008DFFBDE810403220FFF707B870B5F04DCC
:101A30000020A871044661210320FFF77FFF3220B8
:101A4000FEF7FBFF641C022CF5D30120A8717A205D
:101A5000687170BD2DE9F14F96B0002014908DF89B
:101A600000008DF828004FF40045E148169BE14A3C
:101A7000E14CAE106F1000F580714FF4807A4FF496
:101A800080684FF48059122B7AD2DFE803F00928DE
:101A90002E32363C4248878B8F93979B9FA3ABFD9A
:101AA0000221104603F05EF860B10122294620466B
:101AB00003F070F82946204603F05EF80146002244
:101AC000CEA08AE000222946204603F063F829468A
:101AD000204603F051F801460022CFA07DE0C44823
:101AE00001228030416CD4A077E0C16B0222D4A0E7
:101AF00073E0C1690322D5A06FE0FEF732FF014613
:101B00000422D5A069E0FEF756FF01460522D4A0C5
:101B100063E0FEF778FF01460622D3A05DE0B44CF7
:101B2000E41D2078C00601D4012200E00022D1A1EA
:101B3000684606F0DBFA69460AA805F0D7FF207868
:101B4000800601D4012200E00022CAA1684606F006
:101B5000CDFA69460AA805F0C9FF2078400601D4ED
:101B6000012200E00022C3A1684606F0BFFA6946E0
:101B70000AA805F0BBFF2078000602D4012201E08C
:101B80002DE00022BBA1684606F0B0FA69460AA81B
:101B900005F0ACFF07220AA9B7A068E2016B082292
:101BA000B8A01AE0416A0922B9A016E0016A0A2227
:101BB000BAA012E0816A0B22BCA00EE041780C2290
:101BC000BDA00AE00D220969BFA006E00E228968C7
:101BD000C1A002E00F22C968C3A0FEF703FD17B041
:101BE000BDE8F08FDFF80CB30121584602F0BAFFD0
:101BF0000246A0A1684606F079FA69460AA805F0EF
:101C000075FF0221584602F0ADFF024699A16846D1
:101C100006F06CFA69460AA805F068FF04215846E8
:101C200002F0A0FF024693A1684606F05FFA6946FB
:101C30000AA805F05BFF0821584602F093FF024610
:101C40008CA1684606F052FA69460AA805F04EFFD4
:101C50001021584602F086FF024686A1684606F02B
:101C600045FA69460AA805F041FF2021584602F0CE
:101C700079FF02467FA1684606F038FA69460AA84D
:101C800005F034FF402100E084E0584602F06AFF8E
:101C9000024678A1684606F029FA69460AA805F0C6
:101CA00025FF8021584602F05DFF024671A168467B
:101CB00006F01CFA69460AA805F018FF5146584676
:101CC00002F050FF02466BA1684606F00FFA694623
:101CD0000AA805F00BFF4146584602F043FF0246B2
:101CE00064A1684606F002FA69460AA805F0FEFEFD
:101CF0004946584602F036FF02465EA1684606F0A5
:101D0000F5F969460AA805F0F1FE3146584602F099
:101D100029FF024657A1684606F0E8F969460AA875
:101D200005F0E4FE3946584602F01CFF024651A178
:101D3000684606F0DBF969460AA805F0D7FE294691
:101D4000584602F00FFF02464AA1684606F0CEF957
:101D500069460AA805F0CAFE3146204602F002FF95
:101D6000024644A1684606F0C1F969460AA805F092
:101D7000BDFE3946204602F0F5FE02463DA168460A
:101D800006F0B4F969460AA805F0B0FE10220AA9C7
:101D90003BA06CE180219346104602F0EDFE024626
:101DA00034A1684606F0A2F969460AA805F09EFE2D
:101DB0005146A246204602F0DFFE02462DA16846AB
:101DC00006F094F969460AA805F090FE4FF40071F8
:101DD000504602F0D1FE024626A1684606F086F97A
:101DE00069460AA805F082FE44464146584683E00B
:101DF000000000200004024000080240524F424F01
:101E0000542044414E4720434841592053414E20DD
:101E1000444F3A2020200000524F424F542044416A
:101E20004E4720434841592053414E2058414E4887
:101E30003A20202000000000494D553A00000000E3
:101E400047582074686F633A0000000042545F589E
:101E50006F61793A00000000454E5F524C3A000035
:101E6000454E5F46523A0000454E5F544F4E473A4A
:101E700000000000256400004C494E4520504841B8
:101E8000493A000068616E672074726F6E673A00AD
:101E90006C617A6520646F633A0000006C617A655A
:101EA000206E67616E673A20000000006C617A6501
:101EB0002076653A20000000766920747269206CF3
:101EC000617A653A000000004C415A455220584161
:101ED0004E483A20000000004C415A4552205452CE
:101EE000554F433A000000004C415A455220444FA0
:101EF0003A0000000010024002F03EFE0246AFF23F
:101F00008C01684606F0F2F869460AA805F0EEFD75
:101F10004FF400684146584602F02EFE0246AFF2EA
:101F2000AC01684606F0E2F869460AA805F0DEFD55
:101F30004946584602F020FE0246AFF2C801684604
:101F400006F0D4F869460AA805F0D0FD3146584697
:101F500002F012FE0246AFF2E401684606F0C6F84F
:101F600069460AA805F0C2FD3946584602F004FE4B
:101F70000246AFF20011684606F0B8F869460AA8B2
:101F800005F0B4FD2946584602F0F6FD0246AFF2D0
:101F90001C11684606F0AAF869460AA805F0A6FDD5
:101FA0002146FE4C204602F0E7FD0246AFF23C110E
:101FB000684606F09BF869460AA805F097FD394681
:101FC000204602F0D9FD0246AFF25811684606F0ED
:101FD0008DF869460AA805F089FD4146204602F0C1
:101FE000CBFD0246AFF27411684606F07FF86946F1
:101FF0000AA805F07BFD3146504602F0BDFD0246C1
:10200000AFF29011684606F071F869460AA805F02B
:102010006DFDE34C4146204602F0AEFD0246AFF2B4
:10202000AC11684606F062F869460AA805F05EFD44
:102030004946204602F0A0FD0246AFF2C8116846AC
:1020400006F054F869460AA805F050FD40215846AC
:1020500002F092FD0246AFF2E411684606F046F83F
:1020600069460AA805F042FD11220AA9CDA0FEF793
:1020700018FBB4E50121CC4803F00DBA11B4CB48EC
:102080004168009A914201DD002101E04168491C4C
:102090004160406818BCDDE42DE9F0470025BF4EE3
:1020A000074601244FF400594FF480484FF4805AFA
:1020B00000224146304602F06DFD1020FEF7B1FCD3
:1020C000274201D0012200E000224946304602F0BA
:1020D00061FD01224146304602F05CFD1020FEF712
:1020E000A0FC5146304602F03DFD00B125436000A2
:1020F00010F0FF04DCD12846BDE8F08770B5A74E8C
:102100004FF4004500222946304602F043FD1020DE
:10211000FEF787FC0120FFF7BFFF4220FFF7BCFF5F
:10212000FF20FFF7B9FFFF20FFF7B6FFA04C20709C
:10213000FF20FFF7B1FF6070FF20FFF7ADFFA07039
:10214000FF20FFF7A9FFE070FF20FFF7A5FF207138
:10215000FF20FFF7A1FF607129463046BDE87040BF
:10216000012202F017BD70B58C4E4FF400450022DD
:102170002946304602F00EFD1020FEF752FC0120E9
:10218000FFF78AFF4220FFF787FF04460122294616
:10219000304602F0FFFC1020FEF743FC204670BDE5
:1021A000844A00211165C27981490D2A09D0FF2096
:1021B000087048708870C870087148718871002074
:1021C000704702780A7042784A7082788A70C278C2
:1021D000CA7002790A7142794A7180798871012046
:1021E0007047734873490278FF2A05D14278FF2A65
:1021F00002D18278FF2A09D00A6D531C0B65C82AC8
:1022000003DDFF2101704170817070470020086577
:10221000704767488079704765480078400601D468
:10222000012070470020704761480078C00601D443
:10223000012070470020704701B59DF80000052877
:1022400001D2002008BD9DF8000008BDF0B5594E30
:1022500000271D4606F59A744FF0010C002806D0A1
:1022600009DDC0B2FFF7E8FFE070A7700AE096F85A
:102270007C00E07006E04042C0B2FFF7DDFFE07096
:1022800084F802C0002907D00ADDC8B2FFF7D4FFE6
:10229000E07184F806C009E096F87C00E07105E082
:1022A0004842C0B2FFF7C8FFE071A771002A06D00C
:1022B00009DDD0B2FFF7C0FFE072A7720AE096F81E
:1022C0007C00E07206E05042C0B2FFF7B5FFE0725A
:1022D00084F80AC0002D07D00ADDE8B2FFF7ACFF92
:1022E000E07384F80EC0F0BD96F87C00E073F0BD9A
:1022F0006842C0B2FFF7A0FFE073A773F0BD2B499F
:102300003431C870C871C872C8737047274901203A
:1023100080390866704725488038406AA0F5EA4150
:10232000303901D00120704700207047FFF760BBB3
:102330002048B0F90E00404270471E48B5EEC00A72
:10234000D0ED160AF1EE10FA02D230EE600A01E08A
:1023500030EE200ABDEEC00A10EE100A704710B52C
:10236000041E2DED068B11489FED13AB9FED149BC2
:10237000A0F1800028D000692BDA05F05EFD41EC69
:10238000180B204605F059FD53EC1A2B05F074FC90
:1023900053EC192B05F06AFC2AE00000000C024007
:1023A000000002404F3A0000A060024000010020FF
:1023B0006003002000000020333333333333D33F36
:1023C0009A9999999999B93F9FEDFE0ABDEC068BB0
:1023D00010BD05F032FD41EC180B204605F02DFD37
:1023E00053EC1A2B05F048FC53EC192B05F09DFB20
:1023F00053EC182B05F0B2FC05F043FD00EE100A7B
:10240000E4E7B5EEC00AF1EE10FA01DAB1EE400AE7
:102410007047002800DA40427047EB4991ED1D0AF1
:10242000D1ED1E1AF1EE400A80EEA11A00EE900ADC
:10243000F8EEE00A01EE200ABDEEC00A10EE100A26
:102440007047B0EE402A9FEDE10AB5EEC02AF1EEEA
:1024500010FA01D2B1EE422AF5EEC00AF1EE10FAFE
:1024600001D2F1EE600AB5EEC01AF1EE10FA01D217
:10247000B1EE411AF5EEC01AF1EE10FA01D2F1EE0A
:10248000611AB4EEC02AF1EE10FA01DDB0EE420A94
:10249000F4EEC00AF1EE10FA01DDB0EE600AB4EE1F
:1024A000C01AF1EE10FA01DDB0EE410AF4EEC01AE6
:1024B000F1EE10FA01DDB0EE610A7047C2488030DB
:1024C00000697047C0488030C06B704770B5BE4C23
:1024D000BD4D80342DED048BB0EE408A606AA0F5CE
:1024E000EA4130393FD0226B616C95ED191A891A97
:1024F000401A00EE100AB8EEC00AC0EE010A95EDCF
:102500001A0A30EE800AD4ED010A60EE208AB0EE9D
:10251000680A05F0BBFEB0EE009A20EE090A84EDD1
:10252000170AB0EE680A05F009FE60EE090AC4ED6C
:10253000160A94ED171A94ED0E0A31EE001A30EED9
:10254000C00A84ED141A84ED150A00BFB5EEC08AE6
:10255000F1EE10FA6ED0E06805286BD2DFE800F0EB
:102560000E1F324156009FED970A84ED170A84ED45
:10257000160A84ED150A84ED140AE7E794ED140AAF
:1025800030EE080A84ED140A94ED150A30EE480A7C
:1025900084ED150A94ED160A30EE080A1EE094ED5B
:1025A000150A30EE480A84ED150A94ED160A30EE4D
:1025B000080A84ED160A94ED170AD5ED170A08EEFD
:1025C000600A20E094ED140A30EE080A84ED140A43
:1025D00094ED160AD5ED170A08EE200A84ED160AC6
:1025E0000DE094ED140A30EE080A84ED140A94ED1F
:1025F000150AD5ED170A08EE600A84ED150A94ED68
:10260000170A30EE480A84ED170A13E094ED140A15
:10261000D5ED170A08EE200A84ED140A94ED150A88
:1026200030EE480A84ED150A94ED160A30EE080AD9
:1026300084ED160A04F1500090EC040AFFF701FF44
:10264000D5ED150AF8EEE00A80EE801ABDEEC10A5B
:1026500010EE100AA0612169814200DD2061012095
:10266000A060BDEC048B70BD57490022803100286A
:102670004A61C8610FD19FED530A0A6181ED0E0ACC
:1026800047F230504862886281ED0D0ACA60CA6222
:10269000CA630A661AE770474B48803090ED0D0A0E
:1026A000B5EEC00AF1EE10FA04D1C16811B9C16AE1
:1026B000002909D09FED430A002180ED0D0AC16079
:1026C000C162416C016301E770473F48C0ED1D0ADC
:1026D00080ED1E0A70473C4A8032536A834209D11A
:1026E00053698B4206D1D2ED0E0AF4EE400AF1EEA8
:1026F00010FA0ED05161116909B905211161516CAF
:10270000116382ED0E0A50620020106292ED0D0AF4
:10271000DCE670472C4A30B48032D36A834209D158
:10272000D2ED0D0AF4EE400AF1EE10FA02D1D368B0
:102730008B4226D0546A47F230539C4219D163240D
:10274000546105241461984213DAB5EEC00A0123DE
:10275000F1EE10FAD36302DD536C834207DCB5EE71
:10276000C00AF1EE10FA04D2536C834201DAB1EEE2
:10277000400AD160D06282ED0D0A0020106230BCA8
:10278000A4E630BC7047014647F23050C2E79FEDE7
:102790000D0AA0E710B50C4C2DED028B8034F0EE45
:1027A000608AD4ED0A0AB0EE418AF8EEE00AF4EE4F
:1027B000400AF1EE10FA12D1616981420FD1D4EDD5
:1027C0000B0A05E000000000000000206F12833AB1
:1027D000F8EEE00AF4EE680AF1EE10FA4BD0FDEEE6
:1027E000C00A0146C4ED0A0AD4ED110AF8EEE00A67
:1027F00030EE600ABDEEC00A10EE102A1FED0F0A7F
:102800001046FFF768FF94ED110AF8EEC00A78EE63
:10281000E00AFDEEE00A10EE900A002800DA4042DD
:10282000B8EEC00A642819DDF4EEC08AF1EE10FAA1
:1028300001DCB1EE488A18EE100A05F00FFB00BF6C
:1028400005F01FFBFDEEE80ABDEC028B00EE100A5E
:10285000BDE81040002110EE900A5BE738EEC00A98
:1028600010EE100A05F0FAFA9FEDFE1B53EC112B47
:1028700005F002FAE4E7BDEC028B10BD70B50D4621
:102880002DED048B06461446F0EE418AB0EE609AB8
:10289000B0EE408A0221F54802F064F978EE281A79
:1028A00038EE680AF24B012807D01869401BA04295
:1028B0001BDD00BFB0EE610A05E0D868A0EB0500A3
:1028C000A042F7DC05DAB7EE001AF0EE490A30460E
:1028D00006E0B7EE001AF0EE490A3046B0EE480ABC
:1028E000BDEC048BBDE8704054E7F2DAEBE7E04B57
:1028F0009B68591ADFEDDF1A914202DD30EE410A82
:1029000002E001DA30EE010AB0EE611A42E7D8497E
:1029100010B58039C86B012826DD4A6CC86A801A58
:10292000FFF777FD062809DAC86B421CCA63B0F5C9
:10293000FA7F19DDBDE81040002095E60520CA6B3E
:102940004861FA2A086101DDFB20C863CA6A486C45
:10295000904202DDBFEE000A01E0B7EE000A81ED11
:102960000D0ABDE81040B1E510BD70B5C049803911
:1029700091ED0E0AB5EEC00AF1EE10FA73D10B69B3
:10298000002B70D0C86A47F23054A0426BDA91ED48
:102990000D0AB5EEC00AF1EE10FA7CD04D6AA1F135
:1029A0008002A54260D1B5EEC00A1346F1EE10FADE
:1029B0001B6F03DD4D6CC41AAC4208DBB5EEC00AD8
:1029C000F1EE10FA17D24C6C0344A34213DDCB6B2B
:1029D000032B48DA4B6CC01AFFF71BFD0A28C86AA4
:1029E0000ADA0864002008611FED8A0A486181ED57
:1029F0000D0A0220C86378E091ED040AD1ED0D0ABA
:102A00004B6CB8EEC00A984260EE200A92ED1C0AA8
:102A1000B8EEC01A80EE810A0FDDFFF7F2FC4B6CB6
:102A2000C86AC01AFFF7F5FC00EE900AB8EEE01A8B
:102A3000D2ED180A40EE010A0EE0FFF7E2FC4B6C03
:102A4000C86AC01AFFF7E5FC00EE900AB8EEE01A7B
:102A5000D2ED180A50EE410A91ED040AB8EEC01A00
:102A600080EE810A41E045E0834AB5EEC00AD2ED2E
:102A70001B0AF1EE10FA18DD01EE100AF8EEC11A89
:102A800001EE103AB8EEC11A41EE401AB8EEE01A63
:102A900071EEC11A00E02BE091ED111AB8EEC11AE7
:102AA000F4EEC11AF1EE10FA1BD3B5EEC00AF1EE46
:102AB00010FA1AD201EE100AF8EEE00AF8EEC11A86
:102AC00001EE103AB8EEC11A41EE401A31EEA01AEA
:102AD000D1ED110AF8EEE00AB4EEE01AF1EE10FAC8
:102AE00003DD496C401AFFF73AFCBDE87040EDE4A5
:102AF000086BF6E770BD5E498039C86B02280CDAB6
:102B00001FEDD00A002281ED0E0A81ED0D0A47F279
:102B10003050CA604862C1E90A020B6A56485B1C21
:102B20000B620A68C06F934201DB0A62096EFFF70D
:102B3000E6BB4F4A803A136A5B1C1362834204DD92
:102B400010690844106100201062704710B5FFF74B
:102B5000EFFB474C803C6064FFF7D9FE6269206957
:102B60004FF0FF31002A0BDD90420ED006DAA1694A
:102B700088420ADAFFF751FC022104E0E06C02E02F
:102B800000283CDDE069FFF7D4FFD4E91101814260
:102B900003D0FFF7EAFE606CA064A068002831D083
:102BA00094ED040AD4ED170AB8EEC00A20EE200A0C
:102BB000FFF7C3FB94ED040AD4ED160A0346B8EE02
:102BC000C00A20EE200AFFF7B8FB94ED040AD4ED0A
:102BD000150A0246B8EEC00A20EE200AFFF7ADFB48
:102BE00094ED040AD4ED140A0146B8EEC00A20EEB2
:102BF000200AFFF7A2FBBDE81040FFF727BBBDE8A6
:102C0000104078E710BD2DE9F05F19488038406C1E
:102C1000002800DA4042184C40F28A21174DDFF8B4
:102C200050B0DFF8488004F5207604F53C77884200
:102C30007EDD04F50171DBF808008A68824229DD37
:102C40004B68834226DA28686063A869A063022182
:102C5000404601F087FFC0EBC00006EB8000022178
:102C6000C06B0DE07B14AE47E17A743F0004024074
:102C700000010020CDCC4C3E0000002020020020AE
:102C8000E063404601F06EFFC0EBC00007EB800040
:102C9000C06B1BE0CB6883421BDD824219DA686897
:102CA0006063E869A0630221404601F05BFFC0EB6E
:102CB000C00006EB80000221006CE063404601F09A
:102CC00051FFC0EBC00007EB8000006C2064BDE842
:102CD000F09F0A69824219DD834217DAA8686063AF
:102CE000286AA0630221404601F03CFFC0EBC0000F
:102CF00006EB80000221406CE063404601F032FFA9
:102D0000C0EBC00007EB8000406CDFE74B698342FB
:102D10001BDD824219DAE8686063686AA0630221F9
:102D2000404601F01FFFC0EBC00006EB800000E052
:102D300042E0806CE0630221404601F013FFC0EBEB
:102D4000C00007EB8000806CC0E78969814219DD13
:102D5000834217DA28696063A86AA06302214046AB
:102D600001F000FFC0EBC00006EB80000221C06C48
:102D7000E063404601F0F6FEC0EBC00007EB8000C8
:102D8000C06CA3E78142A2DA68696063E86AA06365
:102D90000221404601F0E6FEC0EBC00006EB8000D9
:102DA0000221006DE063404601F0DCFEC0EBC00094
:102DB00007EB8000006D89E70221C146404601F023
:102DC000D1FEDFF8F48301284FF002013CD0FB482C
:102DD00001F0C8FEC0EBC001A8F1840A0AEB810033
:102DE000D9468168DBF8100081427DDADFF8CCB388
:102DF0000221584601F0B6FEC0EBC0010AEB81008B
:102E00004168D9F8100081426EDD28686063A869C6
:102E1000A06302215D46584601F0A4FEC0EBC0004D
:102E200006EB800002214068E063284601F09AFE2C
:102E3000C0EBC00007EB800040682064D8F80010A9
:102E40006164D8F818003BE1CA46484601F08AFEA2
:102E5000DFF86493C0EBC001A9F1840909EB81009C
:102E60004169DBF81000814225DA0221504601F069
:102E700079FEC0EBC00109EB81008169DBF810002D
:102E8000814218DD06206070A869A06302215546C2
:102E9000504601F067FEC0EBC00006EB8000022147
:102EA0008069E063284601F05DFEC0EBC00007EBDF
:102EB00080008069C1E70221504601F053FEC0EB5B
:102EC000C00109EB81000169DBF81000814229DAB9
:102ED0000221504601F046FEC0EBC00109EB810023
:102EE0004169DBF8100000E0ECE081421ADD0520CA
:102EF000607068686063E869A063022155465046C7
:102F000001F030FEC0EBC00006EB800002214069FA
:102F1000E063284601F026FEC0EBC00007EB80000E
:102F2000406904E10221A54801F01CFEC0EBC0018C
:102F300009EB8100CA46C168DBF81000D94681421E
:102F400029DADFF878B20221584601F00BFEC0EB17
:102F5000C0010AEB81000169D9F8100081421ADD35
:102F600004206070A8686063286AA06302215D463F
:102F7000584601F0F7FDC0EBC00006EB80000221CF
:102F80000069E063284601F0EDFDC0EBC00007EBEF
:102F90008000006908E1DFF824B20221584601F000
:102FA000E1FDC0EBC0010AEB81008168D9F8100097
:102FB000814227DA0221584601F0D4FDC0EBC0015E
:102FC0000AEB8100C168D9F8100081421ADD0320A4
:102FD0006070E8686063686AA06302215D465846D5
:102FE00001F0C0FDC0EBC00006EB80000221C0680C
:102FF000E063284601F0B6FDC0EBC00007EB80009F
:10300000C06811E10221584601F0ACFDC0EBC001DF
:103010000AEB81004168D9F81000814227DA0221C9
:10302000584601F09FFDC0EBC0010AEB81008168AA
:10303000D9F8100081421ADD0220607028696063AF
:10304000A86AA06302215D46584601F08BFDC0EBE3
:10305000C00006EB800002218068E063284601F092
:1030600081FDC0EBC00007EB8000806815E1022104
:10307000584601F077FDC0EBC0010AEB81004168C2
:10308000D9F8100081427FF722AE01206070686994
:103090006063E86AA06302215D46584601F062FD64
:1030A000C0EBC00006EB800002214068E0632846C8
:1030B00001F058FDC0EBC00007EB8000406819E14B
:1030C000A06404E602213D4801F04CFDC0EBC001C4
:1030D0000AEB8100CB46C168D9F8100081422DDA95
:1030E000DFF8D8900221484601F03CFDC0EBC0015A
:1030F0000AEB81008168DBF8100081421EDD686800
:103100006063E869A06302214D46484601F02AFD4C
:10311000C0EBC00006EB800002218068E063284617
:1031200001F020FDC0EBC00007EB80008068206448
:10313000D8F804106164D8F81C00C1E702211F48C8
:1031400001F010FDC0EBC0010AEB8100D14601691E
:10315000DBF81000DA46814232DADFF860B0022193
:10316000584601F0FFFCC0EBC00109EB8100C168CB
:10317000DAF81000814223DDA8686063286AA06342
:1031800002215D46584601F0EDFCC0EBC00006EBA5
:1031900080000221C068E063284601F0E3FCC0EB38
:1031A000C00007EB8000C0682064D8F80810616494
:1031B000D8F8200084E700005002002000040240FC
:1031C000DFF834B50221584601F0CCFCC0EBC00159
:1031D00009EB81004169DAF8100081422BDA022103
:1031E000584601F0BFFCC0EBC00109EB810001694A
:1031F000DAF8100081421EDDE8686063686AA06347
:1032000002215D46584601F0ADFCC0EBC00006EB64
:10321000800002210069E063284601F0A3FCC0EBB6
:10322000C00007EB800000692064D8F80C106164CE
:10323000D8F8240044E70221584601F093FCC0EB83
:10324000C00109EB81008169DAF8100081422BDAB4
:103250000221584601F086FCC0EBC00109EB810059
:103260004169DAF8100081421EDD28696063A86AAE
:10327000A06302215D46584601F074FCC0EBC0001B
:1032800006EB800002214069E063284601F06AFCF9
:10329000C0EBC00007EB800040692064D8F8101034
:1032A0006164D8F828000BE70221584601F05AFC67
:1032B000C0EBC00109EB81008169DAF8100081429E
:1032C0007FF7FFAE68696063E86AA06302215D462C
:1032D000584601F047FCC0EBC00006EB800002211D
:1032E0008069E063284601F03DFCC0EBC00007EBBD
:1032F000800080692064D8F814106164D8F82C002C
:10330000DEE630B5FD4A64204FF4E1749061D56982
:10331000002302F59A71A5420ADDC87481F81230C3
:10332000FEF77AFF10B9D069A042F9DCCB7430BD4A
:10333000A542FBDAC874012081F81200FEF76CFF89
:103340000028F3D1D069A042F8DBEFE7704770B5F1
:10335000EB4CEA4D2078C00708D1287BC043287386
:10336000012004F052F82078C007F9D02A7BE54804
:10337000002132B1FE22C27601238376C2758175A7
:1033800070BDC175C17670BD2DE9F047DC4A9078FB
:10339000401FF52801D8012500E000251079401FC5
:1033A000F52801D8012600E00026D5491078497893
:1033B000C3060ED543060CD583060AD5030608D5E9
:1033C0003DB136B18B0604D5BDE8F0470220FFF7CA
:1033D0004BB94B0702D43221142403E0C90717D09C
:1033E0001E210A249246C54FC206DFF8109307F14A
:1033F000800747F230584FEA40620CD4002A46DA80
:1034000082064FEA006020D5002823DA002029E058
:103410000A210724E6E7002A4FEA806208DB002A37
:103420004FEA006018DA00281BDA4FF4E16019E077
:10343000002A4FEA006004DB002828DA4FF46170AC
:1034400010E000281ADBB0480CE000281FDA4FF427
:10345000E17007E0AD4805E0002818DA40F2465078
:1034600000E0AB48FFF793F99AF80000C1060ED5CB
:1034700041060CD581060AD5000608D545B956B1D6
:10348000796A414507D00520FFF7EEF803E015B152
:10349000FFF702F92DE09AF80210012250460529A3
:1034A00010D24378DB070DD0796A414503D0002064
:1034B000BFEE080A12E089F8002023466242104657
:1034C000194614E0FA291BD99AF80100C00717D051
:1034D000796A414505D00020B7EE080AFFF753F995
:1034E00007E089F800206342224619461046FEF79D
:1034F000ADFE002189F80010BDE8F047FFF7CCB819
:1035000002231A4619461846F1E770B57B48814BED
:10351000803000F18002456E691C416601468C6E68
:103520000021642D03D2DD892C44846605E06425E6
:10353000B4FBF5F4946041668166C66E741CC46683
:103540006E4C8034256F3224322E03D29E8935444E
:10355000056704E0B5FBF4F5D560C1660167C66F89
:10356000751CC567674D343D322E2D6803D21E8908
:103570003544156004E0B5FBF4F51561C1671160D1
:10358000426F551C45675D4D8035322AAD6F02D2C2
:10359000D988294404E0B5FBF4F2584BDA6141675D
:1035A000816770BD704770B5554C544D60784107C8
:1035B0000CD4C0060AD4287AC0432872012003F034
:1035C00024FF6078410701D4C006F7D5287A4A4E17
:1035D000F0B301228021304601F0DCFA6078410727
:1035E0000CD480060AD4687AC0436872012003F0C4
:1035F0000CFF6078410701D48006F7D5687A4FF454
:10360000806130B30122304601F0C4FA607841078E
:103610000CD400060AD4A87AC043A872012003F093
:10362000F4FE6078410701D40006F7D5A87A4FF47C
:10363000805110B30122304601F0ACFA60784107A6
:103640000FD440060DD4287BC0432873012001E02D
:103650000FE010E003F0D9FE6078410701D4400686
:10366000F4D52A7B274800214AB19622C27581757C
:1036700070BD0022AEE70022C5E70022DBE7C1757E
:10368000C17670BD2DE9F0471D4CDFF88C901B4DC5
:103690006078C1074BD1184FC0064FF400664FF455
:1036A00080780CD401223146384601F073FA0122A9
:1036B0004146484601F06EFA6078C00737D160781D
:1036C000000607D400223146384601F063FA6078DC
:1036D000C0072CD16078800607D4002241464846B6
:1036E00001F058FA6078C00721D1607840061ED4F6
:1036F000E87AC043E87217E00004024000000020AE
:1037000060030020340100207CFCFFFF3EFEFFFF31
:10371000BAFAFFFFF004002000080240012003F085
:1037200074FE6078C00702D160780006F6D5E87AAA
:103730004FF4007128B100224846BDE8F04701F07F
:1037400029BA0122F8E7FF4810B56421816100F52C
:1037500058704FF000034278A0F50B7054070AD55B
:10376000940602D4C174837410BD120603D4C174CC
:103770000121817410BDC37410BD704710B50122C2
:103780004021F14801F006FA0122BDE81040510243
:10379000EE4801F0FFB92DE9F05FEA4D6420A86121
:1037A000FFF731FA05F55874607841077ED4E64F8B
:1037B000C00611D401228021384601F0EBF9002225
:1037C0007915E24801F0E6F900224021384601F07F
:1037D000E1F96078400769D4A0466078DC4C0006C7
:1037E0004FF001094FF4806A4FF4805B4FF0000600
:1037F00057D401225146384601F0CCF901225946EE
:10380000384601F0C7F900228021384601F0C2F99C
:1038100095F84400E077494684F81E9095F83420E6
:10382000E275A675E27684F81A90EA6BE869904230
:103830000DDD287EE074A67403E000BFFEF7ECFC0B
:1038400090B9E86BE96916308142F7DC0CE00BDADD
:10385000287EE074A17402E0FEF7DEFC20B9E86B7C
:10386000E96916388142F7DBE6744FF47A70FDF7A8
:10387000E4F800225146384601F08CF900225946FE
:10388000384601F087F901228021384601F082F99B
:10389000E677E676E675FFF734FD98F80100400715
:1038A00058D498F80100800654D400E052E0012278
:1038B0005146384601F06EF901225946384601F06A
:1038C00069F900228021384601F064F995F8480032
:1038D000E077A67795F83800E075A675E07648465B
:1038E00084F81A902A6CE96991420CDD287EE07414
:1038F000A67402E0FEF790FC90B9286CE9691630D6
:103900008142F7DC0CE00BDA297EE174A07402E05E
:10391000FEF782FC20B9286CE96916388142F7DB92
:10392000E6744FF47A70FDF788F800225146384665
:1039300001F030F900225946384601F02BF90122F6
:103940008021384601F026F9E677E676E675BDE88F
:10395000F05FD6E4BDE8F09F30B57A4832214FF0F1
:103960000104816100F558704FF0000342787848F7
:10397000D50602D4C172837205E0550602D4C17225
:10398000847200E0C372150602D4C173847330BD23
:10399000920602D4C173837330BDC37330BD7047C8
:1039A000684B10B5DB1D18784FF00001C40603F119
:1039B000F9004FF0010201D4416100E042611C783E
:1039C000A40601D4816100E082611C78640601D400
:1039D000C16100E0C2611C78240601D4016200E0EC
:1039E00002621C78E40705D042621C78A40703D465
:1039F000816202E04162F8E782621C78640701D4C8
:103A0000C16200E0C2621B781B0701D4016310BDD4
:103A1000026310BD4B488030416A406C081A494926
:103A2000C864704770B5474C40F21A46E41D04F173
:103A300079050CE0696C686A88424FF0000002DD8D
:103A4000B6EE000A01E0BEEE000AFEF79CFE20780A
:103A500080070CD52078400709D52078800606D548
:103A60002078400603D5FCF7CEFFB042E2DB70BD04
:103A7000DFED380A10B5B0EE601A14209FED360A5B
:103A8000FEF788FE40F21A4402E000BFFFF7CAFFCB
:103A9000FCF7B9FFA042F9DB10BD10B5FDF7BCFF84
:103AA000BDE81040FDF77FBF2DE9F041254C264FC2
:103AB00004F5DE78A07804F5B87604F5D47501280D
:103AC0001BD1206B01281CD002286AD10221384664
:103AD00001F048F8C0EBC00006EB800002218068CE
:103AE0002062206B55F820006062384601F03AF8F9
:103AF00058F83000A0622869E062A078022810D04F
:103B000039E00221384601F02DF8C0EBC00006EB89
:103B1000800040682062206B55F820006062E868F1
:103B2000EAE7206B01283ED002283AD1022138462C
:103B300001F018F8C0EBC00006EB800000692062BD
:103B4000206B0BE00000002000040240000802404F
:103B500034010020000000000000614455F82000FE
:103B600060620221384600F0FDFF08EBC0004068AB
:103B7000A0622869E062A078032812D1206B012896
:103B800021D002280DD10221384600F0EBFFC0EB16
:103B9000C00006EB800080692062206B55F8200091
:103BA0006062BDE8F0810221384600F0DBFFC0EB27
:103BB000C00006EB8000C0682062206B55F8200032
:103BC0006062E868D6E70221384600F0CBFFC0EB20
:103BD000C00006EB800040692062206B55F8200091
:103BE0006062E868E062DCE72DE9F05FDFF8F4830B
:103BF0000221404600F0B6FFFB4DDFF8F0B3FC4F6A
:103C0000A5F1CC064FF001094FF0020AA5F5E674C4
:103C1000012825D00020A0610221404600F0A2FF2B
:103C2000C0EBC000A16905EB800000EB81003169A9
:103C3000406888427EDA0221404600F093FFC0EBE4
:103C4000C000A16905EB800050F82100316988426D
:103C50007EDD4FF48061584600F084FFF0B356E0FB
:103C60000620A0610221404600F07CFFC0EBC000AE
:103C7000A16905EB800000EB8100316950F8040C6C
:103C800088423BDA0221404600F06CFFC0EBC000E6
:103C9000A16905EB800050F82110306981422DDDCB
:103CA0004FF48061584600F05DFF20B9A16907EB31
:103CB000810141F8049C4FF40061584600F052FF26
:103CC00020B9A16907EB810141F804AC4FF48051A0
:103CD000584600F047FF30B9A16900E014E007EB57
:103CE0008101C1F814904FF40051584600F03AFF9A
:103CF00020B9A16907EB8101C1F814A0A069401E99
:103D0000A0610028AEDC25E6A16947F821904FF4B8
:103D10000061584600F026FF10B9A16947F821A0BC
:103D20004FF48051584600F01DFF30B9A16907EBF0
:103D3000810100E00CE0C1F818904FF400515846A2
:103D400000F010FF20B9A16907EB8101C1F818A0AC
:103D5000A069401EA0610628FFF65EAFFAE52DE9D6
:103D6000F0412DED088BFDF71EFE02219D4800F06D
:103D7000F9FE5FED87AA9FED9FBA0027DFED9E8ACF
:103D8000DFED9E9A984D4FF49B78CC3DA5F580745D
:103D90001FED908A954E0128B0EE480A4FF01400AE
:103DA000B0EE401AF0EE400A02D0FEF7F3FC9DE0C0
:103DB000FEF7F0FC06E000BFFEF72EFA30B9012056
:103DC00003F023FBFCF71FFE0628F5DBF0EE480AA4
:103DD000B0EE6AAAB0EE601A1920B0EE4A0AFEF7F9
:103DE000D9FC05E0FEF718FA30B9012003F00DFB0D
:103DF000E868A16A8842F5DCB0EE699AA7610AE03A
:103E00000222B0EE681AF0EE480A5020B0EE490ADD
:103E1000A16AFEF733FDE06AA96814388142EFDB3E
:103E2000A069401CA0613228F5DBA76147460AE083
:103E30000222B0EE681AF0EE480A1420B0EE490AE9
:103E4000A16AFEF71BFDA868B842F1DBA069401C1F
:103E5000A0613228F7DBE868A16A88421CDAF0EE3C
:103E6000480A0A20B0EE601AB0EE4B0AFEF792FC48
:103E700006E000BFFEF7D0F970B9012003F0C5FAE3
:103E80000221304600F06EFE0128F3D001213046B9
:103E900000F068FE0128EDD0E868A16A88421CDDC8
:103EA000F0EE480A0A20B0EE601AB0EE4A0AFEF7B9
:103EB00071FC06E0FEF7B0F900280ED1012003F0F6
:103EC000A4FA0221304600F04DFE0128F2D0012173
:103ED000304600F047FE0128ECD0BDEC088B60E6D0
:103EE000FEF79AF930B9012003F08FFAFCF78BFD49
:103EF0000628F5DBB0EE489AB0EE4BAAF0EE490A80
:103F00001920B0EE601AB0EE4A0AFEF743FC05E055
:103F1000FEF782F930B9012003F077FA2869A16A27
:103F20008842F5DCB0EE688AF0EE698AA7610AE0A3
:103F30000222B0EE481AF0EE490A5020B0EE680AAC
:103F4000A16AFEF79BFCE06AA96814388142EFDBA6
:103F5000A069401CA0613228F5DBA76147460AE052
:103F60000222B0EE481AF0EE490A1420B0EE680AB8
:103F7000A16AFEF783FCA868B842F1DBA069401C87
:103F8000A0613228F7DB2869A16A88421CDAF0EECA
:103F9000490A0A20B0EE601AB0EE6A0AFEF7FAFB90
:103FA00006E000BFFEF738F970B9012003F02DFAE2
:103FB0000221304600F0D6FD0128F3D00121304621
:103FC00000F0D0FD0128EDD02869A16A884284DD87
:103FD000F0EE490A0A20B0EE601AB0EE4A0AFEF787
:103FE000D9FB15E000040240CC0100200010024083
:103FF0000C040020000061C4000048C20000E1443D
:10400000FEF70AF900287FF468AF012003F0FDF9FC
:104010000221304600F0A6FD0128F1D001213046F2
:1040200000F0A0FD0128EBD057E72DE9F0412DED80
:10403000028BFFF739FDFFF730FD6420FCF7FDFC34
:10404000FD4C0122D102204600F0A4FDFB4F0122CD
:104050001102384600F09EFD6420FCF7EEFC4FF4A0
:10406000007800224146384600F094FD4FF4C870B5
:10407000FCF7E3FC0221204600F074FD00269FEDD2
:10408000F08AF04D0128A5F58074A66102D0DFED1D
:10409000EE8A3AE0DFEDED8A0AE0B0EE480A02224D
:1040A000B0EE681AF0EE400A5020216AFEF7E6FBF7
:1040B000E06AA9681E308142EFDCA069401CA06163
:1040C0003228F5DBA6610AE0B0EE480A0222B0EE23
:1040D000681AF0EE400A1920216AFEF7CFFB606AE9
:1040E000A96819308142EFDCA069401CA061322828
:1040F000F5DB2BE0B0EE480A0222B0EE681AF0EED3
:10410000400A5020216AFEF7B9FBE06AA9681E3018
:104110008142EFDCA069401CA0613228F5DBA6617A
:104120000AE0B0EE480A0222B0EE681AF0EE400A49
:104130001920216AFEF7A2FB606AA9681930814242
:10414000EFDCA069401CA0613228F5DB1420FEF7EB
:104150008BFABDEC028B41463846BDE8F0410122A6
:1041600000F018BD70B52DED028BFFF79DFC02210C
:10417000B14800F0F7FC00219FEDB18AB14D012854
:10418000A5F58074A16102D0DFEDB18A23E0DFEDF7
:10419000B18A0AE0B0EE480A0222B0EE681AF0EEE8
:1041A000400A1420216AFEF769FB606AA968C01DF5
:1041B0008142EFDCA069401CA0613228F5DB14E0ED
:1041C000B0EE480A0022B0EE681AF0EE400A142061
:1041D000216AFEF753FB606AA968401D8142EFDC4B
:1041E000A069401CA0613228F5DBBDEC028B0020E9
:1041F000BDE87040FEF738BA2DE9F05F8E4D022120
:10420000284600F0AFFC944C022601270128DFF875
:104210002C92206B4FF400684FF4807A4FF4007BAF
:104220000AD002282AD000225146484600F0B2FCAB
:104230002663BDE8F05F95E7012812D0FFF734FC54
:10424000002251464E46484600F0A4FCA0780328C0
:104250000BD000BFFFF783FDA078401CA070276340
:1042600051E5002241462846E0E701228021284608
:1042700000F090FC00225946304611E0FFF714FC94
:1042800000224146284600F085FCA0780328E1D1B1
:1042900001228021284600F07DFC00225946484634
:1042A00000F078FC2846BDE8F05F0022402100F0D5
:1042B00071BC70B5FFF7F1FB674D02202863FFF773
:1042C000F3FB02215C4800F04DFCDFED5D0A634C1E
:1042D0000128B0EE601A4FF00F0004D01FEDBB0AAA
:1042E000FEF758FA1EE09FED5E0AFEF753FA05E06E
:1042F000FDF792FF10BB012003F087F80221204652
:1043000000F030FC0128F3D00121204600F02AFC07
:104310000128EDD012E000BFFDF77EFF70B901204B
:1043200003F073F80221204600F01CFC0128F3D0B2
:104330000121204600F016FC0128EDD0A878401C91
:10434000A8700120286370BD2DE9F0472DED068B84
:10435000FFF7A3FB0221384800F004FC1FEDD99AB7
:104360005FEDDC8A3C4E9FED368A364C3B4D4FF478
:104370008A794FF4967701280BD0B6EE001ADFED5C
:10438000399AF0EE480A3220B0EE690AFEF702FAD6
:10439000C4E0DFED359A9FED2FAAB0EE481AF0EE9B
:1043A000690A3220B0EE4A0AFEF7F4F906E000BFCF
:1043B000FDF732FF30B9012003F027F8FCF7D1FAFE
:1043C000B842F5DBB0EE481AF0EE690A3220B0EEE2
:1043D0004A0AFEF7DFF94FF49C7705E0FDF71CFF72
:1043E00028B9012003F011F8A068B842F6DCFFF705
:1043F000C5F9DFED1B9AF0EE480A1920B0EE601AFD
:10440000B0EE690AFEF7C6F94FF48B7806E000BFFC
:10441000FDF702FF28B9012002F0F7FFE0684045F0
:10442000F6DAF0EE480A0D20B0EE601AB0EE490A56
:10443000FEF7B0F920E0000000040240000802404E
:1044400000000000000100200000C8C20000C842B7
:104450000000C8C30000E14300000020001002403B
:10446000000061440000E1C300802244FDF7D4FE57
:1044700028B9012002F0C9FFA068B842F6DBE06865
:10448000B0F5867F1DDAF0EE480A0A20B0EE601A19
:10449000B0EE680AFEF77EF906E000BFFDF7BCFE4D
:1044A00070BB012002F0B1FF0221284600F05AFB48
:1044B0000128F3D00121284600F054FB0128EDD05B
:1044C0001EE048451CDBF0EE480A0A20B0EE601AF8
:1044D000B0EE690AFEF75EF906E000BFFDF79CFE4C
:1044E00070B9012002F091FF0221284600F03AFB4A
:1044F0000128F3D00121284600F034FB0128EDD03B
:10450000B078401CB070BDEC068BBDE8F08700BFF2
:10451000FDF782FE30B9012002F077FFFCF74BFA7D
:10452000B842F5DBB6EE001AF0EE480A3220B0EEE3
:10453000690AFEF72FF94FF49D7705E0FDF76CFE51
:1045400028B9012002F061FFA068B842F6DAFFF74F
:1045500015F9B6EE001AF0EE480A1420B0EE680A1B
:10456000FEF718F94FF48F7806E000BFFDF754FE10
:1045700028B9012002F049FF20694045F6DAB6EE7D
:10458000001AF0EE480A0F20B0EE490AFEF702F9D1
:1045900006E000BFFDF740FE28B9012002F035FF1C
:1045A000A068B842F6DD2069484519DA0A2140F2D0
:1045B000B630FEF7ECF806E0FDF72EFE00289FD19E
:1045C000012002F022FF0221284600F0CBFA012848
:1045D000F2D00121284600F0C5FA0128ECD08FE77F
:1045E000B0F58D7F8CDB0A215348FEF7D0F806E04A
:1045F000FDF712FE002883D1012002F006FF022100
:10460000284600F0AFFA0128F2D00121284600F038
:10461000A9FA0128ECD073E7FFF796FE4FF4FA747D
:10462000464D0BE0FFF701FD2046FCF706FAFFF7C9
:10463000E3FD2046FCF701FAFFF7DEFDA87803282A
:10464000F0D1FEE71120FDF719FD0F2002F0DDFE8D
:10465000F8E70A2002F0D9FEFBE7384CFEF755FFD9
:10466000FFF79EF9207808B9FEF770FA052002F0EE
:10467000CCFEF3E71FB5FCF7ECF9FCF71DFAFCF7ED
:1046800020FBFCF7F1FBFCF7AAFCFCF71DFDFCF797
:1046900079FA4FF4E1342046FCF7DFFD2046FCF7C1
:1046A0005EFE2046FCF7E1FE2046FCF765FFE000D9
:1046B000FCF7FAFFFDF79CF9FDF775F900244FF4BC
:1046C000807500940194029423462A461CA1214837
:1046D000039402F0C3FC00940194029400232A4640
:1046E0001DA12248039402F0B9FC214C02E000BF56
:1046F000FEF74AFEA0797328FCD1F9E77FB50024C4
:104700004FF4807500940194029423462A4619A11F
:104710001B48039402F0A2FC00940194029400232D
:104720002A4618A11A48039402F098FC02F0BCFF34
:1047300004B0002070BD00004AFCFFFF0000002014
:104740007461736B526F626F74416E616C797469DE
:10475000637300005B4600087461736B44696575A0
:104760004B6869656E436F436175000053460008EE
:10477000600300207461736B4D61696E000000007E
:10478000754600087461736B4779726F0000000012
:10479000454600080CB500205149019000900A6878
:1047A00042F480320A604FF4A0630A6802F40032D7
:1047B0000092019A521C0192009A12B9019A9A42EF
:1047C000F3D10A68920334D5012000904448403068
:1047D000026842F0805202604248026842F480421D
:1047E00002603F48083002680260026842F40042FA
:1047F0000260026842F4A0520260031F3A4A1A6043
:104800000A6842F080720A600A689201FCD5374A51
:1048100040F205611160016821F003010160016847
:1048200041F0020101600168C1F381010229FAD15E
:104830000CBD00900CBD2A4810B5016841F0010183
:104840000160274A0021083211600268284B1A4093
:104850000260031D274A1A60026822F48022026067
:104860001F480C300160FFF795FF23494FF00060AF
:10487000086010BD70B51A4C083420681F4A10F04B
:104880000C011F4804D05510042903D0082903D077
:1048900002601BE0056019E01149091D0B68C3F3B4
:1048A00080560B6803F03F0316B1B5FBF3F201E04D
:1048B000B2FBF3F20B680968C3F388135A43C1F3E0
:1048C0000141491C4900B2FBF1F1016021680C4A29
:1048D000C1F30311121D515C0268CA40026070BD31
:1048E000003802400070004008544007003C02407D
:1048F000FFFFF6FE1030002408ED00E00024F40075
:104900007C0300200648804706480047FEE7FEE794
:10491000FEE7FEE7FEE7FEE7FEE7FEE7FEE7FEE76F
:1049200037480008890100082849084328490860D9
:10493000704730B50F22C47801780123FCB1244CB4
:10494000246801F1E02104F4E064C4F5E064C4F3F8
:104950000724C4F10405E2404478AC408578154052
:1049600025432A0181F80024007800F01F018B40C4
:104970004009800000F1E020C0F8003130BD01F0B6
:104980001F0083404809800000F1E020C0F880311A
:1049900030BD104A114001430D48001F01607047AF
:1049A0000B4A121D0029116801D0014300E0814328
:1049B000116070474FF0E0210428086903D020F00F
:1049C00004000861704740F00400FAE70000FA05AF
:1049D0000CED00E080FFFF1F7C4910B5884206D136
:1049E0000121084600F058FA002101204FE07849E3
:1049F000884206D10121022000F04EFA0021022057
:104A000045E07449884206D10121042000F044FAAF
:104A1000002104203BE07049884206D10121082092
:104A200000F03AFA0021082031E06C49884206D1B2
:104A30000121102000F030FA0021102027E0684901
:104A4000884206D10121202000F026FA00212020F2
:104A50001DE06449884206D10121402000F01CFA83
:104A60000021402013E06049884206D101218020C6
:104A700000F012FA0021802009E05C4988420AD146
:104A800084150121204600F007FA00212046BDE8E8
:104A9000104000F001BA10BDF0B500230124032737
:104AA0000D6804FA03F21540954242D1D0F800C0D7
:104AB0005E0007FA06F52CEA050CC0F800C091F874
:104AC00004C0D0F800E00CFA06FC4CEA0E0CC0F86A
:104AD00000C091F804C0BCF1010F02D0BCF1020F7C
:104AE0001FD1D0F808C02CEA050CC0F808C091F816
:104AF00005C0D0F808E00CFA06FC4CEA0E0CC0F831
:104B000008C0D0F804C02CEA020CC0F804C0426807
:104B100091F806C00CFA03FC1FFA8CFC42EA0C0266
:104B20004260C268AA43C260CA79C568B2402A43DB
:104B3000C2605B1C102BB3D3F0BD4FF6FF71016058
:104B40000021017141718171C171704708B541F453
:104B500080320092C261C1610099C161C169C069BE
:104B6000009008BD0246002012690A4200D00120D0
:104B70007047006980B270470246002052690A42BD
:104B800000D001207047406980B2704701837047B0
:104B9000418370470AB10183704741837047416187
:104BA000704742694A40426170474B07DB0E9A40AA
:104BB000C90810B500EB8100016A0F249C40A14395
:104BC0000162016A1143016210BD00000000024051
:104BD0000004024000080240000C024000100240A5
:104BE0000014024000180240001C02400020024055
:104BF000EA48016841F001010160E84A00210832F9
:104C000011600268E64B1A400260031DE54A1A6013
:104C1000026822F480220260E0480C300160704794
:104C2000DE490022891C0A70087070470246002085
:104C3000510901290CD002290CD0D84974310968D6
:104C400002F01F02012393400B4200D00120704765
:104C5000D249F4E7D1497031F1E718B500204FF49B
:104C6000A06400903120FFF7E1FF0099491C0091FA
:104C7000A14201D00028F5D03120FFF7D7FF00284E
:104C800000D0012018BDC5490A6822F0F80242EAA6
:104C9000C00008607047C44908607047BF490022DF
:104CA00070310A700A70012802D0042801D1052051
:104CB00008707047BD490860704741EA82115A0880
:104CC00010B5BB4B029C03EB02421143014341EA86
:104CD0000460B249091D086010BDB34908667047F9
:104CE000800140EA0170AD49843108607047AE49E7
:104CF00088667047AC49C8647047A84A0832136890
:104D0000084323F0EC63184310607047A34A08324D
:104D10001368084323F078431843106070479F4A94
:104D20000832116821F003010143116070479B486C
:104D30000830006800F00C007047984A083211688B
:104D400021F0F001014311607047944A0832116864
:104D500021F4E051014311607047904908310A681D
:104D600022F4604242EAC0000860704770B58B4A86
:104D7000083211688F4C11F00C0104D06610042920
:104D800003D0082903D004601BE0066019E08349C2
:104D9000091D0B68C3F380550B6803F03F0315B181
:104DA000B6FBF3F301E0B4FBF3F30C680968C4F35A
:104DB00088146343C1F30141491C4900B3FBF1F17D
:104DC000016011680F2303EA11117B4B5C5C0168E1
:104DD000E14041601468072505EA94241C5D21FA2E
:104DE00004F48460126805EA52329A5CD140C160D2
:104DF00070BDC0F30121032908D1684A0832116847
:104E000021F4F8136D490140194311606349703171
:104E10000A68C0F30B0002430A60704763494439D3
:104E20000860704761494039086070475E49C1F8C1
:104E30005C017047594A30320029116801D00143A2
:104E400000E0814311607047544A343200291168F0
:104E500001D0014300E08143116070474F4A38326E
:104E60000029116801D0014300E0814311607047BF
:104E70004A4A40320029116801D0014300E08143D1
:104E800011607047454A44320029116801D001433E
:104E900000E0814311607047404A103200291168D8
:104EA00001D0014300E08143116070473B4A143256
:104EB0000029116801D0014300E08143116070476F
:104EC000364A18320029116801D0014300E08143BD
:104ED00011607047314A20320029116801D0014326
:104EE00000E08143116070472C4A24320029116888
:104EF00001D0014300E0814311607047274A5032DE
:104F00000029116801D0014300E08143116070471E
:104F1000224A54320029116801D0014300E0814344
:104F2000116070471D4A58320029116801D00143B1
:104F300000E0814311607047184A6032002911680F
:104F400001D0014300E0814311607047134A64328D
:104F50000029116801D0014300E0814311607047CE
:104F60000E4A0D320029117801D0014300E081433F
:104F70001170704709487430016841F08071016018
:104F800070470146054A00200C3212680A4200D0E0
:104F90000120704701490E31087070470038024007
:104FA000FFFFF6FE1030002400004742800E47420B
:104FB0000000FFFF0024F40090030020FFFCFF0F1F
:104FC00010B501210C022046FFF78EFF2046BDE8F8
:104FD00010400021FFF788BF30B54268C84B0C79FC
:104FE0001A400B6842EA0422134343608268C54BAF
:104FF0004D791A40D1E9034323438C6844EA4504C0
:10500000234313438360C26A097D22F47002491E60
:10501000C9B242EA0151C16230BD00210160017193
:1050200041718160C1600161012101757047B64B1A
:1050300010B5D3F80423B5490A40D0E90014214340
:10504000D0E90240044321431143C3F8041310BDC7
:105050000021016041608160C16070470029816862
:1050600002D041F0010101E021F0010181607047AF
:105070004268A74B1A400A4342607047416282620D
:105080007047426822F01F020A43426070479E49FF
:105090000028D1F8040302D040F4000001E020F41D
:1050A0000000C1F80403704797490028D1F80403B1
:1050B00002D040F4800001E020F48000C1F8040335
:1050C000704770B5072409290AD9C568A1F10A06F5
:1050D00006EB4606B440A543B3401D43C56007E058
:1050E000056901EB4106B440A543B3401D4305618A
:1050F0001F23072A09D2446B521E02EB82029340FF
:105100009C4391400C43446370BD0D2A09D2046B4B
:10511000D21F02EB820293409C4391400C430463F4
:1051200070BDC46A0D3A02EB820293409C439140E9
:105130000C43C46270BD816841F08041816070475A
:10514000014600208968490200D5012070470029E6
:10515000816802D041F4806101E021F480618160C6
:1051600070470029816802D041F0020101E021F07E
:105170000201816070474268491E22F4604242EA9F
:105180004131416070470029416802D041F400611B
:1051900001E021F4006141607047C06C80B270474B
:1051A0005948D0F8080370470029816802D041F4BB
:1051B000807101E021F4807181607047002981686D
:1051C00002D041F4007101E021F400718160704768
:1051D0004D490028D1F8040302D040F4005001E00A
:1051E00020F40050C1F80403704770B50724092962
:1051F0000AD9C568A1F10A0606EB4606B440A543E4
:10520000B3401D43C56007E0056901EB4106B440AA
:10521000A543B3401D430561836BC3F30154121BC7
:10522000921C02EB82041F22A2409343A1400B4335
:10523000836370BD826B491E22F4401242EA015121
:105240008163704708B508440090026008BD826819
:1052500022F470220A4382607047826822F440126E
:105260000A4382607047816841F480018160704721
:10527000014600208968490200D5012070470029B5
:10528000416802D041F4806101E021F48061416015
:1052900070470029416802D041F4805101E021F4B7
:1052A00080514160704708B508442830009000687C
:1052B00080B208BD01238B4041680AB1194300E068
:1052C0009943416070470246002012680A4200D0AC
:1052D00001207047C9430160704730B50246002085
:1052E00053680C0A01258D4011682B40214202D0E1
:1052F000002B00D0012030BD6FEA11210160704702
:10530000FFFEFFFCFDF7FFC000200140E030FCFF86
:10531000FFFD3FFF2DE9F043016821F0010101602D
:105320000021016041608160C16001612121416112
:10533000B849B84A3D251039904202D18D60BDE888
:10534000F083B44A4FF474661832904201D18E60F3
:10535000F5E7B04A4FF474173032904201D18F60B4
:10536000EDE7AC4A4FF0746C4832904202D1C1F87C
:1053700008C0E4E7A74BA84A6033984201D1CA604D
:10538000DDE7A44CA54B7834A04201D1CB60D6E731
:10539000DFF88082A24C08F19008404501D1CC6032
:1053A000CDE7DFF870824FF03D5908F1A80840457D
:1053B00002D1C1F80C90C2E79A49DFF86882083937
:1053C000404501D10D60BAE7964D1835A84201D18C
:1053D0000E60B4E7934D3035A84201D10F60AEE7BF
:1053E000904D4835A84202D1C1F800C0A7E78D4DC5
:1053F0008C496035091FA84201D10A609FE7894A9C
:105400007832904201D10B6099E7864A90329042FF
:1054100001D10C6093E7834AA83290428FD1C1F842
:1054200000908CE730B503687F4ACC6813400A6867
:105430002243D1E905452C432243CC6922430C6A1F
:1054400022434C6A22438C6A22434C6B22438C6B6E
:1054500022431A430260426922F00703D1E90B2478
:1054600022431A4342610A6942604A68826089683D
:10547000C16030BD0021016041608160C160016197
:1054800041618161C161016241628162C162016306
:105490004163816370470029016802D041F0010136
:1054A00001E021F00101016070470029016802D08C
:1054B00041F4004101E021F40041016070470029FE
:1054C000016802D041F0200101E021F020010160DB
:1054D000704741607047406880B27047002A026898
:1054E00002D042F4002201E022F4002202600161B5
:1054F00070470029016802D041F4802101E021F4C5
:105500008021016070470AB101617047C160704736
:10551000014600200968090300D5012070470146B3
:1055200000200968C90700D001207047406900F0D9
:105530003800704702463B4B00209A4202D2354A5F
:10554000103A01E0374A103A8B0001D5526800E06A
:105550001268364B1A400A4200D001207047314A87
:10556000904202D22B48103801E02E4810382F4AC2
:105570008B0001EA020101D5C1607047816070476C
:105580000B0607D5436912B143F0800301E023F015
:1055900080034361802908D0002A026801F01E01BF
:1055A00001D00A4300E08A430260704730B51D4ACB
:1055B0000024904202D2174B103B01E0194B103BE4
:1055C0001B4A114205D01E2202EAD12502682A4058
:1055D00002E0406900F08002880001D5586800E0D0
:1055E0001868124B1840084201D002B1012420462D
:1055F00030BD0C4A904202D20648103801E00948FA
:1056000010380A4A8B0001EA020101D5C1607047D7
:1056100081607047106002403D000020400F002074
:1056200000003D20106402403F801CF07D0F7D0F84
:105630003C0F3C0F374900200860091D0860091D18
:105640000860091D08603349334814310860704709
:1056500030B530498379026853B30B6893430B60CC
:105660000A1D13680468A343136002790A4413688F
:10567000046823431360274A083213680468A3436D
:105680001360131D1C680568AC431C604479102C22
:1056900005D021440A68006802430A6030BD1168E1
:1056A000046821431160196800680143196030BD26
:1056B0000079084401689143016030BD0021016018
:1056C00001710C22427181717047124910310A68D0
:1056D00002430A60704701460E4A002014321268E5
:1056E0000A4200D0012070470A491431086070470F
:1056F000084A014600201268064B0A4014331B6812
:105700000B4202D0002A00D0012070470149143119
:1057100008607047003C0140FFFF7F00FE4910B564
:10572000884206D101210846FFF7DEFB0021012057
:105730005BE0B0F1804F09D0F84988420DD10121DA
:105740000220FFF7C7FB0021022070E0012108467C
:10575000FFF7C0FB0021012069E0F149884206D132
:1057600001210420FFF7B6FB002104205FE0ED4992
:10577000884206D101210820FFF7ACFB0021082058
:1057800055E0E949884206D101211020FFF7A2FB2C
:10579000002110204BE0E549884206D1012120205C
:1057A000FFF798FB0021202041E0E149884206D123
:1057B00001210220FFF798FB0021022015E0DD49BE
:1057C000884202D101210C040AE0DB49884202D15F
:1057D00001214C0404E0D94988420AD101218C04FA
:1057E0002046FFF781FB00212046BDE81040FFF76F
:1057F0007BBBD349884206D101214020FFF76AFBD9
:105800000021402013E0CF49884206D101218020A9
:10581000FFF760FB0021802009E0CB4988420AD1D4
:10582000841501212046FFF755FB00212046BDE8E5
:105830001040FFF74FBB10BD30B50288B64BBC4CD3
:1058400098420DD0A0420BD0B0F1804F08D0B34D9C
:10585000A84205D0B24DA84202D0B24DA84203D111
:1058600022F070054A882A43AF4DA84206D0AF4DBA
:10587000A84203D022F440750A892A4302804A686C
:10588000C2620A880285984201D0A04201D1897A79
:1058900001860121818230BD4FF0FF31416000213E
:1058A0000180018141808172704701858282704749
:1058B000028822F070020A430280704741627047FA
:1058C000C1627047406A7047008D704700290188A7
:1058D00002D041F0020101E021F002010180704795
:1058E0000029018802D041F0040101E021F0040107
:1058F000018070470029018802D041F0800101E059
:1059000021F0800101807047028822F008020280A5
:1059100002880A4302807047028822F440720280A3
:1059200002880A43028070470029018802D041F0B2
:10593000010101E021F001010180704730B5028CC6
:1059400022F001020284028C8388048B22F002027E
:1059500024F073050C882C438D8915434A882A430B
:105960006D4DA84202D0724DA8420DD122F008051B
:10597000CA8923F440732A4322F004058A882A4303
:105980000D8A1D434B8A2B438380048389684163BE
:10599000028430BD70B5028C22F010020284028CA9
:1059A0008488038B0D8823F4E6464FF6FF7303EAE1
:1059B000052535438E8922F0200203EA0616164398
:1059C0004A8803EA02123243534EB04202D0584E84
:1059D000B04215D122F08006CA8924F4406403EA5B
:1059E0000212324322F040068A8803EA021232434E
:1059F0000E8A03EA860626434C8A03EA840434436B
:105A00008480058389688163028470BD70B5028CCF
:105A100022F480720284028C8488838B0D8823F0A8
:105A200073031D4322F400738E894FF6FF7202EA5E
:105A300006261E434B8802EA03233343364EB04208
:105A400002D03B4EB04215D123F40066CB8924F43A
:105A5000405402EA0323334323F480668B8802EA2E
:105A6000032333430E8A02EA061626434C8A02EACF
:105A700004143443848085838968C163038470BDC2
:105A800070B5028C22F480520284048C8288838B4D
:105A90000D8823F4E6464FF6FF7303EA05253543E8
:105AA00024F400568C8903EA043434434E8803EA14
:105AB00006362643184CA04202D01D4CA04205D108
:105AC00022F480440A8A03EA821222438280858378
:105AD00089680164068470BD002101804180818055
